ARM GAS  C:\Users\Jim_YW\AppData\Local\Temp\cclYLpCh.s 			page 1


   1              		.cpu cortex-m4
   2              		.arch armv7e-m
   3              		.fpu fpv4-sp-d16
   4              		.eabi_attribute 27, 1
   5              		.eabi_attribute 28, 1
   6              		.eabi_attribute 20, 1
   7              		.eabi_attribute 21, 1
   8              		.eabi_attribute 23, 3
   9              		.eabi_attribute 24, 1
  10              		.eabi_attribute 25, 1
  11              		.eabi_attribute 26, 1
  12              		.eabi_attribute 30, 1
  13              		.eabi_attribute 34, 1
  14              		.eabi_attribute 18, 4
  15              		.file	"menu_config.c"
  16              		.text
  17              	.Ltext0:
  18              		.cfi_sections	.debug_frame
  19              		.section	.text.config_reset,"ax",%progbits
  20              		.align	1
  21              		.global	config_reset
  22              		.syntax unified
  23              		.thumb
  24              		.thumb_func
  26              	config_reset:
  27              	.LFB130:
  28              		.file 1 "Menu/menu_config.c"
   1:Menu/menu_config.c **** #include "menu_config.h"
   2:Menu/menu_config.c **** #define CONFIG_DEMO
   3:Menu/menu_config.c **** 
   4:Menu/menu_config.c **** #define DEVICE_ID 	1001
   5:Menu/menu_config.c **** #define VERSION_MAX	1
   6:Menu/menu_config.c **** #define VERSION_MIN	12
   7:Menu/menu_config.c **** 
   8:Menu/menu_config.c **** struct config config;
   9:Menu/menu_config.c **** struct config_uart cfg_uart =
  10:Menu/menu_config.c **** {
  11:Menu/menu_config.c **** 	.baudrate = 9600,
  12:Menu/menu_config.c **** 	.databits = 8,
  13:Menu/menu_config.c **** 	.parity	=0,
  14:Menu/menu_config.c **** 	.stopbits = 1
  15:Menu/menu_config.c **** };
  16:Menu/menu_config.c **** 
  17:Menu/menu_config.c **** 
  18:Menu/menu_config.c **** struct config_protocol cfg_protocol =
  19:Menu/menu_config.c **** {
  20:Menu/menu_config.c ****     .type = 0,
  21:Menu/menu_config.c ****     .pre_command = {0},
  22:Menu/menu_config.c ****     .pre_timout = 0,
  23:Menu/menu_config.c ****     .command = {0},
  24:Menu/menu_config.c ****     .timeout = 0,
  25:Menu/menu_config.c ****     .parser = 0,
  26:Menu/menu_config.c **** 	.endian = 0
  27:Menu/menu_config.c **** };
  28:Menu/menu_config.c **** struct config_output cfg_output =
  29:Menu/menu_config.c **** {
  30:Menu/menu_config.c ****     .begin_byte = 0,
ARM GAS  C:\Users\Jim_YW\AppData\Local\Temp\cclYLpCh.s 			page 2


  31:Menu/menu_config.c ****     .length = 0,
  32:Menu/menu_config.c ****     .end_byte = 0,
  33:Menu/menu_config.c **** 	.place = 0,
  34:Menu/menu_config.c **** 	.number = 0 
  35:Menu/menu_config.c **** };
  36:Menu/menu_config.c **** 
  37:Menu/menu_config.c **** int config_reset(void)
  38:Menu/menu_config.c **** {
  29              		.loc 1 38 1 view -0
  30              		.cfi_startproc
  31              		@ args = 0, pretend = 0, frame = 0
  32              		@ frame_needed = 0, uses_anonymous_args = 0
  33 0000 10B5     		push	{r4, lr}
  34              	.LCFI0:
  35              		.cfi_def_cfa_offset 8
  36              		.cfi_offset 4, -8
  37              		.cfi_offset 14, -4
  39:Menu/menu_config.c **** // #ifdef CONFIG_DEMO
  40:Menu/menu_config.c **** 	config.device_id = DEVICE_ID;
  38              		.loc 1 40 2 view .LVU1
  39              		.loc 1 40 19 is_stmt 0 view .LVU2
  40 0002 104C     		ldr	r4, .L3
  41 0004 40F2E933 		movw	r3, #1001
  42 0008 2380     		strh	r3, [r4]	@ movhi
  41:Menu/menu_config.c **** 	config.version_max = VERSION_MAX;
  43              		.loc 1 41 2 is_stmt 1 view .LVU3
  44              		.loc 1 41 21 is_stmt 0 view .LVU4
  45 000a 0123     		movs	r3, #1
  46 000c 6380     		strh	r3, [r4, #2]	@ movhi
  42:Menu/menu_config.c **** 	config.version_min = VERSION_MIN;
  47              		.loc 1 42 2 is_stmt 1 view .LVU5
  48              		.loc 1 42 21 is_stmt 0 view .LVU6
  49 000e 0C22     		movs	r2, #12
  50 0010 A280     		strh	r2, [r4, #4]	@ movhi
  43:Menu/menu_config.c **** 	config.samp_interval_s = 1;
  51              		.loc 1 43 2 is_stmt 1 view .LVU7
  52              		.loc 1 43 25 is_stmt 0 view .LVU8
  53 0012 E380     		strh	r3, [r4, #6]	@ movhi
  44:Menu/menu_config.c **** 	config.uart = cfg_uart;
  54              		.loc 1 44 2 is_stmt 1 view .LVU9
  55              		.loc 1 44 14 is_stmt 0 view .LVU10
  56 0014 0C4A     		ldr	r2, .L3+4
  57 0016 04F10803 		add	r3, r4, #8
  58 001a 07CA     		ldm	r2, {r0, r1, r2}
  59 001c 83E80700 		stm	r3, {r0, r1, r2}
  45:Menu/menu_config.c **** 	config.protocol = cfg_protocol;
  60              		.loc 1 45 2 is_stmt 1 view .LVU11
  61              		.loc 1 45 18 is_stmt 0 view .LVU12
  62 0020 8A22     		movs	r2, #138
  63 0022 0A49     		ldr	r1, .L3+8
  64 0024 04F11400 		add	r0, r4, #20
  65 0028 FFF7FEFF 		bl	memcpy
  66              	.LVL0:
  46:Menu/menu_config.c **** 	config.output = cfg_output;
  67              		.loc 1 46 2 is_stmt 1 view .LVU13
  68              		.loc 1 46 16 is_stmt 0 view .LVU14
  69 002c 084B     		ldr	r3, .L3+12
ARM GAS  C:\Users\Jim_YW\AppData\Local\Temp\cclYLpCh.s 			page 3


  70 002e 03CB     		ldmia	r3!, {r0, r1}
  71 0030 C4F89E00 		str	r0, [r4, #158]	@ unaligned
  72 0034 C4F8A210 		str	r1, [r4, #162]	@ unaligned
  73 0038 1B88     		ldrh	r3, [r3]	@ unaligned
  74 003a A4F8A630 		strh	r3, [r4, #166]	@ unaligned
  47:Menu/menu_config.c **** // #endif
  48:Menu/menu_config.c **** return 0;
  75              		.loc 1 48 1 is_stmt 1 view .LVU15
  49:Menu/menu_config.c **** }
  76              		.loc 1 49 1 is_stmt 0 view .LVU16
  77 003e 0020     		movs	r0, #0
  78 0040 10BD     		pop	{r4, pc}
  79              	.L4:
  80 0042 00BF     		.align	2
  81              	.L3:
  82 0044 00000000 		.word	.LANCHOR0
  83 0048 00000000 		.word	.LANCHOR1
  84 004c 00000000 		.word	.LANCHOR2
  85 0050 00000000 		.word	.LANCHOR3
  86              		.cfi_endproc
  87              	.LFE130:
  89              		.section	.text.config_check,"ax",%progbits
  90              		.align	1
  91              		.global	config_check
  92              		.syntax unified
  93              		.thumb
  94              		.thumb_func
  96              	config_check:
  97              	.LFB131:
  50:Menu/menu_config.c **** 
  51:Menu/menu_config.c **** int config_check(void)
  52:Menu/menu_config.c **** {
  98              		.loc 1 52 1 is_stmt 1 view -0
  99              		.cfi_startproc
 100              		@ args = 0, pretend = 0, frame = 0
 101              		@ frame_needed = 0, uses_anonymous_args = 0
 102              		@ link register save eliminated.
  53:Menu/menu_config.c **** 	return 0;
 103              		.loc 1 53 2 view .LVU18
  54:Menu/menu_config.c **** 	
  55:Menu/menu_config.c **** }
 104              		.loc 1 55 1 is_stmt 0 view .LVU19
 105 0000 0020     		movs	r0, #0
 106 0002 7047     		bx	lr
 107              		.cfi_endproc
 108              	.LFE131:
 110              		.section	.text.config_get_cfg,"ax",%progbits
 111              		.align	1
 112              		.global	config_get_cfg
 113              		.syntax unified
 114              		.thumb
 115              		.thumb_func
 117              	config_get_cfg:
 118              	.LFB132:
  56:Menu/menu_config.c **** 
  57:Menu/menu_config.c **** int config_get_cfg(void)
  58:Menu/menu_config.c **** {
ARM GAS  C:\Users\Jim_YW\AppData\Local\Temp\cclYLpCh.s 			page 4


 119              		.loc 1 58 1 is_stmt 1 view -0
 120              		.cfi_startproc
 121              		@ args = 0, pretend = 0, frame = 0
 122              		@ frame_needed = 0, uses_anonymous_args = 0
 123              		@ link register save eliminated.
  59:Menu/menu_config.c **** 
  60:Menu/menu_config.c ****     // struct time_clock_time time;
  61:Menu/menu_config.c ****     // time_clock_get_time(&time);
  62:Menu/menu_config.c ****     // i2c_read_memory(&i2c_buf,0xa0,0x00,1,(uint8_t*)&config,sizeof(config));
  63:Menu/menu_config.c ****     // while(i2c_get_state(&i2c_buf)!=0){
  64:Menu/menu_config.c ****     //     if(time_clock_get_time_offset_ms(&time)>1000){
  65:Menu/menu_config.c ****     //         return -1;
  66:Menu/menu_config.c ****     //     }
  67:Menu/menu_config.c ****     // }
  68:Menu/menu_config.c ****     // if(config_check()==0){
  69:Menu/menu_config.c ****     //     return 0;
  70:Menu/menu_config.c ****     // }
  71:Menu/menu_config.c ****     // config_reset();
  72:Menu/menu_config.c ****     return 0;
 124              		.loc 1 72 5 view .LVU21
  73:Menu/menu_config.c **** 
  74:Menu/menu_config.c **** }
 125              		.loc 1 74 1 is_stmt 0 view .LVU22
 126 0000 0020     		movs	r0, #0
 127 0002 7047     		bx	lr
 128              		.cfi_endproc
 129              	.LFE132:
 131              		.global	cfg_output
 132              		.global	cfg_protocol
 133              		.global	cfg_uart
 134              		.global	config
 135              		.section	.bss.cfg_output,"aw",%nobits
 136              		.align	2
 137              		.set	.LANCHOR3,. + 0
 140              	cfg_output:
 141 0000 00000000 		.space	10
 141      00000000 
 141      0000
 142              		.section	.bss.cfg_protocol,"aw",%nobits
 143              		.align	2
 144              		.set	.LANCHOR2,. + 0
 147              	cfg_protocol:
 148 0000 00000000 		.space	138
 148      00000000 
 148      00000000 
 148      00000000 
 148      00000000 
 149              		.section	.bss.config,"aw",%nobits
 150              		.align	2
 151              		.set	.LANCHOR0,. + 0
 154              	config:
 155 0000 00000000 		.space	168
 155      00000000 
 155      00000000 
 155      00000000 
 155      00000000 
 156              		.section	.data.cfg_uart,"aw"
ARM GAS  C:\Users\Jim_YW\AppData\Local\Temp\cclYLpCh.s 			page 5


 157              		.align	2
 158              		.set	.LANCHOR1,. + 0
 161              	cfg_uart:
 162 0000 80250000 		.word	9600
 163 0004 0800     		.short	8
 164 0006 0000     		.short	0
 165 0008 0100     		.short	1
 166 000a 0000     		.space	2
 167              		.text
 168              	.Letext0:
 169              		.file 2 "c:\\program files (x86)\\gnu arm embedded toolchain\\10 2021.10\\arm-none-eabi\\include\\
 170              		.file 3 "c:\\program files (x86)\\gnu arm embedded toolchain\\10 2021.10\\arm-none-eabi\\include\\
 171              		.file 4 "Menu/menu_config.h"
 172              		.file 5 "<built-in>"
ARM GAS  C:\Users\Jim_YW\AppData\Local\Temp\cclYLpCh.s 			page 6


DEFINED SYMBOLS
                            *ABS*:00000000 menu_config.c
C:\Users\Jim_YW\AppData\Local\Temp\cclYLpCh.s:20     .text.config_reset:00000000 $t
C:\Users\Jim_YW\AppData\Local\Temp\cclYLpCh.s:26     .text.config_reset:00000000 config_reset
C:\Users\Jim_YW\AppData\Local\Temp\cclYLpCh.s:82     .text.config_reset:00000044 $d
C:\Users\Jim_YW\AppData\Local\Temp\cclYLpCh.s:90     .text.config_check:00000000 $t
C:\Users\Jim_YW\AppData\Local\Temp\cclYLpCh.s:96     .text.config_check:00000000 config_check
C:\Users\Jim_YW\AppData\Local\Temp\cclYLpCh.s:111    .text.config_get_cfg:00000000 $t
C:\Users\Jim_YW\AppData\Local\Temp\cclYLpCh.s:117    .text.config_get_cfg:00000000 config_get_cfg
C:\Users\Jim_YW\AppData\Local\Temp\cclYLpCh.s:140    .bss.cfg_output:00000000 cfg_output
C:\Users\Jim_YW\AppData\Local\Temp\cclYLpCh.s:147    .bss.cfg_protocol:00000000 cfg_protocol
C:\Users\Jim_YW\AppData\Local\Temp\cclYLpCh.s:161    .data.cfg_uart:00000000 cfg_uart
C:\Users\Jim_YW\AppData\Local\Temp\cclYLpCh.s:154    .bss.config:00000000 config
C:\Users\Jim_YW\AppData\Local\Temp\cclYLpCh.s:136    .bss.cfg_output:00000000 $d
C:\Users\Jim_YW\AppData\Local\Temp\cclYLpCh.s:143    .bss.cfg_protocol:00000000 $d
C:\Users\Jim_YW\AppData\Local\Temp\cclYLpCh.s:150    .bss.config:00000000 $d
C:\Users\Jim_YW\AppData\Local\Temp\cclYLpCh.s:157    .data.cfg_uart:00000000 $d

UNDEFINED SYMBOLS
memcpy
