ARM GAS  C:\Users\Jim_YW\AppData\Local\Temp\ccK4umBS.s 			page 1


   1              		.cpu cortex-m4
   2              		.arch armv7e-m
   3              		.fpu fpv4-sp-d16
   4              		.eabi_attribute 27, 1
   5              		.eabi_attribute 28, 1
   6              		.eabi_attribute 20, 1
   7              		.eabi_attribute 21, 1
   8              		.eabi_attribute 23, 3
   9              		.eabi_attribute 24, 1
  10              		.eabi_attribute 25, 1
  11              		.eabi_attribute 26, 1
  12              		.eabi_attribute 30, 1
  13              		.eabi_attribute 34, 1
  14              		.eabi_attribute 18, 4
  15              		.file	"menu_node.c"
  16              		.text
  17              	.Ltext0:
  18              		.cfi_sections	.debug_frame
  19              		.global	menu_tree
  20              		.section	.rodata.str1.4,"aMS",%progbits,1
  21              		.align	2
  22              	.LC0:
  23 0000 0D0A2020 		.ascii	"\015\012                        \342\226\210\342\226"
  23      20202020 
  23      20202020 
  23      20202020 
  23      20202020 
  24 001f 88E29688 		.ascii	"\210\342\226\210\342\226\210\342\226\210\342\226\210"
  24      E29688E2 
  24      9688E296 
  24      88
  25 002c E29688E2 		.ascii	"\342\226\210\342\225\227\342\226\210\342\226\210\342"
  25      9597E296 
  25      88E29688 
  25      E2
  26 0039 9688E296 		.ascii	"\226\210\342\226\210\342\226\210\342\226\210\342\226"
  26      88E29688 
  26      E29688E2 
  26      96
  27 0046 88E29597 		.ascii	"\210\342\225\227\342\226\210\342\226\210\342\226\210"
  27      E29688E2 
  27      9688E296 
  27      88
  28 0053 E29688E2 		.ascii	"\342\226\210\342\226\210\342\226\210\342\226\210\342"
  28      9688E296 
  28      88E29688 
  28      E2
  29 0060 959720E2 		.ascii	"\225\227 \342\226\210\342\226\210\342\226\210\342\226"
  29      9688E296 
  29      88E29688 
  29      E296
  30 006e 88E29688 		.ascii	"\210\342\226\210\342\225\227 \015\012              "
  30      E2959720 
  30      0D0A2020 
  30      20202020 
  30      20202020 
  31 0086 20202020 		.ascii	"          \342\226\210\342\226\210\342\225\224\342\225"
ARM GAS  C:\Users\Jim_YW\AppData\Local\Temp\ccK4umBS.s 			page 2


  31      20202020 
  31      2020E296 
  31      88E29688 
  31      E29594E2 
  32 009b 90E29590 		.ascii	"\220\342\225\220\342\225\220\342\225\220\342\225\235"
  32      E29590E2 
  32      9590E295 
  32      9D
  33 00a8 E29688E2 		.ascii	"\342\226\210\342\226\210\342\225\224\342\225\220\342"
  33      9688E295 
  33      94E29590 
  33      E2
  34 00b5 9590E295 		.ascii	"\225\220\342\225\220\342\225\220\342\225\235\342\226"
  34      90E29590 
  34      E2959DE2 
  34      96
  35 00c2 88E29688 		.ascii	"\210\342\226\210\342\225\224\342\225\220\342\225\220"
  35      E29594E2 
  35      9590E295 
  35      90
  36 00cf E29590E2 		.ascii	"\342\225\220\342\225\220\342\225\235\342\226\210\342"
  36      9590E295 
  36      9DE29688 
  36      E2
  37 00dc 9688E295 		.ascii	"\226\210\342\225\224\342\225\220\342\225\220\342\226"
  37      94E29590 
  37      E29590E2 
  37      96
  38 00e9 88E29688 		.ascii	"\210\342\226\210\342\225\227\015\012               "
  38      E295970D 
  38      0A202020 
  38      20202020 
  38      20202020 
  39 0101 20202020 		.ascii	"         \342\226\210\342\226\210\342\226\210\342\226"
  39      20202020 
  39      20E29688 
  39      E29688E2 
  39      9688E296 
  40 0115 88E29688 		.ascii	"\210\342\226\210\342\225\227  \342\226\210\342\226\210"
  40      E2959720 
  40      20E29688 
  40      E29688
  41 0124 E29688E2 		.ascii	"\342\226\210\342\226\210\342\226\210\342\226\210\342"
  41      9688E296 
  41      88E29688 
  41      E2
  42 0131 9688E295 		.ascii	"\226\210\342\225\227\342\226\210\342\226\210\342\226"
  42      97E29688 
  42      E29688E2 
  42      96
  43 013e 88E29688 		.ascii	"\210\342\226\210\342\226\210\342\225\227  \342\226\210"
  43      E29688E2 
  43      95972020 
  43      E29688
  44 014d E29688E2 		.ascii	"\342\226\210\342\226\210\342\226\210\342\226\210\342"
  44      9688E296 
  44      88E29688 
ARM GAS  C:\Users\Jim_YW\AppData\Local\Temp\ccK4umBS.s 			page 3


  44      E2
  45 015a 9688E296 		.ascii	"\226\210\342\226\210\342\225\221\015\012           "
  45      88E29591 
  45      0D0A2020 
  45      20202020 
  45      20202020 
  46 016f 20202020 		.ascii	"             \342\226\210\342\226\210\342\225\224\342"
  46      20202020 
  46      20202020 
  46      20E29688 
  46      E29688E2 
  47 0186 9590E295 		.ascii	"\225\220\342\225\220\342\225\235  \342\225\232\342\225"
  47      90E2959D 
  47      2020E295 
  47      9AE295
  48 0195 90E29590 		.ascii	"\220\342\225\220\342\225\220\342\225\220\342\226\210"
  48      E29590E2 
  48      9590E296 
  48      88
  49 01a2 E29688E2 		.ascii	"\342\226\210\342\225\221\342\226\210\342\226\210\342"
  49      9591E296 
  49      88E29688 
  49      E2
  50 01af 9594E295 		.ascii	"\225\224\342\225\220\342\225\220\342\225\235  \342\226"
  50      90E29590 
  50      E2959D20 
  50      20E296
  51 01be 88E29688 		.ascii	"\210\342\226\210\342\225\224\342\225\220\342\225\220"
  51      E29594E2 
  51      9590E295 
  51      90
  52 01cb E29688E2 		.ascii	"\342\226\210\342\226\210\342\225\221\015\012       "
  52      9688E295 
  52      910D0A20 
  52      20202020 
  52      2020
  53 01dd 20202020 		.ascii	"                 \342\226\210\342\226\210\342\226\210"
  53      20202020 
  53      20202020 
  53      20202020 
  53      20E29688 
  54 01f7 E29688E2 		.ascii	"\342\226\210\342\226\210\342\226\210\342\226\210\342"
  54      9688E296 
  54      88E29688 
  54      E2
  55 0204 9597E296 		.ascii	"\225\227\342\226\210\342\226\210\342\226\210\342\226"
  55      88E29688 
  55      E29688E2 
  55      96
  56 0211 88E29688 		.ascii	"\210\342\226\210\342\226\210\342\226\210\342\225\221"
  56      E29688E2 
  56      9688E295 
  56      91
  57 021e E29688E2 		.ascii	"\342\226\210\342\226\210\342\226\210\342\226\210\342"
  57      9688E296 
  57      88E29688 
  57      E2
ARM GAS  C:\Users\Jim_YW\AppData\Local\Temp\ccK4umBS.s 			page 4


  58 022b 9688E296 		.ascii	"\226\210\342\226\210\342\226\210\342\225\227\342\226"
  58      88E29688 
  58      E29597E2 
  58      96
  59 0238 88E29688 		.ascii	"\210\342\226\210\342\225\221  \342\226\210\342\226\210"
  59      E2959120 
  59      20E29688 
  59      E29688
  60 0247 E295910D 		.ascii	"\342\225\221\015\012                        \342\225"
  60      0A202020 
  60      20202020 
  60      20202020 
  60      20202020 
  61 0266 9AE29590 		.ascii	"\232\342\225\220\342\225\220\342\225\220\342\225\220"
  61      E29590E2 
  61      9590E295 
  61      90
  62 0273 E29590E2 		.ascii	"\342\225\220\342\225\220\342\225\235\342\225\232\342"
  62      9590E295 
  62      9DE2959A 
  62      E2
  63 0280 9590E295 		.ascii	"\225\220\342\225\220\342\225\220\342\225\220\342\225"
  63      90E29590 
  63      E29590E2 
  63      95
  64 028d 90E29590 		.ascii	"\220\342\225\220\342\225\235\342\225\232\342\225\220"
  64      E2959DE2 
  64      959AE295 
  64      90
  65 029a E29590E2 		.ascii	"\342\225\220\342\225\220\342\225\220\342\225\220\342"
  65      9590E295 
  65      90E29590 
  65      E2
  66 02a7 9590E295 		.ascii	"\225\220\342\225\235\342\225\232\342\225\220\342\225"
  66      9DE2959A 
  66      E29590E2 
  66      95
  67 02b4 9D2020E2 		.ascii	"\235  \342\225\232\342\225\220\342\225\235\015\012\015"
  67      959AE295 
  67      90E2959D 
  67      0D0A0D
  68 02c3 0A202020 		.ascii	"\012                             \351\200\270\346\265"
  68      20202020 
  68      20202020 
  68      20202020 
  68      20202020 
  69 02e6 B7E58589 		.ascii	"\267\345\205\211\345\255\246(\351\235\222\345\262\233"
  69      E5ADA628 
  69      E99D92E5 
  69      B29B
  70 02f4 29E7A791 		.ascii	")\347\247\221\346\212\200\346\234\211\351\231\220\345"
  70      E68A80E6 
  70      9C89E999 
  70      90E5
  71 0302 85ACE58F 		.ascii	"\205\254\345\217\270\015\012\015\012               "
  71      B80D0A0D 
  71      0A202020 
ARM GAS  C:\Users\Jim_YW\AppData\Local\Temp\ccK4umBS.s 			page 5


  71      20202020 
  71      20202020 
  72 031a 20202020 		.ascii	"                 \346\211\213\346\214\201\345\274\217"
  72      20202020 
  72      20202020 
  72      20202020 
  72      20E6898B 
  73 0334 E58589E8 		.ascii	"\345\205\211\350\276\220\345\260\204\346\265\213\351"
  73      BE90E5B0 
  73      84E6B58B 
  73      E9
  74 0341 878FE8A3 		.ascii	"\207\217\350\243\205\347\275\256\015\012\000"
  74      85E7BDAE 
  74      0D0A00
  75              		.align	2
  76              	.LC1:
  77 034c E88F9CE5 		.ascii	"\350\217\234\345\215\225\000"
  77      8D9500
  78 0353 00       		.align	2
  79              	.LC2:
  80 0354 E4B8B2E5 		.ascii	"\344\270\262\345\217\243\351\205\215\347\275\256\000"
  80      8FA3E985 
  80      8DE7BDAE 
  80      00
  81 0361 000000   		.align	2
  82              	.LC3:
  83 0364 E6B3A2E7 		.ascii	"\346\263\242\347\211\271\347\216\207\000"
  83      89B9E78E 
  83      8700
  84 036e 0000     		.align	2
  85              	.LC4:
  86 0370 E695B0E6 		.ascii	"\346\225\260\346\215\256\344\275\215\000"
  86      8DAEE4BD 
  86      8D00
  87 037a 0000     		.align	2
  88              	.LC5:
  89 037c E5A587E5 		.ascii	"\345\245\207\345\201\266\346\240\241\351\252\214\015"
  89      81B6E6A0 
  89      A1E9AA8C 
  89      0D
  90 0389 0AE4B88D 		.ascii	"\012\344\270\215\346\240\241\351\252\214:0\015\012\345"
  90      E6A0A1E9 
  90      AA8C3A30 
  90      0D0AE5
  91 0398 A587E6A0 		.ascii	"\245\207\346\240\241\351\252\214:1024\015\012\345\201"
  91      A1E9AA8C 
  91      3A313032 
  91      340D0AE5 
  91      81
  92 03a9 B6E6A0A1 		.ascii	"\266\346\240\241\351\252\214:1536\000"
  92      E9AA8C3A 
  92      31353336 
  92      00
  93 03b6 0000     		.align	2
  94              	.LC6:
  95 03b8 E5819CE6 		.ascii	"\345\201\234\346\255\242\344\275\215\015\0121bit:0\015"
  95      ADA2E4BD 
ARM GAS  C:\Users\Jim_YW\AppData\Local\Temp\ccK4umBS.s 			page 6


  95      8D0D0A31 
  95      6269743A 
  95      300D
  96 03ca 0A302E35 		.ascii	"\0120.5bit:4096\015\0122bit:8192\015\0121.5bit:1228"
  96      6269743A 
  96      34303936 
  96      0D0A3262 
  96      69743A38 
  97 03ee 3800     		.ascii	"8\000"
  98              		.align	2
  99              	.LC7:
 100 03f0 E58D8FE8 		.ascii	"\345\215\217\350\256\256\351\205\215\347\275\256\000"
 100      AEAEE985 
 100      8DE7BDAE 
 100      00
 101 03fd 000000   		.align	2
 102              	.LC8:
 103 0400 E58D8FE8 		.ascii	"\345\215\217\350\256\256\347\261\273\345\236\213  0"
 103      AEAEE7B1 
 103      BBE59E8B 
 103      202030
 104 040f 3A525455 		.ascii	":RTU 1:HEX 2:ASCII\000"
 104      20313A48 
 104      45582032 
 104      3A415343 
 104      494900
 105 0422 0000     		.align	2
 106              	.LC9:
 107 0424 E9A284E5 		.ascii	"\351\242\204\345\221\275\344\273\244\000"
 107      91BDE4BB 
 107      A400
 108 042e 0000     		.align	2
 109              	.LC10:
 110 0430 E9A284E5 		.ascii	"\351\242\204\345\221\275\344\273\244\350\266\205\346"
 110      91BDE4BB 
 110      A4E8B685 
 110      E6
 111 043d 97B600   		.ascii	"\227\266\000"
 112              		.align	2
 113              	.LC11:
 114 0440 E591BDE4 		.ascii	"\345\221\275\344\273\244\000"
 114      BBA400
 115 0447 00       		.align	2
 116              	.LC12:
 117 0448 E8B685E6 		.ascii	"\350\266\205\346\227\266\000"
 117      97B600
 118 044f 00       		.align	2
 119              	.LC13:
 120 0450 E695B0E6 		.ascii	"\346\225\260\346\215\256\350\247\243\346\236\220\000"
 120      8DAEE8A7 
 120      A3E69E90 
 120      00
 121 045d 000000   		.align	2
 122              	.LC14:
 123 0460 E5A4A7E5 		.ascii	"\345\244\247\345\260\217\347\253\257\000"
 123      B08FE7AB 
 123      AF00
ARM GAS  C:\Users\Jim_YW\AppData\Local\Temp\ccK4umBS.s 			page 7


 124 046a 0000     		.align	2
 125              	.LC15:
 126 046c E8BE93E5 		.ascii	"\350\276\223\345\207\272\351\205\215\347\275\256\000"
 126      87BAE985 
 126      8DE7BDAE 
 126      00
 127 0479 000000   		.align	2
 128              	.LC16:
 129 047c E5BC80E5 		.ascii	"\345\274\200\345\247\213\345\255\227\350\212\202\000"
 129      A78BE5AD 
 129      97E88A82 
 129      00
 130 0489 000000   		.align	2
 131              	.LC17:
 132 048c E995BFE5 		.ascii	"\351\225\277\345\272\246\000"
 132      BAA600
 133 0493 00       		.align	2
 134              	.LC18:
 135 0494 E7BB93E6 		.ascii	"\347\273\223\346\235\237\345\255\227\350\212\202\000"
 135      9D9FE5AD 
 135      97E88A82 
 135      00
 136 04a1 000000   		.align	2
 137              	.LC19:
 138 04a4 E8BE93E5 		.ascii	"\350\276\223\345\207\272\344\275\215\347\275\256\000"
 138      87BAE4BD 
 138      8DE7BDAE 
 138      00
 139 04b1 000000   		.align	2
 140              	.LC20:
 141 04b4 E8BE93E5 		.ascii	"\350\276\223\345\207\272\346\225\260\347\233\256\000"
 141      87BAE695 
 141      B0E79BAE 
 141      00
 142 04c1 000000   		.align	2
 143              	.LC21:
 144 04c4 E4BF9DE5 		.ascii	"\344\277\235\345\255\230\351\205\215\347\275\256\000"
 144      AD98E985 
 144      8DE7BDAE 
 144      00
 145 04d1 000000   		.align	2
 146              	.LC22:
 147 04d4 E9878DE5 		.ascii	"\351\207\215\345\220\257\000"
 147      90AF00
 148              		.section	.rodata.menu_tree,"a"
 149              		.align	2
 152              	menu_tree:
 153 0000 00       		.byte	0
 154 0001 000000   		.space	3
 155 0004 00000000 		.word	0
 156 0008 00000000 		.word	0
 157 000c 0000     		.short	0
 158 000e 0100     		.short	1
 159 0010 0000     		.short	0
 160 0012 0000     		.short	0
 161 0014 00000000 		.word	.LC0
 162 0018 00000000 		.word	0
ARM GAS  C:\Users\Jim_YW\AppData\Local\Temp\ccK4umBS.s 			page 8


 163 001c 02       		.byte	2
 164 001d 000000   		.space	3
 165 0020 00000000 		.word	0
 166 0024 00000000 		.word	0
 167 0028 0000     		.short	0
 168 002a 0200     		.short	2
 169 002c 0000     		.short	0
 170 002e 0000     		.short	0
 171 0030 4C030000 		.word	.LC1
 172 0034 00000000 		.word	0
 173 0038 02       		.byte	2
 174 0039 000000   		.space	3
 175 003c 00000000 		.word	0
 176 0040 00000000 		.word	0
 177 0044 0700     		.short	7
 178 0046 0300     		.short	3
 179 0048 0100     		.short	1
 180 004a 0000     		.short	0
 181 004c 54030000 		.word	.LC2
 182 0050 00000000 		.word	0
 183 0054 0A       		.byte	10
 184 0055 000000   		.space	3
 185 0058 00093D00 		.word	4000000
 186 005c 60090000 		.word	2400
 187 0060 0400     		.short	4
 188 0062 0000     		.short	0
 189 0064 0200     		.short	2
 190 0066 0000     		.short	0
 191 0068 64030000 		.word	.LC3
 192 006c 08000000 		.word	config+8
 193 0070 06       		.byte	6
 194 0071 000000   		.space	3
 195 0074 0B000000 		.word	11
 196 0078 07000000 		.word	7
 197 007c 0500     		.short	5
 198 007e 0000     		.short	0
 199 0080 0200     		.short	2
 200 0082 0000     		.short	0
 201 0084 70030000 		.word	.LC4
 202 0088 0C000000 		.word	config+12
 203 008c 06       		.byte	6
 204 008d 000000   		.space	3
 205 0090 00060000 		.word	1536
 206 0094 00000000 		.word	0
 207 0098 0600     		.short	6
 208 009a 0000     		.short	0
 209 009c 0200     		.short	2
 210 009e 0000     		.short	0
 211 00a0 7C030000 		.word	.LC5
 212 00a4 0E000000 		.word	config+14
 213 00a8 06       		.byte	6
 214 00a9 000000   		.space	3
 215 00ac 00300000 		.word	12288
 216 00b0 00000000 		.word	0
 217 00b4 0000     		.short	0
 218 00b6 0000     		.short	0
 219 00b8 0200     		.short	2
ARM GAS  C:\Users\Jim_YW\AppData\Local\Temp\ccK4umBS.s 			page 9


 220 00ba 0000     		.short	0
 221 00bc B8030000 		.word	.LC6
 222 00c0 10000000 		.word	config+16
 223 00c4 02       		.byte	2
 224 00c5 000000   		.space	3
 225 00c8 00000000 		.word	0
 226 00cc 00000000 		.word	0
 227 00d0 0F00     		.short	15
 228 00d2 0800     		.short	8
 229 00d4 0100     		.short	1
 230 00d6 0000     		.short	0
 231 00d8 F0030000 		.word	.LC7
 232 00dc 00000000 		.word	0
 233 00e0 06       		.byte	6
 234 00e1 000000   		.space	3
 235 00e4 02000000 		.word	2
 236 00e8 00000000 		.word	0
 237 00ec 0900     		.short	9
 238 00ee 0000     		.short	0
 239 00f0 0700     		.short	7
 240 00f2 0000     		.short	0
 241 00f4 00040000 		.word	.LC8
 242 00f8 14000000 		.word	config+20
 243 00fc 00       		.byte	0
 244 00fd 000000   		.space	3
 245 0100 00000000 		.word	0
 246 0104 00000000 		.word	0
 247 0108 0A00     		.short	10
 248 010a 0000     		.short	0
 249 010c 0700     		.short	7
 250 010e 4000     		.short	64
 251 0110 24040000 		.word	.LC9
 252 0114 16000000 		.word	config+22
 253 0118 06       		.byte	6
 254 0119 000000   		.space	3
 255 011c FFFF0000 		.word	65535
 256 0120 00000000 		.word	0
 257 0124 0B00     		.short	11
 258 0126 0000     		.short	0
 259 0128 0700     		.short	7
 260 012a 0000     		.short	0
 261 012c 30040000 		.word	.LC10
 262 0130 56000000 		.word	config+86
 263 0134 00       		.byte	0
 264 0135 000000   		.space	3
 265 0138 00000000 		.word	0
 266 013c 00000000 		.word	0
 267 0140 0C00     		.short	12
 268 0142 0000     		.short	0
 269 0144 0700     		.short	7
 270 0146 4000     		.short	64
 271 0148 40040000 		.word	.LC11
 272 014c 58000000 		.word	config+88
 273 0150 06       		.byte	6
 274 0151 000000   		.space	3
 275 0154 00000000 		.word	0
 276 0158 00000000 		.word	0
ARM GAS  C:\Users\Jim_YW\AppData\Local\Temp\ccK4umBS.s 			page 10


 277 015c 0D00     		.short	13
 278 015e 0000     		.short	0
 279 0160 0700     		.short	7
 280 0162 0000     		.short	0
 281 0164 48040000 		.word	.LC12
 282 0168 98000000 		.word	config+152
 283 016c 06       		.byte	6
 284 016d 000000   		.space	3
 285 0170 00000000 		.word	0
 286 0174 00000000 		.word	0
 287 0178 0E00     		.short	14
 288 017a 0000     		.short	0
 289 017c 0700     		.short	7
 290 017e 0000     		.short	0
 291 0180 50040000 		.word	.LC13
 292 0184 9A000000 		.word	config+154
 293 0188 06       		.byte	6
 294 0189 000000   		.space	3
 295 018c 01000000 		.word	1
 296 0190 00000000 		.word	0
 297 0194 0000     		.short	0
 298 0196 0000     		.short	0
 299 0198 0700     		.short	7
 300 019a 0000     		.short	0
 301 019c 60040000 		.word	.LC14
 302 01a0 9C000000 		.word	config+156
 303 01a4 02       		.byte	2
 304 01a5 000000   		.space	3
 305 01a8 00000000 		.word	0
 306 01ac 00000000 		.word	0
 307 01b0 1500     		.short	21
 308 01b2 1000     		.short	16
 309 01b4 0100     		.short	1
 310 01b6 0000     		.short	0
 311 01b8 6C040000 		.word	.LC15
 312 01bc 00000000 		.word	0
 313 01c0 06       		.byte	6
 314 01c1 000000   		.space	3
 315 01c4 00000000 		.word	0
 316 01c8 00000000 		.word	0
 317 01cc 1100     		.short	17
 318 01ce 0000     		.short	0
 319 01d0 0E00     		.short	14
 320 01d2 0000     		.short	0
 321 01d4 7C040000 		.word	.LC16
 322 01d8 9E000000 		.word	config+158
 323 01dc 06       		.byte	6
 324 01dd 000000   		.space	3
 325 01e0 00000000 		.word	0
 326 01e4 00000000 		.word	0
 327 01e8 1200     		.short	18
 328 01ea 0000     		.short	0
 329 01ec 0E00     		.short	14
 330 01ee 0000     		.short	0
 331 01f0 8C040000 		.word	.LC17
 332 01f4 9E000000 		.word	config+158
 333 01f8 06       		.byte	6
ARM GAS  C:\Users\Jim_YW\AppData\Local\Temp\ccK4umBS.s 			page 11


 334 01f9 000000   		.space	3
 335 01fc 00000000 		.word	0
 336 0200 00000000 		.word	0
 337 0204 1300     		.short	19
 338 0206 0000     		.short	0
 339 0208 0E00     		.short	14
 340 020a 0000     		.short	0
 341 020c 94040000 		.word	.LC18
 342 0210 A2000000 		.word	config+162
 343 0214 06       		.byte	6
 344 0215 000000   		.space	3
 345 0218 00000000 		.word	0
 346 021c 00000000 		.word	0
 347 0220 1400     		.short	20
 348 0222 0000     		.short	0
 349 0224 0E00     		.short	14
 350 0226 0000     		.short	0
 351 0228 A4040000 		.word	.LC19
 352 022c A4000000 		.word	config+164
 353 0230 06       		.byte	6
 354 0231 000000   		.space	3
 355 0234 00000000 		.word	0
 356 0238 00000000 		.word	0
 357 023c 0000     		.short	0
 358 023e 0000     		.short	0
 359 0240 0E00     		.short	14
 360 0242 0000     		.short	0
 361 0244 B4040000 		.word	.LC20
 362 0248 A6000000 		.word	config+166
 363 024c 02       		.byte	2
 364 024d 000000   		.space	3
 365 0250 01000000 		.word	1
 366 0254 00000000 		.word	0
 367 0258 1600     		.short	22
 368 025a 0000     		.short	0
 369 025c 0100     		.short	1
 370 025e 0000     		.short	0
 371 0260 C4040000 		.word	.LC21
 372 0264 00000000 		.word	0
 373 0268 02       		.byte	2
 374 0269 000000   		.space	3
 375 026c 01000000 		.word	1
 376 0270 00000000 		.word	0
 377 0274 0000     		.short	0
 378 0276 0000     		.short	0
 379 0278 0100     		.short	1
 380 027a 0000     		.short	0
 381 027c D4040000 		.word	.LC22
 382 0280 00000000 		.word	0
 383              		.text
 384              	.Letext0:
 385              		.file 1 "c:\\program files (x86)\\gnu arm embedded toolchain\\10 2021.10\\arm-none-eabi\\include\\
 386              		.file 2 "c:\\program files (x86)\\gnu arm embedded toolchain\\10 2021.10\\arm-none-eabi\\include\\
 387              		.file 3 "Menu/menu_config.h"
 388              		.file 4 "Menu/menu.h"
 389              		.file 5 "Menu/menu_node.c"
ARM GAS  C:\Users\Jim_YW\AppData\Local\Temp\ccK4umBS.s 			page 12


DEFINED SYMBOLS
                            *ABS*:00000000 menu_node.c
C:\Users\Jim_YW\AppData\Local\Temp\ccK4umBS.s:152    .rodata.menu_tree:00000000 menu_tree
C:\Users\Jim_YW\AppData\Local\Temp\ccK4umBS.s:21     .rodata.str1.4:00000000 $d
C:\Users\Jim_YW\AppData\Local\Temp\ccK4umBS.s:149    .rodata.menu_tree:00000000 $d

UNDEFINED SYMBOLS
config
