ARM GAS  C:\Users\Jim_YW\AppData\Local\Temp\ccXiHeUc.s 			page 1


   1              		.cpu cortex-m4
   2              		.arch armv7e-m
   3              		.fpu fpv4-sp-d16
   4              		.eabi_attribute 27, 1
   5              		.eabi_attribute 28, 1
   6              		.eabi_attribute 20, 1
   7              		.eabi_attribute 21, 1
   8              		.eabi_attribute 23, 3
   9              		.eabi_attribute 24, 1
  10              		.eabi_attribute 25, 1
  11              		.eabi_attribute 26, 1
  12              		.eabi_attribute 30, 1
  13              		.eabi_attribute 34, 1
  14              		.eabi_attribute 18, 4
  15              		.file	"usbd_cdc_if.c"
  16              		.text
  17              	.Ltext0:
  18              		.cfi_sections	.debug_frame
  19              		.section	.text.CDC_DeInit_FS,"ax",%progbits
  20              		.align	1
  21              		.syntax unified
  22              		.thumb
  23              		.thumb_func
  25              	CDC_DeInit_FS:
  26              	.LFB135:
  27              		.file 1 "USBUSER/Device/usbd_cdc_if.c"
   1:USBUSER/Device/usbd_cdc_if.c **** /* USER CODE BEGIN Header */
   2:USBUSER/Device/usbd_cdc_if.c **** /**
   3:USBUSER/Device/usbd_cdc_if.c ****   ******************************************************************************
   4:USBUSER/Device/usbd_cdc_if.c ****   * @file           : usbd_cdc_if.c
   5:USBUSER/Device/usbd_cdc_if.c ****   * @version        : v1.0_Cube
   6:USBUSER/Device/usbd_cdc_if.c ****   * @brief          : Usb device for Virtual Com Port.
   7:USBUSER/Device/usbd_cdc_if.c ****   ******************************************************************************
   8:USBUSER/Device/usbd_cdc_if.c ****   * @attention
   9:USBUSER/Device/usbd_cdc_if.c ****   *
  10:USBUSER/Device/usbd_cdc_if.c ****   * Copyright (c) 2024 STMicroelectronics.
  11:USBUSER/Device/usbd_cdc_if.c ****   * All rights reserved.
  12:USBUSER/Device/usbd_cdc_if.c ****   *
  13:USBUSER/Device/usbd_cdc_if.c ****   * This software is licensed under terms that can be found in the LICENSE file
  14:USBUSER/Device/usbd_cdc_if.c ****   * in the root directory of this software component.
  15:USBUSER/Device/usbd_cdc_if.c ****   * If no LICENSE file comes with this software, it is provided AS-IS.
  16:USBUSER/Device/usbd_cdc_if.c ****   *
  17:USBUSER/Device/usbd_cdc_if.c ****   ******************************************************************************
  18:USBUSER/Device/usbd_cdc_if.c ****   */
  19:USBUSER/Device/usbd_cdc_if.c **** /* USER CODE END Header */
  20:USBUSER/Device/usbd_cdc_if.c **** 
  21:USBUSER/Device/usbd_cdc_if.c **** /* Includes ------------------------------------------------------------------*/
  22:USBUSER/Device/usbd_cdc_if.c **** #include "usbd_cdc_if.h"
  23:USBUSER/Device/usbd_cdc_if.c **** #include "elog.h"
  24:USBUSER/Device/usbd_cdc_if.c **** 
  25:USBUSER/Device/usbd_cdc_if.c **** /* USER CODE BEGIN INCLUDE */
  26:USBUSER/Device/usbd_cdc_if.c **** 
  27:USBUSER/Device/usbd_cdc_if.c **** /* USER CODE END INCLUDE */
  28:USBUSER/Device/usbd_cdc_if.c **** 
  29:USBUSER/Device/usbd_cdc_if.c **** /* Private typedef -----------------------------------------------------------*/
  30:USBUSER/Device/usbd_cdc_if.c **** /* Private define ------------------------------------------------------------*/
  31:USBUSER/Device/usbd_cdc_if.c **** /* Private macro -------------------------------------------------------------*/
ARM GAS  C:\Users\Jim_YW\AppData\Local\Temp\ccXiHeUc.s 			page 2


  32:USBUSER/Device/usbd_cdc_if.c **** 
  33:USBUSER/Device/usbd_cdc_if.c **** /* USER CODE BEGIN PV */
  34:USBUSER/Device/usbd_cdc_if.c **** /* Private variables ---------------------------------------------------------*/
  35:USBUSER/Device/usbd_cdc_if.c **** 
  36:USBUSER/Device/usbd_cdc_if.c **** /* USER CODE END PV */
  37:USBUSER/Device/usbd_cdc_if.c **** 
  38:USBUSER/Device/usbd_cdc_if.c **** /** @addtogroup STM32_USB_OTG_DEVICE_LIBRARY
  39:USBUSER/Device/usbd_cdc_if.c ****   * @brief Usb device library.
  40:USBUSER/Device/usbd_cdc_if.c ****   * @{
  41:USBUSER/Device/usbd_cdc_if.c ****   */
  42:USBUSER/Device/usbd_cdc_if.c **** 
  43:USBUSER/Device/usbd_cdc_if.c **** /** @addtogroup USBD_CDC_IF
  44:USBUSER/Device/usbd_cdc_if.c ****   * @{
  45:USBUSER/Device/usbd_cdc_if.c ****   */
  46:USBUSER/Device/usbd_cdc_if.c **** 
  47:USBUSER/Device/usbd_cdc_if.c **** /** @defgroup USBD_CDC_IF_Private_TypesDefinitions USBD_CDC_IF_Private_TypesDefinitions
  48:USBUSER/Device/usbd_cdc_if.c ****   * @brief Private types.
  49:USBUSER/Device/usbd_cdc_if.c ****   * @{
  50:USBUSER/Device/usbd_cdc_if.c ****   */
  51:USBUSER/Device/usbd_cdc_if.c **** 
  52:USBUSER/Device/usbd_cdc_if.c **** /* USER CODE BEGIN PRIVATE_TYPES */
  53:USBUSER/Device/usbd_cdc_if.c **** 
  54:USBUSER/Device/usbd_cdc_if.c **** /* USER CODE END PRIVATE_TYPES */
  55:USBUSER/Device/usbd_cdc_if.c **** 
  56:USBUSER/Device/usbd_cdc_if.c **** /**
  57:USBUSER/Device/usbd_cdc_if.c ****   * @}
  58:USBUSER/Device/usbd_cdc_if.c ****   */
  59:USBUSER/Device/usbd_cdc_if.c **** 
  60:USBUSER/Device/usbd_cdc_if.c **** /** @defgroup USBD_CDC_IF_Private_Defines USBD_CDC_IF_Private_Defines
  61:USBUSER/Device/usbd_cdc_if.c ****   * @brief Private defines.
  62:USBUSER/Device/usbd_cdc_if.c ****   * @{
  63:USBUSER/Device/usbd_cdc_if.c ****   */
  64:USBUSER/Device/usbd_cdc_if.c **** 
  65:USBUSER/Device/usbd_cdc_if.c **** /* USER CODE BEGIN PRIVATE_DEFINES */
  66:USBUSER/Device/usbd_cdc_if.c **** /* USER CODE END PRIVATE_DEFINES */
  67:USBUSER/Device/usbd_cdc_if.c **** 
  68:USBUSER/Device/usbd_cdc_if.c **** /**
  69:USBUSER/Device/usbd_cdc_if.c ****   * @}
  70:USBUSER/Device/usbd_cdc_if.c ****   */
  71:USBUSER/Device/usbd_cdc_if.c **** 
  72:USBUSER/Device/usbd_cdc_if.c **** /** @defgroup USBD_CDC_IF_Private_Macros USBD_CDC_IF_Private_Macros
  73:USBUSER/Device/usbd_cdc_if.c ****   * @brief Private macros.
  74:USBUSER/Device/usbd_cdc_if.c ****   * @{
  75:USBUSER/Device/usbd_cdc_if.c ****   */
  76:USBUSER/Device/usbd_cdc_if.c **** 
  77:USBUSER/Device/usbd_cdc_if.c **** /* USER CODE BEGIN PRIVATE_MACRO */
  78:USBUSER/Device/usbd_cdc_if.c **** 
  79:USBUSER/Device/usbd_cdc_if.c **** /* USER CODE END PRIVATE_MACRO */
  80:USBUSER/Device/usbd_cdc_if.c **** 
  81:USBUSER/Device/usbd_cdc_if.c **** /**
  82:USBUSER/Device/usbd_cdc_if.c ****   * @}
  83:USBUSER/Device/usbd_cdc_if.c ****   */
  84:USBUSER/Device/usbd_cdc_if.c **** 
  85:USBUSER/Device/usbd_cdc_if.c **** /** @defgroup USBD_CDC_IF_Private_Variables USBD_CDC_IF_Private_Variables
  86:USBUSER/Device/usbd_cdc_if.c ****   * @brief Private variables.
  87:USBUSER/Device/usbd_cdc_if.c ****   * @{
  88:USBUSER/Device/usbd_cdc_if.c ****   */
ARM GAS  C:\Users\Jim_YW\AppData\Local\Temp\ccXiHeUc.s 			page 3


  89:USBUSER/Device/usbd_cdc_if.c **** /* Create buffer for reception and transmission           */
  90:USBUSER/Device/usbd_cdc_if.c **** /* It's up to user to redefine and/or remove those define */
  91:USBUSER/Device/usbd_cdc_if.c **** /** Received data over USB are stored in this buffer      */
  92:USBUSER/Device/usbd_cdc_if.c **** uint8_t UserRxBufferFS[APP_RX_DATA_SIZE];
  93:USBUSER/Device/usbd_cdc_if.c **** 
  94:USBUSER/Device/usbd_cdc_if.c **** /** Data to send over USB CDC are stored in this buffer   */
  95:USBUSER/Device/usbd_cdc_if.c **** uint8_t UserTxBufferFS[APP_TX_DATA_SIZE];
  96:USBUSER/Device/usbd_cdc_if.c **** 
  97:USBUSER/Device/usbd_cdc_if.c **** /* USER CODE BEGIN PRIVATE_VARIABLES */
  98:USBUSER/Device/usbd_cdc_if.c **** 
  99:USBUSER/Device/usbd_cdc_if.c **** /* USER CODE END PRIVATE_VARIABLES */
 100:USBUSER/Device/usbd_cdc_if.c **** 
 101:USBUSER/Device/usbd_cdc_if.c **** /**
 102:USBUSER/Device/usbd_cdc_if.c ****   * @}
 103:USBUSER/Device/usbd_cdc_if.c ****   */
 104:USBUSER/Device/usbd_cdc_if.c **** 
 105:USBUSER/Device/usbd_cdc_if.c **** /** @defgroup USBD_CDC_IF_Exported_Variables USBD_CDC_IF_Exported_Variables
 106:USBUSER/Device/usbd_cdc_if.c ****   * @brief Public variables.
 107:USBUSER/Device/usbd_cdc_if.c ****   * @{
 108:USBUSER/Device/usbd_cdc_if.c ****   */
 109:USBUSER/Device/usbd_cdc_if.c **** 
 110:USBUSER/Device/usbd_cdc_if.c **** extern USBD_HandleTypeDef hUsbDeviceFS;
 111:USBUSER/Device/usbd_cdc_if.c **** 
 112:USBUSER/Device/usbd_cdc_if.c **** /* USER CODE BEGIN EXPORTED_VARIABLES */
 113:USBUSER/Device/usbd_cdc_if.c **** 
 114:USBUSER/Device/usbd_cdc_if.c **** /* USER CODE END EXPORTED_VARIABLES */
 115:USBUSER/Device/usbd_cdc_if.c **** 
 116:USBUSER/Device/usbd_cdc_if.c **** /**
 117:USBUSER/Device/usbd_cdc_if.c ****   * @}
 118:USBUSER/Device/usbd_cdc_if.c ****   */
 119:USBUSER/Device/usbd_cdc_if.c **** 
 120:USBUSER/Device/usbd_cdc_if.c **** /** @defgroup USBD_CDC_IF_Private_FunctionPrototypes USBD_CDC_IF_Private_FunctionPrototypes
 121:USBUSER/Device/usbd_cdc_if.c ****   * @brief Private functions declaration.
 122:USBUSER/Device/usbd_cdc_if.c ****   * @{
 123:USBUSER/Device/usbd_cdc_if.c ****   */
 124:USBUSER/Device/usbd_cdc_if.c **** 
 125:USBUSER/Device/usbd_cdc_if.c **** static int8_t CDC_Init_FS(void);
 126:USBUSER/Device/usbd_cdc_if.c **** static int8_t CDC_DeInit_FS(void);
 127:USBUSER/Device/usbd_cdc_if.c **** static int8_t CDC_Control_FS(uint8_t cmd, uint8_t* pbuf, uint16_t length);
 128:USBUSER/Device/usbd_cdc_if.c **** static int8_t CDC_Receive_FS(uint8_t* pbuf, uint32_t *Len);
 129:USBUSER/Device/usbd_cdc_if.c **** static int8_t CDC_TransmitCplt_FS(uint8_t *pbuf, uint32_t *Len, uint8_t epnum);
 130:USBUSER/Device/usbd_cdc_if.c **** 
 131:USBUSER/Device/usbd_cdc_if.c **** /* USER CODE BEGIN PRIVATE_FUNCTIONS_DECLARATION */
 132:USBUSER/Device/usbd_cdc_if.c **** 
 133:USBUSER/Device/usbd_cdc_if.c **** /* USER CODE END PRIVATE_FUNCTIONS_DECLARATION */
 134:USBUSER/Device/usbd_cdc_if.c **** 
 135:USBUSER/Device/usbd_cdc_if.c **** /**
 136:USBUSER/Device/usbd_cdc_if.c ****   * @}
 137:USBUSER/Device/usbd_cdc_if.c ****   */
 138:USBUSER/Device/usbd_cdc_if.c **** 
 139:USBUSER/Device/usbd_cdc_if.c **** USBD_CDC_ItfTypeDef USBD_Interface_fops_FS =
 140:USBUSER/Device/usbd_cdc_if.c **** {
 141:USBUSER/Device/usbd_cdc_if.c ****   CDC_Init_FS,
 142:USBUSER/Device/usbd_cdc_if.c ****   CDC_DeInit_FS,
 143:USBUSER/Device/usbd_cdc_if.c ****   CDC_Control_FS,
 144:USBUSER/Device/usbd_cdc_if.c ****   CDC_Receive_FS,
 145:USBUSER/Device/usbd_cdc_if.c ****   CDC_TransmitCplt_FS
ARM GAS  C:\Users\Jim_YW\AppData\Local\Temp\ccXiHeUc.s 			page 4


 146:USBUSER/Device/usbd_cdc_if.c **** };
 147:USBUSER/Device/usbd_cdc_if.c **** 
 148:USBUSER/Device/usbd_cdc_if.c **** /* Private functions ---------------------------------------------------------*/
 149:USBUSER/Device/usbd_cdc_if.c **** /**
 150:USBUSER/Device/usbd_cdc_if.c ****   * @brief  Initializes the CDC media low layer over the FS USB IP
 151:USBUSER/Device/usbd_cdc_if.c ****   * @retval USBD_OK if all operations are OK else USBD_FAIL
 152:USBUSER/Device/usbd_cdc_if.c ****   */
 153:USBUSER/Device/usbd_cdc_if.c **** static int8_t CDC_Init_FS(void)
 154:USBUSER/Device/usbd_cdc_if.c **** {
 155:USBUSER/Device/usbd_cdc_if.c ****   /* USER CODE BEGIN 3 */
 156:USBUSER/Device/usbd_cdc_if.c ****   /* Set Application Buffers */
 157:USBUSER/Device/usbd_cdc_if.c ****   USBD_CDC_SetTxBuffer(&hUsbDeviceFS, UserTxBufferFS, 0);
 158:USBUSER/Device/usbd_cdc_if.c ****   USBD_CDC_SetRxBuffer(&hUsbDeviceFS, UserRxBufferFS);
 159:USBUSER/Device/usbd_cdc_if.c ****   return (USBD_OK);
 160:USBUSER/Device/usbd_cdc_if.c ****   /* USER CODE END 3 */
 161:USBUSER/Device/usbd_cdc_if.c **** }
 162:USBUSER/Device/usbd_cdc_if.c **** 
 163:USBUSER/Device/usbd_cdc_if.c **** /**
 164:USBUSER/Device/usbd_cdc_if.c ****   * @brief  DeInitializes the CDC media low layer
 165:USBUSER/Device/usbd_cdc_if.c ****   * @retval USBD_OK if all operations are OK else USBD_FAIL
 166:USBUSER/Device/usbd_cdc_if.c ****   */
 167:USBUSER/Device/usbd_cdc_if.c **** static int8_t CDC_DeInit_FS(void)
 168:USBUSER/Device/usbd_cdc_if.c **** {
  28              		.loc 1 168 1 view -0
  29              		.cfi_startproc
  30              		@ args = 0, pretend = 0, frame = 0
  31              		@ frame_needed = 0, uses_anonymous_args = 0
  32              		@ link register save eliminated.
 169:USBUSER/Device/usbd_cdc_if.c ****   /* USER CODE BEGIN 4 */
 170:USBUSER/Device/usbd_cdc_if.c ****   return (USBD_OK);
  33              		.loc 1 170 3 view .LVU1
 171:USBUSER/Device/usbd_cdc_if.c ****   /* USER CODE END 4 */
 172:USBUSER/Device/usbd_cdc_if.c **** }
  34              		.loc 1 172 1 is_stmt 0 view .LVU2
  35 0000 0020     		movs	r0, #0
  36 0002 7047     		bx	lr
  37              		.cfi_endproc
  38              	.LFE135:
  40              		.section	.text.CDC_Control_FS,"ax",%progbits
  41              		.align	1
  42              		.syntax unified
  43              		.thumb
  44              		.thumb_func
  46              	CDC_Control_FS:
  47              	.LVL0:
  48              	.LFB136:
 173:USBUSER/Device/usbd_cdc_if.c **** 
 174:USBUSER/Device/usbd_cdc_if.c **** /**
 175:USBUSER/Device/usbd_cdc_if.c ****   * @brief  Manage the CDC class requests
 176:USBUSER/Device/usbd_cdc_if.c ****   * @param  cmd: Command code
 177:USBUSER/Device/usbd_cdc_if.c ****   * @param  pbuf: Buffer containing command data (request parameters)
 178:USBUSER/Device/usbd_cdc_if.c ****   * @param  length: Number of data to be sent (in bytes)
 179:USBUSER/Device/usbd_cdc_if.c ****   * @retval Result of the operation: USBD_OK if all operations are OK else USBD_FAIL
 180:USBUSER/Device/usbd_cdc_if.c ****   */
 181:USBUSER/Device/usbd_cdc_if.c **** static int8_t CDC_Control_FS(uint8_t cmd, uint8_t* pbuf, uint16_t length)
 182:USBUSER/Device/usbd_cdc_if.c **** {
  49              		.loc 1 182 1 is_stmt 1 view -0
ARM GAS  C:\Users\Jim_YW\AppData\Local\Temp\ccXiHeUc.s 			page 5


  50              		.cfi_startproc
  51              		@ args = 0, pretend = 0, frame = 0
  52              		@ frame_needed = 0, uses_anonymous_args = 0
  53              		@ link register save eliminated.
 183:USBUSER/Device/usbd_cdc_if.c ****   /* USER CODE BEGIN 5 */
 184:USBUSER/Device/usbd_cdc_if.c ****   switch(cmd)
  54              		.loc 1 184 3 view .LVU4
 185:USBUSER/Device/usbd_cdc_if.c ****   {
 186:USBUSER/Device/usbd_cdc_if.c ****     case CDC_SEND_ENCAPSULATED_COMMAND:
 187:USBUSER/Device/usbd_cdc_if.c **** 
 188:USBUSER/Device/usbd_cdc_if.c ****     break;
 189:USBUSER/Device/usbd_cdc_if.c **** 
 190:USBUSER/Device/usbd_cdc_if.c ****     case CDC_GET_ENCAPSULATED_RESPONSE:
 191:USBUSER/Device/usbd_cdc_if.c **** 
 192:USBUSER/Device/usbd_cdc_if.c ****     break;
 193:USBUSER/Device/usbd_cdc_if.c **** 
 194:USBUSER/Device/usbd_cdc_if.c ****     case CDC_SET_COMM_FEATURE:
 195:USBUSER/Device/usbd_cdc_if.c **** 
 196:USBUSER/Device/usbd_cdc_if.c ****     break;
 197:USBUSER/Device/usbd_cdc_if.c **** 
 198:USBUSER/Device/usbd_cdc_if.c ****     case CDC_GET_COMM_FEATURE:
 199:USBUSER/Device/usbd_cdc_if.c **** 
 200:USBUSER/Device/usbd_cdc_if.c ****     break;
 201:USBUSER/Device/usbd_cdc_if.c **** 
 202:USBUSER/Device/usbd_cdc_if.c ****     case CDC_CLEAR_COMM_FEATURE:
 203:USBUSER/Device/usbd_cdc_if.c **** 
 204:USBUSER/Device/usbd_cdc_if.c ****     break;
 205:USBUSER/Device/usbd_cdc_if.c **** 
 206:USBUSER/Device/usbd_cdc_if.c ****   /*******************************************************************************/
 207:USBUSER/Device/usbd_cdc_if.c ****   /* Line Coding Structure                                                       */
 208:USBUSER/Device/usbd_cdc_if.c ****   /*-----------------------------------------------------------------------------*/
 209:USBUSER/Device/usbd_cdc_if.c ****   /* Offset | Field       | Size | Value  | Description                          */
 210:USBUSER/Device/usbd_cdc_if.c ****   /* 0      | dwDTERate   |   4  | Number |Data terminal rate, in bits per second*/
 211:USBUSER/Device/usbd_cdc_if.c ****   /* 4      | bCharFormat |   1  | Number | Stop bits                            */
 212:USBUSER/Device/usbd_cdc_if.c ****   /*                                        0 - 1 Stop bit                       */
 213:USBUSER/Device/usbd_cdc_if.c ****   /*                                        1 - 1.5 Stop bits                    */
 214:USBUSER/Device/usbd_cdc_if.c ****   /*                                        2 - 2 Stop bits                      */
 215:USBUSER/Device/usbd_cdc_if.c ****   /* 5      | bParityType |  1   | Number | Parity                               */
 216:USBUSER/Device/usbd_cdc_if.c ****   /*                                        0 - None                             */
 217:USBUSER/Device/usbd_cdc_if.c ****   /*                                        1 - Odd                              */
 218:USBUSER/Device/usbd_cdc_if.c ****   /*                                        2 - Even                             */
 219:USBUSER/Device/usbd_cdc_if.c ****   /*                                        3 - Mark                             */
 220:USBUSER/Device/usbd_cdc_if.c ****   /*                                        4 - Space                            */
 221:USBUSER/Device/usbd_cdc_if.c ****   /* 6      | bDataBits  |   1   | Number Data bits (5, 6, 7, 8 or 16).          */
 222:USBUSER/Device/usbd_cdc_if.c ****   /*******************************************************************************/
 223:USBUSER/Device/usbd_cdc_if.c ****     case CDC_SET_LINE_CODING:
 224:USBUSER/Device/usbd_cdc_if.c **** 
 225:USBUSER/Device/usbd_cdc_if.c ****     break;
 226:USBUSER/Device/usbd_cdc_if.c **** 
 227:USBUSER/Device/usbd_cdc_if.c ****     case CDC_GET_LINE_CODING:
 228:USBUSER/Device/usbd_cdc_if.c **** 
 229:USBUSER/Device/usbd_cdc_if.c ****     break;
 230:USBUSER/Device/usbd_cdc_if.c **** 
 231:USBUSER/Device/usbd_cdc_if.c ****     case CDC_SET_CONTROL_LINE_STATE:
 232:USBUSER/Device/usbd_cdc_if.c **** 
 233:USBUSER/Device/usbd_cdc_if.c ****     break;
 234:USBUSER/Device/usbd_cdc_if.c **** 
ARM GAS  C:\Users\Jim_YW\AppData\Local\Temp\ccXiHeUc.s 			page 6


 235:USBUSER/Device/usbd_cdc_if.c ****     case CDC_SEND_BREAK:
 236:USBUSER/Device/usbd_cdc_if.c **** 
 237:USBUSER/Device/usbd_cdc_if.c ****     break;
 238:USBUSER/Device/usbd_cdc_if.c **** 
 239:USBUSER/Device/usbd_cdc_if.c ****   default:
 240:USBUSER/Device/usbd_cdc_if.c ****     break;
 241:USBUSER/Device/usbd_cdc_if.c ****   }
 242:USBUSER/Device/usbd_cdc_if.c **** 
 243:USBUSER/Device/usbd_cdc_if.c ****   return (USBD_OK);
  55              		.loc 1 243 3 view .LVU5
 244:USBUSER/Device/usbd_cdc_if.c ****   /* USER CODE END 5 */
 245:USBUSER/Device/usbd_cdc_if.c **** }
  56              		.loc 1 245 1 is_stmt 0 view .LVU6
  57 0000 0020     		movs	r0, #0
  58              	.LVL1:
  59              		.loc 1 245 1 view .LVU7
  60 0002 7047     		bx	lr
  61              		.cfi_endproc
  62              	.LFE136:
  64              		.section	.text.CDC_TransmitCplt_FS,"ax",%progbits
  65              		.align	1
  66              		.syntax unified
  67              		.thumb
  68              		.thumb_func
  70              	CDC_TransmitCplt_FS:
  71              	.LVL2:
  72              	.LFB139:
 246:USBUSER/Device/usbd_cdc_if.c **** 
 247:USBUSER/Device/usbd_cdc_if.c **** /**
 248:USBUSER/Device/usbd_cdc_if.c ****   * @brief  Data received over USB OUT endpoint are sent over CDC interface
 249:USBUSER/Device/usbd_cdc_if.c ****   *         through this function.
 250:USBUSER/Device/usbd_cdc_if.c ****   *
 251:USBUSER/Device/usbd_cdc_if.c ****   *         @note
 252:USBUSER/Device/usbd_cdc_if.c ****   *         This function will issue a NAK packet on any OUT packet received on
 253:USBUSER/Device/usbd_cdc_if.c ****   *         USB endpoint until exiting this function. If you exit this function
 254:USBUSER/Device/usbd_cdc_if.c ****   *         before transfer is complete on CDC interface (ie. using DMA controller)
 255:USBUSER/Device/usbd_cdc_if.c ****   *         it will result in receiving more data while previous ones are still
 256:USBUSER/Device/usbd_cdc_if.c ****   *         not sent.
 257:USBUSER/Device/usbd_cdc_if.c ****   *
 258:USBUSER/Device/usbd_cdc_if.c ****   * @param  Buf: Buffer of data to be received
 259:USBUSER/Device/usbd_cdc_if.c ****   * @param  Len: Number of data received (in bytes)
 260:USBUSER/Device/usbd_cdc_if.c ****   * @retval Result of the operation: USBD_OK if all operations are OK else USBD_FAIL
 261:USBUSER/Device/usbd_cdc_if.c ****   */
 262:USBUSER/Device/usbd_cdc_if.c **** static int8_t CDC_Receive_FS(uint8_t* Buf, uint32_t *Len)
 263:USBUSER/Device/usbd_cdc_if.c **** {
 264:USBUSER/Device/usbd_cdc_if.c ****   /* USER CODE BEGIN 6 */
 265:USBUSER/Device/usbd_cdc_if.c ****   USBD_CDC_SetRxBuffer(&hUsbDeviceFS, &Buf[0]);
 266:USBUSER/Device/usbd_cdc_if.c ****   USBD_CDC_ReceivePacket(&hUsbDeviceFS);
 267:USBUSER/Device/usbd_cdc_if.c ****   return (USBD_OK);
 268:USBUSER/Device/usbd_cdc_if.c ****   /* USER CODE END 6 */
 269:USBUSER/Device/usbd_cdc_if.c **** }
 270:USBUSER/Device/usbd_cdc_if.c **** 
 271:USBUSER/Device/usbd_cdc_if.c **** /**
 272:USBUSER/Device/usbd_cdc_if.c ****   * @brief  CDC_Transmit_FS
 273:USBUSER/Device/usbd_cdc_if.c ****   *         Data to send over USB IN endpoint are sent over CDC interface
 274:USBUSER/Device/usbd_cdc_if.c ****   *         through this function.
 275:USBUSER/Device/usbd_cdc_if.c ****   *         @note
ARM GAS  C:\Users\Jim_YW\AppData\Local\Temp\ccXiHeUc.s 			page 7


 276:USBUSER/Device/usbd_cdc_if.c ****   *
 277:USBUSER/Device/usbd_cdc_if.c ****   *
 278:USBUSER/Device/usbd_cdc_if.c ****   * @param  Buf: Buffer of data to be sent
 279:USBUSER/Device/usbd_cdc_if.c ****   * @param  Len: Number of data to be sent (in bytes)
 280:USBUSER/Device/usbd_cdc_if.c ****   * @retval USBD_OK if all operations are OK else USBD_FAIL or USBD_BUSY
 281:USBUSER/Device/usbd_cdc_if.c ****   */
 282:USBUSER/Device/usbd_cdc_if.c **** uint8_t CDC_Transmit_FS(uint8_t* Buf, uint16_t Len)
 283:USBUSER/Device/usbd_cdc_if.c **** {
 284:USBUSER/Device/usbd_cdc_if.c ****   uint8_t result = USBD_OK;
 285:USBUSER/Device/usbd_cdc_if.c ****   /* USER CODE BEGIN 7 */
 286:USBUSER/Device/usbd_cdc_if.c ****   USBD_CDC_HandleTypeDef *hcdc = (USBD_CDC_HandleTypeDef*)hUsbDeviceFS.pClassData;
 287:USBUSER/Device/usbd_cdc_if.c ****   if (hcdc->TxState != 0){
 288:USBUSER/Device/usbd_cdc_if.c ****     return USBD_BUSY;
 289:USBUSER/Device/usbd_cdc_if.c ****   }
 290:USBUSER/Device/usbd_cdc_if.c ****   USBD_CDC_SetTxBuffer(&hUsbDeviceFS, Buf, Len);
 291:USBUSER/Device/usbd_cdc_if.c ****   result = USBD_CDC_TransmitPacket(&hUsbDeviceFS);
 292:USBUSER/Device/usbd_cdc_if.c ****   /* USER CODE END 7 */
 293:USBUSER/Device/usbd_cdc_if.c ****   return result;
 294:USBUSER/Device/usbd_cdc_if.c **** }
 295:USBUSER/Device/usbd_cdc_if.c **** 
 296:USBUSER/Device/usbd_cdc_if.c **** /**
 297:USBUSER/Device/usbd_cdc_if.c ****   * @brief  CDC_TransmitCplt_FS
 298:USBUSER/Device/usbd_cdc_if.c ****   *         Data transmitted callback
 299:USBUSER/Device/usbd_cdc_if.c ****   *
 300:USBUSER/Device/usbd_cdc_if.c ****   *         @note
 301:USBUSER/Device/usbd_cdc_if.c ****   *         This function is IN transfer complete callback used to inform user that
 302:USBUSER/Device/usbd_cdc_if.c ****   *         the submitted Data is successfully sent over USB.
 303:USBUSER/Device/usbd_cdc_if.c ****   *
 304:USBUSER/Device/usbd_cdc_if.c ****   * @param  Buf: Buffer of data to be received
 305:USBUSER/Device/usbd_cdc_if.c ****   * @param  Len: Number of data received (in bytes)
 306:USBUSER/Device/usbd_cdc_if.c ****   * @retval Result of the operation: USBD_OK if all operations are OK else USBD_FAIL
 307:USBUSER/Device/usbd_cdc_if.c ****   */
 308:USBUSER/Device/usbd_cdc_if.c **** static int8_t CDC_TransmitCplt_FS(uint8_t *Buf, uint32_t *Len, uint8_t epnum)
 309:USBUSER/Device/usbd_cdc_if.c **** {
  73              		.loc 1 309 1 is_stmt 1 view -0
  74              		.cfi_startproc
  75              		@ args = 0, pretend = 0, frame = 0
  76              		@ frame_needed = 0, uses_anonymous_args = 0
  77              		.loc 1 309 1 is_stmt 0 view .LVU9
  78 0000 08B5     		push	{r3, lr}
  79              	.LCFI0:
  80              		.cfi_def_cfa_offset 8
  81              		.cfi_offset 3, -8
  82              		.cfi_offset 14, -4
 310:USBUSER/Device/usbd_cdc_if.c ****   uint8_t result = USBD_OK;
  83              		.loc 1 310 3 is_stmt 1 view .LVU10
  84              	.LVL3:
 311:USBUSER/Device/usbd_cdc_if.c **** 		// log_i("CDC_TransmitCplt_FS  ==>>  \r\n" ); 
 312:USBUSER/Device/usbd_cdc_if.c **** isr_debug_elogger_usb_tx_done( );
  85              		.loc 1 312 1 view .LVU11
  86 0002 FFF7FEFF 		bl	isr_debug_elogger_usb_tx_done
  87              	.LVL4:
 313:USBUSER/Device/usbd_cdc_if.c ****   /* USER CODE BEGIN 13 */
 314:USBUSER/Device/usbd_cdc_if.c ****   UNUSED(Buf);
  88              		.loc 1 314 3 view .LVU12
 315:USBUSER/Device/usbd_cdc_if.c ****   UNUSED(Len);
  89              		.loc 1 315 3 view .LVU13
ARM GAS  C:\Users\Jim_YW\AppData\Local\Temp\ccXiHeUc.s 			page 8


 316:USBUSER/Device/usbd_cdc_if.c ****   UNUSED(epnum);
  90              		.loc 1 316 3 view .LVU14
 317:USBUSER/Device/usbd_cdc_if.c ****   /* USER CODE END 13 */
 318:USBUSER/Device/usbd_cdc_if.c ****   return result;
  91              		.loc 1 318 3 view .LVU15
 319:USBUSER/Device/usbd_cdc_if.c **** }
  92              		.loc 1 319 1 is_stmt 0 view .LVU16
  93 0006 0020     		movs	r0, #0
  94 0008 08BD     		pop	{r3, pc}
  95              		.cfi_endproc
  96              	.LFE139:
  98              		.section	.text.CDC_Receive_FS,"ax",%progbits
  99              		.align	1
 100              		.syntax unified
 101              		.thumb
 102              		.thumb_func
 104              	CDC_Receive_FS:
 105              	.LVL5:
 106              	.LFB137:
 263:USBUSER/Device/usbd_cdc_if.c ****   /* USER CODE BEGIN 6 */
 107              		.loc 1 263 1 is_stmt 1 view -0
 108              		.cfi_startproc
 109              		@ args = 0, pretend = 0, frame = 0
 110              		@ frame_needed = 0, uses_anonymous_args = 0
 263:USBUSER/Device/usbd_cdc_if.c ****   /* USER CODE BEGIN 6 */
 111              		.loc 1 263 1 is_stmt 0 view .LVU18
 112 0000 10B5     		push	{r4, lr}
 113              	.LCFI1:
 114              		.cfi_def_cfa_offset 8
 115              		.cfi_offset 4, -8
 116              		.cfi_offset 14, -4
 117 0002 0146     		mov	r1, r0
 118              	.LVL6:
 265:USBUSER/Device/usbd_cdc_if.c ****   USBD_CDC_ReceivePacket(&hUsbDeviceFS);
 119              		.loc 1 265 3 is_stmt 1 view .LVU19
 120 0004 044C     		ldr	r4, .L7
 121 0006 2046     		mov	r0, r4
 122              	.LVL7:
 265:USBUSER/Device/usbd_cdc_if.c ****   USBD_CDC_ReceivePacket(&hUsbDeviceFS);
 123              		.loc 1 265 3 is_stmt 0 view .LVU20
 124 0008 FFF7FEFF 		bl	USBD_CDC_SetRxBuffer
 125              	.LVL8:
 266:USBUSER/Device/usbd_cdc_if.c ****   return (USBD_OK);
 126              		.loc 1 266 3 is_stmt 1 view .LVU21
 127 000c 2046     		mov	r0, r4
 128 000e FFF7FEFF 		bl	USBD_CDC_ReceivePacket
 129              	.LVL9:
 267:USBUSER/Device/usbd_cdc_if.c ****   /* USER CODE END 6 */
 130              		.loc 1 267 3 view .LVU22
 269:USBUSER/Device/usbd_cdc_if.c **** 
 131              		.loc 1 269 1 is_stmt 0 view .LVU23
 132 0012 0020     		movs	r0, #0
 133 0014 10BD     		pop	{r4, pc}
 134              	.L8:
 135 0016 00BF     		.align	2
 136              	.L7:
 137 0018 00000000 		.word	hUsbDeviceFS
ARM GAS  C:\Users\Jim_YW\AppData\Local\Temp\ccXiHeUc.s 			page 9


 138              		.cfi_endproc
 139              	.LFE137:
 141              		.section	.text.CDC_Init_FS,"ax",%progbits
 142              		.align	1
 143              		.syntax unified
 144              		.thumb
 145              		.thumb_func
 147              	CDC_Init_FS:
 148              	.LFB134:
 154:USBUSER/Device/usbd_cdc_if.c ****   /* USER CODE BEGIN 3 */
 149              		.loc 1 154 1 is_stmt 1 view -0
 150              		.cfi_startproc
 151              		@ args = 0, pretend = 0, frame = 0
 152              		@ frame_needed = 0, uses_anonymous_args = 0
 153 0000 10B5     		push	{r4, lr}
 154              	.LCFI2:
 155              		.cfi_def_cfa_offset 8
 156              		.cfi_offset 4, -8
 157              		.cfi_offset 14, -4
 157:USBUSER/Device/usbd_cdc_if.c ****   USBD_CDC_SetRxBuffer(&hUsbDeviceFS, UserRxBufferFS);
 158              		.loc 1 157 3 view .LVU25
 159 0002 064C     		ldr	r4, .L11
 160 0004 0022     		movs	r2, #0
 161 0006 0649     		ldr	r1, .L11+4
 162 0008 2046     		mov	r0, r4
 163 000a FFF7FEFF 		bl	USBD_CDC_SetTxBuffer
 164              	.LVL10:
 158:USBUSER/Device/usbd_cdc_if.c ****   return (USBD_OK);
 165              		.loc 1 158 3 view .LVU26
 166 000e 0549     		ldr	r1, .L11+8
 167 0010 2046     		mov	r0, r4
 168 0012 FFF7FEFF 		bl	USBD_CDC_SetRxBuffer
 169              	.LVL11:
 159:USBUSER/Device/usbd_cdc_if.c ****   /* USER CODE END 3 */
 170              		.loc 1 159 3 view .LVU27
 161:USBUSER/Device/usbd_cdc_if.c **** 
 171              		.loc 1 161 1 is_stmt 0 view .LVU28
 172 0016 0020     		movs	r0, #0
 173 0018 10BD     		pop	{r4, pc}
 174              	.L12:
 175 001a 00BF     		.align	2
 176              	.L11:
 177 001c 00000000 		.word	hUsbDeviceFS
 178 0020 00000000 		.word	.LANCHOR0
 179 0024 00000000 		.word	.LANCHOR1
 180              		.cfi_endproc
 181              	.LFE134:
 183              		.section	.text.CDC_Transmit_FS,"ax",%progbits
 184              		.align	1
 185              		.global	CDC_Transmit_FS
 186              		.syntax unified
 187              		.thumb
 188              		.thumb_func
 190              	CDC_Transmit_FS:
 191              	.LVL12:
 192              	.LFB138:
 283:USBUSER/Device/usbd_cdc_if.c ****   uint8_t result = USBD_OK;
ARM GAS  C:\Users\Jim_YW\AppData\Local\Temp\ccXiHeUc.s 			page 10


 193              		.loc 1 283 1 is_stmt 1 view -0
 194              		.cfi_startproc
 195              		@ args = 0, pretend = 0, frame = 0
 196              		@ frame_needed = 0, uses_anonymous_args = 0
 284:USBUSER/Device/usbd_cdc_if.c ****   /* USER CODE BEGIN 7 */
 197              		.loc 1 284 3 view .LVU30
 286:USBUSER/Device/usbd_cdc_if.c ****   if (hcdc->TxState != 0){
 198              		.loc 1 286 3 view .LVU31
 286:USBUSER/Device/usbd_cdc_if.c ****   if (hcdc->TxState != 0){
 199              		.loc 1 286 27 is_stmt 0 view .LVU32
 200 0000 094B     		ldr	r3, .L21
 201 0002 D3F8BC32 		ldr	r3, [r3, #700]
 202              	.LVL13:
 287:USBUSER/Device/usbd_cdc_if.c ****     return USBD_BUSY;
 203              		.loc 1 287 3 is_stmt 1 view .LVU33
 287:USBUSER/Device/usbd_cdc_if.c ****     return USBD_BUSY;
 204              		.loc 1 287 11 is_stmt 0 view .LVU34
 205 0006 D3F81432 		ldr	r3, [r3, #532]
 206              	.LVL14:
 287:USBUSER/Device/usbd_cdc_if.c ****     return USBD_BUSY;
 207              		.loc 1 287 6 view .LVU35
 208 000a 0BB1     		cbz	r3, .L20
 288:USBUSER/Device/usbd_cdc_if.c ****   }
 209              		.loc 1 288 12 view .LVU36
 210 000c 0120     		movs	r0, #1
 211              	.LVL15:
 294:USBUSER/Device/usbd_cdc_if.c **** 
 212              		.loc 1 294 1 view .LVU37
 213 000e 7047     		bx	lr
 214              	.LVL16:
 215              	.L20:
 283:USBUSER/Device/usbd_cdc_if.c ****   uint8_t result = USBD_OK;
 216              		.loc 1 283 1 view .LVU38
 217 0010 10B5     		push	{r4, lr}
 218              	.LCFI3:
 219              		.cfi_def_cfa_offset 8
 220              		.cfi_offset 4, -8
 221              		.cfi_offset 14, -4
 290:USBUSER/Device/usbd_cdc_if.c ****   result = USBD_CDC_TransmitPacket(&hUsbDeviceFS);
 222              		.loc 1 290 3 is_stmt 1 view .LVU39
 223 0012 054C     		ldr	r4, .L21
 224              	.LVL17:
 290:USBUSER/Device/usbd_cdc_if.c ****   result = USBD_CDC_TransmitPacket(&hUsbDeviceFS);
 225              		.loc 1 290 3 is_stmt 0 view .LVU40
 226 0014 0A46     		mov	r2, r1
 227 0016 0146     		mov	r1, r0
 228              	.LVL18:
 290:USBUSER/Device/usbd_cdc_if.c ****   result = USBD_CDC_TransmitPacket(&hUsbDeviceFS);
 229              		.loc 1 290 3 view .LVU41
 230 0018 2046     		mov	r0, r4
 231              	.LVL19:
 290:USBUSER/Device/usbd_cdc_if.c ****   result = USBD_CDC_TransmitPacket(&hUsbDeviceFS);
 232              		.loc 1 290 3 view .LVU42
 233 001a FFF7FEFF 		bl	USBD_CDC_SetTxBuffer
 234              	.LVL20:
 291:USBUSER/Device/usbd_cdc_if.c ****   /* USER CODE END 7 */
 235              		.loc 1 291 3 is_stmt 1 view .LVU43
ARM GAS  C:\Users\Jim_YW\AppData\Local\Temp\ccXiHeUc.s 			page 11


 291:USBUSER/Device/usbd_cdc_if.c ****   /* USER CODE END 7 */
 236              		.loc 1 291 12 is_stmt 0 view .LVU44
 237 001e 2046     		mov	r0, r4
 238 0020 FFF7FEFF 		bl	USBD_CDC_TransmitPacket
 239              	.LVL21:
 293:USBUSER/Device/usbd_cdc_if.c **** }
 240              		.loc 1 293 3 is_stmt 1 view .LVU45
 294:USBUSER/Device/usbd_cdc_if.c **** 
 241              		.loc 1 294 1 is_stmt 0 view .LVU46
 242 0024 10BD     		pop	{r4, pc}
 243              	.L22:
 244 0026 00BF     		.align	2
 245              	.L21:
 246 0028 00000000 		.word	hUsbDeviceFS
 247              		.cfi_endproc
 248              	.LFE138:
 250              		.section	.text.usb_printf,"ax",%progbits
 251              		.align	1
 252              		.global	usb_printf
 253              		.syntax unified
 254              		.thumb
 255              		.thumb_func
 257              	usb_printf:
 258              	.LVL22:
 259              	.LFB140:
 320:USBUSER/Device/usbd_cdc_if.c **** 
 321:USBUSER/Device/usbd_cdc_if.c **** /* USER CODE BEGIN PRIVATE_FUNCTIONS_IMPLEMENTATION */
 322:USBUSER/Device/usbd_cdc_if.c **** 
 323:USBUSER/Device/usbd_cdc_if.c **** #include "stdarg.h"
 324:USBUSER/Device/usbd_cdc_if.c **** void usb_printf(const char *format, ...)                                             // usb_printf(
 325:USBUSER/Device/usbd_cdc_if.c **** {
 260              		.loc 1 325 1 is_stmt 1 view -0
 261              		.cfi_startproc
 262              		@ args = 4, pretend = 16, frame = 8
 263              		@ frame_needed = 0, uses_anonymous_args = 1
 264              		.loc 1 325 1 is_stmt 0 view .LVU48
 265 0000 0FB4     		push	{r0, r1, r2, r3}
 266              	.LCFI4:
 267              		.cfi_def_cfa_offset 16
 268              		.cfi_offset 0, -16
 269              		.cfi_offset 1, -12
 270              		.cfi_offset 2, -8
 271              		.cfi_offset 3, -4
 272 0002 10B5     		push	{r4, lr}
 273              	.LCFI5:
 274              		.cfi_def_cfa_offset 24
 275              		.cfi_offset 4, -24
 276              		.cfi_offset 14, -20
 277 0004 82B0     		sub	sp, sp, #8
 278              	.LCFI6:
 279              		.cfi_def_cfa_offset 32
 280 0006 04AB     		add	r3, sp, #16
 281 0008 53F8042B 		ldr	r2, [r3], #4
 326:USBUSER/Device/usbd_cdc_if.c ****     va_list args;
 282              		.loc 1 326 5 is_stmt 1 view .LVU49
 327:USBUSER/Device/usbd_cdc_if.c ****     uint32_t length;
 283              		.loc 1 327 5 view .LVU50
ARM GAS  C:\Users\Jim_YW\AppData\Local\Temp\ccXiHeUc.s 			page 12


 328:USBUSER/Device/usbd_cdc_if.c ****  
 329:USBUSER/Device/usbd_cdc_if.c ****     va_start(args, format);
 284              		.loc 1 329 5 view .LVU51
 285 000c 0193     		str	r3, [sp, #4]
 330:USBUSER/Device/usbd_cdc_if.c ****     length = vsnprintf((char *)UserTxBufferFS, APP_TX_DATA_SIZE, (char *)format, args);
 286              		.loc 1 330 5 view .LVU52
 287              		.loc 1 330 14 is_stmt 0 view .LVU53
 288 000e 074C     		ldr	r4, .L25
 289 0010 4FF40061 		mov	r1, #2048
 290 0014 2046     		mov	r0, r4
 291 0016 FFF7FEFF 		bl	vsnprintf
 292              	.LVL23:
 331:USBUSER/Device/usbd_cdc_if.c ****     va_end(args);
 293              		.loc 1 331 5 is_stmt 1 view .LVU54
 332:USBUSER/Device/usbd_cdc_if.c ****     CDC_Transmit_FS(UserTxBufferFS, length);
 294              		.loc 1 332 5 view .LVU55
 295 001a 81B2     		uxth	r1, r0
 296 001c 2046     		mov	r0, r4
 297              	.LVL24:
 298              		.loc 1 332 5 is_stmt 0 view .LVU56
 299 001e FFF7FEFF 		bl	CDC_Transmit_FS
 300              	.LVL25:
 333:USBUSER/Device/usbd_cdc_if.c **** }
 301              		.loc 1 333 1 view .LVU57
 302 0022 02B0     		add	sp, sp, #8
 303              	.LCFI7:
 304              		.cfi_def_cfa_offset 24
 305              		@ sp needed
 306 0024 BDE81040 		pop	{r4, lr}
 307              	.LCFI8:
 308              		.cfi_restore 14
 309              		.cfi_restore 4
 310              		.cfi_def_cfa_offset 16
 311 0028 04B0     		add	sp, sp, #16
 312              	.LCFI9:
 313              		.cfi_restore 3
 314              		.cfi_restore 2
 315              		.cfi_restore 1
 316              		.cfi_restore 0
 317              		.cfi_def_cfa_offset 0
 318 002a 7047     		bx	lr
 319              	.L26:
 320              		.align	2
 321              	.L25:
 322 002c 00000000 		.word	.LANCHOR0
 323              		.cfi_endproc
 324              	.LFE140:
 326              		.section	.text.USB_Status_Init,"ax",%progbits
 327              		.align	1
 328              		.global	USB_Status_Init
 329              		.syntax unified
 330              		.thumb
 331              		.thumb_func
 333              	USB_Status_Init:
 334              	.LFB141:
 334:USBUSER/Device/usbd_cdc_if.c **** 
 335:USBUSER/Device/usbd_cdc_if.c **** 
ARM GAS  C:\Users\Jim_YW\AppData\Local\Temp\ccXiHeUc.s 			page 13


 336:USBUSER/Device/usbd_cdc_if.c **** void USB_Status_Init(void)
 337:USBUSER/Device/usbd_cdc_if.c **** {
 335              		.loc 1 337 1 is_stmt 1 view -0
 336              		.cfi_startproc
 337              		@ args = 0, pretend = 0, frame = 24
 338              		@ frame_needed = 0, uses_anonymous_args = 0
 339 0000 30B5     		push	{r4, r5, lr}
 340              	.LCFI10:
 341              		.cfi_def_cfa_offset 12
 342              		.cfi_offset 4, -12
 343              		.cfi_offset 5, -8
 344              		.cfi_offset 14, -4
 345 0002 87B0     		sub	sp, sp, #28
 346              	.LCFI11:
 347              		.cfi_def_cfa_offset 40
 338:USBUSER/Device/usbd_cdc_if.c ****     GPIO_InitTypeDef GPIO_InitStruct = {0};
 348              		.loc 1 338 5 view .LVU59
 349              		.loc 1 338 22 is_stmt 0 view .LVU60
 350 0004 0022     		movs	r2, #0
 351 0006 0192     		str	r2, [sp, #4]
 352 0008 0292     		str	r2, [sp, #8]
 353 000a 0392     		str	r2, [sp, #12]
 354 000c 0492     		str	r2, [sp, #16]
 355 000e 0592     		str	r2, [sp, #20]
 339:USBUSER/Device/usbd_cdc_if.c ****  
 340:USBUSER/Device/usbd_cdc_if.c ****     /* GPIO Ports Clock Enable */
 341:USBUSER/Device/usbd_cdc_if.c ****     __HAL_RCC_GPIOA_CLK_ENABLE();
 356              		.loc 1 341 5 is_stmt 1 view .LVU61
 357              	.LBB2:
 358              		.loc 1 341 5 view .LVU62
 359 0010 0092     		str	r2, [sp]
 360              		.loc 1 341 5 view .LVU63
 361 0012 114B     		ldr	r3, .L29
 362 0014 196B     		ldr	r1, [r3, #48]
 363 0016 41F00101 		orr	r1, r1, #1
 364 001a 1963     		str	r1, [r3, #48]
 365              		.loc 1 341 5 view .LVU64
 366 001c 1B6B     		ldr	r3, [r3, #48]
 367 001e 03F00103 		and	r3, r3, #1
 368 0022 0093     		str	r3, [sp]
 369              		.loc 1 341 5 view .LVU65
 370 0024 009B     		ldr	r3, [sp]
 371              	.LBE2:
 372              		.loc 1 341 5 view .LVU66
 342:USBUSER/Device/usbd_cdc_if.c ****  
 343:USBUSER/Device/usbd_cdc_if.c ****     /*Configure GPIO pin Output Level */
 344:USBUSER/Device/usbd_cdc_if.c ****     HAL_GPIO_WritePin(GPIOA, GPIO_PIN_11 | GPIO_PIN_12, GPIO_PIN_RESET);
 373              		.loc 1 344 5 view .LVU67
 374 0026 0D4D     		ldr	r5, .L29+4
 375 0028 4FF4C051 		mov	r1, #6144
 376 002c 2846     		mov	r0, r5
 377 002e FFF7FEFF 		bl	HAL_GPIO_WritePin
 378              	.LVL26:
 345:USBUSER/Device/usbd_cdc_if.c ****  
 346:USBUSER/Device/usbd_cdc_if.c ****     /*Configure GPIO pin : W25Q256_CS_Pin */
 347:USBUSER/Device/usbd_cdc_if.c ****     GPIO_InitStruct.Pin = GPIO_PIN_11 | GPIO_PIN_12;
 379              		.loc 1 347 5 view .LVU68
ARM GAS  C:\Users\Jim_YW\AppData\Local\Temp\ccXiHeUc.s 			page 14


 380              		.loc 1 347 25 is_stmt 0 view .LVU69
 381 0032 4FF4C053 		mov	r3, #6144
 382 0036 0193     		str	r3, [sp, #4]
 348:USBUSER/Device/usbd_cdc_if.c ****     GPIO_InitStruct.Mode = GPIO_MODE_OUTPUT_PP;
 383              		.loc 1 348 5 is_stmt 1 view .LVU70
 384              		.loc 1 348 26 is_stmt 0 view .LVU71
 385 0038 0123     		movs	r3, #1
 386 003a 0293     		str	r3, [sp, #8]
 349:USBUSER/Device/usbd_cdc_if.c ****     GPIO_InitStruct.Pull = GPIO_PULLDOWN;
 387              		.loc 1 349 5 is_stmt 1 view .LVU72
 388              		.loc 1 349 26 is_stmt 0 view .LVU73
 389 003c 0224     		movs	r4, #2
 390 003e 0394     		str	r4, [sp, #12]
 350:USBUSER/Device/usbd_cdc_if.c ****     GPIO_InitStruct.Speed = GPIO_SPEED_FREQ_VERY_HIGH;
 391              		.loc 1 350 5 is_stmt 1 view .LVU74
 392              		.loc 1 350 27 is_stmt 0 view .LVU75
 393 0040 0323     		movs	r3, #3
 394 0042 0493     		str	r3, [sp, #16]
 351:USBUSER/Device/usbd_cdc_if.c ****     HAL_GPIO_Init(GPIOA, &GPIO_InitStruct);
 395              		.loc 1 351 5 is_stmt 1 view .LVU76
 396 0044 01A9     		add	r1, sp, #4
 397 0046 2846     		mov	r0, r5
 398 0048 FFF7FEFF 		bl	HAL_GPIO_Init
 399              	.LVL27:
 352:USBUSER/Device/usbd_cdc_if.c ****  
 353:USBUSER/Device/usbd_cdc_if.c ****     //假如不行的话，下面的延时加长即可。
 354:USBUSER/Device/usbd_cdc_if.c ****     HAL_Delay(2);
 400              		.loc 1 354 5 view .LVU77
 401 004c 2046     		mov	r0, r4
 402 004e FFF7FEFF 		bl	HAL_Delay
 403              	.LVL28:
 355:USBUSER/Device/usbd_cdc_if.c **** 
 356:USBUSER/Device/usbd_cdc_if.c ****     //  GPIOA->IDR &= 0XFFF00FFF; // 清空PA11 PA12的配置
 357:USBUSER/Device/usbd_cdc_if.c ****     // GPIOA->IDR |= 0X00033000; // 设置PA11 PA12为推挽输出
 358:USBUSER/Device/usbd_cdc_if.c ****     // GPIOA->ODR |= 0<<11;      // PA11 输出低电平H
 359:USBUSER/Device/usbd_cdc_if.c ****     // GPIOA->ODR |= 0<<12;      // PA12 输出低电平
 360:USBUSER/Device/usbd_cdc_if.c ****     // HAL_Delay(10);            // 延迟10ms
 361:USBUSER/Device/usbd_cdc_if.c **** }
 404              		.loc 1 361 1 is_stmt 0 view .LVU78
 405 0052 07B0     		add	sp, sp, #28
 406              	.LCFI12:
 407              		.cfi_def_cfa_offset 12
 408              		@ sp needed
 409 0054 30BD     		pop	{r4, r5, pc}
 410              	.L30:
 411 0056 00BF     		.align	2
 412              	.L29:
 413 0058 00380240 		.word	1073887232
 414 005c 00000240 		.word	1073872896
 415              		.cfi_endproc
 416              	.LFE141:
 418              		.global	USBD_Interface_fops_FS
 419              		.global	UserTxBufferFS
 420              		.global	UserRxBufferFS
 421              		.section	.bss.UserRxBufferFS,"aw",%nobits
 422              		.align	2
 423              		.set	.LANCHOR1,. + 0
ARM GAS  C:\Users\Jim_YW\AppData\Local\Temp\ccXiHeUc.s 			page 15


 426              	UserRxBufferFS:
 427 0000 00000000 		.space	2048
 427      00000000 
 427      00000000 
 427      00000000 
 427      00000000 
 428              		.section	.bss.UserTxBufferFS,"aw",%nobits
 429              		.align	2
 430              		.set	.LANCHOR0,. + 0
 433              	UserTxBufferFS:
 434 0000 00000000 		.space	2048
 434      00000000 
 434      00000000 
 434      00000000 
 434      00000000 
 435              		.section	.data.USBD_Interface_fops_FS,"aw"
 436              		.align	2
 439              	USBD_Interface_fops_FS:
 440 0000 00000000 		.word	CDC_Init_FS
 441 0004 00000000 		.word	CDC_DeInit_FS
 442 0008 00000000 		.word	CDC_Control_FS
 443 000c 00000000 		.word	CDC_Receive_FS
 444 0010 00000000 		.word	CDC_TransmitCplt_FS
 445              		.text
 446              	.Letext0:
 447              		.file 2 "c:\\program files (x86)\\gnu arm embedded toolchain\\10 2021.10\\arm-none-eabi\\include\\
 448              		.file 3 "c:\\program files (x86)\\gnu arm embedded toolchain\\10 2021.10\\lib\\gcc\\arm-none-eabi\
 449              		.file 4 "c:\\program files (x86)\\gnu arm embedded toolchain\\10 2021.10\\arm-none-eabi\\include\\
 450              		.file 5 "../../../Drivers/CMSIS/Device/ST/STM32F4xx/Include/stm32f407xx.h"
 451              		.file 6 "../../../Drivers/STM32F4xx_HAL_Driver/Inc/stm32f4xx_hal_gpio.h"
 452              		.file 7 "USBLIB/Core/Inc/usbd_def.h"
 453              		.file 8 "USBLIB/Class/CDC/Inc/usbd_cdc.h"
 454              		.file 9 "USBUSER/Device/usbd_cdc_if.h"
 455              		.file 10 "../../../Drivers/STM32F4xx_HAL_Driver/Inc/stm32f4xx_hal.h"
 456              		.file 11 "c:\\program files (x86)\\gnu arm embedded toolchain\\10 2021.10\\arm-none-eabi\\include\
 457              		.file 12 "<built-in>"
ARM GAS  C:\Users\Jim_YW\AppData\Local\Temp\ccXiHeUc.s 			page 16


DEFINED SYMBOLS
                            *ABS*:00000000 usbd_cdc_if.c
C:\Users\Jim_YW\AppData\Local\Temp\ccXiHeUc.s:20     .text.CDC_DeInit_FS:00000000 $t
C:\Users\Jim_YW\AppData\Local\Temp\ccXiHeUc.s:25     .text.CDC_DeInit_FS:00000000 CDC_DeInit_FS
C:\Users\Jim_YW\AppData\Local\Temp\ccXiHeUc.s:41     .text.CDC_Control_FS:00000000 $t
C:\Users\Jim_YW\AppData\Local\Temp\ccXiHeUc.s:46     .text.CDC_Control_FS:00000000 CDC_Control_FS
C:\Users\Jim_YW\AppData\Local\Temp\ccXiHeUc.s:65     .text.CDC_TransmitCplt_FS:00000000 $t
C:\Users\Jim_YW\AppData\Local\Temp\ccXiHeUc.s:70     .text.CDC_TransmitCplt_FS:00000000 CDC_TransmitCplt_FS
C:\Users\Jim_YW\AppData\Local\Temp\ccXiHeUc.s:99     .text.CDC_Receive_FS:00000000 $t
C:\Users\Jim_YW\AppData\Local\Temp\ccXiHeUc.s:104    .text.CDC_Receive_FS:00000000 CDC_Receive_FS
C:\Users\Jim_YW\AppData\Local\Temp\ccXiHeUc.s:137    .text.CDC_Receive_FS:00000018 $d
C:\Users\Jim_YW\AppData\Local\Temp\ccXiHeUc.s:142    .text.CDC_Init_FS:00000000 $t
C:\Users\Jim_YW\AppData\Local\Temp\ccXiHeUc.s:147    .text.CDC_Init_FS:00000000 CDC_Init_FS
C:\Users\Jim_YW\AppData\Local\Temp\ccXiHeUc.s:177    .text.CDC_Init_FS:0000001c $d
C:\Users\Jim_YW\AppData\Local\Temp\ccXiHeUc.s:184    .text.CDC_Transmit_FS:00000000 $t
C:\Users\Jim_YW\AppData\Local\Temp\ccXiHeUc.s:190    .text.CDC_Transmit_FS:00000000 CDC_Transmit_FS
C:\Users\Jim_YW\AppData\Local\Temp\ccXiHeUc.s:246    .text.CDC_Transmit_FS:00000028 $d
C:\Users\Jim_YW\AppData\Local\Temp\ccXiHeUc.s:251    .text.usb_printf:00000000 $t
C:\Users\Jim_YW\AppData\Local\Temp\ccXiHeUc.s:257    .text.usb_printf:00000000 usb_printf
C:\Users\Jim_YW\AppData\Local\Temp\ccXiHeUc.s:322    .text.usb_printf:0000002c $d
C:\Users\Jim_YW\AppData\Local\Temp\ccXiHeUc.s:327    .text.USB_Status_Init:00000000 $t
C:\Users\Jim_YW\AppData\Local\Temp\ccXiHeUc.s:333    .text.USB_Status_Init:00000000 USB_Status_Init
C:\Users\Jim_YW\AppData\Local\Temp\ccXiHeUc.s:413    .text.USB_Status_Init:00000058 $d
C:\Users\Jim_YW\AppData\Local\Temp\ccXiHeUc.s:439    .data.USBD_Interface_fops_FS:00000000 USBD_Interface_fops_FS
C:\Users\Jim_YW\AppData\Local\Temp\ccXiHeUc.s:433    .bss.UserTxBufferFS:00000000 UserTxBufferFS
C:\Users\Jim_YW\AppData\Local\Temp\ccXiHeUc.s:426    .bss.UserRxBufferFS:00000000 UserRxBufferFS
C:\Users\Jim_YW\AppData\Local\Temp\ccXiHeUc.s:422    .bss.UserRxBufferFS:00000000 $d
C:\Users\Jim_YW\AppData\Local\Temp\ccXiHeUc.s:429    .bss.UserTxBufferFS:00000000 $d
C:\Users\Jim_YW\AppData\Local\Temp\ccXiHeUc.s:436    .data.USBD_Interface_fops_FS:00000000 $d

UNDEFINED SYMBOLS
isr_debug_elogger_usb_tx_done
USBD_CDC_SetRxBuffer
USBD_CDC_ReceivePacket
hUsbDeviceFS
USBD_CDC_SetTxBuffer
USBD_CDC_TransmitPacket
vsnprintf
HAL_GPIO_WritePin
HAL_GPIO_Init
HAL_Delay
