ARM GAS  C:\Users\Jim_YW\AppData\Local\Temp\ccr7I2W8.s 			page 1


   1              		.cpu cortex-m4
   2              		.arch armv7e-m
   3              		.fpu fpv4-sp-d16
   4              		.eabi_attribute 27, 1
   5              		.eabi_attribute 28, 1
   6              		.eabi_attribute 20, 1
   7              		.eabi_attribute 21, 1
   8              		.eabi_attribute 23, 3
   9              		.eabi_attribute 24, 1
  10              		.eabi_attribute 25, 1
  11              		.eabi_attribute 26, 1
  12              		.eabi_attribute 30, 1
  13              		.eabi_attribute 34, 1
  14              		.eabi_attribute 18, 4
  15              		.file	"dev_spi.c"
  16              		.text
  17              	.Ltext0:
  18              		.cfi_sections	.debug_frame
  19              		.section	.text.HSPI_Init,"ax",%progbits
  20              		.align	1
  21              		.global	HSPI_Init
  22              		.syntax unified
  23              		.thumb
  24              		.thumb_func
  26              	HSPI_Init:
  27              	.LVL0:
  28              	.LFB134:
  29              		.file 1 "DEV/dev_spi.c"
   1:DEV/dev_spi.c **** #include "dev_spi.h"
   2:DEV/dev_spi.c **** 
   3:DEV/dev_spi.c **** #include "stm32f4xx_hal.h"
   4:DEV/dev_spi.c **** 
   5:DEV/dev_spi.c **** SPI_HandleTypeDef hspi1;
   6:DEV/dev_spi.c **** 
   7:DEV/dev_spi.c ****  
   8:DEV/dev_spi.c **** void HSPI_Init(SPI_HandleTypeDef *hspi)
   9:DEV/dev_spi.c **** {
  30              		.loc 1 9 1 view -0
  31              		.cfi_startproc
  32              		@ args = 0, pretend = 0, frame = 0
  33              		@ frame_needed = 0, uses_anonymous_args = 0
  34              		.loc 1 9 1 is_stmt 0 view .LVU1
  35 0000 08B5     		push	{r3, lr}
  36              	.LCFI0:
  37              		.cfi_def_cfa_offset 8
  38              		.cfi_offset 3, -8
  39              		.cfi_offset 14, -4
  10:DEV/dev_spi.c ****   hspi->Instance = SPI1;
  40              		.loc 1 10 3 is_stmt 1 view .LVU2
  41              		.loc 1 10 18 is_stmt 0 view .LVU3
  42 0002 0D4A     		ldr	r2, .L5
  43 0004 0260     		str	r2, [r0]
  11:DEV/dev_spi.c ****   hspi->Init.Mode = SPI_MODE_MASTER;
  44              		.loc 1 11 3 is_stmt 1 view .LVU4
  45              		.loc 1 11 19 is_stmt 0 view .LVU5
  46 0006 4FF48272 		mov	r2, #260
  47 000a 4260     		str	r2, [r0, #4]
ARM GAS  C:\Users\Jim_YW\AppData\Local\Temp\ccr7I2W8.s 			page 2


  12:DEV/dev_spi.c ****   hspi->Init.Direction = SPI_DIRECTION_2LINES;
  48              		.loc 1 12 3 is_stmt 1 view .LVU6
  49              		.loc 1 12 24 is_stmt 0 view .LVU7
  50 000c 0022     		movs	r2, #0
  51 000e 8260     		str	r2, [r0, #8]
  13:DEV/dev_spi.c ****   hspi->Init.DataSize = SPI_DATASIZE_8BIT;
  52              		.loc 1 13 3 is_stmt 1 view .LVU8
  53              		.loc 1 13 23 is_stmt 0 view .LVU9
  54 0010 C260     		str	r2, [r0, #12]
  14:DEV/dev_spi.c ****   hspi->Init.CLKPolarity = SPI_POLARITY_LOW;
  55              		.loc 1 14 3 is_stmt 1 view .LVU10
  56              		.loc 1 14 26 is_stmt 0 view .LVU11
  57 0012 0261     		str	r2, [r0, #16]
  15:DEV/dev_spi.c ****   hspi->Init.CLKPhase = SPI_PHASE_1EDGE;
  58              		.loc 1 15 3 is_stmt 1 view .LVU12
  59              		.loc 1 15 23 is_stmt 0 view .LVU13
  60 0014 4261     		str	r2, [r0, #20]
  16:DEV/dev_spi.c ****   hspi->Init.NSS = SPI_NSS_SOFT;
  61              		.loc 1 16 3 is_stmt 1 view .LVU14
  62              		.loc 1 16 18 is_stmt 0 view .LVU15
  63 0016 4FF40071 		mov	r1, #512
  64 001a 8161     		str	r1, [r0, #24]
  17:DEV/dev_spi.c ****   hspi->Init.BaudRatePrescaler = SPI_BAUDRATEPRESCALER_4;
  65              		.loc 1 17 3 is_stmt 1 view .LVU16
  66              		.loc 1 17 32 is_stmt 0 view .LVU17
  67 001c 0821     		movs	r1, #8
  68 001e C161     		str	r1, [r0, #28]
  18:DEV/dev_spi.c ****   hspi->Init.FirstBit = SPI_FIRSTBIT_MSB;
  69              		.loc 1 18 3 is_stmt 1 view .LVU18
  70              		.loc 1 18 23 is_stmt 0 view .LVU19
  71 0020 0262     		str	r2, [r0, #32]
  19:DEV/dev_spi.c ****   hspi->Init.TIMode = SPI_TIMODE_DISABLE;
  72              		.loc 1 19 3 is_stmt 1 view .LVU20
  73              		.loc 1 19 21 is_stmt 0 view .LVU21
  74 0022 4262     		str	r2, [r0, #36]
  20:DEV/dev_spi.c ****   hspi->Init.CRCCalculation = SPI_CRCCALCULATION_DISABLE;
  75              		.loc 1 20 3 is_stmt 1 view .LVU22
  76              		.loc 1 20 29 is_stmt 0 view .LVU23
  77 0024 8262     		str	r2, [r0, #40]
  21:DEV/dev_spi.c ****   hspi->Init.CRCPolynomial = 10;
  78              		.loc 1 21 3 is_stmt 1 view .LVU24
  79              		.loc 1 21 28 is_stmt 0 view .LVU25
  80 0026 0A22     		movs	r2, #10
  81 0028 C262     		str	r2, [r0, #44]
  22:DEV/dev_spi.c ****   if (HAL_SPI_Init(hspi) != HAL_OK)
  82              		.loc 1 22 3 is_stmt 1 view .LVU26
  83              		.loc 1 22 7 is_stmt 0 view .LVU27
  84 002a FFF7FEFF 		bl	HAL_SPI_Init
  85              	.LVL1:
  86              		.loc 1 22 6 view .LVU28
  87 002e 00B9     		cbnz	r0, .L4
  88              	.L1:
  23:DEV/dev_spi.c ****   {
  24:DEV/dev_spi.c ****     Error_Handler();
  25:DEV/dev_spi.c ****   }
  26:DEV/dev_spi.c **** }
  89              		.loc 1 26 1 view .LVU29
ARM GAS  C:\Users\Jim_YW\AppData\Local\Temp\ccr7I2W8.s 			page 3


  90 0030 08BD     		pop	{r3, pc}
  91              	.L4:
  24:DEV/dev_spi.c ****   }
  92              		.loc 1 24 5 is_stmt 1 view .LVU30
  93 0032 FFF7FEFF 		bl	Error_Handler
  94              	.LVL2:
  95              		.loc 1 26 1 is_stmt 0 view .LVU31
  96 0036 FBE7     		b	.L1
  97              	.L6:
  98              		.align	2
  99              	.L5:
 100 0038 00300140 		.word	1073819648
 101              		.cfi_endproc
 102              	.LFE134:
 104              		.section	.text.MX_SPI1_Init,"ax",%progbits
 105              		.align	1
 106              		.global	MX_SPI1_Init
 107              		.syntax unified
 108              		.thumb
 109              		.thumb_func
 111              	MX_SPI1_Init:
 112              	.LFB135:
  27:DEV/dev_spi.c **** /* SPI1 init function */
  28:DEV/dev_spi.c **** void MX_SPI1_Init(void)
  29:DEV/dev_spi.c **** {
 113              		.loc 1 29 1 is_stmt 1 view -0
 114              		.cfi_startproc
 115              		@ args = 0, pretend = 0, frame = 0
 116              		@ frame_needed = 0, uses_anonymous_args = 0
 117 0000 08B5     		push	{r3, lr}
 118              	.LCFI1:
 119              		.cfi_def_cfa_offset 8
 120              		.cfi_offset 3, -8
 121              		.cfi_offset 14, -4
  30:DEV/dev_spi.c **** 
  31:DEV/dev_spi.c ****   /* USER CODE BEGIN SPI1_Init 0 */
  32:DEV/dev_spi.c **** 
  33:DEV/dev_spi.c ****   /* USER CODE END SPI1_Init 0 */
  34:DEV/dev_spi.c **** 
  35:DEV/dev_spi.c ****   /* USER CODE BEGIN SPI1_Init 1 */
  36:DEV/dev_spi.c **** 
  37:DEV/dev_spi.c ****   /* USER CODE END SPI1_Init 1 */
  38:DEV/dev_spi.c ****   hspi1.Instance = SPI1;
 122              		.loc 1 38 3 view .LVU33
 123              		.loc 1 38 18 is_stmt 0 view .LVU34
 124 0002 0E48     		ldr	r0, .L11
 125 0004 0E4B     		ldr	r3, .L11+4
 126 0006 0360     		str	r3, [r0]
  39:DEV/dev_spi.c ****   hspi1.Init.Mode = SPI_MODE_MASTER;
 127              		.loc 1 39 3 is_stmt 1 view .LVU35
 128              		.loc 1 39 19 is_stmt 0 view .LVU36
 129 0008 4FF48273 		mov	r3, #260
 130 000c 4360     		str	r3, [r0, #4]
  40:DEV/dev_spi.c ****   hspi1.Init.Direction = SPI_DIRECTION_2LINES;
 131              		.loc 1 40 3 is_stmt 1 view .LVU37
 132              		.loc 1 40 24 is_stmt 0 view .LVU38
 133 000e 0023     		movs	r3, #0
ARM GAS  C:\Users\Jim_YW\AppData\Local\Temp\ccr7I2W8.s 			page 4


 134 0010 8360     		str	r3, [r0, #8]
  41:DEV/dev_spi.c ****   hspi1.Init.DataSize = SPI_DATASIZE_8BIT;
 135              		.loc 1 41 3 is_stmt 1 view .LVU39
 136              		.loc 1 41 23 is_stmt 0 view .LVU40
 137 0012 C360     		str	r3, [r0, #12]
  42:DEV/dev_spi.c ****   hspi1.Init.CLKPolarity = SPI_POLARITY_LOW;
 138              		.loc 1 42 3 is_stmt 1 view .LVU41
 139              		.loc 1 42 26 is_stmt 0 view .LVU42
 140 0014 0361     		str	r3, [r0, #16]
  43:DEV/dev_spi.c ****   hspi1.Init.CLKPhase = SPI_PHASE_1EDGE;
 141              		.loc 1 43 3 is_stmt 1 view .LVU43
 142              		.loc 1 43 23 is_stmt 0 view .LVU44
 143 0016 4361     		str	r3, [r0, #20]
  44:DEV/dev_spi.c ****   hspi1.Init.NSS = SPI_NSS_SOFT;
 144              		.loc 1 44 3 is_stmt 1 view .LVU45
 145              		.loc 1 44 18 is_stmt 0 view .LVU46
 146 0018 4FF40072 		mov	r2, #512
 147 001c 8261     		str	r2, [r0, #24]
  45:DEV/dev_spi.c ****   hspi1.Init.BaudRatePrescaler = SPI_BAUDRATEPRESCALER_4;
 148              		.loc 1 45 3 is_stmt 1 view .LVU47
 149              		.loc 1 45 32 is_stmt 0 view .LVU48
 150 001e 0822     		movs	r2, #8
 151 0020 C261     		str	r2, [r0, #28]
  46:DEV/dev_spi.c ****   hspi1.Init.FirstBit = SPI_FIRSTBIT_MSB;
 152              		.loc 1 46 3 is_stmt 1 view .LVU49
 153              		.loc 1 46 23 is_stmt 0 view .LVU50
 154 0022 0362     		str	r3, [r0, #32]
  47:DEV/dev_spi.c ****   hspi1.Init.TIMode = SPI_TIMODE_DISABLE;
 155              		.loc 1 47 3 is_stmt 1 view .LVU51
 156              		.loc 1 47 21 is_stmt 0 view .LVU52
 157 0024 4362     		str	r3, [r0, #36]
  48:DEV/dev_spi.c ****   hspi1.Init.CRCCalculation = SPI_CRCCALCULATION_DISABLE;
 158              		.loc 1 48 3 is_stmt 1 view .LVU53
 159              		.loc 1 48 29 is_stmt 0 view .LVU54
 160 0026 8362     		str	r3, [r0, #40]
  49:DEV/dev_spi.c ****   hspi1.Init.CRCPolynomial = 10;
 161              		.loc 1 49 3 is_stmt 1 view .LVU55
 162              		.loc 1 49 28 is_stmt 0 view .LVU56
 163 0028 0A23     		movs	r3, #10
 164 002a C362     		str	r3, [r0, #44]
  50:DEV/dev_spi.c ****   if (HAL_SPI_Init(&hspi1) != HAL_OK)
 165              		.loc 1 50 3 is_stmt 1 view .LVU57
 166              		.loc 1 50 7 is_stmt 0 view .LVU58
 167 002c FFF7FEFF 		bl	HAL_SPI_Init
 168              	.LVL3:
 169              		.loc 1 50 6 view .LVU59
 170 0030 00B9     		cbnz	r0, .L10
 171              	.L7:
  51:DEV/dev_spi.c ****   {
  52:DEV/dev_spi.c ****     Error_Handler();
  53:DEV/dev_spi.c ****   }
  54:DEV/dev_spi.c ****   /* USER CODE BEGIN SPI1_Init 2 */
  55:DEV/dev_spi.c **** 
  56:DEV/dev_spi.c ****   /* USER CODE END SPI1_Init 2 */
  57:DEV/dev_spi.c **** 
  58:DEV/dev_spi.c **** }
 172              		.loc 1 58 1 view .LVU60
ARM GAS  C:\Users\Jim_YW\AppData\Local\Temp\ccr7I2W8.s 			page 5


 173 0032 08BD     		pop	{r3, pc}
 174              	.L10:
  52:DEV/dev_spi.c ****   }
 175              		.loc 1 52 5 is_stmt 1 view .LVU61
 176 0034 FFF7FEFF 		bl	Error_Handler
 177              	.LVL4:
 178              		.loc 1 58 1 is_stmt 0 view .LVU62
 179 0038 FBE7     		b	.L7
 180              	.L12:
 181 003a 00BF     		.align	2
 182              	.L11:
 183 003c 00000000 		.word	.LANCHOR0
 184 0040 00300140 		.word	1073819648
 185              		.cfi_endproc
 186              	.LFE135:
 188              		.section	.text.HAL_SPI_MspInit,"ax",%progbits
 189              		.align	1
 190              		.global	HAL_SPI_MspInit
 191              		.syntax unified
 192              		.thumb
 193              		.thumb_func
 195              	HAL_SPI_MspInit:
 196              	.LVL5:
 197              	.LFB136:
  59:DEV/dev_spi.c **** 
  60:DEV/dev_spi.c **** void HAL_SPI_MspInit(SPI_HandleTypeDef* spiHandle)
  61:DEV/dev_spi.c **** {
 198              		.loc 1 61 1 is_stmt 1 view -0
 199              		.cfi_startproc
 200              		@ args = 0, pretend = 0, frame = 32
 201              		@ frame_needed = 0, uses_anonymous_args = 0
 202              		.loc 1 61 1 is_stmt 0 view .LVU64
 203 0000 30B5     		push	{r4, r5, lr}
 204              	.LCFI2:
 205              		.cfi_def_cfa_offset 12
 206              		.cfi_offset 4, -12
 207              		.cfi_offset 5, -8
 208              		.cfi_offset 14, -4
 209 0002 89B0     		sub	sp, sp, #36
 210              	.LCFI3:
 211              		.cfi_def_cfa_offset 48
  62:DEV/dev_spi.c **** 
  63:DEV/dev_spi.c ****   GPIO_InitTypeDef GPIO_InitStruct = {0};
 212              		.loc 1 63 3 is_stmt 1 view .LVU65
 213              		.loc 1 63 20 is_stmt 0 view .LVU66
 214 0004 0023     		movs	r3, #0
 215 0006 0393     		str	r3, [sp, #12]
 216 0008 0493     		str	r3, [sp, #16]
 217 000a 0593     		str	r3, [sp, #20]
 218 000c 0693     		str	r3, [sp, #24]
 219 000e 0793     		str	r3, [sp, #28]
  64:DEV/dev_spi.c ****   if(spiHandle->Instance==SPI1)
 220              		.loc 1 64 3 is_stmt 1 view .LVU67
 221              		.loc 1 64 15 is_stmt 0 view .LVU68
 222 0010 0268     		ldr	r2, [r0]
 223              		.loc 1 64 5 view .LVU69
 224 0012 184B     		ldr	r3, .L17
ARM GAS  C:\Users\Jim_YW\AppData\Local\Temp\ccr7I2W8.s 			page 6


 225 0014 9A42     		cmp	r2, r3
 226 0016 01D0     		beq	.L16
 227              	.LVL6:
 228              	.L13:
  65:DEV/dev_spi.c ****   {
  66:DEV/dev_spi.c ****   /* USER CODE BEGIN SPI1_MspInit 0 */
  67:DEV/dev_spi.c **** 
  68:DEV/dev_spi.c ****   /* USER CODE END SPI1_MspInit 0 */
  69:DEV/dev_spi.c ****     /* SPI1 clock enable */
  70:DEV/dev_spi.c ****     __HAL_RCC_SPI1_CLK_ENABLE();
  71:DEV/dev_spi.c **** 
  72:DEV/dev_spi.c ****     __HAL_RCC_GPIOB_CLK_ENABLE();
  73:DEV/dev_spi.c ****     /**SPI1 GPIO Configuration
  74:DEV/dev_spi.c ****     PB3     ------> SPI1_SCK
  75:DEV/dev_spi.c ****     PB4     ------> SPI1_MISO
  76:DEV/dev_spi.c ****     PB5     ------> SPI1_MOSI
  77:DEV/dev_spi.c ****     */
  78:DEV/dev_spi.c ****     GPIO_InitStruct.Pin = GPIO_PIN_3|GPIO_PIN_4|GPIO_PIN_5;
  79:DEV/dev_spi.c ****     GPIO_InitStruct.Mode = GPIO_MODE_AF_PP;
  80:DEV/dev_spi.c ****     GPIO_InitStruct.Pull = GPIO_NOPULL;
  81:DEV/dev_spi.c ****     GPIO_InitStruct.Speed = GPIO_SPEED_FREQ_VERY_HIGH;
  82:DEV/dev_spi.c ****     GPIO_InitStruct.Alternate = GPIO_AF5_SPI1;
  83:DEV/dev_spi.c ****     HAL_GPIO_Init(GPIOB, &GPIO_InitStruct);
  84:DEV/dev_spi.c **** 
  85:DEV/dev_spi.c ****     /* SPI1 interrupt Init */
  86:DEV/dev_spi.c ****     HAL_NVIC_SetPriority(SPI1_IRQn, 5, 0);
  87:DEV/dev_spi.c ****     HAL_NVIC_EnableIRQ(SPI1_IRQn);
  88:DEV/dev_spi.c ****   /* USER CODE BEGIN SPI1_MspInit 1 */
  89:DEV/dev_spi.c **** 
  90:DEV/dev_spi.c ****   /* USER CODE END SPI1_MspInit 1 */
  91:DEV/dev_spi.c ****   }
  92:DEV/dev_spi.c **** }
 229              		.loc 1 92 1 view .LVU70
 230 0018 09B0     		add	sp, sp, #36
 231              	.LCFI4:
 232              		.cfi_remember_state
 233              		.cfi_def_cfa_offset 12
 234              		@ sp needed
 235 001a 30BD     		pop	{r4, r5, pc}
 236              	.LVL7:
 237              	.L16:
 238              	.LCFI5:
 239              		.cfi_restore_state
  70:DEV/dev_spi.c **** 
 240              		.loc 1 70 5 is_stmt 1 view .LVU71
 241              	.LBB2:
  70:DEV/dev_spi.c **** 
 242              		.loc 1 70 5 view .LVU72
 243 001c 0024     		movs	r4, #0
 244 001e 0194     		str	r4, [sp, #4]
  70:DEV/dev_spi.c **** 
 245              		.loc 1 70 5 view .LVU73
 246 0020 03F58433 		add	r3, r3, #67584
 247 0024 5A6C     		ldr	r2, [r3, #68]
 248 0026 42F48052 		orr	r2, r2, #4096
 249 002a 5A64     		str	r2, [r3, #68]
  70:DEV/dev_spi.c **** 
ARM GAS  C:\Users\Jim_YW\AppData\Local\Temp\ccr7I2W8.s 			page 7


 250              		.loc 1 70 5 view .LVU74
 251 002c 5A6C     		ldr	r2, [r3, #68]
 252 002e 02F48052 		and	r2, r2, #4096
 253 0032 0192     		str	r2, [sp, #4]
  70:DEV/dev_spi.c **** 
 254              		.loc 1 70 5 view .LVU75
 255 0034 019A     		ldr	r2, [sp, #4]
 256              	.LBE2:
  70:DEV/dev_spi.c **** 
 257              		.loc 1 70 5 view .LVU76
  72:DEV/dev_spi.c ****     /**SPI1 GPIO Configuration
 258              		.loc 1 72 5 view .LVU77
 259              	.LBB3:
  72:DEV/dev_spi.c ****     /**SPI1 GPIO Configuration
 260              		.loc 1 72 5 view .LVU78
 261 0036 0294     		str	r4, [sp, #8]
  72:DEV/dev_spi.c ****     /**SPI1 GPIO Configuration
 262              		.loc 1 72 5 view .LVU79
 263 0038 1A6B     		ldr	r2, [r3, #48]
 264 003a 42F00202 		orr	r2, r2, #2
 265 003e 1A63     		str	r2, [r3, #48]
  72:DEV/dev_spi.c ****     /**SPI1 GPIO Configuration
 266              		.loc 1 72 5 view .LVU80
 267 0040 1B6B     		ldr	r3, [r3, #48]
 268 0042 03F00203 		and	r3, r3, #2
 269 0046 0293     		str	r3, [sp, #8]
  72:DEV/dev_spi.c ****     /**SPI1 GPIO Configuration
 270              		.loc 1 72 5 view .LVU81
 271 0048 029B     		ldr	r3, [sp, #8]
 272              	.LBE3:
  72:DEV/dev_spi.c ****     /**SPI1 GPIO Configuration
 273              		.loc 1 72 5 view .LVU82
  78:DEV/dev_spi.c ****     GPIO_InitStruct.Mode = GPIO_MODE_AF_PP;
 274              		.loc 1 78 5 view .LVU83
  78:DEV/dev_spi.c ****     GPIO_InitStruct.Mode = GPIO_MODE_AF_PP;
 275              		.loc 1 78 25 is_stmt 0 view .LVU84
 276 004a 3823     		movs	r3, #56
 277 004c 0393     		str	r3, [sp, #12]
  79:DEV/dev_spi.c ****     GPIO_InitStruct.Pull = GPIO_NOPULL;
 278              		.loc 1 79 5 is_stmt 1 view .LVU85
  79:DEV/dev_spi.c ****     GPIO_InitStruct.Pull = GPIO_NOPULL;
 279              		.loc 1 79 26 is_stmt 0 view .LVU86
 280 004e 0223     		movs	r3, #2
 281 0050 0493     		str	r3, [sp, #16]
  80:DEV/dev_spi.c ****     GPIO_InitStruct.Speed = GPIO_SPEED_FREQ_VERY_HIGH;
 282              		.loc 1 80 5 is_stmt 1 view .LVU87
  81:DEV/dev_spi.c ****     GPIO_InitStruct.Alternate = GPIO_AF5_SPI1;
 283              		.loc 1 81 5 view .LVU88
  81:DEV/dev_spi.c ****     GPIO_InitStruct.Alternate = GPIO_AF5_SPI1;
 284              		.loc 1 81 27 is_stmt 0 view .LVU89
 285 0052 0323     		movs	r3, #3
 286 0054 0693     		str	r3, [sp, #24]
  82:DEV/dev_spi.c ****     HAL_GPIO_Init(GPIOB, &GPIO_InitStruct);
 287              		.loc 1 82 5 is_stmt 1 view .LVU90
  82:DEV/dev_spi.c ****     HAL_GPIO_Init(GPIOB, &GPIO_InitStruct);
 288              		.loc 1 82 31 is_stmt 0 view .LVU91
 289 0056 0525     		movs	r5, #5
ARM GAS  C:\Users\Jim_YW\AppData\Local\Temp\ccr7I2W8.s 			page 8


 290 0058 0795     		str	r5, [sp, #28]
  83:DEV/dev_spi.c **** 
 291              		.loc 1 83 5 is_stmt 1 view .LVU92
 292 005a 03A9     		add	r1, sp, #12
 293 005c 0648     		ldr	r0, .L17+4
 294              	.LVL8:
  83:DEV/dev_spi.c **** 
 295              		.loc 1 83 5 is_stmt 0 view .LVU93
 296 005e FFF7FEFF 		bl	HAL_GPIO_Init
 297              	.LVL9:
  86:DEV/dev_spi.c ****     HAL_NVIC_EnableIRQ(SPI1_IRQn);
 298              		.loc 1 86 5 is_stmt 1 view .LVU94
 299 0062 2246     		mov	r2, r4
 300 0064 2946     		mov	r1, r5
 301 0066 2320     		movs	r0, #35
 302 0068 FFF7FEFF 		bl	HAL_NVIC_SetPriority
 303              	.LVL10:
  87:DEV/dev_spi.c ****   /* USER CODE BEGIN SPI1_MspInit 1 */
 304              		.loc 1 87 5 view .LVU95
 305 006c 2320     		movs	r0, #35
 306 006e FFF7FEFF 		bl	HAL_NVIC_EnableIRQ
 307              	.LVL11:
 308              		.loc 1 92 1 is_stmt 0 view .LVU96
 309 0072 D1E7     		b	.L13
 310              	.L18:
 311              		.align	2
 312              	.L17:
 313 0074 00300140 		.word	1073819648
 314 0078 00040240 		.word	1073873920
 315              		.cfi_endproc
 316              	.LFE136:
 318              		.section	.text.HAL_SPI_MspDeInit,"ax",%progbits
 319              		.align	1
 320              		.global	HAL_SPI_MspDeInit
 321              		.syntax unified
 322              		.thumb
 323              		.thumb_func
 325              	HAL_SPI_MspDeInit:
 326              	.LVL12:
 327              	.LFB137:
  93:DEV/dev_spi.c **** 
  94:DEV/dev_spi.c **** void HAL_SPI_MspDeInit(SPI_HandleTypeDef* spiHandle)
  95:DEV/dev_spi.c **** {
 328              		.loc 1 95 1 is_stmt 1 view -0
 329              		.cfi_startproc
 330              		@ args = 0, pretend = 0, frame = 0
 331              		@ frame_needed = 0, uses_anonymous_args = 0
 332              		.loc 1 95 1 is_stmt 0 view .LVU98
 333 0000 08B5     		push	{r3, lr}
 334              	.LCFI6:
 335              		.cfi_def_cfa_offset 8
 336              		.cfi_offset 3, -8
 337              		.cfi_offset 14, -4
  96:DEV/dev_spi.c **** 
  97:DEV/dev_spi.c ****   if(spiHandle->Instance==SPI1)
 338              		.loc 1 97 3 is_stmt 1 view .LVU99
 339              		.loc 1 97 15 is_stmt 0 view .LVU100
ARM GAS  C:\Users\Jim_YW\AppData\Local\Temp\ccr7I2W8.s 			page 9


 340 0002 0268     		ldr	r2, [r0]
 341              		.loc 1 97 5 view .LVU101
 342 0004 084B     		ldr	r3, .L23
 343 0006 9A42     		cmp	r2, r3
 344 0008 00D0     		beq	.L22
 345              	.LVL13:
 346              	.L19:
  98:DEV/dev_spi.c ****   {
  99:DEV/dev_spi.c ****   /* USER CODE BEGIN SPI1_MspDeInit 0 */
 100:DEV/dev_spi.c **** 
 101:DEV/dev_spi.c ****   /* USER CODE END SPI1_MspDeInit 0 */
 102:DEV/dev_spi.c ****     /* Peripheral clock disable */
 103:DEV/dev_spi.c ****     __HAL_RCC_SPI1_CLK_DISABLE();
 104:DEV/dev_spi.c **** 
 105:DEV/dev_spi.c ****     /**SPI1 GPIO Configuration
 106:DEV/dev_spi.c ****     PB3     ------> SPI1_SCK
 107:DEV/dev_spi.c ****     PB4     ------> SPI1_MISO
 108:DEV/dev_spi.c ****     PB5     ------> SPI1_MOSI
 109:DEV/dev_spi.c ****     */
 110:DEV/dev_spi.c ****     HAL_GPIO_DeInit(GPIOB, GPIO_PIN_3|GPIO_PIN_4|GPIO_PIN_5);
 111:DEV/dev_spi.c **** 
 112:DEV/dev_spi.c ****     /* SPI1 interrupt Deinit */
 113:DEV/dev_spi.c ****     HAL_NVIC_DisableIRQ(SPI1_IRQn);
 114:DEV/dev_spi.c ****   /* USER CODE BEGIN SPI1_MspDeInit 1 */
 115:DEV/dev_spi.c **** 
 116:DEV/dev_spi.c ****   /* USER CODE END SPI1_MspDeInit 1 */
 117:DEV/dev_spi.c ****   }
 118:DEV/dev_spi.c **** }...
 347              		.loc 1 118 1 view .LVU102
 348 000a 08BD     		pop	{r3, pc}
 349              	.LVL14:
 350              	.L22:
 103:DEV/dev_spi.c ****     __HAL_RCC_SPI1_CLK_DISABLE();
 351              		.loc 1 103 5 is_stmt 1 view .LVU103
 352 000c 074A     		ldr	r2, .L23+4
 353 000e 536C     		ldr	r3, [r2, #68]
 354 0010 23F48053 		bic	r3, r3, #4096
 355 0014 5364     		str	r3, [r2, #68]
 110:DEV/dev_spi.c ****     HAL_GPIO_DeInit(GPIOB, GPIO_PIN_3|GPIO_PIN_4|GPIO_PIN_5);
 356              		.loc 1 110 5 view .LVU104
 357 0016 3821     		movs	r1, #56
 358 0018 0548     		ldr	r0, .L23+8
 359              	.LVL15:
 110:DEV/dev_spi.c ****     HAL_GPIO_DeInit(GPIOB, GPIO_PIN_3|GPIO_PIN_4|GPIO_PIN_5);
 360              		.loc 1 110 5 is_stmt 0 view .LVU105
 361 001a FFF7FEFF 		bl	HAL_GPIO_DeInit
 362              	.LVL16:
 113:DEV/dev_spi.c ****     HAL_NVIC_DisableIRQ(SPI1_IRQn);
 363              		.loc 1 113 5 is_stmt 1 view .LVU106
 364 001e 2320     		movs	r0, #35
 365 0020 FFF7FEFF 		bl	HAL_NVIC_DisableIRQ
 366              	.LVL17:
 367              		.loc 1 118 1 is_stmt 0 view .LVU107
 368 0024 F1E7     		b	.L19
 369              	.L24:
 370 0026 00BF     		.align	2
 371              	.L23:
ARM GAS  C:\Users\Jim_YW\AppData\Local\Temp\ccr7I2W8.s 			page 10


 372 0028 00300140 		.word	1073819648
 373 002c 00380240 		.word	1073887232
 374 0030 00040240 		.word	1073873920
 375              		.cfi_endproc
 376              	.LFE137:
 378              		.global	hspi1
 379              		.section	.bss.hspi1,"aw",%nobits
 380              		.align	2
 381              		.set	.LANCHOR0,. + 0
 384              	hspi1:
 385 0000 00000000 		.space	88
 385      00000000 
 385      00000000 
 385      00000000 
 385      00000000 
 386              		.text
 387              	.Letext0:
 388              		.file 2 "c:\\program files (x86)\\gnu arm embedded toolchain\\10 2021.10\\arm-none-eabi\\include\\
 389              		.file 3 "c:\\program files (x86)\\gnu arm embedded toolchain\\10 2021.10\\arm-none-eabi\\include\\
 390              		.file 4 "../../../Drivers/CMSIS/Device/ST/STM32F4xx/Include/stm32f407xx.h"
 391              		.file 5 "../../../Drivers/STM32F4xx_HAL_Driver/Inc/stm32f4xx_hal_def.h"
 392              		.file 6 "../../../Drivers/STM32F4xx_HAL_Driver/Inc/stm32f4xx_hal_gpio.h"
 393              		.file 7 "../../../Drivers/STM32F4xx_HAL_Driver/Inc/stm32f4xx_hal_dma.h"
 394              		.file 8 "../../../Drivers/STM32F4xx_HAL_Driver/Inc/stm32f4xx_hal_spi.h"
 395              		.file 9 "../../../Drivers/STM32F4xx_HAL_Driver/Inc/stm32f4xx_hal_cortex.h"
 396              		.file 10 "Core/Inc/main.h"
 397              		.file 11 "DEV/dev_spi.h"
ARM GAS  C:\Users\Jim_YW\AppData\Local\Temp\ccr7I2W8.s 			page 11


DEFINED SYMBOLS
                            *ABS*:00000000 dev_spi.c
C:\Users\Jim_YW\AppData\Local\Temp\ccr7I2W8.s:20     .text.HSPI_Init:00000000 $t
C:\Users\Jim_YW\AppData\Local\Temp\ccr7I2W8.s:26     .text.HSPI_Init:00000000 HSPI_Init
C:\Users\Jim_YW\AppData\Local\Temp\ccr7I2W8.s:100    .text.HSPI_Init:00000038 $d
C:\Users\Jim_YW\AppData\Local\Temp\ccr7I2W8.s:105    .text.MX_SPI1_Init:00000000 $t
C:\Users\Jim_YW\AppData\Local\Temp\ccr7I2W8.s:111    .text.MX_SPI1_Init:00000000 MX_SPI1_Init
C:\Users\Jim_YW\AppData\Local\Temp\ccr7I2W8.s:183    .text.MX_SPI1_Init:0000003c $d
C:\Users\Jim_YW\AppData\Local\Temp\ccr7I2W8.s:189    .text.HAL_SPI_MspInit:00000000 $t
C:\Users\Jim_YW\AppData\Local\Temp\ccr7I2W8.s:195    .text.HAL_SPI_MspInit:00000000 HAL_SPI_MspInit
C:\Users\Jim_YW\AppData\Local\Temp\ccr7I2W8.s:313    .text.HAL_SPI_MspInit:00000074 $d
C:\Users\Jim_YW\AppData\Local\Temp\ccr7I2W8.s:319    .text.HAL_SPI_MspDeInit:00000000 $t
C:\Users\Jim_YW\AppData\Local\Temp\ccr7I2W8.s:325    .text.HAL_SPI_MspDeInit:00000000 HAL_SPI_MspDeInit
C:\Users\Jim_YW\AppData\Local\Temp\ccr7I2W8.s:372    .text.HAL_SPI_MspDeInit:00000028 $d
C:\Users\Jim_YW\AppData\Local\Temp\ccr7I2W8.s:384    .bss.hspi1:00000000 hspi1
C:\Users\Jim_YW\AppData\Local\Temp\ccr7I2W8.s:380    .bss.hspi1:00000000 $d

UNDEFINED SYMBOLS
HAL_SPI_Init
Error_Handler
HAL_GPIO_Init
HAL_NVIC_SetPriority
HAL_NVIC_EnableIRQ
HAL_GPIO_DeInit
HAL_NVIC_DisableIRQ
