ARM GAS  C:\Users\Jim_YW\AppData\Local\Temp\cckE0jBc.s 			page 1


   1              		.cpu cortex-m4
   2              		.arch armv7e-m
   3              		.fpu fpv4-sp-d16
   4              		.eabi_attribute 27, 1
   5              		.eabi_attribute 28, 1
   6              		.eabi_attribute 20, 1
   7              		.eabi_attribute 21, 1
   8              		.eabi_attribute 23, 3
   9              		.eabi_attribute 24, 1
  10              		.eabi_attribute 25, 1
  11              		.eabi_attribute 26, 1
  12              		.eabi_attribute 30, 1
  13              		.eabi_attribute 34, 1
  14              		.eabi_attribute 18, 4
  15              		.file	"bsp.c"
  16              		.text
  17              	.Ltext0:
  18              		.cfi_sections	.debug_frame
  19              		.section	.text.bsp_init_prepare,"ax",%progbits
  20              		.align	1
  21              		.global	bsp_init_prepare
  22              		.syntax unified
  23              		.thumb
  24              		.thumb_func
  26              	bsp_init_prepare:
  27              	.LFB135:
  28              		.file 1 "DEV/bsp.c"
   1:DEV/bsp.c     **** #include "bsp.h" 
   2:DEV/bsp.c     **** #include "dev_dma.h"
   3:DEV/bsp.c     **** 
   4:DEV/bsp.c     **** 
   5:DEV/bsp.c     **** // #define TEST_ENV 1
   6:DEV/bsp.c     **** // UART_HandleTypeDef DebugUartHandle;
   7:DEV/bsp.c     **** // // #ifndef Flash_SPI_Handle
   8:DEV/bsp.c     **** // // SPI_HandleTypeDef Flash_SPI_Handle;
   9:DEV/bsp.c     **** // // #else
  10:DEV/bsp.c     **** // // extern SPI_HandleTypeDef Flash_SPI_Handle;
  11:DEV/bsp.c     **** // // #endif
  12:DEV/bsp.c     **** 
  13:DEV/bsp.c     **** // SPI_HandleTypeDef MY_SPI_Handle;
  14:DEV/bsp.c     **** // // HAL_SD_CardInfoTypeDef SD_CardInfo;
  15:DEV/bsp.c     **** 
  16:DEV/bsp.c     **** void bsp_init_prepare(void)
  17:DEV/bsp.c     **** {
  29              		.loc 1 17 1 view -0
  30              		.cfi_startproc
  31              		@ args = 0, pretend = 0, frame = 0
  32              		@ frame_needed = 0, uses_anonymous_args = 0
  33 0000 08B5     		push	{r3, lr}
  34              	.LCFI0:
  35              		.cfi_def_cfa_offset 8
  36              		.cfi_offset 3, -8
  37              		.cfi_offset 14, -4
  18:DEV/bsp.c     **** 	led_init();
  38              		.loc 1 18 2 view .LVU1
  39 0002 FFF7FEFF 		bl	led_init
  40              	.LVL0:
ARM GAS  C:\Users\Jim_YW\AppData\Local\Temp\cckE0jBc.s 			page 2


  19:DEV/bsp.c     ****     MX_DMA_Init();
  41              		.loc 1 19 5 view .LVU2
  42 0006 FFF7FEFF 		bl	MX_DMA_Init
  43              	.LVL1:
  20:DEV/bsp.c     **** 	DWT_Delay_Init( );
  44              		.loc 1 20 2 view .LVU3
  45 000a FFF7FEFF 		bl	DWT_Delay_Init
  46              	.LVL2:
  21:DEV/bsp.c     **** 
  22:DEV/bsp.c     ****     uart_init(&huart1,USART1,115200);
  47              		.loc 1 22 5 view .LVU4
  48 000e 4FF4E132 		mov	r2, #115200
  49 0012 0849     		ldr	r1, .L3
  50 0014 0848     		ldr	r0, .L3+4
  51 0016 FFF7FEFF 		bl	uart_init
  52              	.LVL3:
  23:DEV/bsp.c     ****     uart_init(&huart2,USART2,115200);
  53              		.loc 1 23 5 view .LVU5
  54 001a 4FF4E132 		mov	r2, #115200
  55 001e 0749     		ldr	r1, .L3+8
  56 0020 0748     		ldr	r0, .L3+12
  57 0022 FFF7FEFF 		bl	uart_init
  58              	.LVL4:
  24:DEV/bsp.c     ****     uart_init(&huart3,USART3,115200);
  59              		.loc 1 24 5 view .LVU6
  60 0026 4FF4E132 		mov	r2, #115200
  61 002a 0649     		ldr	r1, .L3+16
  62 002c 0648     		ldr	r0, .L3+20
  63 002e FFF7FEFF 		bl	uart_init
  64              	.LVL5:
  25:DEV/bsp.c     **** 
  26:DEV/bsp.c     ****     // uart_helper_init(huart1_helper);
  27:DEV/bsp.c     ****     // uart_helper_init(huart2_helper);
  28:DEV/bsp.c     ****     // uart_helper_init(huart3_helper);
  29:DEV/bsp.c     **** 	
  30:DEV/bsp.c     **** 	// led_init();
  31:DEV/bsp.c     ****     // MX_SPI1_Init( );
  32:DEV/bsp.c     ****     // MX_SDIO_SD_Init();
  33:DEV/bsp.c     **** 
  34:DEV/bsp.c     ****     // extern SPI_HandleTypeDef hspi1;
  35:DEV/bsp.c     ****     // spiflash_init(&hspi1);
  36:DEV/bsp.c     **** 
  37:DEV/bsp.c     ****     // MX_FATFS_Init();
  38:DEV/bsp.c     **** }
  65              		.loc 1 38 1 is_stmt 0 view .LVU7
  66 0032 08BD     		pop	{r3, pc}
  67              	.L4:
  68              		.align	2
  69              	.L3:
  70 0034 00100140 		.word	1073811456
  71 0038 00000000 		.word	huart1
  72 003c 00440040 		.word	1073759232
  73 0040 00000000 		.word	huart2
  74 0044 00480040 		.word	1073760256
  75 0048 00000000 		.word	huart3
  76              		.cfi_endproc
  77              	.LFE135:
ARM GAS  C:\Users\Jim_YW\AppData\Local\Temp\cckE0jBc.s 			page 3


  79              		.section	.text.bsp_init,"ax",%progbits
  80              		.align	1
  81              		.global	bsp_init
  82              		.syntax unified
  83              		.thumb
  84              		.thumb_func
  86              	bsp_init:
  87              	.LFB136:
  39:DEV/bsp.c     **** 
  40:DEV/bsp.c     **** void bsp_init(void)
  41:DEV/bsp.c     **** {
  88              		.loc 1 41 1 is_stmt 1 view -0
  89              		.cfi_startproc
  90              		@ args = 0, pretend = 0, frame = 0
  91              		@ frame_needed = 0, uses_anonymous_args = 0
  92              		@ link register save eliminated.
  42:DEV/bsp.c     **** 
  43:DEV/bsp.c     **** //     log_i("bsp_init .....");
  44:DEV/bsp.c     **** 
  45:DEV/bsp.c     **** //     // BSP_SD_Init();
  46:DEV/bsp.c     **** //     BSP_SD_GetCardInfo(&SD_CardInfo);
  47:DEV/bsp.c     **** //     // printf(" SD_CardInfo ->  %d \r\n ", SD_CardInfo.BlockSize );
  48:DEV/bsp.c     **** 
  49:DEV/bsp.c     **** 	
  50:DEV/bsp.c     **** 
  51:DEV/bsp.c     **** // #if (TEST_ENV ==1)
  52:DEV/bsp.c     **** // 	bsp_test_fatfs_flash();
  53:DEV/bsp.c     **** // 	// bsp_test_fatfs_sd();
  54:DEV/bsp.c     **** // #endif
  55:DEV/bsp.c     **** 
  56:DEV/bsp.c     **** }
  93              		.loc 1 56 1 view .LVU9
  94 0000 7047     		bx	lr
  95              		.cfi_endproc
  96              	.LFE136:
  98              		.text
  99              	.Letext0:
 100              		.file 2 "c:\\program files (x86)\\gnu arm embedded toolchain\\10 2021.10\\arm-none-eabi\\include\\
 101              		.file 3 "c:\\program files (x86)\\gnu arm embedded toolchain\\10 2021.10\\arm-none-eabi\\include\\
 102              		.file 4 "../../../Drivers/CMSIS/Device/ST/STM32F4xx/Include/stm32f407xx.h"
 103              		.file 5 "../../../Drivers/STM32F4xx_HAL_Driver/Inc/stm32f4xx_hal_def.h"
 104              		.file 6 "../../../Drivers/STM32F4xx_HAL_Driver/Inc/stm32f4xx_hal_dma.h"
 105              		.file 7 "../../../Drivers/STM32F4xx_HAL_Driver/Inc/stm32f4xx_hal_uart.h"
 106              		.file 8 "DEV/dev_uart.h"
 107              		.file 9 "DEV/dev_led.h"
 108              		.file 10 "DEV/dev_dma.h"
 109              		.file 11 "DEV/dev_dwt.h"
ARM GAS  C:\Users\Jim_YW\AppData\Local\Temp\cckE0jBc.s 			page 4


DEFINED SYMBOLS
                            *ABS*:00000000 bsp.c
C:\Users\Jim_YW\AppData\Local\Temp\cckE0jBc.s:20     .text.bsp_init_prepare:00000000 $t
C:\Users\Jim_YW\AppData\Local\Temp\cckE0jBc.s:26     .text.bsp_init_prepare:00000000 bsp_init_prepare
C:\Users\Jim_YW\AppData\Local\Temp\cckE0jBc.s:70     .text.bsp_init_prepare:00000034 $d
C:\Users\Jim_YW\AppData\Local\Temp\cckE0jBc.s:80     .text.bsp_init:00000000 $t
C:\Users\Jim_YW\AppData\Local\Temp\cckE0jBc.s:86     .text.bsp_init:00000000 bsp_init

UNDEFINED SYMBOLS
led_init
MX_DMA_Init
DWT_Delay_Init
uart_init
huart1
huart2
huart3
