ARM GAS  C:\Users\Jim_YW\AppData\Local\Temp\ccPBemKn.s 			page 1


   1              		.cpu cortex-m4
   2              		.arch armv7e-m
   3              		.fpu fpv4-sp-d16
   4              		.eabi_attribute 27, 1
   5              		.eabi_attribute 28, 1
   6              		.eabi_attribute 20, 1
   7              		.eabi_attribute 21, 1
   8              		.eabi_attribute 23, 3
   9              		.eabi_attribute 24, 1
  10              		.eabi_attribute 25, 1
  11              		.eabi_attribute 26, 1
  12              		.eabi_attribute 30, 1
  13              		.eabi_attribute 34, 1
  14              		.eabi_attribute 18, 4
  15              		.file	"usbd_ctlreq.c"
  16              		.text
  17              	.Ltext0:
  18              		.cfi_sections	.debug_frame
  19              		.section	.text.USBD_GetLen,"ax",%progbits
  20              		.align	1
  21              		.syntax unified
  22              		.thumb
  23              		.thumb_func
  25              	USBD_GetLen:
  26              	.LVL0:
  27              	.LFB147:
  28              		.file 1 "USBLIB/Core/Src/usbd_ctlreq.c"
   1:USBLIB/Core/Src/usbd_ctlreq.c **** /**
   2:USBLIB/Core/Src/usbd_ctlreq.c ****   ******************************************************************************
   3:USBLIB/Core/Src/usbd_ctlreq.c ****   * @file    usbd_req.c
   4:USBLIB/Core/Src/usbd_ctlreq.c ****   * @author  MCD Application Team
   5:USBLIB/Core/Src/usbd_ctlreq.c ****   * @brief   This file provides the standard USB requests following chapter 9.
   6:USBLIB/Core/Src/usbd_ctlreq.c ****   ******************************************************************************
   7:USBLIB/Core/Src/usbd_ctlreq.c ****   * @attention
   8:USBLIB/Core/Src/usbd_ctlreq.c ****   *
   9:USBLIB/Core/Src/usbd_ctlreq.c ****   * Copyright (c) 2015 STMicroelectronics.
  10:USBLIB/Core/Src/usbd_ctlreq.c ****   * All rights reserved.
  11:USBLIB/Core/Src/usbd_ctlreq.c ****   *
  12:USBLIB/Core/Src/usbd_ctlreq.c ****   * This software is licensed under terms that can be found in the LICENSE file
  13:USBLIB/Core/Src/usbd_ctlreq.c ****   * in the root directory of this software component.
  14:USBLIB/Core/Src/usbd_ctlreq.c ****   * If no LICENSE file comes with this software, it is provided AS-IS.
  15:USBLIB/Core/Src/usbd_ctlreq.c ****   *
  16:USBLIB/Core/Src/usbd_ctlreq.c ****   ******************************************************************************
  17:USBLIB/Core/Src/usbd_ctlreq.c ****   */
  18:USBLIB/Core/Src/usbd_ctlreq.c **** 
  19:USBLIB/Core/Src/usbd_ctlreq.c **** /* Includes ------------------------------------------------------------------*/
  20:USBLIB/Core/Src/usbd_ctlreq.c **** #include "usbd_ctlreq.h"
  21:USBLIB/Core/Src/usbd_ctlreq.c **** #include "usbd_ioreq.h"
  22:USBLIB/Core/Src/usbd_ctlreq.c **** 
  23:USBLIB/Core/Src/usbd_ctlreq.c **** #ifdef USE_USBD_COMPOSITE
  24:USBLIB/Core/Src/usbd_ctlreq.c **** #include "usbd_composite_builder.h"
  25:USBLIB/Core/Src/usbd_ctlreq.c **** #endif /* USE_USBD_COMPOSITE */
  26:USBLIB/Core/Src/usbd_ctlreq.c **** 
  27:USBLIB/Core/Src/usbd_ctlreq.c **** /** @addtogroup STM32_USBD_STATE_DEVICE_LIBRARY
  28:USBLIB/Core/Src/usbd_ctlreq.c ****   * @{
  29:USBLIB/Core/Src/usbd_ctlreq.c ****   */
  30:USBLIB/Core/Src/usbd_ctlreq.c **** 
ARM GAS  C:\Users\Jim_YW\AppData\Local\Temp\ccPBemKn.s 			page 2


  31:USBLIB/Core/Src/usbd_ctlreq.c **** 
  32:USBLIB/Core/Src/usbd_ctlreq.c **** /** @defgroup USBD_REQ
  33:USBLIB/Core/Src/usbd_ctlreq.c ****   * @brief USB standard requests module
  34:USBLIB/Core/Src/usbd_ctlreq.c ****   * @{
  35:USBLIB/Core/Src/usbd_ctlreq.c ****   */
  36:USBLIB/Core/Src/usbd_ctlreq.c **** 
  37:USBLIB/Core/Src/usbd_ctlreq.c **** /** @defgroup USBD_REQ_Private_TypesDefinitions
  38:USBLIB/Core/Src/usbd_ctlreq.c ****   * @{
  39:USBLIB/Core/Src/usbd_ctlreq.c ****   */
  40:USBLIB/Core/Src/usbd_ctlreq.c **** 
  41:USBLIB/Core/Src/usbd_ctlreq.c **** /**
  42:USBLIB/Core/Src/usbd_ctlreq.c ****   * @}
  43:USBLIB/Core/Src/usbd_ctlreq.c ****   */
  44:USBLIB/Core/Src/usbd_ctlreq.c **** 
  45:USBLIB/Core/Src/usbd_ctlreq.c **** 
  46:USBLIB/Core/Src/usbd_ctlreq.c **** /** @defgroup USBD_REQ_Private_Defines
  47:USBLIB/Core/Src/usbd_ctlreq.c ****   * @{
  48:USBLIB/Core/Src/usbd_ctlreq.c ****   */
  49:USBLIB/Core/Src/usbd_ctlreq.c **** 
  50:USBLIB/Core/Src/usbd_ctlreq.c **** /**
  51:USBLIB/Core/Src/usbd_ctlreq.c ****   * @}
  52:USBLIB/Core/Src/usbd_ctlreq.c ****   */
  53:USBLIB/Core/Src/usbd_ctlreq.c **** 
  54:USBLIB/Core/Src/usbd_ctlreq.c **** 
  55:USBLIB/Core/Src/usbd_ctlreq.c **** /** @defgroup USBD_REQ_Private_Macros
  56:USBLIB/Core/Src/usbd_ctlreq.c ****   * @{
  57:USBLIB/Core/Src/usbd_ctlreq.c ****   */
  58:USBLIB/Core/Src/usbd_ctlreq.c **** 
  59:USBLIB/Core/Src/usbd_ctlreq.c **** /**
  60:USBLIB/Core/Src/usbd_ctlreq.c ****   * @}
  61:USBLIB/Core/Src/usbd_ctlreq.c ****   */
  62:USBLIB/Core/Src/usbd_ctlreq.c **** 
  63:USBLIB/Core/Src/usbd_ctlreq.c **** 
  64:USBLIB/Core/Src/usbd_ctlreq.c **** /** @defgroup USBD_REQ_Private_Variables
  65:USBLIB/Core/Src/usbd_ctlreq.c ****   * @{
  66:USBLIB/Core/Src/usbd_ctlreq.c ****   */
  67:USBLIB/Core/Src/usbd_ctlreq.c **** 
  68:USBLIB/Core/Src/usbd_ctlreq.c **** /**
  69:USBLIB/Core/Src/usbd_ctlreq.c ****   * @}
  70:USBLIB/Core/Src/usbd_ctlreq.c ****   */
  71:USBLIB/Core/Src/usbd_ctlreq.c **** 
  72:USBLIB/Core/Src/usbd_ctlreq.c **** 
  73:USBLIB/Core/Src/usbd_ctlreq.c **** /** @defgroup USBD_REQ_Private_FunctionPrototypes
  74:USBLIB/Core/Src/usbd_ctlreq.c ****   * @{
  75:USBLIB/Core/Src/usbd_ctlreq.c ****   */
  76:USBLIB/Core/Src/usbd_ctlreq.c **** static void USBD_GetDescriptor(USBD_HandleTypeDef *pdev, USBD_SetupReqTypedef *req);
  77:USBLIB/Core/Src/usbd_ctlreq.c **** static void USBD_SetAddress(USBD_HandleTypeDef *pdev, USBD_SetupReqTypedef *req);
  78:USBLIB/Core/Src/usbd_ctlreq.c **** static USBD_StatusTypeDef USBD_SetConfig(USBD_HandleTypeDef *pdev, USBD_SetupReqTypedef *req);
  79:USBLIB/Core/Src/usbd_ctlreq.c **** static void USBD_GetConfig(USBD_HandleTypeDef *pdev, USBD_SetupReqTypedef *req);
  80:USBLIB/Core/Src/usbd_ctlreq.c **** static void USBD_GetStatus(USBD_HandleTypeDef *pdev, USBD_SetupReqTypedef *req);
  81:USBLIB/Core/Src/usbd_ctlreq.c **** static void USBD_SetFeature(USBD_HandleTypeDef *pdev, USBD_SetupReqTypedef *req);
  82:USBLIB/Core/Src/usbd_ctlreq.c **** static void USBD_ClrFeature(USBD_HandleTypeDef *pdev, USBD_SetupReqTypedef *req);
  83:USBLIB/Core/Src/usbd_ctlreq.c **** static uint8_t USBD_GetLen(uint8_t *buf);
  84:USBLIB/Core/Src/usbd_ctlreq.c **** 
  85:USBLIB/Core/Src/usbd_ctlreq.c **** /**
  86:USBLIB/Core/Src/usbd_ctlreq.c ****   * @}
  87:USBLIB/Core/Src/usbd_ctlreq.c ****   */
ARM GAS  C:\Users\Jim_YW\AppData\Local\Temp\ccPBemKn.s 			page 3


  88:USBLIB/Core/Src/usbd_ctlreq.c **** 
  89:USBLIB/Core/Src/usbd_ctlreq.c **** 
  90:USBLIB/Core/Src/usbd_ctlreq.c **** /** @defgroup USBD_REQ_Private_Functions
  91:USBLIB/Core/Src/usbd_ctlreq.c ****   * @{
  92:USBLIB/Core/Src/usbd_ctlreq.c ****   */
  93:USBLIB/Core/Src/usbd_ctlreq.c **** 
  94:USBLIB/Core/Src/usbd_ctlreq.c **** 
  95:USBLIB/Core/Src/usbd_ctlreq.c **** /**
  96:USBLIB/Core/Src/usbd_ctlreq.c ****   * @brief  USBD_StdDevReq
  97:USBLIB/Core/Src/usbd_ctlreq.c ****   *         Handle standard usb device requests
  98:USBLIB/Core/Src/usbd_ctlreq.c ****   * @param  pdev: device instance
  99:USBLIB/Core/Src/usbd_ctlreq.c ****   * @param  req: usb request
 100:USBLIB/Core/Src/usbd_ctlreq.c ****   * @retval status
 101:USBLIB/Core/Src/usbd_ctlreq.c ****   */
 102:USBLIB/Core/Src/usbd_ctlreq.c **** USBD_StatusTypeDef USBD_StdDevReq(USBD_HandleTypeDef *pdev, USBD_SetupReqTypedef *req)
 103:USBLIB/Core/Src/usbd_ctlreq.c **** {
 104:USBLIB/Core/Src/usbd_ctlreq.c ****   USBD_StatusTypeDef ret = USBD_OK;
 105:USBLIB/Core/Src/usbd_ctlreq.c **** 
 106:USBLIB/Core/Src/usbd_ctlreq.c ****   switch (req->bmRequest & USB_REQ_TYPE_MASK)
 107:USBLIB/Core/Src/usbd_ctlreq.c ****   {
 108:USBLIB/Core/Src/usbd_ctlreq.c ****     case USB_REQ_TYPE_CLASS:
 109:USBLIB/Core/Src/usbd_ctlreq.c ****     case USB_REQ_TYPE_VENDOR:
 110:USBLIB/Core/Src/usbd_ctlreq.c ****       ret = (USBD_StatusTypeDef)pdev->pClass[pdev->classId]->Setup(pdev, req);
 111:USBLIB/Core/Src/usbd_ctlreq.c ****       break;
 112:USBLIB/Core/Src/usbd_ctlreq.c **** 
 113:USBLIB/Core/Src/usbd_ctlreq.c ****     case USB_REQ_TYPE_STANDARD:
 114:USBLIB/Core/Src/usbd_ctlreq.c ****       switch (req->bRequest)
 115:USBLIB/Core/Src/usbd_ctlreq.c ****       {
 116:USBLIB/Core/Src/usbd_ctlreq.c ****         case USB_REQ_GET_DESCRIPTOR:
 117:USBLIB/Core/Src/usbd_ctlreq.c ****           USBD_GetDescriptor(pdev, req);
 118:USBLIB/Core/Src/usbd_ctlreq.c ****           break;
 119:USBLIB/Core/Src/usbd_ctlreq.c **** 
 120:USBLIB/Core/Src/usbd_ctlreq.c ****         case USB_REQ_SET_ADDRESS:
 121:USBLIB/Core/Src/usbd_ctlreq.c ****           USBD_SetAddress(pdev, req);
 122:USBLIB/Core/Src/usbd_ctlreq.c ****           break;
 123:USBLIB/Core/Src/usbd_ctlreq.c **** 
 124:USBLIB/Core/Src/usbd_ctlreq.c ****         case USB_REQ_SET_CONFIGURATION:
 125:USBLIB/Core/Src/usbd_ctlreq.c ****           ret = USBD_SetConfig(pdev, req);
 126:USBLIB/Core/Src/usbd_ctlreq.c ****           break;
 127:USBLIB/Core/Src/usbd_ctlreq.c **** 
 128:USBLIB/Core/Src/usbd_ctlreq.c ****         case USB_REQ_GET_CONFIGURATION:
 129:USBLIB/Core/Src/usbd_ctlreq.c ****           USBD_GetConfig(pdev, req);
 130:USBLIB/Core/Src/usbd_ctlreq.c ****           break;
 131:USBLIB/Core/Src/usbd_ctlreq.c **** 
 132:USBLIB/Core/Src/usbd_ctlreq.c ****         case USB_REQ_GET_STATUS:
 133:USBLIB/Core/Src/usbd_ctlreq.c ****           USBD_GetStatus(pdev, req);
 134:USBLIB/Core/Src/usbd_ctlreq.c ****           break;
 135:USBLIB/Core/Src/usbd_ctlreq.c **** 
 136:USBLIB/Core/Src/usbd_ctlreq.c ****         case USB_REQ_SET_FEATURE:
 137:USBLIB/Core/Src/usbd_ctlreq.c ****           USBD_SetFeature(pdev, req);
 138:USBLIB/Core/Src/usbd_ctlreq.c ****           break;
 139:USBLIB/Core/Src/usbd_ctlreq.c **** 
 140:USBLIB/Core/Src/usbd_ctlreq.c ****         case USB_REQ_CLEAR_FEATURE:
 141:USBLIB/Core/Src/usbd_ctlreq.c ****           USBD_ClrFeature(pdev, req);
 142:USBLIB/Core/Src/usbd_ctlreq.c ****           break;
 143:USBLIB/Core/Src/usbd_ctlreq.c **** 
 144:USBLIB/Core/Src/usbd_ctlreq.c ****         default:
ARM GAS  C:\Users\Jim_YW\AppData\Local\Temp\ccPBemKn.s 			page 4


 145:USBLIB/Core/Src/usbd_ctlreq.c ****           USBD_CtlError(pdev, req);
 146:USBLIB/Core/Src/usbd_ctlreq.c ****           break;
 147:USBLIB/Core/Src/usbd_ctlreq.c ****       }
 148:USBLIB/Core/Src/usbd_ctlreq.c ****       break;
 149:USBLIB/Core/Src/usbd_ctlreq.c **** 
 150:USBLIB/Core/Src/usbd_ctlreq.c ****     default:
 151:USBLIB/Core/Src/usbd_ctlreq.c ****       USBD_CtlError(pdev, req);
 152:USBLIB/Core/Src/usbd_ctlreq.c ****       break;
 153:USBLIB/Core/Src/usbd_ctlreq.c ****   }
 154:USBLIB/Core/Src/usbd_ctlreq.c **** 
 155:USBLIB/Core/Src/usbd_ctlreq.c ****   return ret;
 156:USBLIB/Core/Src/usbd_ctlreq.c **** }
 157:USBLIB/Core/Src/usbd_ctlreq.c **** 
 158:USBLIB/Core/Src/usbd_ctlreq.c **** /**
 159:USBLIB/Core/Src/usbd_ctlreq.c ****   * @brief  USBD_StdItfReq
 160:USBLIB/Core/Src/usbd_ctlreq.c ****   *         Handle standard usb interface requests
 161:USBLIB/Core/Src/usbd_ctlreq.c ****   * @param  pdev: device instance
 162:USBLIB/Core/Src/usbd_ctlreq.c ****   * @param  req: usb request
 163:USBLIB/Core/Src/usbd_ctlreq.c ****   * @retval status
 164:USBLIB/Core/Src/usbd_ctlreq.c ****   */
 165:USBLIB/Core/Src/usbd_ctlreq.c **** USBD_StatusTypeDef USBD_StdItfReq(USBD_HandleTypeDef *pdev, USBD_SetupReqTypedef *req)
 166:USBLIB/Core/Src/usbd_ctlreq.c **** {
 167:USBLIB/Core/Src/usbd_ctlreq.c ****   USBD_StatusTypeDef ret = USBD_OK;
 168:USBLIB/Core/Src/usbd_ctlreq.c ****   uint8_t idx;
 169:USBLIB/Core/Src/usbd_ctlreq.c **** 
 170:USBLIB/Core/Src/usbd_ctlreq.c ****   switch (req->bmRequest & USB_REQ_TYPE_MASK)
 171:USBLIB/Core/Src/usbd_ctlreq.c ****   {
 172:USBLIB/Core/Src/usbd_ctlreq.c ****     case USB_REQ_TYPE_CLASS:
 173:USBLIB/Core/Src/usbd_ctlreq.c ****     case USB_REQ_TYPE_VENDOR:
 174:USBLIB/Core/Src/usbd_ctlreq.c ****     case USB_REQ_TYPE_STANDARD:
 175:USBLIB/Core/Src/usbd_ctlreq.c ****       switch (pdev->dev_state)
 176:USBLIB/Core/Src/usbd_ctlreq.c ****       {
 177:USBLIB/Core/Src/usbd_ctlreq.c ****         case USBD_STATE_DEFAULT:
 178:USBLIB/Core/Src/usbd_ctlreq.c ****         case USBD_STATE_ADDRESSED:
 179:USBLIB/Core/Src/usbd_ctlreq.c ****         case USBD_STATE_CONFIGURED:
 180:USBLIB/Core/Src/usbd_ctlreq.c **** 
 181:USBLIB/Core/Src/usbd_ctlreq.c ****           if (LOBYTE(req->wIndex) <= USBD_MAX_NUM_INTERFACES)
 182:USBLIB/Core/Src/usbd_ctlreq.c ****           {
 183:USBLIB/Core/Src/usbd_ctlreq.c ****             /* Get the class index relative to this interface */
 184:USBLIB/Core/Src/usbd_ctlreq.c ****             idx = USBD_CoreFindIF(pdev, LOBYTE(req->wIndex));
 185:USBLIB/Core/Src/usbd_ctlreq.c ****             if (((uint8_t)idx != 0xFFU) && (idx < USBD_MAX_SUPPORTED_CLASS))
 186:USBLIB/Core/Src/usbd_ctlreq.c ****             {
 187:USBLIB/Core/Src/usbd_ctlreq.c ****               /* Call the class data out function to manage the request */
 188:USBLIB/Core/Src/usbd_ctlreq.c ****               if (pdev->pClass[idx]->Setup != NULL)
 189:USBLIB/Core/Src/usbd_ctlreq.c ****               {
 190:USBLIB/Core/Src/usbd_ctlreq.c ****                 pdev->classId = idx;
 191:USBLIB/Core/Src/usbd_ctlreq.c ****                 ret = (USBD_StatusTypeDef)(pdev->pClass[idx]->Setup(pdev, req));
 192:USBLIB/Core/Src/usbd_ctlreq.c ****               }
 193:USBLIB/Core/Src/usbd_ctlreq.c ****               else
 194:USBLIB/Core/Src/usbd_ctlreq.c ****               {
 195:USBLIB/Core/Src/usbd_ctlreq.c ****                 /* should never reach this condition */
 196:USBLIB/Core/Src/usbd_ctlreq.c ****                 ret = USBD_FAIL;
 197:USBLIB/Core/Src/usbd_ctlreq.c ****               }
 198:USBLIB/Core/Src/usbd_ctlreq.c ****             }
 199:USBLIB/Core/Src/usbd_ctlreq.c ****             else
 200:USBLIB/Core/Src/usbd_ctlreq.c ****             {
 201:USBLIB/Core/Src/usbd_ctlreq.c ****               /* No relative interface found */
ARM GAS  C:\Users\Jim_YW\AppData\Local\Temp\ccPBemKn.s 			page 5


 202:USBLIB/Core/Src/usbd_ctlreq.c ****               ret = USBD_FAIL;
 203:USBLIB/Core/Src/usbd_ctlreq.c ****             }
 204:USBLIB/Core/Src/usbd_ctlreq.c **** 
 205:USBLIB/Core/Src/usbd_ctlreq.c ****             if ((req->wLength == 0U) && (ret == USBD_OK))
 206:USBLIB/Core/Src/usbd_ctlreq.c ****             {
 207:USBLIB/Core/Src/usbd_ctlreq.c ****               (void)USBD_CtlSendStatus(pdev);
 208:USBLIB/Core/Src/usbd_ctlreq.c ****             }
 209:USBLIB/Core/Src/usbd_ctlreq.c ****           }
 210:USBLIB/Core/Src/usbd_ctlreq.c ****           else
 211:USBLIB/Core/Src/usbd_ctlreq.c ****           {
 212:USBLIB/Core/Src/usbd_ctlreq.c ****             USBD_CtlError(pdev, req);
 213:USBLIB/Core/Src/usbd_ctlreq.c ****           }
 214:USBLIB/Core/Src/usbd_ctlreq.c ****           break;
 215:USBLIB/Core/Src/usbd_ctlreq.c **** 
 216:USBLIB/Core/Src/usbd_ctlreq.c ****         default:
 217:USBLIB/Core/Src/usbd_ctlreq.c ****           USBD_CtlError(pdev, req);
 218:USBLIB/Core/Src/usbd_ctlreq.c ****           break;
 219:USBLIB/Core/Src/usbd_ctlreq.c ****       }
 220:USBLIB/Core/Src/usbd_ctlreq.c ****       break;
 221:USBLIB/Core/Src/usbd_ctlreq.c **** 
 222:USBLIB/Core/Src/usbd_ctlreq.c ****     default:
 223:USBLIB/Core/Src/usbd_ctlreq.c ****       USBD_CtlError(pdev, req);
 224:USBLIB/Core/Src/usbd_ctlreq.c ****       break;
 225:USBLIB/Core/Src/usbd_ctlreq.c ****   }
 226:USBLIB/Core/Src/usbd_ctlreq.c **** 
 227:USBLIB/Core/Src/usbd_ctlreq.c ****   return ret;
 228:USBLIB/Core/Src/usbd_ctlreq.c **** }
 229:USBLIB/Core/Src/usbd_ctlreq.c **** 
 230:USBLIB/Core/Src/usbd_ctlreq.c **** /**
 231:USBLIB/Core/Src/usbd_ctlreq.c ****   * @brief  USBD_StdEPReq
 232:USBLIB/Core/Src/usbd_ctlreq.c ****   *         Handle standard usb endpoint requests
 233:USBLIB/Core/Src/usbd_ctlreq.c ****   * @param  pdev: device instance
 234:USBLIB/Core/Src/usbd_ctlreq.c ****   * @param  req: usb request
 235:USBLIB/Core/Src/usbd_ctlreq.c ****   * @retval status
 236:USBLIB/Core/Src/usbd_ctlreq.c ****   */
 237:USBLIB/Core/Src/usbd_ctlreq.c **** USBD_StatusTypeDef USBD_StdEPReq(USBD_HandleTypeDef *pdev, USBD_SetupReqTypedef *req)
 238:USBLIB/Core/Src/usbd_ctlreq.c **** {
 239:USBLIB/Core/Src/usbd_ctlreq.c ****   USBD_EndpointTypeDef *pep;
 240:USBLIB/Core/Src/usbd_ctlreq.c ****   uint8_t ep_addr;
 241:USBLIB/Core/Src/usbd_ctlreq.c ****   uint8_t idx;
 242:USBLIB/Core/Src/usbd_ctlreq.c ****   USBD_StatusTypeDef ret = USBD_OK;
 243:USBLIB/Core/Src/usbd_ctlreq.c **** 
 244:USBLIB/Core/Src/usbd_ctlreq.c ****   ep_addr = LOBYTE(req->wIndex);
 245:USBLIB/Core/Src/usbd_ctlreq.c **** 
 246:USBLIB/Core/Src/usbd_ctlreq.c ****   switch (req->bmRequest & USB_REQ_TYPE_MASK)
 247:USBLIB/Core/Src/usbd_ctlreq.c ****   {
 248:USBLIB/Core/Src/usbd_ctlreq.c ****     case USB_REQ_TYPE_CLASS:
 249:USBLIB/Core/Src/usbd_ctlreq.c ****     case USB_REQ_TYPE_VENDOR:
 250:USBLIB/Core/Src/usbd_ctlreq.c ****       /* Get the class index relative to this endpoint */
 251:USBLIB/Core/Src/usbd_ctlreq.c ****       idx = USBD_CoreFindEP(pdev, ep_addr);
 252:USBLIB/Core/Src/usbd_ctlreq.c ****       if (((uint8_t)idx != 0xFFU) && (idx < USBD_MAX_SUPPORTED_CLASS))
 253:USBLIB/Core/Src/usbd_ctlreq.c ****       {
 254:USBLIB/Core/Src/usbd_ctlreq.c ****         pdev->classId = idx;
 255:USBLIB/Core/Src/usbd_ctlreq.c ****         /* Call the class data out function to manage the request */
 256:USBLIB/Core/Src/usbd_ctlreq.c ****         if (pdev->pClass[idx]->Setup != NULL)
 257:USBLIB/Core/Src/usbd_ctlreq.c ****         {
 258:USBLIB/Core/Src/usbd_ctlreq.c ****           ret = (USBD_StatusTypeDef)pdev->pClass[idx]->Setup(pdev, req);
ARM GAS  C:\Users\Jim_YW\AppData\Local\Temp\ccPBemKn.s 			page 6


 259:USBLIB/Core/Src/usbd_ctlreq.c ****         }
 260:USBLIB/Core/Src/usbd_ctlreq.c ****       }
 261:USBLIB/Core/Src/usbd_ctlreq.c ****       break;
 262:USBLIB/Core/Src/usbd_ctlreq.c **** 
 263:USBLIB/Core/Src/usbd_ctlreq.c ****     case USB_REQ_TYPE_STANDARD:
 264:USBLIB/Core/Src/usbd_ctlreq.c ****       switch (req->bRequest)
 265:USBLIB/Core/Src/usbd_ctlreq.c ****       {
 266:USBLIB/Core/Src/usbd_ctlreq.c ****         case USB_REQ_SET_FEATURE:
 267:USBLIB/Core/Src/usbd_ctlreq.c ****           switch (pdev->dev_state)
 268:USBLIB/Core/Src/usbd_ctlreq.c ****           {
 269:USBLIB/Core/Src/usbd_ctlreq.c ****             case USBD_STATE_ADDRESSED:
 270:USBLIB/Core/Src/usbd_ctlreq.c ****               if ((ep_addr != 0x00U) && (ep_addr != 0x80U))
 271:USBLIB/Core/Src/usbd_ctlreq.c ****               {
 272:USBLIB/Core/Src/usbd_ctlreq.c ****                 (void)USBD_LL_StallEP(pdev, ep_addr);
 273:USBLIB/Core/Src/usbd_ctlreq.c ****                 (void)USBD_LL_StallEP(pdev, 0x80U);
 274:USBLIB/Core/Src/usbd_ctlreq.c ****               }
 275:USBLIB/Core/Src/usbd_ctlreq.c ****               else
 276:USBLIB/Core/Src/usbd_ctlreq.c ****               {
 277:USBLIB/Core/Src/usbd_ctlreq.c ****                 USBD_CtlError(pdev, req);
 278:USBLIB/Core/Src/usbd_ctlreq.c ****               }
 279:USBLIB/Core/Src/usbd_ctlreq.c ****               break;
 280:USBLIB/Core/Src/usbd_ctlreq.c **** 
 281:USBLIB/Core/Src/usbd_ctlreq.c ****             case USBD_STATE_CONFIGURED:
 282:USBLIB/Core/Src/usbd_ctlreq.c ****               if (req->wValue == USB_FEATURE_EP_HALT)
 283:USBLIB/Core/Src/usbd_ctlreq.c ****               {
 284:USBLIB/Core/Src/usbd_ctlreq.c ****                 if ((ep_addr != 0x00U) && (ep_addr != 0x80U) && (req->wLength == 0x00U))
 285:USBLIB/Core/Src/usbd_ctlreq.c ****                 {
 286:USBLIB/Core/Src/usbd_ctlreq.c ****                   (void)USBD_LL_StallEP(pdev, ep_addr);
 287:USBLIB/Core/Src/usbd_ctlreq.c ****                 }
 288:USBLIB/Core/Src/usbd_ctlreq.c ****               }
 289:USBLIB/Core/Src/usbd_ctlreq.c ****               (void)USBD_CtlSendStatus(pdev);
 290:USBLIB/Core/Src/usbd_ctlreq.c **** 
 291:USBLIB/Core/Src/usbd_ctlreq.c ****               break;
 292:USBLIB/Core/Src/usbd_ctlreq.c **** 
 293:USBLIB/Core/Src/usbd_ctlreq.c ****             default:
 294:USBLIB/Core/Src/usbd_ctlreq.c ****               USBD_CtlError(pdev, req);
 295:USBLIB/Core/Src/usbd_ctlreq.c ****               break;
 296:USBLIB/Core/Src/usbd_ctlreq.c ****           }
 297:USBLIB/Core/Src/usbd_ctlreq.c ****           break;
 298:USBLIB/Core/Src/usbd_ctlreq.c **** 
 299:USBLIB/Core/Src/usbd_ctlreq.c ****         case USB_REQ_CLEAR_FEATURE:
 300:USBLIB/Core/Src/usbd_ctlreq.c **** 
 301:USBLIB/Core/Src/usbd_ctlreq.c ****           switch (pdev->dev_state)
 302:USBLIB/Core/Src/usbd_ctlreq.c ****           {
 303:USBLIB/Core/Src/usbd_ctlreq.c ****             case USBD_STATE_ADDRESSED:
 304:USBLIB/Core/Src/usbd_ctlreq.c ****               if ((ep_addr != 0x00U) && (ep_addr != 0x80U))
 305:USBLIB/Core/Src/usbd_ctlreq.c ****               {
 306:USBLIB/Core/Src/usbd_ctlreq.c ****                 (void)USBD_LL_StallEP(pdev, ep_addr);
 307:USBLIB/Core/Src/usbd_ctlreq.c ****                 (void)USBD_LL_StallEP(pdev, 0x80U);
 308:USBLIB/Core/Src/usbd_ctlreq.c ****               }
 309:USBLIB/Core/Src/usbd_ctlreq.c ****               else
 310:USBLIB/Core/Src/usbd_ctlreq.c ****               {
 311:USBLIB/Core/Src/usbd_ctlreq.c ****                 USBD_CtlError(pdev, req);
 312:USBLIB/Core/Src/usbd_ctlreq.c ****               }
 313:USBLIB/Core/Src/usbd_ctlreq.c ****               break;
 314:USBLIB/Core/Src/usbd_ctlreq.c **** 
 315:USBLIB/Core/Src/usbd_ctlreq.c ****             case USBD_STATE_CONFIGURED:
ARM GAS  C:\Users\Jim_YW\AppData\Local\Temp\ccPBemKn.s 			page 7


 316:USBLIB/Core/Src/usbd_ctlreq.c ****               if (req->wValue == USB_FEATURE_EP_HALT)
 317:USBLIB/Core/Src/usbd_ctlreq.c ****               {
 318:USBLIB/Core/Src/usbd_ctlreq.c ****                 if ((ep_addr & 0x7FU) != 0x00U)
 319:USBLIB/Core/Src/usbd_ctlreq.c ****                 {
 320:USBLIB/Core/Src/usbd_ctlreq.c ****                   (void)USBD_LL_ClearStallEP(pdev, ep_addr);
 321:USBLIB/Core/Src/usbd_ctlreq.c ****                 }
 322:USBLIB/Core/Src/usbd_ctlreq.c ****                 (void)USBD_CtlSendStatus(pdev);
 323:USBLIB/Core/Src/usbd_ctlreq.c **** 
 324:USBLIB/Core/Src/usbd_ctlreq.c ****                 /* Get the class index relative to this interface */
 325:USBLIB/Core/Src/usbd_ctlreq.c ****                 idx = USBD_CoreFindEP(pdev, ep_addr);
 326:USBLIB/Core/Src/usbd_ctlreq.c ****                 if (((uint8_t)idx != 0xFFU) && (idx < USBD_MAX_SUPPORTED_CLASS))
 327:USBLIB/Core/Src/usbd_ctlreq.c ****                 {
 328:USBLIB/Core/Src/usbd_ctlreq.c ****                   pdev->classId = idx;
 329:USBLIB/Core/Src/usbd_ctlreq.c ****                   /* Call the class data out function to manage the request */
 330:USBLIB/Core/Src/usbd_ctlreq.c ****                   if (pdev->pClass[idx]->Setup != NULL)
 331:USBLIB/Core/Src/usbd_ctlreq.c ****                   {
 332:USBLIB/Core/Src/usbd_ctlreq.c ****                     ret = (USBD_StatusTypeDef)(pdev->pClass[idx]->Setup(pdev, req));
 333:USBLIB/Core/Src/usbd_ctlreq.c ****                   }
 334:USBLIB/Core/Src/usbd_ctlreq.c ****                 }
 335:USBLIB/Core/Src/usbd_ctlreq.c ****               }
 336:USBLIB/Core/Src/usbd_ctlreq.c ****               break;
 337:USBLIB/Core/Src/usbd_ctlreq.c **** 
 338:USBLIB/Core/Src/usbd_ctlreq.c ****             default:
 339:USBLIB/Core/Src/usbd_ctlreq.c ****               USBD_CtlError(pdev, req);
 340:USBLIB/Core/Src/usbd_ctlreq.c ****               break;
 341:USBLIB/Core/Src/usbd_ctlreq.c ****           }
 342:USBLIB/Core/Src/usbd_ctlreq.c ****           break;
 343:USBLIB/Core/Src/usbd_ctlreq.c **** 
 344:USBLIB/Core/Src/usbd_ctlreq.c ****         case USB_REQ_GET_STATUS:
 345:USBLIB/Core/Src/usbd_ctlreq.c ****           switch (pdev->dev_state)
 346:USBLIB/Core/Src/usbd_ctlreq.c ****           {
 347:USBLIB/Core/Src/usbd_ctlreq.c ****             case USBD_STATE_ADDRESSED:
 348:USBLIB/Core/Src/usbd_ctlreq.c ****               if ((ep_addr != 0x00U) && (ep_addr != 0x80U))
 349:USBLIB/Core/Src/usbd_ctlreq.c ****               {
 350:USBLIB/Core/Src/usbd_ctlreq.c ****                 USBD_CtlError(pdev, req);
 351:USBLIB/Core/Src/usbd_ctlreq.c ****                 break;
 352:USBLIB/Core/Src/usbd_ctlreq.c ****               }
 353:USBLIB/Core/Src/usbd_ctlreq.c ****               pep = ((ep_addr & 0x80U) == 0x80U) ? &pdev->ep_in[ep_addr & 0x7FU] : \
 354:USBLIB/Core/Src/usbd_ctlreq.c ****                     &pdev->ep_out[ep_addr & 0x7FU];
 355:USBLIB/Core/Src/usbd_ctlreq.c **** 
 356:USBLIB/Core/Src/usbd_ctlreq.c ****               pep->status = 0x0000U;
 357:USBLIB/Core/Src/usbd_ctlreq.c **** 
 358:USBLIB/Core/Src/usbd_ctlreq.c ****               (void)USBD_CtlSendData(pdev, (uint8_t *)&pep->status, 2U);
 359:USBLIB/Core/Src/usbd_ctlreq.c ****               break;
 360:USBLIB/Core/Src/usbd_ctlreq.c **** 
 361:USBLIB/Core/Src/usbd_ctlreq.c ****             case USBD_STATE_CONFIGURED:
 362:USBLIB/Core/Src/usbd_ctlreq.c ****               if ((ep_addr & 0x80U) == 0x80U)
 363:USBLIB/Core/Src/usbd_ctlreq.c ****               {
 364:USBLIB/Core/Src/usbd_ctlreq.c ****                 if (pdev->ep_in[ep_addr & 0xFU].is_used == 0U)
 365:USBLIB/Core/Src/usbd_ctlreq.c ****                 {
 366:USBLIB/Core/Src/usbd_ctlreq.c ****                   USBD_CtlError(pdev, req);
 367:USBLIB/Core/Src/usbd_ctlreq.c ****                   break;
 368:USBLIB/Core/Src/usbd_ctlreq.c ****                 }
 369:USBLIB/Core/Src/usbd_ctlreq.c ****               }
 370:USBLIB/Core/Src/usbd_ctlreq.c ****               else
 371:USBLIB/Core/Src/usbd_ctlreq.c ****               {
 372:USBLIB/Core/Src/usbd_ctlreq.c ****                 if (pdev->ep_out[ep_addr & 0xFU].is_used == 0U)
ARM GAS  C:\Users\Jim_YW\AppData\Local\Temp\ccPBemKn.s 			page 8


 373:USBLIB/Core/Src/usbd_ctlreq.c ****                 {
 374:USBLIB/Core/Src/usbd_ctlreq.c ****                   USBD_CtlError(pdev, req);
 375:USBLIB/Core/Src/usbd_ctlreq.c ****                   break;
 376:USBLIB/Core/Src/usbd_ctlreq.c ****                 }
 377:USBLIB/Core/Src/usbd_ctlreq.c ****               }
 378:USBLIB/Core/Src/usbd_ctlreq.c **** 
 379:USBLIB/Core/Src/usbd_ctlreq.c ****               pep = ((ep_addr & 0x80U) == 0x80U) ? &pdev->ep_in[ep_addr & 0x7FU] : \
 380:USBLIB/Core/Src/usbd_ctlreq.c ****                     &pdev->ep_out[ep_addr & 0x7FU];
 381:USBLIB/Core/Src/usbd_ctlreq.c **** 
 382:USBLIB/Core/Src/usbd_ctlreq.c ****               if ((ep_addr == 0x00U) || (ep_addr == 0x80U))
 383:USBLIB/Core/Src/usbd_ctlreq.c ****               {
 384:USBLIB/Core/Src/usbd_ctlreq.c ****                 pep->status = 0x0000U;
 385:USBLIB/Core/Src/usbd_ctlreq.c ****               }
 386:USBLIB/Core/Src/usbd_ctlreq.c ****               else if (USBD_LL_IsStallEP(pdev, ep_addr) != 0U)
 387:USBLIB/Core/Src/usbd_ctlreq.c ****               {
 388:USBLIB/Core/Src/usbd_ctlreq.c ****                 pep->status = 0x0001U;
 389:USBLIB/Core/Src/usbd_ctlreq.c ****               }
 390:USBLIB/Core/Src/usbd_ctlreq.c ****               else
 391:USBLIB/Core/Src/usbd_ctlreq.c ****               {
 392:USBLIB/Core/Src/usbd_ctlreq.c ****                 pep->status = 0x0000U;
 393:USBLIB/Core/Src/usbd_ctlreq.c ****               }
 394:USBLIB/Core/Src/usbd_ctlreq.c **** 
 395:USBLIB/Core/Src/usbd_ctlreq.c ****               (void)USBD_CtlSendData(pdev, (uint8_t *)&pep->status, 2U);
 396:USBLIB/Core/Src/usbd_ctlreq.c ****               break;
 397:USBLIB/Core/Src/usbd_ctlreq.c **** 
 398:USBLIB/Core/Src/usbd_ctlreq.c ****             default:
 399:USBLIB/Core/Src/usbd_ctlreq.c ****               USBD_CtlError(pdev, req);
 400:USBLIB/Core/Src/usbd_ctlreq.c ****               break;
 401:USBLIB/Core/Src/usbd_ctlreq.c ****           }
 402:USBLIB/Core/Src/usbd_ctlreq.c ****           break;
 403:USBLIB/Core/Src/usbd_ctlreq.c **** 
 404:USBLIB/Core/Src/usbd_ctlreq.c ****         default:
 405:USBLIB/Core/Src/usbd_ctlreq.c ****           USBD_CtlError(pdev, req);
 406:USBLIB/Core/Src/usbd_ctlreq.c ****           break;
 407:USBLIB/Core/Src/usbd_ctlreq.c ****       }
 408:USBLIB/Core/Src/usbd_ctlreq.c ****       break;
 409:USBLIB/Core/Src/usbd_ctlreq.c **** 
 410:USBLIB/Core/Src/usbd_ctlreq.c ****     default:
 411:USBLIB/Core/Src/usbd_ctlreq.c ****       USBD_CtlError(pdev, req);
 412:USBLIB/Core/Src/usbd_ctlreq.c ****       break;
 413:USBLIB/Core/Src/usbd_ctlreq.c ****   }
 414:USBLIB/Core/Src/usbd_ctlreq.c **** 
 415:USBLIB/Core/Src/usbd_ctlreq.c ****   return ret;
 416:USBLIB/Core/Src/usbd_ctlreq.c **** }
 417:USBLIB/Core/Src/usbd_ctlreq.c **** 
 418:USBLIB/Core/Src/usbd_ctlreq.c **** 
 419:USBLIB/Core/Src/usbd_ctlreq.c **** /**
 420:USBLIB/Core/Src/usbd_ctlreq.c ****   * @brief  USBD_GetDescriptor
 421:USBLIB/Core/Src/usbd_ctlreq.c ****   *         Handle Get Descriptor requests
 422:USBLIB/Core/Src/usbd_ctlreq.c ****   * @param  pdev: device instance
 423:USBLIB/Core/Src/usbd_ctlreq.c ****   * @param  req: usb request
 424:USBLIB/Core/Src/usbd_ctlreq.c ****   * @retval status
 425:USBLIB/Core/Src/usbd_ctlreq.c ****   */
 426:USBLIB/Core/Src/usbd_ctlreq.c **** static void USBD_GetDescriptor(USBD_HandleTypeDef *pdev, USBD_SetupReqTypedef *req)
 427:USBLIB/Core/Src/usbd_ctlreq.c **** {
 428:USBLIB/Core/Src/usbd_ctlreq.c ****   uint16_t len = 0U;
 429:USBLIB/Core/Src/usbd_ctlreq.c ****   uint8_t *pbuf = NULL;
ARM GAS  C:\Users\Jim_YW\AppData\Local\Temp\ccPBemKn.s 			page 9


 430:USBLIB/Core/Src/usbd_ctlreq.c ****   uint8_t err = 0U;
 431:USBLIB/Core/Src/usbd_ctlreq.c **** 
 432:USBLIB/Core/Src/usbd_ctlreq.c ****   switch (req->wValue >> 8)
 433:USBLIB/Core/Src/usbd_ctlreq.c ****   {
 434:USBLIB/Core/Src/usbd_ctlreq.c **** #if ((USBD_LPM_ENABLED == 1U) || (USBD_CLASS_BOS_ENABLED == 1U))
 435:USBLIB/Core/Src/usbd_ctlreq.c ****     case USB_DESC_TYPE_BOS:
 436:USBLIB/Core/Src/usbd_ctlreq.c ****       if (pdev->pDesc->GetBOSDescriptor != NULL)
 437:USBLIB/Core/Src/usbd_ctlreq.c ****       {
 438:USBLIB/Core/Src/usbd_ctlreq.c ****         pbuf = pdev->pDesc->GetBOSDescriptor(pdev->dev_speed, &len);
 439:USBLIB/Core/Src/usbd_ctlreq.c ****       }
 440:USBLIB/Core/Src/usbd_ctlreq.c ****       else
 441:USBLIB/Core/Src/usbd_ctlreq.c ****       {
 442:USBLIB/Core/Src/usbd_ctlreq.c ****         USBD_CtlError(pdev, req);
 443:USBLIB/Core/Src/usbd_ctlreq.c ****         err++;
 444:USBLIB/Core/Src/usbd_ctlreq.c ****       }
 445:USBLIB/Core/Src/usbd_ctlreq.c ****       break;
 446:USBLIB/Core/Src/usbd_ctlreq.c **** #endif /* (USBD_LPM_ENABLED == 1U) || (USBD_CLASS_BOS_ENABLED == 1U) */
 447:USBLIB/Core/Src/usbd_ctlreq.c ****     case USB_DESC_TYPE_DEVICE:
 448:USBLIB/Core/Src/usbd_ctlreq.c ****       pbuf = pdev->pDesc->GetDeviceDescriptor(pdev->dev_speed, &len);
 449:USBLIB/Core/Src/usbd_ctlreq.c ****       break;
 450:USBLIB/Core/Src/usbd_ctlreq.c **** 
 451:USBLIB/Core/Src/usbd_ctlreq.c ****     case USB_DESC_TYPE_CONFIGURATION:
 452:USBLIB/Core/Src/usbd_ctlreq.c ****       if (pdev->dev_speed == USBD_SPEED_HIGH)
 453:USBLIB/Core/Src/usbd_ctlreq.c ****       {
 454:USBLIB/Core/Src/usbd_ctlreq.c **** #ifdef USE_USBD_COMPOSITE
 455:USBLIB/Core/Src/usbd_ctlreq.c ****         if ((uint8_t)(pdev->NumClasses) > 0U)
 456:USBLIB/Core/Src/usbd_ctlreq.c ****         {
 457:USBLIB/Core/Src/usbd_ctlreq.c ****           pbuf   = (uint8_t *)USBD_CMPSIT.GetHSConfigDescriptor(&len);
 458:USBLIB/Core/Src/usbd_ctlreq.c ****         }
 459:USBLIB/Core/Src/usbd_ctlreq.c ****         else
 460:USBLIB/Core/Src/usbd_ctlreq.c **** #endif /* USE_USBD_COMPOSITE */
 461:USBLIB/Core/Src/usbd_ctlreq.c ****         {
 462:USBLIB/Core/Src/usbd_ctlreq.c ****           pbuf = (uint8_t *)pdev->pClass[0]->GetHSConfigDescriptor(&len);
 463:USBLIB/Core/Src/usbd_ctlreq.c ****         }
 464:USBLIB/Core/Src/usbd_ctlreq.c ****         pbuf[1] = USB_DESC_TYPE_CONFIGURATION;
 465:USBLIB/Core/Src/usbd_ctlreq.c ****       }
 466:USBLIB/Core/Src/usbd_ctlreq.c ****       else
 467:USBLIB/Core/Src/usbd_ctlreq.c ****       {
 468:USBLIB/Core/Src/usbd_ctlreq.c **** #ifdef USE_USBD_COMPOSITE
 469:USBLIB/Core/Src/usbd_ctlreq.c ****         if ((uint8_t)(pdev->NumClasses) > 0U)
 470:USBLIB/Core/Src/usbd_ctlreq.c ****         {
 471:USBLIB/Core/Src/usbd_ctlreq.c ****           pbuf   = (uint8_t *)USBD_CMPSIT.GetFSConfigDescriptor(&len);
 472:USBLIB/Core/Src/usbd_ctlreq.c ****         }
 473:USBLIB/Core/Src/usbd_ctlreq.c ****         else
 474:USBLIB/Core/Src/usbd_ctlreq.c **** #endif /* USE_USBD_COMPOSITE */
 475:USBLIB/Core/Src/usbd_ctlreq.c ****         {
 476:USBLIB/Core/Src/usbd_ctlreq.c ****           pbuf   = (uint8_t *)pdev->pClass[0]->GetFSConfigDescriptor(&len);
 477:USBLIB/Core/Src/usbd_ctlreq.c ****         }
 478:USBLIB/Core/Src/usbd_ctlreq.c ****         pbuf[1] = USB_DESC_TYPE_CONFIGURATION;
 479:USBLIB/Core/Src/usbd_ctlreq.c ****       }
 480:USBLIB/Core/Src/usbd_ctlreq.c ****       break;
 481:USBLIB/Core/Src/usbd_ctlreq.c **** 
 482:USBLIB/Core/Src/usbd_ctlreq.c ****     case USB_DESC_TYPE_STRING:
 483:USBLIB/Core/Src/usbd_ctlreq.c ****       switch ((uint8_t)(req->wValue))
 484:USBLIB/Core/Src/usbd_ctlreq.c ****       {
 485:USBLIB/Core/Src/usbd_ctlreq.c ****         case USBD_IDX_LANGID_STR:
 486:USBLIB/Core/Src/usbd_ctlreq.c ****           if (pdev->pDesc->GetLangIDStrDescriptor != NULL)
ARM GAS  C:\Users\Jim_YW\AppData\Local\Temp\ccPBemKn.s 			page 10


 487:USBLIB/Core/Src/usbd_ctlreq.c ****           {
 488:USBLIB/Core/Src/usbd_ctlreq.c ****             pbuf = pdev->pDesc->GetLangIDStrDescriptor(pdev->dev_speed, &len);
 489:USBLIB/Core/Src/usbd_ctlreq.c ****           }
 490:USBLIB/Core/Src/usbd_ctlreq.c ****           else
 491:USBLIB/Core/Src/usbd_ctlreq.c ****           {
 492:USBLIB/Core/Src/usbd_ctlreq.c ****             USBD_CtlError(pdev, req);
 493:USBLIB/Core/Src/usbd_ctlreq.c ****             err++;
 494:USBLIB/Core/Src/usbd_ctlreq.c ****           }
 495:USBLIB/Core/Src/usbd_ctlreq.c ****           break;
 496:USBLIB/Core/Src/usbd_ctlreq.c **** 
 497:USBLIB/Core/Src/usbd_ctlreq.c ****         case USBD_IDX_MFC_STR:
 498:USBLIB/Core/Src/usbd_ctlreq.c ****           if (pdev->pDesc->GetManufacturerStrDescriptor != NULL)
 499:USBLIB/Core/Src/usbd_ctlreq.c ****           {
 500:USBLIB/Core/Src/usbd_ctlreq.c ****             pbuf = pdev->pDesc->GetManufacturerStrDescriptor(pdev->dev_speed, &len);
 501:USBLIB/Core/Src/usbd_ctlreq.c ****           }
 502:USBLIB/Core/Src/usbd_ctlreq.c ****           else
 503:USBLIB/Core/Src/usbd_ctlreq.c ****           {
 504:USBLIB/Core/Src/usbd_ctlreq.c ****             USBD_CtlError(pdev, req);
 505:USBLIB/Core/Src/usbd_ctlreq.c ****             err++;
 506:USBLIB/Core/Src/usbd_ctlreq.c ****           }
 507:USBLIB/Core/Src/usbd_ctlreq.c ****           break;
 508:USBLIB/Core/Src/usbd_ctlreq.c **** 
 509:USBLIB/Core/Src/usbd_ctlreq.c ****         case USBD_IDX_PRODUCT_STR:
 510:USBLIB/Core/Src/usbd_ctlreq.c ****           if (pdev->pDesc->GetProductStrDescriptor != NULL)
 511:USBLIB/Core/Src/usbd_ctlreq.c ****           {
 512:USBLIB/Core/Src/usbd_ctlreq.c ****             pbuf = pdev->pDesc->GetProductStrDescriptor(pdev->dev_speed, &len);
 513:USBLIB/Core/Src/usbd_ctlreq.c ****           }
 514:USBLIB/Core/Src/usbd_ctlreq.c ****           else
 515:USBLIB/Core/Src/usbd_ctlreq.c ****           {
 516:USBLIB/Core/Src/usbd_ctlreq.c ****             USBD_CtlError(pdev, req);
 517:USBLIB/Core/Src/usbd_ctlreq.c ****             err++;
 518:USBLIB/Core/Src/usbd_ctlreq.c ****           }
 519:USBLIB/Core/Src/usbd_ctlreq.c ****           break;
 520:USBLIB/Core/Src/usbd_ctlreq.c **** 
 521:USBLIB/Core/Src/usbd_ctlreq.c ****         case USBD_IDX_SERIAL_STR:
 522:USBLIB/Core/Src/usbd_ctlreq.c ****           if (pdev->pDesc->GetSerialStrDescriptor != NULL)
 523:USBLIB/Core/Src/usbd_ctlreq.c ****           {
 524:USBLIB/Core/Src/usbd_ctlreq.c ****             pbuf = pdev->pDesc->GetSerialStrDescriptor(pdev->dev_speed, &len);
 525:USBLIB/Core/Src/usbd_ctlreq.c ****           }
 526:USBLIB/Core/Src/usbd_ctlreq.c ****           else
 527:USBLIB/Core/Src/usbd_ctlreq.c ****           {
 528:USBLIB/Core/Src/usbd_ctlreq.c ****             USBD_CtlError(pdev, req);
 529:USBLIB/Core/Src/usbd_ctlreq.c ****             err++;
 530:USBLIB/Core/Src/usbd_ctlreq.c ****           }
 531:USBLIB/Core/Src/usbd_ctlreq.c ****           break;
 532:USBLIB/Core/Src/usbd_ctlreq.c **** 
 533:USBLIB/Core/Src/usbd_ctlreq.c ****         case USBD_IDX_CONFIG_STR:
 534:USBLIB/Core/Src/usbd_ctlreq.c ****           if (pdev->pDesc->GetConfigurationStrDescriptor != NULL)
 535:USBLIB/Core/Src/usbd_ctlreq.c ****           {
 536:USBLIB/Core/Src/usbd_ctlreq.c ****             pbuf = pdev->pDesc->GetConfigurationStrDescriptor(pdev->dev_speed, &len);
 537:USBLIB/Core/Src/usbd_ctlreq.c ****           }
 538:USBLIB/Core/Src/usbd_ctlreq.c ****           else
 539:USBLIB/Core/Src/usbd_ctlreq.c ****           {
 540:USBLIB/Core/Src/usbd_ctlreq.c ****             USBD_CtlError(pdev, req);
 541:USBLIB/Core/Src/usbd_ctlreq.c ****             err++;
 542:USBLIB/Core/Src/usbd_ctlreq.c ****           }
 543:USBLIB/Core/Src/usbd_ctlreq.c ****           break;
ARM GAS  C:\Users\Jim_YW\AppData\Local\Temp\ccPBemKn.s 			page 11


 544:USBLIB/Core/Src/usbd_ctlreq.c **** 
 545:USBLIB/Core/Src/usbd_ctlreq.c ****         case USBD_IDX_INTERFACE_STR:
 546:USBLIB/Core/Src/usbd_ctlreq.c ****           if (pdev->pDesc->GetInterfaceStrDescriptor != NULL)
 547:USBLIB/Core/Src/usbd_ctlreq.c ****           {
 548:USBLIB/Core/Src/usbd_ctlreq.c ****             pbuf = pdev->pDesc->GetInterfaceStrDescriptor(pdev->dev_speed, &len);
 549:USBLIB/Core/Src/usbd_ctlreq.c ****           }
 550:USBLIB/Core/Src/usbd_ctlreq.c ****           else
 551:USBLIB/Core/Src/usbd_ctlreq.c ****           {
 552:USBLIB/Core/Src/usbd_ctlreq.c ****             USBD_CtlError(pdev, req);
 553:USBLIB/Core/Src/usbd_ctlreq.c ****             err++;
 554:USBLIB/Core/Src/usbd_ctlreq.c ****           }
 555:USBLIB/Core/Src/usbd_ctlreq.c ****           break;
 556:USBLIB/Core/Src/usbd_ctlreq.c **** 
 557:USBLIB/Core/Src/usbd_ctlreq.c ****         default:
 558:USBLIB/Core/Src/usbd_ctlreq.c **** #if (USBD_SUPPORT_USER_STRING_DESC == 1U)
 559:USBLIB/Core/Src/usbd_ctlreq.c ****           pbuf = NULL;
 560:USBLIB/Core/Src/usbd_ctlreq.c **** 
 561:USBLIB/Core/Src/usbd_ctlreq.c **** 
 562:USBLIB/Core/Src/usbd_ctlreq.c ****           for (uint32_t idx = 0U; (idx < pdev->NumClasses); idx++)
 563:USBLIB/Core/Src/usbd_ctlreq.c ****           {
 564:USBLIB/Core/Src/usbd_ctlreq.c ****             if (pdev->pClass[idx]->GetUsrStrDescriptor != NULL)
 565:USBLIB/Core/Src/usbd_ctlreq.c ****             {
 566:USBLIB/Core/Src/usbd_ctlreq.c ****               pdev->classId = idx;
 567:USBLIB/Core/Src/usbd_ctlreq.c ****               pbuf = pdev->pClass[idx]->GetUsrStrDescriptor(pdev, LOBYTE(req->wValue), &len);
 568:USBLIB/Core/Src/usbd_ctlreq.c **** 
 569:USBLIB/Core/Src/usbd_ctlreq.c ****               if (pbuf == NULL) /* This means that no class recognized the string index */
 570:USBLIB/Core/Src/usbd_ctlreq.c ****               {
 571:USBLIB/Core/Src/usbd_ctlreq.c ****                 continue;
 572:USBLIB/Core/Src/usbd_ctlreq.c ****               }
 573:USBLIB/Core/Src/usbd_ctlreq.c ****               else
 574:USBLIB/Core/Src/usbd_ctlreq.c ****               {
 575:USBLIB/Core/Src/usbd_ctlreq.c ****                 break;
 576:USBLIB/Core/Src/usbd_ctlreq.c ****               }
 577:USBLIB/Core/Src/usbd_ctlreq.c ****             }
 578:USBLIB/Core/Src/usbd_ctlreq.c ****           }
 579:USBLIB/Core/Src/usbd_ctlreq.c **** 
 580:USBLIB/Core/Src/usbd_ctlreq.c **** #endif /* USBD_SUPPORT_USER_STRING_DESC  */
 581:USBLIB/Core/Src/usbd_ctlreq.c **** 
 582:USBLIB/Core/Src/usbd_ctlreq.c **** #if (USBD_CLASS_USER_STRING_DESC == 1U)
 583:USBLIB/Core/Src/usbd_ctlreq.c ****           if (pdev->pDesc->GetUserStrDescriptor != NULL)
 584:USBLIB/Core/Src/usbd_ctlreq.c ****           {
 585:USBLIB/Core/Src/usbd_ctlreq.c ****             pbuf = pdev->pDesc->GetUserStrDescriptor(pdev->dev_speed, (req->wValue), &len);
 586:USBLIB/Core/Src/usbd_ctlreq.c ****           }
 587:USBLIB/Core/Src/usbd_ctlreq.c ****           else
 588:USBLIB/Core/Src/usbd_ctlreq.c ****           {
 589:USBLIB/Core/Src/usbd_ctlreq.c ****             USBD_CtlError(pdev, req);
 590:USBLIB/Core/Src/usbd_ctlreq.c ****             err++;
 591:USBLIB/Core/Src/usbd_ctlreq.c ****           }
 592:USBLIB/Core/Src/usbd_ctlreq.c **** #endif /* USBD_SUPPORT_USER_STRING_DESC  */
 593:USBLIB/Core/Src/usbd_ctlreq.c **** 
 594:USBLIB/Core/Src/usbd_ctlreq.c **** #if ((USBD_CLASS_USER_STRING_DESC == 0U) && (USBD_SUPPORT_USER_STRING_DESC == 0U))
 595:USBLIB/Core/Src/usbd_ctlreq.c ****           USBD_CtlError(pdev, req);
 596:USBLIB/Core/Src/usbd_ctlreq.c ****           err++;
 597:USBLIB/Core/Src/usbd_ctlreq.c **** #endif /* (USBD_CLASS_USER_STRING_DESC == 0U) && (USBD_SUPPORT_USER_STRING_DESC == 0U) */
 598:USBLIB/Core/Src/usbd_ctlreq.c ****           break;
 599:USBLIB/Core/Src/usbd_ctlreq.c ****       }
 600:USBLIB/Core/Src/usbd_ctlreq.c ****       break;
ARM GAS  C:\Users\Jim_YW\AppData\Local\Temp\ccPBemKn.s 			page 12


 601:USBLIB/Core/Src/usbd_ctlreq.c **** 
 602:USBLIB/Core/Src/usbd_ctlreq.c ****     case USB_DESC_TYPE_DEVICE_QUALIFIER:
 603:USBLIB/Core/Src/usbd_ctlreq.c ****       if (pdev->dev_speed == USBD_SPEED_HIGH)
 604:USBLIB/Core/Src/usbd_ctlreq.c ****       {
 605:USBLIB/Core/Src/usbd_ctlreq.c **** #ifdef USE_USBD_COMPOSITE
 606:USBLIB/Core/Src/usbd_ctlreq.c ****         if ((uint8_t)(pdev->NumClasses) > 0U)
 607:USBLIB/Core/Src/usbd_ctlreq.c ****         {
 608:USBLIB/Core/Src/usbd_ctlreq.c ****           pbuf = (uint8_t *)USBD_CMPSIT.GetDeviceQualifierDescriptor(&len);
 609:USBLIB/Core/Src/usbd_ctlreq.c ****         }
 610:USBLIB/Core/Src/usbd_ctlreq.c ****         else
 611:USBLIB/Core/Src/usbd_ctlreq.c **** #endif /* USE_USBD_COMPOSITE */
 612:USBLIB/Core/Src/usbd_ctlreq.c ****         {
 613:USBLIB/Core/Src/usbd_ctlreq.c ****           pbuf = (uint8_t *)pdev->pClass[0]->GetDeviceQualifierDescriptor(&len);
 614:USBLIB/Core/Src/usbd_ctlreq.c ****         }
 615:USBLIB/Core/Src/usbd_ctlreq.c ****       }
 616:USBLIB/Core/Src/usbd_ctlreq.c ****       else
 617:USBLIB/Core/Src/usbd_ctlreq.c ****       {
 618:USBLIB/Core/Src/usbd_ctlreq.c ****         USBD_CtlError(pdev, req);
 619:USBLIB/Core/Src/usbd_ctlreq.c ****         err++;
 620:USBLIB/Core/Src/usbd_ctlreq.c ****       }
 621:USBLIB/Core/Src/usbd_ctlreq.c ****       break;
 622:USBLIB/Core/Src/usbd_ctlreq.c **** 
 623:USBLIB/Core/Src/usbd_ctlreq.c ****     case USB_DESC_TYPE_OTHER_SPEED_CONFIGURATION:
 624:USBLIB/Core/Src/usbd_ctlreq.c ****       if (pdev->dev_speed == USBD_SPEED_HIGH)
 625:USBLIB/Core/Src/usbd_ctlreq.c ****       {
 626:USBLIB/Core/Src/usbd_ctlreq.c **** #ifdef USE_USBD_COMPOSITE
 627:USBLIB/Core/Src/usbd_ctlreq.c ****         if ((uint8_t)(pdev->NumClasses) > 0U)
 628:USBLIB/Core/Src/usbd_ctlreq.c ****         {
 629:USBLIB/Core/Src/usbd_ctlreq.c ****           pbuf = (uint8_t *)USBD_CMPSIT.GetOtherSpeedConfigDescriptor(&len);
 630:USBLIB/Core/Src/usbd_ctlreq.c ****         }
 631:USBLIB/Core/Src/usbd_ctlreq.c ****         else
 632:USBLIB/Core/Src/usbd_ctlreq.c **** #endif /* USE_USBD_COMPOSITE */
 633:USBLIB/Core/Src/usbd_ctlreq.c ****         {
 634:USBLIB/Core/Src/usbd_ctlreq.c ****           pbuf = (uint8_t *)pdev->pClass[0]->GetOtherSpeedConfigDescriptor(&len);
 635:USBLIB/Core/Src/usbd_ctlreq.c ****         }
 636:USBLIB/Core/Src/usbd_ctlreq.c ****         pbuf[1] = USB_DESC_TYPE_OTHER_SPEED_CONFIGURATION;
 637:USBLIB/Core/Src/usbd_ctlreq.c ****       }
 638:USBLIB/Core/Src/usbd_ctlreq.c ****       else
 639:USBLIB/Core/Src/usbd_ctlreq.c ****       {
 640:USBLIB/Core/Src/usbd_ctlreq.c ****         USBD_CtlError(pdev, req);
 641:USBLIB/Core/Src/usbd_ctlreq.c ****         err++;
 642:USBLIB/Core/Src/usbd_ctlreq.c ****       }
 643:USBLIB/Core/Src/usbd_ctlreq.c ****       break;
 644:USBLIB/Core/Src/usbd_ctlreq.c **** 
 645:USBLIB/Core/Src/usbd_ctlreq.c ****     default:
 646:USBLIB/Core/Src/usbd_ctlreq.c ****       USBD_CtlError(pdev, req);
 647:USBLIB/Core/Src/usbd_ctlreq.c ****       err++;
 648:USBLIB/Core/Src/usbd_ctlreq.c ****       break;
 649:USBLIB/Core/Src/usbd_ctlreq.c ****   }
 650:USBLIB/Core/Src/usbd_ctlreq.c **** 
 651:USBLIB/Core/Src/usbd_ctlreq.c ****   if (err != 0U)
 652:USBLIB/Core/Src/usbd_ctlreq.c ****   {
 653:USBLIB/Core/Src/usbd_ctlreq.c ****     return;
 654:USBLIB/Core/Src/usbd_ctlreq.c ****   }
 655:USBLIB/Core/Src/usbd_ctlreq.c **** 
 656:USBLIB/Core/Src/usbd_ctlreq.c ****   if (req->wLength != 0U)
 657:USBLIB/Core/Src/usbd_ctlreq.c ****   {
ARM GAS  C:\Users\Jim_YW\AppData\Local\Temp\ccPBemKn.s 			page 13


 658:USBLIB/Core/Src/usbd_ctlreq.c ****     if (len != 0U)
 659:USBLIB/Core/Src/usbd_ctlreq.c ****     {
 660:USBLIB/Core/Src/usbd_ctlreq.c ****       len = MIN(len, req->wLength);
 661:USBLIB/Core/Src/usbd_ctlreq.c ****       (void)USBD_CtlSendData(pdev, pbuf, len);
 662:USBLIB/Core/Src/usbd_ctlreq.c ****     }
 663:USBLIB/Core/Src/usbd_ctlreq.c ****     else
 664:USBLIB/Core/Src/usbd_ctlreq.c ****     {
 665:USBLIB/Core/Src/usbd_ctlreq.c ****       USBD_CtlError(pdev, req);
 666:USBLIB/Core/Src/usbd_ctlreq.c ****     }
 667:USBLIB/Core/Src/usbd_ctlreq.c ****   }
 668:USBLIB/Core/Src/usbd_ctlreq.c ****   else
 669:USBLIB/Core/Src/usbd_ctlreq.c ****   {
 670:USBLIB/Core/Src/usbd_ctlreq.c ****     (void)USBD_CtlSendStatus(pdev);
 671:USBLIB/Core/Src/usbd_ctlreq.c ****   }
 672:USBLIB/Core/Src/usbd_ctlreq.c **** }
 673:USBLIB/Core/Src/usbd_ctlreq.c **** 
 674:USBLIB/Core/Src/usbd_ctlreq.c **** 
 675:USBLIB/Core/Src/usbd_ctlreq.c **** /**
 676:USBLIB/Core/Src/usbd_ctlreq.c ****   * @brief  USBD_SetAddress
 677:USBLIB/Core/Src/usbd_ctlreq.c ****   *         Set device address
 678:USBLIB/Core/Src/usbd_ctlreq.c ****   * @param  pdev: device instance
 679:USBLIB/Core/Src/usbd_ctlreq.c ****   * @param  req: usb request
 680:USBLIB/Core/Src/usbd_ctlreq.c ****   * @retval status
 681:USBLIB/Core/Src/usbd_ctlreq.c ****   */
 682:USBLIB/Core/Src/usbd_ctlreq.c **** static void USBD_SetAddress(USBD_HandleTypeDef *pdev, USBD_SetupReqTypedef *req)
 683:USBLIB/Core/Src/usbd_ctlreq.c **** {
 684:USBLIB/Core/Src/usbd_ctlreq.c ****   uint8_t  dev_addr;
 685:USBLIB/Core/Src/usbd_ctlreq.c **** 
 686:USBLIB/Core/Src/usbd_ctlreq.c ****   if ((req->wIndex == 0U) && (req->wLength == 0U) && (req->wValue < 128U))
 687:USBLIB/Core/Src/usbd_ctlreq.c ****   {
 688:USBLIB/Core/Src/usbd_ctlreq.c ****     dev_addr = (uint8_t)(req->wValue) & 0x7FU;
 689:USBLIB/Core/Src/usbd_ctlreq.c **** 
 690:USBLIB/Core/Src/usbd_ctlreq.c ****     if (pdev->dev_state == USBD_STATE_CONFIGURED)
 691:USBLIB/Core/Src/usbd_ctlreq.c ****     {
 692:USBLIB/Core/Src/usbd_ctlreq.c ****       USBD_CtlError(pdev, req);
 693:USBLIB/Core/Src/usbd_ctlreq.c ****     }
 694:USBLIB/Core/Src/usbd_ctlreq.c ****     else
 695:USBLIB/Core/Src/usbd_ctlreq.c ****     {
 696:USBLIB/Core/Src/usbd_ctlreq.c ****       pdev->dev_address = dev_addr;
 697:USBLIB/Core/Src/usbd_ctlreq.c ****       (void)USBD_LL_SetUSBAddress(pdev, dev_addr);
 698:USBLIB/Core/Src/usbd_ctlreq.c ****       (void)USBD_CtlSendStatus(pdev);
 699:USBLIB/Core/Src/usbd_ctlreq.c **** 
 700:USBLIB/Core/Src/usbd_ctlreq.c ****       if (dev_addr != 0U)
 701:USBLIB/Core/Src/usbd_ctlreq.c ****       {
 702:USBLIB/Core/Src/usbd_ctlreq.c ****         pdev->dev_state = USBD_STATE_ADDRESSED;
 703:USBLIB/Core/Src/usbd_ctlreq.c ****       }
 704:USBLIB/Core/Src/usbd_ctlreq.c ****       else
 705:USBLIB/Core/Src/usbd_ctlreq.c ****       {
 706:USBLIB/Core/Src/usbd_ctlreq.c ****         pdev->dev_state = USBD_STATE_DEFAULT;
 707:USBLIB/Core/Src/usbd_ctlreq.c ****       }
 708:USBLIB/Core/Src/usbd_ctlreq.c ****     }
 709:USBLIB/Core/Src/usbd_ctlreq.c ****   }
 710:USBLIB/Core/Src/usbd_ctlreq.c ****   else
 711:USBLIB/Core/Src/usbd_ctlreq.c ****   {
 712:USBLIB/Core/Src/usbd_ctlreq.c ****     USBD_CtlError(pdev, req);
 713:USBLIB/Core/Src/usbd_ctlreq.c ****   }
 714:USBLIB/Core/Src/usbd_ctlreq.c **** }
ARM GAS  C:\Users\Jim_YW\AppData\Local\Temp\ccPBemKn.s 			page 14


 715:USBLIB/Core/Src/usbd_ctlreq.c **** 
 716:USBLIB/Core/Src/usbd_ctlreq.c **** /**
 717:USBLIB/Core/Src/usbd_ctlreq.c ****   * @brief  USBD_SetConfig
 718:USBLIB/Core/Src/usbd_ctlreq.c ****   *         Handle Set device configuration request
 719:USBLIB/Core/Src/usbd_ctlreq.c ****   * @param  pdev: device instance
 720:USBLIB/Core/Src/usbd_ctlreq.c ****   * @param  req: usb request
 721:USBLIB/Core/Src/usbd_ctlreq.c ****   * @retval status
 722:USBLIB/Core/Src/usbd_ctlreq.c ****   */
 723:USBLIB/Core/Src/usbd_ctlreq.c **** static USBD_StatusTypeDef USBD_SetConfig(USBD_HandleTypeDef *pdev, USBD_SetupReqTypedef *req)
 724:USBLIB/Core/Src/usbd_ctlreq.c **** {
 725:USBLIB/Core/Src/usbd_ctlreq.c ****   USBD_StatusTypeDef ret = USBD_OK;
 726:USBLIB/Core/Src/usbd_ctlreq.c ****   static uint8_t cfgidx;
 727:USBLIB/Core/Src/usbd_ctlreq.c **** 
 728:USBLIB/Core/Src/usbd_ctlreq.c ****   cfgidx = (uint8_t)(req->wValue);
 729:USBLIB/Core/Src/usbd_ctlreq.c **** 
 730:USBLIB/Core/Src/usbd_ctlreq.c ****   if (cfgidx > USBD_MAX_NUM_CONFIGURATION)
 731:USBLIB/Core/Src/usbd_ctlreq.c ****   {
 732:USBLIB/Core/Src/usbd_ctlreq.c ****     USBD_CtlError(pdev, req);
 733:USBLIB/Core/Src/usbd_ctlreq.c ****     return USBD_FAIL;
 734:USBLIB/Core/Src/usbd_ctlreq.c ****   }
 735:USBLIB/Core/Src/usbd_ctlreq.c **** 
 736:USBLIB/Core/Src/usbd_ctlreq.c ****   switch (pdev->dev_state)
 737:USBLIB/Core/Src/usbd_ctlreq.c ****   {
 738:USBLIB/Core/Src/usbd_ctlreq.c ****     case USBD_STATE_ADDRESSED:
 739:USBLIB/Core/Src/usbd_ctlreq.c ****       if (cfgidx != 0U)
 740:USBLIB/Core/Src/usbd_ctlreq.c ****       {
 741:USBLIB/Core/Src/usbd_ctlreq.c ****         pdev->dev_config = cfgidx;
 742:USBLIB/Core/Src/usbd_ctlreq.c **** 
 743:USBLIB/Core/Src/usbd_ctlreq.c ****         ret = USBD_SetClassConfig(pdev, cfgidx);
 744:USBLIB/Core/Src/usbd_ctlreq.c **** 
 745:USBLIB/Core/Src/usbd_ctlreq.c ****         if (ret != USBD_OK)
 746:USBLIB/Core/Src/usbd_ctlreq.c ****         {
 747:USBLIB/Core/Src/usbd_ctlreq.c ****           USBD_CtlError(pdev, req);
 748:USBLIB/Core/Src/usbd_ctlreq.c ****           pdev->dev_state = USBD_STATE_ADDRESSED;
 749:USBLIB/Core/Src/usbd_ctlreq.c ****         }
 750:USBLIB/Core/Src/usbd_ctlreq.c ****         else
 751:USBLIB/Core/Src/usbd_ctlreq.c ****         {
 752:USBLIB/Core/Src/usbd_ctlreq.c ****           (void)USBD_CtlSendStatus(pdev);
 753:USBLIB/Core/Src/usbd_ctlreq.c ****           pdev->dev_state = USBD_STATE_CONFIGURED;
 754:USBLIB/Core/Src/usbd_ctlreq.c ****         }
 755:USBLIB/Core/Src/usbd_ctlreq.c ****       }
 756:USBLIB/Core/Src/usbd_ctlreq.c ****       else
 757:USBLIB/Core/Src/usbd_ctlreq.c ****       {
 758:USBLIB/Core/Src/usbd_ctlreq.c ****         (void)USBD_CtlSendStatus(pdev);
 759:USBLIB/Core/Src/usbd_ctlreq.c ****       }
 760:USBLIB/Core/Src/usbd_ctlreq.c ****       break;
 761:USBLIB/Core/Src/usbd_ctlreq.c **** 
 762:USBLIB/Core/Src/usbd_ctlreq.c ****     case USBD_STATE_CONFIGURED:
 763:USBLIB/Core/Src/usbd_ctlreq.c ****       if (cfgidx == 0U)
 764:USBLIB/Core/Src/usbd_ctlreq.c ****       {
 765:USBLIB/Core/Src/usbd_ctlreq.c ****         pdev->dev_state = USBD_STATE_ADDRESSED;
 766:USBLIB/Core/Src/usbd_ctlreq.c ****         pdev->dev_config = cfgidx;
 767:USBLIB/Core/Src/usbd_ctlreq.c ****         (void)USBD_ClrClassConfig(pdev, cfgidx);
 768:USBLIB/Core/Src/usbd_ctlreq.c ****         (void)USBD_CtlSendStatus(pdev);
 769:USBLIB/Core/Src/usbd_ctlreq.c ****       }
 770:USBLIB/Core/Src/usbd_ctlreq.c ****       else if (cfgidx != pdev->dev_config)
 771:USBLIB/Core/Src/usbd_ctlreq.c ****       {
ARM GAS  C:\Users\Jim_YW\AppData\Local\Temp\ccPBemKn.s 			page 15


 772:USBLIB/Core/Src/usbd_ctlreq.c ****         /* Clear old configuration */
 773:USBLIB/Core/Src/usbd_ctlreq.c ****         (void)USBD_ClrClassConfig(pdev, (uint8_t)pdev->dev_config);
 774:USBLIB/Core/Src/usbd_ctlreq.c **** 
 775:USBLIB/Core/Src/usbd_ctlreq.c ****         /* set new configuration */
 776:USBLIB/Core/Src/usbd_ctlreq.c ****         pdev->dev_config = cfgidx;
 777:USBLIB/Core/Src/usbd_ctlreq.c **** 
 778:USBLIB/Core/Src/usbd_ctlreq.c ****         ret = USBD_SetClassConfig(pdev, cfgidx);
 779:USBLIB/Core/Src/usbd_ctlreq.c **** 
 780:USBLIB/Core/Src/usbd_ctlreq.c ****         if (ret != USBD_OK)
 781:USBLIB/Core/Src/usbd_ctlreq.c ****         {
 782:USBLIB/Core/Src/usbd_ctlreq.c ****           USBD_CtlError(pdev, req);
 783:USBLIB/Core/Src/usbd_ctlreq.c ****           (void)USBD_ClrClassConfig(pdev, (uint8_t)pdev->dev_config);
 784:USBLIB/Core/Src/usbd_ctlreq.c ****           pdev->dev_state = USBD_STATE_ADDRESSED;
 785:USBLIB/Core/Src/usbd_ctlreq.c ****         }
 786:USBLIB/Core/Src/usbd_ctlreq.c ****         else
 787:USBLIB/Core/Src/usbd_ctlreq.c ****         {
 788:USBLIB/Core/Src/usbd_ctlreq.c ****           (void)USBD_CtlSendStatus(pdev);
 789:USBLIB/Core/Src/usbd_ctlreq.c ****         }
 790:USBLIB/Core/Src/usbd_ctlreq.c ****       }
 791:USBLIB/Core/Src/usbd_ctlreq.c ****       else
 792:USBLIB/Core/Src/usbd_ctlreq.c ****       {
 793:USBLIB/Core/Src/usbd_ctlreq.c ****         (void)USBD_CtlSendStatus(pdev);
 794:USBLIB/Core/Src/usbd_ctlreq.c ****       }
 795:USBLIB/Core/Src/usbd_ctlreq.c ****       break;
 796:USBLIB/Core/Src/usbd_ctlreq.c **** 
 797:USBLIB/Core/Src/usbd_ctlreq.c ****     default:
 798:USBLIB/Core/Src/usbd_ctlreq.c ****       USBD_CtlError(pdev, req);
 799:USBLIB/Core/Src/usbd_ctlreq.c ****       (void)USBD_ClrClassConfig(pdev, cfgidx);
 800:USBLIB/Core/Src/usbd_ctlreq.c ****       ret = USBD_FAIL;
 801:USBLIB/Core/Src/usbd_ctlreq.c ****       break;
 802:USBLIB/Core/Src/usbd_ctlreq.c ****   }
 803:USBLIB/Core/Src/usbd_ctlreq.c **** 
 804:USBLIB/Core/Src/usbd_ctlreq.c ****   return ret;
 805:USBLIB/Core/Src/usbd_ctlreq.c **** }
 806:USBLIB/Core/Src/usbd_ctlreq.c **** 
 807:USBLIB/Core/Src/usbd_ctlreq.c **** /**
 808:USBLIB/Core/Src/usbd_ctlreq.c ****   * @brief  USBD_GetConfig
 809:USBLIB/Core/Src/usbd_ctlreq.c ****   *         Handle Get device configuration request
 810:USBLIB/Core/Src/usbd_ctlreq.c ****   * @param  pdev: device instance
 811:USBLIB/Core/Src/usbd_ctlreq.c ****   * @param  req: usb request
 812:USBLIB/Core/Src/usbd_ctlreq.c ****   * @retval status
 813:USBLIB/Core/Src/usbd_ctlreq.c ****   */
 814:USBLIB/Core/Src/usbd_ctlreq.c **** static void USBD_GetConfig(USBD_HandleTypeDef *pdev, USBD_SetupReqTypedef *req)
 815:USBLIB/Core/Src/usbd_ctlreq.c **** {
 816:USBLIB/Core/Src/usbd_ctlreq.c ****   if (req->wLength != 1U)
 817:USBLIB/Core/Src/usbd_ctlreq.c ****   {
 818:USBLIB/Core/Src/usbd_ctlreq.c ****     USBD_CtlError(pdev, req);
 819:USBLIB/Core/Src/usbd_ctlreq.c ****   }
 820:USBLIB/Core/Src/usbd_ctlreq.c ****   else
 821:USBLIB/Core/Src/usbd_ctlreq.c ****   {
 822:USBLIB/Core/Src/usbd_ctlreq.c ****     switch (pdev->dev_state)
 823:USBLIB/Core/Src/usbd_ctlreq.c ****     {
 824:USBLIB/Core/Src/usbd_ctlreq.c ****       case USBD_STATE_DEFAULT:
 825:USBLIB/Core/Src/usbd_ctlreq.c ****       case USBD_STATE_ADDRESSED:
 826:USBLIB/Core/Src/usbd_ctlreq.c ****         pdev->dev_default_config = 0U;
 827:USBLIB/Core/Src/usbd_ctlreq.c ****         (void)USBD_CtlSendData(pdev, (uint8_t *)&pdev->dev_default_config, 1U);
 828:USBLIB/Core/Src/usbd_ctlreq.c ****         break;
ARM GAS  C:\Users\Jim_YW\AppData\Local\Temp\ccPBemKn.s 			page 16


 829:USBLIB/Core/Src/usbd_ctlreq.c **** 
 830:USBLIB/Core/Src/usbd_ctlreq.c ****       case USBD_STATE_CONFIGURED:
 831:USBLIB/Core/Src/usbd_ctlreq.c ****         (void)USBD_CtlSendData(pdev, (uint8_t *)&pdev->dev_config, 1U);
 832:USBLIB/Core/Src/usbd_ctlreq.c ****         break;
 833:USBLIB/Core/Src/usbd_ctlreq.c **** 
 834:USBLIB/Core/Src/usbd_ctlreq.c ****       default:
 835:USBLIB/Core/Src/usbd_ctlreq.c ****         USBD_CtlError(pdev, req);
 836:USBLIB/Core/Src/usbd_ctlreq.c ****         break;
 837:USBLIB/Core/Src/usbd_ctlreq.c ****     }
 838:USBLIB/Core/Src/usbd_ctlreq.c ****   }
 839:USBLIB/Core/Src/usbd_ctlreq.c **** }
 840:USBLIB/Core/Src/usbd_ctlreq.c **** 
 841:USBLIB/Core/Src/usbd_ctlreq.c **** /**
 842:USBLIB/Core/Src/usbd_ctlreq.c ****   * @brief  USBD_GetStatus
 843:USBLIB/Core/Src/usbd_ctlreq.c ****   *         Handle Get Status request
 844:USBLIB/Core/Src/usbd_ctlreq.c ****   * @param  pdev: device instance
 845:USBLIB/Core/Src/usbd_ctlreq.c ****   * @param  req: usb request
 846:USBLIB/Core/Src/usbd_ctlreq.c ****   * @retval status
 847:USBLIB/Core/Src/usbd_ctlreq.c ****   */
 848:USBLIB/Core/Src/usbd_ctlreq.c **** static void USBD_GetStatus(USBD_HandleTypeDef *pdev, USBD_SetupReqTypedef *req)
 849:USBLIB/Core/Src/usbd_ctlreq.c **** {
 850:USBLIB/Core/Src/usbd_ctlreq.c ****   switch (pdev->dev_state)
 851:USBLIB/Core/Src/usbd_ctlreq.c ****   {
 852:USBLIB/Core/Src/usbd_ctlreq.c ****     case USBD_STATE_DEFAULT:
 853:USBLIB/Core/Src/usbd_ctlreq.c ****     case USBD_STATE_ADDRESSED:
 854:USBLIB/Core/Src/usbd_ctlreq.c ****     case USBD_STATE_CONFIGURED:
 855:USBLIB/Core/Src/usbd_ctlreq.c ****       if (req->wLength != 0x2U)
 856:USBLIB/Core/Src/usbd_ctlreq.c ****       {
 857:USBLIB/Core/Src/usbd_ctlreq.c ****         USBD_CtlError(pdev, req);
 858:USBLIB/Core/Src/usbd_ctlreq.c ****         break;
 859:USBLIB/Core/Src/usbd_ctlreq.c ****       }
 860:USBLIB/Core/Src/usbd_ctlreq.c **** 
 861:USBLIB/Core/Src/usbd_ctlreq.c **** #if (USBD_SELF_POWERED == 1U)
 862:USBLIB/Core/Src/usbd_ctlreq.c ****       pdev->dev_config_status = USB_CONFIG_SELF_POWERED;
 863:USBLIB/Core/Src/usbd_ctlreq.c **** #else
 864:USBLIB/Core/Src/usbd_ctlreq.c ****       pdev->dev_config_status = 0U;
 865:USBLIB/Core/Src/usbd_ctlreq.c **** #endif /* USBD_SELF_POWERED */
 866:USBLIB/Core/Src/usbd_ctlreq.c **** 
 867:USBLIB/Core/Src/usbd_ctlreq.c ****       if (pdev->dev_remote_wakeup != 0U)
 868:USBLIB/Core/Src/usbd_ctlreq.c ****       {
 869:USBLIB/Core/Src/usbd_ctlreq.c ****         pdev->dev_config_status |= USB_CONFIG_REMOTE_WAKEUP;
 870:USBLIB/Core/Src/usbd_ctlreq.c ****       }
 871:USBLIB/Core/Src/usbd_ctlreq.c **** 
 872:USBLIB/Core/Src/usbd_ctlreq.c ****       (void)USBD_CtlSendData(pdev, (uint8_t *)&pdev->dev_config_status, 2U);
 873:USBLIB/Core/Src/usbd_ctlreq.c ****       break;
 874:USBLIB/Core/Src/usbd_ctlreq.c **** 
 875:USBLIB/Core/Src/usbd_ctlreq.c ****     default:
 876:USBLIB/Core/Src/usbd_ctlreq.c ****       USBD_CtlError(pdev, req);
 877:USBLIB/Core/Src/usbd_ctlreq.c ****       break;
 878:USBLIB/Core/Src/usbd_ctlreq.c ****   }
 879:USBLIB/Core/Src/usbd_ctlreq.c **** }
 880:USBLIB/Core/Src/usbd_ctlreq.c **** 
 881:USBLIB/Core/Src/usbd_ctlreq.c **** 
 882:USBLIB/Core/Src/usbd_ctlreq.c **** /**
 883:USBLIB/Core/Src/usbd_ctlreq.c ****   * @brief  USBD_SetFeature
 884:USBLIB/Core/Src/usbd_ctlreq.c ****   *         Handle Set device feature request
 885:USBLIB/Core/Src/usbd_ctlreq.c ****   * @param  pdev: device instance
ARM GAS  C:\Users\Jim_YW\AppData\Local\Temp\ccPBemKn.s 			page 17


 886:USBLIB/Core/Src/usbd_ctlreq.c ****   * @param  req: usb request
 887:USBLIB/Core/Src/usbd_ctlreq.c ****   * @retval status
 888:USBLIB/Core/Src/usbd_ctlreq.c ****   */
 889:USBLIB/Core/Src/usbd_ctlreq.c **** static void USBD_SetFeature(USBD_HandleTypeDef *pdev, USBD_SetupReqTypedef *req)
 890:USBLIB/Core/Src/usbd_ctlreq.c **** {
 891:USBLIB/Core/Src/usbd_ctlreq.c ****   if (req->wValue == USB_FEATURE_REMOTE_WAKEUP)
 892:USBLIB/Core/Src/usbd_ctlreq.c ****   {
 893:USBLIB/Core/Src/usbd_ctlreq.c ****     pdev->dev_remote_wakeup = 1U;
 894:USBLIB/Core/Src/usbd_ctlreq.c ****     (void)USBD_CtlSendStatus(pdev);
 895:USBLIB/Core/Src/usbd_ctlreq.c ****   }
 896:USBLIB/Core/Src/usbd_ctlreq.c ****   else if (req->wValue == USB_FEATURE_TEST_MODE)
 897:USBLIB/Core/Src/usbd_ctlreq.c ****   {
 898:USBLIB/Core/Src/usbd_ctlreq.c ****     pdev->dev_test_mode = req->wIndex >> 8;
 899:USBLIB/Core/Src/usbd_ctlreq.c ****     (void)USBD_CtlSendStatus(pdev);
 900:USBLIB/Core/Src/usbd_ctlreq.c ****   }
 901:USBLIB/Core/Src/usbd_ctlreq.c ****   else
 902:USBLIB/Core/Src/usbd_ctlreq.c ****   {
 903:USBLIB/Core/Src/usbd_ctlreq.c ****     USBD_CtlError(pdev, req);
 904:USBLIB/Core/Src/usbd_ctlreq.c ****   }
 905:USBLIB/Core/Src/usbd_ctlreq.c **** }
 906:USBLIB/Core/Src/usbd_ctlreq.c **** 
 907:USBLIB/Core/Src/usbd_ctlreq.c **** 
 908:USBLIB/Core/Src/usbd_ctlreq.c **** /**
 909:USBLIB/Core/Src/usbd_ctlreq.c ****   * @brief  USBD_ClrFeature
 910:USBLIB/Core/Src/usbd_ctlreq.c ****   *         Handle clear device feature request
 911:USBLIB/Core/Src/usbd_ctlreq.c ****   * @param  pdev: device instance
 912:USBLIB/Core/Src/usbd_ctlreq.c ****   * @param  req: usb request
 913:USBLIB/Core/Src/usbd_ctlreq.c ****   * @retval status
 914:USBLIB/Core/Src/usbd_ctlreq.c ****   */
 915:USBLIB/Core/Src/usbd_ctlreq.c **** static void USBD_ClrFeature(USBD_HandleTypeDef *pdev, USBD_SetupReqTypedef *req)
 916:USBLIB/Core/Src/usbd_ctlreq.c **** {
 917:USBLIB/Core/Src/usbd_ctlreq.c ****   switch (pdev->dev_state)
 918:USBLIB/Core/Src/usbd_ctlreq.c ****   {
 919:USBLIB/Core/Src/usbd_ctlreq.c ****     case USBD_STATE_DEFAULT:
 920:USBLIB/Core/Src/usbd_ctlreq.c ****     case USBD_STATE_ADDRESSED:
 921:USBLIB/Core/Src/usbd_ctlreq.c ****     case USBD_STATE_CONFIGURED:
 922:USBLIB/Core/Src/usbd_ctlreq.c ****       if (req->wValue == USB_FEATURE_REMOTE_WAKEUP)
 923:USBLIB/Core/Src/usbd_ctlreq.c ****       {
 924:USBLIB/Core/Src/usbd_ctlreq.c ****         pdev->dev_remote_wakeup = 0U;
 925:USBLIB/Core/Src/usbd_ctlreq.c ****         (void)USBD_CtlSendStatus(pdev);
 926:USBLIB/Core/Src/usbd_ctlreq.c ****       }
 927:USBLIB/Core/Src/usbd_ctlreq.c ****       break;
 928:USBLIB/Core/Src/usbd_ctlreq.c **** 
 929:USBLIB/Core/Src/usbd_ctlreq.c ****     default:
 930:USBLIB/Core/Src/usbd_ctlreq.c ****       USBD_CtlError(pdev, req);
 931:USBLIB/Core/Src/usbd_ctlreq.c ****       break;
 932:USBLIB/Core/Src/usbd_ctlreq.c ****   }
 933:USBLIB/Core/Src/usbd_ctlreq.c **** }
 934:USBLIB/Core/Src/usbd_ctlreq.c **** 
 935:USBLIB/Core/Src/usbd_ctlreq.c **** 
 936:USBLIB/Core/Src/usbd_ctlreq.c **** /**
 937:USBLIB/Core/Src/usbd_ctlreq.c ****   * @brief  USBD_ParseSetupRequest
 938:USBLIB/Core/Src/usbd_ctlreq.c ****   *         Copy buffer into setup structure
 939:USBLIB/Core/Src/usbd_ctlreq.c ****   * @param  pdev: device instance
 940:USBLIB/Core/Src/usbd_ctlreq.c ****   * @param  req: usb request
 941:USBLIB/Core/Src/usbd_ctlreq.c ****   * @retval None
 942:USBLIB/Core/Src/usbd_ctlreq.c ****   */
ARM GAS  C:\Users\Jim_YW\AppData\Local\Temp\ccPBemKn.s 			page 18


 943:USBLIB/Core/Src/usbd_ctlreq.c **** void USBD_ParseSetupRequest(USBD_SetupReqTypedef *req, uint8_t *pdata)
 944:USBLIB/Core/Src/usbd_ctlreq.c **** {
 945:USBLIB/Core/Src/usbd_ctlreq.c ****   uint8_t *pbuff = pdata;
 946:USBLIB/Core/Src/usbd_ctlreq.c **** 
 947:USBLIB/Core/Src/usbd_ctlreq.c ****   req->bmRequest = *(uint8_t *)(pbuff);
 948:USBLIB/Core/Src/usbd_ctlreq.c **** 
 949:USBLIB/Core/Src/usbd_ctlreq.c ****   pbuff++;
 950:USBLIB/Core/Src/usbd_ctlreq.c ****   req->bRequest = *(uint8_t *)(pbuff);
 951:USBLIB/Core/Src/usbd_ctlreq.c **** 
 952:USBLIB/Core/Src/usbd_ctlreq.c ****   pbuff++;
 953:USBLIB/Core/Src/usbd_ctlreq.c ****   req->wValue = SWAPBYTE(pbuff);
 954:USBLIB/Core/Src/usbd_ctlreq.c **** 
 955:USBLIB/Core/Src/usbd_ctlreq.c ****   pbuff++;
 956:USBLIB/Core/Src/usbd_ctlreq.c ****   pbuff++;
 957:USBLIB/Core/Src/usbd_ctlreq.c ****   req->wIndex = SWAPBYTE(pbuff);
 958:USBLIB/Core/Src/usbd_ctlreq.c **** 
 959:USBLIB/Core/Src/usbd_ctlreq.c ****   pbuff++;
 960:USBLIB/Core/Src/usbd_ctlreq.c ****   pbuff++;
 961:USBLIB/Core/Src/usbd_ctlreq.c ****   req->wLength = SWAPBYTE(pbuff);
 962:USBLIB/Core/Src/usbd_ctlreq.c **** }
 963:USBLIB/Core/Src/usbd_ctlreq.c **** 
 964:USBLIB/Core/Src/usbd_ctlreq.c **** 
 965:USBLIB/Core/Src/usbd_ctlreq.c **** /**
 966:USBLIB/Core/Src/usbd_ctlreq.c ****   * @brief  USBD_CtlError
 967:USBLIB/Core/Src/usbd_ctlreq.c ****   *         Handle USB low level Error
 968:USBLIB/Core/Src/usbd_ctlreq.c ****   * @param  pdev: device instance
 969:USBLIB/Core/Src/usbd_ctlreq.c ****   * @param  req: usb request
 970:USBLIB/Core/Src/usbd_ctlreq.c ****   * @retval None
 971:USBLIB/Core/Src/usbd_ctlreq.c ****   */
 972:USBLIB/Core/Src/usbd_ctlreq.c **** void USBD_CtlError(USBD_HandleTypeDef *pdev, USBD_SetupReqTypedef *req)
 973:USBLIB/Core/Src/usbd_ctlreq.c **** {
 974:USBLIB/Core/Src/usbd_ctlreq.c ****   UNUSED(req);
 975:USBLIB/Core/Src/usbd_ctlreq.c **** 
 976:USBLIB/Core/Src/usbd_ctlreq.c ****   (void)USBD_LL_StallEP(pdev, 0x80U);
 977:USBLIB/Core/Src/usbd_ctlreq.c ****   (void)USBD_LL_StallEP(pdev, 0U);
 978:USBLIB/Core/Src/usbd_ctlreq.c **** }
 979:USBLIB/Core/Src/usbd_ctlreq.c **** 
 980:USBLIB/Core/Src/usbd_ctlreq.c **** 
 981:USBLIB/Core/Src/usbd_ctlreq.c **** /**
 982:USBLIB/Core/Src/usbd_ctlreq.c ****   * @brief  USBD_GetString
 983:USBLIB/Core/Src/usbd_ctlreq.c ****   *         Convert Ascii string into unicode one
 984:USBLIB/Core/Src/usbd_ctlreq.c ****   * @param  desc : descriptor buffer
 985:USBLIB/Core/Src/usbd_ctlreq.c ****   * @param  unicode : Formatted string buffer (unicode)
 986:USBLIB/Core/Src/usbd_ctlreq.c ****   * @param  len : descriptor length
 987:USBLIB/Core/Src/usbd_ctlreq.c ****   * @retval None
 988:USBLIB/Core/Src/usbd_ctlreq.c ****   */
 989:USBLIB/Core/Src/usbd_ctlreq.c **** void USBD_GetString(uint8_t *desc, uint8_t *unicode, uint16_t *len)
 990:USBLIB/Core/Src/usbd_ctlreq.c **** {
 991:USBLIB/Core/Src/usbd_ctlreq.c ****   uint8_t idx = 0U;
 992:USBLIB/Core/Src/usbd_ctlreq.c ****   uint8_t *pdesc;
 993:USBLIB/Core/Src/usbd_ctlreq.c **** 
 994:USBLIB/Core/Src/usbd_ctlreq.c ****   if (desc == NULL)
 995:USBLIB/Core/Src/usbd_ctlreq.c ****   {
 996:USBLIB/Core/Src/usbd_ctlreq.c ****     return;
 997:USBLIB/Core/Src/usbd_ctlreq.c ****   }
 998:USBLIB/Core/Src/usbd_ctlreq.c **** 
 999:USBLIB/Core/Src/usbd_ctlreq.c ****   pdesc = desc;
ARM GAS  C:\Users\Jim_YW\AppData\Local\Temp\ccPBemKn.s 			page 19


1000:USBLIB/Core/Src/usbd_ctlreq.c ****   *len = ((uint16_t)USBD_GetLen(pdesc) * 2U) + 2U;
1001:USBLIB/Core/Src/usbd_ctlreq.c **** 
1002:USBLIB/Core/Src/usbd_ctlreq.c ****   unicode[idx] = *(uint8_t *)len;
1003:USBLIB/Core/Src/usbd_ctlreq.c ****   idx++;
1004:USBLIB/Core/Src/usbd_ctlreq.c ****   unicode[idx] = USB_DESC_TYPE_STRING;
1005:USBLIB/Core/Src/usbd_ctlreq.c ****   idx++;
1006:USBLIB/Core/Src/usbd_ctlreq.c **** 
1007:USBLIB/Core/Src/usbd_ctlreq.c ****   while (*pdesc != (uint8_t)'\0')
1008:USBLIB/Core/Src/usbd_ctlreq.c ****   {
1009:USBLIB/Core/Src/usbd_ctlreq.c ****     unicode[idx] = *pdesc;
1010:USBLIB/Core/Src/usbd_ctlreq.c ****     pdesc++;
1011:USBLIB/Core/Src/usbd_ctlreq.c ****     idx++;
1012:USBLIB/Core/Src/usbd_ctlreq.c **** 
1013:USBLIB/Core/Src/usbd_ctlreq.c ****     unicode[idx] = 0U;
1014:USBLIB/Core/Src/usbd_ctlreq.c ****     idx++;
1015:USBLIB/Core/Src/usbd_ctlreq.c ****   }
1016:USBLIB/Core/Src/usbd_ctlreq.c **** }
1017:USBLIB/Core/Src/usbd_ctlreq.c **** 
1018:USBLIB/Core/Src/usbd_ctlreq.c **** 
1019:USBLIB/Core/Src/usbd_ctlreq.c **** /**
1020:USBLIB/Core/Src/usbd_ctlreq.c ****   * @brief  USBD_GetLen
1021:USBLIB/Core/Src/usbd_ctlreq.c ****   *         return the string length
1022:USBLIB/Core/Src/usbd_ctlreq.c ****    * @param  buf : pointer to the ascii string buffer
1023:USBLIB/Core/Src/usbd_ctlreq.c ****   * @retval string length
1024:USBLIB/Core/Src/usbd_ctlreq.c ****   */
1025:USBLIB/Core/Src/usbd_ctlreq.c **** static uint8_t USBD_GetLen(uint8_t *buf)
1026:USBLIB/Core/Src/usbd_ctlreq.c **** {
  29              		.loc 1 1026 1 view -0
  30              		.cfi_startproc
  31              		@ args = 0, pretend = 0, frame = 0
  32              		@ frame_needed = 0, uses_anonymous_args = 0
  33              		@ link register save eliminated.
  34              		.loc 1 1026 1 is_stmt 0 view .LVU1
  35 0000 0346     		mov	r3, r0
1027:USBLIB/Core/Src/usbd_ctlreq.c ****   uint8_t  len = 0U;
  36              		.loc 1 1027 3 is_stmt 1 view .LVU2
  37              	.LVL1:
1028:USBLIB/Core/Src/usbd_ctlreq.c ****   uint8_t *pbuff = buf;
  38              		.loc 1 1028 3 view .LVU3
1029:USBLIB/Core/Src/usbd_ctlreq.c **** 
1030:USBLIB/Core/Src/usbd_ctlreq.c ****   while (*pbuff != (uint8_t)'\0')
  39              		.loc 1 1030 3 view .LVU4
1027:USBLIB/Core/Src/usbd_ctlreq.c ****   uint8_t *pbuff = buf;
  40              		.loc 1 1027 12 is_stmt 0 view .LVU5
  41 0002 0020     		movs	r0, #0
  42              	.LVL2:
  43              		.loc 1 1030 9 view .LVU6
  44 0004 02E0     		b	.L2
  45              	.LVL3:
  46              	.L3:
1031:USBLIB/Core/Src/usbd_ctlreq.c ****   {
1032:USBLIB/Core/Src/usbd_ctlreq.c ****     len++;
  47              		.loc 1 1032 5 is_stmt 1 view .LVU7
  48              		.loc 1 1032 8 is_stmt 0 view .LVU8
  49 0006 0130     		adds	r0, r0, #1
  50              	.LVL4:
  51              		.loc 1 1032 8 view .LVU9
ARM GAS  C:\Users\Jim_YW\AppData\Local\Temp\ccPBemKn.s 			page 20


  52 0008 C0B2     		uxtb	r0, r0
  53              	.LVL5:
1033:USBLIB/Core/Src/usbd_ctlreq.c ****     pbuff++;
  54              		.loc 1 1033 5 is_stmt 1 view .LVU10
  55              		.loc 1 1033 10 is_stmt 0 view .LVU11
  56 000a 0133     		adds	r3, r3, #1
  57              	.LVL6:
  58              	.L2:
1030:USBLIB/Core/Src/usbd_ctlreq.c ****   {
  59              		.loc 1 1030 9 is_stmt 1 view .LVU12
1030:USBLIB/Core/Src/usbd_ctlreq.c ****   {
  60              		.loc 1 1030 10 is_stmt 0 view .LVU13
  61 000c 1A78     		ldrb	r2, [r3]	@ zero_extendqisi2
1030:USBLIB/Core/Src/usbd_ctlreq.c ****   {
  62              		.loc 1 1030 9 view .LVU14
  63 000e 002A     		cmp	r2, #0
  64 0010 F9D1     		bne	.L3
1034:USBLIB/Core/Src/usbd_ctlreq.c ****   }
1035:USBLIB/Core/Src/usbd_ctlreq.c **** 
1036:USBLIB/Core/Src/usbd_ctlreq.c ****   return len;
  65              		.loc 1 1036 3 is_stmt 1 view .LVU15
1037:USBLIB/Core/Src/usbd_ctlreq.c **** }
  66              		.loc 1 1037 1 is_stmt 0 view .LVU16
  67 0012 7047     		bx	lr
  68              		.cfi_endproc
  69              	.LFE147:
  71              		.section	.text.USBD_ParseSetupRequest,"ax",%progbits
  72              		.align	1
  73              		.global	USBD_ParseSetupRequest
  74              		.syntax unified
  75              		.thumb
  76              		.thumb_func
  78              	USBD_ParseSetupRequest:
  79              	.LVL7:
  80              	.LFB144:
 944:USBLIB/Core/Src/usbd_ctlreq.c ****   uint8_t *pbuff = pdata;
  81              		.loc 1 944 1 is_stmt 1 view -0
  82              		.cfi_startproc
  83              		@ args = 0, pretend = 0, frame = 0
  84              		@ frame_needed = 0, uses_anonymous_args = 0
  85              		@ link register save eliminated.
 945:USBLIB/Core/Src/usbd_ctlreq.c **** 
  86              		.loc 1 945 3 view .LVU18
 947:USBLIB/Core/Src/usbd_ctlreq.c **** 
  87              		.loc 1 947 3 view .LVU19
 947:USBLIB/Core/Src/usbd_ctlreq.c **** 
  88              		.loc 1 947 20 is_stmt 0 view .LVU20
  89 0000 0B78     		ldrb	r3, [r1]	@ zero_extendqisi2
 947:USBLIB/Core/Src/usbd_ctlreq.c **** 
  90              		.loc 1 947 18 view .LVU21
  91 0002 0370     		strb	r3, [r0]
 949:USBLIB/Core/Src/usbd_ctlreq.c ****   req->bRequest = *(uint8_t *)(pbuff);
  92              		.loc 1 949 3 is_stmt 1 view .LVU22
  93              	.LVL8:
 950:USBLIB/Core/Src/usbd_ctlreq.c **** 
  94              		.loc 1 950 3 view .LVU23
 950:USBLIB/Core/Src/usbd_ctlreq.c **** 
ARM GAS  C:\Users\Jim_YW\AppData\Local\Temp\ccPBemKn.s 			page 21


  95              		.loc 1 950 19 is_stmt 0 view .LVU24
  96 0004 4B78     		ldrb	r3, [r1, #1]	@ zero_extendqisi2
 950:USBLIB/Core/Src/usbd_ctlreq.c **** 
  97              		.loc 1 950 17 view .LVU25
  98 0006 4370     		strb	r3, [r0, #1]
 952:USBLIB/Core/Src/usbd_ctlreq.c ****   req->wValue = SWAPBYTE(pbuff);
  99              		.loc 1 952 3 is_stmt 1 view .LVU26
 100              	.LVL9:
 953:USBLIB/Core/Src/usbd_ctlreq.c **** 
 101              		.loc 1 953 3 view .LVU27
 102              	.LBB8:
 103              	.LBI8:
 104              		.file 2 "USBLIB/Core/Inc/usbd_def.h"
   1:USBLIB/Core/Inc/usbd_def.h **** /**
   2:USBLIB/Core/Inc/usbd_def.h ****   ******************************************************************************
   3:USBLIB/Core/Inc/usbd_def.h ****   * @file    usbd_def.h
   4:USBLIB/Core/Inc/usbd_def.h ****   * @author  MCD Application Team
   5:USBLIB/Core/Inc/usbd_def.h ****   * @brief   General defines for the usb device library
   6:USBLIB/Core/Inc/usbd_def.h ****   ******************************************************************************
   7:USBLIB/Core/Inc/usbd_def.h ****   * @attention
   8:USBLIB/Core/Inc/usbd_def.h ****   *
   9:USBLIB/Core/Inc/usbd_def.h ****   * Copyright (c) 2015 STMicroelectronics.
  10:USBLIB/Core/Inc/usbd_def.h ****   * All rights reserved.
  11:USBLIB/Core/Inc/usbd_def.h ****   *
  12:USBLIB/Core/Inc/usbd_def.h ****   * This software is licensed under terms that can be found in the LICENSE file
  13:USBLIB/Core/Inc/usbd_def.h ****   * in the root directory of this software component.
  14:USBLIB/Core/Inc/usbd_def.h ****   * If no LICENSE file comes with this software, it is provided AS-IS.
  15:USBLIB/Core/Inc/usbd_def.h ****   *
  16:USBLIB/Core/Inc/usbd_def.h ****   ******************************************************************************
  17:USBLIB/Core/Inc/usbd_def.h ****   */
  18:USBLIB/Core/Inc/usbd_def.h **** 
  19:USBLIB/Core/Inc/usbd_def.h **** /* Define to prevent recursive inclusion -------------------------------------*/
  20:USBLIB/Core/Inc/usbd_def.h **** #ifndef __USBD_DEF_H
  21:USBLIB/Core/Inc/usbd_def.h **** #define __USBD_DEF_H
  22:USBLIB/Core/Inc/usbd_def.h **** 
  23:USBLIB/Core/Inc/usbd_def.h **** #ifdef __cplusplus
  24:USBLIB/Core/Inc/usbd_def.h **** extern "C" {
  25:USBLIB/Core/Inc/usbd_def.h **** #endif
  26:USBLIB/Core/Inc/usbd_def.h **** 
  27:USBLIB/Core/Inc/usbd_def.h **** /* Includes ------------------------------------------------------------------*/
  28:USBLIB/Core/Inc/usbd_def.h **** #include "usbd_conf.h"
  29:USBLIB/Core/Inc/usbd_def.h **** 
  30:USBLIB/Core/Inc/usbd_def.h **** /** @addtogroup STM32_USBD_DEVICE_LIBRARY
  31:USBLIB/Core/Inc/usbd_def.h ****   * @{
  32:USBLIB/Core/Inc/usbd_def.h ****   */
  33:USBLIB/Core/Inc/usbd_def.h **** 
  34:USBLIB/Core/Inc/usbd_def.h **** /** @defgroup USB_DEF
  35:USBLIB/Core/Inc/usbd_def.h ****   * @brief general defines for the usb device library file
  36:USBLIB/Core/Inc/usbd_def.h ****   * @{
  37:USBLIB/Core/Inc/usbd_def.h ****   */
  38:USBLIB/Core/Inc/usbd_def.h **** 
  39:USBLIB/Core/Inc/usbd_def.h **** /** @defgroup USB_DEF_Exported_Defines
  40:USBLIB/Core/Inc/usbd_def.h ****   * @{
  41:USBLIB/Core/Inc/usbd_def.h ****   */
  42:USBLIB/Core/Inc/usbd_def.h **** 
  43:USBLIB/Core/Inc/usbd_def.h **** #ifndef NULL
  44:USBLIB/Core/Inc/usbd_def.h **** #define NULL                                            0U
ARM GAS  C:\Users\Jim_YW\AppData\Local\Temp\ccPBemKn.s 			page 22


  45:USBLIB/Core/Inc/usbd_def.h **** #endif /* NULL */
  46:USBLIB/Core/Inc/usbd_def.h **** 
  47:USBLIB/Core/Inc/usbd_def.h **** #ifndef USBD_MAX_NUM_INTERFACES
  48:USBLIB/Core/Inc/usbd_def.h **** #define USBD_MAX_NUM_INTERFACES                         1U
  49:USBLIB/Core/Inc/usbd_def.h **** #endif /* USBD_MAX_NUM_CONFIGURATION */
  50:USBLIB/Core/Inc/usbd_def.h **** 
  51:USBLIB/Core/Inc/usbd_def.h **** #ifndef USBD_MAX_NUM_CONFIGURATION
  52:USBLIB/Core/Inc/usbd_def.h **** #define USBD_MAX_NUM_CONFIGURATION                      1U
  53:USBLIB/Core/Inc/usbd_def.h **** #endif /* USBD_MAX_NUM_CONFIGURATION */
  54:USBLIB/Core/Inc/usbd_def.h **** 
  55:USBLIB/Core/Inc/usbd_def.h **** #ifdef USE_USBD_COMPOSITE
  56:USBLIB/Core/Inc/usbd_def.h **** #ifndef USBD_MAX_SUPPORTED_CLASS
  57:USBLIB/Core/Inc/usbd_def.h **** #define USBD_MAX_SUPPORTED_CLASS                       4U
  58:USBLIB/Core/Inc/usbd_def.h **** #endif /* USBD_MAX_SUPPORTED_CLASS */
  59:USBLIB/Core/Inc/usbd_def.h **** #else
  60:USBLIB/Core/Inc/usbd_def.h **** #ifndef USBD_MAX_SUPPORTED_CLASS
  61:USBLIB/Core/Inc/usbd_def.h **** #define USBD_MAX_SUPPORTED_CLASS                       1U
  62:USBLIB/Core/Inc/usbd_def.h **** #endif /* USBD_MAX_SUPPORTED_CLASS */
  63:USBLIB/Core/Inc/usbd_def.h **** #endif /* USE_USBD_COMPOSITE */
  64:USBLIB/Core/Inc/usbd_def.h **** 
  65:USBLIB/Core/Inc/usbd_def.h **** #ifndef USBD_MAX_CLASS_ENDPOINTS
  66:USBLIB/Core/Inc/usbd_def.h **** #define USBD_MAX_CLASS_ENDPOINTS                       5U
  67:USBLIB/Core/Inc/usbd_def.h **** #endif /* USBD_MAX_CLASS_ENDPOINTS */
  68:USBLIB/Core/Inc/usbd_def.h **** 
  69:USBLIB/Core/Inc/usbd_def.h **** #ifndef USBD_MAX_CLASS_INTERFACES
  70:USBLIB/Core/Inc/usbd_def.h **** #define USBD_MAX_CLASS_INTERFACES                      5U
  71:USBLIB/Core/Inc/usbd_def.h **** #endif /* USBD_MAX_CLASS_INTERFACES */
  72:USBLIB/Core/Inc/usbd_def.h **** 
  73:USBLIB/Core/Inc/usbd_def.h **** #ifndef USBD_LPM_ENABLED
  74:USBLIB/Core/Inc/usbd_def.h **** #define USBD_LPM_ENABLED                                0U
  75:USBLIB/Core/Inc/usbd_def.h **** #endif /* USBD_LPM_ENABLED */
  76:USBLIB/Core/Inc/usbd_def.h **** 
  77:USBLIB/Core/Inc/usbd_def.h **** #ifndef USBD_SELF_POWERED
  78:USBLIB/Core/Inc/usbd_def.h **** #define USBD_SELF_POWERED                               1U
  79:USBLIB/Core/Inc/usbd_def.h **** #endif /*USBD_SELF_POWERED */
  80:USBLIB/Core/Inc/usbd_def.h **** 
  81:USBLIB/Core/Inc/usbd_def.h **** #ifndef USBD_MAX_POWER
  82:USBLIB/Core/Inc/usbd_def.h **** #define USBD_MAX_POWER                                  0x32U /* 100 mA */
  83:USBLIB/Core/Inc/usbd_def.h **** #endif /* USBD_MAX_POWER */
  84:USBLIB/Core/Inc/usbd_def.h **** 
  85:USBLIB/Core/Inc/usbd_def.h **** #ifndef USBD_SUPPORT_USER_STRING_DESC
  86:USBLIB/Core/Inc/usbd_def.h **** #define USBD_SUPPORT_USER_STRING_DESC                   0U
  87:USBLIB/Core/Inc/usbd_def.h **** #endif /* USBD_SUPPORT_USER_STRING_DESC */
  88:USBLIB/Core/Inc/usbd_def.h **** 
  89:USBLIB/Core/Inc/usbd_def.h **** #ifndef USBD_CLASS_USER_STRING_DESC
  90:USBLIB/Core/Inc/usbd_def.h **** #define USBD_CLASS_USER_STRING_DESC                     0U
  91:USBLIB/Core/Inc/usbd_def.h **** #endif /* USBD_CLASS_USER_STRING_DESC */
  92:USBLIB/Core/Inc/usbd_def.h **** 
  93:USBLIB/Core/Inc/usbd_def.h **** #define  USB_LEN_DEV_QUALIFIER_DESC                     0x0AU
  94:USBLIB/Core/Inc/usbd_def.h **** #define  USB_LEN_DEV_DESC                               0x12U
  95:USBLIB/Core/Inc/usbd_def.h **** #define  USB_LEN_CFG_DESC                               0x09U
  96:USBLIB/Core/Inc/usbd_def.h **** #define  USB_LEN_IF_DESC                                0x09U
  97:USBLIB/Core/Inc/usbd_def.h **** #define  USB_LEN_EP_DESC                                0x07U
  98:USBLIB/Core/Inc/usbd_def.h **** #define  USB_LEN_OTG_DESC                               0x03U
  99:USBLIB/Core/Inc/usbd_def.h **** #define  USB_LEN_LANGID_STR_DESC                        0x04U
 100:USBLIB/Core/Inc/usbd_def.h **** #define  USB_LEN_OTHER_SPEED_DESC_SIZ                   0x09U
 101:USBLIB/Core/Inc/usbd_def.h **** 
ARM GAS  C:\Users\Jim_YW\AppData\Local\Temp\ccPBemKn.s 			page 23


 102:USBLIB/Core/Inc/usbd_def.h **** #define  USBD_IDX_LANGID_STR                            0x00U
 103:USBLIB/Core/Inc/usbd_def.h **** #define  USBD_IDX_MFC_STR                               0x01U
 104:USBLIB/Core/Inc/usbd_def.h **** #define  USBD_IDX_PRODUCT_STR                           0x02U
 105:USBLIB/Core/Inc/usbd_def.h **** #define  USBD_IDX_SERIAL_STR                            0x03U
 106:USBLIB/Core/Inc/usbd_def.h **** #define  USBD_IDX_CONFIG_STR                            0x04U
 107:USBLIB/Core/Inc/usbd_def.h **** #define  USBD_IDX_INTERFACE_STR                         0x05U
 108:USBLIB/Core/Inc/usbd_def.h **** 
 109:USBLIB/Core/Inc/usbd_def.h **** #define  USB_REQ_TYPE_STANDARD                          0x00U
 110:USBLIB/Core/Inc/usbd_def.h **** #define  USB_REQ_TYPE_CLASS                             0x20U
 111:USBLIB/Core/Inc/usbd_def.h **** #define  USB_REQ_TYPE_VENDOR                            0x40U
 112:USBLIB/Core/Inc/usbd_def.h **** #define  USB_REQ_TYPE_MASK                              0x60U
 113:USBLIB/Core/Inc/usbd_def.h **** 
 114:USBLIB/Core/Inc/usbd_def.h **** #define  USB_REQ_RECIPIENT_DEVICE                       0x00U
 115:USBLIB/Core/Inc/usbd_def.h **** #define  USB_REQ_RECIPIENT_INTERFACE                    0x01U
 116:USBLIB/Core/Inc/usbd_def.h **** #define  USB_REQ_RECIPIENT_ENDPOINT                     0x02U
 117:USBLIB/Core/Inc/usbd_def.h **** #define  USB_REQ_RECIPIENT_MASK                         0x03U
 118:USBLIB/Core/Inc/usbd_def.h **** 
 119:USBLIB/Core/Inc/usbd_def.h **** #define  USB_REQ_GET_STATUS                             0x00U
 120:USBLIB/Core/Inc/usbd_def.h **** #define  USB_REQ_CLEAR_FEATURE                          0x01U
 121:USBLIB/Core/Inc/usbd_def.h **** #define  USB_REQ_SET_FEATURE                            0x03U
 122:USBLIB/Core/Inc/usbd_def.h **** #define  USB_REQ_SET_ADDRESS                            0x05U
 123:USBLIB/Core/Inc/usbd_def.h **** #define  USB_REQ_GET_DESCRIPTOR                         0x06U
 124:USBLIB/Core/Inc/usbd_def.h **** #define  USB_REQ_SET_DESCRIPTOR                         0x07U
 125:USBLIB/Core/Inc/usbd_def.h **** #define  USB_REQ_GET_CONFIGURATION                      0x08U
 126:USBLIB/Core/Inc/usbd_def.h **** #define  USB_REQ_SET_CONFIGURATION                      0x09U
 127:USBLIB/Core/Inc/usbd_def.h **** #define  USB_REQ_GET_INTERFACE                          0x0AU
 128:USBLIB/Core/Inc/usbd_def.h **** #define  USB_REQ_SET_INTERFACE                          0x0BU
 129:USBLIB/Core/Inc/usbd_def.h **** #define  USB_REQ_SYNCH_FRAME                            0x0CU
 130:USBLIB/Core/Inc/usbd_def.h **** 
 131:USBLIB/Core/Inc/usbd_def.h **** #define  USB_DESC_TYPE_DEVICE                           0x01U
 132:USBLIB/Core/Inc/usbd_def.h **** #define  USB_DESC_TYPE_CONFIGURATION                    0x02U
 133:USBLIB/Core/Inc/usbd_def.h **** #define  USB_DESC_TYPE_STRING                           0x03U
 134:USBLIB/Core/Inc/usbd_def.h **** #define  USB_DESC_TYPE_INTERFACE                        0x04U
 135:USBLIB/Core/Inc/usbd_def.h **** #define  USB_DESC_TYPE_ENDPOINT                         0x05U
 136:USBLIB/Core/Inc/usbd_def.h **** #define  USB_DESC_TYPE_DEVICE_QUALIFIER                 0x06U
 137:USBLIB/Core/Inc/usbd_def.h **** #define  USB_DESC_TYPE_OTHER_SPEED_CONFIGURATION        0x07U
 138:USBLIB/Core/Inc/usbd_def.h **** #define  USB_DESC_TYPE_IAD                              0x0BU
 139:USBLIB/Core/Inc/usbd_def.h **** #define  USB_DESC_TYPE_BOS                              0x0FU
 140:USBLIB/Core/Inc/usbd_def.h **** 
 141:USBLIB/Core/Inc/usbd_def.h **** #define USB_CONFIG_REMOTE_WAKEUP                        0x02U
 142:USBLIB/Core/Inc/usbd_def.h **** #define USB_CONFIG_SELF_POWERED                         0x01U
 143:USBLIB/Core/Inc/usbd_def.h **** 
 144:USBLIB/Core/Inc/usbd_def.h **** #define USB_FEATURE_EP_HALT                             0x00U
 145:USBLIB/Core/Inc/usbd_def.h **** #define USB_FEATURE_REMOTE_WAKEUP                       0x01U
 146:USBLIB/Core/Inc/usbd_def.h **** #define USB_FEATURE_TEST_MODE                           0x02U
 147:USBLIB/Core/Inc/usbd_def.h **** 
 148:USBLIB/Core/Inc/usbd_def.h **** #define USB_DEVICE_CAPABITY_TYPE                        0x10U
 149:USBLIB/Core/Inc/usbd_def.h **** 
 150:USBLIB/Core/Inc/usbd_def.h **** #define USB_CONF_DESC_SIZE                              0x09U
 151:USBLIB/Core/Inc/usbd_def.h **** #define USB_IF_DESC_SIZE                                0x09U
 152:USBLIB/Core/Inc/usbd_def.h **** #define USB_EP_DESC_SIZE                                0x07U
 153:USBLIB/Core/Inc/usbd_def.h **** #define USB_IAD_DESC_SIZE                               0x08U
 154:USBLIB/Core/Inc/usbd_def.h **** 
 155:USBLIB/Core/Inc/usbd_def.h **** #define USB_HS_MAX_PACKET_SIZE                          512U
 156:USBLIB/Core/Inc/usbd_def.h **** #define USB_FS_MAX_PACKET_SIZE                          64U
 157:USBLIB/Core/Inc/usbd_def.h **** #define USB_MAX_EP0_SIZE                                64U
 158:USBLIB/Core/Inc/usbd_def.h **** 
ARM GAS  C:\Users\Jim_YW\AppData\Local\Temp\ccPBemKn.s 			page 24


 159:USBLIB/Core/Inc/usbd_def.h **** /*  Device Status */
 160:USBLIB/Core/Inc/usbd_def.h **** #define USBD_STATE_DEFAULT                              0x01U
 161:USBLIB/Core/Inc/usbd_def.h **** #define USBD_STATE_ADDRESSED                            0x02U
 162:USBLIB/Core/Inc/usbd_def.h **** #define USBD_STATE_CONFIGURED                           0x03U
 163:USBLIB/Core/Inc/usbd_def.h **** #define USBD_STATE_SUSPENDED                            0x04U
 164:USBLIB/Core/Inc/usbd_def.h **** 
 165:USBLIB/Core/Inc/usbd_def.h **** 
 166:USBLIB/Core/Inc/usbd_def.h **** /*  EP0 State */
 167:USBLIB/Core/Inc/usbd_def.h **** #define USBD_EP0_IDLE                                   0x00U
 168:USBLIB/Core/Inc/usbd_def.h **** #define USBD_EP0_SETUP                                  0x01U
 169:USBLIB/Core/Inc/usbd_def.h **** #define USBD_EP0_DATA_IN                                0x02U
 170:USBLIB/Core/Inc/usbd_def.h **** #define USBD_EP0_DATA_OUT                               0x03U
 171:USBLIB/Core/Inc/usbd_def.h **** #define USBD_EP0_STATUS_IN                              0x04U
 172:USBLIB/Core/Inc/usbd_def.h **** #define USBD_EP0_STATUS_OUT                             0x05U
 173:USBLIB/Core/Inc/usbd_def.h **** #define USBD_EP0_STALL                                  0x06U
 174:USBLIB/Core/Inc/usbd_def.h **** 
 175:USBLIB/Core/Inc/usbd_def.h **** #define USBD_EP_TYPE_CTRL                               0x00U
 176:USBLIB/Core/Inc/usbd_def.h **** #define USBD_EP_TYPE_ISOC                               0x01U
 177:USBLIB/Core/Inc/usbd_def.h **** #define USBD_EP_TYPE_BULK                               0x02U
 178:USBLIB/Core/Inc/usbd_def.h **** #define USBD_EP_TYPE_INTR                               0x03U
 179:USBLIB/Core/Inc/usbd_def.h **** 
 180:USBLIB/Core/Inc/usbd_def.h **** #ifdef USE_USBD_COMPOSITE
 181:USBLIB/Core/Inc/usbd_def.h **** #define USBD_EP_IN                                      0x80U
 182:USBLIB/Core/Inc/usbd_def.h **** #define USBD_EP_OUT                                     0x00U
 183:USBLIB/Core/Inc/usbd_def.h **** #define USBD_FUNC_DESCRIPTOR_TYPE                       0x24U
 184:USBLIB/Core/Inc/usbd_def.h **** #define USBD_DESC_SUBTYPE_ACM                           0x0FU
 185:USBLIB/Core/Inc/usbd_def.h **** #define USBD_DESC_ECM_BCD_LOW                           0x00U
 186:USBLIB/Core/Inc/usbd_def.h **** #define USBD_DESC_ECM_BCD_HIGH                          0x10U
 187:USBLIB/Core/Inc/usbd_def.h **** #endif /* USE_USBD_COMPOSITE */
 188:USBLIB/Core/Inc/usbd_def.h **** /**
 189:USBLIB/Core/Inc/usbd_def.h ****   * @}
 190:USBLIB/Core/Inc/usbd_def.h ****   */
 191:USBLIB/Core/Inc/usbd_def.h **** 
 192:USBLIB/Core/Inc/usbd_def.h **** 
 193:USBLIB/Core/Inc/usbd_def.h **** /** @defgroup USBD_DEF_Exported_TypesDefinitions
 194:USBLIB/Core/Inc/usbd_def.h ****   * @{
 195:USBLIB/Core/Inc/usbd_def.h ****   */
 196:USBLIB/Core/Inc/usbd_def.h **** 
 197:USBLIB/Core/Inc/usbd_def.h **** typedef  struct  usb_setup_req
 198:USBLIB/Core/Inc/usbd_def.h **** {
 199:USBLIB/Core/Inc/usbd_def.h ****   uint8_t   bmRequest;
 200:USBLIB/Core/Inc/usbd_def.h ****   uint8_t   bRequest;
 201:USBLIB/Core/Inc/usbd_def.h ****   uint16_t  wValue;
 202:USBLIB/Core/Inc/usbd_def.h ****   uint16_t  wIndex;
 203:USBLIB/Core/Inc/usbd_def.h ****   uint16_t  wLength;
 204:USBLIB/Core/Inc/usbd_def.h **** } USBD_SetupReqTypedef;
 205:USBLIB/Core/Inc/usbd_def.h **** 
 206:USBLIB/Core/Inc/usbd_def.h **** typedef struct
 207:USBLIB/Core/Inc/usbd_def.h **** {
 208:USBLIB/Core/Inc/usbd_def.h ****   uint8_t   bLength;
 209:USBLIB/Core/Inc/usbd_def.h ****   uint8_t   bDescriptorType;
 210:USBLIB/Core/Inc/usbd_def.h ****   uint16_t  wTotalLength;
 211:USBLIB/Core/Inc/usbd_def.h ****   uint8_t   bNumInterfaces;
 212:USBLIB/Core/Inc/usbd_def.h ****   uint8_t   bConfigurationValue;
 213:USBLIB/Core/Inc/usbd_def.h ****   uint8_t   iConfiguration;
 214:USBLIB/Core/Inc/usbd_def.h ****   uint8_t   bmAttributes;
 215:USBLIB/Core/Inc/usbd_def.h ****   uint8_t   bMaxPower;
ARM GAS  C:\Users\Jim_YW\AppData\Local\Temp\ccPBemKn.s 			page 25


 216:USBLIB/Core/Inc/usbd_def.h **** } __PACKED USBD_ConfigDescTypeDef;
 217:USBLIB/Core/Inc/usbd_def.h **** 
 218:USBLIB/Core/Inc/usbd_def.h **** typedef struct
 219:USBLIB/Core/Inc/usbd_def.h **** {
 220:USBLIB/Core/Inc/usbd_def.h ****   uint8_t   bLength;
 221:USBLIB/Core/Inc/usbd_def.h ****   uint8_t   bDescriptorType;
 222:USBLIB/Core/Inc/usbd_def.h ****   uint16_t  wTotalLength;
 223:USBLIB/Core/Inc/usbd_def.h ****   uint8_t   bNumDeviceCaps;
 224:USBLIB/Core/Inc/usbd_def.h **** } USBD_BosDescTypeDef;
 225:USBLIB/Core/Inc/usbd_def.h **** 
 226:USBLIB/Core/Inc/usbd_def.h **** typedef struct
 227:USBLIB/Core/Inc/usbd_def.h **** {
 228:USBLIB/Core/Inc/usbd_def.h ****   uint8_t   bLength;
 229:USBLIB/Core/Inc/usbd_def.h ****   uint8_t   bDescriptorType;
 230:USBLIB/Core/Inc/usbd_def.h ****   uint8_t   bEndpointAddress;
 231:USBLIB/Core/Inc/usbd_def.h ****   uint8_t   bmAttributes;
 232:USBLIB/Core/Inc/usbd_def.h ****   uint16_t  wMaxPacketSize;
 233:USBLIB/Core/Inc/usbd_def.h ****   uint8_t   bInterval;
 234:USBLIB/Core/Inc/usbd_def.h **** } __PACKED USBD_EpDescTypeDef;
 235:USBLIB/Core/Inc/usbd_def.h **** 
 236:USBLIB/Core/Inc/usbd_def.h **** typedef  struct
 237:USBLIB/Core/Inc/usbd_def.h **** {
 238:USBLIB/Core/Inc/usbd_def.h ****   uint8_t  bLength;
 239:USBLIB/Core/Inc/usbd_def.h ****   uint8_t  bDescriptorType;
 240:USBLIB/Core/Inc/usbd_def.h ****   uint8_t  bDescriptorSubType;
 241:USBLIB/Core/Inc/usbd_def.h **** } USBD_DescHeaderTypeDef;
 242:USBLIB/Core/Inc/usbd_def.h **** 
 243:USBLIB/Core/Inc/usbd_def.h **** struct _USBD_HandleTypeDef;
 244:USBLIB/Core/Inc/usbd_def.h **** 
 245:USBLIB/Core/Inc/usbd_def.h **** typedef struct _Device_cb
 246:USBLIB/Core/Inc/usbd_def.h **** {
 247:USBLIB/Core/Inc/usbd_def.h ****   uint8_t (*Init)(struct _USBD_HandleTypeDef *pdev, uint8_t cfgidx);
 248:USBLIB/Core/Inc/usbd_def.h ****   uint8_t (*DeInit)(struct _USBD_HandleTypeDef *pdev, uint8_t cfgidx);
 249:USBLIB/Core/Inc/usbd_def.h ****   /* Control Endpoints*/
 250:USBLIB/Core/Inc/usbd_def.h ****   uint8_t (*Setup)(struct _USBD_HandleTypeDef *pdev, USBD_SetupReqTypedef  *req);
 251:USBLIB/Core/Inc/usbd_def.h ****   uint8_t (*EP0_TxSent)(struct _USBD_HandleTypeDef *pdev);
 252:USBLIB/Core/Inc/usbd_def.h ****   uint8_t (*EP0_RxReady)(struct _USBD_HandleTypeDef *pdev);
 253:USBLIB/Core/Inc/usbd_def.h ****   /* Class Specific Endpoints*/
 254:USBLIB/Core/Inc/usbd_def.h ****   uint8_t (*DataIn)(struct _USBD_HandleTypeDef *pdev, uint8_t epnum);
 255:USBLIB/Core/Inc/usbd_def.h ****   uint8_t (*DataOut)(struct _USBD_HandleTypeDef *pdev, uint8_t epnum);
 256:USBLIB/Core/Inc/usbd_def.h ****   uint8_t (*SOF)(struct _USBD_HandleTypeDef *pdev);
 257:USBLIB/Core/Inc/usbd_def.h ****   uint8_t (*IsoINIncomplete)(struct _USBD_HandleTypeDef *pdev, uint8_t epnum);
 258:USBLIB/Core/Inc/usbd_def.h ****   uint8_t (*IsoOUTIncomplete)(struct _USBD_HandleTypeDef *pdev, uint8_t epnum);
 259:USBLIB/Core/Inc/usbd_def.h **** 
 260:USBLIB/Core/Inc/usbd_def.h ****   uint8_t  *(*GetHSConfigDescriptor)(uint16_t *length);
 261:USBLIB/Core/Inc/usbd_def.h ****   uint8_t  *(*GetFSConfigDescriptor)(uint16_t *length);
 262:USBLIB/Core/Inc/usbd_def.h ****   uint8_t  *(*GetOtherSpeedConfigDescriptor)(uint16_t *length);
 263:USBLIB/Core/Inc/usbd_def.h ****   uint8_t  *(*GetDeviceQualifierDescriptor)(uint16_t *length);
 264:USBLIB/Core/Inc/usbd_def.h **** #if (USBD_SUPPORT_USER_STRING_DESC == 1U)
 265:USBLIB/Core/Inc/usbd_def.h ****   uint8_t  *(*GetUsrStrDescriptor)(struct _USBD_HandleTypeDef *pdev, uint8_t index,  uint16_t *leng
 266:USBLIB/Core/Inc/usbd_def.h **** #endif /* USBD_SUPPORT_USER_STRING_DESC  */
 267:USBLIB/Core/Inc/usbd_def.h **** 
 268:USBLIB/Core/Inc/usbd_def.h **** } USBD_ClassTypeDef;
 269:USBLIB/Core/Inc/usbd_def.h **** 
 270:USBLIB/Core/Inc/usbd_def.h **** /* Following USB Device Speed */
 271:USBLIB/Core/Inc/usbd_def.h **** typedef enum
 272:USBLIB/Core/Inc/usbd_def.h **** {
ARM GAS  C:\Users\Jim_YW\AppData\Local\Temp\ccPBemKn.s 			page 26


 273:USBLIB/Core/Inc/usbd_def.h ****   USBD_SPEED_HIGH  = 0U,
 274:USBLIB/Core/Inc/usbd_def.h ****   USBD_SPEED_FULL  = 1U,
 275:USBLIB/Core/Inc/usbd_def.h ****   USBD_SPEED_LOW   = 2U,
 276:USBLIB/Core/Inc/usbd_def.h **** } USBD_SpeedTypeDef;
 277:USBLIB/Core/Inc/usbd_def.h **** 
 278:USBLIB/Core/Inc/usbd_def.h **** /* Following USB Device status */
 279:USBLIB/Core/Inc/usbd_def.h **** typedef enum
 280:USBLIB/Core/Inc/usbd_def.h **** {
 281:USBLIB/Core/Inc/usbd_def.h ****   USBD_OK = 0U,
 282:USBLIB/Core/Inc/usbd_def.h ****   USBD_BUSY,
 283:USBLIB/Core/Inc/usbd_def.h ****   USBD_EMEM,
 284:USBLIB/Core/Inc/usbd_def.h ****   USBD_FAIL,
 285:USBLIB/Core/Inc/usbd_def.h **** } USBD_StatusTypeDef;
 286:USBLIB/Core/Inc/usbd_def.h **** 
 287:USBLIB/Core/Inc/usbd_def.h **** /* USB Device descriptors structure */
 288:USBLIB/Core/Inc/usbd_def.h **** typedef struct
 289:USBLIB/Core/Inc/usbd_def.h **** {
 290:USBLIB/Core/Inc/usbd_def.h ****   uint8_t *(*GetDeviceDescriptor)(USBD_SpeedTypeDef speed, uint16_t *length);
 291:USBLIB/Core/Inc/usbd_def.h ****   uint8_t *(*GetLangIDStrDescriptor)(USBD_SpeedTypeDef speed, uint16_t *length);
 292:USBLIB/Core/Inc/usbd_def.h ****   uint8_t *(*GetManufacturerStrDescriptor)(USBD_SpeedTypeDef speed, uint16_t *length);
 293:USBLIB/Core/Inc/usbd_def.h ****   uint8_t *(*GetProductStrDescriptor)(USBD_SpeedTypeDef speed, uint16_t *length);
 294:USBLIB/Core/Inc/usbd_def.h ****   uint8_t *(*GetSerialStrDescriptor)(USBD_SpeedTypeDef speed, uint16_t *length);
 295:USBLIB/Core/Inc/usbd_def.h ****   uint8_t *(*GetConfigurationStrDescriptor)(USBD_SpeedTypeDef speed, uint16_t *length);
 296:USBLIB/Core/Inc/usbd_def.h ****   uint8_t *(*GetInterfaceStrDescriptor)(USBD_SpeedTypeDef speed, uint16_t *length);
 297:USBLIB/Core/Inc/usbd_def.h **** #if (USBD_CLASS_USER_STRING_DESC == 1)
 298:USBLIB/Core/Inc/usbd_def.h ****   uint8_t *(*GetUserStrDescriptor)(USBD_SpeedTypeDef speed, uint8_t idx, uint16_t *length);
 299:USBLIB/Core/Inc/usbd_def.h **** #endif /* USBD_CLASS_USER_STRING_DESC */
 300:USBLIB/Core/Inc/usbd_def.h **** #if ((USBD_LPM_ENABLED == 1U) || (USBD_CLASS_BOS_ENABLED == 1))
 301:USBLIB/Core/Inc/usbd_def.h ****   uint8_t *(*GetBOSDescriptor)(USBD_SpeedTypeDef speed, uint16_t *length);
 302:USBLIB/Core/Inc/usbd_def.h **** #endif /* (USBD_LPM_ENABLED == 1U) || (USBD_CLASS_BOS_ENABLED == 1) */
 303:USBLIB/Core/Inc/usbd_def.h **** } USBD_DescriptorsTypeDef;
 304:USBLIB/Core/Inc/usbd_def.h **** 
 305:USBLIB/Core/Inc/usbd_def.h **** /* USB Device handle structure */
 306:USBLIB/Core/Inc/usbd_def.h **** typedef struct
 307:USBLIB/Core/Inc/usbd_def.h **** {
 308:USBLIB/Core/Inc/usbd_def.h ****   uint32_t status;
 309:USBLIB/Core/Inc/usbd_def.h ****   uint32_t total_length;
 310:USBLIB/Core/Inc/usbd_def.h ****   uint32_t rem_length;
 311:USBLIB/Core/Inc/usbd_def.h ****   uint32_t maxpacket;
 312:USBLIB/Core/Inc/usbd_def.h ****   uint16_t is_used;
 313:USBLIB/Core/Inc/usbd_def.h ****   uint16_t bInterval;
 314:USBLIB/Core/Inc/usbd_def.h **** } USBD_EndpointTypeDef;
 315:USBLIB/Core/Inc/usbd_def.h **** 
 316:USBLIB/Core/Inc/usbd_def.h **** #ifdef USE_USBD_COMPOSITE
 317:USBLIB/Core/Inc/usbd_def.h **** typedef enum
 318:USBLIB/Core/Inc/usbd_def.h **** {
 319:USBLIB/Core/Inc/usbd_def.h ****   CLASS_TYPE_NONE    = 0,
 320:USBLIB/Core/Inc/usbd_def.h ****   CLASS_TYPE_HID     = 1,
 321:USBLIB/Core/Inc/usbd_def.h ****   CLASS_TYPE_CDC     = 2,
 322:USBLIB/Core/Inc/usbd_def.h ****   CLASS_TYPE_MSC     = 3,
 323:USBLIB/Core/Inc/usbd_def.h ****   CLASS_TYPE_DFU     = 4,
 324:USBLIB/Core/Inc/usbd_def.h ****   CLASS_TYPE_CHID    = 5,
 325:USBLIB/Core/Inc/usbd_def.h ****   CLASS_TYPE_AUDIO   = 6,
 326:USBLIB/Core/Inc/usbd_def.h ****   CLASS_TYPE_ECM     = 7,
 327:USBLIB/Core/Inc/usbd_def.h ****   CLASS_TYPE_RNDIS   = 8,
 328:USBLIB/Core/Inc/usbd_def.h ****   CLASS_TYPE_MTP     = 9,
 329:USBLIB/Core/Inc/usbd_def.h ****   CLASS_TYPE_VIDEO   = 10,
ARM GAS  C:\Users\Jim_YW\AppData\Local\Temp\ccPBemKn.s 			page 27


 330:USBLIB/Core/Inc/usbd_def.h ****   CLASS_TYPE_PRINTER = 11,
 331:USBLIB/Core/Inc/usbd_def.h ****   CLASS_TYPE_CCID    = 12,
 332:USBLIB/Core/Inc/usbd_def.h **** } USBD_CompositeClassTypeDef;
 333:USBLIB/Core/Inc/usbd_def.h **** 
 334:USBLIB/Core/Inc/usbd_def.h **** 
 335:USBLIB/Core/Inc/usbd_def.h **** /* USB Device handle structure */
 336:USBLIB/Core/Inc/usbd_def.h **** typedef struct
 337:USBLIB/Core/Inc/usbd_def.h **** {
 338:USBLIB/Core/Inc/usbd_def.h ****   uint8_t                     add;
 339:USBLIB/Core/Inc/usbd_def.h ****   uint8_t                     type;
 340:USBLIB/Core/Inc/usbd_def.h ****   uint8_t                     size;
 341:USBLIB/Core/Inc/usbd_def.h ****   uint8_t                     is_used;
 342:USBLIB/Core/Inc/usbd_def.h **** } USBD_EPTypeDef;
 343:USBLIB/Core/Inc/usbd_def.h **** 
 344:USBLIB/Core/Inc/usbd_def.h **** /* USB Device handle structure */
 345:USBLIB/Core/Inc/usbd_def.h **** typedef struct
 346:USBLIB/Core/Inc/usbd_def.h **** {
 347:USBLIB/Core/Inc/usbd_def.h ****   USBD_CompositeClassTypeDef   ClassType;
 348:USBLIB/Core/Inc/usbd_def.h ****   uint32_t                     ClassId;
 349:USBLIB/Core/Inc/usbd_def.h ****   uint32_t                     Active;
 350:USBLIB/Core/Inc/usbd_def.h ****   uint32_t                     NumEps;
 351:USBLIB/Core/Inc/usbd_def.h ****   USBD_EPTypeDef               Eps[USBD_MAX_CLASS_ENDPOINTS];
 352:USBLIB/Core/Inc/usbd_def.h ****   uint8_t                      *EpAdd;
 353:USBLIB/Core/Inc/usbd_def.h ****   uint32_t                     NumIf;
 354:USBLIB/Core/Inc/usbd_def.h ****   uint8_t                      Ifs[USBD_MAX_CLASS_INTERFACES];
 355:USBLIB/Core/Inc/usbd_def.h ****   uint32_t                     CurrPcktSze;
 356:USBLIB/Core/Inc/usbd_def.h **** } USBD_CompositeElementTypeDef;
 357:USBLIB/Core/Inc/usbd_def.h **** #endif /* USE_USBD_COMPOSITE */
 358:USBLIB/Core/Inc/usbd_def.h **** 
 359:USBLIB/Core/Inc/usbd_def.h **** /* USB Device handle structure */
 360:USBLIB/Core/Inc/usbd_def.h **** typedef struct _USBD_HandleTypeDef
 361:USBLIB/Core/Inc/usbd_def.h **** {
 362:USBLIB/Core/Inc/usbd_def.h ****   uint8_t                 id;
 363:USBLIB/Core/Inc/usbd_def.h ****   uint32_t                dev_config;
 364:USBLIB/Core/Inc/usbd_def.h ****   uint32_t                dev_default_config;
 365:USBLIB/Core/Inc/usbd_def.h ****   uint32_t                dev_config_status;
 366:USBLIB/Core/Inc/usbd_def.h ****   USBD_SpeedTypeDef       dev_speed;
 367:USBLIB/Core/Inc/usbd_def.h ****   USBD_EndpointTypeDef    ep_in[16];
 368:USBLIB/Core/Inc/usbd_def.h ****   USBD_EndpointTypeDef    ep_out[16];
 369:USBLIB/Core/Inc/usbd_def.h ****   __IO uint32_t           ep0_state;
 370:USBLIB/Core/Inc/usbd_def.h ****   uint32_t                ep0_data_len;
 371:USBLIB/Core/Inc/usbd_def.h ****   __IO uint8_t            dev_state;
 372:USBLIB/Core/Inc/usbd_def.h ****   __IO uint8_t            dev_old_state;
 373:USBLIB/Core/Inc/usbd_def.h ****   uint8_t                 dev_address;
 374:USBLIB/Core/Inc/usbd_def.h ****   uint8_t                 dev_connection_status;
 375:USBLIB/Core/Inc/usbd_def.h ****   uint8_t                 dev_test_mode;
 376:USBLIB/Core/Inc/usbd_def.h ****   uint32_t                dev_remote_wakeup;
 377:USBLIB/Core/Inc/usbd_def.h ****   uint8_t                 ConfIdx;
 378:USBLIB/Core/Inc/usbd_def.h **** 
 379:USBLIB/Core/Inc/usbd_def.h ****   USBD_SetupReqTypedef    request;
 380:USBLIB/Core/Inc/usbd_def.h ****   USBD_DescriptorsTypeDef *pDesc;
 381:USBLIB/Core/Inc/usbd_def.h ****   USBD_ClassTypeDef       *pClass[USBD_MAX_SUPPORTED_CLASS];
 382:USBLIB/Core/Inc/usbd_def.h ****   void                    *pClassData;
 383:USBLIB/Core/Inc/usbd_def.h ****   void                    *pClassDataCmsit[USBD_MAX_SUPPORTED_CLASS];
 384:USBLIB/Core/Inc/usbd_def.h ****   void                    *pUserData[USBD_MAX_SUPPORTED_CLASS];
 385:USBLIB/Core/Inc/usbd_def.h ****   void                    *pData;
 386:USBLIB/Core/Inc/usbd_def.h ****   void                    *pBosDesc;
ARM GAS  C:\Users\Jim_YW\AppData\Local\Temp\ccPBemKn.s 			page 28


 387:USBLIB/Core/Inc/usbd_def.h ****   void                    *pConfDesc;
 388:USBLIB/Core/Inc/usbd_def.h ****   uint32_t                classId;
 389:USBLIB/Core/Inc/usbd_def.h ****   uint32_t                NumClasses;
 390:USBLIB/Core/Inc/usbd_def.h **** #ifdef USE_USBD_COMPOSITE
 391:USBLIB/Core/Inc/usbd_def.h ****   USBD_CompositeElementTypeDef tclasslist[USBD_MAX_SUPPORTED_CLASS];
 392:USBLIB/Core/Inc/usbd_def.h **** #endif /* USE_USBD_COMPOSITE */
 393:USBLIB/Core/Inc/usbd_def.h **** } USBD_HandleTypeDef;
 394:USBLIB/Core/Inc/usbd_def.h **** 
 395:USBLIB/Core/Inc/usbd_def.h **** /* USB Device endpoint direction */
 396:USBLIB/Core/Inc/usbd_def.h **** typedef enum
 397:USBLIB/Core/Inc/usbd_def.h **** {
 398:USBLIB/Core/Inc/usbd_def.h ****   OUT   = 0x00,
 399:USBLIB/Core/Inc/usbd_def.h ****   IN    = 0x80,
 400:USBLIB/Core/Inc/usbd_def.h **** } USBD_EPDirectionTypeDef;
 401:USBLIB/Core/Inc/usbd_def.h **** 
 402:USBLIB/Core/Inc/usbd_def.h **** typedef enum
 403:USBLIB/Core/Inc/usbd_def.h **** {
 404:USBLIB/Core/Inc/usbd_def.h ****   NETWORK_CONNECTION = 0x00,
 405:USBLIB/Core/Inc/usbd_def.h ****   RESPONSE_AVAILABLE = 0x01,
 406:USBLIB/Core/Inc/usbd_def.h ****   CONNECTION_SPEED_CHANGE = 0x2A
 407:USBLIB/Core/Inc/usbd_def.h **** } USBD_CDC_NotifCodeTypeDef;
 408:USBLIB/Core/Inc/usbd_def.h **** /**
 409:USBLIB/Core/Inc/usbd_def.h ****   * @}
 410:USBLIB/Core/Inc/usbd_def.h ****   */
 411:USBLIB/Core/Inc/usbd_def.h **** 
 412:USBLIB/Core/Inc/usbd_def.h **** 
 413:USBLIB/Core/Inc/usbd_def.h **** 
 414:USBLIB/Core/Inc/usbd_def.h **** /** @defgroup USBD_DEF_Exported_Macros
 415:USBLIB/Core/Inc/usbd_def.h ****   * @{
 416:USBLIB/Core/Inc/usbd_def.h ****   */
 417:USBLIB/Core/Inc/usbd_def.h **** __STATIC_INLINE uint16_t SWAPBYTE(uint8_t *addr)
 105              		.loc 2 417 26 view .LVU28
 106              	.LBB9:
 418:USBLIB/Core/Inc/usbd_def.h **** {
 419:USBLIB/Core/Inc/usbd_def.h ****   uint16_t _SwapVal, _Byte1, _Byte2;
 107              		.loc 2 419 3 view .LVU29
 420:USBLIB/Core/Inc/usbd_def.h ****   uint8_t *_pbuff = addr;
 108              		.loc 2 420 3 view .LVU30
 421:USBLIB/Core/Inc/usbd_def.h **** 
 422:USBLIB/Core/Inc/usbd_def.h ****   _Byte1 = *(uint8_t *)_pbuff;
 109              		.loc 2 422 3 view .LVU31
 110              		.loc 2 422 12 is_stmt 0 view .LVU32
 111 0008 8B78     		ldrb	r3, [r1, #2]	@ zero_extendqisi2
 112              	.LVL10:
 423:USBLIB/Core/Inc/usbd_def.h ****   _pbuff++;
 113              		.loc 2 423 3 is_stmt 1 view .LVU33
 424:USBLIB/Core/Inc/usbd_def.h ****   _Byte2 = *(uint8_t *)_pbuff;
 114              		.loc 2 424 3 view .LVU34
 115              		.loc 2 424 12 is_stmt 0 view .LVU35
 116 000a CA78     		ldrb	r2, [r1, #3]	@ zero_extendqisi2
 117              	.LVL11:
 425:USBLIB/Core/Inc/usbd_def.h **** 
 426:USBLIB/Core/Inc/usbd_def.h ****   _SwapVal = (_Byte2 << 8) | _Byte1;
 118              		.loc 2 426 3 is_stmt 1 view .LVU36
 119              		.loc 2 426 12 is_stmt 0 view .LVU37
 120 000c 43EA0223 		orr	r3, r3, r2, lsl #8
 121              	.LVL12:
ARM GAS  C:\Users\Jim_YW\AppData\Local\Temp\ccPBemKn.s 			page 29


 427:USBLIB/Core/Inc/usbd_def.h **** 
 428:USBLIB/Core/Inc/usbd_def.h ****   return _SwapVal;
 122              		.loc 2 428 3 is_stmt 1 view .LVU38
 123              		.loc 2 428 3 is_stmt 0 view .LVU39
 124              	.LBE9:
 125              	.LBE8:
 953:USBLIB/Core/Src/usbd_ctlreq.c **** 
 126              		.loc 1 953 15 view .LVU40
 127 0010 4380     		strh	r3, [r0, #2]	@ movhi
 128              	.LVL13:
 955:USBLIB/Core/Src/usbd_ctlreq.c ****   pbuff++;
 129              		.loc 1 955 3 is_stmt 1 view .LVU41
 956:USBLIB/Core/Src/usbd_ctlreq.c ****   req->wIndex = SWAPBYTE(pbuff);
 130              		.loc 1 956 3 view .LVU42
 957:USBLIB/Core/Src/usbd_ctlreq.c **** 
 131              		.loc 1 957 3 view .LVU43
 132              	.LBB10:
 133              	.LBI10:
 417:USBLIB/Core/Inc/usbd_def.h **** {
 134              		.loc 2 417 26 view .LVU44
 135              	.LBB11:
 419:USBLIB/Core/Inc/usbd_def.h ****   uint8_t *_pbuff = addr;
 136              		.loc 2 419 3 view .LVU45
 420:USBLIB/Core/Inc/usbd_def.h **** 
 137              		.loc 2 420 3 view .LVU46
 422:USBLIB/Core/Inc/usbd_def.h ****   _pbuff++;
 138              		.loc 2 422 3 view .LVU47
 422:USBLIB/Core/Inc/usbd_def.h ****   _pbuff++;
 139              		.loc 2 422 12 is_stmt 0 view .LVU48
 140 0012 0B79     		ldrb	r3, [r1, #4]	@ zero_extendqisi2
 141              	.LVL14:
 423:USBLIB/Core/Inc/usbd_def.h ****   _Byte2 = *(uint8_t *)_pbuff;
 142              		.loc 2 423 3 is_stmt 1 view .LVU49
 424:USBLIB/Core/Inc/usbd_def.h **** 
 143              		.loc 2 424 3 view .LVU50
 424:USBLIB/Core/Inc/usbd_def.h **** 
 144              		.loc 2 424 12 is_stmt 0 view .LVU51
 145 0014 4A79     		ldrb	r2, [r1, #5]	@ zero_extendqisi2
 146              	.LVL15:
 426:USBLIB/Core/Inc/usbd_def.h **** 
 147              		.loc 2 426 3 is_stmt 1 view .LVU52
 426:USBLIB/Core/Inc/usbd_def.h **** 
 148              		.loc 2 426 12 is_stmt 0 view .LVU53
 149 0016 43EA0223 		orr	r3, r3, r2, lsl #8
 150              	.LVL16:
 151              		.loc 2 428 3 is_stmt 1 view .LVU54
 152              		.loc 2 428 3 is_stmt 0 view .LVU55
 153              	.LBE11:
 154              	.LBE10:
 957:USBLIB/Core/Src/usbd_ctlreq.c **** 
 155              		.loc 1 957 15 view .LVU56
 156 001a 8380     		strh	r3, [r0, #4]	@ movhi
 157              	.LVL17:
 959:USBLIB/Core/Src/usbd_ctlreq.c ****   pbuff++;
 158              		.loc 1 959 3 is_stmt 1 view .LVU57
 960:USBLIB/Core/Src/usbd_ctlreq.c ****   req->wLength = SWAPBYTE(pbuff);
 159              		.loc 1 960 3 view .LVU58
ARM GAS  C:\Users\Jim_YW\AppData\Local\Temp\ccPBemKn.s 			page 30


 961:USBLIB/Core/Src/usbd_ctlreq.c **** }
 160              		.loc 1 961 3 view .LVU59
 161              	.LBB12:
 162              	.LBI12:
 417:USBLIB/Core/Inc/usbd_def.h **** {
 163              		.loc 2 417 26 view .LVU60
 164              	.LBB13:
 419:USBLIB/Core/Inc/usbd_def.h ****   uint8_t *_pbuff = addr;
 165              		.loc 2 419 3 view .LVU61
 420:USBLIB/Core/Inc/usbd_def.h **** 
 166              		.loc 2 420 3 view .LVU62
 422:USBLIB/Core/Inc/usbd_def.h ****   _pbuff++;
 167              		.loc 2 422 3 view .LVU63
 422:USBLIB/Core/Inc/usbd_def.h ****   _pbuff++;
 168              		.loc 2 422 12 is_stmt 0 view .LVU64
 169 001c 8B79     		ldrb	r3, [r1, #6]	@ zero_extendqisi2
 170              	.LVL18:
 423:USBLIB/Core/Inc/usbd_def.h ****   _Byte2 = *(uint8_t *)_pbuff;
 171              		.loc 2 423 3 is_stmt 1 view .LVU65
 424:USBLIB/Core/Inc/usbd_def.h **** 
 172              		.loc 2 424 3 view .LVU66
 424:USBLIB/Core/Inc/usbd_def.h **** 
 173              		.loc 2 424 12 is_stmt 0 view .LVU67
 174 001e CA79     		ldrb	r2, [r1, #7]	@ zero_extendqisi2
 175              	.LVL19:
 426:USBLIB/Core/Inc/usbd_def.h **** 
 176              		.loc 2 426 3 is_stmt 1 view .LVU68
 426:USBLIB/Core/Inc/usbd_def.h **** 
 177              		.loc 2 426 12 is_stmt 0 view .LVU69
 178 0020 43EA0223 		orr	r3, r3, r2, lsl #8
 179              	.LVL20:
 180              		.loc 2 428 3 is_stmt 1 view .LVU70
 181              		.loc 2 428 3 is_stmt 0 view .LVU71
 182              	.LBE13:
 183              	.LBE12:
 961:USBLIB/Core/Src/usbd_ctlreq.c **** }
 184              		.loc 1 961 16 view .LVU72
 185 0024 C380     		strh	r3, [r0, #6]	@ movhi
 186              	.LVL21:
 962:USBLIB/Core/Src/usbd_ctlreq.c **** 
 187              		.loc 1 962 1 view .LVU73
 188 0026 7047     		bx	lr
 189              		.cfi_endproc
 190              	.LFE144:
 192              		.section	.text.USBD_CtlError,"ax",%progbits
 193              		.align	1
 194              		.global	USBD_CtlError
 195              		.syntax unified
 196              		.thumb
 197              		.thumb_func
 199              	USBD_CtlError:
 200              	.LVL22:
 201              	.LFB145:
 973:USBLIB/Core/Src/usbd_ctlreq.c ****   UNUSED(req);
 202              		.loc 1 973 1 is_stmt 1 view -0
 203              		.cfi_startproc
 204              		@ args = 0, pretend = 0, frame = 0
ARM GAS  C:\Users\Jim_YW\AppData\Local\Temp\ccPBemKn.s 			page 31


 205              		@ frame_needed = 0, uses_anonymous_args = 0
 973:USBLIB/Core/Src/usbd_ctlreq.c ****   UNUSED(req);
 206              		.loc 1 973 1 is_stmt 0 view .LVU75
 207 0000 10B5     		push	{r4, lr}
 208              	.LCFI0:
 209              		.cfi_def_cfa_offset 8
 210              		.cfi_offset 4, -8
 211              		.cfi_offset 14, -4
 212 0002 0446     		mov	r4, r0
 974:USBLIB/Core/Src/usbd_ctlreq.c **** 
 213              		.loc 1 974 3 is_stmt 1 view .LVU76
 976:USBLIB/Core/Src/usbd_ctlreq.c ****   (void)USBD_LL_StallEP(pdev, 0U);
 214              		.loc 1 976 3 view .LVU77
 976:USBLIB/Core/Src/usbd_ctlreq.c ****   (void)USBD_LL_StallEP(pdev, 0U);
 215              		.loc 1 976 9 is_stmt 0 view .LVU78
 216 0004 8021     		movs	r1, #128
 217              	.LVL23:
 976:USBLIB/Core/Src/usbd_ctlreq.c ****   (void)USBD_LL_StallEP(pdev, 0U);
 218              		.loc 1 976 9 view .LVU79
 219 0006 FFF7FEFF 		bl	USBD_LL_StallEP
 220              	.LVL24:
 977:USBLIB/Core/Src/usbd_ctlreq.c **** }
 221              		.loc 1 977 3 is_stmt 1 view .LVU80
 977:USBLIB/Core/Src/usbd_ctlreq.c **** }
 222              		.loc 1 977 9 is_stmt 0 view .LVU81
 223 000a 0021     		movs	r1, #0
 224 000c 2046     		mov	r0, r4
 225 000e FFF7FEFF 		bl	USBD_LL_StallEP
 226              	.LVL25:
 978:USBLIB/Core/Src/usbd_ctlreq.c **** 
 227              		.loc 1 978 1 view .LVU82
 228 0012 10BD     		pop	{r4, pc}
 978:USBLIB/Core/Src/usbd_ctlreq.c **** 
 229              		.loc 1 978 1 view .LVU83
 230              		.cfi_endproc
 231              	.LFE145:
 233              		.section	.text.USBD_GetDescriptor,"ax",%progbits
 234              		.align	1
 235              		.syntax unified
 236              		.thumb
 237              		.thumb_func
 239              	USBD_GetDescriptor:
 240              	.LVL26:
 241              	.LFB137:
 427:USBLIB/Core/Src/usbd_ctlreq.c ****   uint16_t len = 0U;
 242              		.loc 1 427 1 is_stmt 1 view -0
 243              		.cfi_startproc
 244              		@ args = 0, pretend = 0, frame = 8
 245              		@ frame_needed = 0, uses_anonymous_args = 0
 427:USBLIB/Core/Src/usbd_ctlreq.c ****   uint16_t len = 0U;
 246              		.loc 1 427 1 is_stmt 0 view .LVU85
 247 0000 30B5     		push	{r4, r5, lr}
 248              	.LCFI1:
 249              		.cfi_def_cfa_offset 12
 250              		.cfi_offset 4, -12
 251              		.cfi_offset 5, -8
 252              		.cfi_offset 14, -4
ARM GAS  C:\Users\Jim_YW\AppData\Local\Temp\ccPBemKn.s 			page 32


 253 0002 83B0     		sub	sp, sp, #12
 254              	.LCFI2:
 255              		.cfi_def_cfa_offset 24
 256 0004 0446     		mov	r4, r0
 257 0006 0D46     		mov	r5, r1
 428:USBLIB/Core/Src/usbd_ctlreq.c ****   uint8_t *pbuf = NULL;
 258              		.loc 1 428 3 is_stmt 1 view .LVU86
 428:USBLIB/Core/Src/usbd_ctlreq.c ****   uint8_t *pbuf = NULL;
 259              		.loc 1 428 12 is_stmt 0 view .LVU87
 260 0008 0023     		movs	r3, #0
 261 000a ADF80630 		strh	r3, [sp, #6]	@ movhi
 429:USBLIB/Core/Src/usbd_ctlreq.c ****   uint8_t err = 0U;
 262              		.loc 1 429 3 is_stmt 1 view .LVU88
 263              	.LVL27:
 430:USBLIB/Core/Src/usbd_ctlreq.c **** 
 264              		.loc 1 430 3 view .LVU89
 432:USBLIB/Core/Src/usbd_ctlreq.c ****   {
 265              		.loc 1 432 3 view .LVU90
 432:USBLIB/Core/Src/usbd_ctlreq.c ****   {
 266              		.loc 1 432 14 is_stmt 0 view .LVU91
 267 000e 4A88     		ldrh	r2, [r1, #2]
 432:USBLIB/Core/Src/usbd_ctlreq.c ****   {
 268              		.loc 1 432 23 view .LVU92
 269 0010 130A     		lsrs	r3, r2, #8
 432:USBLIB/Core/Src/usbd_ctlreq.c ****   {
 270              		.loc 1 432 3 view .LVU93
 271 0012 013B     		subs	r3, r3, #1
 272 0014 062B     		cmp	r3, #6
 273 0016 00F2AB80 		bhi	.L8
 274 001a DFE803F0 		tbb	[pc, r3]
 275              	.LVL28:
 276              	.L10:
 277 001e 04       		.byte	(.L14-.L10)/2
 278 001f 1F       		.byte	(.L13-.L10)/2
 279 0020 33       		.byte	(.L12-.L10)/2
 280 0021 A9       		.byte	(.L8-.L10)/2
 281 0022 A9       		.byte	(.L8-.L10)/2
 282 0023 8D       		.byte	(.L11-.L10)/2
 283 0024 9A       		.byte	(.L9-.L10)/2
 284 0025 00       		.p2align 1
 285              	.L14:
 448:USBLIB/Core/Src/usbd_ctlreq.c ****       break;
 286              		.loc 1 448 7 is_stmt 1 view .LVU94
 448:USBLIB/Core/Src/usbd_ctlreq.c ****       break;
 287              		.loc 1 448 18 is_stmt 0 view .LVU95
 288 0026 D0F8B432 		ldr	r3, [r0, #692]
 448:USBLIB/Core/Src/usbd_ctlreq.c ****       break;
 289              		.loc 1 448 25 view .LVU96
 290 002a 1B68     		ldr	r3, [r3]
 448:USBLIB/Core/Src/usbd_ctlreq.c ****       break;
 291              		.loc 1 448 14 view .LVU97
 292 002c 0DF10601 		add	r1, sp, #6
 293 0030 007C     		ldrb	r0, [r0, #16]	@ zero_extendqisi2
 294              	.LVL29:
 448:USBLIB/Core/Src/usbd_ctlreq.c ****       break;
 295              		.loc 1 448 14 view .LVU98
 296 0032 9847     		blx	r3
ARM GAS  C:\Users\Jim_YW\AppData\Local\Temp\ccPBemKn.s 			page 33


 297              	.LVL30:
 449:USBLIB/Core/Src/usbd_ctlreq.c **** 
 298              		.loc 1 449 7 is_stmt 1 view .LVU99
 651:USBLIB/Core/Src/usbd_ctlreq.c ****   {
 299              		.loc 1 651 3 view .LVU100
 300              	.L15:
 656:USBLIB/Core/Src/usbd_ctlreq.c ****   {
 301              		.loc 1 656 3 view .LVU101
 656:USBLIB/Core/Src/usbd_ctlreq.c ****   {
 302              		.loc 1 656 10 is_stmt 0 view .LVU102
 303 0034 EA88     		ldrh	r2, [r5, #6]
 656:USBLIB/Core/Src/usbd_ctlreq.c ****   {
 304              		.loc 1 656 6 view .LVU103
 305 0036 002A     		cmp	r2, #0
 306 0038 00F0A380 		beq	.L35
 658:USBLIB/Core/Src/usbd_ctlreq.c ****     {
 307              		.loc 1 658 5 is_stmt 1 view .LVU104
 658:USBLIB/Core/Src/usbd_ctlreq.c ****     {
 308              		.loc 1 658 13 is_stmt 0 view .LVU105
 309 003c BDF80630 		ldrh	r3, [sp, #6]
 658:USBLIB/Core/Src/usbd_ctlreq.c ****     {
 310              		.loc 1 658 8 view .LVU106
 311 0040 002B     		cmp	r3, #0
 312 0042 00F09980 		beq	.L36
 660:USBLIB/Core/Src/usbd_ctlreq.c ****       (void)USBD_CtlSendData(pdev, pbuf, len);
 313              		.loc 1 660 7 is_stmt 1 view .LVU107
 660:USBLIB/Core/Src/usbd_ctlreq.c ****       (void)USBD_CtlSendData(pdev, pbuf, len);
 314              		.loc 1 660 13 is_stmt 0 view .LVU108
 315 0046 9A42     		cmp	r2, r3
 316 0048 28BF     		it	cs
 317 004a 1A46     		movcs	r2, r3
 660:USBLIB/Core/Src/usbd_ctlreq.c ****       (void)USBD_CtlSendData(pdev, pbuf, len);
 318              		.loc 1 660 11 view .LVU109
 319 004c ADF80620 		strh	r2, [sp, #6]	@ movhi
 661:USBLIB/Core/Src/usbd_ctlreq.c ****     }
 320              		.loc 1 661 7 is_stmt 1 view .LVU110
 661:USBLIB/Core/Src/usbd_ctlreq.c ****     }
 321              		.loc 1 661 13 is_stmt 0 view .LVU111
 322 0050 0146     		mov	r1, r0
 323 0052 2046     		mov	r0, r4
 324              	.LVL31:
 661:USBLIB/Core/Src/usbd_ctlreq.c ****     }
 325              		.loc 1 661 13 view .LVU112
 326 0054 FFF7FEFF 		bl	USBD_CtlSendData
 327              	.LVL32:
 328              	.L7:
 672:USBLIB/Core/Src/usbd_ctlreq.c **** 
 329              		.loc 1 672 1 view .LVU113
 330 0058 03B0     		add	sp, sp, #12
 331              	.LCFI3:
 332              		.cfi_remember_state
 333              		.cfi_def_cfa_offset 12
 334              		@ sp needed
 335 005a 30BD     		pop	{r4, r5, pc}
 336              	.LVL33:
 337              	.L13:
 338              	.LCFI4:
ARM GAS  C:\Users\Jim_YW\AppData\Local\Temp\ccPBemKn.s 			page 34


 339              		.cfi_restore_state
 452:USBLIB/Core/Src/usbd_ctlreq.c ****       {
 340              		.loc 1 452 7 is_stmt 1 view .LVU114
 452:USBLIB/Core/Src/usbd_ctlreq.c ****       {
 341              		.loc 1 452 15 is_stmt 0 view .LVU115
 342 005c 037C     		ldrb	r3, [r0, #16]	@ zero_extendqisi2
 452:USBLIB/Core/Src/usbd_ctlreq.c ****       {
 343              		.loc 1 452 10 view .LVU116
 344 005e 43B9     		cbnz	r3, .L16
 462:USBLIB/Core/Src/usbd_ctlreq.c ****         }
 345              		.loc 1 462 11 is_stmt 1 view .LVU117
 462:USBLIB/Core/Src/usbd_ctlreq.c ****         }
 346              		.loc 1 462 41 is_stmt 0 view .LVU118
 347 0060 D0F8B832 		ldr	r3, [r0, #696]
 462:USBLIB/Core/Src/usbd_ctlreq.c ****         }
 348              		.loc 1 462 44 view .LVU119
 349 0064 9B6A     		ldr	r3, [r3, #40]
 462:USBLIB/Core/Src/usbd_ctlreq.c ****         }
 350              		.loc 1 462 18 view .LVU120
 351 0066 0DF10600 		add	r0, sp, #6
 352              	.LVL34:
 462:USBLIB/Core/Src/usbd_ctlreq.c ****         }
 353              		.loc 1 462 18 view .LVU121
 354 006a 9847     		blx	r3
 355              	.LVL35:
 464:USBLIB/Core/Src/usbd_ctlreq.c ****       }
 356              		.loc 1 464 9 is_stmt 1 view .LVU122
 464:USBLIB/Core/Src/usbd_ctlreq.c ****       }
 357              		.loc 1 464 17 is_stmt 0 view .LVU123
 358 006c 0223     		movs	r3, #2
 359 006e 4370     		strb	r3, [r0, #1]
 651:USBLIB/Core/Src/usbd_ctlreq.c ****   {
 360              		.loc 1 651 3 is_stmt 1 view .LVU124
 361 0070 E0E7     		b	.L15
 362              	.LVL36:
 363              	.L16:
 476:USBLIB/Core/Src/usbd_ctlreq.c ****         }
 364              		.loc 1 476 11 view .LVU125
 476:USBLIB/Core/Src/usbd_ctlreq.c ****         }
 365              		.loc 1 476 43 is_stmt 0 view .LVU126
 366 0072 D0F8B832 		ldr	r3, [r0, #696]
 476:USBLIB/Core/Src/usbd_ctlreq.c ****         }
 367              		.loc 1 476 46 view .LVU127
 368 0076 DB6A     		ldr	r3, [r3, #44]
 476:USBLIB/Core/Src/usbd_ctlreq.c ****         }
 369              		.loc 1 476 20 view .LVU128
 370 0078 0DF10600 		add	r0, sp, #6
 371              	.LVL37:
 476:USBLIB/Core/Src/usbd_ctlreq.c ****         }
 372              		.loc 1 476 20 view .LVU129
 373 007c 9847     		blx	r3
 374              	.LVL38:
 478:USBLIB/Core/Src/usbd_ctlreq.c ****       }
 375              		.loc 1 478 9 is_stmt 1 view .LVU130
 478:USBLIB/Core/Src/usbd_ctlreq.c ****       }
 376              		.loc 1 478 17 is_stmt 0 view .LVU131
 377 007e 0223     		movs	r3, #2
ARM GAS  C:\Users\Jim_YW\AppData\Local\Temp\ccPBemKn.s 			page 35


 378 0080 4370     		strb	r3, [r0, #1]
 651:USBLIB/Core/Src/usbd_ctlreq.c ****   {
 379              		.loc 1 651 3 is_stmt 1 view .LVU132
 380 0082 D7E7     		b	.L15
 381              	.LVL39:
 382              	.L12:
 483:USBLIB/Core/Src/usbd_ctlreq.c ****       {
 383              		.loc 1 483 7 view .LVU133
 483:USBLIB/Core/Src/usbd_ctlreq.c ****       {
 384              		.loc 1 483 15 is_stmt 0 view .LVU134
 385 0084 D2B2     		uxtb	r2, r2
 386 0086 052A     		cmp	r2, #5
 387 0088 52D8     		bhi	.L17
 388 008a DFE802F0 		tbb	[pc, r2]
 389              	.L19:
 390 008e 03       		.byte	(.L24-.L19)/2
 391 008f 10       		.byte	(.L23-.L19)/2
 392 0090 1D       		.byte	(.L22-.L19)/2
 393 0091 2A       		.byte	(.L21-.L19)/2
 394 0092 37       		.byte	(.L20-.L19)/2
 395 0093 44       		.byte	(.L18-.L19)/2
 396              		.p2align 1
 397              	.L24:
 486:USBLIB/Core/Src/usbd_ctlreq.c ****           {
 398              		.loc 1 486 11 is_stmt 1 view .LVU135
 486:USBLIB/Core/Src/usbd_ctlreq.c ****           {
 399              		.loc 1 486 19 is_stmt 0 view .LVU136
 400 0094 D0F8B432 		ldr	r3, [r0, #692]
 486:USBLIB/Core/Src/usbd_ctlreq.c ****           {
 401              		.loc 1 486 26 view .LVU137
 402 0098 5B68     		ldr	r3, [r3, #4]
 486:USBLIB/Core/Src/usbd_ctlreq.c ****           {
 403              		.loc 1 486 14 view .LVU138
 404 009a 23B1     		cbz	r3, .L25
 488:USBLIB/Core/Src/usbd_ctlreq.c ****           }
 405              		.loc 1 488 13 is_stmt 1 view .LVU139
 488:USBLIB/Core/Src/usbd_ctlreq.c ****           }
 406              		.loc 1 488 20 is_stmt 0 view .LVU140
 407 009c 0DF10601 		add	r1, sp, #6
 408 00a0 007C     		ldrb	r0, [r0, #16]	@ zero_extendqisi2
 409              	.LVL40:
 488:USBLIB/Core/Src/usbd_ctlreq.c ****           }
 410              		.loc 1 488 20 view .LVU141
 411 00a2 9847     		blx	r3
 412              	.LVL41:
 651:USBLIB/Core/Src/usbd_ctlreq.c ****   {
 413              		.loc 1 651 3 is_stmt 1 view .LVU142
 414 00a4 C6E7     		b	.L15
 415              	.LVL42:
 416              	.L25:
 492:USBLIB/Core/Src/usbd_ctlreq.c ****             err++;
 417              		.loc 1 492 13 view .LVU143
 418 00a6 2946     		mov	r1, r5
 419 00a8 FFF7FEFF 		bl	USBD_CtlError
 420              	.LVL43:
 493:USBLIB/Core/Src/usbd_ctlreq.c ****           }
 421              		.loc 1 493 13 view .LVU144
ARM GAS  C:\Users\Jim_YW\AppData\Local\Temp\ccPBemKn.s 			page 36


 651:USBLIB/Core/Src/usbd_ctlreq.c ****   {
 422              		.loc 1 651 3 view .LVU145
 423 00ac D4E7     		b	.L7
 424              	.LVL44:
 425              	.L23:
 498:USBLIB/Core/Src/usbd_ctlreq.c ****           {
 426              		.loc 1 498 11 view .LVU146
 498:USBLIB/Core/Src/usbd_ctlreq.c ****           {
 427              		.loc 1 498 19 is_stmt 0 view .LVU147
 428 00ae D0F8B432 		ldr	r3, [r0, #692]
 498:USBLIB/Core/Src/usbd_ctlreq.c ****           {
 429              		.loc 1 498 26 view .LVU148
 430 00b2 9B68     		ldr	r3, [r3, #8]
 498:USBLIB/Core/Src/usbd_ctlreq.c ****           {
 431              		.loc 1 498 14 view .LVU149
 432 00b4 23B1     		cbz	r3, .L27
 500:USBLIB/Core/Src/usbd_ctlreq.c ****           }
 433              		.loc 1 500 13 is_stmt 1 view .LVU150
 500:USBLIB/Core/Src/usbd_ctlreq.c ****           }
 434              		.loc 1 500 20 is_stmt 0 view .LVU151
 435 00b6 0DF10601 		add	r1, sp, #6
 436 00ba 007C     		ldrb	r0, [r0, #16]	@ zero_extendqisi2
 437              	.LVL45:
 500:USBLIB/Core/Src/usbd_ctlreq.c ****           }
 438              		.loc 1 500 20 view .LVU152
 439 00bc 9847     		blx	r3
 440              	.LVL46:
 651:USBLIB/Core/Src/usbd_ctlreq.c ****   {
 441              		.loc 1 651 3 is_stmt 1 view .LVU153
 442 00be B9E7     		b	.L15
 443              	.LVL47:
 444              	.L27:
 504:USBLIB/Core/Src/usbd_ctlreq.c ****             err++;
 445              		.loc 1 504 13 view .LVU154
 446 00c0 2946     		mov	r1, r5
 447 00c2 FFF7FEFF 		bl	USBD_CtlError
 448              	.LVL48:
 505:USBLIB/Core/Src/usbd_ctlreq.c ****           }
 449              		.loc 1 505 13 view .LVU155
 651:USBLIB/Core/Src/usbd_ctlreq.c ****   {
 450              		.loc 1 651 3 view .LVU156
 451 00c6 C7E7     		b	.L7
 452              	.LVL49:
 453              	.L22:
 510:USBLIB/Core/Src/usbd_ctlreq.c ****           {
 454              		.loc 1 510 11 view .LVU157
 510:USBLIB/Core/Src/usbd_ctlreq.c ****           {
 455              		.loc 1 510 19 is_stmt 0 view .LVU158
 456 00c8 D0F8B432 		ldr	r3, [r0, #692]
 510:USBLIB/Core/Src/usbd_ctlreq.c ****           {
 457              		.loc 1 510 26 view .LVU159
 458 00cc DB68     		ldr	r3, [r3, #12]
 510:USBLIB/Core/Src/usbd_ctlreq.c ****           {
 459              		.loc 1 510 14 view .LVU160
 460 00ce 23B1     		cbz	r3, .L28
 512:USBLIB/Core/Src/usbd_ctlreq.c ****           }
 461              		.loc 1 512 13 is_stmt 1 view .LVU161
ARM GAS  C:\Users\Jim_YW\AppData\Local\Temp\ccPBemKn.s 			page 37


 512:USBLIB/Core/Src/usbd_ctlreq.c ****           }
 462              		.loc 1 512 20 is_stmt 0 view .LVU162
 463 00d0 0DF10601 		add	r1, sp, #6
 464 00d4 007C     		ldrb	r0, [r0, #16]	@ zero_extendqisi2
 465              	.LVL50:
 512:USBLIB/Core/Src/usbd_ctlreq.c ****           }
 466              		.loc 1 512 20 view .LVU163
 467 00d6 9847     		blx	r3
 468              	.LVL51:
 651:USBLIB/Core/Src/usbd_ctlreq.c ****   {
 469              		.loc 1 651 3 is_stmt 1 view .LVU164
 470 00d8 ACE7     		b	.L15
 471              	.LVL52:
 472              	.L28:
 516:USBLIB/Core/Src/usbd_ctlreq.c ****             err++;
 473              		.loc 1 516 13 view .LVU165
 474 00da 2946     		mov	r1, r5
 475 00dc FFF7FEFF 		bl	USBD_CtlError
 476              	.LVL53:
 517:USBLIB/Core/Src/usbd_ctlreq.c ****           }
 477              		.loc 1 517 13 view .LVU166
 651:USBLIB/Core/Src/usbd_ctlreq.c ****   {
 478              		.loc 1 651 3 view .LVU167
 479 00e0 BAE7     		b	.L7
 480              	.LVL54:
 481              	.L21:
 522:USBLIB/Core/Src/usbd_ctlreq.c ****           {
 482              		.loc 1 522 11 view .LVU168
 522:USBLIB/Core/Src/usbd_ctlreq.c ****           {
 483              		.loc 1 522 19 is_stmt 0 view .LVU169
 484 00e2 D0F8B432 		ldr	r3, [r0, #692]
 522:USBLIB/Core/Src/usbd_ctlreq.c ****           {
 485              		.loc 1 522 26 view .LVU170
 486 00e6 1B69     		ldr	r3, [r3, #16]
 522:USBLIB/Core/Src/usbd_ctlreq.c ****           {
 487              		.loc 1 522 14 view .LVU171
 488 00e8 23B1     		cbz	r3, .L29
 524:USBLIB/Core/Src/usbd_ctlreq.c ****           }
 489              		.loc 1 524 13 is_stmt 1 view .LVU172
 524:USBLIB/Core/Src/usbd_ctlreq.c ****           }
 490              		.loc 1 524 20 is_stmt 0 view .LVU173
 491 00ea 0DF10601 		add	r1, sp, #6
 492 00ee 007C     		ldrb	r0, [r0, #16]	@ zero_extendqisi2
 493              	.LVL55:
 524:USBLIB/Core/Src/usbd_ctlreq.c ****           }
 494              		.loc 1 524 20 view .LVU174
 495 00f0 9847     		blx	r3
 496              	.LVL56:
 651:USBLIB/Core/Src/usbd_ctlreq.c ****   {
 497              		.loc 1 651 3 is_stmt 1 view .LVU175
 498 00f2 9FE7     		b	.L15
 499              	.LVL57:
 500              	.L29:
 528:USBLIB/Core/Src/usbd_ctlreq.c ****             err++;
 501              		.loc 1 528 13 view .LVU176
 502 00f4 2946     		mov	r1, r5
 503 00f6 FFF7FEFF 		bl	USBD_CtlError
ARM GAS  C:\Users\Jim_YW\AppData\Local\Temp\ccPBemKn.s 			page 38


 504              	.LVL58:
 529:USBLIB/Core/Src/usbd_ctlreq.c ****           }
 505              		.loc 1 529 13 view .LVU177
 651:USBLIB/Core/Src/usbd_ctlreq.c ****   {
 506              		.loc 1 651 3 view .LVU178
 507 00fa ADE7     		b	.L7
 508              	.LVL59:
 509              	.L20:
 534:USBLIB/Core/Src/usbd_ctlreq.c ****           {
 510              		.loc 1 534 11 view .LVU179
 534:USBLIB/Core/Src/usbd_ctlreq.c ****           {
 511              		.loc 1 534 19 is_stmt 0 view .LVU180
 512 00fc D0F8B432 		ldr	r3, [r0, #692]
 534:USBLIB/Core/Src/usbd_ctlreq.c ****           {
 513              		.loc 1 534 26 view .LVU181
 514 0100 5B69     		ldr	r3, [r3, #20]
 534:USBLIB/Core/Src/usbd_ctlreq.c ****           {
 515              		.loc 1 534 14 view .LVU182
 516 0102 23B1     		cbz	r3, .L30
 536:USBLIB/Core/Src/usbd_ctlreq.c ****           }
 517              		.loc 1 536 13 is_stmt 1 view .LVU183
 536:USBLIB/Core/Src/usbd_ctlreq.c ****           }
 518              		.loc 1 536 20 is_stmt 0 view .LVU184
 519 0104 0DF10601 		add	r1, sp, #6
 520 0108 007C     		ldrb	r0, [r0, #16]	@ zero_extendqisi2
 521              	.LVL60:
 536:USBLIB/Core/Src/usbd_ctlreq.c ****           }
 522              		.loc 1 536 20 view .LVU185
 523 010a 9847     		blx	r3
 524              	.LVL61:
 651:USBLIB/Core/Src/usbd_ctlreq.c ****   {
 525              		.loc 1 651 3 is_stmt 1 view .LVU186
 526 010c 92E7     		b	.L15
 527              	.LVL62:
 528              	.L30:
 540:USBLIB/Core/Src/usbd_ctlreq.c ****             err++;
 529              		.loc 1 540 13 view .LVU187
 530 010e 2946     		mov	r1, r5
 531 0110 FFF7FEFF 		bl	USBD_CtlError
 532              	.LVL63:
 541:USBLIB/Core/Src/usbd_ctlreq.c ****           }
 533              		.loc 1 541 13 view .LVU188
 651:USBLIB/Core/Src/usbd_ctlreq.c ****   {
 534              		.loc 1 651 3 view .LVU189
 535 0114 A0E7     		b	.L7
 536              	.LVL64:
 537              	.L18:
 546:USBLIB/Core/Src/usbd_ctlreq.c ****           {
 538              		.loc 1 546 11 view .LVU190
 546:USBLIB/Core/Src/usbd_ctlreq.c ****           {
 539              		.loc 1 546 19 is_stmt 0 view .LVU191
 540 0116 D0F8B432 		ldr	r3, [r0, #692]
 546:USBLIB/Core/Src/usbd_ctlreq.c ****           {
 541              		.loc 1 546 26 view .LVU192
 542 011a 9B69     		ldr	r3, [r3, #24]
 546:USBLIB/Core/Src/usbd_ctlreq.c ****           {
 543              		.loc 1 546 14 view .LVU193
ARM GAS  C:\Users\Jim_YW\AppData\Local\Temp\ccPBemKn.s 			page 39


 544 011c 23B1     		cbz	r3, .L31
 548:USBLIB/Core/Src/usbd_ctlreq.c ****           }
 545              		.loc 1 548 13 is_stmt 1 view .LVU194
 548:USBLIB/Core/Src/usbd_ctlreq.c ****           }
 546              		.loc 1 548 20 is_stmt 0 view .LVU195
 547 011e 0DF10601 		add	r1, sp, #6
 548 0122 007C     		ldrb	r0, [r0, #16]	@ zero_extendqisi2
 549              	.LVL65:
 548:USBLIB/Core/Src/usbd_ctlreq.c ****           }
 550              		.loc 1 548 20 view .LVU196
 551 0124 9847     		blx	r3
 552              	.LVL66:
 651:USBLIB/Core/Src/usbd_ctlreq.c ****   {
 553              		.loc 1 651 3 is_stmt 1 view .LVU197
 554 0126 85E7     		b	.L15
 555              	.LVL67:
 556              	.L31:
 552:USBLIB/Core/Src/usbd_ctlreq.c ****             err++;
 557              		.loc 1 552 13 view .LVU198
 558 0128 2946     		mov	r1, r5
 559 012a FFF7FEFF 		bl	USBD_CtlError
 560              	.LVL68:
 553:USBLIB/Core/Src/usbd_ctlreq.c ****           }
 561              		.loc 1 553 13 view .LVU199
 651:USBLIB/Core/Src/usbd_ctlreq.c ****   {
 562              		.loc 1 651 3 view .LVU200
 563 012e 93E7     		b	.L7
 564              	.LVL69:
 565              	.L17:
 595:USBLIB/Core/Src/usbd_ctlreq.c ****           err++;
 566              		.loc 1 595 11 view .LVU201
 567 0130 2946     		mov	r1, r5
 568 0132 FFF7FEFF 		bl	USBD_CtlError
 569              	.LVL70:
 596:USBLIB/Core/Src/usbd_ctlreq.c **** #endif /* (USBD_CLASS_USER_STRING_DESC == 0U) && (USBD_SUPPORT_USER_STRING_DESC == 0U) */
 570              		.loc 1 596 11 view .LVU202
 598:USBLIB/Core/Src/usbd_ctlreq.c ****       }
 571              		.loc 1 598 11 view .LVU203
 651:USBLIB/Core/Src/usbd_ctlreq.c ****   {
 572              		.loc 1 651 3 view .LVU204
 573 0136 8FE7     		b	.L7
 574              	.LVL71:
 575              	.L11:
 603:USBLIB/Core/Src/usbd_ctlreq.c ****       {
 576              		.loc 1 603 7 view .LVU205
 603:USBLIB/Core/Src/usbd_ctlreq.c ****       {
 577              		.loc 1 603 15 is_stmt 0 view .LVU206
 578 0138 037C     		ldrb	r3, [r0, #16]	@ zero_extendqisi2
 603:USBLIB/Core/Src/usbd_ctlreq.c ****       {
 579              		.loc 1 603 10 view .LVU207
 580 013a 33B9     		cbnz	r3, .L32
 613:USBLIB/Core/Src/usbd_ctlreq.c ****         }
 581              		.loc 1 613 11 is_stmt 1 view .LVU208
 613:USBLIB/Core/Src/usbd_ctlreq.c ****         }
 582              		.loc 1 613 41 is_stmt 0 view .LVU209
 583 013c D0F8B832 		ldr	r3, [r0, #696]
 613:USBLIB/Core/Src/usbd_ctlreq.c ****         }
ARM GAS  C:\Users\Jim_YW\AppData\Local\Temp\ccPBemKn.s 			page 40


 584              		.loc 1 613 44 view .LVU210
 585 0140 5B6B     		ldr	r3, [r3, #52]
 613:USBLIB/Core/Src/usbd_ctlreq.c ****         }
 586              		.loc 1 613 18 view .LVU211
 587 0142 0DF10600 		add	r0, sp, #6
 588              	.LVL72:
 613:USBLIB/Core/Src/usbd_ctlreq.c ****         }
 589              		.loc 1 613 18 view .LVU212
 590 0146 9847     		blx	r3
 591              	.LVL73:
 651:USBLIB/Core/Src/usbd_ctlreq.c ****   {
 592              		.loc 1 651 3 is_stmt 1 view .LVU213
 593 0148 74E7     		b	.L15
 594              	.LVL74:
 595              	.L32:
 618:USBLIB/Core/Src/usbd_ctlreq.c ****         err++;
 596              		.loc 1 618 9 view .LVU214
 597 014a 2946     		mov	r1, r5
 598 014c FFF7FEFF 		bl	USBD_CtlError
 599              	.LVL75:
 619:USBLIB/Core/Src/usbd_ctlreq.c ****       }
 600              		.loc 1 619 9 view .LVU215
 651:USBLIB/Core/Src/usbd_ctlreq.c ****   {
 601              		.loc 1 651 3 view .LVU216
 602 0150 82E7     		b	.L7
 603              	.LVL76:
 604              	.L9:
 624:USBLIB/Core/Src/usbd_ctlreq.c ****       {
 605              		.loc 1 624 7 view .LVU217
 624:USBLIB/Core/Src/usbd_ctlreq.c ****       {
 606              		.loc 1 624 15 is_stmt 0 view .LVU218
 607 0152 037C     		ldrb	r3, [r0, #16]	@ zero_extendqisi2
 624:USBLIB/Core/Src/usbd_ctlreq.c ****       {
 608              		.loc 1 624 10 view .LVU219
 609 0154 43B9     		cbnz	r3, .L33
 634:USBLIB/Core/Src/usbd_ctlreq.c ****         }
 610              		.loc 1 634 11 is_stmt 1 view .LVU220
 634:USBLIB/Core/Src/usbd_ctlreq.c ****         }
 611              		.loc 1 634 41 is_stmt 0 view .LVU221
 612 0156 D0F8B832 		ldr	r3, [r0, #696]
 634:USBLIB/Core/Src/usbd_ctlreq.c ****         }
 613              		.loc 1 634 44 view .LVU222
 614 015a 1B6B     		ldr	r3, [r3, #48]
 634:USBLIB/Core/Src/usbd_ctlreq.c ****         }
 615              		.loc 1 634 18 view .LVU223
 616 015c 0DF10600 		add	r0, sp, #6
 617              	.LVL77:
 634:USBLIB/Core/Src/usbd_ctlreq.c ****         }
 618              		.loc 1 634 18 view .LVU224
 619 0160 9847     		blx	r3
 620              	.LVL78:
 636:USBLIB/Core/Src/usbd_ctlreq.c ****       }
 621              		.loc 1 636 9 is_stmt 1 view .LVU225
 636:USBLIB/Core/Src/usbd_ctlreq.c ****       }
 622              		.loc 1 636 17 is_stmt 0 view .LVU226
 623 0162 0723     		movs	r3, #7
 624 0164 4370     		strb	r3, [r0, #1]
ARM GAS  C:\Users\Jim_YW\AppData\Local\Temp\ccPBemKn.s 			page 41


 651:USBLIB/Core/Src/usbd_ctlreq.c ****   {
 625              		.loc 1 651 3 is_stmt 1 view .LVU227
 626 0166 65E7     		b	.L15
 627              	.LVL79:
 628              	.L33:
 640:USBLIB/Core/Src/usbd_ctlreq.c ****         err++;
 629              		.loc 1 640 9 view .LVU228
 630 0168 2946     		mov	r1, r5
 631 016a FFF7FEFF 		bl	USBD_CtlError
 632              	.LVL80:
 641:USBLIB/Core/Src/usbd_ctlreq.c ****       }
 633              		.loc 1 641 9 view .LVU229
 651:USBLIB/Core/Src/usbd_ctlreq.c ****   {
 634              		.loc 1 651 3 view .LVU230
 635 016e 73E7     		b	.L7
 636              	.LVL81:
 637              	.L8:
 646:USBLIB/Core/Src/usbd_ctlreq.c ****       err++;
 638              		.loc 1 646 7 view .LVU231
 639 0170 2946     		mov	r1, r5
 640 0172 FFF7FEFF 		bl	USBD_CtlError
 641              	.LVL82:
 647:USBLIB/Core/Src/usbd_ctlreq.c ****       break;
 642              		.loc 1 647 7 view .LVU232
 648:USBLIB/Core/Src/usbd_ctlreq.c ****   }
 643              		.loc 1 648 7 view .LVU233
 651:USBLIB/Core/Src/usbd_ctlreq.c ****   {
 644              		.loc 1 651 3 view .LVU234
 653:USBLIB/Core/Src/usbd_ctlreq.c ****   }
 645              		.loc 1 653 5 view .LVU235
 646 0176 6FE7     		b	.L7
 647              	.LVL83:
 648              	.L36:
 665:USBLIB/Core/Src/usbd_ctlreq.c ****     }
 649              		.loc 1 665 7 view .LVU236
 650 0178 2946     		mov	r1, r5
 651 017a 2046     		mov	r0, r4
 652              	.LVL84:
 665:USBLIB/Core/Src/usbd_ctlreq.c ****     }
 653              		.loc 1 665 7 is_stmt 0 view .LVU237
 654 017c FFF7FEFF 		bl	USBD_CtlError
 655              	.LVL85:
 656 0180 6AE7     		b	.L7
 657              	.LVL86:
 658              	.L35:
 670:USBLIB/Core/Src/usbd_ctlreq.c ****   }
 659              		.loc 1 670 5 is_stmt 1 view .LVU238
 670:USBLIB/Core/Src/usbd_ctlreq.c ****   }
 660              		.loc 1 670 11 is_stmt 0 view .LVU239
 661 0182 2046     		mov	r0, r4
 662              	.LVL87:
 670:USBLIB/Core/Src/usbd_ctlreq.c ****   }
 663              		.loc 1 670 11 view .LVU240
 664 0184 FFF7FEFF 		bl	USBD_CtlSendStatus
 665              	.LVL88:
 666 0188 66E7     		b	.L7
 667              		.cfi_endproc
ARM GAS  C:\Users\Jim_YW\AppData\Local\Temp\ccPBemKn.s 			page 42


 668              	.LFE137:
 670              		.section	.text.USBD_SetAddress,"ax",%progbits
 671              		.align	1
 672              		.syntax unified
 673              		.thumb
 674              		.thumb_func
 676              	USBD_SetAddress:
 677              	.LVL89:
 678              	.LFB138:
 683:USBLIB/Core/Src/usbd_ctlreq.c ****   uint8_t  dev_addr;
 679              		.loc 1 683 1 is_stmt 1 view -0
 680              		.cfi_startproc
 681              		@ args = 0, pretend = 0, frame = 0
 682              		@ frame_needed = 0, uses_anonymous_args = 0
 683:USBLIB/Core/Src/usbd_ctlreq.c ****   uint8_t  dev_addr;
 683              		.loc 1 683 1 is_stmt 0 view .LVU242
 684 0000 38B5     		push	{r3, r4, r5, lr}
 685              	.LCFI5:
 686              		.cfi_def_cfa_offset 16
 687              		.cfi_offset 3, -16
 688              		.cfi_offset 4, -12
 689              		.cfi_offset 5, -8
 690              		.cfi_offset 14, -4
 691 0002 0446     		mov	r4, r0
 684:USBLIB/Core/Src/usbd_ctlreq.c **** 
 692              		.loc 1 684 3 is_stmt 1 view .LVU243
 686:USBLIB/Core/Src/usbd_ctlreq.c ****   {
 693              		.loc 1 686 3 view .LVU244
 686:USBLIB/Core/Src/usbd_ctlreq.c ****   {
 694              		.loc 1 686 11 is_stmt 0 view .LVU245
 695 0004 8B88     		ldrh	r3, [r1, #4]
 686:USBLIB/Core/Src/usbd_ctlreq.c ****   {
 696              		.loc 1 686 6 view .LVU246
 697 0006 FBB9     		cbnz	r3, .L40
 686:USBLIB/Core/Src/usbd_ctlreq.c ****   {
 698              		.loc 1 686 34 discriminator 1 view .LVU247
 699 0008 CB88     		ldrh	r3, [r1, #6]
 686:USBLIB/Core/Src/usbd_ctlreq.c ****   {
 700              		.loc 1 686 27 discriminator 1 view .LVU248
 701 000a EBB9     		cbnz	r3, .L40
 686:USBLIB/Core/Src/usbd_ctlreq.c ****   {
 702              		.loc 1 686 58 discriminator 2 view .LVU249
 703 000c 4B88     		ldrh	r3, [r1, #2]
 686:USBLIB/Core/Src/usbd_ctlreq.c ****   {
 704              		.loc 1 686 51 discriminator 2 view .LVU250
 705 000e 7F2B     		cmp	r3, #127
 706 0010 1AD8     		bhi	.L40
 688:USBLIB/Core/Src/usbd_ctlreq.c **** 
 707              		.loc 1 688 5 is_stmt 1 view .LVU251
 688:USBLIB/Core/Src/usbd_ctlreq.c **** 
 708              		.loc 1 688 14 is_stmt 0 view .LVU252
 709 0012 03F07F05 		and	r5, r3, #127
 710              	.LVL90:
 690:USBLIB/Core/Src/usbd_ctlreq.c ****     {
 711              		.loc 1 690 5 is_stmt 1 view .LVU253
 690:USBLIB/Core/Src/usbd_ctlreq.c ****     {
 712              		.loc 1 690 13 is_stmt 0 view .LVU254
ARM GAS  C:\Users\Jim_YW\AppData\Local\Temp\ccPBemKn.s 			page 43


 713 0016 90F89C32 		ldrb	r3, [r0, #668]	@ zero_extendqisi2
 714 001a DBB2     		uxtb	r3, r3
 690:USBLIB/Core/Src/usbd_ctlreq.c ****     {
 715              		.loc 1 690 8 view .LVU255
 716 001c 032B     		cmp	r3, #3
 717 001e 0CD0     		beq	.L45
 696:USBLIB/Core/Src/usbd_ctlreq.c ****       (void)USBD_LL_SetUSBAddress(pdev, dev_addr);
 718              		.loc 1 696 7 is_stmt 1 view .LVU256
 696:USBLIB/Core/Src/usbd_ctlreq.c ****       (void)USBD_LL_SetUSBAddress(pdev, dev_addr);
 719              		.loc 1 696 25 is_stmt 0 view .LVU257
 720 0020 80F89E52 		strb	r5, [r0, #670]
 697:USBLIB/Core/Src/usbd_ctlreq.c ****       (void)USBD_CtlSendStatus(pdev);
 721              		.loc 1 697 7 is_stmt 1 view .LVU258
 697:USBLIB/Core/Src/usbd_ctlreq.c ****       (void)USBD_CtlSendStatus(pdev);
 722              		.loc 1 697 13 is_stmt 0 view .LVU259
 723 0024 2946     		mov	r1, r5
 724              	.LVL91:
 697:USBLIB/Core/Src/usbd_ctlreq.c ****       (void)USBD_CtlSendStatus(pdev);
 725              		.loc 1 697 13 view .LVU260
 726 0026 FFF7FEFF 		bl	USBD_LL_SetUSBAddress
 727              	.LVL92:
 698:USBLIB/Core/Src/usbd_ctlreq.c **** 
 728              		.loc 1 698 7 is_stmt 1 view .LVU261
 698:USBLIB/Core/Src/usbd_ctlreq.c **** 
 729              		.loc 1 698 13 is_stmt 0 view .LVU262
 730 002a 2046     		mov	r0, r4
 731 002c FFF7FEFF 		bl	USBD_CtlSendStatus
 732              	.LVL93:
 700:USBLIB/Core/Src/usbd_ctlreq.c ****       {
 733              		.loc 1 700 7 is_stmt 1 view .LVU263
 700:USBLIB/Core/Src/usbd_ctlreq.c ****       {
 734              		.loc 1 700 10 is_stmt 0 view .LVU264
 735 0030 35B1     		cbz	r5, .L43
 702:USBLIB/Core/Src/usbd_ctlreq.c ****       }
 736              		.loc 1 702 9 is_stmt 1 view .LVU265
 702:USBLIB/Core/Src/usbd_ctlreq.c ****       }
 737              		.loc 1 702 25 is_stmt 0 view .LVU266
 738 0032 0223     		movs	r3, #2
 739 0034 84F89C32 		strb	r3, [r4, #668]
 740 0038 09E0     		b	.L39
 741              	.LVL94:
 742              	.L45:
 692:USBLIB/Core/Src/usbd_ctlreq.c ****     }
 743              		.loc 1 692 7 is_stmt 1 view .LVU267
 744 003a FFF7FEFF 		bl	USBD_CtlError
 745              	.LVL95:
 692:USBLIB/Core/Src/usbd_ctlreq.c ****     }
 746              		.loc 1 692 7 is_stmt 0 view .LVU268
 747 003e 06E0     		b	.L39
 748              	.L43:
 706:USBLIB/Core/Src/usbd_ctlreq.c ****       }
 749              		.loc 1 706 9 is_stmt 1 view .LVU269
 706:USBLIB/Core/Src/usbd_ctlreq.c ****       }
 750              		.loc 1 706 25 is_stmt 0 view .LVU270
 751 0040 0123     		movs	r3, #1
 752 0042 84F89C32 		strb	r3, [r4, #668]
 753 0046 02E0     		b	.L39
ARM GAS  C:\Users\Jim_YW\AppData\Local\Temp\ccPBemKn.s 			page 44


 754              	.LVL96:
 755              	.L40:
 712:USBLIB/Core/Src/usbd_ctlreq.c ****   }
 756              		.loc 1 712 5 is_stmt 1 view .LVU271
 757 0048 2046     		mov	r0, r4
 758              	.LVL97:
 712:USBLIB/Core/Src/usbd_ctlreq.c ****   }
 759              		.loc 1 712 5 is_stmt 0 view .LVU272
 760 004a FFF7FEFF 		bl	USBD_CtlError
 761              	.LVL98:
 762              	.L39:
 714:USBLIB/Core/Src/usbd_ctlreq.c **** 
 763              		.loc 1 714 1 view .LVU273
 764 004e 38BD     		pop	{r3, r4, r5, pc}
 714:USBLIB/Core/Src/usbd_ctlreq.c **** 
 765              		.loc 1 714 1 view .LVU274
 766              		.cfi_endproc
 767              	.LFE138:
 769              		.section	.text.USBD_SetConfig,"ax",%progbits
 770              		.align	1
 771              		.syntax unified
 772              		.thumb
 773              		.thumb_func
 775              	USBD_SetConfig:
 776              	.LVL99:
 777              	.LFB139:
 724:USBLIB/Core/Src/usbd_ctlreq.c ****   USBD_StatusTypeDef ret = USBD_OK;
 778              		.loc 1 724 1 is_stmt 1 view -0
 779              		.cfi_startproc
 780              		@ args = 0, pretend = 0, frame = 0
 781              		@ frame_needed = 0, uses_anonymous_args = 0
 724:USBLIB/Core/Src/usbd_ctlreq.c ****   USBD_StatusTypeDef ret = USBD_OK;
 782              		.loc 1 724 1 is_stmt 0 view .LVU276
 783 0000 70B5     		push	{r4, r5, r6, lr}
 784              	.LCFI6:
 785              		.cfi_def_cfa_offset 16
 786              		.cfi_offset 4, -16
 787              		.cfi_offset 5, -12
 788              		.cfi_offset 6, -8
 789              		.cfi_offset 14, -4
 790 0002 0446     		mov	r4, r0
 791 0004 0E46     		mov	r6, r1
 725:USBLIB/Core/Src/usbd_ctlreq.c ****   static uint8_t cfgidx;
 792              		.loc 1 725 3 is_stmt 1 view .LVU277
 793              	.LVL100:
 726:USBLIB/Core/Src/usbd_ctlreq.c **** 
 794              		.loc 1 726 3 view .LVU278
 728:USBLIB/Core/Src/usbd_ctlreq.c **** 
 795              		.loc 1 728 3 view .LVU279
 728:USBLIB/Core/Src/usbd_ctlreq.c **** 
 796              		.loc 1 728 12 is_stmt 0 view .LVU280
 797 0006 8D78     		ldrb	r5, [r1, #2]	@ zero_extendqisi2
 728:USBLIB/Core/Src/usbd_ctlreq.c **** 
 798              		.loc 1 728 10 view .LVU281
 799 0008 2F4B     		ldr	r3, .L61
 800 000a 1D70     		strb	r5, [r3]
 730:USBLIB/Core/Src/usbd_ctlreq.c ****   {
ARM GAS  C:\Users\Jim_YW\AppData\Local\Temp\ccPBemKn.s 			page 45


 801              		.loc 1 730 3 is_stmt 1 view .LVU282
 730:USBLIB/Core/Src/usbd_ctlreq.c ****   {
 802              		.loc 1 730 6 is_stmt 0 view .LVU283
 803 000c 012D     		cmp	r5, #1
 804 000e 10D8     		bhi	.L59
 736:USBLIB/Core/Src/usbd_ctlreq.c ****   {
 805              		.loc 1 736 3 is_stmt 1 view .LVU284
 736:USBLIB/Core/Src/usbd_ctlreq.c ****   {
 806              		.loc 1 736 15 is_stmt 0 view .LVU285
 807 0010 90F89C32 		ldrb	r3, [r0, #668]	@ zero_extendqisi2
 808 0014 DBB2     		uxtb	r3, r3
 736:USBLIB/Core/Src/usbd_ctlreq.c ****   {
 809              		.loc 1 736 3 view .LVU286
 810 0016 022B     		cmp	r3, #2
 811 0018 0FD0     		beq	.L49
 812 001a 032B     		cmp	r3, #3
 813 001c 26D0     		beq	.L50
 798:USBLIB/Core/Src/usbd_ctlreq.c ****       (void)USBD_ClrClassConfig(pdev, cfgidx);
 814              		.loc 1 798 7 is_stmt 1 view .LVU287
 815 001e FFF7FEFF 		bl	USBD_CtlError
 816              	.LVL101:
 799:USBLIB/Core/Src/usbd_ctlreq.c ****       ret = USBD_FAIL;
 817              		.loc 1 799 7 view .LVU288
 799:USBLIB/Core/Src/usbd_ctlreq.c ****       ret = USBD_FAIL;
 818              		.loc 1 799 13 is_stmt 0 view .LVU289
 819 0022 294B     		ldr	r3, .L61
 820 0024 1978     		ldrb	r1, [r3]	@ zero_extendqisi2
 821 0026 2046     		mov	r0, r4
 822 0028 FFF7FEFF 		bl	USBD_ClrClassConfig
 823              	.LVL102:
 800:USBLIB/Core/Src/usbd_ctlreq.c ****       break;
 824              		.loc 1 800 7 is_stmt 1 view .LVU290
 801:USBLIB/Core/Src/usbd_ctlreq.c ****   }
 825              		.loc 1 801 7 view .LVU291
 800:USBLIB/Core/Src/usbd_ctlreq.c ****       break;
 826              		.loc 1 800 11 is_stmt 0 view .LVU292
 827 002c 0325     		movs	r5, #3
 828              	.LVL103:
 829              	.L48:
 805:USBLIB/Core/Src/usbd_ctlreq.c **** 
 830              		.loc 1 805 1 view .LVU293
 831 002e 2846     		mov	r0, r5
 832 0030 70BD     		pop	{r4, r5, r6, pc}
 833              	.LVL104:
 834              	.L59:
 732:USBLIB/Core/Src/usbd_ctlreq.c ****     return USBD_FAIL;
 835              		.loc 1 732 5 is_stmt 1 view .LVU294
 836 0032 FFF7FEFF 		bl	USBD_CtlError
 837              	.LVL105:
 733:USBLIB/Core/Src/usbd_ctlreq.c ****   }
 838              		.loc 1 733 5 view .LVU295
 733:USBLIB/Core/Src/usbd_ctlreq.c ****   }
 839              		.loc 1 733 12 is_stmt 0 view .LVU296
 840 0036 0325     		movs	r5, #3
 841 0038 F9E7     		b	.L48
 842              	.LVL106:
 843              	.L49:
ARM GAS  C:\Users\Jim_YW\AppData\Local\Temp\ccPBemKn.s 			page 46


 739:USBLIB/Core/Src/usbd_ctlreq.c ****       {
 844              		.loc 1 739 7 is_stmt 1 view .LVU297
 739:USBLIB/Core/Src/usbd_ctlreq.c ****       {
 845              		.loc 1 739 10 is_stmt 0 view .LVU298
 846 003a A5B1     		cbz	r5, .L52
 741:USBLIB/Core/Src/usbd_ctlreq.c **** 
 847              		.loc 1 741 9 is_stmt 1 view .LVU299
 741:USBLIB/Core/Src/usbd_ctlreq.c **** 
 848              		.loc 1 741 26 is_stmt 0 view .LVU300
 849 003c 4560     		str	r5, [r0, #4]
 743:USBLIB/Core/Src/usbd_ctlreq.c **** 
 850              		.loc 1 743 9 is_stmt 1 view .LVU301
 743:USBLIB/Core/Src/usbd_ctlreq.c **** 
 851              		.loc 1 743 15 is_stmt 0 view .LVU302
 852 003e 2946     		mov	r1, r5
 853              	.LVL107:
 743:USBLIB/Core/Src/usbd_ctlreq.c **** 
 854              		.loc 1 743 15 view .LVU303
 855 0040 FFF7FEFF 		bl	USBD_SetClassConfig
 856              	.LVL108:
 745:USBLIB/Core/Src/usbd_ctlreq.c ****         {
 857              		.loc 1 745 9 is_stmt 1 view .LVU304
 745:USBLIB/Core/Src/usbd_ctlreq.c ****         {
 858              		.loc 1 745 12 is_stmt 0 view .LVU305
 859 0044 0546     		mov	r5, r0
 860 0046 38B1     		cbz	r0, .L53
 747:USBLIB/Core/Src/usbd_ctlreq.c ****           pdev->dev_state = USBD_STATE_ADDRESSED;
 861              		.loc 1 747 11 is_stmt 1 view .LVU306
 862 0048 3146     		mov	r1, r6
 863 004a 2046     		mov	r0, r4
 864              	.LVL109:
 747:USBLIB/Core/Src/usbd_ctlreq.c ****           pdev->dev_state = USBD_STATE_ADDRESSED;
 865              		.loc 1 747 11 is_stmt 0 view .LVU307
 866 004c FFF7FEFF 		bl	USBD_CtlError
 867              	.LVL110:
 748:USBLIB/Core/Src/usbd_ctlreq.c ****         }
 868              		.loc 1 748 11 is_stmt 1 view .LVU308
 748:USBLIB/Core/Src/usbd_ctlreq.c ****         }
 869              		.loc 1 748 27 is_stmt 0 view .LVU309
 870 0050 0223     		movs	r3, #2
 871 0052 84F89C32 		strb	r3, [r4, #668]
 872 0056 EAE7     		b	.L48
 873              	.LVL111:
 874              	.L53:
 752:USBLIB/Core/Src/usbd_ctlreq.c ****           pdev->dev_state = USBD_STATE_CONFIGURED;
 875              		.loc 1 752 11 is_stmt 1 view .LVU310
 752:USBLIB/Core/Src/usbd_ctlreq.c ****           pdev->dev_state = USBD_STATE_CONFIGURED;
 876              		.loc 1 752 17 is_stmt 0 view .LVU311
 877 0058 2046     		mov	r0, r4
 878              	.LVL112:
 752:USBLIB/Core/Src/usbd_ctlreq.c ****           pdev->dev_state = USBD_STATE_CONFIGURED;
 879              		.loc 1 752 17 view .LVU312
 880 005a FFF7FEFF 		bl	USBD_CtlSendStatus
 881              	.LVL113:
 753:USBLIB/Core/Src/usbd_ctlreq.c ****         }
 882              		.loc 1 753 11 is_stmt 1 view .LVU313
 753:USBLIB/Core/Src/usbd_ctlreq.c ****         }
ARM GAS  C:\Users\Jim_YW\AppData\Local\Temp\ccPBemKn.s 			page 47


 883              		.loc 1 753 27 is_stmt 0 view .LVU314
 884 005e 0323     		movs	r3, #3
 885 0060 84F89C32 		strb	r3, [r4, #668]
 886 0064 E3E7     		b	.L48
 887              	.LVL114:
 888              	.L52:
 758:USBLIB/Core/Src/usbd_ctlreq.c ****       }
 889              		.loc 1 758 9 is_stmt 1 view .LVU315
 758:USBLIB/Core/Src/usbd_ctlreq.c ****       }
 890              		.loc 1 758 15 is_stmt 0 view .LVU316
 891 0066 FFF7FEFF 		bl	USBD_CtlSendStatus
 892              	.LVL115:
 758:USBLIB/Core/Src/usbd_ctlreq.c ****       }
 893              		.loc 1 758 15 view .LVU317
 894 006a E0E7     		b	.L48
 895              	.LVL116:
 896              	.L50:
 763:USBLIB/Core/Src/usbd_ctlreq.c ****       {
 897              		.loc 1 763 7 is_stmt 1 view .LVU318
 763:USBLIB/Core/Src/usbd_ctlreq.c ****       {
 898              		.loc 1 763 10 is_stmt 0 view .LVU319
 899 006c CDB1     		cbz	r5, .L60
 770:USBLIB/Core/Src/usbd_ctlreq.c ****       {
 900              		.loc 1 770 12 is_stmt 1 view .LVU320
 770:USBLIB/Core/Src/usbd_ctlreq.c ****       {
 901              		.loc 1 770 30 is_stmt 0 view .LVU321
 902 006e 4168     		ldr	r1, [r0, #4]
 903              	.LVL117:
 770:USBLIB/Core/Src/usbd_ctlreq.c ****       {
 904              		.loc 1 770 15 view .LVU322
 905 0070 8D42     		cmp	r5, r1
 906 0072 25D0     		beq	.L55
 773:USBLIB/Core/Src/usbd_ctlreq.c **** 
 907              		.loc 1 773 9 is_stmt 1 view .LVU323
 773:USBLIB/Core/Src/usbd_ctlreq.c **** 
 908              		.loc 1 773 15 is_stmt 0 view .LVU324
 909 0074 C9B2     		uxtb	r1, r1
 910 0076 FFF7FEFF 		bl	USBD_ClrClassConfig
 911              	.LVL118:
 776:USBLIB/Core/Src/usbd_ctlreq.c **** 
 912              		.loc 1 776 9 is_stmt 1 view .LVU325
 776:USBLIB/Core/Src/usbd_ctlreq.c **** 
 913              		.loc 1 776 26 is_stmt 0 view .LVU326
 914 007a 134B     		ldr	r3, .L61
 915 007c 1978     		ldrb	r1, [r3]	@ zero_extendqisi2
 916 007e 6160     		str	r1, [r4, #4]
 778:USBLIB/Core/Src/usbd_ctlreq.c **** 
 917              		.loc 1 778 9 is_stmt 1 view .LVU327
 778:USBLIB/Core/Src/usbd_ctlreq.c **** 
 918              		.loc 1 778 15 is_stmt 0 view .LVU328
 919 0080 2046     		mov	r0, r4
 920 0082 FFF7FEFF 		bl	USBD_SetClassConfig
 921              	.LVL119:
 780:USBLIB/Core/Src/usbd_ctlreq.c ****         {
 922              		.loc 1 780 9 is_stmt 1 view .LVU329
 780:USBLIB/Core/Src/usbd_ctlreq.c ****         {
 923              		.loc 1 780 12 is_stmt 0 view .LVU330
ARM GAS  C:\Users\Jim_YW\AppData\Local\Temp\ccPBemKn.s 			page 48


 924 0086 0546     		mov	r5, r0
 925 0088 B0B1     		cbz	r0, .L56
 782:USBLIB/Core/Src/usbd_ctlreq.c ****           (void)USBD_ClrClassConfig(pdev, (uint8_t)pdev->dev_config);
 926              		.loc 1 782 11 is_stmt 1 view .LVU331
 927 008a 3146     		mov	r1, r6
 928 008c 2046     		mov	r0, r4
 929              	.LVL120:
 782:USBLIB/Core/Src/usbd_ctlreq.c ****           (void)USBD_ClrClassConfig(pdev, (uint8_t)pdev->dev_config);
 930              		.loc 1 782 11 is_stmt 0 view .LVU332
 931 008e FFF7FEFF 		bl	USBD_CtlError
 932              	.LVL121:
 783:USBLIB/Core/Src/usbd_ctlreq.c ****           pdev->dev_state = USBD_STATE_ADDRESSED;
 933              		.loc 1 783 11 is_stmt 1 view .LVU333
 783:USBLIB/Core/Src/usbd_ctlreq.c ****           pdev->dev_state = USBD_STATE_ADDRESSED;
 934              		.loc 1 783 17 is_stmt 0 view .LVU334
 935 0092 2179     		ldrb	r1, [r4, #4]	@ zero_extendqisi2
 936 0094 2046     		mov	r0, r4
 937 0096 FFF7FEFF 		bl	USBD_ClrClassConfig
 938              	.LVL122:
 784:USBLIB/Core/Src/usbd_ctlreq.c ****         }
 939              		.loc 1 784 11 is_stmt 1 view .LVU335
 784:USBLIB/Core/Src/usbd_ctlreq.c ****         }
 940              		.loc 1 784 27 is_stmt 0 view .LVU336
 941 009a 0223     		movs	r3, #2
 942 009c 84F89C32 		strb	r3, [r4, #668]
 943 00a0 C5E7     		b	.L48
 944              	.LVL123:
 945              	.L60:
 765:USBLIB/Core/Src/usbd_ctlreq.c ****         pdev->dev_config = cfgidx;
 946              		.loc 1 765 9 is_stmt 1 view .LVU337
 765:USBLIB/Core/Src/usbd_ctlreq.c ****         pdev->dev_config = cfgidx;
 947              		.loc 1 765 25 is_stmt 0 view .LVU338
 948 00a2 0223     		movs	r3, #2
 949 00a4 80F89C32 		strb	r3, [r0, #668]
 766:USBLIB/Core/Src/usbd_ctlreq.c ****         (void)USBD_ClrClassConfig(pdev, cfgidx);
 950              		.loc 1 766 9 is_stmt 1 view .LVU339
 766:USBLIB/Core/Src/usbd_ctlreq.c ****         (void)USBD_ClrClassConfig(pdev, cfgidx);
 951              		.loc 1 766 26 is_stmt 0 view .LVU340
 952 00a8 4560     		str	r5, [r0, #4]
 767:USBLIB/Core/Src/usbd_ctlreq.c ****         (void)USBD_CtlSendStatus(pdev);
 953              		.loc 1 767 9 is_stmt 1 view .LVU341
 767:USBLIB/Core/Src/usbd_ctlreq.c ****         (void)USBD_CtlSendStatus(pdev);
 954              		.loc 1 767 15 is_stmt 0 view .LVU342
 955 00aa 2946     		mov	r1, r5
 956              	.LVL124:
 767:USBLIB/Core/Src/usbd_ctlreq.c ****         (void)USBD_CtlSendStatus(pdev);
 957              		.loc 1 767 15 view .LVU343
 958 00ac FFF7FEFF 		bl	USBD_ClrClassConfig
 959              	.LVL125:
 768:USBLIB/Core/Src/usbd_ctlreq.c ****       }
 960              		.loc 1 768 9 is_stmt 1 view .LVU344
 768:USBLIB/Core/Src/usbd_ctlreq.c ****       }
 961              		.loc 1 768 15 is_stmt 0 view .LVU345
 962 00b0 2046     		mov	r0, r4
 963 00b2 FFF7FEFF 		bl	USBD_CtlSendStatus
 964              	.LVL126:
 965 00b6 BAE7     		b	.L48
ARM GAS  C:\Users\Jim_YW\AppData\Local\Temp\ccPBemKn.s 			page 49


 966              	.LVL127:
 967              	.L56:
 788:USBLIB/Core/Src/usbd_ctlreq.c ****         }
 968              		.loc 1 788 11 is_stmt 1 view .LVU346
 788:USBLIB/Core/Src/usbd_ctlreq.c ****         }
 969              		.loc 1 788 17 is_stmt 0 view .LVU347
 970 00b8 2046     		mov	r0, r4
 971              	.LVL128:
 788:USBLIB/Core/Src/usbd_ctlreq.c ****         }
 972              		.loc 1 788 17 view .LVU348
 973 00ba FFF7FEFF 		bl	USBD_CtlSendStatus
 974              	.LVL129:
 975 00be B6E7     		b	.L48
 976              	.LVL130:
 977              	.L55:
 793:USBLIB/Core/Src/usbd_ctlreq.c ****       }
 978              		.loc 1 793 9 is_stmt 1 view .LVU349
 793:USBLIB/Core/Src/usbd_ctlreq.c ****       }
 979              		.loc 1 793 15 is_stmt 0 view .LVU350
 980 00c0 FFF7FEFF 		bl	USBD_CtlSendStatus
 981              	.LVL131:
 725:USBLIB/Core/Src/usbd_ctlreq.c ****   static uint8_t cfgidx;
 982              		.loc 1 725 22 view .LVU351
 983 00c4 0025     		movs	r5, #0
 984 00c6 B2E7     		b	.L48
 985              	.L62:
 986              		.align	2
 987              	.L61:
 988 00c8 00000000 		.word	.LANCHOR0
 989              		.cfi_endproc
 990              	.LFE139:
 992              		.section	.text.USBD_GetConfig,"ax",%progbits
 993              		.align	1
 994              		.syntax unified
 995              		.thumb
 996              		.thumb_func
 998              	USBD_GetConfig:
 999              	.LVL132:
 1000              	.LFB140:
 815:USBLIB/Core/Src/usbd_ctlreq.c ****   if (req->wLength != 1U)
 1001              		.loc 1 815 1 is_stmt 1 view -0
 1002              		.cfi_startproc
 1003              		@ args = 0, pretend = 0, frame = 0
 1004              		@ frame_needed = 0, uses_anonymous_args = 0
 815:USBLIB/Core/Src/usbd_ctlreq.c ****   if (req->wLength != 1U)
 1005              		.loc 1 815 1 is_stmt 0 view .LVU353
 1006 0000 08B5     		push	{r3, lr}
 1007              	.LCFI7:
 1008              		.cfi_def_cfa_offset 8
 1009              		.cfi_offset 3, -8
 1010              		.cfi_offset 14, -4
 816:USBLIB/Core/Src/usbd_ctlreq.c ****   {
 1011              		.loc 1 816 3 is_stmt 1 view .LVU354
 816:USBLIB/Core/Src/usbd_ctlreq.c ****   {
 1012              		.loc 1 816 10 is_stmt 0 view .LVU355
 1013 0002 CB88     		ldrh	r3, [r1, #6]
 816:USBLIB/Core/Src/usbd_ctlreq.c ****   {
ARM GAS  C:\Users\Jim_YW\AppData\Local\Temp\ccPBemKn.s 			page 50


 1014              		.loc 1 816 6 view .LVU356
 1015 0004 012B     		cmp	r3, #1
 1016 0006 0BD1     		bne	.L71
 822:USBLIB/Core/Src/usbd_ctlreq.c ****     {
 1017              		.loc 1 822 5 is_stmt 1 view .LVU357
 822:USBLIB/Core/Src/usbd_ctlreq.c ****     {
 1018              		.loc 1 822 17 is_stmt 0 view .LVU358
 1019 0008 90F89C32 		ldrb	r3, [r0, #668]	@ zero_extendqisi2
 1020 000c DBB2     		uxtb	r3, r3
 822:USBLIB/Core/Src/usbd_ctlreq.c ****     {
 1021              		.loc 1 822 5 view .LVU359
 1022 000e 022B     		cmp	r3, #2
 1023 0010 09D9     		bls	.L72
 1024 0012 032B     		cmp	r3, #3
 1025 0014 09D1     		bne	.L68
 831:USBLIB/Core/Src/usbd_ctlreq.c ****         break;
 1026              		.loc 1 831 9 is_stmt 1 view .LVU360
 831:USBLIB/Core/Src/usbd_ctlreq.c ****         break;
 1027              		.loc 1 831 15 is_stmt 0 view .LVU361
 1028 0016 0122     		movs	r2, #1
 1029 0018 011D     		adds	r1, r0, #4
 1030              	.LVL133:
 831:USBLIB/Core/Src/usbd_ctlreq.c ****         break;
 1031              		.loc 1 831 15 view .LVU362
 1032 001a FFF7FEFF 		bl	USBD_CtlSendData
 1033              	.LVL134:
 832:USBLIB/Core/Src/usbd_ctlreq.c **** 
 1034              		.loc 1 832 9 is_stmt 1 view .LVU363
 1035 001e 01E0     		b	.L63
 1036              	.LVL135:
 1037              	.L71:
 818:USBLIB/Core/Src/usbd_ctlreq.c ****   }
 1038              		.loc 1 818 5 view .LVU364
 1039 0020 FFF7FEFF 		bl	USBD_CtlError
 1040              	.LVL136:
 1041              	.L63:
 839:USBLIB/Core/Src/usbd_ctlreq.c **** 
 1042              		.loc 1 839 1 is_stmt 0 view .LVU365
 1043 0024 08BD     		pop	{r3, pc}
 1044              	.LVL137:
 1045              	.L72:
 822:USBLIB/Core/Src/usbd_ctlreq.c ****     {
 1046              		.loc 1 822 5 view .LVU366
 1047 0026 5BB2     		sxtb	r3, r3
 1048 0028 13B9     		cbnz	r3, .L73
 1049              	.L68:
 835:USBLIB/Core/Src/usbd_ctlreq.c ****         break;
 1050              		.loc 1 835 9 is_stmt 1 view .LVU367
 1051 002a FFF7FEFF 		bl	USBD_CtlError
 1052              	.LVL138:
 836:USBLIB/Core/Src/usbd_ctlreq.c ****     }
 1053              		.loc 1 836 9 view .LVU368
 839:USBLIB/Core/Src/usbd_ctlreq.c **** 
 1054              		.loc 1 839 1 is_stmt 0 view .LVU369
 1055 002e F9E7     		b	.L63
 1056              	.LVL139:
 1057              	.L73:
ARM GAS  C:\Users\Jim_YW\AppData\Local\Temp\ccPBemKn.s 			page 51


 826:USBLIB/Core/Src/usbd_ctlreq.c ****         (void)USBD_CtlSendData(pdev, (uint8_t *)&pdev->dev_default_config, 1U);
 1058              		.loc 1 826 9 is_stmt 1 view .LVU370
 826:USBLIB/Core/Src/usbd_ctlreq.c ****         (void)USBD_CtlSendData(pdev, (uint8_t *)&pdev->dev_default_config, 1U);
 1059              		.loc 1 826 34 is_stmt 0 view .LVU371
 1060 0030 0146     		mov	r1, r0
 1061              	.LVL140:
 826:USBLIB/Core/Src/usbd_ctlreq.c ****         (void)USBD_CtlSendData(pdev, (uint8_t *)&pdev->dev_default_config, 1U);
 1062              		.loc 1 826 34 view .LVU372
 1063 0032 0023     		movs	r3, #0
 1064 0034 41F8083F 		str	r3, [r1, #8]!
 827:USBLIB/Core/Src/usbd_ctlreq.c ****         break;
 1065              		.loc 1 827 9 is_stmt 1 view .LVU373
 827:USBLIB/Core/Src/usbd_ctlreq.c ****         break;
 1066              		.loc 1 827 15 is_stmt 0 view .LVU374
 1067 0038 0122     		movs	r2, #1
 1068 003a FFF7FEFF 		bl	USBD_CtlSendData
 1069              	.LVL141:
 828:USBLIB/Core/Src/usbd_ctlreq.c **** 
 1070              		.loc 1 828 9 is_stmt 1 view .LVU375
 1071 003e F1E7     		b	.L63
 1072              		.cfi_endproc
 1073              	.LFE140:
 1075              		.section	.text.USBD_GetStatus,"ax",%progbits
 1076              		.align	1
 1077              		.syntax unified
 1078              		.thumb
 1079              		.thumb_func
 1081              	USBD_GetStatus:
 1082              	.LVL142:
 1083              	.LFB141:
 849:USBLIB/Core/Src/usbd_ctlreq.c ****   switch (pdev->dev_state)
 1084              		.loc 1 849 1 view -0
 1085              		.cfi_startproc
 1086              		@ args = 0, pretend = 0, frame = 0
 1087              		@ frame_needed = 0, uses_anonymous_args = 0
 849:USBLIB/Core/Src/usbd_ctlreq.c ****   switch (pdev->dev_state)
 1088              		.loc 1 849 1 is_stmt 0 view .LVU377
 1089 0000 08B5     		push	{r3, lr}
 1090              	.LCFI8:
 1091              		.cfi_def_cfa_offset 8
 1092              		.cfi_offset 3, -8
 1093              		.cfi_offset 14, -4
 850:USBLIB/Core/Src/usbd_ctlreq.c ****   {
 1094              		.loc 1 850 3 is_stmt 1 view .LVU378
 850:USBLIB/Core/Src/usbd_ctlreq.c ****   {
 1095              		.loc 1 850 15 is_stmt 0 view .LVU379
 1096 0002 90F89C32 		ldrb	r3, [r0, #668]	@ zero_extendqisi2
 850:USBLIB/Core/Src/usbd_ctlreq.c ****   {
 1097              		.loc 1 850 3 view .LVU380
 1098 0006 013B     		subs	r3, r3, #1
 1099 0008 022B     		cmp	r3, #2
 1100 000a 12D8     		bhi	.L75
 855:USBLIB/Core/Src/usbd_ctlreq.c ****       {
 1101              		.loc 1 855 7 is_stmt 1 view .LVU381
 855:USBLIB/Core/Src/usbd_ctlreq.c ****       {
 1102              		.loc 1 855 14 is_stmt 0 view .LVU382
 1103 000c CB88     		ldrh	r3, [r1, #6]
ARM GAS  C:\Users\Jim_YW\AppData\Local\Temp\ccPBemKn.s 			page 52


 855:USBLIB/Core/Src/usbd_ctlreq.c ****       {
 1104              		.loc 1 855 10 view .LVU383
 1105 000e 022B     		cmp	r3, #2
 1106 0010 0CD1     		bne	.L80
 862:USBLIB/Core/Src/usbd_ctlreq.c **** #else
 1107              		.loc 1 862 7 is_stmt 1 view .LVU384
 862:USBLIB/Core/Src/usbd_ctlreq.c **** #else
 1108              		.loc 1 862 31 is_stmt 0 view .LVU385
 1109 0012 0123     		movs	r3, #1
 1110 0014 C360     		str	r3, [r0, #12]
 867:USBLIB/Core/Src/usbd_ctlreq.c ****       {
 1111              		.loc 1 867 7 is_stmt 1 view .LVU386
 867:USBLIB/Core/Src/usbd_ctlreq.c ****       {
 1112              		.loc 1 867 15 is_stmt 0 view .LVU387
 1113 0016 D0F8A432 		ldr	r3, [r0, #676]
 867:USBLIB/Core/Src/usbd_ctlreq.c ****       {
 1114              		.loc 1 867 10 view .LVU388
 1115 001a 0BB1     		cbz	r3, .L78
 869:USBLIB/Core/Src/usbd_ctlreq.c ****       }
 1116              		.loc 1 869 9 is_stmt 1 view .LVU389
 869:USBLIB/Core/Src/usbd_ctlreq.c ****       }
 1117              		.loc 1 869 33 is_stmt 0 view .LVU390
 1118 001c 0323     		movs	r3, #3
 1119 001e C360     		str	r3, [r0, #12]
 1120              	.L78:
 872:USBLIB/Core/Src/usbd_ctlreq.c ****       break;
 1121              		.loc 1 872 7 is_stmt 1 view .LVU391
 872:USBLIB/Core/Src/usbd_ctlreq.c ****       break;
 1122              		.loc 1 872 13 is_stmt 0 view .LVU392
 1123 0020 0222     		movs	r2, #2
 1124 0022 00F10C01 		add	r1, r0, #12
 1125              	.LVL143:
 872:USBLIB/Core/Src/usbd_ctlreq.c ****       break;
 1126              		.loc 1 872 13 view .LVU393
 1127 0026 FFF7FEFF 		bl	USBD_CtlSendData
 1128              	.LVL144:
 873:USBLIB/Core/Src/usbd_ctlreq.c **** 
 1129              		.loc 1 873 7 is_stmt 1 view .LVU394
 1130              	.L74:
 879:USBLIB/Core/Src/usbd_ctlreq.c **** 
 1131              		.loc 1 879 1 is_stmt 0 view .LVU395
 1132 002a 08BD     		pop	{r3, pc}
 1133              	.LVL145:
 1134              	.L80:
 857:USBLIB/Core/Src/usbd_ctlreq.c ****         break;
 1135              		.loc 1 857 9 is_stmt 1 view .LVU396
 1136 002c FFF7FEFF 		bl	USBD_CtlError
 1137              	.LVL146:
 858:USBLIB/Core/Src/usbd_ctlreq.c ****       }
 1138              		.loc 1 858 9 view .LVU397
 1139 0030 FBE7     		b	.L74
 1140              	.LVL147:
 1141              	.L75:
 876:USBLIB/Core/Src/usbd_ctlreq.c ****       break;
 1142              		.loc 1 876 7 view .LVU398
 1143 0032 FFF7FEFF 		bl	USBD_CtlError
 1144              	.LVL148:
ARM GAS  C:\Users\Jim_YW\AppData\Local\Temp\ccPBemKn.s 			page 53


 877:USBLIB/Core/Src/usbd_ctlreq.c ****   }
 1145              		.loc 1 877 7 view .LVU399
 879:USBLIB/Core/Src/usbd_ctlreq.c **** 
 1146              		.loc 1 879 1 is_stmt 0 view .LVU400
 1147 0036 F8E7     		b	.L74
 1148              		.cfi_endproc
 1149              	.LFE141:
 1151              		.section	.text.USBD_SetFeature,"ax",%progbits
 1152              		.align	1
 1153              		.syntax unified
 1154              		.thumb
 1155              		.thumb_func
 1157              	USBD_SetFeature:
 1158              	.LVL149:
 1159              	.LFB142:
 890:USBLIB/Core/Src/usbd_ctlreq.c ****   if (req->wValue == USB_FEATURE_REMOTE_WAKEUP)
 1160              		.loc 1 890 1 is_stmt 1 view -0
 1161              		.cfi_startproc
 1162              		@ args = 0, pretend = 0, frame = 0
 1163              		@ frame_needed = 0, uses_anonymous_args = 0
 890:USBLIB/Core/Src/usbd_ctlreq.c ****   if (req->wValue == USB_FEATURE_REMOTE_WAKEUP)
 1164              		.loc 1 890 1 is_stmt 0 view .LVU402
 1165 0000 08B5     		push	{r3, lr}
 1166              	.LCFI9:
 1167              		.cfi_def_cfa_offset 8
 1168              		.cfi_offset 3, -8
 1169              		.cfi_offset 14, -4
 891:USBLIB/Core/Src/usbd_ctlreq.c ****   {
 1170              		.loc 1 891 3 is_stmt 1 view .LVU403
 891:USBLIB/Core/Src/usbd_ctlreq.c ****   {
 1171              		.loc 1 891 10 is_stmt 0 view .LVU404
 1172 0002 4B88     		ldrh	r3, [r1, #2]
 891:USBLIB/Core/Src/usbd_ctlreq.c ****   {
 1173              		.loc 1 891 6 view .LVU405
 1174 0004 012B     		cmp	r3, #1
 1175 0006 04D0     		beq	.L86
 896:USBLIB/Core/Src/usbd_ctlreq.c ****   {
 1176              		.loc 1 896 8 is_stmt 1 view .LVU406
 896:USBLIB/Core/Src/usbd_ctlreq.c ****   {
 1177              		.loc 1 896 11 is_stmt 0 view .LVU407
 1178 0008 022B     		cmp	r3, #2
 1179 000a 07D0     		beq	.L87
 903:USBLIB/Core/Src/usbd_ctlreq.c ****   }
 1180              		.loc 1 903 5 is_stmt 1 view .LVU408
 1181 000c FFF7FEFF 		bl	USBD_CtlError
 1182              	.LVL150:
 1183              	.L81:
 905:USBLIB/Core/Src/usbd_ctlreq.c **** 
 1184              		.loc 1 905 1 is_stmt 0 view .LVU409
 1185 0010 08BD     		pop	{r3, pc}
 1186              	.LVL151:
 1187              	.L86:
 893:USBLIB/Core/Src/usbd_ctlreq.c ****     (void)USBD_CtlSendStatus(pdev);
 1188              		.loc 1 893 5 is_stmt 1 view .LVU410
 893:USBLIB/Core/Src/usbd_ctlreq.c ****     (void)USBD_CtlSendStatus(pdev);
 1189              		.loc 1 893 29 is_stmt 0 view .LVU411
 1190 0012 C0F8A432 		str	r3, [r0, #676]
ARM GAS  C:\Users\Jim_YW\AppData\Local\Temp\ccPBemKn.s 			page 54


 894:USBLIB/Core/Src/usbd_ctlreq.c ****   }
 1191              		.loc 1 894 5 is_stmt 1 view .LVU412
 894:USBLIB/Core/Src/usbd_ctlreq.c ****   }
 1192              		.loc 1 894 11 is_stmt 0 view .LVU413
 1193 0016 FFF7FEFF 		bl	USBD_CtlSendStatus
 1194              	.LVL152:
 894:USBLIB/Core/Src/usbd_ctlreq.c ****   }
 1195              		.loc 1 894 11 view .LVU414
 1196 001a F9E7     		b	.L81
 1197              	.LVL153:
 1198              	.L87:
 898:USBLIB/Core/Src/usbd_ctlreq.c ****     (void)USBD_CtlSendStatus(pdev);
 1199              		.loc 1 898 5 is_stmt 1 view .LVU415
 898:USBLIB/Core/Src/usbd_ctlreq.c ****     (void)USBD_CtlSendStatus(pdev);
 1200              		.loc 1 898 30 is_stmt 0 view .LVU416
 1201 001c 8B88     		ldrh	r3, [r1, #4]
 898:USBLIB/Core/Src/usbd_ctlreq.c ****     (void)USBD_CtlSendStatus(pdev);
 1202              		.loc 1 898 25 view .LVU417
 1203 001e 1B0A     		lsrs	r3, r3, #8
 1204 0020 80F8A032 		strb	r3, [r0, #672]
 899:USBLIB/Core/Src/usbd_ctlreq.c ****   }
 1205              		.loc 1 899 5 is_stmt 1 view .LVU418
 899:USBLIB/Core/Src/usbd_ctlreq.c ****   }
 1206              		.loc 1 899 11 is_stmt 0 view .LVU419
 1207 0024 FFF7FEFF 		bl	USBD_CtlSendStatus
 1208              	.LVL154:
 899:USBLIB/Core/Src/usbd_ctlreq.c ****   }
 1209              		.loc 1 899 11 view .LVU420
 1210 0028 F2E7     		b	.L81
 1211              		.cfi_endproc
 1212              	.LFE142:
 1214              		.section	.text.USBD_ClrFeature,"ax",%progbits
 1215              		.align	1
 1216              		.syntax unified
 1217              		.thumb
 1218              		.thumb_func
 1220              	USBD_ClrFeature:
 1221              	.LVL155:
 1222              	.LFB143:
 916:USBLIB/Core/Src/usbd_ctlreq.c ****   switch (pdev->dev_state)
 1223              		.loc 1 916 1 is_stmt 1 view -0
 1224              		.cfi_startproc
 1225              		@ args = 0, pretend = 0, frame = 0
 1226              		@ frame_needed = 0, uses_anonymous_args = 0
 916:USBLIB/Core/Src/usbd_ctlreq.c ****   switch (pdev->dev_state)
 1227              		.loc 1 916 1 is_stmt 0 view .LVU422
 1228 0000 08B5     		push	{r3, lr}
 1229              	.LCFI10:
 1230              		.cfi_def_cfa_offset 8
 1231              		.cfi_offset 3, -8
 1232              		.cfi_offset 14, -4
 917:USBLIB/Core/Src/usbd_ctlreq.c ****   {
 1233              		.loc 1 917 3 is_stmt 1 view .LVU423
 917:USBLIB/Core/Src/usbd_ctlreq.c ****   {
 1234              		.loc 1 917 15 is_stmt 0 view .LVU424
 1235 0002 90F89C32 		ldrb	r3, [r0, #668]	@ zero_extendqisi2
 917:USBLIB/Core/Src/usbd_ctlreq.c ****   {
ARM GAS  C:\Users\Jim_YW\AppData\Local\Temp\ccPBemKn.s 			page 55


 1236              		.loc 1 917 3 view .LVU425
 1237 0006 013B     		subs	r3, r3, #1
 1238 0008 022B     		cmp	r3, #2
 1239 000a 09D8     		bhi	.L89
 922:USBLIB/Core/Src/usbd_ctlreq.c ****       {
 1240              		.loc 1 922 7 is_stmt 1 view .LVU426
 922:USBLIB/Core/Src/usbd_ctlreq.c ****       {
 1241              		.loc 1 922 14 is_stmt 0 view .LVU427
 1242 000c 4B88     		ldrh	r3, [r1, #2]
 922:USBLIB/Core/Src/usbd_ctlreq.c ****       {
 1243              		.loc 1 922 10 view .LVU428
 1244 000e 012B     		cmp	r3, #1
 1245 0010 00D0     		beq	.L92
 1246              	.LVL156:
 1247              	.L88:
 933:USBLIB/Core/Src/usbd_ctlreq.c **** 
 1248              		.loc 1 933 1 view .LVU429
 1249 0012 08BD     		pop	{r3, pc}
 1250              	.LVL157:
 1251              	.L92:
 924:USBLIB/Core/Src/usbd_ctlreq.c ****         (void)USBD_CtlSendStatus(pdev);
 1252              		.loc 1 924 9 is_stmt 1 view .LVU430
 924:USBLIB/Core/Src/usbd_ctlreq.c ****         (void)USBD_CtlSendStatus(pdev);
 1253              		.loc 1 924 33 is_stmt 0 view .LVU431
 1254 0014 0023     		movs	r3, #0
 1255 0016 C0F8A432 		str	r3, [r0, #676]
 925:USBLIB/Core/Src/usbd_ctlreq.c ****       }
 1256              		.loc 1 925 9 is_stmt 1 view .LVU432
 925:USBLIB/Core/Src/usbd_ctlreq.c ****       }
 1257              		.loc 1 925 15 is_stmt 0 view .LVU433
 1258 001a FFF7FEFF 		bl	USBD_CtlSendStatus
 1259              	.LVL158:
 925:USBLIB/Core/Src/usbd_ctlreq.c ****       }
 1260              		.loc 1 925 15 view .LVU434
 1261 001e F8E7     		b	.L88
 1262              	.LVL159:
 1263              	.L89:
 930:USBLIB/Core/Src/usbd_ctlreq.c ****       break;
 1264              		.loc 1 930 7 is_stmt 1 view .LVU435
 1265 0020 FFF7FEFF 		bl	USBD_CtlError
 1266              	.LVL160:
 931:USBLIB/Core/Src/usbd_ctlreq.c ****   }
 1267              		.loc 1 931 7 view .LVU436
 933:USBLIB/Core/Src/usbd_ctlreq.c **** 
 1268              		.loc 1 933 1 is_stmt 0 view .LVU437
 1269 0024 F5E7     		b	.L88
 1270              		.cfi_endproc
 1271              	.LFE143:
 1273              		.section	.text.USBD_StdDevReq,"ax",%progbits
 1274              		.align	1
 1275              		.global	USBD_StdDevReq
 1276              		.syntax unified
 1277              		.thumb
 1278              		.thumb_func
 1280              	USBD_StdDevReq:
 1281              	.LVL161:
 1282              	.LFB134:
ARM GAS  C:\Users\Jim_YW\AppData\Local\Temp\ccPBemKn.s 			page 56


 103:USBLIB/Core/Src/usbd_ctlreq.c ****   USBD_StatusTypeDef ret = USBD_OK;
 1283              		.loc 1 103 1 is_stmt 1 view -0
 1284              		.cfi_startproc
 1285              		@ args = 0, pretend = 0, frame = 0
 1286              		@ frame_needed = 0, uses_anonymous_args = 0
 103:USBLIB/Core/Src/usbd_ctlreq.c ****   USBD_StatusTypeDef ret = USBD_OK;
 1287              		.loc 1 103 1 is_stmt 0 view .LVU439
 1288 0000 38B5     		push	{r3, r4, r5, lr}
 1289              	.LCFI11:
 1290              		.cfi_def_cfa_offset 16
 1291              		.cfi_offset 3, -16
 1292              		.cfi_offset 4, -12
 1293              		.cfi_offset 5, -8
 1294              		.cfi_offset 14, -4
 104:USBLIB/Core/Src/usbd_ctlreq.c **** 
 1295              		.loc 1 104 3 is_stmt 1 view .LVU440
 1296              	.LVL162:
 106:USBLIB/Core/Src/usbd_ctlreq.c ****   {
 1297              		.loc 1 106 3 view .LVU441
 106:USBLIB/Core/Src/usbd_ctlreq.c ****   {
 1298              		.loc 1 106 14 is_stmt 0 view .LVU442
 1299 0002 0C78     		ldrb	r4, [r1]	@ zero_extendqisi2
 1300 0004 04F06004 		and	r4, r4, #96
 106:USBLIB/Core/Src/usbd_ctlreq.c ****   {
 1301              		.loc 1 106 3 view .LVU443
 1302 0008 202C     		cmp	r4, #32
 1303 000a 06D0     		beq	.L94
 1304 000c 402C     		cmp	r4, #64
 1305 000e 04D0     		beq	.L94
 1306 0010 6CB1     		cbz	r4, .L109
 151:USBLIB/Core/Src/usbd_ctlreq.c ****       break;
 1307              		.loc 1 151 7 is_stmt 1 view .LVU444
 1308 0012 FFF7FEFF 		bl	USBD_CtlError
 1309              	.LVL163:
 152:USBLIB/Core/Src/usbd_ctlreq.c ****   }
 1310              		.loc 1 152 7 view .LVU445
 104:USBLIB/Core/Src/usbd_ctlreq.c **** 
 1311              		.loc 1 104 22 is_stmt 0 view .LVU446
 1312 0016 0024     		movs	r4, #0
 152:USBLIB/Core/Src/usbd_ctlreq.c ****   }
 1313              		.loc 1 152 7 view .LVU447
 1314 0018 07E0     		b	.L97
 1315              	.LVL164:
 1316              	.L94:
 110:USBLIB/Core/Src/usbd_ctlreq.c ****       break;
 1317              		.loc 1 110 7 is_stmt 1 view .LVU448
 110:USBLIB/Core/Src/usbd_ctlreq.c ****       break;
 1318              		.loc 1 110 50 is_stmt 0 view .LVU449
 1319 001a D0F8D432 		ldr	r3, [r0, #724]
 110:USBLIB/Core/Src/usbd_ctlreq.c ****       break;
 1320              		.loc 1 110 45 view .LVU450
 1321 001e AE33     		adds	r3, r3, #174
 1322 0020 50F82330 		ldr	r3, [r0, r3, lsl #2]
 110:USBLIB/Core/Src/usbd_ctlreq.c ****       break;
 1323              		.loc 1 110 60 view .LVU451
 1324 0024 9B68     		ldr	r3, [r3, #8]
 110:USBLIB/Core/Src/usbd_ctlreq.c ****       break;
ARM GAS  C:\Users\Jim_YW\AppData\Local\Temp\ccPBemKn.s 			page 57


 1325              		.loc 1 110 33 view .LVU452
 1326 0026 9847     		blx	r3
 1327              	.LVL165:
 110:USBLIB/Core/Src/usbd_ctlreq.c ****       break;
 1328              		.loc 1 110 33 view .LVU453
 1329 0028 0446     		mov	r4, r0
 1330              	.LVL166:
 111:USBLIB/Core/Src/usbd_ctlreq.c **** 
 1331              		.loc 1 111 7 is_stmt 1 view .LVU454
 1332              	.L97:
 155:USBLIB/Core/Src/usbd_ctlreq.c **** }
 1333              		.loc 1 155 3 view .LVU455
 156:USBLIB/Core/Src/usbd_ctlreq.c **** 
 1334              		.loc 1 156 1 is_stmt 0 view .LVU456
 1335 002a 2046     		mov	r0, r4
 1336 002c 38BD     		pop	{r3, r4, r5, pc}
 1337              	.LVL167:
 1338              	.L109:
 114:USBLIB/Core/Src/usbd_ctlreq.c ****       {
 1339              		.loc 1 114 7 is_stmt 1 view .LVU457
 114:USBLIB/Core/Src/usbd_ctlreq.c ****       {
 1340              		.loc 1 114 18 is_stmt 0 view .LVU458
 1341 002e 4D78     		ldrb	r5, [r1, #1]	@ zero_extendqisi2
 1342 0030 092D     		cmp	r5, #9
 1343 0032 1DD8     		bhi	.L98
 1344 0034 DFE805F0 		tbb	[pc, r5]
 1345              	.L100:
 1346 0038 12       		.byte	(.L106-.L100)/2
 1347 0039 19       		.byte	(.L105-.L100)/2
 1348 003a 1C       		.byte	(.L98-.L100)/2
 1349 003b 16       		.byte	(.L104-.L100)/2
 1350 003c 1C       		.byte	(.L98-.L100)/2
 1351 003d 08       		.byte	(.L103-.L100)/2
 1352 003e 05       		.byte	(.L102-.L100)/2
 1353 003f 1C       		.byte	(.L98-.L100)/2
 1354 0040 0F       		.byte	(.L101-.L100)/2
 1355 0041 0B       		.byte	(.L99-.L100)/2
 1356              		.p2align 1
 1357              	.L102:
 117:USBLIB/Core/Src/usbd_ctlreq.c ****           break;
 1358              		.loc 1 117 11 is_stmt 1 view .LVU459
 1359 0042 FFF7FEFF 		bl	USBD_GetDescriptor
 1360              	.LVL168:
 118:USBLIB/Core/Src/usbd_ctlreq.c **** 
 1361              		.loc 1 118 11 view .LVU460
 1362 0046 F0E7     		b	.L97
 1363              	.LVL169:
 1364              	.L103:
 121:USBLIB/Core/Src/usbd_ctlreq.c ****           break;
 1365              		.loc 1 121 11 view .LVU461
 1366 0048 FFF7FEFF 		bl	USBD_SetAddress
 1367              	.LVL170:
 122:USBLIB/Core/Src/usbd_ctlreq.c **** 
 1368              		.loc 1 122 11 view .LVU462
 1369 004c EDE7     		b	.L97
 1370              	.LVL171:
 1371              	.L99:
ARM GAS  C:\Users\Jim_YW\AppData\Local\Temp\ccPBemKn.s 			page 58


 125:USBLIB/Core/Src/usbd_ctlreq.c ****           break;
 1372              		.loc 1 125 11 view .LVU463
 125:USBLIB/Core/Src/usbd_ctlreq.c ****           break;
 1373              		.loc 1 125 17 is_stmt 0 view .LVU464
 1374 004e FFF7FEFF 		bl	USBD_SetConfig
 1375              	.LVL172:
 125:USBLIB/Core/Src/usbd_ctlreq.c ****           break;
 1376              		.loc 1 125 17 view .LVU465
 1377 0052 0446     		mov	r4, r0
 1378              	.LVL173:
 126:USBLIB/Core/Src/usbd_ctlreq.c **** 
 1379              		.loc 1 126 11 is_stmt 1 view .LVU466
 1380 0054 E9E7     		b	.L97
 1381              	.LVL174:
 1382              	.L101:
 129:USBLIB/Core/Src/usbd_ctlreq.c ****           break;
 1383              		.loc 1 129 11 view .LVU467
 1384 0056 FFF7FEFF 		bl	USBD_GetConfig
 1385              	.LVL175:
 130:USBLIB/Core/Src/usbd_ctlreq.c **** 
 1386              		.loc 1 130 11 view .LVU468
 1387 005a E6E7     		b	.L97
 1388              	.LVL176:
 1389              	.L106:
 133:USBLIB/Core/Src/usbd_ctlreq.c ****           break;
 1390              		.loc 1 133 11 view .LVU469
 1391 005c FFF7FEFF 		bl	USBD_GetStatus
 1392              	.LVL177:
 134:USBLIB/Core/Src/usbd_ctlreq.c **** 
 1393              		.loc 1 134 11 view .LVU470
 104:USBLIB/Core/Src/usbd_ctlreq.c **** 
 1394              		.loc 1 104 22 is_stmt 0 view .LVU471
 1395 0060 2C46     		mov	r4, r5
 134:USBLIB/Core/Src/usbd_ctlreq.c **** 
 1396              		.loc 1 134 11 view .LVU472
 1397 0062 E2E7     		b	.L97
 1398              	.LVL178:
 1399              	.L104:
 137:USBLIB/Core/Src/usbd_ctlreq.c ****           break;
 1400              		.loc 1 137 11 is_stmt 1 view .LVU473
 1401 0064 FFF7FEFF 		bl	USBD_SetFeature
 1402              	.LVL179:
 138:USBLIB/Core/Src/usbd_ctlreq.c **** 
 1403              		.loc 1 138 11 view .LVU474
 1404 0068 DFE7     		b	.L97
 1405              	.LVL180:
 1406              	.L105:
 141:USBLIB/Core/Src/usbd_ctlreq.c ****           break;
 1407              		.loc 1 141 11 view .LVU475
 1408 006a FFF7FEFF 		bl	USBD_ClrFeature
 1409              	.LVL181:
 142:USBLIB/Core/Src/usbd_ctlreq.c **** 
 1410              		.loc 1 142 11 view .LVU476
 1411 006e DCE7     		b	.L97
 1412              	.LVL182:
 1413              	.L98:
 145:USBLIB/Core/Src/usbd_ctlreq.c ****           break;
ARM GAS  C:\Users\Jim_YW\AppData\Local\Temp\ccPBemKn.s 			page 59


 1414              		.loc 1 145 11 view .LVU477
 1415 0070 FFF7FEFF 		bl	USBD_CtlError
 1416              	.LVL183:
 146:USBLIB/Core/Src/usbd_ctlreq.c ****       }
 1417              		.loc 1 146 11 view .LVU478
 1418 0074 D9E7     		b	.L97
 1419              		.cfi_endproc
 1420              	.LFE134:
 1422              		.section	.text.USBD_StdItfReq,"ax",%progbits
 1423              		.align	1
 1424              		.global	USBD_StdItfReq
 1425              		.syntax unified
 1426              		.thumb
 1427              		.thumb_func
 1429              	USBD_StdItfReq:
 1430              	.LVL184:
 1431              	.LFB135:
 166:USBLIB/Core/Src/usbd_ctlreq.c ****   USBD_StatusTypeDef ret = USBD_OK;
 1432              		.loc 1 166 1 view -0
 1433              		.cfi_startproc
 1434              		@ args = 0, pretend = 0, frame = 0
 1435              		@ frame_needed = 0, uses_anonymous_args = 0
 166:USBLIB/Core/Src/usbd_ctlreq.c ****   USBD_StatusTypeDef ret = USBD_OK;
 1436              		.loc 1 166 1 is_stmt 0 view .LVU480
 1437 0000 70B5     		push	{r4, r5, r6, lr}
 1438              	.LCFI12:
 1439              		.cfi_def_cfa_offset 16
 1440              		.cfi_offset 4, -16
 1441              		.cfi_offset 5, -12
 1442              		.cfi_offset 6, -8
 1443              		.cfi_offset 14, -4
 1444 0002 0546     		mov	r5, r0
 1445 0004 0C46     		mov	r4, r1
 167:USBLIB/Core/Src/usbd_ctlreq.c ****   uint8_t idx;
 1446              		.loc 1 167 3 is_stmt 1 view .LVU481
 1447              	.LVL185:
 168:USBLIB/Core/Src/usbd_ctlreq.c **** 
 1448              		.loc 1 168 3 view .LVU482
 170:USBLIB/Core/Src/usbd_ctlreq.c ****   {
 1449              		.loc 1 170 3 view .LVU483
 170:USBLIB/Core/Src/usbd_ctlreq.c ****   {
 1450              		.loc 1 170 14 is_stmt 0 view .LVU484
 1451 0006 0B78     		ldrb	r3, [r1]	@ zero_extendqisi2
 1452 0008 03F06003 		and	r3, r3, #96
 170:USBLIB/Core/Src/usbd_ctlreq.c ****   {
 1453              		.loc 1 170 3 view .LVU485
 1454 000c 202B     		cmp	r3, #32
 1455 000e 07D0     		beq	.L111
 1456 0010 402B     		cmp	r3, #64
 1457 0012 05D0     		beq	.L111
 1458 0014 23B1     		cbz	r3, .L111
 223:USBLIB/Core/Src/usbd_ctlreq.c ****       break;
 1459              		.loc 1 223 7 is_stmt 1 view .LVU486
 1460 0016 FFF7FEFF 		bl	USBD_CtlError
 1461              	.LVL186:
 224:USBLIB/Core/Src/usbd_ctlreq.c ****   }
 1462              		.loc 1 224 7 view .LVU487
ARM GAS  C:\Users\Jim_YW\AppData\Local\Temp\ccPBemKn.s 			page 60


 167:USBLIB/Core/Src/usbd_ctlreq.c ****   uint8_t idx;
 1463              		.loc 1 167 22 is_stmt 0 view .LVU488
 1464 001a 0026     		movs	r6, #0
 1465              	.LVL187:
 1466              	.L116:
 227:USBLIB/Core/Src/usbd_ctlreq.c **** }
 1467              		.loc 1 227 3 is_stmt 1 view .LVU489
 228:USBLIB/Core/Src/usbd_ctlreq.c **** 
 1468              		.loc 1 228 1 is_stmt 0 view .LVU490
 1469 001c 3046     		mov	r0, r6
 1470 001e 70BD     		pop	{r4, r5, r6, pc}
 1471              	.LVL188:
 1472              	.L111:
 175:USBLIB/Core/Src/usbd_ctlreq.c ****       {
 1473              		.loc 1 175 7 is_stmt 1 view .LVU491
 175:USBLIB/Core/Src/usbd_ctlreq.c ****       {
 1474              		.loc 1 175 19 is_stmt 0 view .LVU492
 1475 0020 95F89C32 		ldrb	r3, [r5, #668]	@ zero_extendqisi2
 1476 0024 013B     		subs	r3, r3, #1
 1477 0026 022B     		cmp	r3, #2
 1478 0028 26D8     		bhi	.L113
 181:USBLIB/Core/Src/usbd_ctlreq.c ****           {
 1479              		.loc 1 181 11 is_stmt 1 view .LVU493
 181:USBLIB/Core/Src/usbd_ctlreq.c ****           {
 1480              		.loc 1 181 15 is_stmt 0 view .LVU494
 1481 002a 2179     		ldrb	r1, [r4, #4]	@ zero_extendqisi2
 1482              	.LVL189:
 181:USBLIB/Core/Src/usbd_ctlreq.c ****           {
 1483              		.loc 1 181 14 view .LVU495
 1484 002c 0129     		cmp	r1, #1
 1485 002e 05D9     		bls	.L120
 212:USBLIB/Core/Src/usbd_ctlreq.c ****           }
 1486              		.loc 1 212 13 is_stmt 1 view .LVU496
 1487 0030 2146     		mov	r1, r4
 1488 0032 2846     		mov	r0, r5
 1489              	.LVL190:
 212:USBLIB/Core/Src/usbd_ctlreq.c ****           }
 1490              		.loc 1 212 13 is_stmt 0 view .LVU497
 1491 0034 FFF7FEFF 		bl	USBD_CtlError
 1492              	.LVL191:
 167:USBLIB/Core/Src/usbd_ctlreq.c ****   uint8_t idx;
 1493              		.loc 1 167 22 view .LVU498
 1494 0038 0026     		movs	r6, #0
 1495 003a EFE7     		b	.L116
 1496              	.LVL192:
 1497              	.L120:
 184:USBLIB/Core/Src/usbd_ctlreq.c ****             if (((uint8_t)idx != 0xFFU) && (idx < USBD_MAX_SUPPORTED_CLASS))
 1498              		.loc 1 184 13 is_stmt 1 view .LVU499
 184:USBLIB/Core/Src/usbd_ctlreq.c ****             if (((uint8_t)idx != 0xFFU) && (idx < USBD_MAX_SUPPORTED_CLASS))
 1499              		.loc 1 184 19 is_stmt 0 view .LVU500
 1500 003c 2846     		mov	r0, r5
 1501              	.LVL193:
 184:USBLIB/Core/Src/usbd_ctlreq.c ****             if (((uint8_t)idx != 0xFFU) && (idx < USBD_MAX_SUPPORTED_CLASS))
 1502              		.loc 1 184 19 view .LVU501
 1503 003e FFF7FEFF 		bl	USBD_CoreFindIF
 1504              	.LVL194:
 185:USBLIB/Core/Src/usbd_ctlreq.c ****             {
ARM GAS  C:\Users\Jim_YW\AppData\Local\Temp\ccPBemKn.s 			page 61


 1505              		.loc 1 185 13 is_stmt 1 view .LVU502
 185:USBLIB/Core/Src/usbd_ctlreq.c ****             {
 1506              		.loc 1 185 16 is_stmt 0 view .LVU503
 1507 0042 68B9     		cbnz	r0, .L117
 188:USBLIB/Core/Src/usbd_ctlreq.c ****               {
 1508              		.loc 1 188 15 is_stmt 1 view .LVU504
 188:USBLIB/Core/Src/usbd_ctlreq.c ****               {
 1509              		.loc 1 188 31 is_stmt 0 view .LVU505
 1510 0044 00F1AE02 		add	r2, r0, #174
 1511 0048 55F82220 		ldr	r2, [r5, r2, lsl #2]
 188:USBLIB/Core/Src/usbd_ctlreq.c ****               {
 1512              		.loc 1 188 36 view .LVU506
 1513 004c 9168     		ldr	r1, [r2, #8]
 188:USBLIB/Core/Src/usbd_ctlreq.c ****               {
 1514              		.loc 1 188 18 view .LVU507
 1515 004e 89B1     		cbz	r1, .L118
 190:USBLIB/Core/Src/usbd_ctlreq.c ****                 ret = (USBD_StatusTypeDef)(pdev->pClass[idx]->Setup(pdev, req));
 1516              		.loc 1 190 17 is_stmt 1 view .LVU508
 190:USBLIB/Core/Src/usbd_ctlreq.c ****                 ret = (USBD_StatusTypeDef)(pdev->pClass[idx]->Setup(pdev, req));
 1517              		.loc 1 190 31 is_stmt 0 view .LVU509
 1518 0050 C5F8D402 		str	r0, [r5, #724]
 191:USBLIB/Core/Src/usbd_ctlreq.c ****               }
 1519              		.loc 1 191 17 is_stmt 1 view .LVU510
 191:USBLIB/Core/Src/usbd_ctlreq.c ****               }
 1520              		.loc 1 191 61 is_stmt 0 view .LVU511
 1521 0054 9368     		ldr	r3, [r2, #8]
 191:USBLIB/Core/Src/usbd_ctlreq.c ****               }
 1522              		.loc 1 191 44 view .LVU512
 1523 0056 2146     		mov	r1, r4
 1524 0058 2846     		mov	r0, r5
 1525              	.LVL195:
 191:USBLIB/Core/Src/usbd_ctlreq.c ****               }
 1526              		.loc 1 191 44 view .LVU513
 1527 005a 9847     		blx	r3
 1528              	.LVL196:
 1529 005c 0646     		mov	r6, r0
 1530              	.LVL197:
 191:USBLIB/Core/Src/usbd_ctlreq.c ****               }
 1531              		.loc 1 191 44 view .LVU514
 1532 005e 00E0     		b	.L115
 1533              	.LVL198:
 1534              	.L117:
 202:USBLIB/Core/Src/usbd_ctlreq.c ****             }
 1535              		.loc 1 202 19 view .LVU515
 1536 0060 0326     		movs	r6, #3
 1537              	.LVL199:
 1538              	.L115:
 205:USBLIB/Core/Src/usbd_ctlreq.c ****             {
 1539              		.loc 1 205 13 is_stmt 1 view .LVU516
 205:USBLIB/Core/Src/usbd_ctlreq.c ****             {
 1540              		.loc 1 205 21 is_stmt 0 view .LVU517
 1541 0062 E388     		ldrh	r3, [r4, #6]
 205:USBLIB/Core/Src/usbd_ctlreq.c ****             {
 1542              		.loc 1 205 16 view .LVU518
 1543 0064 002B     		cmp	r3, #0
 1544 0066 D9D1     		bne	.L116
 205:USBLIB/Core/Src/usbd_ctlreq.c ****             {
ARM GAS  C:\Users\Jim_YW\AppData\Local\Temp\ccPBemKn.s 			page 62


 1545              		.loc 1 205 38 discriminator 1 view .LVU519
 1546 0068 002E     		cmp	r6, #0
 1547 006a D7D1     		bne	.L116
 207:USBLIB/Core/Src/usbd_ctlreq.c ****             }
 1548              		.loc 1 207 15 is_stmt 1 view .LVU520
 207:USBLIB/Core/Src/usbd_ctlreq.c ****             }
 1549              		.loc 1 207 21 is_stmt 0 view .LVU521
 1550 006c 2846     		mov	r0, r5
 1551 006e FFF7FEFF 		bl	USBD_CtlSendStatus
 1552              	.LVL200:
 1553 0072 D3E7     		b	.L116
 1554              	.LVL201:
 1555              	.L118:
 196:USBLIB/Core/Src/usbd_ctlreq.c ****               }
 1556              		.loc 1 196 21 view .LVU522
 1557 0074 0326     		movs	r6, #3
 1558 0076 F4E7     		b	.L115
 1559              	.LVL202:
 1560              	.L113:
 217:USBLIB/Core/Src/usbd_ctlreq.c ****           break;
 1561              		.loc 1 217 11 is_stmt 1 view .LVU523
 1562 0078 2146     		mov	r1, r4
 1563              	.LVL203:
 217:USBLIB/Core/Src/usbd_ctlreq.c ****           break;
 1564              		.loc 1 217 11 is_stmt 0 view .LVU524
 1565 007a 2846     		mov	r0, r5
 1566              	.LVL204:
 217:USBLIB/Core/Src/usbd_ctlreq.c ****           break;
 1567              		.loc 1 217 11 view .LVU525
 1568 007c FFF7FEFF 		bl	USBD_CtlError
 1569              	.LVL205:
 218:USBLIB/Core/Src/usbd_ctlreq.c ****       }
 1570              		.loc 1 218 11 is_stmt 1 view .LVU526
 167:USBLIB/Core/Src/usbd_ctlreq.c ****   uint8_t idx;
 1571              		.loc 1 167 22 is_stmt 0 view .LVU527
 1572 0080 0026     		movs	r6, #0
 218:USBLIB/Core/Src/usbd_ctlreq.c ****       }
 1573              		.loc 1 218 11 view .LVU528
 1574 0082 CBE7     		b	.L116
 1575              		.cfi_endproc
 1576              	.LFE135:
 1578              		.section	.text.USBD_StdEPReq,"ax",%progbits
 1579              		.align	1
 1580              		.global	USBD_StdEPReq
 1581              		.syntax unified
 1582              		.thumb
 1583              		.thumb_func
 1585              	USBD_StdEPReq:
 1586              	.LVL206:
 1587              	.LFB136:
 238:USBLIB/Core/Src/usbd_ctlreq.c ****   USBD_EndpointTypeDef *pep;
 1588              		.loc 1 238 1 is_stmt 1 view -0
 1589              		.cfi_startproc
 1590              		@ args = 0, pretend = 0, frame = 0
 1591              		@ frame_needed = 0, uses_anonymous_args = 0
 238:USBLIB/Core/Src/usbd_ctlreq.c ****   USBD_EndpointTypeDef *pep;
 1592              		.loc 1 238 1 is_stmt 0 view .LVU530
ARM GAS  C:\Users\Jim_YW\AppData\Local\Temp\ccPBemKn.s 			page 63


 1593 0000 2DE9F041 		push	{r4, r5, r6, r7, r8, lr}
 1594              	.LCFI13:
 1595              		.cfi_def_cfa_offset 24
 1596              		.cfi_offset 4, -24
 1597              		.cfi_offset 5, -20
 1598              		.cfi_offset 6, -16
 1599              		.cfi_offset 7, -12
 1600              		.cfi_offset 8, -8
 1601              		.cfi_offset 14, -4
 1602 0004 0646     		mov	r6, r0
 1603 0006 0D46     		mov	r5, r1
 239:USBLIB/Core/Src/usbd_ctlreq.c ****   uint8_t ep_addr;
 1604              		.loc 1 239 3 is_stmt 1 view .LVU531
 240:USBLIB/Core/Src/usbd_ctlreq.c ****   uint8_t idx;
 1605              		.loc 1 240 3 view .LVU532
 241:USBLIB/Core/Src/usbd_ctlreq.c ****   USBD_StatusTypeDef ret = USBD_OK;
 1606              		.loc 1 241 3 view .LVU533
 242:USBLIB/Core/Src/usbd_ctlreq.c **** 
 1607              		.loc 1 242 3 view .LVU534
 1608              	.LVL207:
 244:USBLIB/Core/Src/usbd_ctlreq.c **** 
 1609              		.loc 1 244 3 view .LVU535
 244:USBLIB/Core/Src/usbd_ctlreq.c **** 
 1610              		.loc 1 244 13 is_stmt 0 view .LVU536
 1611 0008 8B88     		ldrh	r3, [r1, #4]
 244:USBLIB/Core/Src/usbd_ctlreq.c **** 
 1612              		.loc 1 244 11 view .LVU537
 1613 000a DFB2     		uxtb	r7, r3
 1614              	.LVL208:
 246:USBLIB/Core/Src/usbd_ctlreq.c ****   {
 1615              		.loc 1 246 3 is_stmt 1 view .LVU538
 246:USBLIB/Core/Src/usbd_ctlreq.c ****   {
 1616              		.loc 1 246 14 is_stmt 0 view .LVU539
 1617 000c 0C78     		ldrb	r4, [r1]	@ zero_extendqisi2
 1618 000e 04F06004 		and	r4, r4, #96
 246:USBLIB/Core/Src/usbd_ctlreq.c ****   {
 1619              		.loc 1 246 3 view .LVU540
 1620 0012 202C     		cmp	r4, #32
 1621 0014 08D0     		beq	.L122
 1622 0016 402C     		cmp	r4, #64
 1623 0018 06D0     		beq	.L122
 1624 001a DCB1     		cbz	r4, .L162
 411:USBLIB/Core/Src/usbd_ctlreq.c ****       break;
 1625              		.loc 1 411 7 is_stmt 1 view .LVU541
 1626 001c FFF7FEFF 		bl	USBD_CtlError
 1627              	.LVL209:
 412:USBLIB/Core/Src/usbd_ctlreq.c ****   }
 1628              		.loc 1 412 7 view .LVU542
 242:USBLIB/Core/Src/usbd_ctlreq.c **** 
 1629              		.loc 1 242 22 is_stmt 0 view .LVU543
 1630 0020 0024     		movs	r4, #0
 1631              	.LVL210:
 1632              	.L125:
 415:USBLIB/Core/Src/usbd_ctlreq.c **** }
 1633              		.loc 1 415 3 is_stmt 1 view .LVU544
 416:USBLIB/Core/Src/usbd_ctlreq.c **** 
 1634              		.loc 1 416 1 is_stmt 0 view .LVU545
ARM GAS  C:\Users\Jim_YW\AppData\Local\Temp\ccPBemKn.s 			page 64


 1635 0022 2046     		mov	r0, r4
 1636 0024 BDE8F081 		pop	{r4, r5, r6, r7, r8, pc}
 1637              	.LVL211:
 1638              	.L122:
 251:USBLIB/Core/Src/usbd_ctlreq.c ****       if (((uint8_t)idx != 0xFFU) && (idx < USBD_MAX_SUPPORTED_CLASS))
 1639              		.loc 1 251 7 is_stmt 1 view .LVU546
 251:USBLIB/Core/Src/usbd_ctlreq.c ****       if (((uint8_t)idx != 0xFFU) && (idx < USBD_MAX_SUPPORTED_CLASS))
 1640              		.loc 1 251 13 is_stmt 0 view .LVU547
 1641 0028 3946     		mov	r1, r7
 1642              	.LVL212:
 251:USBLIB/Core/Src/usbd_ctlreq.c ****       if (((uint8_t)idx != 0xFFU) && (idx < USBD_MAX_SUPPORTED_CLASS))
 1643              		.loc 1 251 13 view .LVU548
 1644 002a 3046     		mov	r0, r6
 1645              	.LVL213:
 251:USBLIB/Core/Src/usbd_ctlreq.c ****       if (((uint8_t)idx != 0xFFU) && (idx < USBD_MAX_SUPPORTED_CLASS))
 1646              		.loc 1 251 13 view .LVU549
 1647 002c FFF7FEFF 		bl	USBD_CoreFindEP
 1648              	.LVL214:
 252:USBLIB/Core/Src/usbd_ctlreq.c ****       {
 1649              		.loc 1 252 7 is_stmt 1 view .LVU550
 252:USBLIB/Core/Src/usbd_ctlreq.c ****       {
 1650              		.loc 1 252 10 is_stmt 0 view .LVU551
 1651 0030 0446     		mov	r4, r0
 1652 0032 0028     		cmp	r0, #0
 1653 0034 40F0F880 		bne	.L154
 254:USBLIB/Core/Src/usbd_ctlreq.c ****         /* Call the class data out function to manage the request */
 1654              		.loc 1 254 9 is_stmt 1 view .LVU552
 254:USBLIB/Core/Src/usbd_ctlreq.c ****         /* Call the class data out function to manage the request */
 1655              		.loc 1 254 23 is_stmt 0 view .LVU553
 1656 0038 C6F8D402 		str	r0, [r6, #724]
 256:USBLIB/Core/Src/usbd_ctlreq.c ****         {
 1657              		.loc 1 256 9 is_stmt 1 view .LVU554
 256:USBLIB/Core/Src/usbd_ctlreq.c ****         {
 1658              		.loc 1 256 25 is_stmt 0 view .LVU555
 1659 003c 00F1AE03 		add	r3, r0, #174
 1660 0040 56F82330 		ldr	r3, [r6, r3, lsl #2]
 256:USBLIB/Core/Src/usbd_ctlreq.c ****         {
 1661              		.loc 1 256 30 view .LVU556
 1662 0044 9B68     		ldr	r3, [r3, #8]
 256:USBLIB/Core/Src/usbd_ctlreq.c ****         {
 1663              		.loc 1 256 12 view .LVU557
 1664 0046 002B     		cmp	r3, #0
 1665 0048 EBD0     		beq	.L125
 258:USBLIB/Core/Src/usbd_ctlreq.c ****         }
 1666              		.loc 1 258 11 is_stmt 1 view .LVU558
 258:USBLIB/Core/Src/usbd_ctlreq.c ****         }
 1667              		.loc 1 258 37 is_stmt 0 view .LVU559
 1668 004a 2946     		mov	r1, r5
 1669 004c 3046     		mov	r0, r6
 1670              	.LVL215:
 258:USBLIB/Core/Src/usbd_ctlreq.c ****         }
 1671              		.loc 1 258 37 view .LVU560
 1672 004e 9847     		blx	r3
 1673              	.LVL216:
 1674 0050 0446     		mov	r4, r0
 1675              	.LVL217:
 258:USBLIB/Core/Src/usbd_ctlreq.c ****         }
ARM GAS  C:\Users\Jim_YW\AppData\Local\Temp\ccPBemKn.s 			page 65


 1676              		.loc 1 258 37 view .LVU561
 1677 0052 E6E7     		b	.L125
 1678              	.LVL218:
 1679              	.L162:
 264:USBLIB/Core/Src/usbd_ctlreq.c ****       {
 1680              		.loc 1 264 7 is_stmt 1 view .LVU562
 264:USBLIB/Core/Src/usbd_ctlreq.c ****       {
 1681              		.loc 1 264 18 is_stmt 0 view .LVU563
 1682 0054 91F80180 		ldrb	r8, [r1, #1]	@ zero_extendqisi2
 1683 0058 B8F1010F 		cmp	r8, #1
 1684 005c 31D0     		beq	.L126
 1685 005e B8F1030F 		cmp	r8, #3
 1686 0062 05D0     		beq	.L127
 1687 0064 B8F1000F 		cmp	r8, #0
 1688 0068 67D0     		beq	.L163
 405:USBLIB/Core/Src/usbd_ctlreq.c ****           break;
 1689              		.loc 1 405 11 is_stmt 1 view .LVU564
 1690 006a FFF7FEFF 		bl	USBD_CtlError
 1691              	.LVL219:
 406:USBLIB/Core/Src/usbd_ctlreq.c ****       }
 1692              		.loc 1 406 11 view .LVU565
 1693 006e D8E7     		b	.L125
 1694              	.LVL220:
 1695              	.L127:
 267:USBLIB/Core/Src/usbd_ctlreq.c ****           {
 1696              		.loc 1 267 11 discriminator 3 view .LVU566
 267:USBLIB/Core/Src/usbd_ctlreq.c ****           {
 1697              		.loc 1 267 23 is_stmt 0 discriminator 3 view .LVU567
 1698 0070 90F89C32 		ldrb	r3, [r0, #668]	@ zero_extendqisi2
 1699 0074 DBB2     		uxtb	r3, r3
 1700 0076 022B     		cmp	r3, #2
 1701 0078 04D0     		beq	.L130
 1702 007a 032B     		cmp	r3, #3
 1703 007c 12D0     		beq	.L131
 294:USBLIB/Core/Src/usbd_ctlreq.c ****               break;
 1704              		.loc 1 294 15 is_stmt 1 view .LVU568
 1705 007e FFF7FEFF 		bl	USBD_CtlError
 1706              	.LVL221:
 295:USBLIB/Core/Src/usbd_ctlreq.c ****           }
 1707              		.loc 1 295 15 view .LVU569
 1708 0082 CEE7     		b	.L125
 1709              	.LVL222:
 1710              	.L130:
 270:USBLIB/Core/Src/usbd_ctlreq.c ****               {
 1711              		.loc 1 270 15 view .LVU570
 270:USBLIB/Core/Src/usbd_ctlreq.c ****               {
 1712              		.loc 1 270 18 is_stmt 0 view .LVU571
 1713 0084 0FB1     		cbz	r7, .L133
 270:USBLIB/Core/Src/usbd_ctlreq.c ****               {
 1714              		.loc 1 270 38 discriminator 1 view .LVU572
 1715 0086 802F     		cmp	r7, #128
 1716 0088 04D1     		bne	.L164
 1717              	.L133:
 277:USBLIB/Core/Src/usbd_ctlreq.c ****               }
 1718              		.loc 1 277 17 is_stmt 1 view .LVU573
 1719 008a 2946     		mov	r1, r5
 1720              	.LVL223:
ARM GAS  C:\Users\Jim_YW\AppData\Local\Temp\ccPBemKn.s 			page 66


 277:USBLIB/Core/Src/usbd_ctlreq.c ****               }
 1721              		.loc 1 277 17 is_stmt 0 view .LVU574
 1722 008c 3046     		mov	r0, r6
 1723              	.LVL224:
 277:USBLIB/Core/Src/usbd_ctlreq.c ****               }
 1724              		.loc 1 277 17 view .LVU575
 1725 008e FFF7FEFF 		bl	USBD_CtlError
 1726              	.LVL225:
 1727 0092 C6E7     		b	.L125
 1728              	.LVL226:
 1729              	.L164:
 272:USBLIB/Core/Src/usbd_ctlreq.c ****                 (void)USBD_LL_StallEP(pdev, 0x80U);
 1730              		.loc 1 272 17 is_stmt 1 view .LVU576
 272:USBLIB/Core/Src/usbd_ctlreq.c ****                 (void)USBD_LL_StallEP(pdev, 0x80U);
 1731              		.loc 1 272 23 is_stmt 0 view .LVU577
 1732 0094 3946     		mov	r1, r7
 1733              	.LVL227:
 272:USBLIB/Core/Src/usbd_ctlreq.c ****                 (void)USBD_LL_StallEP(pdev, 0x80U);
 1734              		.loc 1 272 23 view .LVU578
 1735 0096 FFF7FEFF 		bl	USBD_LL_StallEP
 1736              	.LVL228:
 273:USBLIB/Core/Src/usbd_ctlreq.c ****               }
