ARM GAS  C:\Users\Jim_YW\AppData\Local\Temp\ccsaULLo.s 			page 1


   1              		.cpu cortex-m4
   2              		.arch armv7e-m
   3              		.fpu fpv4-sp-d16
   4              		.eabi_attribute 27, 1
   5              		.eabi_attribute 28, 1
   6              		.eabi_attribute 20, 1
   7              		.eabi_attribute 21, 1
   8              		.eabi_attribute 23, 3
   9              		.eabi_attribute 24, 1
  10              		.eabi_attribute 25, 1
  11              		.eabi_attribute 26, 1
  12              		.eabi_attribute 30, 1
  13              		.eabi_attribute 34, 1
  14              		.eabi_attribute 18, 4
  15              		.file	"event_groups.c"
  16              		.text
  17              	.Ltext0:
  18              		.cfi_sections	.debug_frame
  19              		.section	.text.prvTestWaitCondition,"ax",%progbits
  20              		.align	1
  21              		.syntax unified
  22              		.thumb
  23              		.thumb_func
  25              	prvTestWaitCondition:
  26              	.LVL0:
  27              	.LFB15:
  28              		.file 1 "../../../FreeRTOS/Source/event_groups.c"
   1:../../../FreeRTOS/Source/event_groups.c **** /*
   2:../../../FreeRTOS/Source/event_groups.c ****  * FreeRTOS Kernel V10.3.1
   3:../../../FreeRTOS/Source/event_groups.c ****  * Copyright (C) 2020 Amazon.com, Inc. or its affiliates.  All Rights Reserved.
   4:../../../FreeRTOS/Source/event_groups.c ****  *
   5:../../../FreeRTOS/Source/event_groups.c ****  * Permission is hereby granted, free of charge, to any person obtaining a copy of
   6:../../../FreeRTOS/Source/event_groups.c ****  * this software and associated documentation files (the "Software"), to deal in
   7:../../../FreeRTOS/Source/event_groups.c ****  * the Software without restriction, including without limitation the rights to
   8:../../../FreeRTOS/Source/event_groups.c ****  * use, copy, modify, merge, publish, distribute, sublicense, and/or sell copies of
   9:../../../FreeRTOS/Source/event_groups.c ****  * the Software, and to permit persons to whom the Software is furnished to do so,
  10:../../../FreeRTOS/Source/event_groups.c ****  * subject to the following conditions:
  11:../../../FreeRTOS/Source/event_groups.c ****  *
  12:../../../FreeRTOS/Source/event_groups.c ****  * The above copyright notice and this permission notice shall be included in all
  13:../../../FreeRTOS/Source/event_groups.c ****  * copies or substantial portions of the Software.
  14:../../../FreeRTOS/Source/event_groups.c ****  *
  15:../../../FreeRTOS/Source/event_groups.c ****  * THE SOFTWARE IS PROVIDED "AS IS", WITHOUT WARRANTY OF ANY KIND, EXPRESS OR
  16:../../../FreeRTOS/Source/event_groups.c ****  * IMPLIED, INCLUDING BUT NOT LIMITED TO THE WARRANTIES OF MERCHANTABILITY, FITNESS
  17:../../../FreeRTOS/Source/event_groups.c ****  * FOR A PARTICULAR PURPOSE AND NONINFRINGEMENT. IN NO EVENT SHALL THE AUTHORS OR
  18:../../../FreeRTOS/Source/event_groups.c ****  * COPYRIGHT HOLDERS BE LIABLE FOR ANY CLAIM, DAMAGES OR OTHER LIABILITY, WHETHER
  19:../../../FreeRTOS/Source/event_groups.c ****  * IN AN ACTION OF CONTRACT, TORT OR OTHERWISE, ARISING FROM, OUT OF OR IN
  20:../../../FreeRTOS/Source/event_groups.c ****  * CONNECTION WITH THE SOFTWARE OR THE USE OR OTHER DEALINGS IN THE SOFTWARE.
  21:../../../FreeRTOS/Source/event_groups.c ****  *
  22:../../../FreeRTOS/Source/event_groups.c ****  * http://www.FreeRTOS.org
  23:../../../FreeRTOS/Source/event_groups.c ****  * http://aws.amazon.com/freertos
  24:../../../FreeRTOS/Source/event_groups.c ****  *
  25:../../../FreeRTOS/Source/event_groups.c ****  * 1 tab == 4 spaces!
  26:../../../FreeRTOS/Source/event_groups.c ****  */
  27:../../../FreeRTOS/Source/event_groups.c **** 
  28:../../../FreeRTOS/Source/event_groups.c **** /* Standard includes. */
  29:../../../FreeRTOS/Source/event_groups.c **** #include <stdlib.h>
  30:../../../FreeRTOS/Source/event_groups.c **** 
ARM GAS  C:\Users\Jim_YW\AppData\Local\Temp\ccsaULLo.s 			page 2


  31:../../../FreeRTOS/Source/event_groups.c **** /* Defining MPU_WRAPPERS_INCLUDED_FROM_API_FILE prevents task.h from redefining
  32:../../../FreeRTOS/Source/event_groups.c **** all the API functions to use the MPU wrappers.  That should only be done when
  33:../../../FreeRTOS/Source/event_groups.c **** task.h is included from an application file. */
  34:../../../FreeRTOS/Source/event_groups.c **** #define MPU_WRAPPERS_INCLUDED_FROM_API_FILE
  35:../../../FreeRTOS/Source/event_groups.c **** 
  36:../../../FreeRTOS/Source/event_groups.c **** /* FreeRTOS includes. */
  37:../../../FreeRTOS/Source/event_groups.c **** #include "FreeRTOS.h"
  38:../../../FreeRTOS/Source/event_groups.c **** #include "task.h"
  39:../../../FreeRTOS/Source/event_groups.c **** #include "timers.h"
  40:../../../FreeRTOS/Source/event_groups.c **** #include "event_groups.h"
  41:../../../FreeRTOS/Source/event_groups.c **** 
  42:../../../FreeRTOS/Source/event_groups.c **** /* Lint e961, e750 and e9021 are suppressed as a MISRA exception justified
  43:../../../FreeRTOS/Source/event_groups.c **** because the MPU ports require MPU_WRAPPERS_INCLUDED_FROM_API_FILE to be defined
  44:../../../FreeRTOS/Source/event_groups.c **** for the header files above, but not in this file, in order to generate the
  45:../../../FreeRTOS/Source/event_groups.c **** correct privileged Vs unprivileged linkage and placement. */
  46:../../../FreeRTOS/Source/event_groups.c **** #undef MPU_WRAPPERS_INCLUDED_FROM_API_FILE /*lint !e961 !e750 !e9021 See comment above. */
  47:../../../FreeRTOS/Source/event_groups.c **** 
  48:../../../FreeRTOS/Source/event_groups.c **** /* The following bit fields convey control information in a task's event list
  49:../../../FreeRTOS/Source/event_groups.c **** item value.  It is important they don't clash with the
  50:../../../FreeRTOS/Source/event_groups.c **** taskEVENT_LIST_ITEM_VALUE_IN_USE definition. */
  51:../../../FreeRTOS/Source/event_groups.c **** #if configUSE_16_BIT_TICKS == 1
  52:../../../FreeRTOS/Source/event_groups.c **** 	#define eventCLEAR_EVENTS_ON_EXIT_BIT	0x0100U
  53:../../../FreeRTOS/Source/event_groups.c **** 	#define eventUNBLOCKED_DUE_TO_BIT_SET	0x0200U
  54:../../../FreeRTOS/Source/event_groups.c **** 	#define eventWAIT_FOR_ALL_BITS			0x0400U
  55:../../../FreeRTOS/Source/event_groups.c **** 	#define eventEVENT_BITS_CONTROL_BYTES	0xff00U
  56:../../../FreeRTOS/Source/event_groups.c **** #else
  57:../../../FreeRTOS/Source/event_groups.c **** 	#define eventCLEAR_EVENTS_ON_EXIT_BIT	0x01000000UL
  58:../../../FreeRTOS/Source/event_groups.c **** 	#define eventUNBLOCKED_DUE_TO_BIT_SET	0x02000000UL
  59:../../../FreeRTOS/Source/event_groups.c **** 	#define eventWAIT_FOR_ALL_BITS			0x04000000UL
  60:../../../FreeRTOS/Source/event_groups.c **** 	#define eventEVENT_BITS_CONTROL_BYTES	0xff000000UL
  61:../../../FreeRTOS/Source/event_groups.c **** #endif
  62:../../../FreeRTOS/Source/event_groups.c **** 
  63:../../../FreeRTOS/Source/event_groups.c **** typedef struct EventGroupDef_t
  64:../../../FreeRTOS/Source/event_groups.c **** {
  65:../../../FreeRTOS/Source/event_groups.c **** 	EventBits_t uxEventBits;
  66:../../../FreeRTOS/Source/event_groups.c **** 	List_t xTasksWaitingForBits;		/*< List of tasks waiting for a bit to be set. */
  67:../../../FreeRTOS/Source/event_groups.c **** 
  68:../../../FreeRTOS/Source/event_groups.c **** 	#if( configUSE_TRACE_FACILITY == 1 )
  69:../../../FreeRTOS/Source/event_groups.c **** 		UBaseType_t uxEventGroupNumber;
  70:../../../FreeRTOS/Source/event_groups.c **** 	#endif
  71:../../../FreeRTOS/Source/event_groups.c **** 
  72:../../../FreeRTOS/Source/event_groups.c **** 	#if( ( configSUPPORT_STATIC_ALLOCATION == 1 ) && ( configSUPPORT_DYNAMIC_ALLOCATION == 1 ) )
  73:../../../FreeRTOS/Source/event_groups.c **** 		uint8_t ucStaticallyAllocated; /*< Set to pdTRUE if the event group is statically allocated to en
  74:../../../FreeRTOS/Source/event_groups.c **** 	#endif
  75:../../../FreeRTOS/Source/event_groups.c **** } EventGroup_t;
  76:../../../FreeRTOS/Source/event_groups.c **** 
  77:../../../FreeRTOS/Source/event_groups.c **** /*-----------------------------------------------------------*/
  78:../../../FreeRTOS/Source/event_groups.c **** 
  79:../../../FreeRTOS/Source/event_groups.c **** /*
  80:../../../FreeRTOS/Source/event_groups.c ****  * Test the bits set in uxCurrentEventBits to see if the wait condition is met.
  81:../../../FreeRTOS/Source/event_groups.c ****  * The wait condition is defined by xWaitForAllBits.  If xWaitForAllBits is
  82:../../../FreeRTOS/Source/event_groups.c ****  * pdTRUE then the wait condition is met if all the bits set in uxBitsToWaitFor
  83:../../../FreeRTOS/Source/event_groups.c ****  * are also set in uxCurrentEventBits.  If xWaitForAllBits is pdFALSE then the
  84:../../../FreeRTOS/Source/event_groups.c ****  * wait condition is met if any of the bits set in uxBitsToWait for are also set
  85:../../../FreeRTOS/Source/event_groups.c ****  * in uxCurrentEventBits.
  86:../../../FreeRTOS/Source/event_groups.c ****  */
  87:../../../FreeRTOS/Source/event_groups.c **** static BaseType_t prvTestWaitCondition( const EventBits_t uxCurrentEventBits, const EventBits_t uxB
ARM GAS  C:\Users\Jim_YW\AppData\Local\Temp\ccsaULLo.s 			page 3


  88:../../../FreeRTOS/Source/event_groups.c **** 
  89:../../../FreeRTOS/Source/event_groups.c **** /*-----------------------------------------------------------*/
  90:../../../FreeRTOS/Source/event_groups.c **** 
  91:../../../FreeRTOS/Source/event_groups.c **** #if( configSUPPORT_STATIC_ALLOCATION == 1 )
  92:../../../FreeRTOS/Source/event_groups.c **** 
  93:../../../FreeRTOS/Source/event_groups.c **** 	EventGroupHandle_t xEventGroupCreateStatic( StaticEventGroup_t *pxEventGroupBuffer )
  94:../../../FreeRTOS/Source/event_groups.c **** 	{
  95:../../../FreeRTOS/Source/event_groups.c **** 	EventGroup_t *pxEventBits;
  96:../../../FreeRTOS/Source/event_groups.c **** 
  97:../../../FreeRTOS/Source/event_groups.c **** 		/* A StaticEventGroup_t object must be provided. */
  98:../../../FreeRTOS/Source/event_groups.c **** 		configASSERT( pxEventGroupBuffer );
  99:../../../FreeRTOS/Source/event_groups.c **** 
 100:../../../FreeRTOS/Source/event_groups.c **** 		#if( configASSERT_DEFINED == 1 )
 101:../../../FreeRTOS/Source/event_groups.c **** 		{
 102:../../../FreeRTOS/Source/event_groups.c **** 			/* Sanity check that the size of the structure used to declare a
 103:../../../FreeRTOS/Source/event_groups.c **** 			variable of type StaticEventGroup_t equals the size of the real
 104:../../../FreeRTOS/Source/event_groups.c **** 			event group structure. */
 105:../../../FreeRTOS/Source/event_groups.c **** 			volatile size_t xSize = sizeof( StaticEventGroup_t );
 106:../../../FreeRTOS/Source/event_groups.c **** 			configASSERT( xSize == sizeof( EventGroup_t ) );
 107:../../../FreeRTOS/Source/event_groups.c **** 		} /*lint !e529 xSize is referenced if configASSERT() is defined. */
 108:../../../FreeRTOS/Source/event_groups.c **** 		#endif /* configASSERT_DEFINED */
 109:../../../FreeRTOS/Source/event_groups.c **** 
 110:../../../FreeRTOS/Source/event_groups.c **** 		/* The user has provided a statically allocated event group - use it. */
 111:../../../FreeRTOS/Source/event_groups.c **** 		pxEventBits = ( EventGroup_t * ) pxEventGroupBuffer; /*lint !e740 !e9087 EventGroup_t and StaticE
 112:../../../FreeRTOS/Source/event_groups.c **** 
 113:../../../FreeRTOS/Source/event_groups.c **** 		if( pxEventBits != NULL )
 114:../../../FreeRTOS/Source/event_groups.c **** 		{
 115:../../../FreeRTOS/Source/event_groups.c **** 			pxEventBits->uxEventBits = 0;
 116:../../../FreeRTOS/Source/event_groups.c **** 			vListInitialise( &( pxEventBits->xTasksWaitingForBits ) );
 117:../../../FreeRTOS/Source/event_groups.c **** 
 118:../../../FreeRTOS/Source/event_groups.c **** 			#if( configSUPPORT_DYNAMIC_ALLOCATION == 1 )
 119:../../../FreeRTOS/Source/event_groups.c **** 			{
 120:../../../FreeRTOS/Source/event_groups.c **** 				/* Both static and dynamic allocation can be used, so note that
 121:../../../FreeRTOS/Source/event_groups.c **** 				this event group was created statically in case the event group
 122:../../../FreeRTOS/Source/event_groups.c **** 				is later deleted. */
 123:../../../FreeRTOS/Source/event_groups.c **** 				pxEventBits->ucStaticallyAllocated = pdTRUE;
 124:../../../FreeRTOS/Source/event_groups.c **** 			}
 125:../../../FreeRTOS/Source/event_groups.c **** 			#endif /* configSUPPORT_DYNAMIC_ALLOCATION */
 126:../../../FreeRTOS/Source/event_groups.c **** 
 127:../../../FreeRTOS/Source/event_groups.c **** 			traceEVENT_GROUP_CREATE( pxEventBits );
 128:../../../FreeRTOS/Source/event_groups.c **** 		}
 129:../../../FreeRTOS/Source/event_groups.c **** 		else
 130:../../../FreeRTOS/Source/event_groups.c **** 		{
 131:../../../FreeRTOS/Source/event_groups.c **** 			/* xEventGroupCreateStatic should only ever be called with
 132:../../../FreeRTOS/Source/event_groups.c **** 			pxEventGroupBuffer pointing to a pre-allocated (compile time
 133:../../../FreeRTOS/Source/event_groups.c **** 			allocated) StaticEventGroup_t variable. */
 134:../../../FreeRTOS/Source/event_groups.c **** 			traceEVENT_GROUP_CREATE_FAILED();
 135:../../../FreeRTOS/Source/event_groups.c **** 		}
 136:../../../FreeRTOS/Source/event_groups.c **** 
 137:../../../FreeRTOS/Source/event_groups.c **** 		return pxEventBits;
 138:../../../FreeRTOS/Source/event_groups.c **** 	}
 139:../../../FreeRTOS/Source/event_groups.c **** 
 140:../../../FreeRTOS/Source/event_groups.c **** #endif /* configSUPPORT_STATIC_ALLOCATION */
 141:../../../FreeRTOS/Source/event_groups.c **** /*-----------------------------------------------------------*/
 142:../../../FreeRTOS/Source/event_groups.c **** 
 143:../../../FreeRTOS/Source/event_groups.c **** #if( configSUPPORT_DYNAMIC_ALLOCATION == 1 )
 144:../../../FreeRTOS/Source/event_groups.c **** 
ARM GAS  C:\Users\Jim_YW\AppData\Local\Temp\ccsaULLo.s 			page 4


 145:../../../FreeRTOS/Source/event_groups.c **** 	EventGroupHandle_t xEventGroupCreate( void )
 146:../../../FreeRTOS/Source/event_groups.c **** 	{
 147:../../../FreeRTOS/Source/event_groups.c **** 	EventGroup_t *pxEventBits;
 148:../../../FreeRTOS/Source/event_groups.c **** 
 149:../../../FreeRTOS/Source/event_groups.c **** 		/* Allocate the event group.  Justification for MISRA deviation as
 150:../../../FreeRTOS/Source/event_groups.c **** 		follows:  pvPortMalloc() always ensures returned memory blocks are
 151:../../../FreeRTOS/Source/event_groups.c **** 		aligned per the requirements of the MCU stack.  In this case
 152:../../../FreeRTOS/Source/event_groups.c **** 		pvPortMalloc() must return a pointer that is guaranteed to meet the
 153:../../../FreeRTOS/Source/event_groups.c **** 		alignment requirements of the EventGroup_t structure - which (if you
 154:../../../FreeRTOS/Source/event_groups.c **** 		follow it through) is the alignment requirements of the TickType_t type
 155:../../../FreeRTOS/Source/event_groups.c **** 		(EventBits_t being of TickType_t itself).  Therefore, whenever the
 156:../../../FreeRTOS/Source/event_groups.c **** 		stack alignment requirements are greater than or equal to the
 157:../../../FreeRTOS/Source/event_groups.c **** 		TickType_t alignment requirements the cast is safe.  In other cases,
 158:../../../FreeRTOS/Source/event_groups.c **** 		where the natural word size of the architecture is less than
 159:../../../FreeRTOS/Source/event_groups.c **** 		sizeof( TickType_t ), the TickType_t variables will be accessed in two
 160:../../../FreeRTOS/Source/event_groups.c **** 		or more reads operations, and the alignment requirements is only that
 161:../../../FreeRTOS/Source/event_groups.c **** 		of each individual read. */
 162:../../../FreeRTOS/Source/event_groups.c **** 		pxEventBits = ( EventGroup_t * ) pvPortMalloc( sizeof( EventGroup_t ) ); /*lint !e9087 !e9079 see
 163:../../../FreeRTOS/Source/event_groups.c **** 
 164:../../../FreeRTOS/Source/event_groups.c **** 		if( pxEventBits != NULL )
 165:../../../FreeRTOS/Source/event_groups.c **** 		{
 166:../../../FreeRTOS/Source/event_groups.c **** 			pxEventBits->uxEventBits = 0;
 167:../../../FreeRTOS/Source/event_groups.c **** 			vListInitialise( &( pxEventBits->xTasksWaitingForBits ) );
 168:../../../FreeRTOS/Source/event_groups.c **** 
 169:../../../FreeRTOS/Source/event_groups.c **** 			#if( configSUPPORT_STATIC_ALLOCATION == 1 )
 170:../../../FreeRTOS/Source/event_groups.c **** 			{
 171:../../../FreeRTOS/Source/event_groups.c **** 				/* Both static and dynamic allocation can be used, so note this
 172:../../../FreeRTOS/Source/event_groups.c **** 				event group was allocated statically in case the event group is
 173:../../../FreeRTOS/Source/event_groups.c **** 				later deleted. */
 174:../../../FreeRTOS/Source/event_groups.c **** 				pxEventBits->ucStaticallyAllocated = pdFALSE;
 175:../../../FreeRTOS/Source/event_groups.c **** 			}
 176:../../../FreeRTOS/Source/event_groups.c **** 			#endif /* configSUPPORT_STATIC_ALLOCATION */
 177:../../../FreeRTOS/Source/event_groups.c **** 
 178:../../../FreeRTOS/Source/event_groups.c **** 			traceEVENT_GROUP_CREATE( pxEventBits );
 179:../../../FreeRTOS/Source/event_groups.c **** 		}
 180:../../../FreeRTOS/Source/event_groups.c **** 		else
 181:../../../FreeRTOS/Source/event_groups.c **** 		{
 182:../../../FreeRTOS/Source/event_groups.c **** 			traceEVENT_GROUP_CREATE_FAILED(); /*lint !e9063 Else branch only exists to allow tracing and doe
 183:../../../FreeRTOS/Source/event_groups.c **** 		}
 184:../../../FreeRTOS/Source/event_groups.c **** 
 185:../../../FreeRTOS/Source/event_groups.c **** 		return pxEventBits;
 186:../../../FreeRTOS/Source/event_groups.c **** 	}
 187:../../../FreeRTOS/Source/event_groups.c **** 
 188:../../../FreeRTOS/Source/event_groups.c **** #endif /* configSUPPORT_DYNAMIC_ALLOCATION */
 189:../../../FreeRTOS/Source/event_groups.c **** /*-----------------------------------------------------------*/
 190:../../../FreeRTOS/Source/event_groups.c **** 
 191:../../../FreeRTOS/Source/event_groups.c **** EventBits_t xEventGroupSync( EventGroupHandle_t xEventGroup, const EventBits_t uxBitsToSet, const E
 192:../../../FreeRTOS/Source/event_groups.c **** {
 193:../../../FreeRTOS/Source/event_groups.c **** EventBits_t uxOriginalBitValue, uxReturn;
 194:../../../FreeRTOS/Source/event_groups.c **** EventGroup_t *pxEventBits = xEventGroup;
 195:../../../FreeRTOS/Source/event_groups.c **** BaseType_t xAlreadyYielded;
 196:../../../FreeRTOS/Source/event_groups.c **** BaseType_t xTimeoutOccurred = pdFALSE;
 197:../../../FreeRTOS/Source/event_groups.c **** 
 198:../../../FreeRTOS/Source/event_groups.c **** 	configASSERT( ( uxBitsToWaitFor & eventEVENT_BITS_CONTROL_BYTES ) == 0 );
 199:../../../FreeRTOS/Source/event_groups.c **** 	configASSERT( uxBitsToWaitFor != 0 );
 200:../../../FreeRTOS/Source/event_groups.c **** 	#if ( ( INCLUDE_xTaskGetSchedulerState == 1 ) || ( configUSE_TIMERS == 1 ) )
 201:../../../FreeRTOS/Source/event_groups.c **** 	{
ARM GAS  C:\Users\Jim_YW\AppData\Local\Temp\ccsaULLo.s 			page 5


 202:../../../FreeRTOS/Source/event_groups.c **** 		configASSERT( !( ( xTaskGetSchedulerState() == taskSCHEDULER_SUSPENDED ) && ( xTicksToWait != 0 )
 203:../../../FreeRTOS/Source/event_groups.c **** 	}
 204:../../../FreeRTOS/Source/event_groups.c **** 	#endif
 205:../../../FreeRTOS/Source/event_groups.c **** 
 206:../../../FreeRTOS/Source/event_groups.c **** 	vTaskSuspendAll();
 207:../../../FreeRTOS/Source/event_groups.c **** 	{
 208:../../../FreeRTOS/Source/event_groups.c **** 		uxOriginalBitValue = pxEventBits->uxEventBits;
 209:../../../FreeRTOS/Source/event_groups.c **** 
 210:../../../FreeRTOS/Source/event_groups.c **** 		( void ) xEventGroupSetBits( xEventGroup, uxBitsToSet );
 211:../../../FreeRTOS/Source/event_groups.c **** 
 212:../../../FreeRTOS/Source/event_groups.c **** 		if( ( ( uxOriginalBitValue | uxBitsToSet ) & uxBitsToWaitFor ) == uxBitsToWaitFor )
 213:../../../FreeRTOS/Source/event_groups.c **** 		{
 214:../../../FreeRTOS/Source/event_groups.c **** 			/* All the rendezvous bits are now set - no need to block. */
 215:../../../FreeRTOS/Source/event_groups.c **** 			uxReturn = ( uxOriginalBitValue | uxBitsToSet );
 216:../../../FreeRTOS/Source/event_groups.c **** 
 217:../../../FreeRTOS/Source/event_groups.c **** 			/* Rendezvous always clear the bits.  They will have been cleared
 218:../../../FreeRTOS/Source/event_groups.c **** 			already unless this is the only task in the rendezvous. */
 219:../../../FreeRTOS/Source/event_groups.c **** 			pxEventBits->uxEventBits &= ~uxBitsToWaitFor;
 220:../../../FreeRTOS/Source/event_groups.c **** 
 221:../../../FreeRTOS/Source/event_groups.c **** 			xTicksToWait = 0;
 222:../../../FreeRTOS/Source/event_groups.c **** 		}
 223:../../../FreeRTOS/Source/event_groups.c **** 		else
 224:../../../FreeRTOS/Source/event_groups.c **** 		{
 225:../../../FreeRTOS/Source/event_groups.c **** 			if( xTicksToWait != ( TickType_t ) 0 )
 226:../../../FreeRTOS/Source/event_groups.c **** 			{
 227:../../../FreeRTOS/Source/event_groups.c **** 				traceEVENT_GROUP_SYNC_BLOCK( xEventGroup, uxBitsToSet, uxBitsToWaitFor );
 228:../../../FreeRTOS/Source/event_groups.c **** 
 229:../../../FreeRTOS/Source/event_groups.c **** 				/* Store the bits that the calling task is waiting for in the
 230:../../../FreeRTOS/Source/event_groups.c **** 				task's event list item so the kernel knows when a match is
 231:../../../FreeRTOS/Source/event_groups.c **** 				found.  Then enter the blocked state. */
 232:../../../FreeRTOS/Source/event_groups.c **** 				vTaskPlaceOnUnorderedEventList( &( pxEventBits->xTasksWaitingForBits ), ( uxBitsToWaitFor | eve
 233:../../../FreeRTOS/Source/event_groups.c **** 
 234:../../../FreeRTOS/Source/event_groups.c **** 				/* This assignment is obsolete as uxReturn will get set after
 235:../../../FreeRTOS/Source/event_groups.c **** 				the task unblocks, but some compilers mistakenly generate a
 236:../../../FreeRTOS/Source/event_groups.c **** 				warning about uxReturn being returned without being set if the
 237:../../../FreeRTOS/Source/event_groups.c **** 				assignment is omitted. */
 238:../../../FreeRTOS/Source/event_groups.c **** 				uxReturn = 0;
 239:../../../FreeRTOS/Source/event_groups.c **** 			}
 240:../../../FreeRTOS/Source/event_groups.c **** 			else
 241:../../../FreeRTOS/Source/event_groups.c **** 			{
 242:../../../FreeRTOS/Source/event_groups.c **** 				/* The rendezvous bits were not set, but no block time was
 243:../../../FreeRTOS/Source/event_groups.c **** 				specified - just return the current event bit value. */
 244:../../../FreeRTOS/Source/event_groups.c **** 				uxReturn = pxEventBits->uxEventBits;
 245:../../../FreeRTOS/Source/event_groups.c **** 				xTimeoutOccurred = pdTRUE;
 246:../../../FreeRTOS/Source/event_groups.c **** 			}
 247:../../../FreeRTOS/Source/event_groups.c **** 		}
 248:../../../FreeRTOS/Source/event_groups.c **** 	}
 249:../../../FreeRTOS/Source/event_groups.c **** 	xAlreadyYielded = xTaskResumeAll();
 250:../../../FreeRTOS/Source/event_groups.c **** 
 251:../../../FreeRTOS/Source/event_groups.c **** 	if( xTicksToWait != ( TickType_t ) 0 )
 252:../../../FreeRTOS/Source/event_groups.c **** 	{
 253:../../../FreeRTOS/Source/event_groups.c **** 		if( xAlreadyYielded == pdFALSE )
 254:../../../FreeRTOS/Source/event_groups.c **** 		{
 255:../../../FreeRTOS/Source/event_groups.c **** 			portYIELD_WITHIN_API();
 256:../../../FreeRTOS/Source/event_groups.c **** 		}
 257:../../../FreeRTOS/Source/event_groups.c **** 		else
 258:../../../FreeRTOS/Source/event_groups.c **** 		{
ARM GAS  C:\Users\Jim_YW\AppData\Local\Temp\ccsaULLo.s 			page 6


 259:../../../FreeRTOS/Source/event_groups.c **** 			mtCOVERAGE_TEST_MARKER();
 260:../../../FreeRTOS/Source/event_groups.c **** 		}
 261:../../../FreeRTOS/Source/event_groups.c **** 
 262:../../../FreeRTOS/Source/event_groups.c **** 		/* The task blocked to wait for its required bits to be set - at this
 263:../../../FreeRTOS/Source/event_groups.c **** 		point either the required bits were set or the block time expired.  If
 264:../../../FreeRTOS/Source/event_groups.c **** 		the required bits were set they will have been stored in the task's
 265:../../../FreeRTOS/Source/event_groups.c **** 		event list item, and they should now be retrieved then cleared. */
 266:../../../FreeRTOS/Source/event_groups.c **** 		uxReturn = uxTaskResetEventItemValue();
 267:../../../FreeRTOS/Source/event_groups.c **** 
 268:../../../FreeRTOS/Source/event_groups.c **** 		if( ( uxReturn & eventUNBLOCKED_DUE_TO_BIT_SET ) == ( EventBits_t ) 0 )
 269:../../../FreeRTOS/Source/event_groups.c **** 		{
 270:../../../FreeRTOS/Source/event_groups.c **** 			/* The task timed out, just return the current event bit value. */
 271:../../../FreeRTOS/Source/event_groups.c **** 			taskENTER_CRITICAL();
 272:../../../FreeRTOS/Source/event_groups.c **** 			{
 273:../../../FreeRTOS/Source/event_groups.c **** 				uxReturn = pxEventBits->uxEventBits;
 274:../../../FreeRTOS/Source/event_groups.c **** 
 275:../../../FreeRTOS/Source/event_groups.c **** 				/* Although the task got here because it timed out before the
 276:../../../FreeRTOS/Source/event_groups.c **** 				bits it was waiting for were set, it is possible that since it
 277:../../../FreeRTOS/Source/event_groups.c **** 				unblocked another task has set the bits.  If this is the case
 278:../../../FreeRTOS/Source/event_groups.c **** 				then it needs to clear the bits before exiting. */
 279:../../../FreeRTOS/Source/event_groups.c **** 				if( ( uxReturn & uxBitsToWaitFor ) == uxBitsToWaitFor )
 280:../../../FreeRTOS/Source/event_groups.c **** 				{
 281:../../../FreeRTOS/Source/event_groups.c **** 					pxEventBits->uxEventBits &= ~uxBitsToWaitFor;
 282:../../../FreeRTOS/Source/event_groups.c **** 				}
 283:../../../FreeRTOS/Source/event_groups.c **** 				else
 284:../../../FreeRTOS/Source/event_groups.c **** 				{
 285:../../../FreeRTOS/Source/event_groups.c **** 					mtCOVERAGE_TEST_MARKER();
 286:../../../FreeRTOS/Source/event_groups.c **** 				}
 287:../../../FreeRTOS/Source/event_groups.c **** 			}
 288:../../../FreeRTOS/Source/event_groups.c **** 			taskEXIT_CRITICAL();
 289:../../../FreeRTOS/Source/event_groups.c **** 
 290:../../../FreeRTOS/Source/event_groups.c **** 			xTimeoutOccurred = pdTRUE;
 291:../../../FreeRTOS/Source/event_groups.c **** 		}
 292:../../../FreeRTOS/Source/event_groups.c **** 		else
 293:../../../FreeRTOS/Source/event_groups.c **** 		{
 294:../../../FreeRTOS/Source/event_groups.c **** 			/* The task unblocked because the bits were set. */
 295:../../../FreeRTOS/Source/event_groups.c **** 		}
 296:../../../FreeRTOS/Source/event_groups.c **** 
 297:../../../FreeRTOS/Source/event_groups.c **** 		/* Control bits might be set as the task had blocked should not be
 298:../../../FreeRTOS/Source/event_groups.c **** 		returned. */
 299:../../../FreeRTOS/Source/event_groups.c **** 		uxReturn &= ~eventEVENT_BITS_CONTROL_BYTES;
 300:../../../FreeRTOS/Source/event_groups.c **** 	}
 301:../../../FreeRTOS/Source/event_groups.c **** 
 302:../../../FreeRTOS/Source/event_groups.c **** 	traceEVENT_GROUP_SYNC_END( xEventGroup, uxBitsToSet, uxBitsToWaitFor, xTimeoutOccurred );
 303:../../../FreeRTOS/Source/event_groups.c **** 
 304:../../../FreeRTOS/Source/event_groups.c **** 	/* Prevent compiler warnings when trace macros are not used. */
 305:../../../FreeRTOS/Source/event_groups.c **** 	( void ) xTimeoutOccurred;
 306:../../../FreeRTOS/Source/event_groups.c **** 
 307:../../../FreeRTOS/Source/event_groups.c **** 	return uxReturn;
 308:../../../FreeRTOS/Source/event_groups.c **** }
 309:../../../FreeRTOS/Source/event_groups.c **** /*-----------------------------------------------------------*/
 310:../../../FreeRTOS/Source/event_groups.c **** 
 311:../../../FreeRTOS/Source/event_groups.c **** EventBits_t xEventGroupWaitBits( EventGroupHandle_t xEventGroup, const EventBits_t uxBitsToWaitFor,
 312:../../../FreeRTOS/Source/event_groups.c **** {
 313:../../../FreeRTOS/Source/event_groups.c **** EventGroup_t *pxEventBits = xEventGroup;
 314:../../../FreeRTOS/Source/event_groups.c **** EventBits_t uxReturn, uxControlBits = 0;
 315:../../../FreeRTOS/Source/event_groups.c **** BaseType_t xWaitConditionMet, xAlreadyYielded;
ARM GAS  C:\Users\Jim_YW\AppData\Local\Temp\ccsaULLo.s 			page 7


 316:../../../FreeRTOS/Source/event_groups.c **** BaseType_t xTimeoutOccurred = pdFALSE;
 317:../../../FreeRTOS/Source/event_groups.c **** 
 318:../../../FreeRTOS/Source/event_groups.c **** 	/* Check the user is not attempting to wait on the bits used by the kernel
 319:../../../FreeRTOS/Source/event_groups.c **** 	itself, and that at least one bit is being requested. */
 320:../../../FreeRTOS/Source/event_groups.c **** 	configASSERT( xEventGroup );
 321:../../../FreeRTOS/Source/event_groups.c **** 	configASSERT( ( uxBitsToWaitFor & eventEVENT_BITS_CONTROL_BYTES ) == 0 );
 322:../../../FreeRTOS/Source/event_groups.c **** 	configASSERT( uxBitsToWaitFor != 0 );
 323:../../../FreeRTOS/Source/event_groups.c **** 	#if ( ( INCLUDE_xTaskGetSchedulerState == 1 ) || ( configUSE_TIMERS == 1 ) )
 324:../../../FreeRTOS/Source/event_groups.c **** 	{
 325:../../../FreeRTOS/Source/event_groups.c **** 		configASSERT( !( ( xTaskGetSchedulerState() == taskSCHEDULER_SUSPENDED ) && ( xTicksToWait != 0 )
 326:../../../FreeRTOS/Source/event_groups.c **** 	}
 327:../../../FreeRTOS/Source/event_groups.c **** 	#endif
 328:../../../FreeRTOS/Source/event_groups.c **** 
 329:../../../FreeRTOS/Source/event_groups.c **** 	vTaskSuspendAll();
 330:../../../FreeRTOS/Source/event_groups.c **** 	{
 331:../../../FreeRTOS/Source/event_groups.c **** 		const EventBits_t uxCurrentEventBits = pxEventBits->uxEventBits;
 332:../../../FreeRTOS/Source/event_groups.c **** 
 333:../../../FreeRTOS/Source/event_groups.c **** 		/* Check to see if the wait condition is already met or not. */
 334:../../../FreeRTOS/Source/event_groups.c **** 		xWaitConditionMet = prvTestWaitCondition( uxCurrentEventBits, uxBitsToWaitFor, xWaitForAllBits );
 335:../../../FreeRTOS/Source/event_groups.c **** 
 336:../../../FreeRTOS/Source/event_groups.c **** 		if( xWaitConditionMet != pdFALSE )
 337:../../../FreeRTOS/Source/event_groups.c **** 		{
 338:../../../FreeRTOS/Source/event_groups.c **** 			/* The wait condition has already been met so there is no need to
 339:../../../FreeRTOS/Source/event_groups.c **** 			block. */
 340:../../../FreeRTOS/Source/event_groups.c **** 			uxReturn = uxCurrentEventBits;
 341:../../../FreeRTOS/Source/event_groups.c **** 			xTicksToWait = ( TickType_t ) 0;
 342:../../../FreeRTOS/Source/event_groups.c **** 
 343:../../../FreeRTOS/Source/event_groups.c **** 			/* Clear the wait bits if requested to do so. */
 344:../../../FreeRTOS/Source/event_groups.c **** 			if( xClearOnExit != pdFALSE )
 345:../../../FreeRTOS/Source/event_groups.c **** 			{
 346:../../../FreeRTOS/Source/event_groups.c **** 				pxEventBits->uxEventBits &= ~uxBitsToWaitFor;
 347:../../../FreeRTOS/Source/event_groups.c **** 			}
 348:../../../FreeRTOS/Source/event_groups.c **** 			else
 349:../../../FreeRTOS/Source/event_groups.c **** 			{
 350:../../../FreeRTOS/Source/event_groups.c **** 				mtCOVERAGE_TEST_MARKER();
 351:../../../FreeRTOS/Source/event_groups.c **** 			}
 352:../../../FreeRTOS/Source/event_groups.c **** 		}
 353:../../../FreeRTOS/Source/event_groups.c **** 		else if( xTicksToWait == ( TickType_t ) 0 )
 354:../../../FreeRTOS/Source/event_groups.c **** 		{
 355:../../../FreeRTOS/Source/event_groups.c **** 			/* The wait condition has not been met, but no block time was
 356:../../../FreeRTOS/Source/event_groups.c **** 			specified, so just return the current value. */
 357:../../../FreeRTOS/Source/event_groups.c **** 			uxReturn = uxCurrentEventBits;
 358:../../../FreeRTOS/Source/event_groups.c **** 			xTimeoutOccurred = pdTRUE;
 359:../../../FreeRTOS/Source/event_groups.c **** 		}
 360:../../../FreeRTOS/Source/event_groups.c **** 		else
 361:../../../FreeRTOS/Source/event_groups.c **** 		{
 362:../../../FreeRTOS/Source/event_groups.c **** 			/* The task is going to block to wait for its required bits to be
 363:../../../FreeRTOS/Source/event_groups.c **** 			set.  uxControlBits are used to remember the specified behaviour of
 364:../../../FreeRTOS/Source/event_groups.c **** 			this call to xEventGroupWaitBits() - for use when the event bits
 365:../../../FreeRTOS/Source/event_groups.c **** 			unblock the task. */
 366:../../../FreeRTOS/Source/event_groups.c **** 			if( xClearOnExit != pdFALSE )
 367:../../../FreeRTOS/Source/event_groups.c **** 			{
 368:../../../FreeRTOS/Source/event_groups.c **** 				uxControlBits |= eventCLEAR_EVENTS_ON_EXIT_BIT;
 369:../../../FreeRTOS/Source/event_groups.c **** 			}
 370:../../../FreeRTOS/Source/event_groups.c **** 			else
 371:../../../FreeRTOS/Source/event_groups.c **** 			{
 372:../../../FreeRTOS/Source/event_groups.c **** 				mtCOVERAGE_TEST_MARKER();
ARM GAS  C:\Users\Jim_YW\AppData\Local\Temp\ccsaULLo.s 			page 8


 373:../../../FreeRTOS/Source/event_groups.c **** 			}
 374:../../../FreeRTOS/Source/event_groups.c **** 
 375:../../../FreeRTOS/Source/event_groups.c **** 			if( xWaitForAllBits != pdFALSE )
 376:../../../FreeRTOS/Source/event_groups.c **** 			{
 377:../../../FreeRTOS/Source/event_groups.c **** 				uxControlBits |= eventWAIT_FOR_ALL_BITS;
 378:../../../FreeRTOS/Source/event_groups.c **** 			}
 379:../../../FreeRTOS/Source/event_groups.c **** 			else
 380:../../../FreeRTOS/Source/event_groups.c **** 			{
 381:../../../FreeRTOS/Source/event_groups.c **** 				mtCOVERAGE_TEST_MARKER();
 382:../../../FreeRTOS/Source/event_groups.c **** 			}
 383:../../../FreeRTOS/Source/event_groups.c **** 
 384:../../../FreeRTOS/Source/event_groups.c **** 			/* Store the bits that the calling task is waiting for in the
 385:../../../FreeRTOS/Source/event_groups.c **** 			task's event list item so the kernel knows when a match is
 386:../../../FreeRTOS/Source/event_groups.c **** 			found.  Then enter the blocked state. */
 387:../../../FreeRTOS/Source/event_groups.c **** 			vTaskPlaceOnUnorderedEventList( &( pxEventBits->xTasksWaitingForBits ), ( uxBitsToWaitFor | uxCo
 388:../../../FreeRTOS/Source/event_groups.c **** 
 389:../../../FreeRTOS/Source/event_groups.c **** 			/* This is obsolete as it will get set after the task unblocks, but
 390:../../../FreeRTOS/Source/event_groups.c **** 			some compilers mistakenly generate a warning about the variable
 391:../../../FreeRTOS/Source/event_groups.c **** 			being returned without being set if it is not done. */
 392:../../../FreeRTOS/Source/event_groups.c **** 			uxReturn = 0;
 393:../../../FreeRTOS/Source/event_groups.c **** 
 394:../../../FreeRTOS/Source/event_groups.c **** 			traceEVENT_GROUP_WAIT_BITS_BLOCK( xEventGroup, uxBitsToWaitFor );
 395:../../../FreeRTOS/Source/event_groups.c **** 		}
 396:../../../FreeRTOS/Source/event_groups.c **** 	}
 397:../../../FreeRTOS/Source/event_groups.c **** 	xAlreadyYielded = xTaskResumeAll();
 398:../../../FreeRTOS/Source/event_groups.c **** 
 399:../../../FreeRTOS/Source/event_groups.c **** 	if( xTicksToWait != ( TickType_t ) 0 )
 400:../../../FreeRTOS/Source/event_groups.c **** 	{
 401:../../../FreeRTOS/Source/event_groups.c **** 		if( xAlreadyYielded == pdFALSE )
 402:../../../FreeRTOS/Source/event_groups.c **** 		{
 403:../../../FreeRTOS/Source/event_groups.c **** 			portYIELD_WITHIN_API();
 404:../../../FreeRTOS/Source/event_groups.c **** 		}
 405:../../../FreeRTOS/Source/event_groups.c **** 		else
 406:../../../FreeRTOS/Source/event_groups.c **** 		{
 407:../../../FreeRTOS/Source/event_groups.c **** 			mtCOVERAGE_TEST_MARKER();
 408:../../../FreeRTOS/Source/event_groups.c **** 		}
 409:../../../FreeRTOS/Source/event_groups.c **** 
 410:../../../FreeRTOS/Source/event_groups.c **** 		/* The task blocked to wait for its required bits to be set - at this
 411:../../../FreeRTOS/Source/event_groups.c **** 		point either the required bits were set or the block time expired.  If
 412:../../../FreeRTOS/Source/event_groups.c **** 		the required bits were set they will have been stored in the task's
 413:../../../FreeRTOS/Source/event_groups.c **** 		event list item, and they should now be retrieved then cleared. */
 414:../../../FreeRTOS/Source/event_groups.c **** 		uxReturn = uxTaskResetEventItemValue();
 415:../../../FreeRTOS/Source/event_groups.c **** 
 416:../../../FreeRTOS/Source/event_groups.c **** 		if( ( uxReturn & eventUNBLOCKED_DUE_TO_BIT_SET ) == ( EventBits_t ) 0 )
 417:../../../FreeRTOS/Source/event_groups.c **** 		{
 418:../../../FreeRTOS/Source/event_groups.c **** 			taskENTER_CRITICAL();
 419:../../../FreeRTOS/Source/event_groups.c **** 			{
 420:../../../FreeRTOS/Source/event_groups.c **** 				/* The task timed out, just return the current event bit value. */
 421:../../../FreeRTOS/Source/event_groups.c **** 				uxReturn = pxEventBits->uxEventBits;
 422:../../../FreeRTOS/Source/event_groups.c **** 
 423:../../../FreeRTOS/Source/event_groups.c **** 				/* It is possible that the event bits were updated between this
 424:../../../FreeRTOS/Source/event_groups.c **** 				task leaving the Blocked state and running again. */
 425:../../../FreeRTOS/Source/event_groups.c **** 				if( prvTestWaitCondition( uxReturn, uxBitsToWaitFor, xWaitForAllBits ) != pdFALSE )
 426:../../../FreeRTOS/Source/event_groups.c **** 				{
 427:../../../FreeRTOS/Source/event_groups.c **** 					if( xClearOnExit != pdFALSE )
 428:../../../FreeRTOS/Source/event_groups.c **** 					{
 429:../../../FreeRTOS/Source/event_groups.c **** 						pxEventBits->uxEventBits &= ~uxBitsToWaitFor;
ARM GAS  C:\Users\Jim_YW\AppData\Local\Temp\ccsaULLo.s 			page 9


 430:../../../FreeRTOS/Source/event_groups.c **** 					}
 431:../../../FreeRTOS/Source/event_groups.c **** 					else
 432:../../../FreeRTOS/Source/event_groups.c **** 					{
 433:../../../FreeRTOS/Source/event_groups.c **** 						mtCOVERAGE_TEST_MARKER();
 434:../../../FreeRTOS/Source/event_groups.c **** 					}
 435:../../../FreeRTOS/Source/event_groups.c **** 				}
 436:../../../FreeRTOS/Source/event_groups.c **** 				else
 437:../../../FreeRTOS/Source/event_groups.c **** 				{
 438:../../../FreeRTOS/Source/event_groups.c **** 					mtCOVERAGE_TEST_MARKER();
 439:../../../FreeRTOS/Source/event_groups.c **** 				}
 440:../../../FreeRTOS/Source/event_groups.c **** 				xTimeoutOccurred = pdTRUE;
 441:../../../FreeRTOS/Source/event_groups.c **** 			}
 442:../../../FreeRTOS/Source/event_groups.c **** 			taskEXIT_CRITICAL();
 443:../../../FreeRTOS/Source/event_groups.c **** 		}
 444:../../../FreeRTOS/Source/event_groups.c **** 		else
 445:../../../FreeRTOS/Source/event_groups.c **** 		{
 446:../../../FreeRTOS/Source/event_groups.c **** 			/* The task unblocked because the bits were set. */
 447:../../../FreeRTOS/Source/event_groups.c **** 		}
 448:../../../FreeRTOS/Source/event_groups.c **** 
 449:../../../FreeRTOS/Source/event_groups.c **** 		/* The task blocked so control bits may have been set. */
 450:../../../FreeRTOS/Source/event_groups.c **** 		uxReturn &= ~eventEVENT_BITS_CONTROL_BYTES;
 451:../../../FreeRTOS/Source/event_groups.c **** 	}
 452:../../../FreeRTOS/Source/event_groups.c **** 	traceEVENT_GROUP_WAIT_BITS_END( xEventGroup, uxBitsToWaitFor, xTimeoutOccurred );
 453:../../../FreeRTOS/Source/event_groups.c **** 
 454:../../../FreeRTOS/Source/event_groups.c **** 	/* Prevent compiler warnings when trace macros are not used. */
 455:../../../FreeRTOS/Source/event_groups.c **** 	( void ) xTimeoutOccurred;
 456:../../../FreeRTOS/Source/event_groups.c **** 
 457:../../../FreeRTOS/Source/event_groups.c **** 	return uxReturn;
 458:../../../FreeRTOS/Source/event_groups.c **** }
 459:../../../FreeRTOS/Source/event_groups.c **** /*-----------------------------------------------------------*/
 460:../../../FreeRTOS/Source/event_groups.c **** 
 461:../../../FreeRTOS/Source/event_groups.c **** EventBits_t xEventGroupClearBits( EventGroupHandle_t xEventGroup, const EventBits_t uxBitsToClear )
 462:../../../FreeRTOS/Source/event_groups.c **** {
 463:../../../FreeRTOS/Source/event_groups.c **** EventGroup_t *pxEventBits = xEventGroup;
 464:../../../FreeRTOS/Source/event_groups.c **** EventBits_t uxReturn;
 465:../../../FreeRTOS/Source/event_groups.c **** 
 466:../../../FreeRTOS/Source/event_groups.c **** 	/* Check the user is not attempting to clear the bits used by the kernel
 467:../../../FreeRTOS/Source/event_groups.c **** 	itself. */
 468:../../../FreeRTOS/Source/event_groups.c **** 	configASSERT( xEventGroup );
 469:../../../FreeRTOS/Source/event_groups.c **** 	configASSERT( ( uxBitsToClear & eventEVENT_BITS_CONTROL_BYTES ) == 0 );
 470:../../../FreeRTOS/Source/event_groups.c **** 
 471:../../../FreeRTOS/Source/event_groups.c **** 	taskENTER_CRITICAL();
 472:../../../FreeRTOS/Source/event_groups.c **** 	{
 473:../../../FreeRTOS/Source/event_groups.c **** 		traceEVENT_GROUP_CLEAR_BITS( xEventGroup, uxBitsToClear );
 474:../../../FreeRTOS/Source/event_groups.c **** 
 475:../../../FreeRTOS/Source/event_groups.c **** 		/* The value returned is the event group value prior to the bits being
 476:../../../FreeRTOS/Source/event_groups.c **** 		cleared. */
 477:../../../FreeRTOS/Source/event_groups.c **** 		uxReturn = pxEventBits->uxEventBits;
 478:../../../FreeRTOS/Source/event_groups.c **** 
 479:../../../FreeRTOS/Source/event_groups.c **** 		/* Clear the bits. */
 480:../../../FreeRTOS/Source/event_groups.c **** 		pxEventBits->uxEventBits &= ~uxBitsToClear;
 481:../../../FreeRTOS/Source/event_groups.c **** 	}
 482:../../../FreeRTOS/Source/event_groups.c **** 	taskEXIT_CRITICAL();
 483:../../../FreeRTOS/Source/event_groups.c **** 
 484:../../../FreeRTOS/Source/event_groups.c **** 	return uxReturn;
 485:../../../FreeRTOS/Source/event_groups.c **** }
 486:../../../FreeRTOS/Source/event_groups.c **** /*-----------------------------------------------------------*/
ARM GAS  C:\Users\Jim_YW\AppData\Local\Temp\ccsaULLo.s 			page 10


 487:../../../FreeRTOS/Source/event_groups.c **** 
 488:../../../FreeRTOS/Source/event_groups.c **** #if ( ( configUSE_TRACE_FACILITY == 1 ) && ( INCLUDE_xTimerPendFunctionCall == 1 ) && ( configUSE_T
 489:../../../FreeRTOS/Source/event_groups.c **** 
 490:../../../FreeRTOS/Source/event_groups.c **** 	BaseType_t xEventGroupClearBitsFromISR( EventGroupHandle_t xEventGroup, const EventBits_t uxBitsTo
 491:../../../FreeRTOS/Source/event_groups.c **** 	{
 492:../../../FreeRTOS/Source/event_groups.c **** 		BaseType_t xReturn;
 493:../../../FreeRTOS/Source/event_groups.c **** 
 494:../../../FreeRTOS/Source/event_groups.c **** 		traceEVENT_GROUP_CLEAR_BITS_FROM_ISR( xEventGroup, uxBitsToClear );
 495:../../../FreeRTOS/Source/event_groups.c **** 		xReturn = xTimerPendFunctionCallFromISR( vEventGroupClearBitsCallback, ( void * ) xEventGroup, ( 
 496:../../../FreeRTOS/Source/event_groups.c **** 
 497:../../../FreeRTOS/Source/event_groups.c **** 		return xReturn;
 498:../../../FreeRTOS/Source/event_groups.c **** 	}
 499:../../../FreeRTOS/Source/event_groups.c **** 
 500:../../../FreeRTOS/Source/event_groups.c **** #endif
 501:../../../FreeRTOS/Source/event_groups.c **** /*-----------------------------------------------------------*/
 502:../../../FreeRTOS/Source/event_groups.c **** 
 503:../../../FreeRTOS/Source/event_groups.c **** EventBits_t xEventGroupGetBitsFromISR( EventGroupHandle_t xEventGroup )
 504:../../../FreeRTOS/Source/event_groups.c **** {
 505:../../../FreeRTOS/Source/event_groups.c **** UBaseType_t uxSavedInterruptStatus;
 506:../../../FreeRTOS/Source/event_groups.c **** EventGroup_t const * const pxEventBits = xEventGroup;
 507:../../../FreeRTOS/Source/event_groups.c **** EventBits_t uxReturn;
 508:../../../FreeRTOS/Source/event_groups.c **** 
 509:../../../FreeRTOS/Source/event_groups.c **** 	uxSavedInterruptStatus = portSET_INTERRUPT_MASK_FROM_ISR();
 510:../../../FreeRTOS/Source/event_groups.c **** 	{
 511:../../../FreeRTOS/Source/event_groups.c **** 		uxReturn = pxEventBits->uxEventBits;
 512:../../../FreeRTOS/Source/event_groups.c **** 	}
 513:../../../FreeRTOS/Source/event_groups.c **** 	portCLEAR_INTERRUPT_MASK_FROM_ISR( uxSavedInterruptStatus );
 514:../../../FreeRTOS/Source/event_groups.c **** 
 515:../../../FreeRTOS/Source/event_groups.c **** 	return uxReturn;
 516:../../../FreeRTOS/Source/event_groups.c **** } /*lint !e818 EventGroupHandle_t is a typedef used in other functions to so can't be pointer to co
 517:../../../FreeRTOS/Source/event_groups.c **** /*-----------------------------------------------------------*/
 518:../../../FreeRTOS/Source/event_groups.c **** 
 519:../../../FreeRTOS/Source/event_groups.c **** EventBits_t xEventGroupSetBits( EventGroupHandle_t xEventGroup, const EventBits_t uxBitsToSet )
 520:../../../FreeRTOS/Source/event_groups.c **** {
 521:../../../FreeRTOS/Source/event_groups.c **** ListItem_t *pxListItem, *pxNext;
 522:../../../FreeRTOS/Source/event_groups.c **** ListItem_t const *pxListEnd;
 523:../../../FreeRTOS/Source/event_groups.c **** List_t const * pxList;
 524:../../../FreeRTOS/Source/event_groups.c **** EventBits_t uxBitsToClear = 0, uxBitsWaitedFor, uxControlBits;
 525:../../../FreeRTOS/Source/event_groups.c **** EventGroup_t *pxEventBits = xEventGroup;
 526:../../../FreeRTOS/Source/event_groups.c **** BaseType_t xMatchFound = pdFALSE;
 527:../../../FreeRTOS/Source/event_groups.c **** 
 528:../../../FreeRTOS/Source/event_groups.c **** 	/* Check the user is not attempting to set the bits used by the kernel
 529:../../../FreeRTOS/Source/event_groups.c **** 	itself. */
 530:../../../FreeRTOS/Source/event_groups.c **** 	configASSERT( xEventGroup );
 531:../../../FreeRTOS/Source/event_groups.c **** 	configASSERT( ( uxBitsToSet & eventEVENT_BITS_CONTROL_BYTES ) == 0 );
 532:../../../FreeRTOS/Source/event_groups.c **** 
 533:../../../FreeRTOS/Source/event_groups.c **** 	pxList = &( pxEventBits->xTasksWaitingForBits );
 534:../../../FreeRTOS/Source/event_groups.c **** 	pxListEnd = listGET_END_MARKER( pxList ); /*lint !e826 !e740 !e9087 The mini list structure is use
 535:../../../FreeRTOS/Source/event_groups.c **** 	vTaskSuspendAll();
 536:../../../FreeRTOS/Source/event_groups.c **** 	{
 537:../../../FreeRTOS/Source/event_groups.c **** 		traceEVENT_GROUP_SET_BITS( xEventGroup, uxBitsToSet );
 538:../../../FreeRTOS/Source/event_groups.c **** 
 539:../../../FreeRTOS/Source/event_groups.c **** 		pxListItem = listGET_HEAD_ENTRY( pxList );
 540:../../../FreeRTOS/Source/event_groups.c **** 
 541:../../../FreeRTOS/Source/event_groups.c **** 		/* Set the bits. */
 542:../../../FreeRTOS/Source/event_groups.c **** 		pxEventBits->uxEventBits |= uxBitsToSet;
 543:../../../FreeRTOS/Source/event_groups.c **** 
ARM GAS  C:\Users\Jim_YW\AppData\Local\Temp\ccsaULLo.s 			page 11


 544:../../../FreeRTOS/Source/event_groups.c **** 		/* See if the new bit value should unblock any tasks. */
 545:../../../FreeRTOS/Source/event_groups.c **** 		while( pxListItem != pxListEnd )
 546:../../../FreeRTOS/Source/event_groups.c **** 		{
 547:../../../FreeRTOS/Source/event_groups.c **** 			pxNext = listGET_NEXT( pxListItem );
 548:../../../FreeRTOS/Source/event_groups.c **** 			uxBitsWaitedFor = listGET_LIST_ITEM_VALUE( pxListItem );
 549:../../../FreeRTOS/Source/event_groups.c **** 			xMatchFound = pdFALSE;
 550:../../../FreeRTOS/Source/event_groups.c **** 
 551:../../../FreeRTOS/Source/event_groups.c **** 			/* Split the bits waited for from the control bits. */
 552:../../../FreeRTOS/Source/event_groups.c **** 			uxControlBits = uxBitsWaitedFor & eventEVENT_BITS_CONTROL_BYTES;
 553:../../../FreeRTOS/Source/event_groups.c **** 			uxBitsWaitedFor &= ~eventEVENT_BITS_CONTROL_BYTES;
 554:../../../FreeRTOS/Source/event_groups.c **** 
 555:../../../FreeRTOS/Source/event_groups.c **** 			if( ( uxControlBits & eventWAIT_FOR_ALL_BITS ) == ( EventBits_t ) 0 )
 556:../../../FreeRTOS/Source/event_groups.c **** 			{
 557:../../../FreeRTOS/Source/event_groups.c **** 				/* Just looking for single bit being set. */
 558:../../../FreeRTOS/Source/event_groups.c **** 				if( ( uxBitsWaitedFor & pxEventBits->uxEventBits ) != ( EventBits_t ) 0 )
 559:../../../FreeRTOS/Source/event_groups.c **** 				{
 560:../../../FreeRTOS/Source/event_groups.c **** 					xMatchFound = pdTRUE;
 561:../../../FreeRTOS/Source/event_groups.c **** 				}
 562:../../../FreeRTOS/Source/event_groups.c **** 				else
 563:../../../FreeRTOS/Source/event_groups.c **** 				{
 564:../../../FreeRTOS/Source/event_groups.c **** 					mtCOVERAGE_TEST_MARKER();
 565:../../../FreeRTOS/Source/event_groups.c **** 				}
 566:../../../FreeRTOS/Source/event_groups.c **** 			}
 567:../../../FreeRTOS/Source/event_groups.c **** 			else if( ( uxBitsWaitedFor & pxEventBits->uxEventBits ) == uxBitsWaitedFor )
 568:../../../FreeRTOS/Source/event_groups.c **** 			{
 569:../../../FreeRTOS/Source/event_groups.c **** 				/* All bits are set. */
 570:../../../FreeRTOS/Source/event_groups.c **** 				xMatchFound = pdTRUE;
 571:../../../FreeRTOS/Source/event_groups.c **** 			}
 572:../../../FreeRTOS/Source/event_groups.c **** 			else
 573:../../../FreeRTOS/Source/event_groups.c **** 			{
 574:../../../FreeRTOS/Source/event_groups.c **** 				/* Need all bits to be set, but not all the bits were set. */
 575:../../../FreeRTOS/Source/event_groups.c **** 			}
 576:../../../FreeRTOS/Source/event_groups.c **** 
 577:../../../FreeRTOS/Source/event_groups.c **** 			if( xMatchFound != pdFALSE )
 578:../../../FreeRTOS/Source/event_groups.c **** 			{
 579:../../../FreeRTOS/Source/event_groups.c **** 				/* The bits match.  Should the bits be cleared on exit? */
 580:../../../FreeRTOS/Source/event_groups.c **** 				if( ( uxControlBits & eventCLEAR_EVENTS_ON_EXIT_BIT ) != ( EventBits_t ) 0 )
 581:../../../FreeRTOS/Source/event_groups.c **** 				{
 582:../../../FreeRTOS/Source/event_groups.c **** 					uxBitsToClear |= uxBitsWaitedFor;
 583:../../../FreeRTOS/Source/event_groups.c **** 				}
 584:../../../FreeRTOS/Source/event_groups.c **** 				else
 585:../../../FreeRTOS/Source/event_groups.c **** 				{
 586:../../../FreeRTOS/Source/event_groups.c **** 					mtCOVERAGE_TEST_MARKER();
 587:../../../FreeRTOS/Source/event_groups.c **** 				}
 588:../../../FreeRTOS/Source/event_groups.c **** 
 589:../../../FreeRTOS/Source/event_groups.c **** 				/* Store the actual event flag value in the task's event list
 590:../../../FreeRTOS/Source/event_groups.c **** 				item before removing the task from the event list.  The
 591:../../../FreeRTOS/Source/event_groups.c **** 				eventUNBLOCKED_DUE_TO_BIT_SET bit is set so the task knows
 592:../../../FreeRTOS/Source/event_groups.c **** 				that is was unblocked due to its required bits matching, rather
 593:../../../FreeRTOS/Source/event_groups.c **** 				than because it timed out. */
 594:../../../FreeRTOS/Source/event_groups.c **** 				vTaskRemoveFromUnorderedEventList( pxListItem, pxEventBits->uxEventBits | eventUNBLOCKED_DUE_TO
 595:../../../FreeRTOS/Source/event_groups.c **** 			}
 596:../../../FreeRTOS/Source/event_groups.c **** 
 597:../../../FreeRTOS/Source/event_groups.c **** 			/* Move onto the next list item.  Note pxListItem->pxNext is not
 598:../../../FreeRTOS/Source/event_groups.c **** 			used here as the list item may have been removed from the event list
 599:../../../FreeRTOS/Source/event_groups.c **** 			and inserted into the ready/pending reading list. */
 600:../../../FreeRTOS/Source/event_groups.c **** 			pxListItem = pxNext;
ARM GAS  C:\Users\Jim_YW\AppData\Local\Temp\ccsaULLo.s 			page 12


 601:../../../FreeRTOS/Source/event_groups.c **** 		}
 602:../../../FreeRTOS/Source/event_groups.c **** 
 603:../../../FreeRTOS/Source/event_groups.c **** 		/* Clear any bits that matched when the eventCLEAR_EVENTS_ON_EXIT_BIT
 604:../../../FreeRTOS/Source/event_groups.c **** 		bit was set in the control word. */
 605:../../../FreeRTOS/Source/event_groups.c **** 		pxEventBits->uxEventBits &= ~uxBitsToClear;
 606:../../../FreeRTOS/Source/event_groups.c **** 	}
 607:../../../FreeRTOS/Source/event_groups.c **** 	( void ) xTaskResumeAll();
 608:../../../FreeRTOS/Source/event_groups.c **** 
 609:../../../FreeRTOS/Source/event_groups.c **** 	return pxEventBits->uxEventBits;
 610:../../../FreeRTOS/Source/event_groups.c **** }
 611:../../../FreeRTOS/Source/event_groups.c **** /*-----------------------------------------------------------*/
 612:../../../FreeRTOS/Source/event_groups.c **** 
 613:../../../FreeRTOS/Source/event_groups.c **** void vEventGroupDelete( EventGroupHandle_t xEventGroup )
 614:../../../FreeRTOS/Source/event_groups.c **** {
 615:../../../FreeRTOS/Source/event_groups.c **** EventGroup_t *pxEventBits = xEventGroup;
 616:../../../FreeRTOS/Source/event_groups.c **** const List_t *pxTasksWaitingForBits = &( pxEventBits->xTasksWaitingForBits );
 617:../../../FreeRTOS/Source/event_groups.c **** 
 618:../../../FreeRTOS/Source/event_groups.c **** 	vTaskSuspendAll();
 619:../../../FreeRTOS/Source/event_groups.c **** 	{
 620:../../../FreeRTOS/Source/event_groups.c **** 		traceEVENT_GROUP_DELETE( xEventGroup );
 621:../../../FreeRTOS/Source/event_groups.c **** 
 622:../../../FreeRTOS/Source/event_groups.c **** 		while( listCURRENT_LIST_LENGTH( pxTasksWaitingForBits ) > ( UBaseType_t ) 0 )
 623:../../../FreeRTOS/Source/event_groups.c **** 		{
 624:../../../FreeRTOS/Source/event_groups.c **** 			/* Unblock the task, returning 0 as the event list is being deleted
 625:../../../FreeRTOS/Source/event_groups.c **** 			and cannot therefore have any bits set. */
 626:../../../FreeRTOS/Source/event_groups.c **** 			configASSERT( pxTasksWaitingForBits->xListEnd.pxNext != ( const ListItem_t * ) &( pxTasksWaiting
 627:../../../FreeRTOS/Source/event_groups.c **** 			vTaskRemoveFromUnorderedEventList( pxTasksWaitingForBits->xListEnd.pxNext, eventUNBLOCKED_DUE_TO
 628:../../../FreeRTOS/Source/event_groups.c **** 		}
 629:../../../FreeRTOS/Source/event_groups.c **** 
 630:../../../FreeRTOS/Source/event_groups.c **** 		#if( ( configSUPPORT_DYNAMIC_ALLOCATION == 1 ) && ( configSUPPORT_STATIC_ALLOCATION == 0 ) )
 631:../../../FreeRTOS/Source/event_groups.c **** 		{
 632:../../../FreeRTOS/Source/event_groups.c **** 			/* The event group can only have been allocated dynamically - free
 633:../../../FreeRTOS/Source/event_groups.c **** 			it again. */
 634:../../../FreeRTOS/Source/event_groups.c **** 			vPortFree( pxEventBits );
 635:../../../FreeRTOS/Source/event_groups.c **** 		}
 636:../../../FreeRTOS/Source/event_groups.c **** 		#elif( ( configSUPPORT_DYNAMIC_ALLOCATION == 1 ) && ( configSUPPORT_STATIC_ALLOCATION == 1 ) )
 637:../../../FreeRTOS/Source/event_groups.c **** 		{
 638:../../../FreeRTOS/Source/event_groups.c **** 			/* The event group could have been allocated statically or
 639:../../../FreeRTOS/Source/event_groups.c **** 			dynamically, so check before attempting to free the memory. */
 640:../../../FreeRTOS/Source/event_groups.c **** 			if( pxEventBits->ucStaticallyAllocated == ( uint8_t ) pdFALSE )
 641:../../../FreeRTOS/Source/event_groups.c **** 			{
 642:../../../FreeRTOS/Source/event_groups.c **** 				vPortFree( pxEventBits );
 643:../../../FreeRTOS/Source/event_groups.c **** 			}
 644:../../../FreeRTOS/Source/event_groups.c **** 			else
 645:../../../FreeRTOS/Source/event_groups.c **** 			{
 646:../../../FreeRTOS/Source/event_groups.c **** 				mtCOVERAGE_TEST_MARKER();
 647:../../../FreeRTOS/Source/event_groups.c **** 			}
 648:../../../FreeRTOS/Source/event_groups.c **** 		}
 649:../../../FreeRTOS/Source/event_groups.c **** 		#endif /* configSUPPORT_DYNAMIC_ALLOCATION */
 650:../../../FreeRTOS/Source/event_groups.c **** 	}
 651:../../../FreeRTOS/Source/event_groups.c **** 	( void ) xTaskResumeAll();
 652:../../../FreeRTOS/Source/event_groups.c **** }
 653:../../../FreeRTOS/Source/event_groups.c **** /*-----------------------------------------------------------*/
 654:../../../FreeRTOS/Source/event_groups.c **** 
 655:../../../FreeRTOS/Source/event_groups.c **** /* For internal use only - execute a 'set bits' command that was pended from
 656:../../../FreeRTOS/Source/event_groups.c **** an interrupt. */
 657:../../../FreeRTOS/Source/event_groups.c **** void vEventGroupSetBitsCallback( void *pvEventGroup, const uint32_t ulBitsToSet )
ARM GAS  C:\Users\Jim_YW\AppData\Local\Temp\ccsaULLo.s 			page 13


 658:../../../FreeRTOS/Source/event_groups.c **** {
 659:../../../FreeRTOS/Source/event_groups.c **** 	( void ) xEventGroupSetBits( pvEventGroup, ( EventBits_t ) ulBitsToSet ); /*lint !e9079 Can't avoi
 660:../../../FreeRTOS/Source/event_groups.c **** }
 661:../../../FreeRTOS/Source/event_groups.c **** /*-----------------------------------------------------------*/
 662:../../../FreeRTOS/Source/event_groups.c **** 
 663:../../../FreeRTOS/Source/event_groups.c **** /* For internal use only - execute a 'clear bits' command that was pended from
 664:../../../FreeRTOS/Source/event_groups.c **** an interrupt. */
 665:../../../FreeRTOS/Source/event_groups.c **** void vEventGroupClearBitsCallback( void *pvEventGroup, const uint32_t ulBitsToClear )
 666:../../../FreeRTOS/Source/event_groups.c **** {
 667:../../../FreeRTOS/Source/event_groups.c **** 	( void ) xEventGroupClearBits( pvEventGroup, ( EventBits_t ) ulBitsToClear ); /*lint !e9079 Can't 
 668:../../../FreeRTOS/Source/event_groups.c **** }
 669:../../../FreeRTOS/Source/event_groups.c **** /*-----------------------------------------------------------*/
 670:../../../FreeRTOS/Source/event_groups.c **** 
 671:../../../FreeRTOS/Source/event_groups.c **** static BaseType_t prvTestWaitCondition( const EventBits_t uxCurrentEventBits, const EventBits_t uxB
 672:../../../FreeRTOS/Source/event_groups.c **** {
  29              		.loc 1 672 1 view -0
  30              		.cfi_startproc
  31              		@ args = 0, pretend = 0, frame = 0
  32              		@ frame_needed = 0, uses_anonymous_args = 0
  33              		@ link register save eliminated.
 673:../../../FreeRTOS/Source/event_groups.c **** BaseType_t xWaitConditionMet = pdFALSE;
  34              		.loc 1 673 1 view .LVU1
 674:../../../FreeRTOS/Source/event_groups.c **** 
 675:../../../FreeRTOS/Source/event_groups.c **** 	if( xWaitForAllBits == pdFALSE )
  35              		.loc 1 675 2 view .LVU2
  36              		.loc 1 675 4 is_stmt 0 view .LVU3
  37 0000 1AB9     		cbnz	r2, .L2
 676:../../../FreeRTOS/Source/event_groups.c **** 	{
 677:../../../FreeRTOS/Source/event_groups.c **** 		/* Task only has to wait for one bit within uxBitsToWaitFor to be
 678:../../../FreeRTOS/Source/event_groups.c **** 		set.  Is one already set? */
 679:../../../FreeRTOS/Source/event_groups.c **** 		if( ( uxCurrentEventBits & uxBitsToWaitFor ) != ( EventBits_t ) 0 )
  38              		.loc 1 679 3 is_stmt 1 view .LVU4
  39              		.loc 1 679 5 is_stmt 0 view .LVU5
  40 0002 0842     		tst	r0, r1
  41 0004 06D1     		bne	.L4
 673:../../../FreeRTOS/Source/event_groups.c **** 
  42              		.loc 1 673 12 view .LVU6
  43 0006 1046     		mov	r0, r2
  44              	.LVL1:
 673:../../../FreeRTOS/Source/event_groups.c **** 
  45              		.loc 1 673 12 view .LVU7
  46 0008 7047     		bx	lr
  47              	.LVL2:
  48              	.L2:
 680:../../../FreeRTOS/Source/event_groups.c **** 		{
 681:../../../FreeRTOS/Source/event_groups.c **** 			xWaitConditionMet = pdTRUE;
 682:../../../FreeRTOS/Source/event_groups.c **** 		}
 683:../../../FreeRTOS/Source/event_groups.c **** 		else
 684:../../../FreeRTOS/Source/event_groups.c **** 		{
 685:../../../FreeRTOS/Source/event_groups.c **** 			mtCOVERAGE_TEST_MARKER();
 686:../../../FreeRTOS/Source/event_groups.c **** 		}
 687:../../../FreeRTOS/Source/event_groups.c **** 	}
 688:../../../FreeRTOS/Source/event_groups.c **** 	else
 689:../../../FreeRTOS/Source/event_groups.c **** 	{
 690:../../../FreeRTOS/Source/event_groups.c **** 		/* Task has to wait for all the bits in uxBitsToWaitFor to be set.
 691:../../../FreeRTOS/Source/event_groups.c **** 		Are they set already? */
 692:../../../FreeRTOS/Source/event_groups.c **** 		if( ( uxCurrentEventBits & uxBitsToWaitFor ) == uxBitsToWaitFor )
ARM GAS  C:\Users\Jim_YW\AppData\Local\Temp\ccsaULLo.s 			page 14


  49              		.loc 1 692 3 is_stmt 1 view .LVU8
  50              		.loc 1 692 5 is_stmt 0 view .LVU9
  51 000a 31EA0003 		bics	r3, r1, r0
  52 000e 03D0     		beq	.L5
 673:../../../FreeRTOS/Source/event_groups.c **** 
  53              		.loc 1 673 12 view .LVU10
  54 0010 0020     		movs	r0, #0
  55              	.LVL3:
 673:../../../FreeRTOS/Source/event_groups.c **** 
  56              		.loc 1 673 12 view .LVU11
  57 0012 7047     		bx	lr
  58              	.LVL4:
  59              	.L4:
 681:../../../FreeRTOS/Source/event_groups.c **** 		}
  60              		.loc 1 681 22 view .LVU12
  61 0014 0120     		movs	r0, #1
  62              	.LVL5:
 681:../../../FreeRTOS/Source/event_groups.c **** 		}
  63              		.loc 1 681 22 view .LVU13
  64 0016 7047     		bx	lr
  65              	.LVL6:
  66              	.L5:
 693:../../../FreeRTOS/Source/event_groups.c **** 		{
 694:../../../FreeRTOS/Source/event_groups.c **** 			xWaitConditionMet = pdTRUE;
  67              		.loc 1 694 22 view .LVU14
  68 0018 0120     		movs	r0, #1
  69              	.LVL7:
 695:../../../FreeRTOS/Source/event_groups.c **** 		}
 696:../../../FreeRTOS/Source/event_groups.c **** 		else
 697:../../../FreeRTOS/Source/event_groups.c **** 		{
 698:../../../FreeRTOS/Source/event_groups.c **** 			mtCOVERAGE_TEST_MARKER();
  70              		.loc 1 698 28 is_stmt 1 view .LVU15
 699:../../../FreeRTOS/Source/event_groups.c **** 		}
 700:../../../FreeRTOS/Source/event_groups.c **** 	}
 701:../../../FreeRTOS/Source/event_groups.c **** 
 702:../../../FreeRTOS/Source/event_groups.c **** 	return xWaitConditionMet;
  71              		.loc 1 702 2 view .LVU16
 703:../../../FreeRTOS/Source/event_groups.c **** }
  72              		.loc 1 703 1 is_stmt 0 view .LVU17
  73 001a 7047     		bx	lr
  74              		.cfi_endproc
  75              	.LFE15:
  77              		.section	.text.xEventGroupCreateStatic,"ax",%progbits
  78              		.align	1
  79              		.global	xEventGroupCreateStatic
  80              		.syntax unified
  81              		.thumb
  82              		.thumb_func
  84              	xEventGroupCreateStatic:
  85              	.LVL8:
  86              	.LFB4:
  94:../../../FreeRTOS/Source/event_groups.c **** 	EventGroup_t *pxEventBits;
  87              		.loc 1 94 2 is_stmt 1 view -0
  88              		.cfi_startproc
  89              		@ args = 0, pretend = 0, frame = 8
  90              		@ frame_needed = 0, uses_anonymous_args = 0
  95:../../../FreeRTOS/Source/event_groups.c **** 
ARM GAS  C:\Users\Jim_YW\AppData\Local\Temp\ccsaULLo.s 			page 15


  91              		.loc 1 95 2 view .LVU19
  98:../../../FreeRTOS/Source/event_groups.c **** 
  92              		.loc 1 98 3 view .LVU20
  93 0000 80B1     		cbz	r0, .L13
  94:../../../FreeRTOS/Source/event_groups.c **** 	EventGroup_t *pxEventBits;
  94              		.loc 1 94 2 is_stmt 0 discriminator 2 view .LVU21
  95 0002 10B5     		push	{r4, lr}
  96              	.LCFI0:
  97              		.cfi_def_cfa_offset 8
  98              		.cfi_offset 4, -8
  99              		.cfi_offset 14, -4
 100 0004 82B0     		sub	sp, sp, #8
 101              	.LCFI1:
 102              		.cfi_def_cfa_offset 16
 103 0006 0446     		mov	r4, r0
  98:../../../FreeRTOS/Source/event_groups.c **** 
 104              		.loc 1 98 37 is_stmt 1 discriminator 2 view .LVU22
 105              	.LBB36:
 105:../../../FreeRTOS/Source/event_groups.c **** 			configASSERT( xSize == sizeof( EventGroup_t ) );
 106              		.loc 1 105 4 discriminator 2 view .LVU23
 105:../../../FreeRTOS/Source/event_groups.c **** 			configASSERT( xSize == sizeof( EventGroup_t ) );
 107              		.loc 1 105 20 is_stmt 0 discriminator 2 view .LVU24
 108 0008 2023     		movs	r3, #32
 109 000a 0193     		str	r3, [sp, #4]
 106:../../../FreeRTOS/Source/event_groups.c **** 		} /*lint !e529 xSize is referenced if configASSERT() is defined. */
 110              		.loc 1 106 4 is_stmt 1 discriminator 2 view .LVU25
 111 000c 019B     		ldr	r3, [sp, #4]
 112 000e 202B     		cmp	r3, #32
 113 0010 11D0     		beq	.L9
 106:../../../FreeRTOS/Source/event_groups.c **** 		} /*lint !e529 xSize is referenced if configASSERT() is defined. */
 114              		.loc 1 106 4 view .LVU26
 115              	.LBB37:
 116              	.LBI37:
 117              		.file 2 "../../../FreeRTOS/Source/portable/GCC/ARM_CM4F/portmacro.h"
   1:../../../FreeRTOS/Source/portable/GCC/ARM_CM4F/portmacro.h **** /*
   2:../../../FreeRTOS/Source/portable/GCC/ARM_CM4F/portmacro.h ****  * FreeRTOS Kernel V10.3.1
   3:../../../FreeRTOS/Source/portable/GCC/ARM_CM4F/portmacro.h ****  * Copyright (C) 2020 Amazon.com, Inc. or its affiliates.  All Rights Reserved.
   4:../../../FreeRTOS/Source/portable/GCC/ARM_CM4F/portmacro.h ****  *
   5:../../../FreeRTOS/Source/portable/GCC/ARM_CM4F/portmacro.h ****  * Permission is hereby granted, free of charge, to any person obtaining a copy of
   6:../../../FreeRTOS/Source/portable/GCC/ARM_CM4F/portmacro.h ****  * this software and associated documentation files (the "Software"), to deal in
   7:../../../FreeRTOS/Source/portable/GCC/ARM_CM4F/portmacro.h ****  * the Software without restriction, including without limitation the rights to
   8:../../../FreeRTOS/Source/portable/GCC/ARM_CM4F/portmacro.h ****  * use, copy, modify, merge, publish, distribute, sublicense, and/or sell copies of
   9:../../../FreeRTOS/Source/portable/GCC/ARM_CM4F/portmacro.h ****  * the Software, and to permit persons to whom the Software is furnished to do so,
  10:../../../FreeRTOS/Source/portable/GCC/ARM_CM4F/portmacro.h ****  * subject to the following conditions:
  11:../../../FreeRTOS/Source/portable/GCC/ARM_CM4F/portmacro.h ****  *
  12:../../../FreeRTOS/Source/portable/GCC/ARM_CM4F/portmacro.h ****  * The above copyright notice and this permission notice shall be included in all
  13:../../../FreeRTOS/Source/portable/GCC/ARM_CM4F/portmacro.h ****  * copies or substantial portions of the Software.
  14:../../../FreeRTOS/Source/portable/GCC/ARM_CM4F/portmacro.h ****  *
  15:../../../FreeRTOS/Source/portable/GCC/ARM_CM4F/portmacro.h ****  * THE SOFTWARE IS PROVIDED "AS IS", WITHOUT WARRANTY OF ANY KIND, EXPRESS OR
  16:../../../FreeRTOS/Source/portable/GCC/ARM_CM4F/portmacro.h ****  * IMPLIED, INCLUDING BUT NOT LIMITED TO THE WARRANTIES OF MERCHANTABILITY, FITNESS
  17:../../../FreeRTOS/Source/portable/GCC/ARM_CM4F/portmacro.h ****  * FOR A PARTICULAR PURPOSE AND NONINFRINGEMENT. IN NO EVENT SHALL THE AUTHORS OR
  18:../../../FreeRTOS/Source/portable/GCC/ARM_CM4F/portmacro.h ****  * COPYRIGHT HOLDERS BE LIABLE FOR ANY CLAIM, DAMAGES OR OTHER LIABILITY, WHETHER
  19:../../../FreeRTOS/Source/portable/GCC/ARM_CM4F/portmacro.h ****  * IN AN ACTION OF CONTRACT, TORT OR OTHERWISE, ARISING FROM, OUT OF OR IN
  20:../../../FreeRTOS/Source/portable/GCC/ARM_CM4F/portmacro.h ****  * CONNECTION WITH THE SOFTWARE OR THE USE OR OTHER DEALINGS IN THE SOFTWARE.
  21:../../../FreeRTOS/Source/portable/GCC/ARM_CM4F/portmacro.h ****  *
  22:../../../FreeRTOS/Source/portable/GCC/ARM_CM4F/portmacro.h ****  * http://www.FreeRTOS.org
  23:../../../FreeRTOS/Source/portable/GCC/ARM_CM4F/portmacro.h ****  * http://aws.amazon.com/freertos
ARM GAS  C:\Users\Jim_YW\AppData\Local\Temp\ccsaULLo.s 			page 16


  24:../../../FreeRTOS/Source/portable/GCC/ARM_CM4F/portmacro.h ****  *
  25:../../../FreeRTOS/Source/portable/GCC/ARM_CM4F/portmacro.h ****  * 1 tab == 4 spaces!
  26:../../../FreeRTOS/Source/portable/GCC/ARM_CM4F/portmacro.h ****  */
  27:../../../FreeRTOS/Source/portable/GCC/ARM_CM4F/portmacro.h **** 
  28:../../../FreeRTOS/Source/portable/GCC/ARM_CM4F/portmacro.h **** 
  29:../../../FreeRTOS/Source/portable/GCC/ARM_CM4F/portmacro.h **** #ifndef PORTMACRO_H
  30:../../../FreeRTOS/Source/portable/GCC/ARM_CM4F/portmacro.h **** #define PORTMACRO_H
  31:../../../FreeRTOS/Source/portable/GCC/ARM_CM4F/portmacro.h **** 
  32:../../../FreeRTOS/Source/portable/GCC/ARM_CM4F/portmacro.h **** #ifdef __cplusplus
  33:../../../FreeRTOS/Source/portable/GCC/ARM_CM4F/portmacro.h **** extern "C" {
  34:../../../FreeRTOS/Source/portable/GCC/ARM_CM4F/portmacro.h **** #endif
  35:../../../FreeRTOS/Source/portable/GCC/ARM_CM4F/portmacro.h **** 
  36:../../../FreeRTOS/Source/portable/GCC/ARM_CM4F/portmacro.h **** /*-----------------------------------------------------------
  37:../../../FreeRTOS/Source/portable/GCC/ARM_CM4F/portmacro.h ****  * Port specific definitions.
  38:../../../FreeRTOS/Source/portable/GCC/ARM_CM4F/portmacro.h ****  *
  39:../../../FreeRTOS/Source/portable/GCC/ARM_CM4F/portmacro.h ****  * The settings in this file configure FreeRTOS correctly for the
  40:../../../FreeRTOS/Source/portable/GCC/ARM_CM4F/portmacro.h ****  * given hardware and compiler.
  41:../../../FreeRTOS/Source/portable/GCC/ARM_CM4F/portmacro.h ****  *
  42:../../../FreeRTOS/Source/portable/GCC/ARM_CM4F/portmacro.h ****  * These settings should not be altered.
  43:../../../FreeRTOS/Source/portable/GCC/ARM_CM4F/portmacro.h ****  *-----------------------------------------------------------
  44:../../../FreeRTOS/Source/portable/GCC/ARM_CM4F/portmacro.h ****  */
  45:../../../FreeRTOS/Source/portable/GCC/ARM_CM4F/portmacro.h **** 
  46:../../../FreeRTOS/Source/portable/GCC/ARM_CM4F/portmacro.h **** /* Type definitions. */
  47:../../../FreeRTOS/Source/portable/GCC/ARM_CM4F/portmacro.h **** #define portCHAR		char
  48:../../../FreeRTOS/Source/portable/GCC/ARM_CM4F/portmacro.h **** #define portFLOAT		float
  49:../../../FreeRTOS/Source/portable/GCC/ARM_CM4F/portmacro.h **** #define portDOUBLE		double
  50:../../../FreeRTOS/Source/portable/GCC/ARM_CM4F/portmacro.h **** #define portLONG		long
  51:../../../FreeRTOS/Source/portable/GCC/ARM_CM4F/portmacro.h **** #define portSHORT		short
  52:../../../FreeRTOS/Source/portable/GCC/ARM_CM4F/portmacro.h **** #define portSTACK_TYPE	uint32_t
  53:../../../FreeRTOS/Source/portable/GCC/ARM_CM4F/portmacro.h **** #define portBASE_TYPE	long
  54:../../../FreeRTOS/Source/portable/GCC/ARM_CM4F/portmacro.h **** 
  55:../../../FreeRTOS/Source/portable/GCC/ARM_CM4F/portmacro.h **** typedef portSTACK_TYPE StackType_t;
  56:../../../FreeRTOS/Source/portable/GCC/ARM_CM4F/portmacro.h **** typedef long BaseType_t;
  57:../../../FreeRTOS/Source/portable/GCC/ARM_CM4F/portmacro.h **** typedef unsigned long UBaseType_t;
  58:../../../FreeRTOS/Source/portable/GCC/ARM_CM4F/portmacro.h **** 
  59:../../../FreeRTOS/Source/portable/GCC/ARM_CM4F/portmacro.h **** #if( configUSE_16_BIT_TICKS == 1 )
  60:../../../FreeRTOS/Source/portable/GCC/ARM_CM4F/portmacro.h **** 	typedef uint16_t TickType_t;
  61:../../../FreeRTOS/Source/portable/GCC/ARM_CM4F/portmacro.h **** 	#define portMAX_DELAY ( TickType_t ) 0xffff
  62:../../../FreeRTOS/Source/portable/GCC/ARM_CM4F/portmacro.h **** #else
  63:../../../FreeRTOS/Source/portable/GCC/ARM_CM4F/portmacro.h **** 	typedef uint32_t TickType_t;
  64:../../../FreeRTOS/Source/portable/GCC/ARM_CM4F/portmacro.h **** 	#define portMAX_DELAY ( TickType_t ) 0xffffffffUL
  65:../../../FreeRTOS/Source/portable/GCC/ARM_CM4F/portmacro.h **** 
  66:../../../FreeRTOS/Source/portable/GCC/ARM_CM4F/portmacro.h **** 	/* 32-bit tick type on a 32-bit architecture, so reads of the tick count do
  67:../../../FreeRTOS/Source/portable/GCC/ARM_CM4F/portmacro.h **** 	not need to be guarded with a critical section. */
  68:../../../FreeRTOS/Source/portable/GCC/ARM_CM4F/portmacro.h **** 	#define portTICK_TYPE_IS_ATOMIC 1
  69:../../../FreeRTOS/Source/portable/GCC/ARM_CM4F/portmacro.h **** #endif
  70:../../../FreeRTOS/Source/portable/GCC/ARM_CM4F/portmacro.h **** /*-----------------------------------------------------------*/
  71:../../../FreeRTOS/Source/portable/GCC/ARM_CM4F/portmacro.h **** 
  72:../../../FreeRTOS/Source/portable/GCC/ARM_CM4F/portmacro.h **** /* Architecture specifics. */
  73:../../../FreeRTOS/Source/portable/GCC/ARM_CM4F/portmacro.h **** #define portSTACK_GROWTH			( -1 )
  74:../../../FreeRTOS/Source/portable/GCC/ARM_CM4F/portmacro.h **** #define portTICK_PERIOD_MS			( ( TickType_t ) 1000 / configTICK_RATE_HZ )
  75:../../../FreeRTOS/Source/portable/GCC/ARM_CM4F/portmacro.h **** #define portBYTE_ALIGNMENT			8
  76:../../../FreeRTOS/Source/portable/GCC/ARM_CM4F/portmacro.h **** /*-----------------------------------------------------------*/
  77:../../../FreeRTOS/Source/portable/GCC/ARM_CM4F/portmacro.h **** 
  78:../../../FreeRTOS/Source/portable/GCC/ARM_CM4F/portmacro.h **** /* Scheduler utilities. */
  79:../../../FreeRTOS/Source/portable/GCC/ARM_CM4F/portmacro.h **** #define portYIELD() 															\
  80:../../../FreeRTOS/Source/portable/GCC/ARM_CM4F/portmacro.h **** {																				\
ARM GAS  C:\Users\Jim_YW\AppData\Local\Temp\ccsaULLo.s 			page 17


  81:../../../FreeRTOS/Source/portable/GCC/ARM_CM4F/portmacro.h **** 	/* Set a PendSV to request a context switch. */								\
  82:../../../FreeRTOS/Source/portable/GCC/ARM_CM4F/portmacro.h **** 	portNVIC_INT_CTRL_REG = portNVIC_PENDSVSET_BIT;								\
  83:../../../FreeRTOS/Source/portable/GCC/ARM_CM4F/portmacro.h **** 																				\
  84:../../../FreeRTOS/Source/portable/GCC/ARM_CM4F/portmacro.h **** 	/* Barriers are normally not required but do ensure the code is completely	\
  85:../../../FreeRTOS/Source/portable/GCC/ARM_CM4F/portmacro.h **** 	within the specified behaviour for the architecture. */						\
  86:../../../FreeRTOS/Source/portable/GCC/ARM_CM4F/portmacro.h **** 	__asm volatile( "dsb" ::: "memory" );										\
  87:../../../FreeRTOS/Source/portable/GCC/ARM_CM4F/portmacro.h **** 	__asm volatile( "isb" );													\
  88:../../../FreeRTOS/Source/portable/GCC/ARM_CM4F/portmacro.h **** }
  89:../../../FreeRTOS/Source/portable/GCC/ARM_CM4F/portmacro.h **** 
  90:../../../FreeRTOS/Source/portable/GCC/ARM_CM4F/portmacro.h **** #define portNVIC_INT_CTRL_REG		( * ( ( volatile uint32_t * ) 0xe000ed04 ) )
  91:../../../FreeRTOS/Source/portable/GCC/ARM_CM4F/portmacro.h **** #define portNVIC_PENDSVSET_BIT		( 1UL << 28UL )
  92:../../../FreeRTOS/Source/portable/GCC/ARM_CM4F/portmacro.h **** #define portEND_SWITCHING_ISR( xSwitchRequired ) if( xSwitchRequired != pdFALSE ) portYIELD()
  93:../../../FreeRTOS/Source/portable/GCC/ARM_CM4F/portmacro.h **** #define portYIELD_FROM_ISR( x ) portEND_SWITCHING_ISR( x )
  94:../../../FreeRTOS/Source/portable/GCC/ARM_CM4F/portmacro.h **** /*-----------------------------------------------------------*/
  95:../../../FreeRTOS/Source/portable/GCC/ARM_CM4F/portmacro.h **** 
  96:../../../FreeRTOS/Source/portable/GCC/ARM_CM4F/portmacro.h **** /* Critical section management. */
  97:../../../FreeRTOS/Source/portable/GCC/ARM_CM4F/portmacro.h **** extern void vPortEnterCritical( void );
  98:../../../FreeRTOS/Source/portable/GCC/ARM_CM4F/portmacro.h **** extern void vPortExitCritical( void );
  99:../../../FreeRTOS/Source/portable/GCC/ARM_CM4F/portmacro.h **** #define portSET_INTERRUPT_MASK_FROM_ISR()		ulPortRaiseBASEPRI()
 100:../../../FreeRTOS/Source/portable/GCC/ARM_CM4F/portmacro.h **** #define portCLEAR_INTERRUPT_MASK_FROM_ISR(x)	vPortSetBASEPRI(x)
 101:../../../FreeRTOS/Source/portable/GCC/ARM_CM4F/portmacro.h **** #define portDISABLE_INTERRUPTS()				vPortRaiseBASEPRI()
 102:../../../FreeRTOS/Source/portable/GCC/ARM_CM4F/portmacro.h **** #define portENABLE_INTERRUPTS()					vPortSetBASEPRI(0)
 103:../../../FreeRTOS/Source/portable/GCC/ARM_CM4F/portmacro.h **** #define portENTER_CRITICAL()					vPortEnterCritical()
 104:../../../FreeRTOS/Source/portable/GCC/ARM_CM4F/portmacro.h **** #define portEXIT_CRITICAL()						vPortExitCritical()
 105:../../../FreeRTOS/Source/portable/GCC/ARM_CM4F/portmacro.h **** 
 106:../../../FreeRTOS/Source/portable/GCC/ARM_CM4F/portmacro.h **** /*-----------------------------------------------------------*/
 107:../../../FreeRTOS/Source/portable/GCC/ARM_CM4F/portmacro.h **** 
 108:../../../FreeRTOS/Source/portable/GCC/ARM_CM4F/portmacro.h **** /* Task function macros as described on the FreeRTOS.org WEB site.  These are
 109:../../../FreeRTOS/Source/portable/GCC/ARM_CM4F/portmacro.h **** not necessary for to use this port.  They are defined so the common demo files
 110:../../../FreeRTOS/Source/portable/GCC/ARM_CM4F/portmacro.h **** (which build with all the ports) will build. */
 111:../../../FreeRTOS/Source/portable/GCC/ARM_CM4F/portmacro.h **** #define portTASK_FUNCTION_PROTO( vFunction, pvParameters ) void vFunction( void *pvParameters )
 112:../../../FreeRTOS/Source/portable/GCC/ARM_CM4F/portmacro.h **** #define portTASK_FUNCTION( vFunction, pvParameters ) void vFunction( void *pvParameters )
 113:../../../FreeRTOS/Source/portable/GCC/ARM_CM4F/portmacro.h **** /*-----------------------------------------------------------*/
 114:../../../FreeRTOS/Source/portable/GCC/ARM_CM4F/portmacro.h **** 
 115:../../../FreeRTOS/Source/portable/GCC/ARM_CM4F/portmacro.h **** /* Tickless idle/low power functionality. */
 116:../../../FreeRTOS/Source/portable/GCC/ARM_CM4F/portmacro.h **** #ifndef portSUPPRESS_TICKS_AND_SLEEP
 117:../../../FreeRTOS/Source/portable/GCC/ARM_CM4F/portmacro.h **** 	extern void vPortSuppressTicksAndSleep( TickType_t xExpectedIdleTime );
 118:../../../FreeRTOS/Source/portable/GCC/ARM_CM4F/portmacro.h **** 	#define portSUPPRESS_TICKS_AND_SLEEP( xExpectedIdleTime ) vPortSuppressTicksAndSleep( xExpectedIdl
 119:../../../FreeRTOS/Source/portable/GCC/ARM_CM4F/portmacro.h **** #endif
 120:../../../FreeRTOS/Source/portable/GCC/ARM_CM4F/portmacro.h **** /*-----------------------------------------------------------*/
 121:../../../FreeRTOS/Source/portable/GCC/ARM_CM4F/portmacro.h **** 
 122:../../../FreeRTOS/Source/portable/GCC/ARM_CM4F/portmacro.h **** /* Architecture specific optimisations. */
 123:../../../FreeRTOS/Source/portable/GCC/ARM_CM4F/portmacro.h **** #ifndef configUSE_PORT_OPTIMISED_TASK_SELECTION
 124:../../../FreeRTOS/Source/portable/GCC/ARM_CM4F/portmacro.h **** 	#define configUSE_PORT_OPTIMISED_TASK_SELECTION 1
 125:../../../FreeRTOS/Source/portable/GCC/ARM_CM4F/portmacro.h **** #endif
 126:../../../FreeRTOS/Source/portable/GCC/ARM_CM4F/portmacro.h **** 
 127:../../../FreeRTOS/Source/portable/GCC/ARM_CM4F/portmacro.h **** #if configUSE_PORT_OPTIMISED_TASK_SELECTION == 1
 128:../../../FreeRTOS/Source/portable/GCC/ARM_CM4F/portmacro.h **** 
 129:../../../FreeRTOS/Source/portable/GCC/ARM_CM4F/portmacro.h **** 	/* Generic helper function. */
 130:../../../FreeRTOS/Source/portable/GCC/ARM_CM4F/portmacro.h **** 	__attribute__( ( always_inline ) ) static inline uint8_t ucPortCountLeadingZeros( uint32_t ulBitma
 131:../../../FreeRTOS/Source/portable/GCC/ARM_CM4F/portmacro.h **** 	{
 132:../../../FreeRTOS/Source/portable/GCC/ARM_CM4F/portmacro.h **** 	uint8_t ucReturn;
 133:../../../FreeRTOS/Source/portable/GCC/ARM_CM4F/portmacro.h **** 
 134:../../../FreeRTOS/Source/portable/GCC/ARM_CM4F/portmacro.h **** 		__asm volatile ( "clz %0, %1" : "=r" ( ucReturn ) : "r" ( ulBitmap ) : "memory" );
 135:../../../FreeRTOS/Source/portable/GCC/ARM_CM4F/portmacro.h **** 		return ucReturn;
 136:../../../FreeRTOS/Source/portable/GCC/ARM_CM4F/portmacro.h **** 	}
 137:../../../FreeRTOS/Source/portable/GCC/ARM_CM4F/portmacro.h **** 
ARM GAS  C:\Users\Jim_YW\AppData\Local\Temp\ccsaULLo.s 			page 18


 138:../../../FreeRTOS/Source/portable/GCC/ARM_CM4F/portmacro.h **** 	/* Check the configuration. */
 139:../../../FreeRTOS/Source/portable/GCC/ARM_CM4F/portmacro.h **** 	#if( configMAX_PRIORITIES > 32 )
 140:../../../FreeRTOS/Source/portable/GCC/ARM_CM4F/portmacro.h **** 		#error configUSE_PORT_OPTIMISED_TASK_SELECTION can only be set to 1 when configMAX_PRIORITIES is 
 141:../../../FreeRTOS/Source/portable/GCC/ARM_CM4F/portmacro.h **** 	#endif
 142:../../../FreeRTOS/Source/portable/GCC/ARM_CM4F/portmacro.h **** 
 143:../../../FreeRTOS/Source/portable/GCC/ARM_CM4F/portmacro.h **** 	/* Store/clear the ready priorities in a bit map. */
 144:../../../FreeRTOS/Source/portable/GCC/ARM_CM4F/portmacro.h **** 	#define portRECORD_READY_PRIORITY( uxPriority, uxReadyPriorities ) ( uxReadyPriorities ) |= ( 1UL 
 145:../../../FreeRTOS/Source/portable/GCC/ARM_CM4F/portmacro.h **** 	#define portRESET_READY_PRIORITY( uxPriority, uxReadyPriorities ) ( uxReadyPriorities ) &= ~( 1UL 
 146:../../../FreeRTOS/Source/portable/GCC/ARM_CM4F/portmacro.h **** 
 147:../../../FreeRTOS/Source/portable/GCC/ARM_CM4F/portmacro.h **** 	/*-----------------------------------------------------------*/
 148:../../../FreeRTOS/Source/portable/GCC/ARM_CM4F/portmacro.h **** 
 149:../../../FreeRTOS/Source/portable/GCC/ARM_CM4F/portmacro.h **** 	#define portGET_HIGHEST_PRIORITY( uxTopPriority, uxReadyPriorities ) uxTopPriority = ( 31UL - ( ui
 150:../../../FreeRTOS/Source/portable/GCC/ARM_CM4F/portmacro.h **** 
 151:../../../FreeRTOS/Source/portable/GCC/ARM_CM4F/portmacro.h **** #endif /* configUSE_PORT_OPTIMISED_TASK_SELECTION */
 152:../../../FreeRTOS/Source/portable/GCC/ARM_CM4F/portmacro.h **** 
 153:../../../FreeRTOS/Source/portable/GCC/ARM_CM4F/portmacro.h **** /*-----------------------------------------------------------*/
 154:../../../FreeRTOS/Source/portable/GCC/ARM_CM4F/portmacro.h **** 
 155:../../../FreeRTOS/Source/portable/GCC/ARM_CM4F/portmacro.h **** #ifdef configASSERT
 156:../../../FreeRTOS/Source/portable/GCC/ARM_CM4F/portmacro.h **** 	void vPortValidateInterruptPriority( void );
 157:../../../FreeRTOS/Source/portable/GCC/ARM_CM4F/portmacro.h **** 	#define portASSERT_IF_INTERRUPT_PRIORITY_INVALID() 	vPortValidateInterruptPriority()
 158:../../../FreeRTOS/Source/portable/GCC/ARM_CM4F/portmacro.h **** #endif
 159:../../../FreeRTOS/Source/portable/GCC/ARM_CM4F/portmacro.h **** 
 160:../../../FreeRTOS/Source/portable/GCC/ARM_CM4F/portmacro.h **** /* portNOP() is not required by this port. */
 161:../../../FreeRTOS/Source/portable/GCC/ARM_CM4F/portmacro.h **** #define portNOP()
 162:../../../FreeRTOS/Source/portable/GCC/ARM_CM4F/portmacro.h **** 
 163:../../../FreeRTOS/Source/portable/GCC/ARM_CM4F/portmacro.h **** #define portINLINE	__inline
 164:../../../FreeRTOS/Source/portable/GCC/ARM_CM4F/portmacro.h **** 
 165:../../../FreeRTOS/Source/portable/GCC/ARM_CM4F/portmacro.h **** #ifndef portFORCE_INLINE
 166:../../../FreeRTOS/Source/portable/GCC/ARM_CM4F/portmacro.h **** 	#define portFORCE_INLINE inline __attribute__(( always_inline))
 167:../../../FreeRTOS/Source/portable/GCC/ARM_CM4F/portmacro.h **** #endif
 168:../../../FreeRTOS/Source/portable/GCC/ARM_CM4F/portmacro.h **** 
 169:../../../FreeRTOS/Source/portable/GCC/ARM_CM4F/portmacro.h **** portFORCE_INLINE static BaseType_t xPortIsInsideInterrupt( void )
 170:../../../FreeRTOS/Source/portable/GCC/ARM_CM4F/portmacro.h **** {
 171:../../../FreeRTOS/Source/portable/GCC/ARM_CM4F/portmacro.h **** uint32_t ulCurrentInterrupt;
 172:../../../FreeRTOS/Source/portable/GCC/ARM_CM4F/portmacro.h **** BaseType_t xReturn;
 173:../../../FreeRTOS/Source/portable/GCC/ARM_CM4F/portmacro.h **** 
 174:../../../FreeRTOS/Source/portable/GCC/ARM_CM4F/portmacro.h **** 	/* Obtain the number of the currently executing interrupt. */
 175:../../../FreeRTOS/Source/portable/GCC/ARM_CM4F/portmacro.h **** 	__asm volatile( "mrs %0, ipsr" : "=r"( ulCurrentInterrupt ) :: "memory" );
 176:../../../FreeRTOS/Source/portable/GCC/ARM_CM4F/portmacro.h **** 
 177:../../../FreeRTOS/Source/portable/GCC/ARM_CM4F/portmacro.h **** 	if( ulCurrentInterrupt == 0 )
 178:../../../FreeRTOS/Source/portable/GCC/ARM_CM4F/portmacro.h **** 	{
 179:../../../FreeRTOS/Source/portable/GCC/ARM_CM4F/portmacro.h **** 		xReturn = pdFALSE;
 180:../../../FreeRTOS/Source/portable/GCC/ARM_CM4F/portmacro.h **** 	}
 181:../../../FreeRTOS/Source/portable/GCC/ARM_CM4F/portmacro.h **** 	else
 182:../../../FreeRTOS/Source/portable/GCC/ARM_CM4F/portmacro.h **** 	{
 183:../../../FreeRTOS/Source/portable/GCC/ARM_CM4F/portmacro.h **** 		xReturn = pdTRUE;
 184:../../../FreeRTOS/Source/portable/GCC/ARM_CM4F/portmacro.h **** 	}
 185:../../../FreeRTOS/Source/portable/GCC/ARM_CM4F/portmacro.h **** 
 186:../../../FreeRTOS/Source/portable/GCC/ARM_CM4F/portmacro.h **** 	return xReturn;
 187:../../../FreeRTOS/Source/portable/GCC/ARM_CM4F/portmacro.h **** }
 188:../../../FreeRTOS/Source/portable/GCC/ARM_CM4F/portmacro.h **** 
 189:../../../FreeRTOS/Source/portable/GCC/ARM_CM4F/portmacro.h **** /*-----------------------------------------------------------*/
 190:../../../FreeRTOS/Source/portable/GCC/ARM_CM4F/portmacro.h **** 
 191:../../../FreeRTOS/Source/portable/GCC/ARM_CM4F/portmacro.h **** portFORCE_INLINE static void vPortRaiseBASEPRI( void )
 118              		.loc 2 191 30 view .LVU27
 119              	.LBB38:
 192:../../../FreeRTOS/Source/portable/GCC/ARM_CM4F/portmacro.h **** {
ARM GAS  C:\Users\Jim_YW\AppData\Local\Temp\ccsaULLo.s 			page 19


 193:../../../FreeRTOS/Source/portable/GCC/ARM_CM4F/portmacro.h **** uint32_t ulNewBASEPRI;
 120              		.loc 2 193 1 view .LVU28
 194:../../../FreeRTOS/Source/portable/GCC/ARM_CM4F/portmacro.h **** 
 195:../../../FreeRTOS/Source/portable/GCC/ARM_CM4F/portmacro.h **** 	__asm volatile
 121              		.loc 2 195 2 view .LVU29
 122              		.syntax unified
 123              	@ 195 "../../../FreeRTOS/Source/portable/GCC/ARM_CM4F/portmacro.h" 1
 124 0012 4FF05003 			mov r3, #80												
 125 0016 83F31188 		msr basepri, r3											
 126 001a BFF36F8F 		isb														
 127 001e BFF34F8F 		dsb														
 128              	
 129              	@ 0 "" 2
 130              	.LVL9:
 131              		.thumb
 132              		.syntax unified
 133              	.L10:
 134              		.loc 2 195 2 is_stmt 0 view .LVU30
 135              	.LBE38:
 136              	.LBE37:
 106:../../../FreeRTOS/Source/event_groups.c **** 		} /*lint !e529 xSize is referenced if configASSERT() is defined. */
 137              		.loc 1 106 4 is_stmt 1 discriminator 2 view .LVU31
 106:../../../FreeRTOS/Source/event_groups.c **** 		} /*lint !e529 xSize is referenced if configASSERT() is defined. */
 138              		.loc 1 106 4 discriminator 2 view .LVU32
 106:../../../FreeRTOS/Source/event_groups.c **** 		} /*lint !e529 xSize is referenced if configASSERT() is defined. */
 139              		.loc 1 106 4 discriminator 2 view .LVU33
 140 0022 FEE7     		b	.L10
 141              	.L13:
 142              	.LCFI2:
 143              		.cfi_def_cfa_offset 0
 144              		.cfi_restore 4
 145              		.cfi_restore 14
 106:../../../FreeRTOS/Source/event_groups.c **** 		} /*lint !e529 xSize is referenced if configASSERT() is defined. */
 146              		.loc 1 106 4 is_stmt 0 discriminator 2 view .LVU34
 147              	.LBE36:
  98:../../../FreeRTOS/Source/event_groups.c **** 
 148              		.loc 1 98 3 is_stmt 1 view .LVU35
 149              	.LBB39:
 150              	.LBI39:
 191:../../../FreeRTOS/Source/portable/GCC/ARM_CM4F/portmacro.h **** {
 151              		.loc 2 191 30 view .LVU36
 152              	.LBB40:
 193:../../../FreeRTOS/Source/portable/GCC/ARM_CM4F/portmacro.h **** 
 153              		.loc 2 193 1 view .LVU37
 154              		.loc 2 195 2 view .LVU38
 155              		.syntax unified
 156              	@ 195 "../../../FreeRTOS/Source/portable/GCC/ARM_CM4F/portmacro.h" 1
 157 0024 4FF05003 			mov r3, #80												
 158 0028 83F31188 		msr basepri, r3											
 159 002c BFF36F8F 		isb														
 160 0030 BFF34F8F 		dsb														
 161              	
 162              	@ 0 "" 2
 163              	.LVL10:
 164              		.thumb
 165              		.syntax unified
 166              	.L8:
ARM GAS  C:\Users\Jim_YW\AppData\Local\Temp\ccsaULLo.s 			page 20


 167              		.loc 2 195 2 is_stmt 0 view .LVU39
 168              	.LBE40:
 169              	.LBE39:
  98:../../../FreeRTOS/Source/event_groups.c **** 
 170              		.loc 1 98 3 is_stmt 1 discriminator 1 view .LVU40
  98:../../../FreeRTOS/Source/event_groups.c **** 
 171              		.loc 1 98 3 discriminator 1 view .LVU41
  98:../../../FreeRTOS/Source/event_groups.c **** 
 172              		.loc 1 98 3 discriminator 1 view .LVU42
 173 0034 FEE7     		b	.L8
 174              	.L9:
 175              	.LCFI3:
 176              		.cfi_def_cfa_offset 16
 177              		.cfi_offset 4, -8
 178              		.cfi_offset 14, -4
 179              	.LBB41:
 106:../../../FreeRTOS/Source/event_groups.c **** 		} /*lint !e529 xSize is referenced if configASSERT() is defined. */
 180              		.loc 1 106 51 view .LVU43
 181              	.LBE41:
 111:../../../FreeRTOS/Source/event_groups.c **** 
 182              		.loc 1 111 3 view .LVU44
 183              	.LVL11:
 113:../../../FreeRTOS/Source/event_groups.c **** 		{
 184              		.loc 1 113 3 view .LVU45
 115:../../../FreeRTOS/Source/event_groups.c **** 			vListInitialise( &( pxEventBits->xTasksWaitingForBits ) );
 185              		.loc 1 115 4 view .LVU46
 115:../../../FreeRTOS/Source/event_groups.c **** 			vListInitialise( &( pxEventBits->xTasksWaitingForBits ) );
 186              		.loc 1 115 29 is_stmt 0 view .LVU47
 187 0036 0023     		movs	r3, #0
 188 0038 40F8043B 		str	r3, [r0], #4
 189              	.LVL12:
 116:../../../FreeRTOS/Source/event_groups.c **** 
 190              		.loc 1 116 4 is_stmt 1 view .LVU48
 191 003c FFF7FEFF 		bl	vListInitialise
 192              	.LVL13:
 123:../../../FreeRTOS/Source/event_groups.c **** 			}
 193              		.loc 1 123 5 view .LVU49
 123:../../../FreeRTOS/Source/event_groups.c **** 			}
 194              		.loc 1 123 40 is_stmt 0 view .LVU50
 195 0040 0123     		movs	r3, #1
 196 0042 2377     		strb	r3, [r4, #28]
 127:../../../FreeRTOS/Source/event_groups.c **** 		}
 197              		.loc 1 127 42 is_stmt 1 view .LVU51
 134:../../../FreeRTOS/Source/event_groups.c **** 		}
 198              		.loc 1 134 36 view .LVU52
 137:../../../FreeRTOS/Source/event_groups.c **** 	}
 199              		.loc 1 137 3 view .LVU53
 138:../../../FreeRTOS/Source/event_groups.c **** 
 200              		.loc 1 138 2 is_stmt 0 view .LVU54
 201 0044 2046     		mov	r0, r4
 202 0046 02B0     		add	sp, sp, #8
 203              	.LCFI4:
 204              		.cfi_def_cfa_offset 8
 205              		@ sp needed
 206 0048 10BD     		pop	{r4, pc}
 138:../../../FreeRTOS/Source/event_groups.c **** 
 207              		.loc 1 138 2 view .LVU55
ARM GAS  C:\Users\Jim_YW\AppData\Local\Temp\ccsaULLo.s 			page 21


 208              		.cfi_endproc
 209              	.LFE4:
 211              		.section	.text.xEventGroupCreate,"ax",%progbits
 212              		.align	1
 213              		.global	xEventGroupCreate
 214              		.syntax unified
 215              		.thumb
 216              		.thumb_func
 218              	xEventGroupCreate:
 219              	.LFB5:
 146:../../../FreeRTOS/Source/event_groups.c **** 	EventGroup_t *pxEventBits;
 220              		.loc 1 146 2 is_stmt 1 view -0
 221              		.cfi_startproc
 222              		@ args = 0, pretend = 0, frame = 0
 223              		@ frame_needed = 0, uses_anonymous_args = 0
 224 0000 38B5     		push	{r3, r4, r5, lr}
 225              	.LCFI5:
 226              		.cfi_def_cfa_offset 16
 227              		.cfi_offset 3, -16
 228              		.cfi_offset 4, -12
 229              		.cfi_offset 5, -8
 230              		.cfi_offset 14, -4
 147:../../../FreeRTOS/Source/event_groups.c **** 
 231              		.loc 1 147 2 view .LVU57
 162:../../../FreeRTOS/Source/event_groups.c **** 
 232              		.loc 1 162 3 view .LVU58
 162:../../../FreeRTOS/Source/event_groups.c **** 
 233              		.loc 1 162 36 is_stmt 0 view .LVU59
 234 0002 2020     		movs	r0, #32
 235 0004 FFF7FEFF 		bl	pvPortMalloc
 236              	.LVL14:
 164:../../../FreeRTOS/Source/event_groups.c **** 		{
 237              		.loc 1 164 3 is_stmt 1 view .LVU60
 164:../../../FreeRTOS/Source/event_groups.c **** 		{
 238              		.loc 1 164 5 is_stmt 0 view .LVU61
 239 0008 0446     		mov	r4, r0
 240 000a 28B1     		cbz	r0, .L14
 166:../../../FreeRTOS/Source/event_groups.c **** 			vListInitialise( &( pxEventBits->xTasksWaitingForBits ) );
 241              		.loc 1 166 4 is_stmt 1 view .LVU62
 166:../../../FreeRTOS/Source/event_groups.c **** 			vListInitialise( &( pxEventBits->xTasksWaitingForBits ) );
 242              		.loc 1 166 29 is_stmt 0 view .LVU63
 243 000c 0025     		movs	r5, #0
 244 000e 40F8045B 		str	r5, [r0], #4
 245              	.LVL15:
 167:../../../FreeRTOS/Source/event_groups.c **** 
 246              		.loc 1 167 4 is_stmt 1 view .LVU64
 247 0012 FFF7FEFF 		bl	vListInitialise
 248              	.LVL16:
 174:../../../FreeRTOS/Source/event_groups.c **** 			}
 249              		.loc 1 174 5 view .LVU65
 174:../../../FreeRTOS/Source/event_groups.c **** 			}
 250              		.loc 1 174 40 is_stmt 0 view .LVU66
 251 0016 2577     		strb	r5, [r4, #28]
 178:../../../FreeRTOS/Source/event_groups.c **** 		}
 252              		.loc 1 178 42 is_stmt 1 view .LVU67
 182:../../../FreeRTOS/Source/event_groups.c **** 		}
 253              		.loc 1 182 36 view .LVU68
ARM GAS  C:\Users\Jim_YW\AppData\Local\Temp\ccsaULLo.s 			page 22


 185:../../../FreeRTOS/Source/event_groups.c **** 	}
 254              		.loc 1 185 3 view .LVU69
 255              	.L14:
 186:../../../FreeRTOS/Source/event_groups.c **** 
 256              		.loc 1 186 2 is_stmt 0 view .LVU70
 257 0018 2046     		mov	r0, r4
 258 001a 38BD     		pop	{r3, r4, r5, pc}
 186:../../../FreeRTOS/Source/event_groups.c **** 
 259              		.loc 1 186 2 view .LVU71
 260              		.cfi_endproc
 261              	.LFE5:
 263              		.section	.text.xEventGroupWaitBits,"ax",%progbits
 264              		.align	1
 265              		.global	xEventGroupWaitBits
 266              		.syntax unified
 267              		.thumb
 268              		.thumb_func
 270              	xEventGroupWaitBits:
 271              	.LVL17:
 272              	.LFB7:
 312:../../../FreeRTOS/Source/event_groups.c **** EventGroup_t *pxEventBits = xEventGroup;
 273              		.loc 1 312 1 is_stmt 1 view -0
 274              		.cfi_startproc
 275              		@ args = 4, pretend = 0, frame = 0
 276              		@ frame_needed = 0, uses_anonymous_args = 0
 312:../../../FreeRTOS/Source/event_groups.c **** EventGroup_t *pxEventBits = xEventGroup;
 277              		.loc 1 312 1 is_stmt 0 view .LVU73
 278 0000 2DE9F843 		push	{r3, r4, r5, r6, r7, r8, r9, lr}
 279              	.LCFI6:
 280              		.cfi_def_cfa_offset 32
 281              		.cfi_offset 3, -32
 282              		.cfi_offset 4, -28
 283              		.cfi_offset 5, -24
 284              		.cfi_offset 6, -20
 285              		.cfi_offset 7, -16
 286              		.cfi_offset 8, -12
 287              		.cfi_offset 9, -8
 288              		.cfi_offset 14, -4
 313:../../../FreeRTOS/Source/event_groups.c **** EventBits_t uxReturn, uxControlBits = 0;
 289              		.loc 1 313 1 is_stmt 1 view .LVU74
 290              	.LVL18:
 314:../../../FreeRTOS/Source/event_groups.c **** BaseType_t xWaitConditionMet, xAlreadyYielded;
 291              		.loc 1 314 1 view .LVU75
 315:../../../FreeRTOS/Source/event_groups.c **** BaseType_t xTimeoutOccurred = pdFALSE;
 292              		.loc 1 315 1 view .LVU76
 316:../../../FreeRTOS/Source/event_groups.c **** 
 293              		.loc 1 316 1 view .LVU77
 320:../../../FreeRTOS/Source/event_groups.c **** 	configASSERT( ( uxBitsToWaitFor & eventEVENT_BITS_CONTROL_BYTES ) == 0 );
 294              		.loc 1 320 2 view .LVU78
 295 0004 78B1     		cbz	r0, .L37
 296 0006 0C46     		mov	r4, r1
 297 0008 1646     		mov	r6, r2
 298 000a 1D46     		mov	r5, r3
 299 000c 0746     		mov	r7, r0
 320:../../../FreeRTOS/Source/event_groups.c **** 	configASSERT( ( uxBitsToWaitFor & eventEVENT_BITS_CONTROL_BYTES ) == 0 );
 300              		.loc 1 320 29 discriminator 2 view .LVU79
 321:../../../FreeRTOS/Source/event_groups.c **** 	configASSERT( uxBitsToWaitFor != 0 );
ARM GAS  C:\Users\Jim_YW\AppData\Local\Temp\ccsaULLo.s 			page 23


 301              		.loc 1 321 2 discriminator 2 view .LVU80
 302 000e 11F07F48 		ands	r8, r1, #-16777216
 303 0012 11D0     		beq	.L20
 321:../../../FreeRTOS/Source/event_groups.c **** 	configASSERT( uxBitsToWaitFor != 0 );
 304              		.loc 1 321 2 view .LVU81
 305              	.LBB42:
 306              	.LBI42:
 191:../../../FreeRTOS/Source/portable/GCC/ARM_CM4F/portmacro.h **** {
 307              		.loc 2 191 30 view .LVU82
 308              	.LBB43:
 193:../../../FreeRTOS/Source/portable/GCC/ARM_CM4F/portmacro.h **** 
 309              		.loc 2 193 1 view .LVU83
 310              		.loc 2 195 2 view .LVU84
 311              		.syntax unified
 312              	@ 195 "../../../FreeRTOS/Source/portable/GCC/ARM_CM4F/portmacro.h" 1
 313 0014 4FF05003 			mov r3, #80												
 314 0018 83F31188 		msr basepri, r3											
 315 001c BFF36F8F 		isb														
 316 0020 BFF34F8F 		dsb														
 317              	
 318              	@ 0 "" 2
 319              	.LVL19:
 320              		.thumb
 321              		.syntax unified
 322              	.L21:
 323              		.loc 2 195 2 is_stmt 0 view .LVU85
 324              	.LBE43:
 325              	.LBE42:
 321:../../../FreeRTOS/Source/event_groups.c **** 	configASSERT( uxBitsToWaitFor != 0 );
 326              		.loc 1 321 2 is_stmt 1 discriminator 2 view .LVU86
 321:../../../FreeRTOS/Source/event_groups.c **** 	configASSERT( uxBitsToWaitFor != 0 );
 327              		.loc 1 321 2 discriminator 2 view .LVU87
 321:../../../FreeRTOS/Source/event_groups.c **** 	configASSERT( uxBitsToWaitFor != 0 );
 328              		.loc 1 321 2 discriminator 2 view .LVU88
 329 0024 FEE7     		b	.L21
 330              	.LVL20:
 331              	.L37:
 320:../../../FreeRTOS/Source/event_groups.c **** 	configASSERT( ( uxBitsToWaitFor & eventEVENT_BITS_CONTROL_BYTES ) == 0 );
 332              		.loc 1 320 2 view .LVU89
 333              	.LBB44:
 334              	.LBI44:
 191:../../../FreeRTOS/Source/portable/GCC/ARM_CM4F/portmacro.h **** {
 335              		.loc 2 191 30 view .LVU90
 336              	.LBB45:
 193:../../../FreeRTOS/Source/portable/GCC/ARM_CM4F/portmacro.h **** 
 337              		.loc 2 193 1 view .LVU91
 338              		.loc 2 195 2 view .LVU92
 339              		.syntax unified
 340              	@ 195 "../../../FreeRTOS/Source/portable/GCC/ARM_CM4F/portmacro.h" 1
 341 0026 4FF05003 			mov r3, #80												
 342 002a 83F31188 		msr basepri, r3											
 343 002e BFF36F8F 		isb														
 344 0032 BFF34F8F 		dsb														
 345              	
 346              	@ 0 "" 2
 347              	.LVL21:
 348              		.thumb
ARM GAS  C:\Users\Jim_YW\AppData\Local\Temp\ccsaULLo.s 			page 24


 349              		.syntax unified
 350              	.L19:
 351              		.loc 2 195 2 is_stmt 0 view .LVU93
 352              	.LBE45:
 353              	.LBE44:
 320:../../../FreeRTOS/Source/event_groups.c **** 	configASSERT( ( uxBitsToWaitFor & eventEVENT_BITS_CONTROL_BYTES ) == 0 );
 354              		.loc 1 320 2 is_stmt 1 discriminator 1 view .LVU94
 320:../../../FreeRTOS/Source/event_groups.c **** 	configASSERT( ( uxBitsToWaitFor & eventEVENT_BITS_CONTROL_BYTES ) == 0 );
 355              		.loc 1 320 2 discriminator 1 view .LVU95
 320:../../../FreeRTOS/Source/event_groups.c **** 	configASSERT( ( uxBitsToWaitFor & eventEVENT_BITS_CONTROL_BYTES ) == 0 );
 356              		.loc 1 320 2 discriminator 1 view .LVU96
 357 0036 FEE7     		b	.L19
 358              	.LVL22:
 359              	.L20:
 321:../../../FreeRTOS/Source/event_groups.c **** 	configASSERT( uxBitsToWaitFor != 0 );
 360              		.loc 1 321 74 discriminator 2 view .LVU97
 322:../../../FreeRTOS/Source/event_groups.c **** 	#if ( ( INCLUDE_xTaskGetSchedulerState == 1 ) || ( configUSE_TIMERS == 1 ) )
 361              		.loc 1 322 2 discriminator 2 view .LVU98
 362 0038 41B9     		cbnz	r1, .L22
 322:../../../FreeRTOS/Source/event_groups.c **** 	#if ( ( INCLUDE_xTaskGetSchedulerState == 1 ) || ( configUSE_TIMERS == 1 ) )
 363              		.loc 1 322 2 view .LVU99
 364              	.LBB46:
 365              	.LBI46:
 191:../../../FreeRTOS/Source/portable/GCC/ARM_CM4F/portmacro.h **** {
 366              		.loc 2 191 30 view .LVU100
 367              	.LBB47:
 193:../../../FreeRTOS/Source/portable/GCC/ARM_CM4F/portmacro.h **** 
 368              		.loc 2 193 1 view .LVU101
 369              		.loc 2 195 2 view .LVU102
 370              		.syntax unified
 371              	@ 195 "../../../FreeRTOS/Source/portable/GCC/ARM_CM4F/portmacro.h" 1
 372 003a 4FF05003 			mov r3, #80												
 373 003e 83F31188 		msr basepri, r3											
 374 0042 BFF36F8F 		isb														
 375 0046 BFF34F8F 		dsb														
 376              	
 377              	@ 0 "" 2
 378              	.LVL23:
 379              		.thumb
 380              		.syntax unified
 381              	.L23:
 382              		.loc 2 195 2 is_stmt 0 view .LVU103
 383              	.LBE47:
 384              	.LBE46:
 322:../../../FreeRTOS/Source/event_groups.c **** 	#if ( ( INCLUDE_xTaskGetSchedulerState == 1 ) || ( configUSE_TIMERS == 1 ) )
 385              		.loc 1 322 2 is_stmt 1 discriminator 3 view .LVU104
 322:../../../FreeRTOS/Source/event_groups.c **** 	#if ( ( INCLUDE_xTaskGetSchedulerState == 1 ) || ( configUSE_TIMERS == 1 ) )
 386              		.loc 1 322 2 discriminator 3 view .LVU105
 322:../../../FreeRTOS/Source/event_groups.c **** 	#if ( ( INCLUDE_xTaskGetSchedulerState == 1 ) || ( configUSE_TIMERS == 1 ) )
 387              		.loc 1 322 2 discriminator 3 view .LVU106
 388 004a FEE7     		b	.L23
 389              	.LVL24:
 390              	.L22:
 322:../../../FreeRTOS/Source/event_groups.c **** 	#if ( ( INCLUDE_xTaskGetSchedulerState == 1 ) || ( configUSE_TIMERS == 1 ) )
 391              		.loc 1 322 38 discriminator 2 view .LVU107
 325:../../../FreeRTOS/Source/event_groups.c **** 	}
 392              		.loc 1 325 3 discriminator 2 view .LVU108
ARM GAS  C:\Users\Jim_YW\AppData\Local\Temp\ccsaULLo.s 			page 25


 393 004c FFF7FEFF 		bl	xTaskGetSchedulerState
 394              	.LVL25:
 325:../../../FreeRTOS/Source/event_groups.c **** 	}
 395              		.loc 1 325 3 is_stmt 0 discriminator 2 view .LVU109
 396 0050 50B9     		cbnz	r0, .L24
 397 0052 089B     		ldr	r3, [sp, #32]
 398 0054 43B1     		cbz	r3, .L24
 325:../../../FreeRTOS/Source/event_groups.c **** 	}
 399              		.loc 1 325 3 is_stmt 1 view .LVU110
 400              	.LBB48:
 401              	.LBI48:
 191:../../../FreeRTOS/Source/portable/GCC/ARM_CM4F/portmacro.h **** {
 402              		.loc 2 191 30 view .LVU111
 403              	.LBB49:
 193:../../../FreeRTOS/Source/portable/GCC/ARM_CM4F/portmacro.h **** 
 404              		.loc 2 193 1 view .LVU112
 405              		.loc 2 195 2 view .LVU113
 406              		.syntax unified
 407              	@ 195 "../../../FreeRTOS/Source/portable/GCC/ARM_CM4F/portmacro.h" 1
 408 0056 4FF05003 			mov r3, #80												
 409 005a 83F31188 		msr basepri, r3											
 410 005e BFF36F8F 		isb														
 411 0062 BFF34F8F 		dsb														
 412              	
 413              	@ 0 "" 2
 414              	.LVL26:
 415              		.thumb
 416              		.syntax unified
 417              	.L25:
 418              		.loc 2 195 2 is_stmt 0 view .LVU114
 419              	.LBE49:
 420              	.LBE48:
 325:../../../FreeRTOS/Source/event_groups.c **** 	}
 421              		.loc 1 325 3 is_stmt 1 discriminator 4 view .LVU115
 325:../../../FreeRTOS/Source/event_groups.c **** 	}
 422              		.loc 1 325 3 discriminator 4 view .LVU116
 325:../../../FreeRTOS/Source/event_groups.c **** 	}
 423              		.loc 1 325 3 discriminator 4 view .LVU117
 424 0066 FEE7     		b	.L25
 425              	.L24:
 325:../../../FreeRTOS/Source/event_groups.c **** 	}
 426              		.loc 1 325 104 discriminator 8 view .LVU118
 329:../../../FreeRTOS/Source/event_groups.c **** 	{
 427              		.loc 1 329 2 discriminator 8 view .LVU119
 428 0068 FFF7FEFF 		bl	vTaskSuspendAll
 429              	.LVL27:
 430              	.LBB50:
 331:../../../FreeRTOS/Source/event_groups.c **** 
 431              		.loc 1 331 3 discriminator 8 view .LVU120
 331:../../../FreeRTOS/Source/event_groups.c **** 
 432              		.loc 1 331 21 is_stmt 0 discriminator 8 view .LVU121
 433 006c D7F80090 		ldr	r9, [r7]
 434              	.LVL28:
 334:../../../FreeRTOS/Source/event_groups.c **** 
 435              		.loc 1 334 3 is_stmt 1 discriminator 8 view .LVU122
 334:../../../FreeRTOS/Source/event_groups.c **** 
 436              		.loc 1 334 23 is_stmt 0 discriminator 8 view .LVU123
ARM GAS  C:\Users\Jim_YW\AppData\Local\Temp\ccsaULLo.s 			page 26


 437 0070 2A46     		mov	r2, r5
 438 0072 2146     		mov	r1, r4
 439 0074 4846     		mov	r0, r9
 440 0076 FFF7FEFF 		bl	prvTestWaitCondition
 441              	.LVL29:
 336:../../../FreeRTOS/Source/event_groups.c **** 		{
 442              		.loc 1 336 3 is_stmt 1 discriminator 8 view .LVU124
 336:../../../FreeRTOS/Source/event_groups.c **** 		{
 443              		.loc 1 336 5 is_stmt 0 discriminator 8 view .LVU125
 444 007a F0B1     		cbz	r0, .L26
 340:../../../FreeRTOS/Source/event_groups.c **** 			xTicksToWait = ( TickType_t ) 0;
 445              		.loc 1 340 4 is_stmt 1 view .LVU126
 446              	.LVL30:
 341:../../../FreeRTOS/Source/event_groups.c **** 
 447              		.loc 1 341 4 view .LVU127
 344:../../../FreeRTOS/Source/event_groups.c **** 			{
 448              		.loc 1 344 4 view .LVU128
 344:../../../FreeRTOS/Source/event_groups.c **** 			{
 449              		.loc 1 344 6 is_stmt 0 view .LVU129
 450 007c 16B1     		cbz	r6, .L27
 346:../../../FreeRTOS/Source/event_groups.c **** 			}
 451              		.loc 1 346 5 is_stmt 1 view .LVU130
 346:../../../FreeRTOS/Source/event_groups.c **** 			}
 452              		.loc 1 346 30 is_stmt 0 view .LVU131
 453 007e 29EA0403 		bic	r3, r9, r4
 454 0082 3B60     		str	r3, [r7]
 455              	.LVL31:
 456              	.L27:
 394:../../../FreeRTOS/Source/event_groups.c **** 		}
 457              		.loc 1 394 68 is_stmt 1 view .LVU132
 458              	.LBE50:
 397:../../../FreeRTOS/Source/event_groups.c **** 
 459              		.loc 1 397 2 view .LVU133
 397:../../../FreeRTOS/Source/event_groups.c **** 
 460              		.loc 1 397 20 is_stmt 0 view .LVU134
 461 0084 FFF7FEFF 		bl	xTaskResumeAll
 462              	.LVL32:
 399:../../../FreeRTOS/Source/event_groups.c **** 	{
 463              		.loc 1 399 2 is_stmt 1 view .LVU135
 399:../../../FreeRTOS/Source/event_groups.c **** 	{
 464              		.loc 1 399 4 is_stmt 0 view .LVU136
 465 0088 B8F1000F 		cmp	r8, #0
 466 008c 12D0     		beq	.L17
 401:../../../FreeRTOS/Source/event_groups.c **** 		{
 467              		.loc 1 401 3 is_stmt 1 view .LVU137
 401:../../../FreeRTOS/Source/event_groups.c **** 		{
 468              		.loc 1 401 5 is_stmt 0 view .LVU138
 469 008e 48B9     		cbnz	r0, .L31
 403:../../../FreeRTOS/Source/event_groups.c **** 		}
 470              		.loc 1 403 4 is_stmt 1 view .LVU139
 471 0090 4FF0E023 		mov	r3, #-536813568
 472 0094 4FF08052 		mov	r2, #268435456
 473 0098 C3F8042D 		str	r2, [r3, #3332]
 403:../../../FreeRTOS/Source/event_groups.c **** 		}
 474              		.loc 1 403 4 view .LVU140
 475              		.syntax unified
 476              	@ 403 "../../../FreeRTOS/Source/event_groups.c" 1
ARM GAS  C:\Users\Jim_YW\AppData\Local\Temp\ccsaULLo.s 			page 27


 477 009c BFF34F8F 		dsb
 478              	@ 0 "" 2
 403:../../../FreeRTOS/Source/event_groups.c **** 		}
 479              		.loc 1 403 4 view .LVU141
 480              	@ 403 "../../../FreeRTOS/Source/event_groups.c" 1
 481 00a0 BFF36F8F 		isb
 482              	@ 0 "" 2
 403:../../../FreeRTOS/Source/event_groups.c **** 		}
 483              		.loc 1 403 26 view .LVU142
 484              		.thumb
 485              		.syntax unified
 486              	.L31:
 407:../../../FreeRTOS/Source/event_groups.c **** 		}
 487              		.loc 1 407 28 view .LVU143
 414:../../../FreeRTOS/Source/event_groups.c **** 
 488              		.loc 1 414 3 view .LVU144
 414:../../../FreeRTOS/Source/event_groups.c **** 
 489              		.loc 1 414 14 is_stmt 0 view .LVU145
 490 00a4 FFF7FEFF 		bl	uxTaskResetEventItemValue
 491              	.LVL33:
 414:../../../FreeRTOS/Source/event_groups.c **** 
 492              		.loc 1 414 14 view .LVU146
 493 00a8 8146     		mov	r9, r0
 494              	.LVL34:
 416:../../../FreeRTOS/Source/event_groups.c **** 		{
 495              		.loc 1 416 3 is_stmt 1 view .LVU147
 416:../../../FreeRTOS/Source/event_groups.c **** 		{
 496              		.loc 1 416 5 is_stmt 0 view .LVU148
 497 00aa 10F0007F 		tst	r0, #33554432
 498 00ae 1AD0     		beq	.L38
 499              	.LVL35:
 500              	.L32:
 447:../../../FreeRTOS/Source/event_groups.c **** 
 501              		.loc 1 447 3 is_stmt 1 view .LVU149
 450:../../../FreeRTOS/Source/event_groups.c **** 	}
 502              		.loc 1 450 3 view .LVU150
 450:../../../FreeRTOS/Source/event_groups.c **** 	}
 503              		.loc 1 450 12 is_stmt 0 view .LVU151
 504 00b0 29F07F49 		bic	r9, r9, #-16777216
 505              	.LVL36:
 452:../../../FreeRTOS/Source/event_groups.c **** 
 506              		.loc 1 452 2 is_stmt 1 view .LVU152
 455:../../../FreeRTOS/Source/event_groups.c **** 
 507              		.loc 1 455 2 view .LVU153
 457:../../../FreeRTOS/Source/event_groups.c **** }
 508              		.loc 1 457 2 view .LVU154
 509              	.L17:
 458:../../../FreeRTOS/Source/event_groups.c **** /*-----------------------------------------------------------*/
 510              		.loc 1 458 1 is_stmt 0 view .LVU155
 511 00b4 4846     		mov	r0, r9
 512 00b6 BDE8F883 		pop	{r3, r4, r5, r6, r7, r8, r9, pc}
 513              	.LVL37:
 514              	.L26:
 515              	.LBB51:
 353:../../../FreeRTOS/Source/event_groups.c **** 		{
 516              		.loc 1 353 8 is_stmt 1 view .LVU156
 353:../../../FreeRTOS/Source/event_groups.c **** 		{
ARM GAS  C:\Users\Jim_YW\AppData\Local\Temp\ccsaULLo.s 			page 28


 517              		.loc 1 353 10 is_stmt 0 view .LVU157
 518 00ba 089B     		ldr	r3, [sp, #32]
 519 00bc 83B1     		cbz	r3, .L34
 366:../../../FreeRTOS/Source/event_groups.c **** 			{
 520              		.loc 1 366 4 is_stmt 1 view .LVU158
 366:../../../FreeRTOS/Source/event_groups.c **** 			{
 521              		.loc 1 366 6 is_stmt 0 view .LVU159
 522 00be 66B9     		cbnz	r6, .L35
 523              	.LBE51:
 314:../../../FreeRTOS/Source/event_groups.c **** BaseType_t xWaitConditionMet, xAlreadyYielded;
 524              		.loc 1 314 23 view .LVU160
 525 00c0 4146     		mov	r1, r8
 526              	.L28:
 527              	.LVL38:
 528              	.LBB52:
 372:../../../FreeRTOS/Source/event_groups.c **** 			}
 529              		.loc 1 372 29 is_stmt 1 view .LVU161
 375:../../../FreeRTOS/Source/event_groups.c **** 			{
 530              		.loc 1 375 4 view .LVU162
 375:../../../FreeRTOS/Source/event_groups.c **** 			{
 531              		.loc 1 375 6 is_stmt 0 view .LVU163
 532 00c2 0DB1     		cbz	r5, .L29
 377:../../../FreeRTOS/Source/event_groups.c **** 			}
 533              		.loc 1 377 5 is_stmt 1 view .LVU164
 377:../../../FreeRTOS/Source/event_groups.c **** 			}
 534              		.loc 1 377 19 is_stmt 0 view .LVU165
 535 00c4 41F08061 		orr	r1, r1, #67108864
 536              	.LVL39:
 537              	.L29:
 381:../../../FreeRTOS/Source/event_groups.c **** 			}
 538              		.loc 1 381 29 is_stmt 1 view .LVU166
 387:../../../FreeRTOS/Source/event_groups.c **** 
 539              		.loc 1 387 4 view .LVU167
 540 00c8 089A     		ldr	r2, [sp, #32]
 541 00ca 2143     		orrs	r1, r1, r4
 542              	.LVL40:
 387:../../../FreeRTOS/Source/event_groups.c **** 
 543              		.loc 1 387 4 is_stmt 0 view .LVU168
 544 00cc 381D     		adds	r0, r7, #4
 545              	.LVL41:
 387:../../../FreeRTOS/Source/event_groups.c **** 
 546              		.loc 1 387 4 view .LVU169
 547 00ce FFF7FEFF 		bl	vTaskPlaceOnUnorderedEventList
 548              	.LVL42:
 392:../../../FreeRTOS/Source/event_groups.c **** 
 549              		.loc 1 392 4 is_stmt 1 view .LVU170
 392:../../../FreeRTOS/Source/event_groups.c **** 
 550              		.loc 1 392 13 is_stmt 0 view .LVU171
 551 00d2 C146     		mov	r9, r8
 552              	.LVL43:
 387:../../../FreeRTOS/Source/event_groups.c **** 
 553              		.loc 1 387 4 view .LVU172
 554 00d4 DDF82080 		ldr	r8, [sp, #32]
 555 00d8 D4E7     		b	.L27
 556              	.LVL44:
 557              	.L35:
 368:../../../FreeRTOS/Source/event_groups.c **** 			}
ARM GAS  C:\Users\Jim_YW\AppData\Local\Temp\ccsaULLo.s 			page 29


 558              		.loc 1 368 19 view .LVU173
 559 00da 4FF08071 		mov	r1, #16777216
 560 00de F0E7     		b	.L28
 561              	.L34:
 562 00e0 DDF82080 		ldr	r8, [sp, #32]
 563 00e4 CEE7     		b	.L27
 564              	.LVL45:
 565              	.L38:
 368:../../../FreeRTOS/Source/event_groups.c **** 			}
 566              		.loc 1 368 19 view .LVU174
 567              	.LBE52:
 418:../../../FreeRTOS/Source/event_groups.c **** 			{
 568              		.loc 1 418 4 is_stmt 1 view .LVU175
 569 00e6 FFF7FEFF 		bl	vPortEnterCritical
 570              	.LVL46:
 421:../../../FreeRTOS/Source/event_groups.c **** 
 571              		.loc 1 421 5 view .LVU176
 421:../../../FreeRTOS/Source/event_groups.c **** 
 572              		.loc 1 421 14 is_stmt 0 view .LVU177
 573 00ea D7F80090 		ldr	r9, [r7]
 574              	.LVL47:
 425:../../../FreeRTOS/Source/event_groups.c **** 				{
 575              		.loc 1 425 5 is_stmt 1 view .LVU178
 425:../../../FreeRTOS/Source/event_groups.c **** 				{
 576              		.loc 1 425 9 is_stmt 0 view .LVU179
 577 00ee 2A46     		mov	r2, r5
 578 00f0 2146     		mov	r1, r4
 579 00f2 4846     		mov	r0, r9
 580 00f4 FFF7FEFF 		bl	prvTestWaitCondition
 581              	.LVL48:
 425:../../../FreeRTOS/Source/event_groups.c **** 				{
 582              		.loc 1 425 7 view .LVU180
 583 00f8 18B1     		cbz	r0, .L33
 427:../../../FreeRTOS/Source/event_groups.c **** 					{
 584              		.loc 1 427 6 is_stmt 1 view .LVU181
 427:../../../FreeRTOS/Source/event_groups.c **** 					{
 585              		.loc 1 427 8 is_stmt 0 view .LVU182
 586 00fa 16B1     		cbz	r6, .L33
 429:../../../FreeRTOS/Source/event_groups.c **** 					}
 587              		.loc 1 429 7 is_stmt 1 view .LVU183
 429:../../../FreeRTOS/Source/event_groups.c **** 					}
 588              		.loc 1 429 32 is_stmt 0 view .LVU184
 589 00fc 29EA0404 		bic	r4, r9, r4
 590              	.LVL49:
 429:../../../FreeRTOS/Source/event_groups.c **** 					}
 591              		.loc 1 429 32 view .LVU185
 592 0100 3C60     		str	r4, [r7]
 593              	.L33:
 438:../../../FreeRTOS/Source/event_groups.c **** 				}
 594              		.loc 1 438 30 is_stmt 1 view .LVU186
 440:../../../FreeRTOS/Source/event_groups.c **** 			}
 595              		.loc 1 440 5 view .LVU187
 596              	.LVL50:
 442:../../../FreeRTOS/Source/event_groups.c **** 		}
 597              		.loc 1 442 4 view .LVU188
 598 0102 FFF7FEFF 		bl	vPortExitCritical
 599              	.LVL51:
ARM GAS  C:\Users\Jim_YW\AppData\Local\Temp\ccsaULLo.s 			page 30


 600 0106 D3E7     		b	.L32
 601              		.cfi_endproc
 602              	.LFE7:
 604              		.section	.text.xEventGroupClearBits,"ax",%progbits
 605              		.align	1
 606              		.global	xEventGroupClearBits
 607              		.syntax unified
 608              		.thumb
 609              		.thumb_func
 611              	xEventGroupClearBits:
 612              	.LVL52:
 613              	.LFB8:
 462:../../../FreeRTOS/Source/event_groups.c **** EventGroup_t *pxEventBits = xEventGroup;
 614              		.loc 1 462 1 view -0
 615              		.cfi_startproc
 616              		@ args = 0, pretend = 0, frame = 0
 617              		@ frame_needed = 0, uses_anonymous_args = 0
 463:../../../FreeRTOS/Source/event_groups.c **** EventBits_t uxReturn;
 618              		.loc 1 463 1 view .LVU190
 464:../../../FreeRTOS/Source/event_groups.c **** 
 619              		.loc 1 464 1 view .LVU191
 468:../../../FreeRTOS/Source/event_groups.c **** 	configASSERT( ( uxBitsToClear & eventEVENT_BITS_CONTROL_BYTES ) == 0 );
 620              		.loc 1 468 2 view .LVU192
 621 0000 70B1     		cbz	r0, .L46
 462:../../../FreeRTOS/Source/event_groups.c **** EventGroup_t *pxEventBits = xEventGroup;
 622              		.loc 1 462 1 is_stmt 0 discriminator 2 view .LVU193
 623 0002 70B5     		push	{r4, r5, r6, lr}
 624              	.LCFI7:
 625              		.cfi_def_cfa_offset 16
 626              		.cfi_offset 4, -16
 627              		.cfi_offset 5, -12
 628              		.cfi_offset 6, -8
 629              		.cfi_offset 14, -4
 630 0004 0C46     		mov	r4, r1
 631 0006 0546     		mov	r5, r0
 468:../../../FreeRTOS/Source/event_groups.c **** 	configASSERT( ( uxBitsToClear & eventEVENT_BITS_CONTROL_BYTES ) == 0 );
 632              		.loc 1 468 29 is_stmt 1 discriminator 2 view .LVU194
 469:../../../FreeRTOS/Source/event_groups.c **** 
 633              		.loc 1 469 2 discriminator 2 view .LVU195
 634 0008 11F07F4F 		tst	r1, #-16777216
 635 000c 11D0     		beq	.L42
 469:../../../FreeRTOS/Source/event_groups.c **** 
 636              		.loc 1 469 2 view .LVU196
 637              	.LBB53:
 638              	.LBI53:
 191:../../../FreeRTOS/Source/portable/GCC/ARM_CM4F/portmacro.h **** {
 639              		.loc 2 191 30 view .LVU197
 640              	.LBB54:
 193:../../../FreeRTOS/Source/portable/GCC/ARM_CM4F/portmacro.h **** 
 641              		.loc 2 193 1 view .LVU198
 642              		.loc 2 195 2 view .LVU199
 643              		.syntax unified
 644              	@ 195 "../../../FreeRTOS/Source/portable/GCC/ARM_CM4F/portmacro.h" 1
 645 000e 4FF05003 			mov r3, #80												
 646 0012 83F31188 		msr basepri, r3											
 647 0016 BFF36F8F 		isb														
 648 001a BFF34F8F 		dsb														
ARM GAS  C:\Users\Jim_YW\AppData\Local\Temp\ccsaULLo.s 			page 31


 649              	
 650              	@ 0 "" 2
 651              	.LVL53:
 652              		.thumb
 653              		.syntax unified
 654              	.L43:
 655              		.loc 2 195 2 is_stmt 0 view .LVU200
 656              	.LBE54:
 657              	.LBE53:
 469:../../../FreeRTOS/Source/event_groups.c **** 
 658              		.loc 1 469 2 is_stmt 1 discriminator 2 view .LVU201
 469:../../../FreeRTOS/Source/event_groups.c **** 
 659              		.loc 1 469 2 discriminator 2 view .LVU202
 469:../../../FreeRTOS/Source/event_groups.c **** 
 660              		.loc 1 469 2 discriminator 2 view .LVU203
 661 001e FEE7     		b	.L43
 662              	.L46:
 663              	.LCFI8:
 664              		.cfi_def_cfa_offset 0
 665              		.cfi_restore 4
 666              		.cfi_restore 5
 667              		.cfi_restore 6
 668              		.cfi_restore 14
 468:../../../FreeRTOS/Source/event_groups.c **** 	configASSERT( ( uxBitsToClear & eventEVENT_BITS_CONTROL_BYTES ) == 0 );
 669              		.loc 1 468 2 view .LVU204
 670              	.LBB55:
 671              	.LBI55:
 191:../../../FreeRTOS/Source/portable/GCC/ARM_CM4F/portmacro.h **** {
 672              		.loc 2 191 30 view .LVU205
 673              	.LBB56:
 193:../../../FreeRTOS/Source/portable/GCC/ARM_CM4F/portmacro.h **** 
 674              		.loc 2 193 1 view .LVU206
 675              		.loc 2 195 2 view .LVU207
 676              		.syntax unified
 677              	@ 195 "../../../FreeRTOS/Source/portable/GCC/ARM_CM4F/portmacro.h" 1
 678 0020 4FF05003 			mov r3, #80												
 679 0024 83F31188 		msr basepri, r3											
 680 0028 BFF36F8F 		isb														
 681 002c BFF34F8F 		dsb														
 682              	
 683              	@ 0 "" 2
 684              	.LVL54:
 685              		.thumb
 686              		.syntax unified
 687              	.L41:
 688              		.loc 2 195 2 is_stmt 0 view .LVU208
 689              	.LBE56:
 690              	.LBE55:
 468:../../../FreeRTOS/Source/event_groups.c **** 	configASSERT( ( uxBitsToClear & eventEVENT_BITS_CONTROL_BYTES ) == 0 );
 691              		.loc 1 468 2 is_stmt 1 discriminator 1 view .LVU209
 468:../../../FreeRTOS/Source/event_groups.c **** 	configASSERT( ( uxBitsToClear & eventEVENT_BITS_CONTROL_BYTES ) == 0 );
 692              		.loc 1 468 2 discriminator 1 view .LVU210
 468:../../../FreeRTOS/Source/event_groups.c **** 	configASSERT( ( uxBitsToClear & eventEVENT_BITS_CONTROL_BYTES ) == 0 );
 693              		.loc 1 468 2 discriminator 1 view .LVU211
 694 0030 FEE7     		b	.L41
 695              	.L42:
 696              	.LCFI9:
ARM GAS  C:\Users\Jim_YW\AppData\Local\Temp\ccsaULLo.s 			page 32


 697              		.cfi_def_cfa_offset 16
 698              		.cfi_offset 4, -16
 699              		.cfi_offset 5, -12
 700              		.cfi_offset 6, -8
 701              		.cfi_offset 14, -4
 469:../../../FreeRTOS/Source/event_groups.c **** 
 702              		.loc 1 469 72 discriminator 2 view .LVU212
 471:../../../FreeRTOS/Source/event_groups.c **** 	{
 703              		.loc 1 471 2 discriminator 2 view .LVU213
 704 0032 FFF7FEFF 		bl	vPortEnterCritical
 705              	.LVL55:
 473:../../../FreeRTOS/Source/event_groups.c **** 
 706              		.loc 1 473 60 discriminator 2 view .LVU214
 477:../../../FreeRTOS/Source/event_groups.c **** 
 707              		.loc 1 477 3 discriminator 2 view .LVU215
 477:../../../FreeRTOS/Source/event_groups.c **** 
 708              		.loc 1 477 12 is_stmt 0 discriminator 2 view .LVU216
 709 0036 2E68     		ldr	r6, [r5]
 710              	.LVL56:
 480:../../../FreeRTOS/Source/event_groups.c **** 	}
 711              		.loc 1 480 3 is_stmt 1 discriminator 2 view .LVU217
 480:../../../FreeRTOS/Source/event_groups.c **** 	}
 712              		.loc 1 480 28 is_stmt 0 discriminator 2 view .LVU218
 713 0038 26EA0404 		bic	r4, r6, r4
 714              	.LVL57:
 480:../../../FreeRTOS/Source/event_groups.c **** 	}
 715              		.loc 1 480 28 discriminator 2 view .LVU219
 716 003c 2C60     		str	r4, [r5]
 482:../../../FreeRTOS/Source/event_groups.c **** 
 717              		.loc 1 482 2 is_stmt 1 discriminator 2 view .LVU220
 718 003e FFF7FEFF 		bl	vPortExitCritical
 719              	.LVL58:
 484:../../../FreeRTOS/Source/event_groups.c **** }
 720              		.loc 1 484 2 discriminator 2 view .LVU221
 485:../../../FreeRTOS/Source/event_groups.c **** /*-----------------------------------------------------------*/
 721              		.loc 1 485 1 is_stmt 0 discriminator 2 view .LVU222
 722 0042 3046     		mov	r0, r6
 723 0044 70BD     		pop	{r4, r5, r6, pc}
 485:../../../FreeRTOS/Source/event_groups.c **** /*-----------------------------------------------------------*/
 724              		.loc 1 485 1 discriminator 2 view .LVU223
 725              		.cfi_endproc
 726              	.LFE8:
 728              		.section	.text.vEventGroupClearBitsCallback,"ax",%progbits
 729              		.align	1
 730              		.global	vEventGroupClearBitsCallback
 731              		.syntax unified
 732              		.thumb
 733              		.thumb_func
 735              	vEventGroupClearBitsCallback:
 736              	.LVL59:
 737              	.LFB14:
 666:../../../FreeRTOS/Source/event_groups.c **** 	( void ) xEventGroupClearBits( pvEventGroup, ( EventBits_t ) ulBitsToClear ); /*lint !e9079 Can't 
 738              		.loc 1 666 1 is_stmt 1 view -0
 739              		.cfi_startproc
 740              		@ args = 0, pretend = 0, frame = 0
 741              		@ frame_needed = 0, uses_anonymous_args = 0
 666:../../../FreeRTOS/Source/event_groups.c **** 	( void ) xEventGroupClearBits( pvEventGroup, ( EventBits_t ) ulBitsToClear ); /*lint !e9079 Can't 
ARM GAS  C:\Users\Jim_YW\AppData\Local\Temp\ccsaULLo.s 			page 33


 742              		.loc 1 666 1 is_stmt 0 view .LVU225
 743 0000 08B5     		push	{r3, lr}
 744              	.LCFI10:
 745              		.cfi_def_cfa_offset 8
 746              		.cfi_offset 3, -8
 747              		.cfi_offset 14, -4
 667:../../../FreeRTOS/Source/event_groups.c **** }
 748              		.loc 1 667 2 is_stmt 1 view .LVU226
 667:../../../FreeRTOS/Source/event_groups.c **** }
 749              		.loc 1 667 11 is_stmt 0 view .LVU227
 750 0002 FFF7FEFF 		bl	xEventGroupClearBits
 751              	.LVL60:
 668:../../../FreeRTOS/Source/event_groups.c **** /*-----------------------------------------------------------*/
 752              		.loc 1 668 1 view .LVU228
 753 0006 08BD     		pop	{r3, pc}
 754              		.cfi_endproc
 755              	.LFE14:
 757              		.section	.text.xEventGroupClearBitsFromISR,"ax",%progbits
 758              		.align	1
 759              		.global	xEventGroupClearBitsFromISR
 760              		.syntax unified
 761              		.thumb
 762              		.thumb_func
 764              	xEventGroupClearBitsFromISR:
 765              	.LVL61:
 766              	.LFB9:
 491:../../../FreeRTOS/Source/event_groups.c **** 		BaseType_t xReturn;
 767              		.loc 1 491 2 is_stmt 1 view -0
 768              		.cfi_startproc
 769              		@ args = 0, pretend = 0, frame = 0
 770              		@ frame_needed = 0, uses_anonymous_args = 0
 491:../../../FreeRTOS/Source/event_groups.c **** 		BaseType_t xReturn;
 771              		.loc 1 491 2 is_stmt 0 view .LVU230
 772 0000 08B5     		push	{r3, lr}
 773              	.LCFI11:
 774              		.cfi_def_cfa_offset 8
 775              		.cfi_offset 3, -8
 776              		.cfi_offset 14, -4
 777 0002 0A46     		mov	r2, r1
 492:../../../FreeRTOS/Source/event_groups.c **** 
 778              		.loc 1 492 3 is_stmt 1 view .LVU231
 494:../../../FreeRTOS/Source/event_groups.c **** 		xReturn = xTimerPendFunctionCallFromISR( vEventGroupClearBitsCallback, ( void * ) xEventGroup, ( 
 779              		.loc 1 494 69 view .LVU232
 495:../../../FreeRTOS/Source/event_groups.c **** 
 780              		.loc 1 495 3 view .LVU233
 495:../../../FreeRTOS/Source/event_groups.c **** 
 781              		.loc 1 495 13 is_stmt 0 view .LVU234
 782 0004 0023     		movs	r3, #0
 783 0006 0146     		mov	r1, r0
 784              	.LVL62:
 495:../../../FreeRTOS/Source/event_groups.c **** 
 785              		.loc 1 495 13 view .LVU235
 786 0008 0148     		ldr	r0, .L51
 787              	.LVL63:
 495:../../../FreeRTOS/Source/event_groups.c **** 
 788              		.loc 1 495 13 view .LVU236
 789 000a FFF7FEFF 		bl	xTimerPendFunctionCallFromISR
ARM GAS  C:\Users\Jim_YW\AppData\Local\Temp\ccsaULLo.s 			page 34


 790              	.LVL64:
 497:../../../FreeRTOS/Source/event_groups.c **** 	}
 791              		.loc 1 497 3 is_stmt 1 view .LVU237
 498:../../../FreeRTOS/Source/event_groups.c **** 
 792              		.loc 1 498 2 is_stmt 0 view .LVU238
 793 000e 08BD     		pop	{r3, pc}
 794              	.L52:
 795              		.align	2
 796              	.L51:
 797 0010 00000000 		.word	vEventGroupClearBitsCallback
 798              		.cfi_endproc
 799              	.LFE9:
 801              		.section	.text.xEventGroupGetBitsFromISR,"ax",%progbits
 802              		.align	1
 803              		.global	xEventGroupGetBitsFromISR
 804              		.syntax unified
 805              		.thumb
 806              		.thumb_func
 808              	xEventGroupGetBitsFromISR:
 809              	.LVL65:
 810              	.LFB10:
 504:../../../FreeRTOS/Source/event_groups.c **** UBaseType_t uxSavedInterruptStatus;
 811              		.loc 1 504 1 is_stmt 1 view -0
 812              		.cfi_startproc
 813              		@ args = 0, pretend = 0, frame = 0
 814              		@ frame_needed = 0, uses_anonymous_args = 0
 815              		@ link register save eliminated.
 505:../../../FreeRTOS/Source/event_groups.c **** EventGroup_t const * const pxEventBits = xEventGroup;
 816              		.loc 1 505 1 view .LVU240
 506:../../../FreeRTOS/Source/event_groups.c **** EventBits_t uxReturn;
 817              		.loc 1 506 1 view .LVU241
 507:../../../FreeRTOS/Source/event_groups.c **** 
 818              		.loc 1 507 1 view .LVU242
 509:../../../FreeRTOS/Source/event_groups.c **** 	{
 819              		.loc 1 509 2 view .LVU243
 820              	.LBB57:
 821              	.LBI57:
 196:../../../FreeRTOS/Source/portable/GCC/ARM_CM4F/portmacro.h **** 	(
 197:../../../FreeRTOS/Source/portable/GCC/ARM_CM4F/portmacro.h **** 		"	mov %0, %1												\n"	\
 198:../../../FreeRTOS/Source/portable/GCC/ARM_CM4F/portmacro.h **** 		"	msr basepri, %0											\n" \
 199:../../../FreeRTOS/Source/portable/GCC/ARM_CM4F/portmacro.h **** 		"	isb														\n" \
 200:../../../FreeRTOS/Source/portable/GCC/ARM_CM4F/portmacro.h **** 		"	dsb														\n" \
 201:../../../FreeRTOS/Source/portable/GCC/ARM_CM4F/portmacro.h **** 		:"=r" (ulNewBASEPRI) : "i" ( configMAX_SYSCALL_INTERRUPT_PRIORITY ) : "memory"
 202:../../../FreeRTOS/Source/portable/GCC/ARM_CM4F/portmacro.h **** 	);
 203:../../../FreeRTOS/Source/portable/GCC/ARM_CM4F/portmacro.h **** }
 204:../../../FreeRTOS/Source/portable/GCC/ARM_CM4F/portmacro.h **** 
 205:../../../FreeRTOS/Source/portable/GCC/ARM_CM4F/portmacro.h **** /*-----------------------------------------------------------*/
 206:../../../FreeRTOS/Source/portable/GCC/ARM_CM4F/portmacro.h **** 
 207:../../../FreeRTOS/Source/portable/GCC/ARM_CM4F/portmacro.h **** portFORCE_INLINE static uint32_t ulPortRaiseBASEPRI( void )
 822              		.loc 2 207 34 view .LVU244
 823              	.LBB58:
 208:../../../FreeRTOS/Source/portable/GCC/ARM_CM4F/portmacro.h **** {
 209:../../../FreeRTOS/Source/portable/GCC/ARM_CM4F/portmacro.h **** uint32_t ulOriginalBASEPRI, ulNewBASEPRI;
 824              		.loc 2 209 1 view .LVU245
 210:../../../FreeRTOS/Source/portable/GCC/ARM_CM4F/portmacro.h **** 
 211:../../../FreeRTOS/Source/portable/GCC/ARM_CM4F/portmacro.h **** 	__asm volatile
 825              		.loc 2 211 2 view .LVU246
ARM GAS  C:\Users\Jim_YW\AppData\Local\Temp\ccsaULLo.s 			page 35


 826              		.syntax unified
 827              	@ 211 "../../../FreeRTOS/Source/portable/GCC/ARM_CM4F/portmacro.h" 1
 828 0000 EFF31183 			mrs r3, basepri											
 829 0004 4FF05002 		mov r2, #80												
 830 0008 82F31188 		msr basepri, r2											
 831 000c BFF36F8F 		isb														
 832 0010 BFF34F8F 		dsb														
 833              	
 834              	@ 0 "" 2
 835              	.LVL66:
 212:../../../FreeRTOS/Source/portable/GCC/ARM_CM4F/portmacro.h **** 	(
 213:../../../FreeRTOS/Source/portable/GCC/ARM_CM4F/portmacro.h **** 		"	mrs %0, basepri											\n" \
 214:../../../FreeRTOS/Source/portable/GCC/ARM_CM4F/portmacro.h **** 		"	mov %1, %2												\n"	\
 215:../../../FreeRTOS/Source/portable/GCC/ARM_CM4F/portmacro.h **** 		"	msr basepri, %1											\n" \
 216:../../../FreeRTOS/Source/portable/GCC/ARM_CM4F/portmacro.h **** 		"	isb														\n" \
 217:../../../FreeRTOS/Source/portable/GCC/ARM_CM4F/portmacro.h **** 		"	dsb														\n" \
 218:../../../FreeRTOS/Source/portable/GCC/ARM_CM4F/portmacro.h **** 		:"=r" (ulOriginalBASEPRI), "=r" (ulNewBASEPRI) : "i" ( configMAX_SYSCALL_INTERRUPT_PRIORITY ) : "
 219:../../../FreeRTOS/Source/portable/GCC/ARM_CM4F/portmacro.h **** 	);
 220:../../../FreeRTOS/Source/portable/GCC/ARM_CM4F/portmacro.h **** 
 221:../../../FreeRTOS/Source/portable/GCC/ARM_CM4F/portmacro.h **** 	/* This return will not be reached but is necessary to prevent compiler
 222:../../../FreeRTOS/Source/portable/GCC/ARM_CM4F/portmacro.h **** 	warnings. */
 223:../../../FreeRTOS/Source/portable/GCC/ARM_CM4F/portmacro.h **** 	return ulOriginalBASEPRI;
 836              		.loc 2 223 2 view .LVU247
 837              		.loc 2 223 2 is_stmt 0 view .LVU248
 838              		.thumb
 839              		.syntax unified
 840              	.LBE58:
 841              	.LBE57:
 511:../../../FreeRTOS/Source/event_groups.c **** 	}
 842              		.loc 1 511 3 is_stmt 1 view .LVU249
 511:../../../FreeRTOS/Source/event_groups.c **** 	}
 843              		.loc 1 511 12 is_stmt 0 view .LVU250
 844 0014 0068     		ldr	r0, [r0]
 845              	.LVL67:
 513:../../../FreeRTOS/Source/event_groups.c **** 
 846              		.loc 1 513 2 is_stmt 1 view .LVU251
 847              	.LBB59:
 848              	.LBI59:
 224:../../../FreeRTOS/Source/portable/GCC/ARM_CM4F/portmacro.h **** }
 225:../../../FreeRTOS/Source/portable/GCC/ARM_CM4F/portmacro.h **** /*-----------------------------------------------------------*/
 226:../../../FreeRTOS/Source/portable/GCC/ARM_CM4F/portmacro.h **** 
 227:../../../FreeRTOS/Source/portable/GCC/ARM_CM4F/portmacro.h **** portFORCE_INLINE static void vPortSetBASEPRI( uint32_t ulNewMaskValue )
 849              		.loc 2 227 30 view .LVU252
 850              	.LBB60:
 228:../../../FreeRTOS/Source/portable/GCC/ARM_CM4F/portmacro.h **** {
 229:../../../FreeRTOS/Source/portable/GCC/ARM_CM4F/portmacro.h **** 	__asm volatile
 851              		.loc 2 229 2 view .LVU253
 852              		.syntax unified
 853              	@ 229 "../../../FreeRTOS/Source/portable/GCC/ARM_CM4F/portmacro.h" 1
 854 0016 83F31188 			msr basepri, r3	
 855              	@ 0 "" 2
 856              	.LVL68:
 857              		.loc 2 229 2 is_stmt 0 view .LVU254
 858              		.thumb
 859              		.syntax unified
 860              	.LBE60:
 861              	.LBE59:
ARM GAS  C:\Users\Jim_YW\AppData\Local\Temp\ccsaULLo.s 			page 36


 515:../../../FreeRTOS/Source/event_groups.c **** } /*lint !e818 EventGroupHandle_t is a typedef used in other functions to so can't be pointer to co
 862              		.loc 1 515 2 is_stmt 1 view .LVU255
 516:../../../FreeRTOS/Source/event_groups.c **** /*-----------------------------------------------------------*/
 863              		.loc 1 516 1 is_stmt 0 view .LVU256
 864 001a 7047     		bx	lr
 865              		.cfi_endproc
 866              	.LFE10:
 868              		.section	.text.xEventGroupSetBits,"ax",%progbits
 869              		.align	1
 870              		.global	xEventGroupSetBits
 871              		.syntax unified
 872              		.thumb
 873              		.thumb_func
 875              	xEventGroupSetBits:
 876              	.LVL69:
 877              	.LFB11:
 520:../../../FreeRTOS/Source/event_groups.c **** ListItem_t *pxListItem, *pxNext;
 878              		.loc 1 520 1 is_stmt 1 view -0
 879              		.cfi_startproc
 880              		@ args = 0, pretend = 0, frame = 0
 881              		@ frame_needed = 0, uses_anonymous_args = 0
 520:../../../FreeRTOS/Source/event_groups.c **** ListItem_t *pxListItem, *pxNext;
 882              		.loc 1 520 1 is_stmt 0 view .LVU258
 883 0000 F8B5     		push	{r3, r4, r5, r6, r7, lr}
 884              	.LCFI12:
 885              		.cfi_def_cfa_offset 24
 886              		.cfi_offset 3, -24
 887              		.cfi_offset 4, -20
 888              		.cfi_offset 5, -16
 889              		.cfi_offset 6, -12
 890              		.cfi_offset 7, -8
 891              		.cfi_offset 14, -4
 521:../../../FreeRTOS/Source/event_groups.c **** ListItem_t const *pxListEnd;
 892              		.loc 1 521 1 is_stmt 1 view .LVU259
 522:../../../FreeRTOS/Source/event_groups.c **** List_t const * pxList;
 893              		.loc 1 522 1 view .LVU260
 523:../../../FreeRTOS/Source/event_groups.c **** EventBits_t uxBitsToClear = 0, uxBitsWaitedFor, uxControlBits;
 894              		.loc 1 523 1 view .LVU261
 524:../../../FreeRTOS/Source/event_groups.c **** EventGroup_t *pxEventBits = xEventGroup;
 895              		.loc 1 524 1 view .LVU262
 896              	.LVL70:
 525:../../../FreeRTOS/Source/event_groups.c **** BaseType_t xMatchFound = pdFALSE;
 897              		.loc 1 525 1 view .LVU263
 526:../../../FreeRTOS/Source/event_groups.c **** 
 898              		.loc 1 526 1 view .LVU264
 530:../../../FreeRTOS/Source/event_groups.c **** 	configASSERT( ( uxBitsToSet & eventEVENT_BITS_CONTROL_BYTES ) == 0 );
 899              		.loc 1 530 2 view .LVU265
 900 0002 68B1     		cbz	r0, .L66
 901 0004 0D46     		mov	r5, r1
 902 0006 0446     		mov	r4, r0
 530:../../../FreeRTOS/Source/event_groups.c **** 	configASSERT( ( uxBitsToSet & eventEVENT_BITS_CONTROL_BYTES ) == 0 );
 903              		.loc 1 530 29 discriminator 2 view .LVU266
 531:../../../FreeRTOS/Source/event_groups.c **** 
 904              		.loc 1 531 2 discriminator 2 view .LVU267
 905 0008 11F07F47 		ands	r7, r1, #-16777216
 906 000c 11D0     		beq	.L57
 531:../../../FreeRTOS/Source/event_groups.c **** 
ARM GAS  C:\Users\Jim_YW\AppData\Local\Temp\ccsaULLo.s 			page 37


 907              		.loc 1 531 2 view .LVU268
 908              	.LBB61:
 909              	.LBI61:
 191:../../../FreeRTOS/Source/portable/GCC/ARM_CM4F/portmacro.h **** {
 910              		.loc 2 191 30 view .LVU269
 911              	.LBB62:
 193:../../../FreeRTOS/Source/portable/GCC/ARM_CM4F/portmacro.h **** 
 912              		.loc 2 193 1 view .LVU270
 195:../../../FreeRTOS/Source/portable/GCC/ARM_CM4F/portmacro.h **** 	(
 913              		.loc 2 195 2 view .LVU271
 914              		.syntax unified
 915              	@ 195 "../../../FreeRTOS/Source/portable/GCC/ARM_CM4F/portmacro.h" 1
 916 000e 4FF05003 			mov r3, #80												
 917 0012 83F31188 		msr basepri, r3											
 918 0016 BFF36F8F 		isb														
 919 001a BFF34F8F 		dsb														
 920              	
 921              	@ 0 "" 2
 922              	.LVL71:
 923              		.thumb
 924              		.syntax unified
 925              	.L58:
 195:../../../FreeRTOS/Source/portable/GCC/ARM_CM4F/portmacro.h **** 	(
 926              		.loc 2 195 2 is_stmt 0 view .LVU272
 927              	.LBE62:
 928              	.LBE61:
 531:../../../FreeRTOS/Source/event_groups.c **** 
 929              		.loc 1 531 2 is_stmt 1 discriminator 2 view .LVU273
 531:../../../FreeRTOS/Source/event_groups.c **** 
 930              		.loc 1 531 2 discriminator 2 view .LVU274
 531:../../../FreeRTOS/Source/event_groups.c **** 
 931              		.loc 1 531 2 discriminator 2 view .LVU275
 932 001e FEE7     		b	.L58
 933              	.L66:
 530:../../../FreeRTOS/Source/event_groups.c **** 	configASSERT( ( uxBitsToSet & eventEVENT_BITS_CONTROL_BYTES ) == 0 );
 934              		.loc 1 530 2 view .LVU276
 935              	.LBB63:
 936              	.LBI63:
 191:../../../FreeRTOS/Source/portable/GCC/ARM_CM4F/portmacro.h **** {
 937              		.loc 2 191 30 view .LVU277
 938              	.LBB64:
 193:../../../FreeRTOS/Source/portable/GCC/ARM_CM4F/portmacro.h **** 
 939              		.loc 2 193 1 view .LVU278
 195:../../../FreeRTOS/Source/portable/GCC/ARM_CM4F/portmacro.h **** 	(
 940              		.loc 2 195 2 view .LVU279
 941              		.syntax unified
 942              	@ 195 "../../../FreeRTOS/Source/portable/GCC/ARM_CM4F/portmacro.h" 1
 943 0020 4FF05003 			mov r3, #80												
 944 0024 83F31188 		msr basepri, r3											
 945 0028 BFF36F8F 		isb														
 946 002c BFF34F8F 		dsb														
 947              	
 948              	@ 0 "" 2
 949              	.LVL72:
 950              		.thumb
 951              		.syntax unified
 952              	.L56:
ARM GAS  C:\Users\Jim_YW\AppData\Local\Temp\ccsaULLo.s 			page 38


 195:../../../FreeRTOS/Source/portable/GCC/ARM_CM4F/portmacro.h **** 	(
 953              		.loc 2 195 2 is_stmt 0 view .LVU280
 954              	.LBE64:
 955              	.LBE63:
 530:../../../FreeRTOS/Source/event_groups.c **** 	configASSERT( ( uxBitsToSet & eventEVENT_BITS_CONTROL_BYTES ) == 0 );
 956              		.loc 1 530 2 is_stmt 1 discriminator 1 view .LVU281
 530:../../../FreeRTOS/Source/event_groups.c **** 	configASSERT( ( uxBitsToSet & eventEVENT_BITS_CONTROL_BYTES ) == 0 );
 957              		.loc 1 530 2 discriminator 1 view .LVU282
 530:../../../FreeRTOS/Source/event_groups.c **** 	configASSERT( ( uxBitsToSet & eventEVENT_BITS_CONTROL_BYTES ) == 0 );
 958              		.loc 1 530 2 discriminator 1 view .LVU283
 959 0030 FEE7     		b	.L56
 960              	.L57:
 531:../../../FreeRTOS/Source/event_groups.c **** 
 961              		.loc 1 531 70 discriminator 2 view .LVU284
 533:../../../FreeRTOS/Source/event_groups.c **** 	pxListEnd = listGET_END_MARKER( pxList ); /*lint !e826 !e740 !e9087 The mini list structure is use
 962              		.loc 1 533 2 discriminator 2 view .LVU285
 963              	.LVL73:
 534:../../../FreeRTOS/Source/event_groups.c **** 	vTaskSuspendAll();
 964              		.loc 1 534 2 discriminator 2 view .LVU286
 534:../../../FreeRTOS/Source/event_groups.c **** 	vTaskSuspendAll();
 965              		.loc 1 534 12 is_stmt 0 discriminator 2 view .LVU287
 966 0032 00F10C06 		add	r6, r0, #12
 967              	.LVL74:
 535:../../../FreeRTOS/Source/event_groups.c **** 	{
 968              		.loc 1 535 2 is_stmt 1 discriminator 2 view .LVU288
 969 0036 FFF7FEFF 		bl	vTaskSuspendAll
 970              	.LVL75:
 537:../../../FreeRTOS/Source/event_groups.c **** 
 971              		.loc 1 537 56 discriminator 2 view .LVU289
 539:../../../FreeRTOS/Source/event_groups.c **** 
 972              		.loc 1 539 3 discriminator 2 view .LVU290
 539:../../../FreeRTOS/Source/event_groups.c **** 
 973              		.loc 1 539 14 is_stmt 0 discriminator 2 view .LVU291
 974 003a 2069     		ldr	r0, [r4, #16]
 975              	.LVL76:
 542:../../../FreeRTOS/Source/event_groups.c **** 
 976              		.loc 1 542 3 is_stmt 1 discriminator 2 view .LVU292
 542:../../../FreeRTOS/Source/event_groups.c **** 
 977              		.loc 1 542 28 is_stmt 0 discriminator 2 view .LVU293
 978 003c 2368     		ldr	r3, [r4]
 979 003e 2B43     		orrs	r3, r3, r5
 980 0040 2360     		str	r3, [r4]
 545:../../../FreeRTOS/Source/event_groups.c **** 		{
 981              		.loc 1 545 3 is_stmt 1 discriminator 2 view .LVU294
 545:../../../FreeRTOS/Source/event_groups.c **** 		{
 982              		.loc 1 545 8 is_stmt 0 discriminator 2 view .LVU295
 983 0042 0AE0     		b	.L59
 984              	.LVL77:
 985              	.L60:
 567:../../../FreeRTOS/Source/event_groups.c **** 			{
 986              		.loc 1 567 9 is_stmt 1 view .LVU296
 567:../../../FreeRTOS/Source/event_groups.c **** 			{
 987              		.loc 1 567 44 is_stmt 0 view .LVU297
 988 0044 2168     		ldr	r1, [r4]
 567:../../../FreeRTOS/Source/event_groups.c **** 			{
 989              		.loc 1 567 11 view .LVU298
 990 0046 32EA0101 		bics	r1, r2, r1
ARM GAS  C:\Users\Jim_YW\AppData\Local\Temp\ccsaULLo.s 			page 39


 991 004a 05D1     		bne	.L62
 567:../../../FreeRTOS/Source/event_groups.c **** 			{
 992              		.loc 1 567 11 view .LVU299
 993 004c 11E0     		b	.L61
 994              	.LVL78:
 995              	.L63:
 586:../../../FreeRTOS/Source/event_groups.c **** 				}
 996              		.loc 1 586 30 is_stmt 1 view .LVU300
 594:../../../FreeRTOS/Source/event_groups.c **** 			}
 997              		.loc 1 594 5 view .LVU301
 594:../../../FreeRTOS/Source/event_groups.c **** 			}
 998              		.loc 1 594 63 is_stmt 0 view .LVU302
 999 004e 2168     		ldr	r1, [r4]
 594:../../../FreeRTOS/Source/event_groups.c **** 			}
 1000              		.loc 1 594 5 view .LVU303
 1001 0050 41F00071 		orr	r1, r1, #33554432
 1002 0054 FFF7FEFF 		bl	vTaskRemoveFromUnorderedEventList
 1003              	.LVL79:
 1004              	.L62:
 520:../../../FreeRTOS/Source/event_groups.c **** ListItem_t *pxListItem, *pxNext;
 1005              		.loc 1 520 1 view .LVU304
 1006 0058 2846     		mov	r0, r5
 1007              	.LVL80:
 1008              	.L59:
 545:../../../FreeRTOS/Source/event_groups.c **** 		{
 1009              		.loc 1 545 8 is_stmt 1 view .LVU305
 1010 005a B042     		cmp	r0, r6
 1011 005c 0ED0     		beq	.L67
 547:../../../FreeRTOS/Source/event_groups.c **** 			uxBitsWaitedFor = listGET_LIST_ITEM_VALUE( pxListItem );
 1012              		.loc 1 547 4 view .LVU306
 547:../../../FreeRTOS/Source/event_groups.c **** 			uxBitsWaitedFor = listGET_LIST_ITEM_VALUE( pxListItem );
 1013              		.loc 1 547 11 is_stmt 0 view .LVU307
 1014 005e 4568     		ldr	r5, [r0, #4]
 1015              	.LVL81:
 548:../../../FreeRTOS/Source/event_groups.c **** 			xMatchFound = pdFALSE;
 1016              		.loc 1 548 4 is_stmt 1 view .LVU308
 548:../../../FreeRTOS/Source/event_groups.c **** 			xMatchFound = pdFALSE;
 1017              		.loc 1 548 20 is_stmt 0 view .LVU309
 1018 0060 0368     		ldr	r3, [r0]
 1019              	.LVL82:
 549:../../../FreeRTOS/Source/event_groups.c **** 
 1020              		.loc 1 549 4 is_stmt 1 view .LVU310
 552:../../../FreeRTOS/Source/event_groups.c **** 			uxBitsWaitedFor &= ~eventEVENT_BITS_CONTROL_BYTES;
 1021              		.loc 1 552 4 view .LVU311
 553:../../../FreeRTOS/Source/event_groups.c **** 
 1022              		.loc 1 553 4 view .LVU312
 553:../../../FreeRTOS/Source/event_groups.c **** 
 1023              		.loc 1 553 20 is_stmt 0 view .LVU313
 1024 0062 23F07F42 		bic	r2, r3, #-16777216
 1025              	.LVL83:
 555:../../../FreeRTOS/Source/event_groups.c **** 			{
 1026              		.loc 1 555 4 is_stmt 1 view .LVU314
 555:../../../FreeRTOS/Source/event_groups.c **** 			{
 1027              		.loc 1 555 6 is_stmt 0 view .LVU315
 1028 0066 13F0806F 		tst	r3, #67108864
 1029 006a EBD1     		bne	.L60
 558:../../../FreeRTOS/Source/event_groups.c **** 				{
ARM GAS  C:\Users\Jim_YW\AppData\Local\Temp\ccsaULLo.s 			page 40


 1030              		.loc 1 558 5 is_stmt 1 view .LVU316
 558:../../../FreeRTOS/Source/event_groups.c **** 				{
 1031              		.loc 1 558 40 is_stmt 0 view .LVU317
 1032 006c 2168     		ldr	r1, [r4]
 558:../../../FreeRTOS/Source/event_groups.c **** 				{
 1033              		.loc 1 558 7 view .LVU318
 1034 006e 1142     		tst	r1, r2
 1035 0070 F2D0     		beq	.L62
 1036              	.L61:
 1037              	.LVL84:
 580:../../../FreeRTOS/Source/event_groups.c **** 				{
 1038              		.loc 1 580 5 is_stmt 1 view .LVU319
 580:../../../FreeRTOS/Source/event_groups.c **** 				{
 1039              		.loc 1 580 7 is_stmt 0 view .LVU320
 1040 0072 13F0807F 		tst	r3, #16777216
 1041 0076 EAD0     		beq	.L63
 582:../../../FreeRTOS/Source/event_groups.c **** 				}
 1042              		.loc 1 582 6 is_stmt 1 view .LVU321
 582:../../../FreeRTOS/Source/event_groups.c **** 				}
 1043              		.loc 1 582 20 is_stmt 0 view .LVU322
 1044 0078 1743     		orrs	r7, r7, r2
 1045              	.LVL85:
 582:../../../FreeRTOS/Source/event_groups.c **** 				}
 1046              		.loc 1 582 20 view .LVU323
 1047 007a E8E7     		b	.L63
 1048              	.LVL86:
 1049              	.L67:
 605:../../../FreeRTOS/Source/event_groups.c **** 	}
 1050              		.loc 1 605 3 is_stmt 1 view .LVU324
 605:../../../FreeRTOS/Source/event_groups.c **** 	}
 1051              		.loc 1 605 28 is_stmt 0 view .LVU325
 1052 007c 2368     		ldr	r3, [r4]
 1053 007e 23EA0703 		bic	r3, r3, r7
 1054 0082 2360     		str	r3, [r4]
 607:../../../FreeRTOS/Source/event_groups.c **** 
 1055              		.loc 1 607 2 is_stmt 1 view .LVU326
 607:../../../FreeRTOS/Source/event_groups.c **** 
 1056              		.loc 1 607 11 is_stmt 0 view .LVU327
 1057 0084 FFF7FEFF 		bl	xTaskResumeAll
 1058              	.LVL87:
 609:../../../FreeRTOS/Source/event_groups.c **** }
 1059              		.loc 1 609 2 is_stmt 1 view .LVU328
 610:../../../FreeRTOS/Source/event_groups.c **** /*-----------------------------------------------------------*/
 1060              		.loc 1 610 1 is_stmt 0 view .LVU329
 1061 0088 2068     		ldr	r0, [r4]
 1062 008a F8BD     		pop	{r3, r4, r5, r6, r7, pc}
 610:../../../FreeRTOS/Source/event_groups.c **** /*-----------------------------------------------------------*/
 1063              		.loc 1 610 1 view .LVU330
 1064              		.cfi_endproc
 1065              	.LFE11:
 1067              		.section	.text.xEventGroupSync,"ax",%progbits
 1068              		.align	1
 1069              		.global	xEventGroupSync
 1070              		.syntax unified
 1071              		.thumb
 1072              		.thumb_func
 1074              	xEventGroupSync:
ARM GAS  C:\Users\Jim_YW\AppData\Local\Temp\ccsaULLo.s 			page 41


 1075              	.LVL88:
 1076              	.LFB6:
 192:../../../FreeRTOS/Source/event_groups.c **** EventBits_t uxOriginalBitValue, uxReturn;
 1077              		.loc 1 192 1 is_stmt 1 view -0
 1078              		.cfi_startproc
 1079              		@ args = 0, pretend = 0, frame = 0
 1080              		@ frame_needed = 0, uses_anonymous_args = 0
 192:../../../FreeRTOS/Source/event_groups.c **** EventBits_t uxOriginalBitValue, uxReturn;
 1081              		.loc 1 192 1 is_stmt 0 view .LVU332
 1082 0000 2DE9F843 		push	{r3, r4, r5, r6, r7, r8, r9, lr}
 1083              	.LCFI13:
 1084              		.cfi_def_cfa_offset 32
 1085              		.cfi_offset 3, -32
 1086              		.cfi_offset 4, -28
 1087              		.cfi_offset 5, -24
 1088              		.cfi_offset 6, -20
 1089              		.cfi_offset 7, -16
 1090              		.cfi_offset 8, -12
 1091              		.cfi_offset 9, -8
 1092              		.cfi_offset 14, -4
 193:../../../FreeRTOS/Source/event_groups.c **** EventGroup_t *pxEventBits = xEventGroup;
 1093              		.loc 1 193 1 is_stmt 1 view .LVU333
 194:../../../FreeRTOS/Source/event_groups.c **** BaseType_t xAlreadyYielded;
 1094              		.loc 1 194 1 view .LVU334
 1095              	.LVL89:
 195:../../../FreeRTOS/Source/event_groups.c **** BaseType_t xTimeoutOccurred = pdFALSE;
 1096              		.loc 1 195 1 view .LVU335
 196:../../../FreeRTOS/Source/event_groups.c **** 
 1097              		.loc 1 196 1 view .LVU336
 198:../../../FreeRTOS/Source/event_groups.c **** 	configASSERT( uxBitsToWaitFor != 0 );
 1098              		.loc 1 198 2 view .LVU337
 1099 0004 12F07F48 		ands	r8, r2, #-16777216
 1100 0008 08D0     		beq	.L69
 198:../../../FreeRTOS/Source/event_groups.c **** 	configASSERT( uxBitsToWaitFor != 0 );
 1101              		.loc 1 198 2 view .LVU338
 1102              	.LBB65:
 1103              	.LBI65:
 191:../../../FreeRTOS/Source/portable/GCC/ARM_CM4F/portmacro.h **** {
 1104              		.loc 2 191 30 view .LVU339
 1105              	.LBB66:
 193:../../../FreeRTOS/Source/portable/GCC/ARM_CM4F/portmacro.h **** 
 1106              		.loc 2 193 1 view .LVU340
 195:../../../FreeRTOS/Source/portable/GCC/ARM_CM4F/portmacro.h **** 	(
 1107              		.loc 2 195 2 view .LVU341
 1108              		.syntax unified
 1109              	@ 195 "../../../FreeRTOS/Source/portable/GCC/ARM_CM4F/portmacro.h" 1
 1110 000a 4FF05003 			mov r3, #80												
 1111 000e 83F31188 		msr basepri, r3											
 1112 0012 BFF36F8F 		isb														
 1113 0016 BFF34F8F 		dsb														
 1114              	
 1115              	@ 0 "" 2
 1116              	.LVL90:
 1117              		.thumb
 1118              		.syntax unified
 1119              	.L70:
 195:../../../FreeRTOS/Source/portable/GCC/ARM_CM4F/portmacro.h **** 	(
ARM GAS  C:\Users\Jim_YW\AppData\Local\Temp\ccsaULLo.s 			page 42


 1120              		.loc 2 195 2 is_stmt 0 view .LVU342
 1121              	.LBE66:
 1122              	.LBE65:
 198:../../../FreeRTOS/Source/event_groups.c **** 	configASSERT( uxBitsToWaitFor != 0 );
 1123              		.loc 1 198 2 is_stmt 1 discriminator 1 view .LVU343
 198:../../../FreeRTOS/Source/event_groups.c **** 	configASSERT( uxBitsToWaitFor != 0 );
 1124              		.loc 1 198 2 discriminator 1 view .LVU344
 198:../../../FreeRTOS/Source/event_groups.c **** 	configASSERT( uxBitsToWaitFor != 0 );
 1125              		.loc 1 198 2 discriminator 1 view .LVU345
 1126 001a FEE7     		b	.L70
 1127              	.LVL91:
 1128              	.L69:
 198:../../../FreeRTOS/Source/event_groups.c **** 	configASSERT( uxBitsToWaitFor != 0 );
 1129              		.loc 1 198 2 is_stmt 0 discriminator 1 view .LVU346
 1130 001c 0746     		mov	r7, r0
 1131 001e 0E46     		mov	r6, r1
 1132 0020 1446     		mov	r4, r2
 1133 0022 1D46     		mov	r5, r3
 198:../../../FreeRTOS/Source/event_groups.c **** 	configASSERT( uxBitsToWaitFor != 0 );
 1134              		.loc 1 198 74 is_stmt 1 discriminator 2 view .LVU347
 199:../../../FreeRTOS/Source/event_groups.c **** 	#if ( ( INCLUDE_xTaskGetSchedulerState == 1 ) || ( configUSE_TIMERS == 1 ) )
 1135              		.loc 1 199 2 discriminator 2 view .LVU348
 1136 0024 42B9     		cbnz	r2, .L71
 199:../../../FreeRTOS/Source/event_groups.c **** 	#if ( ( INCLUDE_xTaskGetSchedulerState == 1 ) || ( configUSE_TIMERS == 1 ) )
 1137              		.loc 1 199 2 view .LVU349
 1138              	.LBB67:
 1139              	.LBI67:
 191:../../../FreeRTOS/Source/portable/GCC/ARM_CM4F/portmacro.h **** {
 1140              		.loc 2 191 30 view .LVU350
 1141              	.LBB68:
 193:../../../FreeRTOS/Source/portable/GCC/ARM_CM4F/portmacro.h **** 
 1142              		.loc 2 193 1 view .LVU351
 195:../../../FreeRTOS/Source/portable/GCC/ARM_CM4F/portmacro.h **** 	(
 1143              		.loc 2 195 2 view .LVU352
 1144              		.syntax unified
 1145              	@ 195 "../../../FreeRTOS/Source/portable/GCC/ARM_CM4F/portmacro.h" 1
 1146 0026 4FF05003 			mov r3, #80												
 1147 002a 83F31188 		msr basepri, r3											
 1148 002e BFF36F8F 		isb														
 1149 0032 BFF34F8F 		dsb														
 1150              	
 1151              	@ 0 "" 2
 1152              	.LVL92:
 1153              		.thumb
 1154              		.syntax unified
 1155              	.L72:
 195:../../../FreeRTOS/Source/portable/GCC/ARM_CM4F/portmacro.h **** 	(
 1156              		.loc 2 195 2 is_stmt 0 view .LVU353
 1157              	.LBE68:
 1158              	.LBE67:
 199:../../../FreeRTOS/Source/event_groups.c **** 	#if ( ( INCLUDE_xTaskGetSchedulerState == 1 ) || ( configUSE_TIMERS == 1 ) )
 1159              		.loc 1 199 2 is_stmt 1 discriminator 2 view .LVU354
 199:../../../FreeRTOS/Source/event_groups.c **** 	#if ( ( INCLUDE_xTaskGetSchedulerState == 1 ) || ( configUSE_TIMERS == 1 ) )
 1160              		.loc 1 199 2 discriminator 2 view .LVU355
 199:../../../FreeRTOS/Source/event_groups.c **** 	#if ( ( INCLUDE_xTaskGetSchedulerState == 1 ) || ( configUSE_TIMERS == 1 ) )
 1161              		.loc 1 199 2 discriminator 2 view .LVU356
 1162 0036 FEE7     		b	.L72
ARM GAS  C:\Users\Jim_YW\AppData\Local\Temp\ccsaULLo.s 			page 43


 1163              	.LVL93:
 1164              	.L71:
 199:../../../FreeRTOS/Source/event_groups.c **** 	#if ( ( INCLUDE_xTaskGetSchedulerState == 1 ) || ( configUSE_TIMERS == 1 ) )
 1165              		.loc 1 199 38 discriminator 2 view .LVU357
 202:../../../FreeRTOS/Source/event_groups.c **** 	}
 1166              		.loc 1 202 3 discriminator 2 view .LVU358
 1167 0038 FFF7FEFF 		bl	xTaskGetSchedulerState
 1168              	.LVL94:
 202:../../../FreeRTOS/Source/event_groups.c **** 	}
 1169              		.loc 1 202 3 is_stmt 0 discriminator 2 view .LVU359
 1170 003c 48B9     		cbnz	r0, .L73
 1171 003e 45B1     		cbz	r5, .L73
 202:../../../FreeRTOS/Source/event_groups.c **** 	}
 1172              		.loc 1 202 3 is_stmt 1 view .LVU360
 1173              	.LBB69:
 1174              	.LBI69:
 191:../../../FreeRTOS/Source/portable/GCC/ARM_CM4F/portmacro.h **** {
 1175              		.loc 2 191 30 view .LVU361
 1176              	.LBB70:
 193:../../../FreeRTOS/Source/portable/GCC/ARM_CM4F/portmacro.h **** 
 1177              		.loc 2 193 1 view .LVU362
 195:../../../FreeRTOS/Source/portable/GCC/ARM_CM4F/portmacro.h **** 	(
 1178              		.loc 2 195 2 view .LVU363
 1179              		.syntax unified
 1180              	@ 195 "../../../FreeRTOS/Source/portable/GCC/ARM_CM4F/portmacro.h" 1
 1181 0040 4FF05003 			mov r3, #80												
 1182 0044 83F31188 		msr basepri, r3											
 1183 0048 BFF36F8F 		isb														
 1184 004c BFF34F8F 		dsb														
 1185              	
 1186              	@ 0 "" 2
 1187              	.LVL95:
 1188              		.thumb
 1189              		.syntax unified
 1190              	.L74:
 195:../../../FreeRTOS/Source/portable/GCC/ARM_CM4F/portmacro.h **** 	(
 1191              		.loc 2 195 2 is_stmt 0 view .LVU364
 1192              	.LBE70:
 1193              	.LBE69:
 202:../../../FreeRTOS/Source/event_groups.c **** 	}
 1194              		.loc 1 202 3 is_stmt 1 discriminator 3 view .LVU365
 202:../../../FreeRTOS/Source/event_groups.c **** 	}
 1195              		.loc 1 202 3 discriminator 3 view .LVU366
 202:../../../FreeRTOS/Source/event_groups.c **** 	}
 1196              		.loc 1 202 3 discriminator 3 view .LVU367
 1197 0050 FEE7     		b	.L74
 1198              	.L73:
 202:../../../FreeRTOS/Source/event_groups.c **** 	}
 1199              		.loc 1 202 104 discriminator 8 view .LVU368
 206:../../../FreeRTOS/Source/event_groups.c **** 	{
 1200              		.loc 1 206 2 discriminator 8 view .LVU369
 1201 0052 FFF7FEFF 		bl	vTaskSuspendAll
 1202              	.LVL96:
 208:../../../FreeRTOS/Source/event_groups.c **** 
 1203              		.loc 1 208 3 discriminator 8 view .LVU370
 208:../../../FreeRTOS/Source/event_groups.c **** 
 1204              		.loc 1 208 22 is_stmt 0 discriminator 8 view .LVU371
ARM GAS  C:\Users\Jim_YW\AppData\Local\Temp\ccsaULLo.s 			page 44


 1205 0056 D7F80090 		ldr	r9, [r7]
 1206              	.LVL97:
 210:../../../FreeRTOS/Source/event_groups.c **** 
 1207              		.loc 1 210 3 is_stmt 1 discriminator 8 view .LVU372
 210:../../../FreeRTOS/Source/event_groups.c **** 
 1208              		.loc 1 210 12 is_stmt 0 discriminator 8 view .LVU373
 1209 005a 3146     		mov	r1, r6
 1210 005c 3846     		mov	r0, r7
 1211 005e FFF7FEFF 		bl	xEventGroupSetBits
 1212              	.LVL98:
 212:../../../FreeRTOS/Source/event_groups.c **** 		{
 1213              		.loc 1 212 3 is_stmt 1 discriminator 8 view .LVU374
 212:../../../FreeRTOS/Source/event_groups.c **** 		{
 1214              		.loc 1 212 30 is_stmt 0 discriminator 8 view .LVU375
 1215 0062 49EA0606 		orr	r6, r9, r6
 1216              	.LVL99:
 212:../../../FreeRTOS/Source/event_groups.c **** 		{
 1217              		.loc 1 212 5 discriminator 8 view .LVU376
 1218 0066 34EA0603 		bics	r3, r4, r6
 1219 006a 1AD0     		beq	.L83
 225:../../../FreeRTOS/Source/event_groups.c **** 			{
 1220              		.loc 1 225 4 is_stmt 1 view .LVU377
 225:../../../FreeRTOS/Source/event_groups.c **** 			{
 1221              		.loc 1 225 6 is_stmt 0 view .LVU378
 1222 006c FDB9     		cbnz	r5, .L84
 244:../../../FreeRTOS/Source/event_groups.c **** 				xTimeoutOccurred = pdTRUE;
 1223              		.loc 1 244 5 is_stmt 1 view .LVU379
 244:../../../FreeRTOS/Source/event_groups.c **** 				xTimeoutOccurred = pdTRUE;
 1224              		.loc 1 244 14 is_stmt 0 view .LVU380
 1225 006e 3E68     		ldr	r6, [r7]
 1226              	.LVL100:
 245:../../../FreeRTOS/Source/event_groups.c **** 			}
 1227              		.loc 1 245 5 is_stmt 1 view .LVU381
 1228              	.L76:
 249:../../../FreeRTOS/Source/event_groups.c **** 
 1229              		.loc 1 249 2 view .LVU382
 249:../../../FreeRTOS/Source/event_groups.c **** 
 1230              		.loc 1 249 20 is_stmt 0 view .LVU383
 1231 0070 FFF7FEFF 		bl	xTaskResumeAll
 1232              	.LVL101:
 251:../../../FreeRTOS/Source/event_groups.c **** 	{
 1233              		.loc 1 251 2 is_stmt 1 view .LVU384
 251:../../../FreeRTOS/Source/event_groups.c **** 	{
 1234              		.loc 1 251 4 is_stmt 0 view .LVU385
 1235 0074 95B1     		cbz	r5, .L68
 253:../../../FreeRTOS/Source/event_groups.c **** 		{
 1236              		.loc 1 253 3 is_stmt 1 view .LVU386
 253:../../../FreeRTOS/Source/event_groups.c **** 		{
 1237              		.loc 1 253 5 is_stmt 0 view .LVU387
 1238 0076 48B9     		cbnz	r0, .L79
 255:../../../FreeRTOS/Source/event_groups.c **** 		}
 1239              		.loc 1 255 4 is_stmt 1 view .LVU388
 1240 0078 4FF0E023 		mov	r3, #-536813568
 1241 007c 4FF08052 		mov	r2, #268435456
 1242 0080 C3F8042D 		str	r2, [r3, #3332]
 255:../../../FreeRTOS/Source/event_groups.c **** 		}
 1243              		.loc 1 255 4 view .LVU389
ARM GAS  C:\Users\Jim_YW\AppData\Local\Temp\ccsaULLo.s 			page 45


 1244              		.syntax unified
 1245              	@ 255 "../../../FreeRTOS/Source/event_groups.c" 1
 1246 0084 BFF34F8F 		dsb
 1247              	@ 0 "" 2
 255:../../../FreeRTOS/Source/event_groups.c **** 		}
 1248              		.loc 1 255 4 view .LVU390
 1249              	@ 255 "../../../FreeRTOS/Source/event_groups.c" 1
 1250 0088 BFF36F8F 		isb
 1251              	@ 0 "" 2
 255:../../../FreeRTOS/Source/event_groups.c **** 		}
 1252              		.loc 1 255 26 view .LVU391
 1253              		.thumb
 1254              		.syntax unified
 1255              	.L79:
 259:../../../FreeRTOS/Source/event_groups.c **** 		}
 1256              		.loc 1 259 28 view .LVU392
 266:../../../FreeRTOS/Source/event_groups.c **** 
 1257              		.loc 1 266 3 view .LVU393
 266:../../../FreeRTOS/Source/event_groups.c **** 
 1258              		.loc 1 266 14 is_stmt 0 view .LVU394
 1259 008c FFF7FEFF 		bl	uxTaskResetEventItemValue
 1260              	.LVL102:
 266:../../../FreeRTOS/Source/event_groups.c **** 
 1261              		.loc 1 266 14 view .LVU395
 1262 0090 0646     		mov	r6, r0
 1263              	.LVL103:
 268:../../../FreeRTOS/Source/event_groups.c **** 		{
 1264              		.loc 1 268 3 is_stmt 1 view .LVU396
 268:../../../FreeRTOS/Source/event_groups.c **** 		{
 1265              		.loc 1 268 5 is_stmt 0 view .LVU397
 1266 0092 10F0007F 		tst	r0, #33554432
 1267 0096 12D0     		beq	.L85
 1268              	.LVL104:
 1269              	.L80:
 295:../../../FreeRTOS/Source/event_groups.c **** 
 1270              		.loc 1 295 3 is_stmt 1 view .LVU398
 299:../../../FreeRTOS/Source/event_groups.c **** 	}
 1271              		.loc 1 299 3 view .LVU399
 299:../../../FreeRTOS/Source/event_groups.c **** 	}
 1272              		.loc 1 299 12 is_stmt 0 view .LVU400
 1273 0098 26F07F46 		bic	r6, r6, #-16777216
 1274              	.LVL105:
 302:../../../FreeRTOS/Source/event_groups.c **** 
 1275              		.loc 1 302 2 is_stmt 1 view .LVU401
 305:../../../FreeRTOS/Source/event_groups.c **** 
 1276              		.loc 1 305 2 view .LVU402
 307:../../../FreeRTOS/Source/event_groups.c **** }
 1277              		.loc 1 307 2 view .LVU403
 1278              	.L68:
 308:../../../FreeRTOS/Source/event_groups.c **** /*-----------------------------------------------------------*/
 1279              		.loc 1 308 1 is_stmt 0 view .LVU404
 1280 009c 3046     		mov	r0, r6
 1281 009e BDE8F883 		pop	{r3, r4, r5, r6, r7, r8, r9, pc}
 1282              	.LVL106:
 1283              	.L83:
 215:../../../FreeRTOS/Source/event_groups.c **** 
 1284              		.loc 1 215 4 is_stmt 1 view .LVU405
ARM GAS  C:\Users\Jim_YW\AppData\Local\Temp\ccsaULLo.s 			page 46


 219:../../../FreeRTOS/Source/event_groups.c **** 
 1285              		.loc 1 219 4 view .LVU406
 219:../../../FreeRTOS/Source/event_groups.c **** 
 1286              		.loc 1 219 29 is_stmt 0 view .LVU407
 1287 00a2 3B68     		ldr	r3, [r7]
 1288 00a4 23EA0403 		bic	r3, r3, r4
 1289 00a8 3B60     		str	r3, [r7]
 221:../../../FreeRTOS/Source/event_groups.c **** 		}
 1290              		.loc 1 221 4 is_stmt 1 view .LVU408
 1291              	.LVL107:
 221:../../../FreeRTOS/Source/event_groups.c **** 		}
 1292              		.loc 1 221 17 is_stmt 0 view .LVU409
 1293 00aa 4546     		mov	r5, r8
 1294 00ac E0E7     		b	.L76
 1295              	.LVL108:
 1296              	.L84:
 227:../../../FreeRTOS/Source/event_groups.c **** 
 1297              		.loc 1 227 77 is_stmt 1 view .LVU410
 232:../../../FreeRTOS/Source/event_groups.c **** 
 1298              		.loc 1 232 5 view .LVU411
 1299 00ae 2A46     		mov	r2, r5
 1300 00b0 44F0A061 		orr	r1, r4, #83886080
 1301 00b4 381D     		adds	r0, r7, #4
 1302 00b6 FFF7FEFF 		bl	vTaskPlaceOnUnorderedEventList
 1303              	.LVL109:
 238:../../../FreeRTOS/Source/event_groups.c **** 			}
 1304              		.loc 1 238 5 view .LVU412
 238:../../../FreeRTOS/Source/event_groups.c **** 			}
 1305              		.loc 1 238 14 is_stmt 0 view .LVU413
 1306 00ba 4646     		mov	r6, r8
 1307 00bc D8E7     		b	.L76
 1308              	.LVL110:
 1309              	.L85:
 271:../../../FreeRTOS/Source/event_groups.c **** 			{
 1310              		.loc 1 271 4 is_stmt 1 view .LVU414
 1311 00be FFF7FEFF 		bl	vPortEnterCritical
 1312              	.LVL111:
 273:../../../FreeRTOS/Source/event_groups.c **** 
 1313              		.loc 1 273 5 view .LVU415
 273:../../../FreeRTOS/Source/event_groups.c **** 
 1314              		.loc 1 273 14 is_stmt 0 view .LVU416
 1315 00c2 3E68     		ldr	r6, [r7]
 1316              	.LVL112:
 279:../../../FreeRTOS/Source/event_groups.c **** 				{
 1317              		.loc 1 279 5 is_stmt 1 view .LVU417
 279:../../../FreeRTOS/Source/event_groups.c **** 				{
 1318              		.loc 1 279 7 is_stmt 0 view .LVU418
 1319 00c4 34EA0603 		bics	r3, r4, r6
 1320 00c8 02D0     		beq	.L86
 1321              	.LVL113:
 1322              	.L81:
 285:../../../FreeRTOS/Source/event_groups.c **** 				}
 1323              		.loc 1 285 30 is_stmt 1 view .LVU419
 288:../../../FreeRTOS/Source/event_groups.c **** 
 1324              		.loc 1 288 4 view .LVU420
 1325 00ca FFF7FEFF 		bl	vPortExitCritical
 1326              	.LVL114:
ARM GAS  C:\Users\Jim_YW\AppData\Local\Temp\ccsaULLo.s 			page 47


 290:../../../FreeRTOS/Source/event_groups.c **** 		}
 1327              		.loc 1 290 4 view .LVU421
 290:../../../FreeRTOS/Source/event_groups.c **** 		}
 1328              		.loc 1 290 4 is_stmt 0 view .LVU422
 1329 00ce E3E7     		b	.L80
 1330              	.LVL115:
 1331              	.L86:
 281:../../../FreeRTOS/Source/event_groups.c **** 				}
 1332              		.loc 1 281 6 is_stmt 1 view .LVU423
 281:../../../FreeRTOS/Source/event_groups.c **** 				}
 1333              		.loc 1 281 31 is_stmt 0 view .LVU424
 1334 00d0 26EA0404 		bic	r4, r6, r4
 1335              	.LVL116:
 281:../../../FreeRTOS/Source/event_groups.c **** 				}
 1336              		.loc 1 281 31 view .LVU425
 1337 00d4 3C60     		str	r4, [r7]
 1338 00d6 F8E7     		b	.L81
 1339              		.cfi_endproc
 1340              	.LFE6:
 1342              		.section	.text.vEventGroupSetBitsCallback,"ax",%progbits
 1343              		.align	1
 1344              		.global	vEventGroupSetBitsCallback
 1345              		.syntax unified
 1346              		.thumb
 1347              		.thumb_func
 1349              	vEventGroupSetBitsCallback:
 1350              	.LVL117:
 1351              	.LFB13:
 658:../../../FreeRTOS/Source/event_groups.c **** 	( void ) xEventGroupSetBits( pvEventGroup, ( EventBits_t ) ulBitsToSet ); /*lint !e9079 Can't avoi
 1352              		.loc 1 658 1 is_stmt 1 view -0
 1353              		.cfi_startproc
 1354              		@ args = 0, pretend = 0, frame = 0
 1355              		@ frame_needed = 0, uses_anonymous_args = 0
 658:../../../FreeRTOS/Source/event_groups.c **** 	( void ) xEventGroupSetBits( pvEventGroup, ( EventBits_t ) ulBitsToSet ); /*lint !e9079 Can't avoi
 1356              		.loc 1 658 1 is_stmt 0 view .LVU427
 1357 0000 08B5     		push	{r3, lr}
 1358              	.LCFI14:
 1359              		.cfi_def_cfa_offset 8
 1360              		.cfi_offset 3, -8
 1361              		.cfi_offset 14, -4
 659:../../../FreeRTOS/Source/event_groups.c **** }
 1362              		.loc 1 659 2 is_stmt 1 view .LVU428
 659:../../../FreeRTOS/Source/event_groups.c **** }
 1363              		.loc 1 659 11 is_stmt 0 view .LVU429
 1364 0002 FFF7FEFF 		bl	xEventGroupSetBits
 1365              	.LVL118:
 660:../../../FreeRTOS/Source/event_groups.c **** /*-----------------------------------------------------------*/
 1366              		.loc 1 660 1 view .LVU430
 1367 0006 08BD     		pop	{r3, pc}
 1368              		.cfi_endproc
 1369              	.LFE13:
 1371              		.section	.text.vEventGroupDelete,"ax",%progbits
 1372              		.align	1
 1373              		.global	vEventGroupDelete
 1374              		.syntax unified
 1375              		.thumb
 1376              		.thumb_func
ARM GAS  C:\Users\Jim_YW\AppData\Local\Temp\ccsaULLo.s 			page 48


 1378              	vEventGroupDelete:
 1379              	.LVL119:
 1380              	.LFB12:
 614:../../../FreeRTOS/Source/event_groups.c **** EventGroup_t *pxEventBits = xEventGroup;
 1381              		.loc 1 614 1 is_stmt 1 view -0
 1382              		.cfi_startproc
 1383              		@ args = 0, pretend = 0, frame = 0
 1384              		@ frame_needed = 0, uses_anonymous_args = 0
 614:../../../FreeRTOS/Source/event_groups.c **** EventGroup_t *pxEventBits = xEventGroup;
 1385              		.loc 1 614 1 is_stmt 0 view .LVU432
 1386 0000 10B5     		push	{r4, lr}
 1387              	.LCFI15:
 1388              		.cfi_def_cfa_offset 8
 1389              		.cfi_offset 4, -8
 1390              		.cfi_offset 14, -4
 1391 0002 0446     		mov	r4, r0
 615:../../../FreeRTOS/Source/event_groups.c **** const List_t *pxTasksWaitingForBits = &( pxEventBits->xTasksWaitingForBits );
 1392              		.loc 1 615 1 is_stmt 1 view .LVU433
 1393              	.LVL120:
 616:../../../FreeRTOS/Source/event_groups.c **** 
 1394              		.loc 1 616 1 view .LVU434
 618:../../../FreeRTOS/Source/event_groups.c **** 	{
 1395              		.loc 1 618 2 view .LVU435
 1396 0004 FFF7FEFF 		bl	vTaskSuspendAll
 1397              	.LVL121:
 620:../../../FreeRTOS/Source/event_groups.c **** 
 1398              		.loc 1 620 41 view .LVU436
 622:../../../FreeRTOS/Source/event_groups.c **** 		{
 1399              		.loc 1 622 3 view .LVU437
 1400              	.L90:
 622:../../../FreeRTOS/Source/event_groups.c **** 		{
 1401              		.loc 1 622 8 view .LVU438
 622:../../../FreeRTOS/Source/event_groups.c **** 		{
 1402              		.loc 1 622 10 is_stmt 0 view .LVU439
 1403 0008 6368     		ldr	r3, [r4, #4]
 622:../../../FreeRTOS/Source/event_groups.c **** 		{
 1404              		.loc 1 622 8 view .LVU440
 1405 000a 93B1     		cbz	r3, .L96
 626:../../../FreeRTOS/Source/event_groups.c **** 			vTaskRemoveFromUnorderedEventList( pxTasksWaitingForBits->xListEnd.pxNext, eventUNBLOCKED_DUE_TO
 1406              		.loc 1 626 4 is_stmt 1 view .LVU441
 1407 000c 2069     		ldr	r0, [r4, #16]
 1408 000e 04F10C03 		add	r3, r4, #12
 1409 0012 9842     		cmp	r0, r3
 1410 0014 04D0     		beq	.L97
 626:../../../FreeRTOS/Source/event_groups.c **** 			vTaskRemoveFromUnorderedEventList( pxTasksWaitingForBits->xListEnd.pxNext, eventUNBLOCKED_DUE_TO
 1411              		.loc 1 626 121 discriminator 2 view .LVU442
 627:../../../FreeRTOS/Source/event_groups.c **** 		}
 1412              		.loc 1 627 4 discriminator 2 view .LVU443
 1413 0016 4FF00071 		mov	r1, #33554432
 1414 001a FFF7FEFF 		bl	vTaskRemoveFromUnorderedEventList
 1415              	.LVL122:
 1416 001e F3E7     		b	.L90
 1417              	.L97:
 626:../../../FreeRTOS/Source/event_groups.c **** 			vTaskRemoveFromUnorderedEventList( pxTasksWaitingForBits->xListEnd.pxNext, eventUNBLOCKED_DUE_TO
 1418              		.loc 1 626 4 view .LVU444
 1419              	.LBB71:
 1420              	.LBI71:
ARM GAS  C:\Users\Jim_YW\AppData\Local\Temp\ccsaULLo.s 			page 49


 191:../../../FreeRTOS/Source/portable/GCC/ARM_CM4F/portmacro.h **** {
 1421              		.loc 2 191 30 view .LVU445
 1422              	.LBB72:
 193:../../../FreeRTOS/Source/portable/GCC/ARM_CM4F/portmacro.h **** 
 1423              		.loc 2 193 1 view .LVU446
 195:../../../FreeRTOS/Source/portable/GCC/ARM_CM4F/portmacro.h **** 	(
 1424              		.loc 2 195 2 view .LVU447
 1425              		.syntax unified
 1426              	@ 195 "../../../FreeRTOS/Source/portable/GCC/ARM_CM4F/portmacro.h" 1
 1427 0020 4FF05003 			mov r3, #80												
 1428 0024 83F31188 		msr basepri, r3											
 1429 0028 BFF36F8F 		isb														
 1430 002c BFF34F8F 		dsb														
 1431              	
 1432              	@ 0 "" 2
 1433              	.LVL123:
 1434              		.thumb
 1435              		.syntax unified
 1436              	.L92:
 195:../../../FreeRTOS/Source/portable/GCC/ARM_CM4F/portmacro.h **** 	(
 1437              		.loc 2 195 2 is_stmt 0 view .LVU448
 1438              	.LBE72:
 1439              	.LBE71:
 626:../../../FreeRTOS/Source/event_groups.c **** 			vTaskRemoveFromUnorderedEventList( pxTasksWaitingForBits->xListEnd.pxNext, eventUNBLOCKED_DUE_TO
 1440              		.loc 1 626 4 is_stmt 1 discriminator 1 view .LVU449
 626:../../../FreeRTOS/Source/event_groups.c **** 			vTaskRemoveFromUnorderedEventList( pxTasksWaitingForBits->xListEnd.pxNext, eventUNBLOCKED_DUE_TO
 1441              		.loc 1 626 4 discriminator 1 view .LVU450
 626:../../../FreeRTOS/Source/event_groups.c **** 			vTaskRemoveFromUnorderedEventList( pxTasksWaitingForBits->xListEnd.pxNext, eventUNBLOCKED_DUE_TO
 1442              		.loc 1 626 4 discriminator 1 view .LVU451
 1443 0030 FEE7     		b	.L92
 1444              	.L96:
 640:../../../FreeRTOS/Source/event_groups.c **** 			{
 1445              		.loc 1 640 4 view .LVU452
 640:../../../FreeRTOS/Source/event_groups.c **** 			{
 1446              		.loc 1 640 19 is_stmt 0 view .LVU453
 1447 0032 237F     		ldrb	r3, [r4, #28]	@ zero_extendqisi2
 640:../../../FreeRTOS/Source/event_groups.c **** 			{
 1448              		.loc 1 640 6 view .LVU454
 1449 0034 13B1     		cbz	r3, .L98
 1450              	.L94:
 646:../../../FreeRTOS/Source/event_groups.c **** 			}
 1451              		.loc 1 646 29 is_stmt 1 view .LVU455
 651:../../../FreeRTOS/Source/event_groups.c **** }
 1452              		.loc 1 651 2 view .LVU456
 651:../../../FreeRTOS/Source/event_groups.c **** }
 1453              		.loc 1 651 11 is_stmt 0 view .LVU457
 1454 0036 FFF7FEFF 		bl	xTaskResumeAll
 1455              	.LVL124:
 652:../../../FreeRTOS/Source/event_groups.c **** /*-----------------------------------------------------------*/
 1456              		.loc 1 652 1 view .LVU458
 1457 003a 10BD     		pop	{r4, pc}
 1458              	.LVL125:
 1459              	.L98:
 642:../../../FreeRTOS/Source/event_groups.c **** 			}
 1460              		.loc 1 642 5 is_stmt 1 view .LVU459
 1461 003c 2046     		mov	r0, r4
 1462 003e FFF7FEFF 		bl	vPortFree
ARM GAS  C:\Users\Jim_YW\AppData\Local\Temp\ccsaULLo.s 			page 50


 1463              	.LVL126:
 1464 0042 F8E7     		b	.L94
 1465              		.cfi_endproc
 1466              	.LFE12:
 1468              		.section	.text.xEventGroupSetBitsFromISR,"ax",%progbits
 1469              		.align	1
 1470              		.global	xEventGroupSetBitsFromISR
 1471              		.syntax unified
 1472              		.thumb
 1473              		.thumb_func
 1475              	xEventGroupSetBitsFromISR:
 1476              	.LVL127:
 1477              	.LFB16:
 704:../../../FreeRTOS/Source/event_groups.c **** /*-----------------------------------------------------------*/
 705:../../../FreeRTOS/Source/event_groups.c **** 
 706:../../../FreeRTOS/Source/event_groups.c **** #if ( ( configUSE_TRACE_FACILITY == 1 ) && ( INCLUDE_xTimerPendFunctionCall == 1 ) && ( configUSE_T
 707:../../../FreeRTOS/Source/event_groups.c **** 
 708:../../../FreeRTOS/Source/event_groups.c **** 	BaseType_t xEventGroupSetBitsFromISR( EventGroupHandle_t xEventGroup, const EventBits_t uxBitsToSe
 709:../../../FreeRTOS/Source/event_groups.c **** 	{
 1478              		.loc 1 709 2 view -0
 1479              		.cfi_startproc
 1480              		@ args = 0, pretend = 0, frame = 0
 1481              		@ frame_needed = 0, uses_anonymous_args = 0
 1482              		.loc 1 709 2 is_stmt 0 view .LVU461
 1483 0000 08B5     		push	{r3, lr}
 1484              	.LCFI16:
 1485              		.cfi_def_cfa_offset 8
 1486              		.cfi_offset 3, -8
 1487              		.cfi_offset 14, -4
 1488 0002 1346     		mov	r3, r2
 710:../../../FreeRTOS/Source/event_groups.c **** 	BaseType_t xReturn;
 1489              		.loc 1 710 2 is_stmt 1 view .LVU462
 711:../../../FreeRTOS/Source/event_groups.c **** 
 712:../../../FreeRTOS/Source/event_groups.c **** 		traceEVENT_GROUP_SET_BITS_FROM_ISR( xEventGroup, uxBitsToSet );
 1490              		.loc 1 712 65 view .LVU463
 713:../../../FreeRTOS/Source/event_groups.c **** 		xReturn = xTimerPendFunctionCallFromISR( vEventGroupSetBitsCallback, ( void * ) xEventGroup, ( ui
 1491              		.loc 1 713 3 view .LVU464
 1492              		.loc 1 713 13 is_stmt 0 view .LVU465
 1493 0004 0A46     		mov	r2, r1
 1494              	.LVL128:
 1495              		.loc 1 713 13 view .LVU466
 1496 0006 0146     		mov	r1, r0
 1497              	.LVL129:
 1498              		.loc 1 713 13 view .LVU467
 1499 0008 0148     		ldr	r0, .L101
 1500              	.LVL130:
 1501              		.loc 1 713 13 view .LVU468
 1502 000a FFF7FEFF 		bl	xTimerPendFunctionCallFromISR
 1503              	.LVL131:
 714:../../../FreeRTOS/Source/event_groups.c **** 
 715:../../../FreeRTOS/Source/event_groups.c **** 		return xReturn;
 1504              		.loc 1 715 3 is_stmt 1 view .LVU469
 716:../../../FreeRTOS/Source/event_groups.c **** 	}
 1505              		.loc 1 716 2 is_stmt 0 view .LVU470
 1506 000e 08BD     		pop	{r3, pc}
 1507              	.L102:
 1508              		.align	2
ARM GAS  C:\Users\Jim_YW\AppData\Local\Temp\ccsaULLo.s 			page 51


 1509              	.L101:
 1510 0010 00000000 		.word	vEventGroupSetBitsCallback
 1511              		.cfi_endproc
 1512              	.LFE16:
 1514              		.section	.text.uxEventGroupGetNumber,"ax",%progbits
 1515              		.align	1
 1516              		.global	uxEventGroupGetNumber
 1517              		.syntax unified
 1518              		.thumb
 1519              		.thumb_func
 1521              	uxEventGroupGetNumber:
 1522              	.LVL132:
 1523              	.LFB17:
 717:../../../FreeRTOS/Source/event_groups.c **** 
 718:../../../FreeRTOS/Source/event_groups.c **** #endif
 719:../../../FreeRTOS/Source/event_groups.c **** /*-----------------------------------------------------------*/
 720:../../../FreeRTOS/Source/event_groups.c **** 
 721:../../../FreeRTOS/Source/event_groups.c **** #if (configUSE_TRACE_FACILITY == 1)
 722:../../../FreeRTOS/Source/event_groups.c **** 
 723:../../../FreeRTOS/Source/event_groups.c **** 	UBaseType_t uxEventGroupGetNumber( void* xEventGroup )
 724:../../../FreeRTOS/Source/event_groups.c **** 	{
 1524              		.loc 1 724 2 is_stmt 1 view -0
 1525              		.cfi_startproc
 1526              		@ args = 0, pretend = 0, frame = 0
 1527              		@ frame_needed = 0, uses_anonymous_args = 0
 1528              		@ link register save eliminated.
 725:../../../FreeRTOS/Source/event_groups.c **** 	UBaseType_t xReturn;
 1529              		.loc 1 725 2 view .LVU472
 726:../../../FreeRTOS/Source/event_groups.c **** 	EventGroup_t const *pxEventBits = ( EventGroup_t * ) xEventGroup; /*lint !e9087 !e9079 EventGroupH
 1530              		.loc 1 726 2 view .LVU473
 727:../../../FreeRTOS/Source/event_groups.c **** 
 728:../../../FreeRTOS/Source/event_groups.c **** 		if( xEventGroup == NULL )
 1531              		.loc 1 728 3 view .LVU474
 1532              		.loc 1 728 5 is_stmt 0 view .LVU475
 1533 0000 08B1     		cbz	r0, .L105
 729:../../../FreeRTOS/Source/event_groups.c **** 		{
 730:../../../FreeRTOS/Source/event_groups.c **** 			xReturn = 0;
 731:../../../FreeRTOS/Source/event_groups.c **** 		}
 732:../../../FreeRTOS/Source/event_groups.c **** 		else
 733:../../../FreeRTOS/Source/event_groups.c **** 		{
 734:../../../FreeRTOS/Source/event_groups.c **** 			xReturn = pxEventBits->uxEventGroupNumber;
 1534              		.loc 1 734 4 is_stmt 1 view .LVU476
 1535              		.loc 1 734 12 is_stmt 0 view .LVU477
 1536 0002 8069     		ldr	r0, [r0, #24]
 1537              	.LVL133:
 1538              		.loc 1 734 12 view .LVU478
 1539 0004 7047     		bx	lr
 1540              	.LVL134:
 1541              	.L105:
 730:../../../FreeRTOS/Source/event_groups.c **** 		}
 1542              		.loc 1 730 12 view .LVU479
 1543 0006 0020     		movs	r0, #0
 1544              	.LVL135:
 735:../../../FreeRTOS/Source/event_groups.c **** 		}
 736:../../../FreeRTOS/Source/event_groups.c **** 
 737:../../../FreeRTOS/Source/event_groups.c **** 		return xReturn;
 1545              		.loc 1 737 3 is_stmt 1 view .LVU480
ARM GAS  C:\Users\Jim_YW\AppData\Local\Temp\ccsaULLo.s 			page 52


 738:../../../FreeRTOS/Source/event_groups.c **** 	}
 1546              		.loc 1 738 2 is_stmt 0 view .LVU481
 1547 0008 7047     		bx	lr
 1548              		.cfi_endproc
 1549              	.LFE17:
 1551              		.section	.text.vEventGroupSetNumber,"ax",%progbits
 1552              		.align	1
 1553              		.global	vEventGroupSetNumber
 1554              		.syntax unified
 1555              		.thumb
 1556              		.thumb_func
 1558              	vEventGroupSetNumber:
 1559              	.LVL136:
 1560              	.LFB18:
 739:../../../FreeRTOS/Source/event_groups.c **** 
 740:../../../FreeRTOS/Source/event_groups.c **** #endif /* configUSE_TRACE_FACILITY */
 741:../../../FreeRTOS/Source/event_groups.c **** /*-----------------------------------------------------------*/
 742:../../../FreeRTOS/Source/event_groups.c **** 
 743:../../../FreeRTOS/Source/event_groups.c **** #if ( configUSE_TRACE_FACILITY == 1 )
 744:../../../FreeRTOS/Source/event_groups.c **** 
 745:../../../FreeRTOS/Source/event_groups.c **** 	void vEventGroupSetNumber( void * xEventGroup, UBaseType_t uxEventGroupNumber )
 746:../../../FreeRTOS/Source/event_groups.c **** 	{
 1561              		.loc 1 746 2 is_stmt 1 view -0
 1562              		.cfi_startproc
 1563              		@ args = 0, pretend = 0, frame = 0
 1564              		@ frame_needed = 0, uses_anonymous_args = 0
 1565              		@ link register save eliminated.
 747:../../../FreeRTOS/Source/event_groups.c **** 		( ( EventGroup_t * ) xEventGroup )->uxEventGroupNumber = uxEventGroupNumber; /*lint !e9087 !e9079
 1566              		.loc 1 747 3 view .LVU483
 1567              		.loc 1 747 58 is_stmt 0 view .LVU484
 1568 0000 8161     		str	r1, [r0, #24]
 748:../../../FreeRTOS/Source/event_groups.c **** 	}
 1569              		.loc 1 748 2 view .LVU485
 1570 0002 7047     		bx	lr
 1571              		.cfi_endproc
 1572              	.LFE18:
 1574              		.text
 1575              	.Letext0:
 1576              		.file 3 "c:\\program files (x86)\\gnu arm embedded toolchain\\10 2021.10\\lib\\gcc\\arm-none-eabi\
 1577              		.file 4 "c:\\program files (x86)\\gnu arm embedded toolchain\\10 2021.10\\arm-none-eabi\\include\\
 1578              		.file 5 "c:\\program files (x86)\\gnu arm embedded toolchain\\10 2021.10\\arm-none-eabi\\include\\
 1579              		.file 6 "../../../FreeRTOS/Source/include/FreeRTOS.h"
 1580              		.file 7 "../../../FreeRTOS/Source/include/list.h"
 1581              		.file 8 "../../../FreeRTOS/Source/include/event_groups.h"
 1582              		.file 9 "../../../FreeRTOS/Source/include/timers.h"
 1583              		.file 10 "../../../FreeRTOS/Source/include/task.h"
 1584              		.file 11 "../../../FreeRTOS/Source/include/portable.h"
ARM GAS  C:\Users\Jim_YW\AppData\Local\Temp\ccsaULLo.s 			page 53


DEFINED SYMBOLS
                            *ABS*:00000000 event_groups.c
C:\Users\Jim_YW\AppData\Local\Temp\ccsaULLo.s:20     .text.prvTestWaitCondition:00000000 $t
C:\Users\Jim_YW\AppData\Local\Temp\ccsaULLo.s:25     .text.prvTestWaitCondition:00000000 prvTestWaitCondition
C:\Users\Jim_YW\AppData\Local\Temp\ccsaULLo.s:78     .text.xEventGroupCreateStatic:00000000 $t
C:\Users\Jim_YW\AppData\Local\Temp\ccsaULLo.s:84     .text.xEventGroupCreateStatic:00000000 xEventGroupCreateStatic
C:\Users\Jim_YW\AppData\Local\Temp\ccsaULLo.s:212    .text.xEventGroupCreate:00000000 $t
C:\Users\Jim_YW\AppData\Local\Temp\ccsaULLo.s:218    .text.xEventGroupCreate:00000000 xEventGroupCreate
C:\Users\Jim_YW\AppData\Local\Temp\ccsaULLo.s:264    .text.xEventGroupWaitBits:00000000 $t
C:\Users\Jim_YW\AppData\Local\Temp\ccsaULLo.s:270    .text.xEventGroupWaitBits:00000000 xEventGroupWaitBits
C:\Users\Jim_YW\AppData\Local\Temp\ccsaULLo.s:605    .text.xEventGroupClearBits:00000000 $t
C:\Users\Jim_YW\AppData\Local\Temp\ccsaULLo.s:611    .text.xEventGroupClearBits:00000000 xEventGroupClearBits
C:\Users\Jim_YW\AppData\Local\Temp\ccsaULLo.s:729    .text.vEventGroupClearBitsCallback:00000000 $t
C:\Users\Jim_YW\AppData\Local\Temp\ccsaULLo.s:735    .text.vEventGroupClearBitsCallback:00000000 vEventGroupClearBitsCallback
C:\Users\Jim_YW\AppData\Local\Temp\ccsaULLo.s:758    .text.xEventGroupClearBitsFromISR:00000000 $t
C:\Users\Jim_YW\AppData\Local\Temp\ccsaULLo.s:764    .text.xEventGroupClearBitsFromISR:00000000 xEventGroupClearBitsFromISR
C:\Users\Jim_YW\AppData\Local\Temp\ccsaULLo.s:797    .text.xEventGroupClearBitsFromISR:00000010 $d
C:\Users\Jim_YW\AppData\Local\Temp\ccsaULLo.s:802    .text.xEventGroupGetBitsFromISR:00000000 $t
C:\Users\Jim_YW\AppData\Local\Temp\ccsaULLo.s:808    .text.xEventGroupGetBitsFromISR:00000000 xEventGroupGetBitsFromISR
C:\Users\Jim_YW\AppData\Local\Temp\ccsaULLo.s:869    .text.xEventGroupSetBits:00000000 $t
C:\Users\Jim_YW\AppData\Local\Temp\ccsaULLo.s:875    .text.xEventGroupSetBits:00000000 xEventGroupSetBits
C:\Users\Jim_YW\AppData\Local\Temp\ccsaULLo.s:1068   .text.xEventGroupSync:00000000 $t
C:\Users\Jim_YW\AppData\Local\Temp\ccsaULLo.s:1074   .text.xEventGroupSync:00000000 xEventGroupSync
C:\Users\Jim_YW\AppData\Local\Temp\ccsaULLo.s:1343   .text.vEventGroupSetBitsCallback:00000000 $t
C:\Users\Jim_YW\AppData\Local\Temp\ccsaULLo.s:1349   .text.vEventGroupSetBitsCallback:00000000 vEventGroupSetBitsCallback
C:\Users\Jim_YW\AppData\Local\Temp\ccsaULLo.s:1372   .text.vEventGroupDelete:00000000 $t
C:\Users\Jim_YW\AppData\Local\Temp\ccsaULLo.s:1378   .text.vEventGroupDelete:00000000 vEventGroupDelete
C:\Users\Jim_YW\AppData\Local\Temp\ccsaULLo.s:1469   .text.xEventGroupSetBitsFromISR:00000000 $t
C:\Users\Jim_YW\AppData\Local\Temp\ccsaULLo.s:1475   .text.xEventGroupSetBitsFromISR:00000000 xEventGroupSetBitsFromISR
C:\Users\Jim_YW\AppData\Local\Temp\ccsaULLo.s:1510   .text.xEventGroupSetBitsFromISR:00000010 $d
C:\Users\Jim_YW\AppData\Local\Temp\ccsaULLo.s:1515   .text.uxEventGroupGetNumber:00000000 $t
C:\Users\Jim_YW\AppData\Local\Temp\ccsaULLo.s:1521   .text.uxEventGroupGetNumber:00000000 uxEventGroupGetNumber
C:\Users\Jim_YW\AppData\Local\Temp\ccsaULLo.s:1552   .text.vEventGroupSetNumber:00000000 $t
C:\Users\Jim_YW\AppData\Local\Temp\ccsaULLo.s:1558   .text.vEventGroupSetNumber:00000000 vEventGroupSetNumber

UNDEFINED SYMBOLS
vListInitialise
pvPortMalloc
xTaskGetSchedulerState
vTaskSuspendAll
xTaskResumeAll
uxTaskResetEventItemValue
vTaskPlaceOnUnorderedEventList
vPortEnterCritical
vPortExitCritical
xTimerPendFunctionCallFromISR
vTaskRemoveFromUnorderedEventList
vPortFree
