ARM GAS  C:\Users\Jim_YW\AppData\Local\Temp\cc6xAkYr.s 			page 1


   1              		.cpu cortex-m4
   2              		.arch armv7e-m
   3              		.fpu fpv4-sp-d16
   4              		.eabi_attribute 27, 1
   5              		.eabi_attribute 28, 1
   6              		.eabi_attribute 20, 1
   7              		.eabi_attribute 21, 1
   8              		.eabi_attribute 23, 3
   9              		.eabi_attribute 24, 1
  10              		.eabi_attribute 25, 1
  11              		.eabi_attribute 26, 1
  12              		.eabi_attribute 30, 1
  13              		.eabi_attribute 34, 1
  14              		.eabi_attribute 18, 4
  15              		.file	"ff_gen_drv.c"
  16              		.text
  17              	.Ltext0:
  18              		.cfi_sections	.debug_frame
  19              		.section	.text.FATFS_LinkDriverEx,"ax",%progbits
  20              		.align	1
  21              		.global	FATFS_LinkDriverEx
  22              		.syntax unified
  23              		.thumb
  24              		.thumb_func
  26              	FATFS_LinkDriverEx:
  27              	.LVL0:
  28              	.LFB0:
  29              		.file 1 "../../../FatFs/source/ff_gen_drv.c"
   1:../../../FatFs/source/ff_gen_drv.c **** /**
   2:../../../FatFs/source/ff_gen_drv.c ****   ******************************************************************************
   3:../../../FatFs/source/ff_gen_drv.c ****   * @file    ff_gen_drv.c
   4:../../../FatFs/source/ff_gen_drv.c ****   * @author  MCD Application Team
   5:../../../FatFs/source/ff_gen_drv.c ****   * @brief   FatFs generic low level driver.
   6:../../../FatFs/source/ff_gen_drv.c ****   *****************************************************************************
   7:../../../FatFs/source/ff_gen_drv.c ****   * @attention
   8:../../../FatFs/source/ff_gen_drv.c ****   *
   9:../../../FatFs/source/ff_gen_drv.c ****   * Copyright (c) 2017 STMicroelectronics. All rights reserved.
  10:../../../FatFs/source/ff_gen_drv.c ****   *
  11:../../../FatFs/source/ff_gen_drv.c ****   * This software component is licensed by ST under BSD 3-Clause license,
  12:../../../FatFs/source/ff_gen_drv.c ****   * the "License"; You may not use this file except in compliance with the
  13:../../../FatFs/source/ff_gen_drv.c ****   * License. You may obtain a copy of the License at:
  14:../../../FatFs/source/ff_gen_drv.c ****   *                       opensource.org/licenses/BSD-3-Clause
  15:../../../FatFs/source/ff_gen_drv.c ****   *
  16:../../../FatFs/source/ff_gen_drv.c ****   ******************************************************************************
  17:../../../FatFs/source/ff_gen_drv.c **** **/
  18:../../../FatFs/source/ff_gen_drv.c **** /* Includes ------------------------------------------------------------------*/
  19:../../../FatFs/source/ff_gen_drv.c **** #include "ff_gen_drv.h"
  20:../../../FatFs/source/ff_gen_drv.c **** 
  21:../../../FatFs/source/ff_gen_drv.c **** /* Private typedef -----------------------------------------------------------*/
  22:../../../FatFs/source/ff_gen_drv.c **** /* Private define ------------------------------------------------------------*/
  23:../../../FatFs/source/ff_gen_drv.c **** /* Private variables ---------------------------------------------------------*/
  24:../../../FatFs/source/ff_gen_drv.c **** Disk_drvTypeDef disk = {{0},{0},{0},0};
  25:../../../FatFs/source/ff_gen_drv.c **** 
  26:../../../FatFs/source/ff_gen_drv.c **** /* Private function prototypes -----------------------------------------------*/
  27:../../../FatFs/source/ff_gen_drv.c **** /* Private functions ---------------------------------------------------------*/
  28:../../../FatFs/source/ff_gen_drv.c **** 
  29:../../../FatFs/source/ff_gen_drv.c **** /**
ARM GAS  C:\Users\Jim_YW\AppData\Local\Temp\cc6xAkYr.s 			page 2


  30:../../../FatFs/source/ff_gen_drv.c ****   * @brief  Links a compatible diskio driver/lun id and increments the number of active
  31:../../../FatFs/source/ff_gen_drv.c ****   *         linked drivers.
  32:../../../FatFs/source/ff_gen_drv.c ****   * @note   The number of linked drivers (volumes) is up to 10 due to FatFs limits.
  33:../../../FatFs/source/ff_gen_drv.c ****   * @param  drv: pointer to the disk IO Driver structure
  34:../../../FatFs/source/ff_gen_drv.c ****   * @param  path: pointer to the logical drive path
  35:../../../FatFs/source/ff_gen_drv.c ****   * @param  lun : only used for USB Key Disk to add multi-lun management
  36:../../../FatFs/source/ff_gen_drv.c ****             else the parameter must be equal to 0
  37:../../../FatFs/source/ff_gen_drv.c ****   * @retval Returns 0 in case of success, otherwise 1.
  38:../../../FatFs/source/ff_gen_drv.c ****   */
  39:../../../FatFs/source/ff_gen_drv.c **** uint8_t FATFS_LinkDriverEx(const Diskio_drvTypeDef *drv, char *path, uint8_t lun)
  40:../../../FatFs/source/ff_gen_drv.c **** {
  30              		.loc 1 40 1 view -0
  31              		.cfi_startproc
  32              		@ args = 0, pretend = 0, frame = 0
  33              		@ frame_needed = 0, uses_anonymous_args = 0
  34              		@ link register save eliminated.
  41:../../../FatFs/source/ff_gen_drv.c ****   uint8_t ret = 1;
  35              		.loc 1 41 3 view .LVU1
  42:../../../FatFs/source/ff_gen_drv.c ****   uint8_t DiskNum = 0;
  36              		.loc 1 42 3 view .LVU2
  43:../../../FatFs/source/ff_gen_drv.c **** 
  44:../../../FatFs/source/ff_gen_drv.c ****   if(disk.nbr < FF_VOLUMES)
  37              		.loc 1 44 3 view .LVU3
  38              		.loc 1 44 10 is_stmt 0 view .LVU4
  39 0000 134B     		ldr	r3, .L8
  40 0002 DB7C     		ldrb	r3, [r3, #19]	@ zero_extendqisi2
  41 0004 DBB2     		uxtb	r3, r3
  42              		.loc 1 44 5 view .LVU5
  43 0006 022B     		cmp	r3, #2
  44 0008 20D8     		bhi	.L3
  40:../../../FatFs/source/ff_gen_drv.c ****   uint8_t ret = 1;
  45              		.loc 1 40 1 view .LVU6
  46 000a 10B4     		push	{r4}
  47              	.LCFI0:
  48              		.cfi_def_cfa_offset 4
  49              		.cfi_offset 4, -4
  50 000c 0446     		mov	r4, r0
  45:../../../FatFs/source/ff_gen_drv.c ****   {
  46:../../../FatFs/source/ff_gen_drv.c ****     disk.is_initialized[disk.nbr] = 0;
  51              		.loc 1 46 5 is_stmt 1 view .LVU7
  52              		.loc 1 46 29 is_stmt 0 view .LVU8
  53 000e 104B     		ldr	r3, .L8
  54 0010 93F813C0 		ldrb	ip, [r3, #19]	@ zero_extendqisi2
  55 0014 5FFA8CFC 		uxtb	ip, ip
  56              		.loc 1 46 35 view .LVU9
  57 0018 0020     		movs	r0, #0
  58              	.LVL1:
  59              		.loc 1 46 35 view .LVU10
  60 001a 03F80C00 		strb	r0, [r3, ip]
  47:../../../FatFs/source/ff_gen_drv.c ****     disk.drv[disk.nbr] = drv;
  61              		.loc 1 47 5 is_stmt 1 view .LVU11
  62              		.loc 1 47 18 is_stmt 0 view .LVU12
  63 001e 93F813C0 		ldrb	ip, [r3, #19]	@ zero_extendqisi2
  64              		.loc 1 47 24 view .LVU13
  65 0022 03EB8C0C 		add	ip, r3, ip, lsl #2
  66 0026 CCF80440 		str	r4, [ip, #4]
  48:../../../FatFs/source/ff_gen_drv.c ****     disk.lun[disk.nbr] = lun;
ARM GAS  C:\Users\Jim_YW\AppData\Local\Temp\cc6xAkYr.s 			page 3


  67              		.loc 1 48 5 is_stmt 1 view .LVU14
  68              		.loc 1 48 18 is_stmt 0 view .LVU15
  69 002a DC7C     		ldrb	r4, [r3, #19]	@ zero_extendqisi2
  70              	.LVL2:
  71              		.loc 1 48 24 view .LVU16
  72 002c 1C44     		add	r4, r4, r3
  73 002e 2274     		strb	r2, [r4, #16]
  49:../../../FatFs/source/ff_gen_drv.c ****     DiskNum = disk.nbr++;
  74              		.loc 1 49 5 is_stmt 1 view .LVU17
  75              		.loc 1 49 19 is_stmt 0 view .LVU18
  76 0030 DA7C     		ldrb	r2, [r3, #19]	@ zero_extendqisi2
  77              	.LVL3:
  78              		.loc 1 49 23 view .LVU19
  79 0032 541C     		adds	r4, r2, #1
  80              	.LVL4:
  81              		.loc 1 49 23 view .LVU20
  82 0034 E4B2     		uxtb	r4, r4
  83 0036 DC74     		strb	r4, [r3, #19]
  84              	.LVL5:
  50:../../../FatFs/source/ff_gen_drv.c ****     path[0] = DiskNum + '0';
  85              		.loc 1 50 5 is_stmt 1 view .LVU21
  86              		.loc 1 50 23 is_stmt 0 view .LVU22
  87 0038 3032     		adds	r2, r2, #48
  88              	.LVL6:
  89              		.loc 1 50 13 view .LVU23
  90 003a 0A70     		strb	r2, [r1]
  91              	.LVL7:
  51:../../../FatFs/source/ff_gen_drv.c ****     path[1] = ':';
  92              		.loc 1 51 5 is_stmt 1 view .LVU24
  93              		.loc 1 51 13 is_stmt 0 view .LVU25
  94 003c 3A23     		movs	r3, #58
  95 003e 4B70     		strb	r3, [r1, #1]
  52:../../../FatFs/source/ff_gen_drv.c ****     path[2] = '/';
  96              		.loc 1 52 5 is_stmt 1 view .LVU26
  97              		.loc 1 52 13 is_stmt 0 view .LVU27
  98 0040 2F23     		movs	r3, #47
  99 0042 8B70     		strb	r3, [r1, #2]
  53:../../../FatFs/source/ff_gen_drv.c ****     path[3] = 0;
 100              		.loc 1 53 5 is_stmt 1 view .LVU28
 101              		.loc 1 53 13 is_stmt 0 view .LVU29
 102 0044 C870     		strb	r0, [r1, #3]
  54:../../../FatFs/source/ff_gen_drv.c ****     ret = 0;
 103              		.loc 1 54 5 is_stmt 1 view .LVU30
 104              	.LVL8:
  55:../../../FatFs/source/ff_gen_drv.c ****   }
  56:../../../FatFs/source/ff_gen_drv.c **** 
  57:../../../FatFs/source/ff_gen_drv.c ****   return ret;
 105              		.loc 1 57 3 view .LVU31
  58:../../../FatFs/source/ff_gen_drv.c **** }
 106              		.loc 1 58 1 is_stmt 0 view .LVU32
 107 0046 5DF8044B 		ldr	r4, [sp], #4
 108              	.LCFI1:
 109              		.cfi_restore 4
 110              		.cfi_def_cfa_offset 0
 111 004a 7047     		bx	lr
 112              	.LVL9:
 113              	.L3:
ARM GAS  C:\Users\Jim_YW\AppData\Local\Temp\cc6xAkYr.s 			page 4


  41:../../../FatFs/source/ff_gen_drv.c ****   uint8_t DiskNum = 0;
 114              		.loc 1 41 11 view .LVU33
 115 004c 0120     		movs	r0, #1
 116              	.LVL10:
  57:../../../FatFs/source/ff_gen_drv.c **** }
 117              		.loc 1 57 3 is_stmt 1 view .LVU34
 118              		.loc 1 58 1 is_stmt 0 view .LVU35
 119 004e 7047     		bx	lr
 120              	.L9:
 121              		.align	2
 122              	.L8:
 123 0050 00000000 		.word	.LANCHOR0
 124              		.cfi_endproc
 125              	.LFE0:
 127              		.section	.text.FATFS_LinkDriver,"ax",%progbits
 128              		.align	1
 129              		.global	FATFS_LinkDriver
 130              		.syntax unified
 131              		.thumb
 132              		.thumb_func
 134              	FATFS_LinkDriver:
 135              	.LVL11:
 136              	.LFB1:
  59:../../../FatFs/source/ff_gen_drv.c **** 
  60:../../../FatFs/source/ff_gen_drv.c **** /**
  61:../../../FatFs/source/ff_gen_drv.c ****   * @brief  Links a compatible diskio driver and increments the number of active
  62:../../../FatFs/source/ff_gen_drv.c ****   *         linked drivers.
  63:../../../FatFs/source/ff_gen_drv.c ****   * @note   The number of linked drivers (volumes) is up to 10 due to FatFs limits
  64:../../../FatFs/source/ff_gen_drv.c ****   * @param  drv: pointer to the disk IO Driver structure
  65:../../../FatFs/source/ff_gen_drv.c ****   * @param  path: pointer to the logical drive path
  66:../../../FatFs/source/ff_gen_drv.c ****   * @retval Returns 0 in case of success, otherwise 1.
  67:../../../FatFs/source/ff_gen_drv.c ****   */
  68:../../../FatFs/source/ff_gen_drv.c **** uint8_t FATFS_LinkDriver(const Diskio_drvTypeDef *drv, char *path)
  69:../../../FatFs/source/ff_gen_drv.c **** {
 137              		.loc 1 69 1 is_stmt 1 view -0
 138              		.cfi_startproc
 139              		@ args = 0, pretend = 0, frame = 0
 140              		@ frame_needed = 0, uses_anonymous_args = 0
 141              		.loc 1 69 1 is_stmt 0 view .LVU37
 142 0000 08B5     		push	{r3, lr}
 143              	.LCFI2:
 144              		.cfi_def_cfa_offset 8
 145              		.cfi_offset 3, -8
 146              		.cfi_offset 14, -4
  70:../../../FatFs/source/ff_gen_drv.c ****   return FATFS_LinkDriverEx(drv, path, 0);
 147              		.loc 1 70 3 is_stmt 1 view .LVU38
 148              		.loc 1 70 10 is_stmt 0 view .LVU39
 149 0002 0022     		movs	r2, #0
 150 0004 FFF7FEFF 		bl	FATFS_LinkDriverEx
 151              	.LVL12:
  71:../../../FatFs/source/ff_gen_drv.c **** }
 152              		.loc 1 71 1 view .LVU40
 153 0008 08BD     		pop	{r3, pc}
 154              		.cfi_endproc
 155              	.LFE1:
 157              		.section	.text.FATFS_UnLinkDriverEx,"ax",%progbits
 158              		.align	1
ARM GAS  C:\Users\Jim_YW\AppData\Local\Temp\cc6xAkYr.s 			page 5


 159              		.global	FATFS_UnLinkDriverEx
 160              		.syntax unified
 161              		.thumb
 162              		.thumb_func
 164              	FATFS_UnLinkDriverEx:
 165              	.LVL13:
 166              	.LFB2:
  72:../../../FatFs/source/ff_gen_drv.c **** 
  73:../../../FatFs/source/ff_gen_drv.c **** /**
  74:../../../FatFs/source/ff_gen_drv.c ****   * @brief  Unlinks a diskio driver and decrements the number of active linked
  75:../../../FatFs/source/ff_gen_drv.c ****   *         drivers.
  76:../../../FatFs/source/ff_gen_drv.c ****   * @param  path: pointer to the logical drive path
  77:../../../FatFs/source/ff_gen_drv.c ****   * @param  lun : not used
  78:../../../FatFs/source/ff_gen_drv.c ****   * @retval Returns 0 in case of success, otherwise 1.
  79:../../../FatFs/source/ff_gen_drv.c ****   */
  80:../../../FatFs/source/ff_gen_drv.c **** uint8_t FATFS_UnLinkDriverEx(char *path, uint8_t lun)
  81:../../../FatFs/source/ff_gen_drv.c **** {
 167              		.loc 1 81 1 is_stmt 1 view -0
 168              		.cfi_startproc
 169              		@ args = 0, pretend = 0, frame = 0
 170              		@ frame_needed = 0, uses_anonymous_args = 0
 171              		@ link register save eliminated.
  82:../../../FatFs/source/ff_gen_drv.c ****   uint8_t DiskNum = 0;
 172              		.loc 1 82 3 view .LVU42
  83:../../../FatFs/source/ff_gen_drv.c ****   uint8_t ret = 1;
 173              		.loc 1 83 3 view .LVU43
  84:../../../FatFs/source/ff_gen_drv.c **** 
  85:../../../FatFs/source/ff_gen_drv.c ****   if(disk.nbr >= 1)
 174              		.loc 1 85 3 view .LVU44
 175              		.loc 1 85 10 is_stmt 0 view .LVU45
 176 0000 0D4B     		ldr	r3, .L16
 177 0002 DB7C     		ldrb	r3, [r3, #19]	@ zero_extendqisi2
 178              		.loc 1 85 5 view .LVU46
 179 0004 9BB1     		cbz	r3, .L14
  86:../../../FatFs/source/ff_gen_drv.c ****   {
  87:../../../FatFs/source/ff_gen_drv.c ****     DiskNum = path[0] - '0';
 180              		.loc 1 87 5 is_stmt 1 view .LVU47
 181              		.loc 1 87 19 is_stmt 0 view .LVU48
 182 0006 0378     		ldrb	r3, [r0]	@ zero_extendqisi2
 183              		.loc 1 87 13 view .LVU49
 184 0008 303B     		subs	r3, r3, #48
 185 000a DBB2     		uxtb	r3, r3
 186              	.LVL14:
  88:../../../FatFs/source/ff_gen_drv.c ****     if(disk.drv[DiskNum] != 0)
 187              		.loc 1 88 5 is_stmt 1 view .LVU50
 188              		.loc 1 88 16 is_stmt 0 view .LVU51
 189 000c 0A4A     		ldr	r2, .L16
 190 000e 02EB8302 		add	r2, r2, r3, lsl #2
 191 0012 5268     		ldr	r2, [r2, #4]
 192              		.loc 1 88 7 view .LVU52
 193 0014 6AB1     		cbz	r2, .L15
  89:../../../FatFs/source/ff_gen_drv.c ****     {
  90:../../../FatFs/source/ff_gen_drv.c ****       disk.drv[DiskNum] = 0;
 194              		.loc 1 90 7 is_stmt 1 view .LVU53
 195              		.loc 1 90 25 is_stmt 0 view .LVU54
 196 0016 084A     		ldr	r2, .L16
 197 0018 02EB8301 		add	r1, r2, r3, lsl #2
ARM GAS  C:\Users\Jim_YW\AppData\Local\Temp\cc6xAkYr.s 			page 6


 198              	.LVL15:
 199              		.loc 1 90 25 view .LVU55
 200 001c 0020     		movs	r0, #0
 201              	.LVL16:
 202              		.loc 1 90 25 view .LVU56
 203 001e 4860     		str	r0, [r1, #4]
  91:../../../FatFs/source/ff_gen_drv.c ****       disk.lun[DiskNum] = 0;
 204              		.loc 1 91 7 is_stmt 1 view .LVU57
 205              		.loc 1 91 25 is_stmt 0 view .LVU58
 206 0020 1344     		add	r3, r3, r2
 207 0022 1874     		strb	r0, [r3, #16]
  92:../../../FatFs/source/ff_gen_drv.c ****       disk.nbr--;
 208              		.loc 1 92 7 is_stmt 1 view .LVU59
 209              		.loc 1 92 11 is_stmt 0 view .LVU60
 210 0024 D37C     		ldrb	r3, [r2, #19]	@ zero_extendqisi2
 211              		.loc 1 92 15 view .LVU61
 212 0026 013B     		subs	r3, r3, #1
 213 0028 DBB2     		uxtb	r3, r3
 214 002a D374     		strb	r3, [r2, #19]
  93:../../../FatFs/source/ff_gen_drv.c ****       ret = 0;
 215              		.loc 1 93 7 is_stmt 1 view .LVU62
 216              	.LVL17:
 217              		.loc 1 93 7 is_stmt 0 view .LVU63
 218 002c 7047     		bx	lr
 219              	.LVL18:
 220              	.L14:
  83:../../../FatFs/source/ff_gen_drv.c **** 
 221              		.loc 1 83 11 view .LVU64
 222 002e 0120     		movs	r0, #1
 223              	.LVL19:
  83:../../../FatFs/source/ff_gen_drv.c **** 
 224              		.loc 1 83 11 view .LVU65
 225 0030 7047     		bx	lr
 226              	.LVL20:
 227              	.L15:
  83:../../../FatFs/source/ff_gen_drv.c **** 
 228              		.loc 1 83 11 view .LVU66
 229 0032 0120     		movs	r0, #1
 230              	.LVL21:
  94:../../../FatFs/source/ff_gen_drv.c ****     }
  95:../../../FatFs/source/ff_gen_drv.c ****   }
  96:../../../FatFs/source/ff_gen_drv.c **** 
  97:../../../FatFs/source/ff_gen_drv.c ****   return ret;
 231              		.loc 1 97 3 is_stmt 1 view .LVU67
  98:../../../FatFs/source/ff_gen_drv.c **** }
 232              		.loc 1 98 1 is_stmt 0 view .LVU68
 233 0034 7047     		bx	lr
 234              	.L17:
 235 0036 00BF     		.align	2
 236              	.L16:
 237 0038 00000000 		.word	.LANCHOR0
 238              		.cfi_endproc
 239              	.LFE2:
 241              		.section	.text.FATFS_UnLinkDriver,"ax",%progbits
 242              		.align	1
 243              		.global	FATFS_UnLinkDriver
 244              		.syntax unified
ARM GAS  C:\Users\Jim_YW\AppData\Local\Temp\cc6xAkYr.s 			page 7


 245              		.thumb
 246              		.thumb_func
 248              	FATFS_UnLinkDriver:
 249              	.LVL22:
 250              	.LFB3:
  99:../../../FatFs/source/ff_gen_drv.c **** 
 100:../../../FatFs/source/ff_gen_drv.c **** /**
 101:../../../FatFs/source/ff_gen_drv.c ****   * @brief  Unlinks a diskio driver and decrements the number of active linked
 102:../../../FatFs/source/ff_gen_drv.c ****   *         drivers.
 103:../../../FatFs/source/ff_gen_drv.c ****   * @param  path: pointer to the logical drive path
 104:../../../FatFs/source/ff_gen_drv.c ****   * @retval Returns 0 in case of success, otherwise 1.
 105:../../../FatFs/source/ff_gen_drv.c ****   */
 106:../../../FatFs/source/ff_gen_drv.c **** uint8_t FATFS_UnLinkDriver(char *path)
 107:../../../FatFs/source/ff_gen_drv.c **** {
 251              		.loc 1 107 1 is_stmt 1 view -0
 252              		.cfi_startproc
 253              		@ args = 0, pretend = 0, frame = 0
 254              		@ frame_needed = 0, uses_anonymous_args = 0
 255              		.loc 1 107 1 is_stmt 0 view .LVU70
 256 0000 08B5     		push	{r3, lr}
 257              	.LCFI3:
 258              		.cfi_def_cfa_offset 8
 259              		.cfi_offset 3, -8
 260              		.cfi_offset 14, -4
 108:../../../FatFs/source/ff_gen_drv.c ****   return FATFS_UnLinkDriverEx(path, 0);
 261              		.loc 1 108 3 is_stmt 1 view .LVU71
 262              		.loc 1 108 10 is_stmt 0 view .LVU72
 263 0002 0021     		movs	r1, #0
 264 0004 FFF7FEFF 		bl	FATFS_UnLinkDriverEx
 265              	.LVL23:
 109:../../../FatFs/source/ff_gen_drv.c **** }
 266              		.loc 1 109 1 view .LVU73
 267 0008 08BD     		pop	{r3, pc}
 268              		.cfi_endproc
 269              	.LFE3:
 271              		.section	.text.FATFS_GetAttachedDriversNbr,"ax",%progbits
 272              		.align	1
 273              		.global	FATFS_GetAttachedDriversNbr
 274              		.syntax unified
 275              		.thumb
 276              		.thumb_func
 278              	FATFS_GetAttachedDriversNbr:
 279              	.LFB4:
 110:../../../FatFs/source/ff_gen_drv.c **** 
 111:../../../FatFs/source/ff_gen_drv.c **** /**
 112:../../../FatFs/source/ff_gen_drv.c ****   * @brief  Gets number of linked drivers to the FatFs module.
 113:../../../FatFs/source/ff_gen_drv.c ****   * @param  None
 114:../../../FatFs/source/ff_gen_drv.c ****   * @retval Number of attached drivers.
 115:../../../FatFs/source/ff_gen_drv.c ****   */
 116:../../../FatFs/source/ff_gen_drv.c **** uint8_t FATFS_GetAttachedDriversNbr(void)
 117:../../../FatFs/source/ff_gen_drv.c **** {
 280              		.loc 1 117 1 is_stmt 1 view -0
 281              		.cfi_startproc
 282              		@ args = 0, pretend = 0, frame = 0
 283              		@ frame_needed = 0, uses_anonymous_args = 0
 284              		@ link register save eliminated.
 118:../../../FatFs/source/ff_gen_drv.c ****   return disk.nbr;
ARM GAS  C:\Users\Jim_YW\AppData\Local\Temp\cc6xAkYr.s 			page 8


 285              		.loc 1 118 3 view .LVU75
 286              		.loc 1 118 14 is_stmt 0 view .LVU76
 287 0000 014B     		ldr	r3, .L21
 288 0002 D87C     		ldrb	r0, [r3, #19]	@ zero_extendqisi2
 119:../../../FatFs/source/ff_gen_drv.c **** }
 289              		.loc 1 119 1 view .LVU77
 290 0004 7047     		bx	lr
 291              	.L22:
 292 0006 00BF     		.align	2
 293              	.L21:
 294 0008 00000000 		.word	.LANCHOR0
 295              		.cfi_endproc
 296              	.LFE4:
 298              		.global	disk
 299              		.section	.bss.disk,"aw",%nobits
 300              		.align	2
 301              		.set	.LANCHOR0,. + 0
 304              	disk:
 305 0000 00000000 		.space	20
 305      00000000 
 305      00000000 
 305      00000000 
 305      00000000 
 306              		.text
 307              	.Letext0:
 308              		.file 2 "c:\\program files (x86)\\gnu arm embedded toolchain\\10 2021.10\\arm-none-eabi\\include\\
 309              		.file 3 "c:\\program files (x86)\\gnu arm embedded toolchain\\10 2021.10\\arm-none-eabi\\include\\
 310              		.file 4 "../../../FatFs/source/ff.h"
 311              		.file 5 "../../../FatFs/source/diskio.h"
 312              		.file 6 "../../../FatFs/source/ff_gen_drv.h"
ARM GAS  C:\Users\Jim_YW\AppData\Local\Temp\cc6xAkYr.s 			page 9


DEFINED SYMBOLS
                            *ABS*:00000000 ff_gen_drv.c
C:\Users\Jim_YW\AppData\Local\Temp\cc6xAkYr.s:20     .text.FATFS_LinkDriverEx:00000000 $t
C:\Users\Jim_YW\AppData\Local\Temp\cc6xAkYr.s:26     .text.FATFS_LinkDriverEx:00000000 FATFS_LinkDriverEx
C:\Users\Jim_YW\AppData\Local\Temp\cc6xAkYr.s:123    .text.FATFS_LinkDriverEx:00000050 $d
C:\Users\Jim_YW\AppData\Local\Temp\cc6xAkYr.s:128    .text.FATFS_LinkDriver:00000000 $t
C:\Users\Jim_YW\AppData\Local\Temp\cc6xAkYr.s:134    .text.FATFS_LinkDriver:00000000 FATFS_LinkDriver
C:\Users\Jim_YW\AppData\Local\Temp\cc6xAkYr.s:158    .text.FATFS_UnLinkDriverEx:00000000 $t
C:\Users\Jim_YW\AppData\Local\Temp\cc6xAkYr.s:164    .text.FATFS_UnLinkDriverEx:00000000 FATFS_UnLinkDriverEx
C:\Users\Jim_YW\AppData\Local\Temp\cc6xAkYr.s:237    .text.FATFS_UnLinkDriverEx:00000038 $d
C:\Users\Jim_YW\AppData\Local\Temp\cc6xAkYr.s:242    .text.FATFS_UnLinkDriver:00000000 $t
C:\Users\Jim_YW\AppData\Local\Temp\cc6xAkYr.s:248    .text.FATFS_UnLinkDriver:00000000 FATFS_UnLinkDriver
C:\Users\Jim_YW\AppData\Local\Temp\cc6xAkYr.s:272    .text.FATFS_GetAttachedDriversNbr:00000000 $t
C:\Users\Jim_YW\AppData\Local\Temp\cc6xAkYr.s:278    .text.FATFS_GetAttachedDriversNbr:00000000 FATFS_GetAttachedDriversNbr
C:\Users\Jim_YW\AppData\Local\Temp\cc6xAkYr.s:294    .text.FATFS_GetAttachedDriversNbr:00000008 $d
C:\Users\Jim_YW\AppData\Local\Temp\cc6xAkYr.s:304    .bss.disk:00000000 disk
C:\Users\Jim_YW\AppData\Local\Temp\cc6xAkYr.s:300    .bss.disk:00000000 $d

NO UNDEFINED SYMBOLS
