ARM GAS  C:\Users\Jim_YW\AppData\Local\Temp\cc86CmOl.s 			page 1


   1              		.cpu cortex-m4
   2              		.arch armv7e-m
   3              		.fpu fpv4-sp-d16
   4              		.eabi_attribute 27, 1
   5              		.eabi_attribute 28, 1
   6              		.eabi_attribute 20, 1
   7              		.eabi_attribute 21, 1
   8              		.eabi_attribute 23, 3
   9              		.eabi_attribute 24, 1
  10              		.eabi_attribute 25, 1
  11              		.eabi_attribute 26, 1
  12              		.eabi_attribute 30, 1
  13              		.eabi_attribute 34, 1
  14              		.eabi_attribute 18, 4
  15              		.file	"usbd_ctlreq.c"
  16              		.text
  17              	.Ltext0:
  18              		.cfi_sections	.debug_frame
  19              		.section	.text.USBD_GetLen,"ax",%progbits
  20              		.align	1
  21              		.syntax unified
  22              		.thumb
  23              		.thumb_func
  25              	USBD_GetLen:
  26              	.LVL0:
  27              	.LFB147:
  28              		.file 1 "USBLIB/Core/Src/usbd_ctlreq.c"
   1:USBLIB/Core/Src/usbd_ctlreq.c **** /**
   2:USBLIB/Core/Src/usbd_ctlreq.c ****   ******************************************************************************
   3:USBLIB/Core/Src/usbd_ctlreq.c ****   * @file    usbd_req.c
   4:USBLIB/Core/Src/usbd_ctlreq.c ****   * @author  MCD Application Team
   5:USBLIB/Core/Src/usbd_ctlreq.c ****   * @brief   This file provides the standard USB requests following chapter 9.
   6:USBLIB/Core/Src/usbd_ctlreq.c ****   ******************************************************************************
   7:USBLIB/Core/Src/usbd_ctlreq.c ****   * @attention
   8:USBLIB/Core/Src/usbd_ctlreq.c ****   *
   9:USBLIB/Core/Src/usbd_ctlreq.c ****   * Copyright (c) 2015 STMicroelectronics.
  10:USBLIB/Core/Src/usbd_ctlreq.c ****   * All rights reserved.
  11:USBLIB/Core/Src/usbd_ctlreq.c ****   *
  12:USBLIB/Core/Src/usbd_ctlreq.c ****   * This software is licensed under terms that can be found in the LICENSE file
  13:USBLIB/Core/Src/usbd_ctlreq.c ****   * in the root directory of this software component.
  14:USBLIB/Core/Src/usbd_ctlreq.c ****   * If no LICENSE file comes with this software, it is provided AS-IS.
  15:USBLIB/Core/Src/usbd_ctlreq.c ****   *
  16:USBLIB/Core/Src/usbd_ctlreq.c ****   ******************************************************************************
  17:USBLIB/Core/Src/usbd_ctlreq.c ****   */
  18:USBLIB/Core/Src/usbd_ctlreq.c **** 
  19:USBLIB/Core/Src/usbd_ctlreq.c **** /* Includes ------------------------------------------------------------------*/
  20:USBLIB/Core/Src/usbd_ctlreq.c **** #include "usbd_ctlreq.h"
  21:USBLIB/Core/Src/usbd_ctlreq.c **** #include "usbd_ioreq.h"
  22:USBLIB/Core/Src/usbd_ctlreq.c **** 
  23:USBLIB/Core/Src/usbd_ctlreq.c **** #ifdef USE_USBD_COMPOSITE
  24:USBLIB/Core/Src/usbd_ctlreq.c **** #include "usbd_composite_builder.h"
  25:USBLIB/Core/Src/usbd_ctlreq.c **** #endif /* USE_USBD_COMPOSITE */
  26:USBLIB/Core/Src/usbd_ctlreq.c **** 
  27:USBLIB/Core/Src/usbd_ctlreq.c **** /** @addtogroup STM32_USBD_STATE_DEVICE_LIBRARY
  28:USBLIB/Core/Src/usbd_ctlreq.c ****   * @{
  29:USBLIB/Core/Src/usbd_ctlreq.c ****   */
  30:USBLIB/Core/Src/usbd_ctlreq.c **** 
ARM GAS  C:\Users\Jim_YW\AppData\Local\Temp\cc86CmOl.s 			page 2


  31:USBLIB/Core/Src/usbd_ctlreq.c **** 
  32:USBLIB/Core/Src/usbd_ctlreq.c **** /** @defgroup USBD_REQ
  33:USBLIB/Core/Src/usbd_ctlreq.c ****   * @brief USB standard requests module
  34:USBLIB/Core/Src/usbd_ctlreq.c ****   * @{
  35:USBLIB/Core/Src/usbd_ctlreq.c ****   */
  36:USBLIB/Core/Src/usbd_ctlreq.c **** 
  37:USBLIB/Core/Src/usbd_ctlreq.c **** /** @defgroup USBD_REQ_Private_TypesDefinitions
  38:USBLIB/Core/Src/usbd_ctlreq.c ****   * @{
  39:USBLIB/Core/Src/usbd_ctlreq.c ****   */
  40:USBLIB/Core/Src/usbd_ctlreq.c **** 
  41:USBLIB/Core/Src/usbd_ctlreq.c **** /**
  42:USBLIB/Core/Src/usbd_ctlreq.c ****   * @}
  43:USBLIB/Core/Src/usbd_ctlreq.c ****   */
  44:USBLIB/Core/Src/usbd_ctlreq.c **** 
  45:USBLIB/Core/Src/usbd_ctlreq.c **** 
  46:USBLIB/Core/Src/usbd_ctlreq.c **** /** @defgroup USBD_REQ_Private_Defines
  47:USBLIB/Core/Src/usbd_ctlreq.c ****   * @{
  48:USBLIB/Core/Src/usbd_ctlreq.c ****   */
  49:USBLIB/Core/Src/usbd_ctlreq.c **** 
  50:USBLIB/Core/Src/usbd_ctlreq.c **** /**
  51:USBLIB/Core/Src/usbd_ctlreq.c ****   * @}
  52:USBLIB/Core/Src/usbd_ctlreq.c ****   */
  53:USBLIB/Core/Src/usbd_ctlreq.c **** 
  54:USBLIB/Core/Src/usbd_ctlreq.c **** 
  55:USBLIB/Core/Src/usbd_ctlreq.c **** /** @defgroup USBD_REQ_Private_Macros
  56:USBLIB/Core/Src/usbd_ctlreq.c ****   * @{
  57:USBLIB/Core/Src/usbd_ctlreq.c ****   */
  58:USBLIB/Core/Src/usbd_ctlreq.c **** 
  59:USBLIB/Core/Src/usbd_ctlreq.c **** /**
  60:USBLIB/Core/Src/usbd_ctlreq.c ****   * @}
  61:USBLIB/Core/Src/usbd_ctlreq.c ****   */
  62:USBLIB/Core/Src/usbd_ctlreq.c **** 
  63:USBLIB/Core/Src/usbd_ctlreq.c **** 
  64:USBLIB/Core/Src/usbd_ctlreq.c **** /** @defgroup USBD_REQ_Private_Variables
  65:USBLIB/Core/Src/usbd_ctlreq.c ****   * @{
  66:USBLIB/Core/Src/usbd_ctlreq.c ****   */
  67:USBLIB/Core/Src/usbd_ctlreq.c **** 
  68:USBLIB/Core/Src/usbd_ctlreq.c **** /**
  69:USBLIB/Core/Src/usbd_ctlreq.c ****   * @}
  70:USBLIB/Core/Src/usbd_ctlreq.c ****   */
  71:USBLIB/Core/Src/usbd_ctlreq.c **** 
  72:USBLIB/Core/Src/usbd_ctlreq.c **** 
  73:USBLIB/Core/Src/usbd_ctlreq.c **** /** @defgroup USBD_REQ_Private_FunctionPrototypes
  74:USBLIB/Core/Src/usbd_ctlreq.c ****   * @{
  75:USBLIB/Core/Src/usbd_ctlreq.c ****   */
  76:USBLIB/Core/Src/usbd_ctlreq.c **** static void USBD_GetDescriptor(USBD_HandleTypeDef *pdev, USBD_SetupReqTypedef *req);
  77:USBLIB/Core/Src/usbd_ctlreq.c **** static void USBD_SetAddress(USBD_HandleTypeDef *pdev, USBD_SetupReqTypedef *req);
  78:USBLIB/Core/Src/usbd_ctlreq.c **** static USBD_StatusTypeDef USBD_SetConfig(USBD_HandleTypeDef *pdev, USBD_SetupReqTypedef *req);
  79:USBLIB/Core/Src/usbd_ctlreq.c **** static void USBD_GetConfig(USBD_HandleTypeDef *pdev, USBD_SetupReqTypedef *req);
  80:USBLIB/Core/Src/usbd_ctlreq.c **** static void USBD_GetStatus(USBD_HandleTypeDef *pdev, USBD_SetupReqTypedef *req);
  81:USBLIB/Core/Src/usbd_ctlreq.c **** static void USBD_SetFeature(USBD_HandleTypeDef *pdev, USBD_SetupReqTypedef *req);
  82:USBLIB/Core/Src/usbd_ctlreq.c **** static void USBD_ClrFeature(USBD_HandleTypeDef *pdev, USBD_SetupReqTypedef *req);
  83:USBLIB/Core/Src/usbd_ctlreq.c **** static uint8_t USBD_GetLen(uint8_t *buf);
  84:USBLIB/Core/Src/usbd_ctlreq.c **** 
  85:USBLIB/Core/Src/usbd_ctlreq.c **** /**
  86:USBLIB/Core/Src/usbd_ctlreq.c ****   * @}
  87:USBLIB/Core/Src/usbd_ctlreq.c ****   */
ARM GAS  C:\Users\Jim_YW\AppData\Local\Temp\cc86CmOl.s 			page 3


  88:USBLIB/Core/Src/usbd_ctlreq.c **** 
  89:USBLIB/Core/Src/usbd_ctlreq.c **** 
  90:USBLIB/Core/Src/usbd_ctlreq.c **** /** @defgroup USBD_REQ_Private_Functions
  91:USBLIB/Core/Src/usbd_ctlreq.c ****   * @{
  92:USBLIB/Core/Src/usbd_ctlreq.c ****   */
  93:USBLIB/Core/Src/usbd_ctlreq.c **** 
  94:USBLIB/Core/Src/usbd_ctlreq.c **** 
  95:USBLIB/Core/Src/usbd_ctlreq.c **** /**
  96:USBLIB/Core/Src/usbd_ctlreq.c ****   * @brief  USBD_StdDevReq
  97:USBLIB/Core/Src/usbd_ctlreq.c ****   *         Handle standard usb device requests
  98:USBLIB/Core/Src/usbd_ctlreq.c ****   * @param  pdev: device instance
  99:USBLIB/Core/Src/usbd_ctlreq.c ****   * @param  req: usb request
 100:USBLIB/Core/Src/usbd_ctlreq.c ****   * @retval status
 101:USBLIB/Core/Src/usbd_ctlreq.c ****   */
 102:USBLIB/Core/Src/usbd_ctlreq.c **** USBD_StatusTypeDef USBD_StdDevReq(USBD_HandleTypeDef *pdev, USBD_SetupReqTypedef *req)
 103:USBLIB/Core/Src/usbd_ctlreq.c **** {
 104:USBLIB/Core/Src/usbd_ctlreq.c ****   USBD_StatusTypeDef ret = USBD_OK;
 105:USBLIB/Core/Src/usbd_ctlreq.c **** 
 106:USBLIB/Core/Src/usbd_ctlreq.c ****   switch (req->bmRequest & USB_REQ_TYPE_MASK)
 107:USBLIB/Core/Src/usbd_ctlreq.c ****   {
 108:USBLIB/Core/Src/usbd_ctlreq.c ****     case USB_REQ_TYPE_CLASS:
 109:USBLIB/Core/Src/usbd_ctlreq.c ****     case USB_REQ_TYPE_VENDOR:
 110:USBLIB/Core/Src/usbd_ctlreq.c ****       ret = (USBD_StatusTypeDef)pdev->pClass[pdev->classId]->Setup(pdev, req);
 111:USBLIB/Core/Src/usbd_ctlreq.c ****       break;
 112:USBLIB/Core/Src/usbd_ctlreq.c **** 
 113:USBLIB/Core/Src/usbd_ctlreq.c ****     case USB_REQ_TYPE_STANDARD:
 114:USBLIB/Core/Src/usbd_ctlreq.c ****       switch (req->bRequest)
 115:USBLIB/Core/Src/usbd_ctlreq.c ****       {
 116:USBLIB/Core/Src/usbd_ctlreq.c ****         case USB_REQ_GET_DESCRIPTOR:
 117:USBLIB/Core/Src/usbd_ctlreq.c ****           USBD_GetDescriptor(pdev, req);
 118:USBLIB/Core/Src/usbd_ctlreq.c ****           break;
 119:USBLIB/Core/Src/usbd_ctlreq.c **** 
 120:USBLIB/Core/Src/usbd_ctlreq.c ****         case USB_REQ_SET_ADDRESS:
 121:USBLIB/Core/Src/usbd_ctlreq.c ****           USBD_SetAddress(pdev, req);
 122:USBLIB/Core/Src/usbd_ctlreq.c ****           break;
 123:USBLIB/Core/Src/usbd_ctlreq.c **** 
 124:USBLIB/Core/Src/usbd_ctlreq.c ****         case USB_REQ_SET_CONFIGURATION:
 125:USBLIB/Core/Src/usbd_ctlreq.c ****           ret = USBD_SetConfig(pdev, req);
 126:USBLIB/Core/Src/usbd_ctlreq.c ****           break;
 127:USBLIB/Core/Src/usbd_ctlreq.c **** 
 128:USBLIB/Core/Src/usbd_ctlreq.c ****         case USB_REQ_GET_CONFIGURATION:
 129:USBLIB/Core/Src/usbd_ctlreq.c ****           USBD_GetConfig(pdev, req);
 130:USBLIB/Core/Src/usbd_ctlreq.c ****           break;
 131:USBLIB/Core/Src/usbd_ctlreq.c **** 
 132:USBLIB/Core/Src/usbd_ctlreq.c ****         case USB_REQ_GET_STATUS:
 133:USBLIB/Core/Src/usbd_ctlreq.c ****           USBD_GetStatus(pdev, req);
 134:USBLIB/Core/Src/usbd_ctlreq.c ****           break;
 135:USBLIB/Core/Src/usbd_ctlreq.c **** 
 136:USBLIB/Core/Src/usbd_ctlreq.c ****         case USB_REQ_SET_FEATURE:
 137:USBLIB/Core/Src/usbd_ctlreq.c ****           USBD_SetFeature(pdev, req);
 138:USBLIB/Core/Src/usbd_ctlreq.c ****           break;
 139:USBLIB/Core/Src/usbd_ctlreq.c **** 
 140:USBLIB/Core/Src/usbd_ctlreq.c ****         case USB_REQ_CLEAR_FEATURE:
 141:USBLIB/Core/Src/usbd_ctlreq.c ****           USBD_ClrFeature(pdev, req);
 142:USBLIB/Core/Src/usbd_ctlreq.c ****           break;
 143:USBLIB/Core/Src/usbd_ctlreq.c **** 
 144:USBLIB/Core/Src/usbd_ctlreq.c ****         default:
ARM GAS  C:\Users\Jim_YW\AppData\Local\Temp\cc86CmOl.s 			page 4


 145:USBLIB/Core/Src/usbd_ctlreq.c ****           USBD_CtlError(pdev, req);
 146:USBLIB/Core/Src/usbd_ctlreq.c ****           break;
 147:USBLIB/Core/Src/usbd_ctlreq.c ****       }
 148:USBLIB/Core/Src/usbd_ctlreq.c ****       break;
 149:USBLIB/Core/Src/usbd_ctlreq.c **** 
 150:USBLIB/Core/Src/usbd_ctlreq.c ****     default:
 151:USBLIB/Core/Src/usbd_ctlreq.c ****       USBD_CtlError(pdev, req);
 152:USBLIB/Core/Src/usbd_ctlreq.c ****       break;
 153:USBLIB/Core/Src/usbd_ctlreq.c ****   }
 154:USBLIB/Core/Src/usbd_ctlreq.c **** 
 155:USBLIB/Core/Src/usbd_ctlreq.c ****   return ret;
 156:USBLIB/Core/Src/usbd_ctlreq.c **** }
 157:USBLIB/Core/Src/usbd_ctlreq.c **** 
 158:USBLIB/Core/Src/usbd_ctlreq.c **** /**
 159:USBLIB/Core/Src/usbd_ctlreq.c ****   * @brief  USBD_StdItfReq
 160:USBLIB/Core/Src/usbd_ctlreq.c ****   *         Handle standard usb interface requests
 161:USBLIB/Core/Src/usbd_ctlreq.c ****   * @param  pdev: device instance
 162:USBLIB/Core/Src/usbd_ctlreq.c ****   * @param  req: usb request
 163:USBLIB/Core/Src/usbd_ctlreq.c ****   * @retval status
 164:USBLIB/Core/Src/usbd_ctlreq.c ****   */
 165:USBLIB/Core/Src/usbd_ctlreq.c **** USBD_StatusTypeDef USBD_StdItfReq(USBD_HandleTypeDef *pdev, USBD_SetupReqTypedef *req)
 166:USBLIB/Core/Src/usbd_ctlreq.c **** {
 167:USBLIB/Core/Src/usbd_ctlreq.c ****   USBD_StatusTypeDef ret = USBD_OK;
 168:USBLIB/Core/Src/usbd_ctlreq.c ****   uint8_t idx;
 169:USBLIB/Core/Src/usbd_ctlreq.c **** 
 170:USBLIB/Core/Src/usbd_ctlreq.c ****   switch (req->bmRequest & USB_REQ_TYPE_MASK)
 171:USBLIB/Core/Src/usbd_ctlreq.c ****   {
 172:USBLIB/Core/Src/usbd_ctlreq.c ****     case USB_REQ_TYPE_CLASS:
 173:USBLIB/Core/Src/usbd_ctlreq.c ****     case USB_REQ_TYPE_VENDOR:
 174:USBLIB/Core/Src/usbd_ctlreq.c ****     case USB_REQ_TYPE_STANDARD:
 175:USBLIB/Core/Src/usbd_ctlreq.c ****       switch (pdev->dev_state)
 176:USBLIB/Core/Src/usbd_ctlreq.c ****       {
 177:USBLIB/Core/Src/usbd_ctlreq.c ****         case USBD_STATE_DEFAULT:
 178:USBLIB/Core/Src/usbd_ctlreq.c ****         case USBD_STATE_ADDRESSED:
 179:USBLIB/Core/Src/usbd_ctlreq.c ****         case USBD_STATE_CONFIGURED:
 180:USBLIB/Core/Src/usbd_ctlreq.c **** 
 181:USBLIB/Core/Src/usbd_ctlreq.c ****           if (LOBYTE(req->wIndex) <= USBD_MAX_NUM_INTERFACES)
 182:USBLIB/Core/Src/usbd_ctlreq.c ****           {
 183:USBLIB/Core/Src/usbd_ctlreq.c ****             /* Get the class index relative to this interface */
 184:USBLIB/Core/Src/usbd_ctlreq.c ****             idx = USBD_CoreFindIF(pdev, LOBYTE(req->wIndex));
 185:USBLIB/Core/Src/usbd_ctlreq.c ****             if (((uint8_t)idx != 0xFFU) && (idx < USBD_MAX_SUPPORTED_CLASS))
 186:USBLIB/Core/Src/usbd_ctlreq.c ****             {
 187:USBLIB/Core/Src/usbd_ctlreq.c ****               /* Call the class data out function to manage the request */
 188:USBLIB/Core/Src/usbd_ctlreq.c ****               if (pdev->pClass[idx]->Setup != NULL)
 189:USBLIB/Core/Src/usbd_ctlreq.c ****               {
 190:USBLIB/Core/Src/usbd_ctlreq.c ****                 pdev->classId = idx;
 191:USBLIB/Core/Src/usbd_ctlreq.c ****                 ret = (USBD_StatusTypeDef)(pdev->pClass[idx]->Setup(pdev, req));
 192:USBLIB/Core/Src/usbd_ctlreq.c ****               }
 193:USBLIB/Core/Src/usbd_ctlreq.c ****               else
 194:USBLIB/Core/Src/usbd_ctlreq.c ****               {
 195:USBLIB/Core/Src/usbd_ctlreq.c ****                 /* should never reach this condition */
 196:USBLIB/Core/Src/usbd_ctlreq.c ****                 ret = USBD_FAIL;
 197:USBLIB/Core/Src/usbd_ctlreq.c ****               }
 198:USBLIB/Core/Src/usbd_ctlreq.c ****             }
 199:USBLIB/Core/Src/usbd_ctlreq.c ****             else
 200:USBLIB/Core/Src/usbd_ctlreq.c ****             {
 201:USBLIB/Core/Src/usbd_ctlreq.c ****               /* No relative interface found */
ARM GAS  C:\Users\Jim_YW\AppData\Local\Temp\cc86CmOl.s 			page 5


 202:USBLIB/Core/Src/usbd_ctlreq.c ****               ret = USBD_FAIL;
 203:USBLIB/Core/Src/usbd_ctlreq.c ****             }
 204:USBLIB/Core/Src/usbd_ctlreq.c **** 
 205:USBLIB/Core/Src/usbd_ctlreq.c ****             if ((req->wLength == 0U) && (ret == USBD_OK))
 206:USBLIB/Core/Src/usbd_ctlreq.c ****             {
 207:USBLIB/Core/Src/usbd_ctlreq.c ****               (void)USBD_CtlSendStatus(pdev);
 208:USBLIB/Core/Src/usbd_ctlreq.c ****             }
 209:USBLIB/Core/Src/usbd_ctlreq.c ****           }
 210:USBLIB/Core/Src/usbd_ctlreq.c ****           else
 211:USBLIB/Core/Src/usbd_ctlreq.c ****           {
 212:USBLIB/Core/Src/usbd_ctlreq.c ****             USBD_CtlError(pdev, req);
 213:USBLIB/Core/Src/usbd_ctlreq.c ****           }
 214:USBLIB/Core/Src/usbd_ctlreq.c ****           break;
 215:USBLIB/Core/Src/usbd_ctlreq.c **** 
 216:USBLIB/Core/Src/usbd_ctlreq.c ****         default:
 217:USBLIB/Core/Src/usbd_ctlreq.c ****           USBD_CtlError(pdev, req);
 218:USBLIB/Core/Src/usbd_ctlreq.c ****           break;
 219:USBLIB/Core/Src/usbd_ctlreq.c ****       }
 220:USBLIB/Core/Src/usbd_ctlreq.c ****       break;
 221:USBLIB/Core/Src/usbd_ctlreq.c **** 
 222:USBLIB/Core/Src/usbd_ctlreq.c ****     default:
 223:USBLIB/Core/Src/usbd_ctlreq.c ****       USBD_CtlError(pdev, req);
 224:USBLIB/Core/Src/usbd_ctlreq.c ****       break;
 225:USBLIB/Core/Src/usbd_ctlreq.c ****   }
 226:USBLIB/Core/Src/usbd_ctlreq.c **** 
 227:USBLIB/Core/Src/usbd_ctlreq.c ****   return ret;
 228:USBLIB/Core/Src/usbd_ctlreq.c **** }
 229:USBLIB/Core/Src/usbd_ctlreq.c **** 
 230:USBLIB/Core/Src/usbd_ctlreq.c **** /**
 231:USBLIB/Core/Src/usbd_ctlreq.c ****   * @brief  USBD_StdEPReq
 232:USBLIB/Core/Src/usbd_ctlreq.c ****   *         Handle standard usb endpoint requests
 233:USBLIB/Core/Src/usbd_ctlreq.c ****   * @param  pdev: device instance
 234:USBLIB/Core/Src/usbd_ctlreq.c ****   * @param  req: usb request
 235:USBLIB/Core/Src/usbd_ctlreq.c ****   * @retval status
 236:USBLIB/Core/Src/usbd_ctlreq.c ****   */
 237:USBLIB/Core/Src/usbd_ctlreq.c **** USBD_StatusTypeDef USBD_StdEPReq(USBD_HandleTypeDef *pdev, USBD_SetupReqTypedef *req)
 238:USBLIB/Core/Src/usbd_ctlreq.c **** {
 239:USBLIB/Core/Src/usbd_ctlreq.c ****   USBD_EndpointTypeDef *pep;
 240:USBLIB/Core/Src/usbd_ctlreq.c ****   uint8_t ep_addr;
 241:USBLIB/Core/Src/usbd_ctlreq.c ****   uint8_t idx;
 242:USBLIB/Core/Src/usbd_ctlreq.c ****   USBD_StatusTypeDef ret = USBD_OK;
 243:USBLIB/Core/Src/usbd_ctlreq.c **** 
 244:USBLIB/Core/Src/usbd_ctlreq.c ****   ep_addr = LOBYTE(req->wIndex);
 245:USBLIB/Core/Src/usbd_ctlreq.c **** 
 246:USBLIB/Core/Src/usbd_ctlreq.c ****   switch (req->bmRequest & USB_REQ_TYPE_MASK)
 247:USBLIB/Core/Src/usbd_ctlreq.c ****   {
 248:USBLIB/Core/Src/usbd_ctlreq.c ****     case USB_REQ_TYPE_CLASS:
 249:USBLIB/Core/Src/usbd_ctlreq.c ****     case USB_REQ_TYPE_VENDOR:
 250:USBLIB/Core/Src/usbd_ctlreq.c ****       /* Get the class index relative to this endpoint */
 251:USBLIB/Core/Src/usbd_ctlreq.c ****       idx = USBD_CoreFindEP(pdev, ep_addr);
 252:USBLIB/Core/Src/usbd_ctlreq.c ****       if (((uint8_t)idx != 0xFFU) && (idx < USBD_MAX_SUPPORTED_CLASS))
 253:USBLIB/Core/Src/usbd_ctlreq.c ****       {
 254:USBLIB/Core/Src/usbd_ctlreq.c ****         pdev->classId = idx;
 255:USBLIB/Core/Src/usbd_ctlreq.c ****         /* Call the class data out function to manage the request */
 256:USBLIB/Core/Src/usbd_ctlreq.c ****         if (pdev->pClass[idx]->Setup != NULL)
 257:USBLIB/Core/Src/usbd_ctlreq.c ****         {
 258:USBLIB/Core/Src/usbd_ctlreq.c ****           ret = (USBD_StatusTypeDef)pdev->pClass[idx]->Setup(pdev, req);
ARM GAS  C:\Users\Jim_YW\AppData\Local\Temp\cc86CmOl.s 			page 6


 259:USBLIB/Core/Src/usbd_ctlreq.c ****         }
 260:USBLIB/Core/Src/usbd_ctlreq.c ****       }
 261:USBLIB/Core/Src/usbd_ctlreq.c ****       break;
 262:USBLIB/Core/Src/usbd_ctlreq.c **** 
 263:USBLIB/Core/Src/usbd_ctlreq.c ****     case USB_REQ_TYPE_STANDARD:
 264:USBLIB/Core/Src/usbd_ctlreq.c ****       switch (req->bRequest)
 265:USBLIB/Core/Src/usbd_ctlreq.c ****       {
 266:USBLIB/Core/Src/usbd_ctlreq.c ****         case USB_REQ_SET_FEATURE:
 267:USBLIB/Core/Src/usbd_ctlreq.c ****           switch (pdev->dev_state)
 268:USBLIB/Core/Src/usbd_ctlreq.c ****           {
 269:USBLIB/Core/Src/usbd_ctlreq.c ****             case USBD_STATE_ADDRESSED:
 270:USBLIB/Core/Src/usbd_ctlreq.c ****               if ((ep_addr != 0x00U) && (ep_addr != 0x80U))
 271:USBLIB/Core/Src/usbd_ctlreq.c ****               {
 272:USBLIB/Core/Src/usbd_ctlreq.c ****                 (void)USBD_LL_StallEP(pdev, ep_addr);
 273:USBLIB/Core/Src/usbd_ctlreq.c ****                 (void)USBD_LL_StallEP(pdev, 0x80U);
 274:USBLIB/Core/Src/usbd_ctlreq.c ****               }
 275:USBLIB/Core/Src/usbd_ctlreq.c ****               else
 276:USBLIB/Core/Src/usbd_ctlreq.c ****               {
 277:USBLIB/Core/Src/usbd_ctlreq.c ****                 USBD_CtlError(pdev, req);
 278:USBLIB/Core/Src/usbd_ctlreq.c ****               }
 279:USBLIB/Core/Src/usbd_ctlreq.c ****               break;
 280:USBLIB/Core/Src/usbd_ctlreq.c **** 
 281:USBLIB/Core/Src/usbd_ctlreq.c ****             case USBD_STATE_CONFIGURED:
 282:USBLIB/Core/Src/usbd_ctlreq.c ****               if (req->wValue == USB_FEATURE_EP_HALT)
 283:USBLIB/Core/Src/usbd_ctlreq.c ****               {
 284:USBLIB/Core/Src/usbd_ctlreq.c ****                 if ((ep_addr != 0x00U) && (ep_addr != 0x80U) && (req->wLength == 0x00U))
 285:USBLIB/Core/Src/usbd_ctlreq.c ****                 {
 286:USBLIB/Core/Src/usbd_ctlreq.c ****                   (void)USBD_LL_StallEP(pdev, ep_addr);
 287:USBLIB/Core/Src/usbd_ctlreq.c ****                 }
 288:USBLIB/Core/Src/usbd_ctlreq.c ****               }
 289:USBLIB/Core/Src/usbd_ctlreq.c ****               (void)USBD_CtlSendStatus(pdev);
 290:USBLIB/Core/Src/usbd_ctlreq.c **** 
 291:USBLIB/Core/Src/usbd_ctlreq.c ****               break;
 292:USBLIB/Core/Src/usbd_ctlreq.c **** 
 293:USBLIB/Core/Src/usbd_ctlreq.c ****             default:
 294:USBLIB/Core/Src/usbd_ctlreq.c ****               USBD_CtlError(pdev, req);
 295:USBLIB/Core/Src/usbd_ctlreq.c ****               break;
 296:USBLIB/Core/Src/usbd_ctlreq.c ****           }
 297:USBLIB/Core/Src/usbd_ctlreq.c ****           break;
 298:USBLIB/Core/Src/usbd_ctlreq.c **** 
 299:USBLIB/Core/Src/usbd_ctlreq.c ****         case USB_REQ_CLEAR_FEATURE:
 300:USBLIB/Core/Src/usbd_ctlreq.c **** 
 301:USBLIB/Core/Src/usbd_ctlreq.c ****           switch (pdev->dev_state)
 302:USBLIB/Core/Src/usbd_ctlreq.c ****           {
 303:USBLIB/Core/Src/usbd_ctlreq.c ****             case USBD_STATE_ADDRESSED:
 304:USBLIB/Core/Src/usbd_ctlreq.c ****               if ((ep_addr != 0x00U) && (ep_addr != 0x80U))
 305:USBLIB/Core/Src/usbd_ctlreq.c ****               {
 306:USBLIB/Core/Src/usbd_ctlreq.c ****                 (void)USBD_LL_StallEP(pdev, ep_addr);
 307:USBLIB/Core/Src/usbd_ctlreq.c ****                 (void)USBD_LL_StallEP(pdev, 0x80U);
 308:USBLIB/Core/Src/usbd_ctlreq.c ****               }
 309:USBLIB/Core/Src/usbd_ctlreq.c ****               else
 310:USBLIB/Core/Src/usbd_ctlreq.c ****               {
 311:USBLIB/Core/Src/usbd_ctlreq.c ****                 USBD_CtlError(pdev, req);
 312:USBLIB/Core/Src/usbd_ctlreq.c ****               }
 313:USBLIB/Core/Src/usbd_ctlreq.c ****               break;
 314:USBLIB/Core/Src/usbd_ctlreq.c **** 
 315:USBLIB/Core/Src/usbd_ctlreq.c ****             case USBD_STATE_CONFIGURED:
ARM GAS  C:\Users\Jim_YW\AppData\Local\Temp\cc86CmOl.s 			page 7


 316:USBLIB/Core/Src/usbd_ctlreq.c ****               if (req->wValue == USB_FEATURE_EP_HALT)
 317:USBLIB/Core/Src/usbd_ctlreq.c ****               {
 318:USBLIB/Core/Src/usbd_ctlreq.c ****                 if ((ep_addr & 0x7FU) != 0x00U)
 319:USBLIB/Core/Src/usbd_ctlreq.c ****                 {
 320:USBLIB/Core/Src/usbd_ctlreq.c ****                   (void)USBD_LL_ClearStallEP(pdev, ep_addr);
 321:USBLIB/Core/Src/usbd_ctlreq.c ****                 }
 322:USBLIB/Core/Src/usbd_ctlreq.c ****                 (void)USBD_CtlSendStatus(pdev);
 323:USBLIB/Core/Src/usbd_ctlreq.c **** 
 324:USBLIB/Core/Src/usbd_ctlreq.c ****                 /* Get the class index relative to this interface */
 325:USBLIB/Core/Src/usbd_ctlreq.c ****                 idx = USBD_CoreFindEP(pdev, ep_addr);
 326:USBLIB/Core/Src/usbd_ctlreq.c ****                 if (((uint8_t)idx != 0xFFU) && (idx < USBD_MAX_SUPPORTED_CLASS))
 327:USBLIB/Core/Src/usbd_ctlreq.c ****                 {
 328:USBLIB/Core/Src/usbd_ctlreq.c ****                   pdev->classId = idx;
 329:USBLIB/Core/Src/usbd_ctlreq.c ****                   /* Call the class data out function to manage the request */
 330:USBLIB/Core/Src/usbd_ctlreq.c ****                   if (pdev->pClass[idx]->Setup != NULL)
 331:USBLIB/Core/Src/usbd_ctlreq.c ****                   {
 332:USBLIB/Core/Src/usbd_ctlreq.c ****                     ret = (USBD_StatusTypeDef)(pdev->pClass[idx]->Setup(pdev, req));
 333:USBLIB/Core/Src/usbd_ctlreq.c ****                   }
 334:USBLIB/Core/Src/usbd_ctlreq.c ****                 }
 335:USBLIB/Core/Src/usbd_ctlreq.c ****               }
 336:USBLIB/Core/Src/usbd_ctlreq.c ****               break;
 337:USBLIB/Core/Src/usbd_ctlreq.c **** 
 338:USBLIB/Core/Src/usbd_ctlreq.c ****             default:
 339:USBLIB/Core/Src/usbd_ctlreq.c ****               USBD_CtlError(pdev, req);
 340:USBLIB/Core/Src/usbd_ctlreq.c ****               break;
 341:USBLIB/Core/Src/usbd_ctlreq.c ****           }
 342:USBLIB/Core/Src/usbd_ctlreq.c ****           break;
 343:USBLIB/Core/Src/usbd_ctlreq.c **** 
 344:USBLIB/Core/Src/usbd_ctlreq.c ****         case USB_REQ_GET_STATUS:
 345:USBLIB/Core/Src/usbd_ctlreq.c ****           switch (pdev->dev_state)
 346:USBLIB/Core/Src/usbd_ctlreq.c ****           {
 347:USBLIB/Core/Src/usbd_ctlreq.c ****             case USBD_STATE_ADDRESSED:
 348:USBLIB/Core/Src/usbd_ctlreq.c ****               if ((ep_addr != 0x00U) && (ep_addr != 0x80U))
 349:USBLIB/Core/Src/usbd_ctlreq.c ****               {
 350:USBLIB/Core/Src/usbd_ctlreq.c ****                 USBD_CtlError(pdev, req);
 351:USBLIB/Core/Src/usbd_ctlreq.c ****                 break;
 352:USBLIB/Core/Src/usbd_ctlreq.c ****               }
 353:USBLIB/Core/Src/usbd_ctlreq.c ****               pep = ((ep_addr & 0x80U) == 0x80U) ? &pdev->ep_in[ep_addr & 0x7FU] : \
 354:USBLIB/Core/Src/usbd_ctlreq.c ****                     &pdev->ep_out[ep_addr & 0x7FU];
 355:USBLIB/Core/Src/usbd_ctlreq.c **** 
 356:USBLIB/Core/Src/usbd_ctlreq.c ****               pep->status = 0x0000U;
 357:USBLIB/Core/Src/usbd_ctlreq.c **** 
 358:USBLIB/Core/Src/usbd_ctlreq.c ****               (void)USBD_CtlSendData(pdev, (uint8_t *)&pep->status, 2U);
 359:USBLIB/Core/Src/usbd_ctlreq.c ****               break;
 360:USBLIB/Core/Src/usbd_ctlreq.c **** 
 361:USBLIB/Core/Src/usbd_ctlreq.c ****             case USBD_STATE_CONFIGURED:
 362:USBLIB/Core/Src/usbd_ctlreq.c ****               if ((ep_addr & 0x80U) == 0x80U)
 363:USBLIB/Core/Src/usbd_ctlreq.c ****               {
 364:USBLIB/Core/Src/usbd_ctlreq.c ****                 if (pdev->ep_in[ep_addr & 0xFU].is_used == 0U)
 365:USBLIB/Core/Src/usbd_ctlreq.c ****                 {
 366:USBLIB/Core/Src/usbd_ctlreq.c ****                   USBD_CtlError(pdev, req);
 367:USBLIB/Core/Src/usbd_ctlreq.c ****                   break;
 368:USBLIB/Core/Src/usbd_ctlreq.c ****                 }
 369:USBLIB/Core/Src/usbd_ctlreq.c ****               }
 370:USBLIB/Core/Src/usbd_ctlreq.c ****               else
 371:USBLIB/Core/Src/usbd_ctlreq.c ****               {
 372:USBLIB/Core/Src/usbd_ctlreq.c ****                 if (pdev->ep_out[ep_addr & 0xFU].is_used == 0U)
ARM GAS  C:\Users\Jim_YW\AppData\Local\Temp\cc86CmOl.s 			page 8


 373:USBLIB/Core/Src/usbd_ctlreq.c ****                 {
 374:USBLIB/Core/Src/usbd_ctlreq.c ****                   USBD_CtlError(pdev, req);
 375:USBLIB/Core/Src/usbd_ctlreq.c ****                   break;
 376:USBLIB/Core/Src/usbd_ctlreq.c ****                 }
 377:USBLIB/Core/Src/usbd_ctlreq.c ****               }
 378:USBLIB/Core/Src/usbd_ctlreq.c **** 
 379:USBLIB/Core/Src/usbd_ctlreq.c ****               pep = ((ep_addr & 0x80U) == 0x80U) ? &pdev->ep_in[ep_addr & 0x7FU] : \
 380:USBLIB/Core/Src/usbd_ctlreq.c ****                     &pdev->ep_out[ep_addr & 0x7FU];
 381:USBLIB/Core/Src/usbd_ctlreq.c **** 
 382:USBLIB/Core/Src/usbd_ctlreq.c ****               if ((ep_addr == 0x00U) || (ep_addr == 0x80U))
 383:USBLIB/Core/Src/usbd_ctlreq.c ****               {
 384:USBLIB/Core/Src/usbd_ctlreq.c ****                 pep->status = 0x0000U;
 385:USBLIB/Core/Src/usbd_ctlreq.c ****               }
 386:USBLIB/Core/Src/usbd_ctlreq.c ****               else if (USBD_LL_IsStallEP(pdev, ep_addr) != 0U)
 387:USBLIB/Core/Src/usbd_ctlreq.c ****               {
 388:USBLIB/Core/Src/usbd_ctlreq.c ****                 pep->status = 0x0001U;
 389:USBLIB/Core/Src/usbd_ctlreq.c ****               }
 390:USBLIB/Core/Src/usbd_ctlreq.c ****               else
 391:USBLIB/Core/Src/usbd_ctlreq.c ****               {
 392:USBLIB/Core/Src/usbd_ctlreq.c ****                 pep->status = 0x0000U;
 393:USBLIB/Core/Src/usbd_ctlreq.c ****               }
 394:USBLIB/Core/Src/usbd_ctlreq.c **** 
 395:USBLIB/Core/Src/usbd_ctlreq.c ****               (void)USBD_CtlSendData(pdev, (uint8_t *)&pep->status, 2U);
 396:USBLIB/Core/Src/usbd_ctlreq.c ****               break;
 397:USBLIB/Core/Src/usbd_ctlreq.c **** 
 398:USBLIB/Core/Src/usbd_ctlreq.c ****             default:
 399:USBLIB/Core/Src/usbd_ctlreq.c ****               USBD_CtlError(pdev, req);
 400:USBLIB/Core/Src/usbd_ctlreq.c ****               break;
 401:USBLIB/Core/Src/usbd_ctlreq.c ****           }
 402:USBLIB/Core/Src/usbd_ctlreq.c ****           break;
 403:USBLIB/Core/Src/usbd_ctlreq.c **** 
 404:USBLIB/Core/Src/usbd_ctlreq.c ****         default:
 405:USBLIB/Core/Src/usbd_ctlreq.c ****           USBD_CtlError(pdev, req);
 406:USBLIB/Core/Src/usbd_ctlreq.c ****           break;
 407:USBLIB/Core/Src/usbd_ctlreq.c ****       }
 408:USBLIB/Core/Src/usbd_ctlreq.c ****       break;
 409:USBLIB/Core/Src/usbd_ctlreq.c **** 
 410:USBLIB/Core/Src/usbd_ctlreq.c ****     default:
 411:USBLIB/Core/Src/usbd_ctlreq.c ****       USBD_CtlError(pdev, req);
 412:USBLIB/Core/Src/usbd_ctlreq.c ****       break;
 413:USBLIB/Core/Src/usbd_ctlreq.c ****   }
 414:USBLIB/Core/Src/usbd_ctlreq.c **** 
 415:USBLIB/Core/Src/usbd_ctlreq.c ****   return ret;
 416:USBLIB/Core/Src/usbd_ctlreq.c **** }
 417:USBLIB/Core/Src/usbd_ctlreq.c **** 
 418:USBLIB/Core/Src/usbd_ctlreq.c **** 
 419:USBLIB/Core/Src/usbd_ctlreq.c **** /**
 420:USBLIB/Core/Src/usbd_ctlreq.c ****   * @brief  USBD_GetDescriptor
 421:USBLIB/Core/Src/usbd_ctlreq.c ****   *         Handle Get Descriptor requests
 422:USBLIB/Core/Src/usbd_ctlreq.c ****   * @param  pdev: device instance
 423:USBLIB/Core/Src/usbd_ctlreq.c ****   * @param  req: usb request
 424:USBLIB/Core/Src/usbd_ctlreq.c ****   * @retval status
 425:USBLIB/Core/Src/usbd_ctlreq.c ****   */
 426:USBLIB/Core/Src/usbd_ctlreq.c **** static void USBD_GetDescriptor(USBD_HandleTypeDef *pdev, USBD_SetupReqTypedef *req)
 427:USBLIB/Core/Src/usbd_ctlreq.c **** {
 428:USBLIB/Core/Src/usbd_ctlreq.c ****   uint16_t len = 0U;
 429:USBLIB/Core/Src/usbd_ctlreq.c ****   uint8_t *pbuf = NULL;
ARM GAS  C:\Users\Jim_YW\AppData\Local\Temp\cc86CmOl.s 			page 9


 430:USBLIB/Core/Src/usbd_ctlreq.c ****   uint8_t err = 0U;
 431:USBLIB/Core/Src/usbd_ctlreq.c **** 
 432:USBLIB/Core/Src/usbd_ctlreq.c ****   switch (req->wValue >> 8)
 433:USBLIB/Core/Src/usbd_ctlreq.c ****   {
 434:USBLIB/Core/Src/usbd_ctlreq.c **** #if ((USBD_LPM_ENABLED == 1U) || (USBD_CLASS_BOS_ENABLED == 1U))
 435:USBLIB/Core/Src/usbd_ctlreq.c ****     case USB_DESC_TYPE_BOS:
 436:USBLIB/Core/Src/usbd_ctlreq.c ****       if (pdev->pDesc->GetBOSDescriptor != NULL)
 437:USBLIB/Core/Src/usbd_ctlreq.c ****       {
 438:USBLIB/Core/Src/usbd_ctlreq.c ****         pbuf = pdev->pDesc->GetBOSDescriptor(pdev->dev_speed, &len);
 439:USBLIB/Core/Src/usbd_ctlreq.c ****       }
 440:USBLIB/Core/Src/usbd_ctlreq.c ****       else
 441:USBLIB/Core/Src/usbd_ctlreq.c ****       {
 442:USBLIB/Core/Src/usbd_ctlreq.c ****         USBD_CtlError(pdev, req);
 443:USBLIB/Core/Src/usbd_ctlreq.c ****         err++;
 444:USBLIB/Core/Src/usbd_ctlreq.c ****       }
 445:USBLIB/Core/Src/usbd_ctlreq.c ****       break;
 446:USBLIB/Core/Src/usbd_ctlreq.c **** #endif /* (USBD_LPM_ENABLED == 1U) || (USBD_CLASS_BOS_ENABLED == 1U) */
 447:USBLIB/Core/Src/usbd_ctlreq.c ****     case USB_DESC_TYPE_DEVICE:
 448:USBLIB/Core/Src/usbd_ctlreq.c ****       pbuf = pdev->pDesc->GetDeviceDescriptor(pdev->dev_speed, &len);
 449:USBLIB/Core/Src/usbd_ctlreq.c ****       break;
 450:USBLIB/Core/Src/usbd_ctlreq.c **** 
 451:USBLIB/Core/Src/usbd_ctlreq.c ****     case USB_DESC_TYPE_CONFIGURATION:
 452:USBLIB/Core/Src/usbd_ctlreq.c ****       if (pdev->dev_speed == USBD_SPEED_HIGH)
 453:USBLIB/Core/Src/usbd_ctlreq.c ****       {
 454:USBLIB/Core/Src/usbd_ctlreq.c **** #ifdef USE_USBD_COMPOSITE
 455:USBLIB/Core/Src/usbd_ctlreq.c ****         if ((uint8_t)(pdev->NumClasses) > 0U)
 456:USBLIB/Core/Src/usbd_ctlreq.c ****         {
 457:USBLIB/Core/Src/usbd_ctlreq.c ****           pbuf   = (uint8_t *)USBD_CMPSIT.GetHSConfigDescriptor(&len);
 458:USBLIB/Core/Src/usbd_ctlreq.c ****         }
 459:USBLIB/Core/Src/usbd_ctlreq.c ****         else
 460:USBLIB/Core/Src/usbd_ctlreq.c **** #endif /* USE_USBD_COMPOSITE */
 461:USBLIB/Core/Src/usbd_ctlreq.c ****         {
 462:USBLIB/Core/Src/usbd_ctlreq.c ****           pbuf = (uint8_t *)pdev->pClass[0]->GetHSConfigDescriptor(&len);
 463:USBLIB/Core/Src/usbd_ctlreq.c ****         }
 464:USBLIB/Core/Src/usbd_ctlreq.c ****         pbuf[1] = USB_DESC_TYPE_CONFIGURATION;
 465:USBLIB/Core/Src/usbd_ctlreq.c ****       }
 466:USBLIB/Core/Src/usbd_ctlreq.c ****       else
 467:USBLIB/Core/Src/usbd_ctlreq.c ****       {
 468:USBLIB/Core/Src/usbd_ctlreq.c **** #ifdef USE_USBD_COMPOSITE
 469:USBLIB/Core/Src/usbd_ctlreq.c ****         if ((uint8_t)(pdev->NumClasses) > 0U)
 470:USBLIB/Core/Src/usbd_ctlreq.c ****         {
 471:USBLIB/Core/Src/usbd_ctlreq.c ****           pbuf   = (uint8_t *)USBD_CMPSIT.GetFSConfigDescriptor(&len);
 472:USBLIB/Core/Src/usbd_ctlreq.c ****         }
 473:USBLIB/Core/Src/usbd_ctlreq.c ****         else
 474:USBLIB/Core/Src/usbd_ctlreq.c **** #endif /* USE_USBD_COMPOSITE */
 475:USBLIB/Core/Src/usbd_ctlreq.c ****         {
 476:USBLIB/Core/Src/usbd_ctlreq.c ****           pbuf   = (uint8_t *)pdev->pClass[0]->GetFSConfigDescriptor(&len);
 477:USBLIB/Core/Src/usbd_ctlreq.c ****         }
 478:USBLIB/Core/Src/usbd_ctlreq.c ****         pbuf[1] = USB_DESC_TYPE_CONFIGURATION;
 479:USBLIB/Core/Src/usbd_ctlreq.c ****       }
 480:USBLIB/Core/Src/usbd_ctlreq.c ****       break;
 481:USBLIB/Core/Src/usbd_ctlreq.c **** 
 482:USBLIB/Core/Src/usbd_ctlreq.c ****     case USB_DESC_TYPE_STRING:
 483:USBLIB/Core/Src/usbd_ctlreq.c ****       switch ((uint8_t)(req->wValue))
 484:USBLIB/Core/Src/usbd_ctlreq.c ****       {
 485:USBLIB/Core/Src/usbd_ctlreq.c ****         case USBD_IDX_LANGID_STR:
 486:USBLIB/Core/Src/usbd_ctlreq.c ****           if (pdev->pDesc->GetLangIDStrDescriptor != NULL)
ARM GAS  C:\Users\Jim_YW\AppData\Local\Temp\cc86CmOl.s 			page 10


 487:USBLIB/Core/Src/usbd_ctlreq.c ****           {
 488:USBLIB/Core/Src/usbd_ctlreq.c ****             pbuf = pdev->pDesc->GetLangIDStrDescriptor(pdev->dev_speed, &len);
 489:USBLIB/Core/Src/usbd_ctlreq.c ****           }
 490:USBLIB/Core/Src/usbd_ctlreq.c ****           else
 491:USBLIB/Core/Src/usbd_ctlreq.c ****           {
 492:USBLIB/Core/Src/usbd_ctlreq.c ****             USBD_CtlError(pdev, req);
 493:USBLIB/Core/Src/usbd_ctlreq.c ****             err++;
 494:USBLIB/Core/Src/usbd_ctlreq.c ****           }
 495:USBLIB/Core/Src/usbd_ctlreq.c ****           break;
 496:USBLIB/Core/Src/usbd_ctlreq.c **** 
 497:USBLIB/Core/Src/usbd_ctlreq.c ****         case USBD_IDX_MFC_STR:
 498:USBLIB/Core/Src/usbd_ctlreq.c ****           if (pdev->pDesc->GetManufacturerStrDescriptor != NULL)
 499:USBLIB/Core/Src/usbd_ctlreq.c ****           {
 500:USBLIB/Core/Src/usbd_ctlreq.c ****             pbuf = pdev->pDesc->GetManufacturerStrDescriptor(pdev->dev_speed, &len);
 501:USBLIB/Core/Src/usbd_ctlreq.c ****           }
 502:USBLIB/Core/Src/usbd_ctlreq.c ****           else
 503:USBLIB/Core/Src/usbd_ctlreq.c ****           {
 504:USBLIB/Core/Src/usbd_ctlreq.c ****             USBD_CtlError(pdev, req);
 505:USBLIB/Core/Src/usbd_ctlreq.c ****             err++;
 506:USBLIB/Core/Src/usbd_ctlreq.c ****           }
 507:USBLIB/Core/Src/usbd_ctlreq.c ****           break;
 508:USBLIB/Core/Src/usbd_ctlreq.c **** 
 509:USBLIB/Core/Src/usbd_ctlreq.c ****         case USBD_IDX_PRODUCT_STR:
 510:USBLIB/Core/Src/usbd_ctlreq.c ****           if (pdev->pDesc->GetProductStrDescriptor != NULL)
 511:USBLIB/Core/Src/usbd_ctlreq.c ****           {
 512:USBLIB/Core/Src/usbd_ctlreq.c ****             pbuf = pdev->pDesc->GetProductStrDescriptor(pdev->dev_speed, &len);
 513:USBLIB/Core/Src/usbd_ctlreq.c ****           }
 514:USBLIB/Core/Src/usbd_ctlreq.c ****           else
 515:USBLIB/Core/Src/usbd_ctlreq.c ****           {
 516:USBLIB/Core/Src/usbd_ctlreq.c ****             USBD_CtlError(pdev, req);
 517:USBLIB/Core/Src/usbd_ctlreq.c ****             err++;
 518:USBLIB/Core/Src/usbd_ctlreq.c ****           }
 519:USBLIB/Core/Src/usbd_ctlreq.c ****           break;
 520:USBLIB/Core/Src/usbd_ctlreq.c **** 
 521:USBLIB/Core/Src/usbd_ctlreq.c ****         case USBD_IDX_SERIAL_STR:
 522:USBLIB/Core/Src/usbd_ctlreq.c ****           if (pdev->pDesc->GetSerialStrDescriptor != NULL)
 523:USBLIB/Core/Src/usbd_ctlreq.c ****           {
 524:USBLIB/Core/Src/usbd_ctlreq.c ****             pbuf = pdev->pDesc->GetSerialStrDescriptor(pdev->dev_speed, &len);
 525:USBLIB/Core/Src/usbd_ctlreq.c ****           }
 526:USBLIB/Core/Src/usbd_ctlreq.c ****           else
 527:USBLIB/Core/Src/usbd_ctlreq.c ****           {
 528:USBLIB/Core/Src/usbd_ctlreq.c ****             USBD_CtlError(pdev, req);
 529:USBLIB/Core/Src/usbd_ctlreq.c ****             err++;
 530:USBLIB/Core/Src/usbd_ctlreq.c ****           }
 531:USBLIB/Core/Src/usbd_ctlreq.c ****           break;
 532:USBLIB/Core/Src/usbd_ctlreq.c **** 
 533:USBLIB/Core/Src/usbd_ctlreq.c ****         case USBD_IDX_CONFIG_STR:
 534:USBLIB/Core/Src/usbd_ctlreq.c ****           if (pdev->pDesc->GetConfigurationStrDescriptor != NULL)
 535:USBLIB/Core/Src/usbd_ctlreq.c ****           {
 536:USBLIB/Core/Src/usbd_ctlreq.c ****             pbuf = pdev->pDesc->GetConfigurationStrDescriptor(pdev->dev_speed, &len);
 537:USBLIB/Core/Src/usbd_ctlreq.c ****           }
 538:USBLIB/Core/Src/usbd_ctlreq.c ****           else
 539:USBLIB/Core/Src/usbd_ctlreq.c ****           {
 540:USBLIB/Core/Src/usbd_ctlreq.c ****             USBD_CtlError(pdev, req);
 541:USBLIB/Core/Src/usbd_ctlreq.c ****             err++;
 542:USBLIB/Core/Src/usbd_ctlreq.c ****           }
 543:USBLIB/Core/Src/usbd_ctlreq.c ****           break;
ARM GAS  C:\Users\Jim_YW\AppData\Local\Temp\cc86CmOl.s 			page 11


 544:USBLIB/Core/Src/usbd_ctlreq.c **** 
 545:USBLIB/Core/Src/usbd_ctlreq.c ****         case USBD_IDX_INTERFACE_STR:
 546:USBLIB/Core/Src/usbd_ctlreq.c ****           if (pdev->pDesc->GetInterfaceStrDescriptor != NULL)
 547:USBLIB/Core/Src/usbd_ctlreq.c ****           {
 548:USBLIB/Core/Src/usbd_ctlreq.c ****             pbuf = pdev->pDesc->GetInterfaceStrDescriptor(pdev->dev_speed, &len);
 549:USBLIB/Core/Src/usbd_ctlreq.c ****           }
 550:USBLIB/Core/Src/usbd_ctlreq.c ****           else
 551:USBLIB/Core/Src/usbd_ctlreq.c ****           {
 552:USBLIB/Core/Src/usbd_ctlreq.c ****             USBD_CtlError(pdev, req);
 553:USBLIB/Core/Src/usbd_ctlreq.c ****             err++;
 554:USBLIB/Core/Src/usbd_ctlreq.c ****           }
 555:USBLIB/Core/Src/usbd_ctlreq.c ****           break;
 556:USBLIB/Core/Src/usbd_ctlreq.c **** 
 557:USBLIB/Core/Src/usbd_ctlreq.c ****         default:
 558:USBLIB/Core/Src/usbd_ctlreq.c **** #if (USBD_SUPPORT_USER_STRING_DESC == 1U)
 559:USBLIB/Core/Src/usbd_ctlreq.c ****           pbuf = NULL;
 560:USBLIB/Core/Src/usbd_ctlreq.c **** 
 561:USBLIB/Core/Src/usbd_ctlreq.c **** 
 562:USBLIB/Core/Src/usbd_ctlreq.c ****           for (uint32_t idx = 0U; (idx < pdev->NumClasses); idx++)
 563:USBLIB/Core/Src/usbd_ctlreq.c ****           {
 564:USBLIB/Core/Src/usbd_ctlreq.c ****             if (pdev->pClass[idx]->GetUsrStrDescriptor != NULL)
 565:USBLIB/Core/Src/usbd_ctlreq.c ****             {
 566:USBLIB/Core/Src/usbd_ctlreq.c ****               pdev->classId = idx;
 567:USBLIB/Core/Src/usbd_ctlreq.c ****               pbuf = pdev->pClass[idx]->GetUsrStrDescriptor(pdev, LOBYTE(req->wValue), &len);
 568:USBLIB/Core/Src/usbd_ctlreq.c **** 
 569:USBLIB/Core/Src/usbd_ctlreq.c ****               if (pbuf == NULL) /* This means that no class recognized the string index */
 570:USBLIB/Core/Src/usbd_ctlreq.c ****               {
 571:USBLIB/Core/Src/usbd_ctlreq.c ****                 continue;
 572:USBLIB/Core/Src/usbd_ctlreq.c ****               }
 573:USBLIB/Core/Src/usbd_ctlreq.c ****               else
 574:USBLIB/Core/Src/usbd_ctlreq.c ****               {
 575:USBLIB/Core/Src/usbd_ctlreq.c ****                 break;
 576:USBLIB/Core/Src/usbd_ctlreq.c ****               }
 577:USBLIB/Core/Src/usbd_ctlreq.c ****             }
 578:USBLIB/Core/Src/usbd_ctlreq.c ****           }
 579:USBLIB/Core/Src/usbd_ctlreq.c **** 
 580:USBLIB/Core/Src/usbd_ctlreq.c **** #endif /* USBD_SUPPORT_USER_STRING_DESC  */
 581:USBLIB/Core/Src/usbd_ctlreq.c **** 
 582:USBLIB/Core/Src/usbd_ctlreq.c **** #if (USBD_CLASS_USER_STRING_DESC == 1U)
 583:USBLIB/Core/Src/usbd_ctlreq.c ****           if (pdev->pDesc->GetUserStrDescriptor != NULL)
 584:USBLIB/Core/Src/usbd_ctlreq.c ****           {
 585:USBLIB/Core/Src/usbd_ctlreq.c ****             pbuf = pdev->pDesc->GetUserStrDescriptor(pdev->dev_speed, (req->wValue), &len);
 586:USBLIB/Core/Src/usbd_ctlreq.c ****           }
 587:USBLIB/Core/Src/usbd_ctlreq.c ****           else
 588:USBLIB/Core/Src/usbd_ctlreq.c ****           {
 589:USBLIB/Core/Src/usbd_ctlreq.c ****             USBD_CtlError(pdev, req);
 590:USBLIB/Core/Src/usbd_ctlreq.c ****             err++;
 591:USBLIB/Core/Src/usbd_ctlreq.c ****           }
 592:USBLIB/Core/Src/usbd_ctlreq.c **** #endif /* USBD_SUPPORT_USER_STRING_DESC  */
 593:USBLIB/Core/Src/usbd_ctlreq.c **** 
 594:USBLIB/Core/Src/usbd_ctlreq.c **** #if ((USBD_CLASS_USER_STRING_DESC == 0U) && (USBD_SUPPORT_USER_STRING_DESC == 0U))
 595:USBLIB/Core/Src/usbd_ctlreq.c ****           USBD_CtlError(pdev, req);
 596:USBLIB/Core/Src/usbd_ctlreq.c ****           err++;
 597:USBLIB/Core/Src/usbd_ctlreq.c **** #endif /* (USBD_CLASS_USER_STRING_DESC == 0U) && (USBD_SUPPORT_USER_STRING_DESC == 0U) */
 598:USBLIB/Core/Src/usbd_ctlreq.c ****           break;
 599:USBLIB/Core/Src/usbd_ctlreq.c ****       }
 600:USBLIB/Core/Src/usbd_ctlreq.c ****       break;
ARM GAS  C:\Users\Jim_YW\AppData\Local\Temp\cc86CmOl.s 			page 12


 601:USBLIB/Core/Src/usbd_ctlreq.c **** 
 602:USBLIB/Core/Src/usbd_ctlreq.c ****     case USB_DESC_TYPE_DEVICE_QUALIFIER:
 603:USBLIB/Core/Src/usbd_ctlreq.c ****       if (pdev->dev_speed == USBD_SPEED_HIGH)
 604:USBLIB/Core/Src/usbd_ctlreq.c ****       {
 605:USBLIB/Core/Src/usbd_ctlreq.c **** #ifdef USE_USBD_COMPOSITE
 606:USBLIB/Core/Src/usbd_ctlreq.c ****         if ((uint8_t)(pdev->NumClasses) > 0U)
 607:USBLIB/Core/Src/usbd_ctlreq.c ****         {
 608:USBLIB/Core/Src/usbd_ctlreq.c ****           pbuf = (uint8_t *)USBD_CMPSIT.GetDeviceQualifierDescriptor(&len);
 609:USBLIB/Core/Src/usbd_ctlreq.c ****         }
 610:USBLIB/Core/Src/usbd_ctlreq.c ****         else
 611:USBLIB/Core/Src/usbd_ctlreq.c **** #endif /* USE_USBD_COMPOSITE */
 612:USBLIB/Core/Src/usbd_ctlreq.c ****         {
 613:USBLIB/Core/Src/usbd_ctlreq.c ****           pbuf = (uint8_t *)pdev->pClass[0]->GetDeviceQualifierDescriptor(&len);
 614:USBLIB/Core/Src/usbd_ctlreq.c ****         }
 615:USBLIB/Core/Src/usbd_ctlreq.c ****       }
 616:USBLIB/Core/Src/usbd_ctlreq.c ****       else
 617:USBLIB/Core/Src/usbd_ctlreq.c ****       {
 618:USBLIB/Core/Src/usbd_ctlreq.c ****         USBD_CtlError(pdev, req);
 619:USBLIB/Core/Src/usbd_ctlreq.c ****         err++;
 620:USBLIB/Core/Src/usbd_ctlreq.c ****       }
 621:USBLIB/Core/Src/usbd_ctlreq.c ****       break;
 622:USBLIB/Core/Src/usbd_ctlreq.c **** 
 623:USBLIB/Core/Src/usbd_ctlreq.c ****     case USB_DESC_TYPE_OTHER_SPEED_CONFIGURATION:
 624:USBLIB/Core/Src/usbd_ctlreq.c ****       if (pdev->dev_speed == USBD_SPEED_HIGH)
 625:USBLIB/Core/Src/usbd_ctlreq.c ****       {
 626:USBLIB/Core/Src/usbd_ctlreq.c **** #ifdef USE_USBD_COMPOSITE
 627:USBLIB/Core/Src/usbd_ctlreq.c ****         if ((uint8_t)(pdev->NumClasses) > 0U)
 628:USBLIB/Core/Src/usbd_ctlreq.c ****         {
 629:USBLIB/Core/Src/usbd_ctlreq.c ****           pbuf = (uint8_t *)USBD_CMPSIT.GetOtherSpeedConfigDescriptor(&len);
 630:USBLIB/Core/Src/usbd_ctlreq.c ****         }
 631:USBLIB/Core/Src/usbd_ctlreq.c ****         else
 632:USBLIB/Core/Src/usbd_ctlreq.c **** #endif /* USE_USBD_COMPOSITE */
 633:USBLIB/Core/Src/usbd_ctlreq.c ****         {
 634:USBLIB/Core/Src/usbd_ctlreq.c ****           pbuf = (uint8_t *)pdev->pClass[0]->GetOtherSpeedConfigDescriptor(&len);
 635:USBLIB/Core/Src/usbd_ctlreq.c ****         }
 636:USBLIB/Core/Src/usbd_ctlreq.c ****         pbuf[1] = USB_DESC_TYPE_OTHER_SPEED_CONFIGURATION;
 637:USBLIB/Core/Src/usbd_ctlreq.c ****       }
 638:USBLIB/Core/Src/usbd_ctlreq.c ****       else
 639:USBLIB/Core/Src/usbd_ctlreq.c ****       {
 640:USBLIB/Core/Src/usbd_ctlreq.c ****         USBD_CtlError(pdev, req);
 641:USBLIB/Core/Src/usbd_ctlreq.c ****         err++;
 642:USBLIB/Core/Src/usbd_ctlreq.c ****       }
 643:USBLIB/Core/Src/usbd_ctlreq.c ****       break;
 644:USBLIB/Core/Src/usbd_ctlreq.c **** 
 645:USBLIB/Core/Src/usbd_ctlreq.c ****     default:
 646:USBLIB/Core/Src/usbd_ctlreq.c ****       USBD_CtlError(pdev, req);
 647:USBLIB/Core/Src/usbd_ctlreq.c ****       err++;
 648:USBLIB/Core/Src/usbd_ctlreq.c ****       break;
 649:USBLIB/Core/Src/usbd_ctlreq.c ****   }
 650:USBLIB/Core/Src/usbd_ctlreq.c **** 
 651:USBLIB/Core/Src/usbd_ctlreq.c ****   if (err != 0U)
 652:USBLIB/Core/Src/usbd_ctlreq.c ****   {
 653:USBLIB/Core/Src/usbd_ctlreq.c ****     return;
 654:USBLIB/Core/Src/usbd_ctlreq.c ****   }
 655:USBLIB/Core/Src/usbd_ctlreq.c **** 
 656:USBLIB/Core/Src/usbd_ctlreq.c ****   if (req->wLength != 0U)
 657:USBLIB/Core/Src/usbd_ctlreq.c ****   {
ARM GAS  C:\Users\Jim_YW\AppData\Local\Temp\cc86CmOl.s 			page 13


 658:USBLIB/Core/Src/usbd_ctlreq.c ****     if (len != 0U)
 659:USBLIB/Core/Src/usbd_ctlreq.c ****     {
 660:USBLIB/Core/Src/usbd_ctlreq.c ****       len = MIN(len, req->wLength);
 661:USBLIB/Core/Src/usbd_ctlreq.c ****       (void)USBD_CtlSendData(pdev, pbuf, len);
 662:USBLIB/Core/Src/usbd_ctlreq.c ****     }
 663:USBLIB/Core/Src/usbd_ctlreq.c ****     else
 664:USBLIB/Core/Src/usbd_ctlreq.c ****     {
 665:USBLIB/Core/Src/usbd_ctlreq.c ****       USBD_CtlError(pdev, req);
 666:USBLIB/Core/Src/usbd_ctlreq.c ****     }
 667:USBLIB/Core/Src/usbd_ctlreq.c ****   }
 668:USBLIB/Core/Src/usbd_ctlreq.c ****   else
 669:USBLIB/Core/Src/usbd_ctlreq.c ****   {
 670:USBLIB/Core/Src/usbd_ctlreq.c ****     (void)USBD_CtlSendStatus(pdev);
 671:USBLIB/Core/Src/usbd_ctlreq.c ****   }
 672:USBLIB/Core/Src/usbd_ctlreq.c **** }
 673:USBLIB/Core/Src/usbd_ctlreq.c **** 
 674:USBLIB/Core/Src/usbd_ctlreq.c **** 
 675:USBLIB/Core/Src/usbd_ctlreq.c **** /**
 676:USBLIB/Core/Src/usbd_ctlreq.c ****   * @brief  USBD_SetAddress
 677:USBLIB/Core/Src/usbd_ctlreq.c ****   *         Set device address
 678:USBLIB/Core/Src/usbd_ctlreq.c ****   * @param  pdev: device instance
 679:USBLIB/Core/Src/usbd_ctlreq.c ****   * @param  req: usb request
 680:USBLIB/Core/Src/usbd_ctlreq.c ****   * @retval status
 681:USBLIB/Core/Src/usbd_ctlreq.c ****   */
 682:USBLIB/Core/Src/usbd_ctlreq.c **** static void USBD_SetAddress(USBD_HandleTypeDef *pdev, USBD_SetupReqTypedef *req)
 683:USBLIB/Core/Src/usbd_ctlreq.c **** {
 684:USBLIB/Core/Src/usbd_ctlreq.c ****   uint8_t  dev_addr;
 685:USBLIB/Core/Src/usbd_ctlreq.c **** 
 686:USBLIB/Core/Src/usbd_ctlreq.c ****   if ((req->wIndex == 0U) && (req->wLength == 0U) && (req->wValue < 128U))
 687:USBLIB/Core/Src/usbd_ctlreq.c ****   {
 688:USBLIB/Core/Src/usbd_ctlreq.c ****     dev_addr = (uint8_t)(req->wValue) & 0x7FU;
 689:USBLIB/Core/Src/usbd_ctlreq.c **** 
 690:USBLIB/Core/Src/usbd_ctlreq.c ****     if (pdev->dev_state == USBD_STATE_CONFIGURED)
 691:USBLIB/Core/Src/usbd_ctlreq.c ****     {
 692:USBLIB/Core/Src/usbd_ctlreq.c ****       USBD_CtlError(pdev, req);
 693:USBLIB/Core/Src/usbd_ctlreq.c ****     }
 694:USBLIB/Core/Src/usbd_ctlreq.c ****     else
 695:USBLIB/Core/Src/usbd_ctlreq.c ****     {
 696:USBLIB/Core/Src/usbd_ctlreq.c ****       pdev->dev_address = dev_addr;
 697:USBLIB/Core/Src/usbd_ctlreq.c ****       (void)USBD_LL_SetUSBAddress(pdev, dev_addr);
 698:USBLIB/Core/Src/usbd_ctlreq.c ****       (void)USBD_CtlSendStatus(pdev);
 699:USBLIB/Core/Src/usbd_ctlreq.c **** 
 700:USBLIB/Core/Src/usbd_ctlreq.c ****       if (dev_addr != 0U)
 701:USBLIB/Core/Src/usbd_ctlreq.c ****       {
 702:USBLIB/Core/Src/usbd_ctlreq.c ****         pdev->dev_state = USBD_STATE_ADDRESSED;
 703:USBLIB/Core/Src/usbd_ctlreq.c ****       }
 704:USBLIB/Core/Src/usbd_ctlreq.c ****       else
 705:USBLIB/Core/Src/usbd_ctlreq.c ****       {
 706:USBLIB/Core/Src/usbd_ctlreq.c ****         pdev->dev_state = USBD_STATE_DEFAULT;
 707:USBLIB/Core/Src/usbd_ctlreq.c ****       }
 708:USBLIB/Core/Src/usbd_ctlreq.c ****     }
 709:USBLIB/Core/Src/usbd_ctlreq.c ****   }
 710:USBLIB/Core/Src/usbd_ctlreq.c ****   else
 711:USBLIB/Core/Src/usbd_ctlreq.c ****   {
 712:USBLIB/Core/Src/usbd_ctlreq.c ****     USBD_CtlError(pdev, req);
 713:USBLIB/Core/Src/usbd_ctlreq.c ****   }
 714:USBLIB/Core/Src/usbd_ctlreq.c **** }
ARM GAS  C:\Users\Jim_YW\AppData\Local\Temp\cc86CmOl.s 			page 14


 715:USBLIB/Core/Src/usbd_ctlreq.c **** 
 716:USBLIB/Core/Src/usbd_ctlreq.c **** /**
 717:USBLIB/Core/Src/usbd_ctlreq.c ****   * @brief  USBD_SetConfig
 718:USBLIB/Core/Src/usbd_ctlreq.c ****   *         Handle Set device configuration request
 719:USBLIB/Core/Src/usbd_ctlreq.c ****   * @param  pdev: device instance
 720:USBLIB/Core/Src/usbd_ctlreq.c ****   * @param  req: usb request
 721:USBLIB/Core/Src/usbd_ctlreq.c ****   * @retval status
 722:USBLIB/Core/Src/usbd_ctlreq.c ****   */
 723:USBLIB/Core/Src/usbd_ctlreq.c **** static USBD_StatusTypeDef USBD_SetConfig(USBD_HandleTypeDef *pdev, USBD_SetupReqTypedef *req)
 724:USBLIB/Core/Src/usbd_ctlreq.c **** {
 725:USBLIB/Core/Src/usbd_ctlreq.c ****   USBD_StatusTypeDef ret = USBD_OK;
 726:USBLIB/Core/Src/usbd_ctlreq.c ****   static uint8_t cfgidx;
 727:USBLIB/Core/Src/usbd_ctlreq.c **** 
 728:USBLIB/Core/Src/usbd_ctlreq.c ****   cfgidx = (uint8_t)(req->wValue);
 729:USBLIB/Core/Src/usbd_ctlreq.c **** 
 730:USBLIB/Core/Src/usbd_ctlreq.c ****   if (cfgidx > USBD_MAX_NUM_CONFIGURATION)
 731:USBLIB/Core/Src/usbd_ctlreq.c ****   {
 732:USBLIB/Core/Src/usbd_ctlreq.c ****     USBD_CtlError(pdev, req);
 733:USBLIB/Core/Src/usbd_ctlreq.c ****     return USBD_FAIL;
 734:USBLIB/Core/Src/usbd_ctlreq.c ****   }
 735:USBLIB/Core/Src/usbd_ctlreq.c **** 
 736:USBLIB/Core/Src/usbd_ctlreq.c ****   switch (pdev->dev_state)
 737:USBLIB/Core/Src/usbd_ctlreq.c ****   {
 738:USBLIB/Core/Src/usbd_ctlreq.c ****     case USBD_STATE_ADDRESSED:
 739:USBLIB/Core/Src/usbd_ctlreq.c ****       if (cfgidx != 0U)
 740:USBLIB/Core/Src/usbd_ctlreq.c ****       {
 741:USBLIB/Core/Src/usbd_ctlreq.c ****         pdev->dev_config = cfgidx;
 742:USBLIB/Core/Src/usbd_ctlreq.c **** 
 743:USBLIB/Core/Src/usbd_ctlreq.c ****         ret = USBD_SetClassConfig(pdev, cfgidx);
 744:USBLIB/Core/Src/usbd_ctlreq.c **** 
 745:USBLIB/Core/Src/usbd_ctlreq.c ****         if (ret != USBD_OK)
 746:USBLIB/Core/Src/usbd_ctlreq.c ****         {
 747:USBLIB/Core/Src/usbd_ctlreq.c ****           USBD_CtlError(pdev, req);
 748:USBLIB/Core/Src/usbd_ctlreq.c ****           pdev->dev_state = USBD_STATE_ADDRESSED;
 749:USBLIB/Core/Src/usbd_ctlreq.c ****         }
 750:USBLIB/Core/Src/usbd_ctlreq.c ****         else
 751:USBLIB/Core/Src/usbd_ctlreq.c ****         {
 752:USBLIB/Core/Src/usbd_ctlreq.c ****           (void)USBD_CtlSendStatus(pdev);
 753:USBLIB/Core/Src/usbd_ctlreq.c ****           pdev->dev_state = USBD_STATE_CONFIGURED;
 754:USBLIB/Core/Src/usbd_ctlreq.c ****         }
 755:USBLIB/Core/Src/usbd_ctlreq.c ****       }
 756:USBLIB/Core/Src/usbd_ctlreq.c ****       else
 757:USBLIB/Core/Src/usbd_ctlreq.c ****       {
 758:USBLIB/Core/Src/usbd_ctlreq.c ****         (void)USBD_CtlSendStatus(pdev);
 759:USBLIB/Core/Src/usbd_ctlreq.c ****       }
 760:USBLIB/Core/Src/usbd_ctlreq.c ****       break;
 761:USBLIB/Core/Src/usbd_ctlreq.c **** 
 762:USBLIB/Core/Src/usbd_ctlreq.c ****     case USBD_STATE_CONFIGURED:
 763:USBLIB/Core/Src/usbd_ctlreq.c ****       if (cfgidx == 0U)
 764:USBLIB/Core/Src/usbd_ctlreq.c ****       {
 765:USBLIB/Core/Src/usbd_ctlreq.c ****         pdev->dev_state = USBD_STATE_ADDRESSED;
 766:USBLIB/Core/Src/usbd_ctlreq.c ****         pdev->dev_config = cfgidx;
 767:USBLIB/Core/Src/usbd_ctlreq.c ****         (void)USBD_ClrClassConfig(pdev, cfgidx);
 768:USBLIB/Core/Src/usbd_ctlreq.c ****         (void)USBD_CtlSendStatus(pdev);
 769:USBLIB/Core/Src/usbd_ctlreq.c ****       }
 770:USBLIB/Core/Src/usbd_ctlreq.c ****       else if (cfgidx != pdev->dev_config)
 771:USBLIB/Core/Src/usbd_ctlreq.c ****       {
ARM GAS  C:\Users\Jim_YW\AppData\Local\Temp\cc86CmOl.s 			page 15


 772:USBLIB/Core/Src/usbd_ctlreq.c ****         /* Clear old configuration */
 773:USBLIB/Core/Src/usbd_ctlreq.c ****         (void)USBD_ClrClassConfig(pdev, (uint8_t)pdev->dev_config);
 774:USBLIB/Core/Src/usbd_ctlreq.c **** 
 775:USBLIB/Core/Src/usbd_ctlreq.c ****         /* set new configuration */
 776:USBLIB/Core/Src/usbd_ctlreq.c ****         pdev->dev_config = cfgidx;
 777:USBLIB/Core/Src/usbd_ctlreq.c **** 
 778:USBLIB/Core/Src/usbd_ctlreq.c ****         ret = USBD_SetClassConfig(pdev, cfgidx);
 779:USBLIB/Core/Src/usbd_ctlreq.c **** 
 780:USBLIB/Core/Src/usbd_ctlreq.c ****         if (ret != USBD_OK)
 781:USBLIB/Core/Src/usbd_ctlreq.c ****         {
 782:USBLIB/Core/Src/usbd_ctlreq.c ****           USBD_CtlError(pdev, req);
 783:USBLIB/Core/Src/usbd_ctlreq.c ****           (void)USBD_ClrClassConfig(pdev, (uint8_t)pdev->dev_config);
 784:USBLIB/Core/Src/usbd_ctlreq.c ****           pdev->dev_state = USBD_STATE_ADDRESSED;
 785:USBLIB/Core/Src/usbd_ctlreq.c ****         }
 786:USBLIB/Core/Src/usbd_ctlreq.c ****         else
 787:USBLIB/Core/Src/usbd_ctlreq.c ****         {
 788:USBLIB/Core/Src/usbd_ctlreq.c ****           (void)USBD_CtlSendStatus(pdev);
 789:USBLIB/Core/Src/usbd_ctlreq.c ****         }
 790:USBLIB/Core/Src/usbd_ctlreq.c ****       }
 791:USBLIB/Core/Src/usbd_ctlreq.c ****       else
 792:USBLIB/Core/Src/usbd_ctlreq.c ****       {
 793:USBLIB/Core/Src/usbd_ctlreq.c ****         (void)USBD_CtlSendStatus(pdev);
 794:USBLIB/Core/Src/usbd_ctlreq.c ****       }
 795:USBLIB/Core/Src/usbd_ctlreq.c ****       break;
 796:USBLIB/Core/Src/usbd_ctlreq.c **** 
 797:USBLIB/Core/Src/usbd_ctlreq.c ****     default:
 798:USBLIB/Core/Src/usbd_ctlreq.c ****       USBD_CtlError(pdev, req);
 799:USBLIB/Core/Src/usbd_ctlreq.c ****       (void)USBD_ClrClassConfig(pdev, cfgidx);
 800:USBLIB/Core/Src/usbd_ctlreq.c ****       ret = USBD_FAIL;
 801:USBLIB/Core/Src/usbd_ctlreq.c ****       break;
 802:USBLIB/Core/Src/usbd_ctlreq.c ****   }
 803:USBLIB/Core/Src/usbd_ctlreq.c **** 
 804:USBLIB/Core/Src/usbd_ctlreq.c ****   return ret;
 805:USBLIB/Core/Src/usbd_ctlreq.c **** }
 806:USBLIB/Core/Src/usbd_ctlreq.c **** 
 807:USBLIB/Core/Src/usbd_ctlreq.c **** /**
 808:USBLIB/Core/Src/usbd_ctlreq.c ****   * @brief  USBD_GetConfig
 809:USBLIB/Core/Src/usbd_ctlreq.c ****   *         Handle Get device configuration request
 810:USBLIB/Core/Src/usbd_ctlreq.c ****   * @param  pdev: device instance
 811:USBLIB/Core/Src/usbd_ctlreq.c ****   * @param  req: usb request
 812:USBLIB/Core/Src/usbd_ctlreq.c ****   * @retval status
 813:USBLIB/Core/Src/usbd_ctlreq.c ****   */
 814:USBLIB/Core/Src/usbd_ctlreq.c **** static void USBD_GetConfig(USBD_HandleTypeDef *pdev, USBD_SetupReqTypedef *req)
 815:USBLIB/Core/Src/usbd_ctlreq.c **** {
 816:USBLIB/Core/Src/usbd_ctlreq.c ****   if (req->wLength != 1U)
 817:USBLIB/Core/Src/usbd_ctlreq.c ****   {
 818:USBLIB/Core/Src/usbd_ctlreq.c ****     USBD_CtlError(pdev, req);
 819:USBLIB/Core/Src/usbd_ctlreq.c ****   }
 820:USBLIB/Core/Src/usbd_ctlreq.c ****   else
 821:USBLIB/Core/Src/usbd_ctlreq.c ****   {
 822:USBLIB/Core/Src/usbd_ctlreq.c ****     switch (pdev->dev_state)
 823:USBLIB/Core/Src/usbd_ctlreq.c ****     {
 824:USBLIB/Core/Src/usbd_ctlreq.c ****       case USBD_STATE_DEFAULT:
 825:USBLIB/Core/Src/usbd_ctlreq.c ****       case USBD_STATE_ADDRESSED:
 826:USBLIB/Core/Src/usbd_ctlreq.c ****         pdev->dev_default_config = 0U;
 827:USBLIB/Core/Src/usbd_ctlreq.c ****         (void)USBD_CtlSendData(pdev, (uint8_t *)&pdev->dev_default_config, 1U);
 828:USBLIB/Core/Src/usbd_ctlreq.c ****         break;
ARM GAS  C:\Users\Jim_YW\AppData\Local\Temp\cc86CmOl.s 			page 16


 829:USBLIB/Core/Src/usbd_ctlreq.c **** 
 830:USBLIB/Core/Src/usbd_ctlreq.c ****       case USBD_STATE_CONFIGURED:
 831:USBLIB/Core/Src/usbd_ctlreq.c ****         (void)USBD_CtlSendData(pdev, (uint8_t *)&pdev->dev_config, 1U);
 832:USBLIB/Core/Src/usbd_ctlreq.c ****         break;
 833:USBLIB/Core/Src/usbd_ctlreq.c **** 
 834:USBLIB/Core/Src/usbd_ctlreq.c ****       default:
 835:USBLIB/Core/Src/usbd_ctlreq.c ****         USBD_CtlError(pdev, req);
 836:USBLIB/Core/Src/usbd_ctlreq.c ****         break;
 837:USBLIB/Core/Src/usbd_ctlreq.c ****     }
 838:USBLIB/Core/Src/usbd_ctlreq.c ****   }
 839:USBLIB/Core/Src/usbd_ctlreq.c **** }
 840:USBLIB/Core/Src/usbd_ctlreq.c **** 
 841:USBLIB/Core/Src/usbd_ctlreq.c **** /**
 842:USBLIB/Core/Src/usbd_ctlreq.c ****   * @brief  USBD_GetStatus
 843:USBLIB/Core/Src/usbd_ctlreq.c ****   *         Handle Get Status request
 844:USBLIB/Core/Src/usbd_ctlreq.c ****   * @param  pdev: device instance
 845:USBLIB/Core/Src/usbd_ctlreq.c ****   * @param  req: usb request
 846:USBLIB/Core/Src/usbd_ctlreq.c ****   * @retval status
 847:USBLIB/Core/Src/usbd_ctlreq.c ****   */
 848:USBLIB/Core/Src/usbd_ctlreq.c **** static void USBD_GetStatus(USBD_HandleTypeDef *pdev, USBD_SetupReqTypedef *req)
 849:USBLIB/Core/Src/usbd_ctlreq.c **** {
 850:USBLIB/Core/Src/usbd_ctlreq.c ****   switch (pdev->dev_state)
 851:USBLIB/Core/Src/usbd_ctlreq.c ****   {
 852:USBLIB/Core/Src/usbd_ctlreq.c ****     case USBD_STATE_DEFAULT:
 853:USBLIB/Core/Src/usbd_ctlreq.c ****     case USBD_STATE_ADDRESSED:
 854:USBLIB/Core/Src/usbd_ctlreq.c ****     case USBD_STATE_CONFIGURED:
 855:USBLIB/Core/Src/usbd_ctlreq.c ****       if (req->wLength != 0x2U)
 856:USBLIB/Core/Src/usbd_ctlreq.c ****       {
 857:USBLIB/Core/Src/usbd_ctlreq.c ****         USBD_CtlError(pdev, req);
 858:USBLIB/Core/Src/usbd_ctlreq.c ****         break;
 859:USBLIB/Core/Src/usbd_ctlreq.c ****       }
 860:USBLIB/Core/Src/usbd_ctlreq.c **** 
 861:USBLIB/Core/Src/usbd_ctlreq.c **** #if (USBD_SELF_POWERED == 1U)
 862:USBLIB/Core/Src/usbd_ctlreq.c ****       pdev->dev_config_status = USB_CONFIG_SELF_POWERED;
 863:USBLIB/Core/Src/usbd_ctlreq.c **** #else
 864:USBLIB/Core/Src/usbd_ctlreq.c ****       pdev->dev_config_status = 0U;
 865:USBLIB/Core/Src/usbd_ctlreq.c **** #endif /* USBD_SELF_POWERED */
 866:USBLIB/Core/Src/usbd_ctlreq.c **** 
 867:USBLIB/Core/Src/usbd_ctlreq.c ****       if (pdev->dev_remote_wakeup != 0U)
 868:USBLIB/Core/Src/usbd_ctlreq.c ****       {
 869:USBLIB/Core/Src/usbd_ctlreq.c ****         pdev->dev_config_status |= USB_CONFIG_REMOTE_WAKEUP;
 870:USBLIB/Core/Src/usbd_ctlreq.c ****       }
 871:USBLIB/Core/Src/usbd_ctlreq.c **** 
 872:USBLIB/Core/Src/usbd_ctlreq.c ****       (void)USBD_CtlSendData(pdev, (uint8_t *)&pdev->dev_config_status, 2U);
 873:USBLIB/Core/Src/usbd_ctlreq.c ****       break;
 874:USBLIB/Core/Src/usbd_ctlreq.c **** 
 875:USBLIB/Core/Src/usbd_ctlreq.c ****     default:
 876:USBLIB/Core/Src/usbd_ctlreq.c ****       USBD_CtlError(pdev, req);
 877:USBLIB/Core/Src/usbd_ctlreq.c ****       break;
 878:USBLIB/Core/Src/usbd_ctlreq.c ****   }
 879:USBLIB/Core/Src/usbd_ctlreq.c **** }
 880:USBLIB/Core/Src/usbd_ctlreq.c **** 
 881:USBLIB/Core/Src/usbd_ctlreq.c **** 
 882:USBLIB/Core/Src/usbd_ctlreq.c **** /**
 883:USBLIB/Core/Src/usbd_ctlreq.c ****   * @brief  USBD_SetFeature
 884:USBLIB/Core/Src/usbd_ctlreq.c ****   *         Handle Set device feature request
 885:USBLIB/Core/Src/usbd_ctlreq.c ****   * @param  pdev: device instance
ARM GAS  C:\Users\Jim_YW\AppData\Local\Temp\cc86CmOl.s 			page 17


 886:USBLIB/Core/Src/usbd_ctlreq.c ****   * @param  req: usb request
 887:USBLIB/Core/Src/usbd_ctlreq.c ****   * @retval status
 888:USBLIB/Core/Src/usbd_ctlreq.c ****   */
 889:USBLIB/Core/Src/usbd_ctlreq.c **** static void USBD_SetFeature(USBD_HandleTypeDef *pdev, USBD_SetupReqTypedef *req)
 890:USBLIB/Core/Src/usbd_ctlreq.c **** {
 891:USBLIB/Core/Src/usbd_ctlreq.c ****   if (req->wValue == USB_FEATURE_REMOTE_WAKEUP)
 892:USBLIB/Core/Src/usbd_ctlreq.c ****   {
 893:USBLIB/Core/Src/usbd_ctlreq.c ****     pdev->dev_remote_wakeup = 1U;
 894:USBLIB/Core/Src/usbd_ctlreq.c ****     (void)USBD_CtlSendStatus(pdev);
 895:USBLIB/Core/Src/usbd_ctlreq.c ****   }
 896:USBLIB/Core/Src/usbd_ctlreq.c ****   else if (req->wValue == USB_FEATURE_TEST_MODE)
 897:USBLIB/Core/Src/usbd_ctlreq.c ****   {
 898:USBLIB/Core/Src/usbd_ctlreq.c ****     pdev->dev_test_mode = req->wIndex >> 8;
 899:USBLIB/Core/Src/usbd_ctlreq.c ****     (void)USBD_CtlSendStatus(pdev);
 900:USBLIB/Core/Src/usbd_ctlreq.c ****   }
 901:USBLIB/Core/Src/usbd_ctlreq.c ****   else
 902:USBLIB/Core/Src/usbd_ctlreq.c ****   {
 903:USBLIB/Core/Src/usbd_ctlreq.c ****     USBD_CtlError(pdev, req);
 904:USBLIB/Core/Src/usbd_ctlreq.c ****   }
 905:USBLIB/Core/Src/usbd_ctlreq.c **** }
 906:USBLIB/Core/Src/usbd_ctlreq.c **** 
 907:USBLIB/Core/Src/usbd_ctlreq.c **** 
 908:USBLIB/Core/Src/usbd_ctlreq.c **** /**
 909:USBLIB/Core/Src/usbd_ctlreq.c ****   * @brief  USBD_ClrFeature
 910:USBLIB/Core/Src/usbd_ctlreq.c ****   *         Handle clear device feature request
 911:USBLIB/Core/Src/usbd_ctlreq.c ****   * @param  pdev: device instance
 912:USBLIB/Core/Src/usbd_ctlreq.c ****   * @param  req: usb request
 913:USBLIB/Core/Src/usbd_ctlreq.c ****   * @retval status
 914:USBLIB/Core/Src/usbd_ctlreq.c ****   */
 915:USBLIB/Core/Src/usbd_ctlreq.c **** static void USBD_ClrFeature(USBD_HandleTypeDef *pdev, USBD_SetupReqTypedef *req)
 916:USBLIB/Core/Src/usbd_ctlreq.c **** {
 917:USBLIB/Core/Src/usbd_ctlreq.c ****   switch (pdev->dev_state)
 918:USBLIB/Core/Src/usbd_ctlreq.c ****   {
 919:USBLIB/Core/Src/usbd_ctlreq.c ****     case USBD_STATE_DEFAULT:
 920:USBLIB/Core/Src/usbd_ctlreq.c ****     case USBD_STATE_ADDRESSED:
 921:USBLIB/Core/Src/usbd_ctlreq.c ****     case USBD_STATE_CONFIGURED:
 922:USBLIB/Core/Src/usbd_ctlreq.c ****       if (req->wValue == USB_FEATURE_REMOTE_WAKEUP)
 923:USBLIB/Core/Src/usbd_ctlreq.c ****       {
 924:USBLIB/Core/Src/usbd_ctlreq.c ****         pdev->dev_remote_wakeup = 0U;
 925:USBLIB/Core/Src/usbd_ctlreq.c ****         (void)USBD_CtlSendStatus(pdev);
 926:USBLIB/Core/Src/usbd_ctlreq.c ****       }
 927:USBLIB/Core/Src/usbd_ctlreq.c ****       break;
 928:USBLIB/Core/Src/usbd_ctlreq.c **** 
 929:USBLIB/Core/Src/usbd_ctlreq.c ****     default:
 930:USBLIB/Core/Src/usbd_ctlreq.c ****       USBD_CtlError(pdev, req);
 931:USBLIB/Core/Src/usbd_ctlreq.c ****       break;
 932:USBLIB/Core/Src/usbd_ctlreq.c ****   }
 933:USBLIB/Core/Src/usbd_ctlreq.c **** }
 934:USBLIB/Core/Src/usbd_ctlreq.c **** 
 935:USBLIB/Core/Src/usbd_ctlreq.c **** 
 936:USBLIB/Core/Src/usbd_ctlreq.c **** /**
 937:USBLIB/Core/Src/usbd_ctlreq.c ****   * @brief  USBD_ParseSetupRequest
 938:USBLIB/Core/Src/usbd_ctlreq.c ****   *         Copy buffer into setup structure
 939:USBLIB/Core/Src/usbd_ctlreq.c ****   * @param  pdev: device instance
 940:USBLIB/Core/Src/usbd_ctlreq.c ****   * @param  req: usb request
 941:USBLIB/Core/Src/usbd_ctlreq.c ****   * @retval None
 942:USBLIB/Core/Src/usbd_ctlreq.c ****   */
ARM GAS  C:\Users\Jim_YW\AppData\Local\Temp\cc86CmOl.s 			page 18


 943:USBLIB/Core/Src/usbd_ctlreq.c **** void USBD_ParseSetupRequest(USBD_SetupReqTypedef *req, uint8_t *pdata)
 944:USBLIB/Core/Src/usbd_ctlreq.c **** {
 945:USBLIB/Core/Src/usbd_ctlreq.c ****   uint8_t *pbuff = pdata;
 946:USBLIB/Core/Src/usbd_ctlreq.c **** 
 947:USBLIB/Core/Src/usbd_ctlreq.c ****   req->bmRequest = *(uint8_t *)(pbuff);
 948:USBLIB/Core/Src/usbd_ctlreq.c **** 
 949:USBLIB/Core/Src/usbd_ctlreq.c ****   pbuff++;
 950:USBLIB/Core/Src/usbd_ctlreq.c ****   req->bRequest = *(uint8_t *)(pbuff);
 951:USBLIB/Core/Src/usbd_ctlreq.c **** 
 952:USBLIB/Core/Src/usbd_ctlreq.c ****   pbuff++;
 953:USBLIB/Core/Src/usbd_ctlreq.c ****   req->wValue = SWAPBYTE(pbuff);
 954:USBLIB/Core/Src/usbd_ctlreq.c **** 
 955:USBLIB/Core/Src/usbd_ctlreq.c ****   pbuff++;
 956:USBLIB/Core/Src/usbd_ctlreq.c ****   pbuff++;
 957:USBLIB/Core/Src/usbd_ctlreq.c ****   req->wIndex = SWAPBYTE(pbuff);
 958:USBLIB/Core/Src/usbd_ctlreq.c **** 
 959:USBLIB/Core/Src/usbd_ctlreq.c ****   pbuff++;
 960:USBLIB/Core/Src/usbd_ctlreq.c ****   pbuff++;
 961:USBLIB/Core/Src/usbd_ctlreq.c ****   req->wLength = SWAPBYTE(pbuff);
 962:USBLIB/Core/Src/usbd_ctlreq.c **** }
 963:USBLIB/Core/Src/usbd_ctlreq.c **** 
 964:USBLIB/Core/Src/usbd_ctlreq.c **** 
 965:USBLIB/Core/Src/usbd_ctlreq.c **** /**
 966:USBLIB/Core/Src/usbd_ctlreq.c ****   * @brief  USBD_CtlError
 967:USBLIB/Core/Src/usbd_ctlreq.c ****   *         Handle USB low level Error
 968:USBLIB/Core/Src/usbd_ctlreq.c ****   * @param  pdev: device instance
 969:USBLIB/Core/Src/usbd_ctlreq.c ****   * @param  req: usb request
 970:USBLIB/Core/Src/usbd_ctlreq.c ****   * @retval None
 971:USBLIB/Core/Src/usbd_ctlreq.c ****   */
 972:USBLIB/Core/Src/usbd_ctlreq.c **** void USBD_CtlError(USBD_HandleTypeDef *pdev, USBD_SetupReqTypedef *req)
 973:USBLIB/Core/Src/usbd_ctlreq.c **** {
 974:USBLIB/Core/Src/usbd_ctlreq.c ****   UNUSED(req);
 975:USBLIB/Core/Src/usbd_ctlreq.c **** 
 976:USBLIB/Core/Src/usbd_ctlreq.c ****   (void)USBD_LL_StallEP(pdev, 0x80U);
 977:USBLIB/Core/Src/usbd_ctlreq.c ****   (void)USBD_LL_StallEP(pdev, 0U);
 978:USBLIB/Core/Src/usbd_ctlreq.c **** }
 979:USBLIB/Core/Src/usbd_ctlreq.c **** 
 980:USBLIB/Core/Src/usbd_ctlreq.c **** 
 981:USBLIB/Core/Src/usbd_ctlreq.c **** /**
 982:USBLIB/Core/Src/usbd_ctlreq.c ****   * @brief  USBD_GetString
 983:USBLIB/Core/Src/usbd_ctlreq.c ****   *         Convert Ascii string into unicode one
 984:USBLIB/Core/Src/usbd_ctlreq.c ****   * @param  desc : descriptor buffer
 985:USBLIB/Core/Src/usbd_ctlreq.c ****   * @param  unicode : Formatted string buffer (unicode)
 986:USBLIB/Core/Src/usbd_ctlreq.c ****   * @param  len : descriptor length
 987:USBLIB/Core/Src/usbd_ctlreq.c ****   * @retval None
 988:USBLIB/Core/Src/usbd_ctlreq.c ****   */
 989:USBLIB/Core/Src/usbd_ctlreq.c **** void USBD_GetString(uint8_t *desc, uint8_t *unicode, uint16_t *len)
 990:USBLIB/Core/Src/usbd_ctlreq.c **** {
 991:USBLIB/Core/Src/usbd_ctlreq.c ****   uint8_t idx = 0U;
 992:USBLIB/Core/Src/usbd_ctlreq.c ****   uint8_t *pdesc;
 993:USBLIB/Core/Src/usbd_ctlreq.c **** 
 994:USBLIB/Core/Src/usbd_ctlreq.c ****   if (desc == NULL)
 995:USBLIB/Core/Src/usbd_ctlreq.c ****   {
 996:USBLIB/Core/Src/usbd_ctlreq.c ****     return;
 997:USBLIB/Core/Src/usbd_ctlreq.c ****   }
 998:USBLIB/Core/Src/usbd_ctlreq.c **** 
 999:USBLIB/Core/Src/usbd_ctlreq.c ****   pdesc = desc;
ARM GAS  C:\Users\Jim_YW\AppData\Local\Temp\cc86CmOl.s 			page 19


1000:USBLIB/Core/Src/usbd_ctlreq.c ****   *len = ((uint16_t)USBD_GetLen(pdesc) * 2U) + 2U;
1001:USBLIB/Core/Src/usbd_ctlreq.c **** 
1002:USBLIB/Core/Src/usbd_ctlreq.c ****   unicode[idx] = *(uint8_t *)len;
1003:USBLIB/Core/Src/usbd_ctlreq.c ****   idx++;
1004:USBLIB/Core/Src/usbd_ctlreq.c ****   unicode[idx] = USB_DESC_TYPE_STRING;
1005:USBLIB/Core/Src/usbd_ctlreq.c ****   idx++;
1006:USBLIB/Core/Src/usbd_ctlreq.c **** 
1007:USBLIB/Core/Src/usbd_ctlreq.c ****   while (*pdesc != (uint8_t)'\0')
1008:USBLIB/Core/Src/usbd_ctlreq.c ****   {
1009:USBLIB/Core/Src/usbd_ctlreq.c ****     unicode[idx] = *pdesc;
1010:USBLIB/Core/Src/usbd_ctlreq.c ****     pdesc++;
1011:USBLIB/Core/Src/usbd_ctlreq.c ****     idx++;
1012:USBLIB/Core/Src/usbd_ctlreq.c **** 
1013:USBLIB/Core/Src/usbd_ctlreq.c ****     unicode[idx] = 0U;
1014:USBLIB/Core/Src/usbd_ctlreq.c ****     idx++;
1015:USBLIB/Core/Src/usbd_ctlreq.c ****   }
1016:USBLIB/Core/Src/usbd_ctlreq.c **** }
1017:USBLIB/Core/Src/usbd_ctlreq.c **** 
1018:USBLIB/Core/Src/usbd_ctlreq.c **** 
1019:USBLIB/Core/Src/usbd_ctlreq.c **** /**
1020:USBLIB/Core/Src/usbd_ctlreq.c ****   * @brief  USBD_GetLen
1021:USBLIB/Core/Src/usbd_ctlreq.c ****   *         return the string length
1022:USBLIB/Core/Src/usbd_ctlreq.c ****    * @param  buf : pointer to the ascii string buffer
1023:USBLIB/Core/Src/usbd_ctlreq.c ****   * @retval string length
1024:USBLIB/Core/Src/usbd_ctlreq.c ****   */
1025:USBLIB/Core/Src/usbd_ctlreq.c **** static uint8_t USBD_GetLen(uint8_t *buf)
1026:USBLIB/Core/Src/usbd_ctlreq.c **** {
  29              		.loc 1 1026 1 view -0
  30              		.cfi_startproc
  31              		@ args = 0, pretend = 0, frame = 0
  32              		@ frame_needed = 0, uses_anonymous_args = 0
  33              		@ link register save eliminated.
  34              		.loc 1 1026 1 is_stmt 0 view .LVU1
  35 0000 0346     		mov	r3, r0
1027:USBLIB/Core/Src/usbd_ctlreq.c ****   uint8_t  len = 0U;
  36              		.loc 1 1027 3 is_stmt 1 view .LVU2
  37              	.LVL1:
1028:USBLIB/Core/Src/usbd_ctlreq.c ****   uint8_t *pbuff = buf;
  38              		.loc 1 1028 3 view .LVU3
1029:USBLIB/Core/Src/usbd_ctlreq.c **** 
1030:USBLIB/Core/Src/usbd_ctlreq.c ****   while (*pbuff != (uint8_t)'\0')
  39              		.loc 1 1030 3 view .LVU4
1027:USBLIB/Core/Src/usbd_ctlreq.c ****   uint8_t *pbuff = buf;
  40              		.loc 1 1027 12 is_stmt 0 view .LVU5
  41 0002 0020     		movs	r0, #0
  42              	.LVL2:
  43              		.loc 1 1030 9 view .LVU6
  44 0004 02E0     		b	.L2
  45              	.LVL3:
  46              	.L3:
1031:USBLIB/Core/Src/usbd_ctlreq.c ****   {
1032:USBLIB/Core/Src/usbd_ctlreq.c ****     len++;
  47              		.loc 1 1032 5 is_stmt 1 view .LVU7
  48              		.loc 1 1032 8 is_stmt 0 view .LVU8
  49 0006 0130     		adds	r0, r0, #1
  50              	.LVL4:
  51              		.loc 1 1032 8 view .LVU9
ARM GAS  C:\Users\Jim_YW\AppData\Local\Temp\cc86CmOl.s 			page 20


  52 0008 C0B2     		uxtb	r0, r0
  53              	.LVL5:
1033:USBLIB/Core/Src/usbd_ctlreq.c ****     pbuff++;
  54              		.loc 1 1033 5 is_stmt 1 view .LVU10
  55              		.loc 1 1033 10 is_stmt 0 view .LVU11
  56 000a 0133     		adds	r3, r3, #1
  57              	.LVL6:
  58              	.L2:
1030:USBLIB/Core/Src/usbd_ctlreq.c ****   {
  59              		.loc 1 1030 9 is_stmt 1 view .LVU12
1030:USBLIB/Core/Src/usbd_ctlreq.c ****   {
  60              		.loc 1 1030 10 is_stmt 0 view .LVU13
  61 000c 1A78     		ldrb	r2, [r3]	@ zero_extendqisi2
1030:USBLIB/Core/Src/usbd_ctlreq.c ****   {
  62              		.loc 1 1030 9 view .LVU14
  63 000e 002A     		cmp	r2, #0
  64 0010 F9D1     		bne	.L3
1034:USBLIB/Core/Src/usbd_ctlreq.c ****   }
1035:USBLIB/Core/Src/usbd_ctlreq.c **** 
1036:USBLIB/Core/Src/usbd_ctlreq.c ****   return len;
  65              		.loc 1 1036 3 is_stmt 1 view .LVU15
1037:USBLIB/Core/Src/usbd_ctlreq.c **** }
  66              		.loc 1 1037 1 is_stmt 0 view .LVU16
  67 0012 7047     		bx	lr
  68              		.cfi_endproc
  69              	.LFE147:
  71              		.section	.text.USBD_ParseSetupRequest,"ax",%progbits
  72              		.align	1
  73              		.global	USBD_ParseSetupRequest
  74              		.syntax unified
  75              		.thumb
  76              		.thumb_func
  78              	USBD_ParseSetupRequest:
  79              	.LVL7:
  80              	.LFB144:
 944:USBLIB/Core/Src/usbd_ctlreq.c ****   uint8_t *pbuff = pdata;
  81              		.loc 1 944 1 is_stmt 1 view -0
  82              		.cfi_startproc
  83              		@ args = 0, pretend = 0, frame = 0
  84              		@ frame_needed = 0, uses_anonymous_args = 0
  85              		@ link register save eliminated.
 945:USBLIB/Core/Src/usbd_ctlreq.c **** 
  86              		.loc 1 945 3 view .LVU18
 947:USBLIB/Core/Src/usbd_ctlreq.c **** 
  87              		.loc 1 947 3 view .LVU19
 947:USBLIB/Core/Src/usbd_ctlreq.c **** 
  88              		.loc 1 947 20 is_stmt 0 view .LVU20
  89 0000 0B78     		ldrb	r3, [r1]	@ zero_extendqisi2
 947:USBLIB/Core/Src/usbd_ctlreq.c **** 
  90              		.loc 1 947 18 view .LVU21
  91 0002 0370     		strb	r3, [r0]
 949:USBLIB/Core/Src/usbd_ctlreq.c ****   req->bRequest = *(uint8_t *)(pbuff);
  92              		.loc 1 949 3 is_stmt 1 view .LVU22
  93              	.LVL8:
 950:USBLIB/Core/Src/usbd_ctlreq.c **** 
  94              		.loc 1 950 3 view .LVU23
 950:USBLIB/Core/Src/usbd_ctlreq.c **** 
ARM GAS  C:\Users\Jim_YW\AppData\Local\Temp\cc86CmOl.s 			page 21


  95              		.loc 1 950 19 is_stmt 0 view .LVU24
  96 0004 4B78     		ldrb	r3, [r1, #1]	@ zero_extendqisi2
 950:USBLIB/Core/Src/usbd_ctlreq.c **** 
  97              		.loc 1 950 17 view .LVU25
  98 0006 4370     		strb	r3, [r0, #1]
 952:USBLIB/Core/Src/usbd_ctlreq.c ****   req->wValue = SWAPBYTE(pbuff);
  99              		.loc 1 952 3 is_stmt 1 view .LVU26
 100              	.LVL9:
 953:USBLIB/Core/Src/usbd_ctlreq.c **** 
 101              		.loc 1 953 3 view .LVU27
 102              	.LBB8:
 103              	.LBI8:
 104              		.file 2 "USBLIB/Core/Inc/usbd_def.h"
   1:USBLIB/Core/Inc/usbd_def.h **** /**
   2:USBLIB/Core/Inc/usbd_def.h ****   ******************************************************************************
   3:USBLIB/Core/Inc/usbd_def.h ****   * @file    usbd_def.h
   4:USBLIB/Core/Inc/usbd_def.h ****   * @author  MCD Application Team
   5:USBLIB/Core/Inc/usbd_def.h ****   * @brief   General defines for the usb device library
   6:USBLIB/Core/Inc/usbd_def.h ****   ******************************************************************************
   7:USBLIB/Core/Inc/usbd_def.h ****   * @attention
   8:USBLIB/Core/Inc/usbd_def.h ****   *
   9:USBLIB/Core/Inc/usbd_def.h ****   * Copyright (c) 2015 STMicroelectronics.
  10:USBLIB/Core/Inc/usbd_def.h ****   * All rights reserved.
  11:USBLIB/Core/Inc/usbd_def.h ****   *
  12:USBLIB/Core/Inc/usbd_def.h ****   * This software is licensed under terms that can be found in the LICENSE file
  13:USBLIB/Core/Inc/usbd_def.h ****   * in the root directory of this software component.
  14:USBLIB/Core/Inc/usbd_def.h ****   * If no LICENSE file comes with this software, it is provided AS-IS.
  15:USBLIB/Core/Inc/usbd_def.h ****   *
  16:USBLIB/Core/Inc/usbd_def.h ****   ******************************************************************************
  17:USBLIB/Core/Inc/usbd_def.h ****   */
  18:USBLIB/Core/Inc/usbd_def.h **** 
  19:USBLIB/Core/Inc/usbd_def.h **** /* Define to prevent recursive inclusion -------------------------------------*/
  20:USBLIB/Core/Inc/usbd_def.h **** #ifndef __USBD_DEF_H
  21:USBLIB/Core/Inc/usbd_def.h **** #define __USBD_DEF_H
  22:USBLIB/Core/Inc/usbd_def.h **** 
  23:USBLIB/Core/Inc/usbd_def.h **** #ifdef __cplusplus
  24:USBLIB/Core/Inc/usbd_def.h **** extern "C" {
  25:USBLIB/Core/Inc/usbd_def.h **** #endif
  26:USBLIB/Core/Inc/usbd_def.h **** 
  27:USBLIB/Core/Inc/usbd_def.h **** /* Includes ------------------------------------------------------------------*/
  28:USBLIB/Core/Inc/usbd_def.h **** #include "usbd_conf.h"
  29:USBLIB/Core/Inc/usbd_def.h **** 
  30:USBLIB/Core/Inc/usbd_def.h **** /** @addtogroup STM32_USBD_DEVICE_LIBRARY
  31:USBLIB/Core/Inc/usbd_def.h ****   * @{
  32:USBLIB/Core/Inc/usbd_def.h ****   */
  33:USBLIB/Core/Inc/usbd_def.h **** 
  34:USBLIB/Core/Inc/usbd_def.h **** /** @defgroup USB_DEF
  35:USBLIB/Core/Inc/usbd_def.h ****   * @brief general defines for the usb device library file
  36:USBLIB/Core/Inc/usbd_def.h ****   * @{
  37:USBLIB/Core/Inc/usbd_def.h ****   */
  38:USBLIB/Core/Inc/usbd_def.h **** 
  39:USBLIB/Core/Inc/usbd_def.h **** /** @defgroup USB_DEF_Exported_Defines
  40:USBLIB/Core/Inc/usbd_def.h ****   * @{
  41:USBLIB/Core/Inc/usbd_def.h ****   */
  42:USBLIB/Core/Inc/usbd_def.h **** 
  43:USBLIB/Core/Inc/usbd_def.h **** #ifndef NULL
  44:USBLIB/Core/Inc/usbd_def.h **** #define NULL                                            0U
ARM GAS  C:\Users\Jim_YW\AppData\Local\Temp\cc86CmOl.s 			page 22


  45:USBLIB/Core/Inc/usbd_def.h **** #endif /* NULL */
  46:USBLIB/Core/Inc/usbd_def.h **** 
  47:USBLIB/Core/Inc/usbd_def.h **** #ifndef USBD_MAX_NUM_INTERFACES
  48:USBLIB/Core/Inc/usbd_def.h **** #define USBD_MAX_NUM_INTERFACES                         1U
  49:USBLIB/Core/Inc/usbd_def.h **** #endif /* USBD_MAX_NUM_CONFIGURATION */
  50:USBLIB/Core/Inc/usbd_def.h **** 
  51:USBLIB/Core/Inc/usbd_def.h **** #ifndef USBD_MAX_NUM_CONFIGURATION
  52:USBLIB/Core/Inc/usbd_def.h **** #define USBD_MAX_NUM_CONFIGURATION                      1U
  53:USBLIB/Core/Inc/usbd_def.h **** #endif /* USBD_MAX_NUM_CONFIGURATION */
  54:USBLIB/Core/Inc/usbd_def.h **** 
  55:USBLIB/Core/Inc/usbd_def.h **** #ifdef USE_USBD_COMPOSITE
  56:USBLIB/Core/Inc/usbd_def.h **** #ifndef USBD_MAX_SUPPORTED_CLASS
  57:USBLIB/Core/Inc/usbd_def.h **** #define USBD_MAX_SUPPORTED_CLASS                       4U
  58:USBLIB/Core/Inc/usbd_def.h **** #endif /* USBD_MAX_SUPPORTED_CLASS */
  59:USBLIB/Core/Inc/usbd_def.h **** #else
  60:USBLIB/Core/Inc/usbd_def.h **** #ifndef USBD_MAX_SUPPORTED_CLASS
  61:USBLIB/Core/Inc/usbd_def.h **** #define USBD_MAX_SUPPORTED_CLASS                       1U
  62:USBLIB/Core/Inc/usbd_def.h **** #endif /* USBD_MAX_SUPPORTED_CLASS */
  63:USBLIB/Core/Inc/usbd_def.h **** #endif /* USE_USBD_COMPOSITE */
  64:USBLIB/Core/Inc/usbd_def.h **** 
  65:USBLIB/Core/Inc/usbd_def.h **** #ifndef USBD_MAX_CLASS_ENDPOINTS
  66:USBLIB/Core/Inc/usbd_def.h **** #define USBD_MAX_CLASS_ENDPOINTS                       5U
  67:USBLIB/Core/Inc/usbd_def.h **** #endif /* USBD_MAX_CLASS_ENDPOINTS */
  68:USBLIB/Core/Inc/usbd_def.h **** 
  69:USBLIB/Core/Inc/usbd_def.h **** #ifndef USBD_MAX_CLASS_INTERFACES
  70:USBLIB/Core/Inc/usbd_def.h **** #define USBD_MAX_CLASS_INTERFACES                      5U
  71:USBLIB/Core/Inc/usbd_def.h **** #endif /* USBD_MAX_CLASS_INTERFACES */
  72:USBLIB/Core/Inc/usbd_def.h **** 
  73:USBLIB/Core/Inc/usbd_def.h **** #ifndef USBD_LPM_ENABLED
  74:USBLIB/Core/Inc/usbd_def.h **** #define USBD_LPM_ENABLED                                0U
  75:USBLIB/Core/Inc/usbd_def.h **** #endif /* USBD_LPM_ENABLED */
  76:USBLIB/Core/Inc/usbd_def.h **** 
  77:USBLIB/Core/Inc/usbd_def.h **** #ifndef USBD_SELF_POWERED
  78:USBLIB/Core/Inc/usbd_def.h **** #define USBD_SELF_POWERED                               1U
  79:USBLIB/Core/Inc/usbd_def.h **** #endif /*USBD_SELF_POWERED */
  80:USBLIB/Core/Inc/usbd_def.h **** 
  81:USBLIB/Core/Inc/usbd_def.h **** #ifndef USBD_MAX_POWER
  82:USBLIB/Core/Inc/usbd_def.h **** #define USBD_MAX_POWER                                  0x32U /* 100 mA */
  83:USBLIB/Core/Inc/usbd_def.h **** #endif /* USBD_MAX_POWER */
  84:USBLIB/Core/Inc/usbd_def.h **** 
  85:USBLIB/Core/Inc/usbd_def.h **** #ifndef USBD_SUPPORT_USER_STRING_DESC
  86:USBLIB/Core/Inc/usbd_def.h **** #define USBD_SUPPORT_USER_STRING_DESC                   0U
  87:USBLIB/Core/Inc/usbd_def.h **** #endif /* USBD_SUPPORT_USER_STRING_DESC */
  88:USBLIB/Core/Inc/usbd_def.h **** 
  89:USBLIB/Core/Inc/usbd_def.h **** #ifndef USBD_CLASS_USER_STRING_DESC
  90:USBLIB/Core/Inc/usbd_def.h **** #define USBD_CLASS_USER_STRING_DESC                     0U
  91:USBLIB/Core/Inc/usbd_def.h **** #endif /* USBD_CLASS_USER_STRING_DESC */
  92:USBLIB/Core/Inc/usbd_def.h **** 
  93:USBLIB/Core/Inc/usbd_def.h **** #define  USB_LEN_DEV_QUALIFIER_DESC                     0x0AU
  94:USBLIB/Core/Inc/usbd_def.h **** #define  USB_LEN_DEV_DESC                               0x12U
  95:USBLIB/Core/Inc/usbd_def.h **** #define  USB_LEN_CFG_DESC                               0x09U
  96:USBLIB/Core/Inc/usbd_def.h **** #define  USB_LEN_IF_DESC                                0x09U
  97:USBLIB/Core/Inc/usbd_def.h **** #define  USB_LEN_EP_DESC                                0x07U
  98:USBLIB/Core/Inc/usbd_def.h **** #define  USB_LEN_OTG_DESC                               0x03U
  99:USBLIB/Core/Inc/usbd_def.h **** #define  USB_LEN_LANGID_STR_DESC                        0x04U
 100:USBLIB/Core/Inc/usbd_def.h **** #define  USB_LEN_OTHER_SPEED_DESC_SIZ                   0x09U
 101:USBLIB/Core/Inc/usbd_def.h **** 
ARM GAS  C:\Users\Jim_YW\AppData\Local\Temp\cc86CmOl.s 			page 23


 102:USBLIB/Core/Inc/usbd_def.h **** #define  USBD_IDX_LANGID_STR                            0x00U
 103:USBLIB/Core/Inc/usbd_def.h **** #define  USBD_IDX_MFC_STR                               0x01U
 104:USBLIB/Core/Inc/usbd_def.h **** #define  USBD_IDX_PRODUCT_STR                           0x02U
 105:USBLIB/Core/Inc/usbd_def.h **** #define  USBD_IDX_SERIAL_STR                            0x03U
 106:USBLIB/Core/Inc/usbd_def.h **** #define  USBD_IDX_CONFIG_STR                            0x04U
 107:USBLIB/Core/Inc/usbd_def.h **** #define  USBD_IDX_INTERFACE_STR                         0x05U
 108:USBLIB/Core/Inc/usbd_def.h **** 
 109:USBLIB/Core/Inc/usbd_def.h **** #define  USB_REQ_TYPE_STANDARD                          0x00U
 110:USBLIB/Core/Inc/usbd_def.h **** #define  USB_REQ_TYPE_CLASS                             0x20U
 111:USBLIB/Core/Inc/usbd_def.h **** #define  USB_REQ_TYPE_VENDOR                            0x40U
 112:USBLIB/Core/Inc/usbd_def.h **** #define  USB_REQ_TYPE_MASK                              0x60U
 113:USBLIB/Core/Inc/usbd_def.h **** 
 114:USBLIB/Core/Inc/usbd_def.h **** #define  USB_REQ_RECIPIENT_DEVICE                       0x00U
 115:USBLIB/Core/Inc/usbd_def.h **** #define  USB_REQ_RECIPIENT_INTERFACE                    0x01U
 116:USBLIB/Core/Inc/usbd_def.h **** #define  USB_REQ_RECIPIENT_ENDPOINT                     0x02U
 117:USBLIB/Core/Inc/usbd_def.h **** #define  USB_REQ_RECIPIENT_MASK                         0x03U
 118:USBLIB/Core/Inc/usbd_def.h **** 
 119:USBLIB/Core/Inc/usbd_def.h **** #define  USB_REQ_GET_STATUS                             0x00U
 120:USBLIB/Core/Inc/usbd_def.h **** #define  USB_REQ_CLEAR_FEATURE                          0x01U
 121:USBLIB/Core/Inc/usbd_def.h **** #define  USB_REQ_SET_FEATURE                            0x03U
 122:USBLIB/Core/Inc/usbd_def.h **** #define  USB_REQ_SET_ADDRESS                            0x05U
 123:USBLIB/Core/Inc/usbd_def.h **** #define  USB_REQ_GET_DESCRIPTOR                         0x06U
 124:USBLIB/Core/Inc/usbd_def.h **** #define  USB_REQ_SET_DESCRIPTOR                         0x07U
 125:USBLIB/Core/Inc/usbd_def.h **** #define  USB_REQ_GET_CONFIGURATION                      0x08U
 126:USBLIB/Core/Inc/usbd_def.h **** #define  USB_REQ_SET_CONFIGURATION                      0x09U
 127:USBLIB/Core/Inc/usbd_def.h **** #define  USB_REQ_GET_INTERFACE                          0x0AU
 128:USBLIB/Core/Inc/usbd_def.h **** #define  USB_REQ_SET_INTERFACE                          0x0BU
 129:USBLIB/Core/Inc/usbd_def.h **** #define  USB_REQ_SYNCH_FRAME                            0x0CU
 130:USBLIB/Core/Inc/usbd_def.h **** 
 131:USBLIB/Core/Inc/usbd_def.h **** #define  USB_DESC_TYPE_DEVICE                           0x01U
 132:USBLIB/Core/Inc/usbd_def.h **** #define  USB_DESC_TYPE_CONFIGURATION                    0x02U
 133:USBLIB/Core/Inc/usbd_def.h **** #define  USB_DESC_TYPE_STRING                           0x03U
 134:USBLIB/Core/Inc/usbd_def.h **** #define  USB_DESC_TYPE_INTERFACE                        0x04U
 135:USBLIB/Core/Inc/usbd_def.h **** #define  USB_DESC_TYPE_ENDPOINT                         0x05U
 136:USBLIB/Core/Inc/usbd_def.h **** #define  USB_DESC_TYPE_DEVICE_QUALIFIER                 0x06U
 137:USBLIB/Core/Inc/usbd_def.h **** #define  USB_DESC_TYPE_OTHER_SPEED_CONFIGURATION        0x07U
 138:USBLIB/Core/Inc/usbd_def.h **** #define  USB_DESC_TYPE_IAD                              0x0BU
 139:USBLIB/Core/Inc/usbd_def.h **** #define  USB_DESC_TYPE_BOS                              0x0FU
 140:USBLIB/Core/Inc/usbd_def.h **** 
 141:USBLIB/Core/Inc/usbd_def.h **** #define USB_CONFIG_REMOTE_WAKEUP                        0x02U
 142:USBLIB/Core/Inc/usbd_def.h **** #define USB_CONFIG_SELF_POWERED                         0x01U
 143:USBLIB/Core/Inc/usbd_def.h **** 
 144:USBLIB/Core/Inc/usbd_def.h **** #define USB_FEATURE_EP_HALT                             0x00U
 145:USBLIB/Core/Inc/usbd_def.h **** #define USB_FEATURE_REMOTE_WAKEUP                       0x01U
 146:USBLIB/Core/Inc/usbd_def.h **** #define USB_FEATURE_TEST_MODE                           0x02U
 147:USBLIB/Core/Inc/usbd_def.h **** 
 148:USBLIB/Core/Inc/usbd_def.h **** #define USB_DEVICE_CAPABITY_TYPE                        0x10U
 149:USBLIB/Core/Inc/usbd_def.h **** 
 150:USBLIB/Core/Inc/usbd_def.h **** #define USB_CONF_DESC_SIZE                              0x09U
 151:USBLIB/Core/Inc/usbd_def.h **** #define USB_IF_DESC_SIZE                                0x09U
 152:USBLIB/Core/Inc/usbd_def.h **** #define USB_EP_DESC_SIZE                                0x07U
 153:USBLIB/Core/Inc/usbd_def.h **** #define USB_IAD_DESC_SIZE                               0x08U
 154:USBLIB/Core/Inc/usbd_def.h **** 
 155:USBLIB/Core/Inc/usbd_def.h **** #define USB_HS_MAX_PACKET_SIZE                          512U
 156:USBLIB/Core/Inc/usbd_def.h **** #define USB_FS_MAX_PACKET_SIZE                          64U
 157:USBLIB/Core/Inc/usbd_def.h **** #define USB_MAX_EP0_SIZE                                64U
 158:USBLIB/Core/Inc/usbd_def.h **** 
ARM GAS  C:\Users\Jim_YW\AppData\Local\Temp\cc86CmOl.s 			page 24


 159:USBLIB/Core/Inc/usbd_def.h **** /*  Device Status */
 160:USBLIB/Core/Inc/usbd_def.h **** #define USBD_STATE_DEFAULT                              0x01U
 161:USBLIB/Core/Inc/usbd_def.h **** #define USBD_STATE_ADDRESSED                            0x02U
 162:USBLIB/Core/Inc/usbd_def.h **** #define USBD_STATE_CONFIGURED                           0x03U
 163:USBLIB/Core/Inc/usbd_def.h **** #define USBD_STATE_SUSPENDED                            0x04U
 164:USBLIB/Core/Inc/usbd_def.h **** 
 165:USBLIB/Core/Inc/usbd_def.h **** 
 166:USBLIB/Core/Inc/usbd_def.h **** /*  EP0 State */
 167:USBLIB/Core/Inc/usbd_def.h **** #define USBD_EP0_IDLE                                   0x00U
 168:USBLIB/Core/Inc/usbd_def.h **** #define USBD_EP0_SETUP                                  0x01U
 169:USBLIB/Core/Inc/usbd_def.h **** #define USBD_EP0_DATA_IN                                0x02U
 170:USBLIB/Core/Inc/usbd_def.h **** #define USBD_EP0_DATA_OUT                               0x03U
 171:USBLIB/Core/Inc/usbd_def.h **** #define USBD_EP0_STATUS_IN                              0x04U
 172:USBLIB/Core/Inc/usbd_def.h **** #define USBD_EP0_STATUS_OUT                             0x05U
 173:USBLIB/Core/Inc/usbd_def.h **** #define USBD_EP0_STALL                                  0x06U
 174:USBLIB/Core/Inc/usbd_def.h **** 
 175:USBLIB/Core/Inc/usbd_def.h **** #define USBD_EP_TYPE_CTRL                               0x00U
 176:USBLIB/Core/Inc/usbd_def.h **** #define USBD_EP_TYPE_ISOC                               0x01U
 177:USBLIB/Core/Inc/usbd_def.h **** #define USBD_EP_TYPE_BULK                               0x02U
 178:USBLIB/Core/Inc/usbd_def.h **** #define USBD_EP_TYPE_INTR                               0x03U
 179:USBLIB/Core/Inc/usbd_def.h **** 
 180:USBLIB/Core/Inc/usbd_def.h **** #ifdef USE_USBD_COMPOSITE
 181:USBLIB/Core/Inc/usbd_def.h **** #define USBD_EP_IN                                      0x80U
 182:USBLIB/Core/Inc/usbd_def.h **** #define USBD_EP_OUT                                     0x00U
 183:USBLIB/Core/Inc/usbd_def.h **** #define USBD_FUNC_DESCRIPTOR_TYPE                       0x24U
 184:USBLIB/Core/Inc/usbd_def.h **** #define USBD_DESC_SUBTYPE_ACM                           0x0FU
 185:USBLIB/Core/Inc/usbd_def.h **** #define USBD_DESC_ECM_BCD_LOW                           0x00U
 186:USBLIB/Core/Inc/usbd_def.h **** #define USBD_DESC_ECM_BCD_HIGH                          0x10U
 187:USBLIB/Core/Inc/usbd_def.h **** #endif /* USE_USBD_COMPOSITE */
 188:USBLIB/Core/Inc/usbd_def.h **** /**
 189:USBLIB/Core/Inc/usbd_def.h ****   * @}
 190:USBLIB/Core/Inc/usbd_def.h ****   */
 191:USBLIB/Core/Inc/usbd_def.h **** 
 192:USBLIB/Core/Inc/usbd_def.h **** 
 193:USBLIB/Core/Inc/usbd_def.h **** /** @defgroup USBD_DEF_Exported_TypesDefinitions
 194:USBLIB/Core/Inc/usbd_def.h ****   * @{
 195:USBLIB/Core/Inc/usbd_def.h ****   */
 196:USBLIB/Core/Inc/usbd_def.h **** 
 197:USBLIB/Core/Inc/usbd_def.h **** typedef  struct  usb_setup_req
 198:USBLIB/Core/Inc/usbd_def.h **** {
 199:USBLIB/Core/Inc/usbd_def.h ****   uint8_t   bmRequest;
 200:USBLIB/Core/Inc/usbd_def.h ****   uint8_t   bRequest;
 201:USBLIB/Core/Inc/usbd_def.h ****   uint16_t  wValue;
 202:USBLIB/Core/Inc/usbd_def.h ****   uint16_t  wIndex;
 203:USBLIB/Core/Inc/usbd_def.h ****   uint16_t  wLength;
 204:USBLIB/Core/Inc/usbd_def.h **** } USBD_SetupReqTypedef;
 205:USBLIB/Core/Inc/usbd_def.h **** 
 206:USBLIB/Core/Inc/usbd_def.h **** typedef struct
 207:USBLIB/Core/Inc/usbd_def.h **** {
 208:USBLIB/Core/Inc/usbd_def.h ****   uint8_t   bLength;
 209:USBLIB/Core/Inc/usbd_def.h ****   uint8_t   bDescriptorType;
 210:USBLIB/Core/Inc/usbd_def.h ****   uint16_t  wTotalLength;
 211:USBLIB/Core/Inc/usbd_def.h ****   uint8_t   bNumInterfaces;
 212:USBLIB/Core/Inc/usbd_def.h ****   uint8_t   bConfigurationValue;
 213:USBLIB/Core/Inc/usbd_def.h ****   uint8_t   iConfiguration;
 214:USBLIB/Core/Inc/usbd_def.h ****   uint8_t   bmAttributes;
 215:USBLIB/Core/Inc/usbd_def.h ****   uint8_t   bMaxPower;
ARM GAS  C:\Users\Jim_YW\AppData\Local\Temp\cc86CmOl.s 			page 25


 216:USBLIB/Core/Inc/usbd_def.h **** } __PACKED USBD_ConfigDescTypeDef;
 217:USBLIB/Core/Inc/usbd_def.h **** 
 218:USBLIB/Core/Inc/usbd_def.h **** typedef struct
 219:USBLIB/Core/Inc/usbd_def.h **** {
 220:USBLIB/Core/Inc/usbd_def.h ****   uint8_t   bLength;
 221:USBLIB/Core/Inc/usbd_def.h ****   uint8_t   bDescriptorType;
 222:USBLIB/Core/Inc/usbd_def.h ****   uint16_t  wTotalLength;
 223:USBLIB/Core/Inc/usbd_def.h ****   uint8_t   bNumDeviceCaps;
 224:USBLIB/Core/Inc/usbd_def.h **** } USBD_BosDescTypeDef;
 225:USBLIB/Core/Inc/usbd_def.h **** 
 226:USBLIB/Core/Inc/usbd_def.h **** typedef struct
 227:USBLIB/Core/Inc/usbd_def.h **** {
 228:USBLIB/Core/Inc/usbd_def.h ****   uint8_t   bLength;
 229:USBLIB/Core/Inc/usbd_def.h ****   uint8_t   bDescriptorType;
 230:USBLIB/Core/Inc/usbd_def.h ****   uint8_t   bEndpointAddress;
 231:USBLIB/Core/Inc/usbd_def.h ****   uint8_t   bmAttributes;
 232:USBLIB/Core/Inc/usbd_def.h ****   uint16_t  wMaxPacketSize;
 233:USBLIB/Core/Inc/usbd_def.h ****   uint8_t   bInterval;
 234:USBLIB/Core/Inc/usbd_def.h **** } __PACKED USBD_EpDescTypeDef;
 235:USBLIB/Core/Inc/usbd_def.h **** 
 236:USBLIB/Core/Inc/usbd_def.h **** typedef  struct
 237:USBLIB/Core/Inc/usbd_def.h **** {
 238:USBLIB/Core/Inc/usbd_def.h ****   uint8_t  bLength;
 239:USBLIB/Core/Inc/usbd_def.h ****   uint8_t  bDescriptorType;
 240:USBLIB/Core/Inc/usbd_def.h ****   uint8_t  bDescriptorSubType;
 241:USBLIB/Core/Inc/usbd_def.h **** } USBD_DescHeaderTypeDef;
 242:USBLIB/Core/Inc/usbd_def.h **** 
 243:USBLIB/Core/Inc/usbd_def.h **** struct _USBD_HandleTypeDef;
 244:USBLIB/Core/Inc/usbd_def.h **** 
 245:USBLIB/Core/Inc/usbd_def.h **** typedef struct _Device_cb
 246:USBLIB/Core/Inc/usbd_def.h **** {
 247:USBLIB/Core/Inc/usbd_def.h ****   uint8_t (*Init)(struct _USBD_HandleTypeDef *pdev, uint8_t cfgidx);
 248:USBLIB/Core/Inc/usbd_def.h ****   uint8_t (*DeInit)(struct _USBD_HandleTypeDef *pdev, uint8_t cfgidx);
 249:USBLIB/Core/Inc/usbd_def.h ****   /* Control Endpoints*/
 250:USBLIB/Core/Inc/usbd_def.h ****   uint8_t (*Setup)(struct _USBD_HandleTypeDef *pdev, USBD_SetupReqTypedef  *req);
 251:USBLIB/Core/Inc/usbd_def.h ****   uint8_t (*EP0_TxSent)(struct _USBD_HandleTypeDef *pdev);
 252:USBLIB/Core/Inc/usbd_def.h ****   uint8_t (*EP0_RxReady)(struct _USBD_HandleTypeDef *pdev);
 253:USBLIB/Core/Inc/usbd_def.h ****   /* Class Specific Endpoints*/
 254:USBLIB/Core/Inc/usbd_def.h ****   uint8_t (*DataIn)(struct _USBD_HandleTypeDef *pdev, uint8_t epnum);
 255:USBLIB/Core/Inc/usbd_def.h ****   uint8_t (*DataOut)(struct _USBD_HandleTypeDef *pdev, uint8_t epnum);
 256:USBLIB/Core/Inc/usbd_def.h ****   uint8_t (*SOF)(struct _USBD_HandleTypeDef *pdev);
 257:USBLIB/Core/Inc/usbd_def.h ****   uint8_t (*IsoINIncomplete)(struct _USBD_HandleTypeDef *pdev, uint8_t epnum);
 258:USBLIB/Core/Inc/usbd_def.h ****   uint8_t (*IsoOUTIncomplete)(struct _USBD_HandleTypeDef *pdev, uint8_t epnum);
 259:USBLIB/Core/Inc/usbd_def.h **** 
 260:USBLIB/Core/Inc/usbd_def.h ****   uint8_t  *(*GetHSConfigDescriptor)(uint16_t *length);
 261:USBLIB/Core/Inc/usbd_def.h ****   uint8_t  *(*GetFSConfigDescriptor)(uint16_t *length);
 262:USBLIB/Core/Inc/usbd_def.h ****   uint8_t  *(*GetOtherSpeedConfigDescriptor)(uint16_t *length);
 263:USBLIB/Core/Inc/usbd_def.h ****   uint8_t  *(*GetDeviceQualifierDescriptor)(uint16_t *length);
 264:USBLIB/Core/Inc/usbd_def.h **** #if (USBD_SUPPORT_USER_STRING_DESC == 1U)
 265:USBLIB/Core/Inc/usbd_def.h ****   uint8_t  *(*GetUsrStrDescriptor)(struct _USBD_HandleTypeDef *pdev, uint8_t index,  uint16_t *leng
 266:USBLIB/Core/Inc/usbd_def.h **** #endif /* USBD_SUPPORT_USER_STRING_DESC  */
 267:USBLIB/Core/Inc/usbd_def.h **** 
 268:USBLIB/Core/Inc/usbd_def.h **** } USBD_ClassTypeDef;
 269:USBLIB/Core/Inc/usbd_def.h **** 
 270:USBLIB/Core/Inc/usbd_def.h **** /* Following USB Device Speed */
 271:USBLIB/Core/Inc/usbd_def.h **** typedef enum
 272:USBLIB/Core/Inc/usbd_def.h **** {
ARM GAS  C:\Users\Jim_YW\AppData\Local\Temp\cc86CmOl.s 			page 26


 273:USBLIB/Core/Inc/usbd_def.h ****   USBD_SPEED_HIGH  = 0U,
 274:USBLIB/Core/Inc/usbd_def.h ****   USBD_SPEED_FULL  = 1U,
 275:USBLIB/Core/Inc/usbd_def.h ****   USBD_SPEED_LOW   = 2U,
 276:USBLIB/Core/Inc/usbd_def.h **** } USBD_SpeedTypeDef;
 277:USBLIB/Core/Inc/usbd_def.h **** 
 278:USBLIB/Core/Inc/usbd_def.h **** /* Following USB Device status */
 279:USBLIB/Core/Inc/usbd_def.h **** typedef enum
 280:USBLIB/Core/Inc/usbd_def.h **** {
 281:USBLIB/Core/Inc/usbd_def.h ****   USBD_OK = 0U,
 282:USBLIB/Core/Inc/usbd_def.h ****   USBD_BUSY,
 283:USBLIB/Core/Inc/usbd_def.h ****   USBD_EMEM,
 284:USBLIB/Core/Inc/usbd_def.h ****   USBD_FAIL,
 285:USBLIB/Core/Inc/usbd_def.h **** } USBD_StatusTypeDef;
 286:USBLIB/Core/Inc/usbd_def.h **** 
 287:USBLIB/Core/Inc/usbd_def.h **** /* USB Device descriptors structure */
 288:USBLIB/Core/Inc/usbd_def.h **** typedef struct
 289:USBLIB/Core/Inc/usbd_def.h **** {
 290:USBLIB/Core/Inc/usbd_def.h ****   uint8_t *(*GetDeviceDescriptor)(USBD_SpeedTypeDef speed, uint16_t *length);
 291:USBLIB/Core/Inc/usbd_def.h ****   uint8_t *(*GetLangIDStrDescriptor)(USBD_SpeedTypeDef speed, uint16_t *length);
 292:USBLIB/Core/Inc/usbd_def.h ****   uint8_t *(*GetManufacturerStrDescriptor)(USBD_SpeedTypeDef speed, uint16_t *length);
 293:USBLIB/Core/Inc/usbd_def.h ****   uint8_t *(*GetProductStrDescriptor)(USBD_SpeedTypeDef speed, uint16_t *length);
 294:USBLIB/Core/Inc/usbd_def.h ****   uint8_t *(*GetSerialStrDescriptor)(USBD_SpeedTypeDef speed, uint16_t *length);
 295:USBLIB/Core/Inc/usbd_def.h ****   uint8_t *(*GetConfigurationStrDescriptor)(USBD_SpeedTypeDef speed, uint16_t *length);
 296:USBLIB/Core/Inc/usbd_def.h ****   uint8_t *(*GetInterfaceStrDescriptor)(USBD_SpeedTypeDef speed, uint16_t *length);
 297:USBLIB/Core/Inc/usbd_def.h **** #if (USBD_CLASS_USER_STRING_DESC == 1)
 298:USBLIB/Core/Inc/usbd_def.h ****   uint8_t *(*GetUserStrDescriptor)(USBD_SpeedTypeDef speed, uint8_t idx, uint16_t *length);
 299:USBLIB/Core/Inc/usbd_def.h **** #endif /* USBD_CLASS_USER_STRING_DESC */
 300:USBLIB/Core/Inc/usbd_def.h **** #if ((USBD_LPM_ENABLED == 1U) || (USBD_CLASS_BOS_ENABLED == 1))
 301:USBLIB/Core/Inc/usbd_def.h ****   uint8_t *(*GetBOSDescriptor)(USBD_SpeedTypeDef speed, uint16_t *length);
 302:USBLIB/Core/Inc/usbd_def.h **** #endif /* (USBD_LPM_ENABLED == 1U) || (USBD_CLASS_BOS_ENABLED == 1) */
 303:USBLIB/Core/Inc/usbd_def.h **** } USBD_DescriptorsTypeDef;
 304:USBLIB/Core/Inc/usbd_def.h **** 
 305:USBLIB/Core/Inc/usbd_def.h **** /* USB Device handle structure */
 306:USBLIB/Core/Inc/usbd_def.h **** typedef struct
 307:USBLIB/Core/Inc/usbd_def.h **** {
 308:USBLIB/Core/Inc/usbd_def.h ****   uint32_t status;
 309:USBLIB/Core/Inc/usbd_def.h ****   uint32_t total_length;
 310:USBLIB/Core/Inc/usbd_def.h ****   uint32_t rem_length;
 311:USBLIB/Core/Inc/usbd_def.h ****   uint32_t maxpacket;
 312:USBLIB/Core/Inc/usbd_def.h ****   uint16_t is_used;
 313:USBLIB/Core/Inc/usbd_def.h ****   uint16_t bInterval;
 314:USBLIB/Core/Inc/usbd_def.h **** } USBD_EndpointTypeDef;
 315:USBLIB/Core/Inc/usbd_def.h **** 
 316:USBLIB/Core/Inc/usbd_def.h **** #ifdef USE_USBD_COMPOSITE
 317:USBLIB/Core/Inc/usbd_def.h **** typedef enum
 318:USBLIB/Core/Inc/usbd_def.h **** {
 319:USBLIB/Core/Inc/usbd_def.h ****   CLASS_TYPE_NONE    = 0,
 320:USBLIB/Core/Inc/usbd_def.h ****   CLASS_TYPE_HID     = 1,
 321:USBLIB/Core/Inc/usbd_def.h ****   CLASS_TYPE_CDC     = 2,
 322:USBLIB/Core/Inc/usbd_def.h ****   CLASS_TYPE_MSC     = 3,
 323:USBLIB/Core/Inc/usbd_def.h ****   CLASS_TYPE_DFU     = 4,
 324:USBLIB/Core/Inc/usbd_def.h ****   CLASS_TYPE_CHID    = 5,
 325:USBLIB/Core/Inc/usbd_def.h ****   CLASS_TYPE_AUDIO   = 6,
 326:USBLIB/Core/Inc/usbd_def.h ****   CLASS_TYPE_ECM     = 7,
 327:USBLIB/Core/Inc/usbd_def.h ****   CLASS_TYPE_RNDIS   = 8,
 328:USBLIB/Core/Inc/usbd_def.h ****   CLASS_TYPE_MTP     = 9,
 329:USBLIB/Core/Inc/usbd_def.h ****   CLASS_TYPE_VIDEO   = 10,
ARM GAS  C:\Users\Jim_YW\AppData\Local\Temp\cc86CmOl.s 			page 27


 330:USBLIB/Core/Inc/usbd_def.h ****   CLASS_TYPE_PRINTER = 11,
 331:USBLIB/Core/Inc/usbd_def.h ****   CLASS_TYPE_CCID    = 12,
 332:USBLIB/Core/Inc/usbd_def.h **** } USBD_CompositeClassTypeDef;
 333:USBLIB/Core/Inc/usbd_def.h **** 
 334:USBLIB/Core/Inc/usbd_def.h **** 
 335:USBLIB/Core/Inc/usbd_def.h **** /* USB Device handle structure */
 336:USBLIB/Core/Inc/usbd_def.h **** typedef struct
 337:USBLIB/Core/Inc/usbd_def.h **** {
 338:USBLIB/Core/Inc/usbd_def.h ****   uint8_t                     add;
 339:USBLIB/Core/Inc/usbd_def.h ****   uint8_t                     type;
 340:USBLIB/Core/Inc/usbd_def.h ****   uint8_t                     size;
 341:USBLIB/Core/Inc/usbd_def.h ****   uint8_t                     is_used;
 342:USBLIB/Core/Inc/usbd_def.h **** } USBD_EPTypeDef;
 343:USBLIB/Core/Inc/usbd_def.h **** 
 344:USBLIB/Core/Inc/usbd_def.h **** /* USB Device handle structure */
 345:USBLIB/Core/Inc/usbd_def.h **** typedef struct
 346:USBLIB/Core/Inc/usbd_def.h **** {
 347:USBLIB/Core/Inc/usbd_def.h ****   USBD_CompositeClassTypeDef   ClassType;
 348:USBLIB/Core/Inc/usbd_def.h ****   uint32_t                     ClassId;
 349:USBLIB/Core/Inc/usbd_def.h ****   uint32_t                     Active;
 350:USBLIB/Core/Inc/usbd_def.h ****   uint32_t                     NumEps;
 351:USBLIB/Core/Inc/usbd_def.h ****   USBD_EPTypeDef               Eps[USBD_MAX_CLASS_ENDPOINTS];
 352:USBLIB/Core/Inc/usbd_def.h ****   uint8_t                      *EpAdd;
 353:USBLIB/Core/Inc/usbd_def.h ****   uint32_t                     NumIf;
 354:USBLIB/Core/Inc/usbd_def.h ****   uint8_t                      Ifs[USBD_MAX_CLASS_INTERFACES];
 355:USBLIB/Core/Inc/usbd_def.h ****   uint32_t                     CurrPcktSze;
 356:USBLIB/Core/Inc/usbd_def.h **** } USBD_CompositeElementTypeDef;
 357:USBLIB/Core/Inc/usbd_def.h **** #endif /* USE_USBD_COMPOSITE */
 358:USBLIB/Core/Inc/usbd_def.h **** 
 359:USBLIB/Core/Inc/usbd_def.h **** /* USB Device handle structure */
 360:USBLIB/Core/Inc/usbd_def.h **** typedef struct _USBD_HandleTypeDef
 361:USBLIB/Core/Inc/usbd_def.h **** {
 362:USBLIB/Core/Inc/usbd_def.h ****   uint8_t                 id;
 363:USBLIB/Core/Inc/usbd_def.h ****   uint32_t                dev_config;
 364:USBLIB/Core/Inc/usbd_def.h ****   uint32_t                dev_default_config;
 365:USBLIB/Core/Inc/usbd_def.h ****   uint32_t                dev_config_status;
 366:USBLIB/Core/Inc/usbd_def.h ****   USBD_SpeedTypeDef       dev_speed;
 367:USBLIB/Core/Inc/usbd_def.h ****   USBD_EndpointTypeDef    ep_in[16];
 368:USBLIB/Core/Inc/usbd_def.h ****   USBD_EndpointTypeDef    ep_out[16];
 369:USBLIB/Core/Inc/usbd_def.h ****   __IO uint32_t           ep0_state;
 370:USBLIB/Core/Inc/usbd_def.h ****   uint32_t                ep0_data_len;
 371:USBLIB/Core/Inc/usbd_def.h ****   __IO uint8_t            dev_state;
 372:USBLIB/Core/Inc/usbd_def.h ****   __IO uint8_t            dev_old_state;
 373:USBLIB/Core/Inc/usbd_def.h ****   uint8_t                 dev_address;
 374:USBLIB/Core/Inc/usbd_def.h ****   uint8_t                 dev_connection_status;
 375:USBLIB/Core/Inc/usbd_def.h ****   uint8_t                 dev_test_mode;
 376:USBLIB/Core/Inc/usbd_def.h ****   uint32_t                dev_remote_wakeup;
 377:USBLIB/Core/Inc/usbd_def.h ****   uint8_t                 ConfIdx;
 378:USBLIB/Core/Inc/usbd_def.h **** 
 379:USBLIB/Core/Inc/usbd_def.h ****   USBD_SetupReqTypedef    request;
 380:USBLIB/Core/Inc/usbd_def.h ****   USBD_DescriptorsTypeDef *pDesc;
 381:USBLIB/Core/Inc/usbd_def.h ****   USBD_ClassTypeDef       *pClass[USBD_MAX_SUPPORTED_CLASS];
 382:USBLIB/Core/Inc/usbd_def.h ****   void                    *pClassData;
 383:USBLIB/Core/Inc/usbd_def.h ****   void                    *pClassDataCmsit[USBD_MAX_SUPPORTED_CLASS];
 384:USBLIB/Core/Inc/usbd_def.h ****   void                    *pUserData[USBD_MAX_SUPPORTED_CLASS];
 385:USBLIB/Core/Inc/usbd_def.h ****   void                    *pData;
 386:USBLIB/Core/Inc/usbd_def.h ****   void                    *pBosDesc;
ARM GAS  C:\Users\Jim_YW\AppData\Local\Temp\cc86CmOl.s 			page 28


 387:USBLIB/Core/Inc/usbd_def.h ****   void                    *pConfDesc;
 388:USBLIB/Core/Inc/usbd_def.h ****   uint32_t                classId;
 389:USBLIB/Core/Inc/usbd_def.h ****   uint32_t                NumClasses;
 390:USBLIB/Core/Inc/usbd_def.h **** #ifdef USE_USBD_COMPOSITE
 391:USBLIB/Core/Inc/usbd_def.h ****   USBD_CompositeElementTypeDef tclasslist[USBD_MAX_SUPPORTED_CLASS];
 392:USBLIB/Core/Inc/usbd_def.h **** #endif /* USE_USBD_COMPOSITE */
 393:USBLIB/Core/Inc/usbd_def.h **** } USBD_HandleTypeDef;
 394:USBLIB/Core/Inc/usbd_def.h **** 
 395:USBLIB/Core/Inc/usbd_def.h **** /* USB Device endpoint direction */
 396:USBLIB/Core/Inc/usbd_def.h **** typedef enum
 397:USBLIB/Core/Inc/usbd_def.h **** {
 398:USBLIB/Core/Inc/usbd_def.h ****   OUT   = 0x00,
 399:USBLIB/Core/Inc/usbd_def.h ****   IN    = 0x80,
 400:USBLIB/Core/Inc/usbd_def.h **** } USBD_EPDirectionTypeDef;
 401:USBLIB/Core/Inc/usbd_def.h **** 
 402:USBLIB/Core/Inc/usbd_def.h **** typedef enum
 403:USBLIB/Core/Inc/usbd_def.h **** {
 404:USBLIB/Core/Inc/usbd_def.h ****   NETWORK_CONNECTION = 0x00,
 405:USBLIB/Core/Inc/usbd_def.h ****   RESPONSE_AVAILABLE = 0x01,
 406:USBLIB/Core/Inc/usbd_def.h ****   CONNECTION_SPEED_CHANGE = 0x2A
 407:USBLIB/Core/Inc/usbd_def.h **** } USBD_CDC_NotifCodeTypeDef;
 408:USBLIB/Core/Inc/usbd_def.h **** /**
 409:USBLIB/Core/Inc/usbd_def.h ****   * @}
 410:USBLIB/Core/Inc/usbd_def.h ****   */
 411:USBLIB/Core/Inc/usbd_def.h **** 
 412:USBLIB/Core/Inc/usbd_def.h **** 
 413:USBLIB/Core/Inc/usbd_def.h **** 
 414:USBLIB/Core/Inc/usbd_def.h **** /** @defgroup USBD_DEF_Exported_Macros
 415:USBLIB/Core/Inc/usbd_def.h ****   * @{
 416:USBLIB/Core/Inc/usbd_def.h ****   */
 417:USBLIB/Core/Inc/usbd_def.h **** __STATIC_INLINE uint16_t SWAPBYTE(uint8_t *addr)
 105              		.loc 2 417 26 view .LVU28
 106              	.LBB9:
 418:USBLIB/Core/Inc/usbd_def.h **** {
 419:USBLIB/Core/Inc/usbd_def.h ****   uint16_t _SwapVal, _Byte1, _Byte2;
 107              		.loc 2 419 3 view .LVU29
 420:USBLIB/Core/Inc/usbd_def.h ****   uint8_t *_pbuff = addr;
 108              		.loc 2 420 3 view .LVU30
 421:USBLIB/Core/Inc/usbd_def.h **** 
 422:USBLIB/Core/Inc/usbd_def.h ****   _Byte1 = *(uint8_t *)_pbuff;
 109              		.loc 2 422 3 view .LVU31
 110              		.loc 2 422 12 is_stmt 0 view .LVU32
 111 0008 8B78     		ldrb	r3, [r1, #2]	@ zero_extendqisi2
 112              	.LVL10:
 423:USBLIB/Core/Inc/usbd_def.h ****   _pbuff++;
 113              		.loc 2 423 3 is_stmt 1 view .LVU33
 424:USBLIB/Core/Inc/usbd_def.h ****   _Byte2 = *(uint8_t *)_pbuff;
 114              		.loc 2 424 3 view .LVU34
 115              		.loc 2 424 12 is_stmt 0 view .LVU35
 116 000a CA78     		ldrb	r2, [r1, #3]	@ zero_extendqisi2
 117              	.LVL11:
 425:USBLIB/Core/Inc/usbd_def.h **** 
 426:USBLIB/Core/Inc/usbd_def.h ****   _SwapVal = (_Byte2 << 8) | _Byte1;
 118              		.loc 2 426 3 is_stmt 1 view .LVU36
 119              		.loc 2 426 12 is_stmt 0 view .LVU37
 120 000c 43EA0223 		orr	r3, r3, r2, lsl #8
 121              	.LVL12:
ARM GAS  C:\Users\Jim_YW\AppData\Local\Temp\cc86CmOl.s 			page 29


 427:USBLIB/Core/Inc/usbd_def.h **** 
 428:USBLIB/Core/Inc/usbd_def.h ****   return _SwapVal;
 122              		.loc 2 428 3 is_stmt 1 view .LVU38
 123              		.loc 2 428 3 is_stmt 0 view .LVU39
 124              	.LBE9:
 125              	.LBE8:
 953:USBLIB/Core/Src/usbd_ctlreq.c **** 
 126              		.loc 1 953 15 view .LVU40
 127 0010 4380     		strh	r3, [r0, #2]	@ movhi
 128              	.LVL13:
 955:USBLIB/Core/Src/usbd_ctlreq.c ****   pbuff++;
 129              		.loc 1 955 3 is_stmt 1 view .LVU41
 956:USBLIB/Core/Src/usbd_ctlreq.c ****   req->wIndex = SWAPBYTE(pbuff);
 130              		.loc 1 956 3 view .LVU42
 957:USBLIB/Core/Src/usbd_ctlreq.c **** 
 131              		.loc 1 957 3 view .LVU43
 132              	.LBB10:
 133              	.LBI10:
 417:USBLIB/Core/Inc/usbd_def.h **** {
 134              		.loc 2 417 26 view .LVU44
 135              	.LBB11:
 419:USBLIB/Core/Inc/usbd_def.h ****   uint8_t *_pbuff = addr;
 136              		.loc 2 419 3 view .LVU45
 420:USBLIB/Core/Inc/usbd_def.h **** 
 137              		.loc 2 420 3 view .LVU46
 422:USBLIB/Core/Inc/usbd_def.h ****   _pbuff++;
 138              		.loc 2 422 3 view .LVU47
 422:USBLIB/Core/Inc/usbd_def.h ****   _pbuff++;
 139              		.loc 2 422 12 is_stmt 0 view .LVU48
 140 0012 0B79     		ldrb	r3, [r1, #4]	@ zero_extendqisi2
 141              	.LVL14:
 423:USBLIB/Core/Inc/usbd_def.h ****   _Byte2 = *(uint8_t *)_pbuff;
 142              		.loc 2 423 3 is_stmt 1 view .LVU49
 424:USBLIB/Core/Inc/usbd_def.h **** 
 143              		.loc 2 424 3 view .LVU50
 424:USBLIB/Core/Inc/usbd_def.h **** 
 144              		.loc 2 424 12 is_stmt 0 view .LVU51
 145 0014 4A79     		ldrb	r2, [r1, #5]	@ zero_extendqisi2
 146              	.LVL15:
 426:USBLIB/Core/Inc/usbd_def.h **** 
 147              		.loc 2 426 3 is_stmt 1 view .LVU52
 426:USBLIB/Core/Inc/usbd_def.h **** 
 148              		.loc 2 426 12 is_stmt 0 view .LVU53
 149 0016 43EA0223 		orr	r3, r3, r2, lsl #8
 150              	.LVL16:
 151              		.loc 2 428 3 is_stmt 1 view .LVU54
 152              		.loc 2 428 3 is_stmt 0 view .LVU55
 153              	.LBE11:
 154              	.LBE10:
 957:USBLIB/Core/Src/usbd_ctlreq.c **** 
 155              		.loc 1 957 15 view .LVU56
 156 001a 8380     		strh	r3, [r0, #4]	@ movhi
 157              	.LVL17:
 959:USBLIB/Core/Src/usbd_ctlreq.c ****   pbuff++;
 158              		.loc 1 959 3 is_stmt 1 view .LVU57
 960:USBLIB/Core/Src/usbd_ctlreq.c ****   req->wLength = SWAPBYTE(pbuff);
 159              		.loc 1 960 3 view .LVU58
ARM GAS  C:\Users\Jim_YW\AppData\Local\Temp\cc86CmOl.s 			page 30


 961:USBLIB/Core/Src/usbd_ctlreq.c **** }
 160              		.loc 1 961 3 view .LVU59
 161              	.LBB12:
 162              	.LBI12:
 417:USBLIB/Core/Inc/usbd_def.h **** {
 163              		.loc 2 417 26 view .LVU60
 164              	.LBB13:
 419:USBLIB/Core/Inc/usbd_def.h ****   uint8_t *_pbuff = addr;
 165              		.loc 2 419 3 view .LVU61
 420:USBLIB/Core/Inc/usbd_def.h **** 
 166              		.loc 2 420 3 view .LVU62
 422:USBLIB/Core/Inc/usbd_def.h ****   _pbuff++;
 167              		.loc 2 422 3 view .LVU63
 422:USBLIB/Core/Inc/usbd_def.h ****   _pbuff++;
 168              		.loc 2 422 12 is_stmt 0 view .LVU64
 169 001c 8B79     		ldrb	r3, [r1, #6]	@ zero_extendqisi2
 170              	.LVL18:
 423:USBLIB/Core/Inc/usbd_def.h ****   _Byte2 = *(uint8_t *)_pbuff;
 171              		.loc 2 423 3 is_stmt 1 view .LVU65
 424:USBLIB/Core/Inc/usbd_def.h **** 
 172              		.loc 2 424 3 view .LVU66
 424:USBLIB/Core/Inc/usbd_def.h **** 
 173              		.loc 2 424 12 is_stmt 0 view .LVU67
 174 001e CA79     		ldrb	r2, [r1, #7]	@ zero_extendqisi2
 175              	.LVL19:
 426:USBLIB/Core/Inc/usbd_def.h **** 
 176              		.loc 2 426 3 is_stmt 1 view .LVU68
 426:USBLIB/Core/Inc/usbd_def.h **** 
 177              		.loc 2 426 12 is_stmt 0 view .LVU69
 178 0020 43EA0223 		orr	r3, r3, r2, lsl #8
 179              	.LVL20:
 180              		.loc 2 428 3 is_stmt 1 view .LVU70
 181              		.loc 2 428 3 is_stmt 0 view .LVU71
 182              	.LBE13:
 183              	.LBE12:
 961:USBLIB/Core/Src/usbd_ctlreq.c **** }
 184              		.loc 1 961 16 view .LVU72
 185 0024 C380     		strh	r3, [r0, #6]	@ movhi
 186              	.LVL21:
 962:USBLIB/Core/Src/usbd_ctlreq.c **** 
 187              		.loc 1 962 1 view .LVU73
 188 0026 7047     		bx	lr
 189              		.cfi_endproc
 190              	.LFE144:
 192              		.section	.text.USBD_CtlError,"ax",%progbits
 193              		.align	1
 194              		.global	USBD_CtlError
 195              		.syntax unified
 196              		.thumb
 197              		.thumb_func
 199              	USBD_CtlError:
 200              	.LVL22:
 201              	.LFB145:
 973:USBLIB/Core/Src/usbd_ctlreq.c ****   UNUSED(req);
 202              		.loc 1 973 1 is_stmt 1 view -0
 203              		.cfi_startproc
 204              		@ args = 0, pretend = 0, frame = 0
ARM GAS  C:\Users\Jim_YW\AppData\Local\Temp\cc86CmOl.s 			page 31


 205              		@ frame_needed = 0, uses_anonymous_args = 0
 973:USBLIB/Core/Src/usbd_ctlreq.c ****   UNUSED(req);
 206              		.loc 1 973 1 is_stmt 0 view .LVU75
 207 0000 10B5     		push	{r4, lr}
 208              	.LCFI0:
 209              		.cfi_def_cfa_offset 8
 210              		.cfi_offset 4, -8
 211              		.cfi_offset 14, -4
 212 0002 0446     		mov	r4, r0
 974:USBLIB/Core/Src/usbd_ctlreq.c **** 
 213              		.loc 1 974 3 is_stmt 1 view .LVU76
 976:USBLIB/Core/Src/usbd_ctlreq.c ****   (void)USBD_LL_StallEP(pdev, 0U);
 214              		.loc 1 976 3 view .LVU77
 976:USBLIB/Core/Src/usbd_ctlreq.c ****   (void)USBD_LL_StallEP(pdev, 0U);
 215              		.loc 1 976 9 is_stmt 0 view .LVU78
 216 0004 8021     		movs	r1, #128
 217              	.LVL23:
 976:USBLIB/Core/Src/usbd_ctlreq.c ****   (void)USBD_LL_StallEP(pdev, 0U);
 218              		.loc 1 976 9 view .LVU79
 219 0006 FFF7FEFF 		bl	USBD_LL_StallEP
 220              	.LVL24:
 977:USBLIB/Core/Src/usbd_ctlreq.c **** }
 221              		.loc 1 977 3 is_stmt 1 view .LVU80
 977:USBLIB/Core/Src/usbd_ctlreq.c **** }
 222              		.loc 1 977 9 is_stmt 0 view .LVU81
 223 000a 0021     		movs	r1, #0
 224 000c 2046     		mov	r0, r4
 225 000e FFF7FEFF 		bl	USBD_LL_StallEP
 226              	.LVL25:
 978:USBLIB/Core/Src/usbd_ctlreq.c **** 
 227              		.loc 1 978 1 view .LVU82
 228 0012 10BD     		pop	{r4, pc}
 978:USBLIB/Core/Src/usbd_ctlreq.c **** 
 229              		.loc 1 978 1 view .LVU83
 230              		.cfi_endproc
 231              	.LFE145:
 233              		.section	.text.USBD_GetDescriptor,"ax",%progbits
 234              		.align	1
 235              		.syntax unified
 236              		.thumb
 237              		.thumb_func
 239              	USBD_GetDescriptor:
 240              	.LVL26:
 241              	.LFB137:
 427:USBLIB/Core/Src/usbd_ctlreq.c ****   uint16_t len = 0U;
 242              		.loc 1 427 1 is_stmt 1 view -0
 243              		.cfi_startproc
 244              		@ args = 0, pretend = 0, frame = 8
 245              		@ frame_needed = 0, uses_anonymous_args = 0
 427:USBLIB/Core/Src/usbd_ctlreq.c ****   uint16_t len = 0U;
 246              		.loc 1 427 1 is_stmt 0 view .LVU85
 247 0000 30B5     		push	{r4, r5, lr}
 248              	.LCFI1:
 249              		.cfi_def_cfa_offset 12
 250              		.cfi_offset 4, -12
 251              		.cfi_offset 5, -8
 252              		.cfi_offset 14, -4
ARM GAS  C:\Users\Jim_YW\AppData\Local\Temp\cc86CmOl.s 			page 32


 253 0002 83B0     		sub	sp, sp, #12
 254              	.LCFI2:
 255              		.cfi_def_cfa_offset 24
 256 0004 0446     		mov	r4, r0
 257 0006 0D46     		mov	r5, r1
 428:USBLIB/Core/Src/usbd_ctlreq.c ****   uint8_t *pbuf = NULL;
 258              		.loc 1 428 3 is_stmt 1 view .LVU86
 428:USBLIB/Core/Src/usbd_ctlreq.c ****   uint8_t *pbuf = NULL;
 259              		.loc 1 428 12 is_stmt 0 view .LVU87
 260 0008 0023     		movs	r3, #0
 261 000a ADF80630 		strh	r3, [sp, #6]	@ movhi
 429:USBLIB/Core/Src/usbd_ctlreq.c ****   uint8_t err = 0U;
 262              		.loc 1 429 3 is_stmt 1 view .LVU88
 263              	.LVL27:
 430:USBLIB/Core/Src/usbd_ctlreq.c **** 
 264              		.loc 1 430 3 view .LVU89
 432:USBLIB/Core/Src/usbd_ctlreq.c ****   {
 265              		.loc 1 432 3 view .LVU90
 432:USBLIB/Core/Src/usbd_ctlreq.c ****   {
 266              		.loc 1 432 14 is_stmt 0 view .LVU91
 267 000e 4A88     		ldrh	r2, [r1, #2]
 432:USBLIB/Core/Src/usbd_ctlreq.c ****   {
 268              		.loc 1 432 23 view .LVU92
 269 0010 130A     		lsrs	r3, r2, #8
 432:USBLIB/Core/Src/usbd_ctlreq.c ****   {
 270              		.loc 1 432 3 view .LVU93
 271 0012 013B     		subs	r3, r3, #1
 272 0014 062B     		cmp	r3, #6
 273 0016 00F2D280 		bhi	.L8
 274 001a DFE813F0 		tbh	[pc, r3, lsl #1]
 275              	.LVL28:
 276              	.L10:
 277 001e 0700     		.2byte	(.L14-.L10)/2
 278 0020 2200     		.2byte	(.L13-.L10)/2
 279 0022 4800     		.2byte	(.L12-.L10)/2
 280 0024 D000     		.2byte	(.L8-.L10)/2
 281 0026 D000     		.2byte	(.L8-.L10)/2
 282 0028 A200     		.2byte	(.L11-.L10)/2
 283 002a B800     		.2byte	(.L9-.L10)/2
 284              		.p2align 1
 285              	.L14:
 448:USBLIB/Core/Src/usbd_ctlreq.c ****       break;
 286              		.loc 1 448 7 is_stmt 1 view .LVU94
 448:USBLIB/Core/Src/usbd_ctlreq.c ****       break;
 287              		.loc 1 448 18 is_stmt 0 view .LVU95
 288 002c D0F8B432 		ldr	r3, [r0, #692]
 448:USBLIB/Core/Src/usbd_ctlreq.c ****       break;
 289              		.loc 1 448 25 view .LVU96
 290 0030 1B68     		ldr	r3, [r3]
 448:USBLIB/Core/Src/usbd_ctlreq.c ****       break;
 291              		.loc 1 448 14 view .LVU97
 292 0032 0DF10601 		add	r1, sp, #6
 293 0036 007C     		ldrb	r0, [r0, #16]	@ zero_extendqisi2
 294              	.LVL29:
 448:USBLIB/Core/Src/usbd_ctlreq.c ****       break;
 295              		.loc 1 448 14 view .LVU98
 296 0038 9847     		blx	r3
ARM GAS  C:\Users\Jim_YW\AppData\Local\Temp\cc86CmOl.s 			page 33


 297              	.LVL30:
 449:USBLIB/Core/Src/usbd_ctlreq.c **** 
 298              		.loc 1 449 7 is_stmt 1 view .LVU99
 651:USBLIB/Core/Src/usbd_ctlreq.c ****   {
 299              		.loc 1 651 3 view .LVU100
 300              	.L15:
 656:USBLIB/Core/Src/usbd_ctlreq.c ****   {
 301              		.loc 1 656 3 view .LVU101
 656:USBLIB/Core/Src/usbd_ctlreq.c ****   {
 302              		.loc 1 656 10 is_stmt 0 view .LVU102
 303 003a EA88     		ldrh	r2, [r5, #6]
 656:USBLIB/Core/Src/usbd_ctlreq.c ****   {
 304              		.loc 1 656 6 view .LVU103
 305 003c 002A     		cmp	r2, #0
 306 003e 00F0C780 		beq	.L42
 658:USBLIB/Core/Src/usbd_ctlreq.c ****     {
 307              		.loc 1 658 5 is_stmt 1 view .LVU104
 658:USBLIB/Core/Src/usbd_ctlreq.c ****     {
 308              		.loc 1 658 13 is_stmt 0 view .LVU105
 309 0042 BDF80630 		ldrh	r3, [sp, #6]
 658:USBLIB/Core/Src/usbd_ctlreq.c ****     {
 310              		.loc 1 658 8 view .LVU106
 311 0046 002B     		cmp	r3, #0
 312 0048 00F0BD80 		beq	.L43
 660:USBLIB/Core/Src/usbd_ctlreq.c ****       (void)USBD_CtlSendData(pdev, pbuf, len);
 313              		.loc 1 660 7 is_stmt 1 view .LVU107
 660:USBLIB/Core/Src/usbd_ctlreq.c ****       (void)USBD_CtlSendData(pdev, pbuf, len);
 314              		.loc 1 660 13 is_stmt 0 view .LVU108
 315 004c 9A42     		cmp	r2, r3
 316 004e 28BF     		it	cs
 317 0050 1A46     		movcs	r2, r3
 660:USBLIB/Core/Src/usbd_ctlreq.c ****       (void)USBD_CtlSendData(pdev, pbuf, len);
 318              		.loc 1 660 11 view .LVU109
 319 0052 ADF80620 		strh	r2, [sp, #6]	@ movhi
 661:USBLIB/Core/Src/usbd_ctlreq.c ****     }
 320              		.loc 1 661 7 is_stmt 1 view .LVU110
 661:USBLIB/Core/Src/usbd_ctlreq.c ****     }
 321              		.loc 1 661 13 is_stmt 0 view .LVU111
 322 0056 0146     		mov	r1, r0
 323 0058 2046     		mov	r0, r4
 324              	.LVL31:
 661:USBLIB/Core/Src/usbd_ctlreq.c ****     }
 325              		.loc 1 661 13 view .LVU112
 326 005a FFF7FEFF 		bl	USBD_CtlSendData
 327              	.LVL32:
 328              	.L7:
 672:USBLIB/Core/Src/usbd_ctlreq.c **** 
 329              		.loc 1 672 1 view .LVU113
 330 005e 03B0     		add	sp, sp, #12
 331              	.LCFI3:
 332              		.cfi_remember_state
 333              		.cfi_def_cfa_offset 12
 334              		@ sp needed
 335 0060 30BD     		pop	{r4, r5, pc}
 336              	.LVL33:
 337              	.L13:
 338              	.LCFI4:
ARM GAS  C:\Users\Jim_YW\AppData\Local\Temp\cc86CmOl.s 			page 34


 339              		.cfi_restore_state
 452:USBLIB/Core/Src/usbd_ctlreq.c ****       {
 340              		.loc 1 452 7 is_stmt 1 view .LVU114
 452:USBLIB/Core/Src/usbd_ctlreq.c ****       {
 341              		.loc 1 452 15 is_stmt 0 view .LVU115
 342 0062 037C     		ldrb	r3, [r0, #16]	@ zero_extendqisi2
 452:USBLIB/Core/Src/usbd_ctlreq.c ****       {
 343              		.loc 1 452 10 view .LVU116
 344 0064 8BB9     		cbnz	r3, .L16
 455:USBLIB/Core/Src/usbd_ctlreq.c ****         {
 345              		.loc 1 455 9 is_stmt 1 view .LVU117
 455:USBLIB/Core/Src/usbd_ctlreq.c ****         {
 346              		.loc 1 455 13 is_stmt 0 view .LVU118
 347 0066 90F8FC32 		ldrb	r3, [r0, #764]	@ zero_extendqisi2
 455:USBLIB/Core/Src/usbd_ctlreq.c ****         {
 348              		.loc 1 455 12 view .LVU119
 349 006a 3BB1     		cbz	r3, .L17
 457:USBLIB/Core/Src/usbd_ctlreq.c ****         }
 350              		.loc 1 457 11 is_stmt 1 view .LVU120
 457:USBLIB/Core/Src/usbd_ctlreq.c ****         }
 351              		.loc 1 457 42 is_stmt 0 view .LVU121
 352 006c 5A4B     		ldr	r3, .L46
 353 006e 9B6A     		ldr	r3, [r3, #40]
 457:USBLIB/Core/Src/usbd_ctlreq.c ****         }
 354              		.loc 1 457 20 view .LVU122
 355 0070 0DF10600 		add	r0, sp, #6
 356              	.LVL34:
 457:USBLIB/Core/Src/usbd_ctlreq.c ****         }
 357              		.loc 1 457 20 view .LVU123
 358 0074 9847     		blx	r3
 359              	.LVL35:
 360              	.L18:
 464:USBLIB/Core/Src/usbd_ctlreq.c ****       }
 361              		.loc 1 464 9 is_stmt 1 view .LVU124
 464:USBLIB/Core/Src/usbd_ctlreq.c ****       }
 362              		.loc 1 464 17 is_stmt 0 view .LVU125
 363 0076 0223     		movs	r3, #2
 364 0078 4370     		strb	r3, [r0, #1]
 651:USBLIB/Core/Src/usbd_ctlreq.c ****   {
 365              		.loc 1 651 3 is_stmt 1 view .LVU126
 366 007a DEE7     		b	.L15
 367              	.LVL36:
 368              	.L17:
 462:USBLIB/Core/Src/usbd_ctlreq.c ****         }
 369              		.loc 1 462 11 view .LVU127
 462:USBLIB/Core/Src/usbd_ctlreq.c ****         }
 370              		.loc 1 462 41 is_stmt 0 view .LVU128
 371 007c D0F8B832 		ldr	r3, [r0, #696]
 462:USBLIB/Core/Src/usbd_ctlreq.c ****         }
 372              		.loc 1 462 44 view .LVU129
 373 0080 9B6A     		ldr	r3, [r3, #40]
 462:USBLIB/Core/Src/usbd_ctlreq.c ****         }
 374              		.loc 1 462 18 view .LVU130
 375 0082 0DF10600 		add	r0, sp, #6
 376              	.LVL37:
 462:USBLIB/Core/Src/usbd_ctlreq.c ****         }
 377              		.loc 1 462 18 view .LVU131
ARM GAS  C:\Users\Jim_YW\AppData\Local\Temp\cc86CmOl.s 			page 35


 378 0086 9847     		blx	r3
 379              	.LVL38:
 462:USBLIB/Core/Src/usbd_ctlreq.c ****         }
 380              		.loc 1 462 18 view .LVU132
 381 0088 F5E7     		b	.L18
 382              	.LVL39:
 383              	.L16:
 469:USBLIB/Core/Src/usbd_ctlreq.c ****         {
 384              		.loc 1 469 9 is_stmt 1 view .LVU133
 469:USBLIB/Core/Src/usbd_ctlreq.c ****         {
 385              		.loc 1 469 13 is_stmt 0 view .LVU134
 386 008a 90F8FC32 		ldrb	r3, [r0, #764]	@ zero_extendqisi2
 469:USBLIB/Core/Src/usbd_ctlreq.c ****         {
 387              		.loc 1 469 12 view .LVU135
 388 008e 3BB1     		cbz	r3, .L19
 471:USBLIB/Core/Src/usbd_ctlreq.c ****         }
 389              		.loc 1 471 11 is_stmt 1 view .LVU136
 471:USBLIB/Core/Src/usbd_ctlreq.c ****         }
 390              		.loc 1 471 42 is_stmt 0 view .LVU137
 391 0090 514B     		ldr	r3, .L46
 392 0092 DB6A     		ldr	r3, [r3, #44]
 471:USBLIB/Core/Src/usbd_ctlreq.c ****         }
 393              		.loc 1 471 20 view .LVU138
 394 0094 0DF10600 		add	r0, sp, #6
 395              	.LVL40:
 471:USBLIB/Core/Src/usbd_ctlreq.c ****         }
 396              		.loc 1 471 20 view .LVU139
 397 0098 9847     		blx	r3
 398              	.LVL41:
 399              	.L20:
 478:USBLIB/Core/Src/usbd_ctlreq.c ****       }
 400              		.loc 1 478 9 is_stmt 1 view .LVU140
 478:USBLIB/Core/Src/usbd_ctlreq.c ****       }
 401              		.loc 1 478 17 is_stmt 0 view .LVU141
 402 009a 0223     		movs	r3, #2
 403 009c 4370     		strb	r3, [r0, #1]
 651:USBLIB/Core/Src/usbd_ctlreq.c ****   {
 404              		.loc 1 651 3 is_stmt 1 view .LVU142
 405 009e CCE7     		b	.L15
 406              	.LVL42:
 407              	.L19:
 476:USBLIB/Core/Src/usbd_ctlreq.c ****         }
 408              		.loc 1 476 11 view .LVU143
 476:USBLIB/Core/Src/usbd_ctlreq.c ****         }
 409              		.loc 1 476 43 is_stmt 0 view .LVU144
 410 00a0 D0F8B832 		ldr	r3, [r0, #696]
 476:USBLIB/Core/Src/usbd_ctlreq.c ****         }
 411              		.loc 1 476 46 view .LVU145
 412 00a4 DB6A     		ldr	r3, [r3, #44]
 476:USBLIB/Core/Src/usbd_ctlreq.c ****         }
 413              		.loc 1 476 20 view .LVU146
 414 00a6 0DF10600 		add	r0, sp, #6
 415              	.LVL43:
 476:USBLIB/Core/Src/usbd_ctlreq.c ****         }
 416              		.loc 1 476 20 view .LVU147
 417 00aa 9847     		blx	r3
 418              	.LVL44:
ARM GAS  C:\Users\Jim_YW\AppData\Local\Temp\cc86CmOl.s 			page 36


 476:USBLIB/Core/Src/usbd_ctlreq.c ****         }
 419              		.loc 1 476 20 view .LVU148
 420 00ac F5E7     		b	.L20
 421              	.LVL45:
 422              	.L12:
 483:USBLIB/Core/Src/usbd_ctlreq.c ****       {
 423              		.loc 1 483 7 is_stmt 1 view .LVU149
 483:USBLIB/Core/Src/usbd_ctlreq.c ****       {
 424              		.loc 1 483 15 is_stmt 0 view .LVU150
 425 00ae D2B2     		uxtb	r2, r2
 426 00b0 052A     		cmp	r2, #5
 427 00b2 52D8     		bhi	.L21
 428 00b4 DFE802F0 		tbb	[pc, r2]
 429              	.L23:
 430 00b8 03       		.byte	(.L28-.L23)/2
 431 00b9 10       		.byte	(.L27-.L23)/2
 432 00ba 1D       		.byte	(.L26-.L23)/2
 433 00bb 2A       		.byte	(.L25-.L23)/2
 434 00bc 37       		.byte	(.L24-.L23)/2
 435 00bd 44       		.byte	(.L22-.L23)/2
 436              		.p2align 1
 437              	.L28:
 486:USBLIB/Core/Src/usbd_ctlreq.c ****           {
 438              		.loc 1 486 11 is_stmt 1 view .LVU151
 486:USBLIB/Core/Src/usbd_ctlreq.c ****           {
 439              		.loc 1 486 19 is_stmt 0 view .LVU152
 440 00be D0F8B432 		ldr	r3, [r0, #692]
 486:USBLIB/Core/Src/usbd_ctlreq.c ****           {
 441              		.loc 1 486 26 view .LVU153
 442 00c2 5B68     		ldr	r3, [r3, #4]
 486:USBLIB/Core/Src/usbd_ctlreq.c ****           {
 443              		.loc 1 486 14 view .LVU154
 444 00c4 23B1     		cbz	r3, .L29
 488:USBLIB/Core/Src/usbd_ctlreq.c ****           }
 445              		.loc 1 488 13 is_stmt 1 view .LVU155
 488:USBLIB/Core/Src/usbd_ctlreq.c ****           }
 446              		.loc 1 488 20 is_stmt 0 view .LVU156
 447 00c6 0DF10601 		add	r1, sp, #6
 448 00ca 007C     		ldrb	r0, [r0, #16]	@ zero_extendqisi2
 449              	.LVL46:
 488:USBLIB/Core/Src/usbd_ctlreq.c ****           }
 450              		.loc 1 488 20 view .LVU157
 451 00cc 9847     		blx	r3
 452              	.LVL47:
 651:USBLIB/Core/Src/usbd_ctlreq.c ****   {
 453              		.loc 1 651 3 is_stmt 1 view .LVU158
 454 00ce B4E7     		b	.L15
 455              	.LVL48:
 456              	.L29:
 492:USBLIB/Core/Src/usbd_ctlreq.c ****             err++;
 457              		.loc 1 492 13 view .LVU159
 458 00d0 2946     		mov	r1, r5
 459 00d2 FFF7FEFF 		bl	USBD_CtlError
 460              	.LVL49:
 493:USBLIB/Core/Src/usbd_ctlreq.c ****           }
 461              		.loc 1 493 13 view .LVU160
 651:USBLIB/Core/Src/usbd_ctlreq.c ****   {
ARM GAS  C:\Users\Jim_YW\AppData\Local\Temp\cc86CmOl.s 			page 37


 462              		.loc 1 651 3 view .LVU161
 463 00d6 C2E7     		b	.L7
 464              	.LVL50:
 465              	.L27:
 498:USBLIB/Core/Src/usbd_ctlreq.c ****           {
 466              		.loc 1 498 11 view .LVU162
 498:USBLIB/Core/Src/usbd_ctlreq.c ****           {
 467              		.loc 1 498 19 is_stmt 0 view .LVU163
 468 00d8 D0F8B432 		ldr	r3, [r0, #692]
 498:USBLIB/Core/Src/usbd_ctlreq.c ****           {
 469              		.loc 1 498 26 view .LVU164
 470 00dc 9B68     		ldr	r3, [r3, #8]
 498:USBLIB/Core/Src/usbd_ctlreq.c ****           {
 471              		.loc 1 498 14 view .LVU165
 472 00de 23B1     		cbz	r3, .L31
 500:USBLIB/Core/Src/usbd_ctlreq.c ****           }
 473              		.loc 1 500 13 is_stmt 1 view .LVU166
 500:USBLIB/Core/Src/usbd_ctlreq.c ****           }
 474              		.loc 1 500 20 is_stmt 0 view .LVU167
 475 00e0 0DF10601 		add	r1, sp, #6
 476 00e4 007C     		ldrb	r0, [r0, #16]	@ zero_extendqisi2
 477              	.LVL51:
 500:USBLIB/Core/Src/usbd_ctlreq.c ****           }
 478              		.loc 1 500 20 view .LVU168
 479 00e6 9847     		blx	r3
 480              	.LVL52:
 651:USBLIB/Core/Src/usbd_ctlreq.c ****   {
 481              		.loc 1 651 3 is_stmt 1 view .LVU169
 482 00e8 A7E7     		b	.L15
 483              	.LVL53:
 484              	.L31:
 504:USBLIB/Core/Src/usbd_ctlreq.c ****             err++;
 485              		.loc 1 504 13 view .LVU170
 486 00ea 2946     		mov	r1, r5
 487 00ec FFF7FEFF 		bl	USBD_CtlError
 488              	.LVL54:
 505:USBLIB/Core/Src/usbd_ctlreq.c ****           }
 489              		.loc 1 505 13 view .LVU171
 651:USBLIB/Core/Src/usbd_ctlreq.c ****   {
 490              		.loc 1 651 3 view .LVU172
 491 00f0 B5E7     		b	.L7
 492              	.LVL55:
 493              	.L26:
 510:USBLIB/Core/Src/usbd_ctlreq.c ****           {
 494              		.loc 1 510 11 view .LVU173
 510:USBLIB/Core/Src/usbd_ctlreq.c ****           {
 495              		.loc 1 510 19 is_stmt 0 view .LVU174
 496 00f2 D0F8B432 		ldr	r3, [r0, #692]
 510:USBLIB/Core/Src/usbd_ctlreq.c ****           {
 497              		.loc 1 510 26 view .LVU175
 498 00f6 DB68     		ldr	r3, [r3, #12]
 510:USBLIB/Core/Src/usbd_ctlreq.c ****           {
 499              		.loc 1 510 14 view .LVU176
 500 00f8 23B1     		cbz	r3, .L32
 512:USBLIB/Core/Src/usbd_ctlreq.c ****           }
 501              		.loc 1 512 13 is_stmt 1 view .LVU177
 512:USBLIB/Core/Src/usbd_ctlreq.c ****           }
ARM GAS  C:\Users\Jim_YW\AppData\Local\Temp\cc86CmOl.s 			page 38


 502              		.loc 1 512 20 is_stmt 0 view .LVU178
 503 00fa 0DF10601 		add	r1, sp, #6
 504 00fe 007C     		ldrb	r0, [r0, #16]	@ zero_extendqisi2
 505              	.LVL56:
 512:USBLIB/Core/Src/usbd_ctlreq.c ****           }
 506              		.loc 1 512 20 view .LVU179
 507 0100 9847     		blx	r3
 508              	.LVL57:
 651:USBLIB/Core/Src/usbd_ctlreq.c ****   {
 509              		.loc 1 651 3 is_stmt 1 view .LVU180
 510 0102 9AE7     		b	.L15
 511              	.LVL58:
 512              	.L32:
 516:USBLIB/Core/Src/usbd_ctlreq.c ****             err++;
 513              		.loc 1 516 13 view .LVU181
 514 0104 2946     		mov	r1, r5
 515 0106 FFF7FEFF 		bl	USBD_CtlError
 516              	.LVL59:
 517:USBLIB/Core/Src/usbd_ctlreq.c ****           }
 517              		.loc 1 517 13 view .LVU182
 651:USBLIB/Core/Src/usbd_ctlreq.c ****   {
 518              		.loc 1 651 3 view .LVU183
 519 010a A8E7     		b	.L7
 520              	.LVL60:
 521              	.L25:
 522:USBLIB/Core/Src/usbd_ctlreq.c ****           {
 522              		.loc 1 522 11 view .LVU184
 522:USBLIB/Core/Src/usbd_ctlreq.c ****           {
 523              		.loc 1 522 19 is_stmt 0 view .LVU185
 524 010c D0F8B432 		ldr	r3, [r0, #692]
 522:USBLIB/Core/Src/usbd_ctlreq.c ****           {
 525              		.loc 1 522 26 view .LVU186
 526 0110 1B69     		ldr	r3, [r3, #16]
 522:USBLIB/Core/Src/usbd_ctlreq.c ****           {
 527              		.loc 1 522 14 view .LVU187
 528 0112 23B1     		cbz	r3, .L33
 524:USBLIB/Core/Src/usbd_ctlreq.c ****           }
 529              		.loc 1 524 13 is_stmt 1 view .LVU188
 524:USBLIB/Core/Src/usbd_ctlreq.c ****           }
 530              		.loc 1 524 20 is_stmt 0 view .LVU189
 531 0114 0DF10601 		add	r1, sp, #6
 532 0118 007C     		ldrb	r0, [r0, #16]	@ zero_extendqisi2
 533              	.LVL61:
 524:USBLIB/Core/Src/usbd_ctlreq.c ****           }
 534              		.loc 1 524 20 view .LVU190
 535 011a 9847     		blx	r3
 536              	.LVL62:
 651:USBLIB/Core/Src/usbd_ctlreq.c ****   {
 537              		.loc 1 651 3 is_stmt 1 view .LVU191
 538 011c 8DE7     		b	.L15
 539              	.LVL63:
 540              	.L33:
 528:USBLIB/Core/Src/usbd_ctlreq.c ****             err++;
 541              		.loc 1 528 13 view .LVU192
 542 011e 2946     		mov	r1, r5
 543 0120 FFF7FEFF 		bl	USBD_CtlError
 544              	.LVL64:
ARM GAS  C:\Users\Jim_YW\AppData\Local\Temp\cc86CmOl.s 			page 39


 529:USBLIB/Core/Src/usbd_ctlreq.c ****           }
 545              		.loc 1 529 13 view .LVU193
 651:USBLIB/Core/Src/usbd_ctlreq.c ****   {
 546              		.loc 1 651 3 view .LVU194
 547 0124 9BE7     		b	.L7
 548              	.LVL65:
 549              	.L24:
 534:USBLIB/Core/Src/usbd_ctlreq.c ****           {
 550              		.loc 1 534 11 view .LVU195
 534:USBLIB/Core/Src/usbd_ctlreq.c ****           {
 551              		.loc 1 534 19 is_stmt 0 view .LVU196
 552 0126 D0F8B432 		ldr	r3, [r0, #692]
 534:USBLIB/Core/Src/usbd_ctlreq.c ****           {
 553              		.loc 1 534 26 view .LVU197
 554 012a 5B69     		ldr	r3, [r3, #20]
 534:USBLIB/Core/Src/usbd_ctlreq.c ****           {
 555              		.loc 1 534 14 view .LVU198
 556 012c 23B1     		cbz	r3, .L34
 536:USBLIB/Core/Src/usbd_ctlreq.c ****           }
 557              		.loc 1 536 13 is_stmt 1 view .LVU199
 536:USBLIB/Core/Src/usbd_ctlreq.c ****           }
 558              		.loc 1 536 20 is_stmt 0 view .LVU200
 559 012e 0DF10601 		add	r1, sp, #6
 560 0132 007C     		ldrb	r0, [r0, #16]	@ zero_extendqisi2
 561              	.LVL66:
 536:USBLIB/Core/Src/usbd_ctlreq.c ****           }
 562              		.loc 1 536 20 view .LVU201
 563 0134 9847     		blx	r3
 564              	.LVL67:
 651:USBLIB/Core/Src/usbd_ctlreq.c ****   {
 565              		.loc 1 651 3 is_stmt 1 view .LVU202
 566 0136 80E7     		b	.L15
 567              	.LVL68:
 568              	.L34:
 540:USBLIB/Core/Src/usbd_ctlreq.c ****             err++;
 569              		.loc 1 540 13 view .LVU203
 570 0138 2946     		mov	r1, r5
 571 013a FFF7FEFF 		bl	USBD_CtlError
 572              	.LVL69:
 541:USBLIB/Core/Src/usbd_ctlreq.c ****           }
 573              		.loc 1 541 13 view .LVU204
 651:USBLIB/Core/Src/usbd_ctlreq.c ****   {
 574              		.loc 1 651 3 view .LVU205
 575 013e 8EE7     		b	.L7
 576              	.LVL70:
 577              	.L22:
 546:USBLIB/Core/Src/usbd_ctlreq.c ****           {
 578              		.loc 1 546 11 view .LVU206
 546:USBLIB/Core/Src/usbd_ctlreq.c ****           {
 579              		.loc 1 546 19 is_stmt 0 view .LVU207
 580 0140 D0F8B432 		ldr	r3, [r0, #692]
 546:USBLIB/Core/Src/usbd_ctlreq.c ****           {
 581              		.loc 1 546 26 view .LVU208
 582 0144 9B69     		ldr	r3, [r3, #24]
 546:USBLIB/Core/Src/usbd_ctlreq.c ****           {
 583              		.loc 1 546 14 view .LVU209
 584 0146 23B1     		cbz	r3, .L35
ARM GAS  C:\Users\Jim_YW\AppData\Local\Temp\cc86CmOl.s 			page 40


 548:USBLIB/Core/Src/usbd_ctlreq.c ****           }
 585              		.loc 1 548 13 is_stmt 1 view .LVU210
 548:USBLIB/Core/Src/usbd_ctlreq.c ****           }
 586              		.loc 1 548 20 is_stmt 0 view .LVU211
 587 0148 0DF10601 		add	r1, sp, #6
 588 014c 007C     		ldrb	r0, [r0, #16]	@ zero_extendqisi2
 589              	.LVL71:
 548:USBLIB/Core/Src/usbd_ctlreq.c ****           }
 590              		.loc 1 548 20 view .LVU212
 591 014e 9847     		blx	r3
 592              	.LVL72:
 651:USBLIB/Core/Src/usbd_ctlreq.c ****   {
 593              		.loc 1 651 3 is_stmt 1 view .LVU213
 594 0150 73E7     		b	.L15
 595              	.LVL73:
 596              	.L35:
 552:USBLIB/Core/Src/usbd_ctlreq.c ****             err++;
 597              		.loc 1 552 13 view .LVU214
 598 0152 2946     		mov	r1, r5
 599 0154 FFF7FEFF 		bl	USBD_CtlError
 600              	.LVL74:
 553:USBLIB/Core/Src/usbd_ctlreq.c ****           }
 601              		.loc 1 553 13 view .LVU215
 651:USBLIB/Core/Src/usbd_ctlreq.c ****   {
 602              		.loc 1 651 3 view .LVU216
 603 0158 81E7     		b	.L7
 604              	.LVL75:
 605              	.L21:
 595:USBLIB/Core/Src/usbd_ctlreq.c ****           err++;
 606              		.loc 1 595 11 view .LVU217
 607 015a 2946     		mov	r1, r5
 608 015c FFF7FEFF 		bl	USBD_CtlError
 609              	.LVL76:
 596:USBLIB/Core/Src/usbd_ctlreq.c **** #endif /* (USBD_CLASS_USER_STRING_DESC == 0U) && (USBD_SUPPORT_USER_STRING_DESC == 0U) */
 610              		.loc 1 596 11 view .LVU218
 598:USBLIB/Core/Src/usbd_ctlreq.c ****       }
 611              		.loc 1 598 11 view .LVU219
 651:USBLIB/Core/Src/usbd_ctlreq.c ****   {
 612              		.loc 1 651 3 view .LVU220
 613 0160 7DE7     		b	.L7
 614              	.LVL77:
 615              	.L11:
 603:USBLIB/Core/Src/usbd_ctlreq.c ****       {
 616              		.loc 1 603 7 view .LVU221
 603:USBLIB/Core/Src/usbd_ctlreq.c ****       {
 617              		.loc 1 603 15 is_stmt 0 view .LVU222
 618 0162 037C     		ldrb	r3, [r0, #16]	@ zero_extendqisi2
 603:USBLIB/Core/Src/usbd_ctlreq.c ****       {
 619              		.loc 1 603 10 view .LVU223
 620 0164 7BB9     		cbnz	r3, .L36
 606:USBLIB/Core/Src/usbd_ctlreq.c ****         {
 621              		.loc 1 606 9 is_stmt 1 view .LVU224
 606:USBLIB/Core/Src/usbd_ctlreq.c ****         {
 622              		.loc 1 606 13 is_stmt 0 view .LVU225
 623 0166 90F8FC32 		ldrb	r3, [r0, #764]	@ zero_extendqisi2
 606:USBLIB/Core/Src/usbd_ctlreq.c ****         {
 624              		.loc 1 606 12 view .LVU226
ARM GAS  C:\Users\Jim_YW\AppData\Local\Temp\cc86CmOl.s 			page 41


 625 016a 2BB1     		cbz	r3, .L37
 608:USBLIB/Core/Src/usbd_ctlreq.c ****         }
 626              		.loc 1 608 11 is_stmt 1 view .LVU227
 608:USBLIB/Core/Src/usbd_ctlreq.c ****         }
 627              		.loc 1 608 40 is_stmt 0 view .LVU228
 628 016c 1A4B     		ldr	r3, .L46
 629 016e 5B6B     		ldr	r3, [r3, #52]
 608:USBLIB/Core/Src/usbd_ctlreq.c ****         }
 630              		.loc 1 608 18 view .LVU229
 631 0170 0DF10600 		add	r0, sp, #6
 632              	.LVL78:
 608:USBLIB/Core/Src/usbd_ctlreq.c ****         }
 633              		.loc 1 608 18 view .LVU230
 634 0174 9847     		blx	r3
 635              	.LVL79:
 651:USBLIB/Core/Src/usbd_ctlreq.c ****   {
 636              		.loc 1 651 3 is_stmt 1 view .LVU231
 637 0176 60E7     		b	.L15
 638              	.LVL80:
 639              	.L37:
 613:USBLIB/Core/Src/usbd_ctlreq.c ****         }
 640              		.loc 1 613 11 view .LVU232
 613:USBLIB/Core/Src/usbd_ctlreq.c ****         }
 641              		.loc 1 613 41 is_stmt 0 view .LVU233
 642 0178 D0F8B832 		ldr	r3, [r0, #696]
 613:USBLIB/Core/Src/usbd_ctlreq.c ****         }
 643              		.loc 1 613 44 view .LVU234
 644 017c 5B6B     		ldr	r3, [r3, #52]
 613:USBLIB/Core/Src/usbd_ctlreq.c ****         }
 645              		.loc 1 613 18 view .LVU235
 646 017e 0DF10600 		add	r0, sp, #6
 647              	.LVL81:
 613:USBLIB/Core/Src/usbd_ctlreq.c ****         }
 648              		.loc 1 613 18 view .LVU236
 649 0182 9847     		blx	r3
 650              	.LVL82:
 651:USBLIB/Core/Src/usbd_ctlreq.c ****   {
 651              		.loc 1 651 3 is_stmt 1 view .LVU237
 652 0184 59E7     		b	.L15
 653              	.LVL83:
 654              	.L36:
 618:USBLIB/Core/Src/usbd_ctlreq.c ****         err++;
 655              		.loc 1 618 9 view .LVU238
 656 0186 2946     		mov	r1, r5
 657 0188 FFF7FEFF 		bl	USBD_CtlError
 658              	.LVL84:
 619:USBLIB/Core/Src/usbd_ctlreq.c ****       }
 659              		.loc 1 619 9 view .LVU239
 651:USBLIB/Core/Src/usbd_ctlreq.c ****   {
 660              		.loc 1 651 3 view .LVU240
 661 018c 67E7     		b	.L7
 662              	.LVL85:
 663              	.L9:
 624:USBLIB/Core/Src/usbd_ctlreq.c ****       {
 664              		.loc 1 624 7 view .LVU241
 624:USBLIB/Core/Src/usbd_ctlreq.c ****       {
 665              		.loc 1 624 15 is_stmt 0 view .LVU242
ARM GAS  C:\Users\Jim_YW\AppData\Local\Temp\cc86CmOl.s 			page 42


 666 018e 037C     		ldrb	r3, [r0, #16]	@ zero_extendqisi2
 624:USBLIB/Core/Src/usbd_ctlreq.c ****       {
 667              		.loc 1 624 10 view .LVU243
 668 0190 8BB9     		cbnz	r3, .L38
 627:USBLIB/Core/Src/usbd_ctlreq.c ****         {
 669              		.loc 1 627 9 is_stmt 1 view .LVU244
 627:USBLIB/Core/Src/usbd_ctlreq.c ****         {
 670              		.loc 1 627 13 is_stmt 0 view .LVU245
 671 0192 90F8FC32 		ldrb	r3, [r0, #764]	@ zero_extendqisi2
 627:USBLIB/Core/Src/usbd_ctlreq.c ****         {
 672              		.loc 1 627 12 view .LVU246
 673 0196 3BB1     		cbz	r3, .L39
 629:USBLIB/Core/Src/usbd_ctlreq.c ****         }
 674              		.loc 1 629 11 is_stmt 1 view .LVU247
 629:USBLIB/Core/Src/usbd_ctlreq.c ****         }
 675              		.loc 1 629 40 is_stmt 0 view .LVU248
 676 0198 0F4B     		ldr	r3, .L46
 677 019a 1B6B     		ldr	r3, [r3, #48]
 629:USBLIB/Core/Src/usbd_ctlreq.c ****         }
 678              		.loc 1 629 18 view .LVU249
 679 019c 0DF10600 		add	r0, sp, #6
 680              	.LVL86:
 629:USBLIB/Core/Src/usbd_ctlreq.c ****         }
 681              		.loc 1 629 18 view .LVU250
 682 01a0 9847     		blx	r3
 683              	.LVL87:
 684              	.L40:
 636:USBLIB/Core/Src/usbd_ctlreq.c ****       }
 685              		.loc 1 636 9 is_stmt 1 view .LVU251
 636:USBLIB/Core/Src/usbd_ctlreq.c ****       }
 686              		.loc 1 636 17 is_stmt 0 view .LVU252
 687 01a2 0723     		movs	r3, #7
 688 01a4 4370     		strb	r3, [r0, #1]
 651:USBLIB/Core/Src/usbd_ctlreq.c ****   {
 689              		.loc 1 651 3 is_stmt 1 view .LVU253
 690 01a6 48E7     		b	.L15
 691              	.LVL88:
 692              	.L39:
 634:USBLIB/Core/Src/usbd_ctlreq.c ****         }
 693              		.loc 1 634 11 view .LVU254
 634:USBLIB/Core/Src/usbd_ctlreq.c ****         }
 694              		.loc 1 634 41 is_stmt 0 view .LVU255
 695 01a8 D0F8B832 		ldr	r3, [r0, #696]
 634:USBLIB/Core/Src/usbd_ctlreq.c ****         }
 696              		.loc 1 634 44 view .LVU256
 697 01ac 1B6B     		ldr	r3, [r3, #48]
 634:USBLIB/Core/Src/usbd_ctlreq.c ****         }
 698              		.loc 1 634 18 view .LVU257
 699 01ae 0DF10600 		add	r0, sp, #6
 700              	.LVL89:
 634:USBLIB/Core/Src/usbd_ctlreq.c ****         }
 701              		.loc 1 634 18 view .LVU258
 702 01b2 9847     		blx	r3
 703              	.LVL90:
 634:USBLIB/Core/Src/usbd_ctlreq.c ****         }
 704              		.loc 1 634 18 view .LVU259
 705 01b4 F5E7     		b	.L40
ARM GAS  C:\Users\Jim_YW\AppData\Local\Temp\cc86CmOl.s 			page 43


 706              	.LVL91:
 707              	.L38:
 640:USBLIB/Core/Src/usbd_ctlreq.c ****         err++;
 708              		.loc 1 640 9 is_stmt 1 view .LVU260
 709 01b6 2946     		mov	r1, r5
 710 01b8 FFF7FEFF 		bl	USBD_CtlError
 711              	.LVL92:
 641:USBLIB/Core/Src/usbd_ctlreq.c ****       }
 712              		.loc 1 641 9 view .LVU261
 651:USBLIB/Core/Src/usbd_ctlreq.c ****   {
 713              		.loc 1 651 3 view .LVU262
 714 01bc 4FE7     		b	.L7
 715              	.LVL93:
 716              	.L8:
 646:USBLIB/Core/Src/usbd_ctlreq.c ****       err++;
 717              		.loc 1 646 7 view .LVU263
 718 01be 2946     		mov	r1, r5
 719 01c0 FFF7FEFF 		bl	USBD_CtlError
 720              	.LVL94:
 647:USBLIB/Core/Src/usbd_ctlreq.c ****       break;
 721              		.loc 1 647 7 view .LVU264
 648:USBLIB/Core/Src/usbd_ctlreq.c ****   }
 722              		.loc 1 648 7 view .LVU265
 651:USBLIB/Core/Src/usbd_ctlreq.c ****   {
 723              		.loc 1 651 3 view .LVU266
 653:USBLIB/Core/Src/usbd_ctlreq.c ****   }
 724              		.loc 1 653 5 view .LVU267
 725 01c4 4BE7     		b	.L7
 726              	.LVL95:
 727              	.L43:
 665:USBLIB/Core/Src/usbd_ctlreq.c ****     }
 728              		.loc 1 665 7 view .LVU268
 729 01c6 2946     		mov	r1, r5
 730 01c8 2046     		mov	r0, r4
 731              	.LVL96:
 665:USBLIB/Core/Src/usbd_ctlreq.c ****     }
 732              		.loc 1 665 7 is_stmt 0 view .LVU269
 733 01ca FFF7FEFF 		bl	USBD_CtlError
 734              	.LVL97:
 735 01ce 46E7     		b	.L7
 736              	.LVL98:
 737              	.L42:
 670:USBLIB/Core/Src/usbd_ctlreq.c ****   }
 738              		.loc 1 670 5 is_stmt 1 view .LVU270
 670:USBLIB/Core/Src/usbd_ctlreq.c ****   }
 739              		.loc 1 670 11 is_stmt 0 view .LVU271
 740 01d0 2046     		mov	r0, r4
 741              	.LVL99:
 670:USBLIB/Core/Src/usbd_ctlreq.c ****   }
 742              		.loc 1 670 11 view .LVU272
 743 01d2 FFF7FEFF 		bl	USBD_CtlSendStatus
 744              	.LVL100:
 745 01d6 42E7     		b	.L7
 746              	.L47:
 747              		.align	2
 748              	.L46:
 749 01d8 00000000 		.word	USBD_CMPSIT
ARM GAS  C:\Users\Jim_YW\AppData\Local\Temp\cc86CmOl.s 			page 44


 750              		.cfi_endproc
 751              	.LFE137:
 753              		.section	.text.USBD_SetAddress,"ax",%progbits
 754              		.align	1
 755              		.syntax unified
 756              		.thumb
 757              		.thumb_func
 759              	USBD_SetAddress:
 760              	.LVL101:
 761              	.LFB138:
 683:USBLIB/Core/Src/usbd_ctlreq.c ****   uint8_t  dev_addr;
 762              		.loc 1 683 1 is_stmt 1 view -0
 763              		.cfi_startproc
 764              		@ args = 0, pretend = 0, frame = 0
 765              		@ frame_needed = 0, uses_anonymous_args = 0
 683:USBLIB/Core/Src/usbd_ctlreq.c ****   uint8_t  dev_addr;
 766              		.loc 1 683 1 is_stmt 0 view .LVU274
 767 0000 38B5     		push	{r3, r4, r5, lr}
 768              	.LCFI5:
 769              		.cfi_def_cfa_offset 16
 770              		.cfi_offset 3, -16
 771              		.cfi_offset 4, -12
 772              		.cfi_offset 5, -8
 773              		.cfi_offset 14, -4
 774 0002 0446     		mov	r4, r0
 684:USBLIB/Core/Src/usbd_ctlreq.c **** 
 775              		.loc 1 684 3 is_stmt 1 view .LVU275
 686:USBLIB/Core/Src/usbd_ctlreq.c ****   {
 776              		.loc 1 686 3 view .LVU276
 686:USBLIB/Core/Src/usbd_ctlreq.c ****   {
 777              		.loc 1 686 11 is_stmt 0 view .LVU277
 778 0004 8B88     		ldrh	r3, [r1, #4]
 686:USBLIB/Core/Src/usbd_ctlreq.c ****   {
 779              		.loc 1 686 6 view .LVU278
 780 0006 FBB9     		cbnz	r3, .L49
 686:USBLIB/Core/Src/usbd_ctlreq.c ****   {
 781              		.loc 1 686 34 discriminator 1 view .LVU279
 782 0008 CB88     		ldrh	r3, [r1, #6]
 686:USBLIB/Core/Src/usbd_ctlreq.c ****   {
 783              		.loc 1 686 27 discriminator 1 view .LVU280
 784 000a EBB9     		cbnz	r3, .L49
 686:USBLIB/Core/Src/usbd_ctlreq.c ****   {
 785              		.loc 1 686 58 discriminator 2 view .LVU281
 786 000c 4B88     		ldrh	r3, [r1, #2]
 686:USBLIB/Core/Src/usbd_ctlreq.c ****   {
 787              		.loc 1 686 51 discriminator 2 view .LVU282
 788 000e 7F2B     		cmp	r3, #127
 789 0010 1AD8     		bhi	.L49
 688:USBLIB/Core/Src/usbd_ctlreq.c **** 
 790              		.loc 1 688 5 is_stmt 1 view .LVU283
 688:USBLIB/Core/Src/usbd_ctlreq.c **** 
 791              		.loc 1 688 14 is_stmt 0 view .LVU284
 792 0012 03F07F05 		and	r5, r3, #127
 793              	.LVL102:
 690:USBLIB/Core/Src/usbd_ctlreq.c ****     {
 794              		.loc 1 690 5 is_stmt 1 view .LVU285
 690:USBLIB/Core/Src/usbd_ctlreq.c ****     {
ARM GAS  C:\Users\Jim_YW\AppData\Local\Temp\cc86CmOl.s 			page 45


 795              		.loc 1 690 13 is_stmt 0 view .LVU286
 796 0016 90F89C32 		ldrb	r3, [r0, #668]	@ zero_extendqisi2
 797 001a DBB2     		uxtb	r3, r3
 690:USBLIB/Core/Src/usbd_ctlreq.c ****     {
 798              		.loc 1 690 8 view .LVU287
 799 001c 032B     		cmp	r3, #3
 800 001e 0CD0     		beq	.L54
 696:USBLIB/Core/Src/usbd_ctlreq.c ****       (void)USBD_LL_SetUSBAddress(pdev, dev_addr);
 801              		.loc 1 696 7 is_stmt 1 view .LVU288
 696:USBLIB/Core/Src/usbd_ctlreq.c ****       (void)USBD_LL_SetUSBAddress(pdev, dev_addr);
 802              		.loc 1 696 25 is_stmt 0 view .LVU289
 803 0020 80F89E52 		strb	r5, [r0, #670]
 697:USBLIB/Core/Src/usbd_ctlreq.c ****       (void)USBD_CtlSendStatus(pdev);
 804              		.loc 1 697 7 is_stmt 1 view .LVU290
 697:USBLIB/Core/Src/usbd_ctlreq.c ****       (void)USBD_CtlSendStatus(pdev);
 805              		.loc 1 697 13 is_stmt 0 view .LVU291
 806 0024 2946     		mov	r1, r5
 807              	.LVL103:
 697:USBLIB/Core/Src/usbd_ctlreq.c ****       (void)USBD_CtlSendStatus(pdev);
 808              		.loc 1 697 13 view .LVU292
 809 0026 FFF7FEFF 		bl	USBD_LL_SetUSBAddress
 810              	.LVL104:
 698:USBLIB/Core/Src/usbd_ctlreq.c **** 
 811              		.loc 1 698 7 is_stmt 1 view .LVU293
 698:USBLIB/Core/Src/usbd_ctlreq.c **** 
 812              		.loc 1 698 13 is_stmt 0 view .LVU294
 813 002a 2046     		mov	r0, r4
 814 002c FFF7FEFF 		bl	USBD_CtlSendStatus
 815              	.LVL105:
 700:USBLIB/Core/Src/usbd_ctlreq.c ****       {
 816              		.loc 1 700 7 is_stmt 1 view .LVU295
 700:USBLIB/Core/Src/usbd_ctlreq.c ****       {
 817              		.loc 1 700 10 is_stmt 0 view .LVU296
 818 0030 35B1     		cbz	r5, .L52
 702:USBLIB/Core/Src/usbd_ctlreq.c ****       }
 819              		.loc 1 702 9 is_stmt 1 view .LVU297
 702:USBLIB/Core/Src/usbd_ctlreq.c ****       }
 820              		.loc 1 702 25 is_stmt 0 view .LVU298
 821 0032 0223     		movs	r3, #2
 822 0034 84F89C32 		strb	r3, [r4, #668]
 823 0038 09E0     		b	.L48
 824              	.LVL106:
 825              	.L54:
 692:USBLIB/Core/Src/usbd_ctlreq.c ****     }
 826              		.loc 1 692 7 is_stmt 1 view .LVU299
 827 003a FFF7FEFF 		bl	USBD_CtlError
 828              	.LVL107:
 692:USBLIB/Core/Src/usbd_ctlreq.c ****     }
 829              		.loc 1 692 7 is_stmt 0 view .LVU300
 830 003e 06E0     		b	.L48
 831              	.L52:
 706:USBLIB/Core/Src/usbd_ctlreq.c ****       }
 832              		.loc 1 706 9 is_stmt 1 view .LVU301
 706:USBLIB/Core/Src/usbd_ctlreq.c ****       }
 833              		.loc 1 706 25 is_stmt 0 view .LVU302
 834 0040 0123     		movs	r3, #1
 835 0042 84F89C32 		strb	r3, [r4, #668]
ARM GAS  C:\Users\Jim_YW\AppData\Local\Temp\cc86CmOl.s 			page 46


 836 0046 02E0     		b	.L48
 837              	.LVL108:
 838              	.L49:
 712:USBLIB/Core/Src/usbd_ctlreq.c ****   }
 839              		.loc 1 712 5 is_stmt 1 view .LVU303
 840 0048 2046     		mov	r0, r4
 841              	.LVL109:
 712:USBLIB/Core/Src/usbd_ctlreq.c ****   }
 842              		.loc 1 712 5 is_stmt 0 view .LVU304
 843 004a FFF7FEFF 		bl	USBD_CtlError
 844              	.LVL110:
 845              	.L48:
 714:USBLIB/Core/Src/usbd_ctlreq.c **** 
 846              		.loc 1 714 1 view .LVU305
 847 004e 38BD     		pop	{r3, r4, r5, pc}
 714:USBLIB/Core/Src/usbd_ctlreq.c **** 
 848              		.loc 1 714 1 view .LVU306
 849              		.cfi_endproc
 850              	.LFE138:
 852              		.section	.text.USBD_SetConfig,"ax",%progbits
 853              		.align	1
 854              		.syntax unified
 855              		.thumb
 856              		.thumb_func
 858              	USBD_SetConfig:
 859              	.LVL111:
 860              	.LFB139:
 724:USBLIB/Core/Src/usbd_ctlreq.c ****   USBD_StatusTypeDef ret = USBD_OK;
 861              		.loc 1 724 1 is_stmt 1 view -0
 862              		.cfi_startproc
 863              		@ args = 0, pretend = 0, frame = 0
 864              		@ frame_needed = 0, uses_anonymous_args = 0
 724:USBLIB/Core/Src/usbd_ctlreq.c ****   USBD_StatusTypeDef ret = USBD_OK;
 865              		.loc 1 724 1 is_stmt 0 view .LVU308
 866 0000 70B5     		push	{r4, r5, r6, lr}
 867              	.LCFI6:
 868              		.cfi_def_cfa_offset 16
 869              		.cfi_offset 4, -16
 870              		.cfi_offset 5, -12
 871              		.cfi_offset 6, -8
 872              		.cfi_offset 14, -4
 873 0002 0446     		mov	r4, r0
 874 0004 0E46     		mov	r6, r1
 725:USBLIB/Core/Src/usbd_ctlreq.c ****   static uint8_t cfgidx;
 875              		.loc 1 725 3 is_stmt 1 view .LVU309
 876              	.LVL112:
 726:USBLIB/Core/Src/usbd_ctlreq.c **** 
 877              		.loc 1 726 3 view .LVU310
 728:USBLIB/Core/Src/usbd_ctlreq.c **** 
 878              		.loc 1 728 3 view .LVU311
 728:USBLIB/Core/Src/usbd_ctlreq.c **** 
 879              		.loc 1 728 12 is_stmt 0 view .LVU312
 880 0006 8D78     		ldrb	r5, [r1, #2]	@ zero_extendqisi2
 728:USBLIB/Core/Src/usbd_ctlreq.c **** 
 881              		.loc 1 728 10 view .LVU313
 882 0008 2F4B     		ldr	r3, .L70
 883 000a 1D70     		strb	r5, [r3]
ARM GAS  C:\Users\Jim_YW\AppData\Local\Temp\cc86CmOl.s 			page 47


 730:USBLIB/Core/Src/usbd_ctlreq.c ****   {
 884              		.loc 1 730 3 is_stmt 1 view .LVU314
 730:USBLIB/Core/Src/usbd_ctlreq.c ****   {
 885              		.loc 1 730 6 is_stmt 0 view .LVU315
 886 000c 012D     		cmp	r5, #1
 887 000e 10D8     		bhi	.L68
 736:USBLIB/Core/Src/usbd_ctlreq.c ****   {
 888              		.loc 1 736 3 is_stmt 1 view .LVU316
 736:USBLIB/Core/Src/usbd_ctlreq.c ****   {
 889              		.loc 1 736 15 is_stmt 0 view .LVU317
 890 0010 90F89C32 		ldrb	r3, [r0, #668]	@ zero_extendqisi2
 891 0014 DBB2     		uxtb	r3, r3
 736:USBLIB/Core/Src/usbd_ctlreq.c ****   {
 892              		.loc 1 736 3 view .LVU318
 893 0016 022B     		cmp	r3, #2
 894 0018 0FD0     		beq	.L58
 895 001a 032B     		cmp	r3, #3
 896 001c 26D0     		beq	.L59
 798:USBLIB/Core/Src/usbd_ctlreq.c ****       (void)USBD_ClrClassConfig(pdev, cfgidx);
 897              		.loc 1 798 7 is_stmt 1 view .LVU319
 898 001e FFF7FEFF 		bl	USBD_CtlError
 899              	.LVL113:
 799:USBLIB/Core/Src/usbd_ctlreq.c ****       ret = USBD_FAIL;
 900              		.loc 1 799 7 view .LVU320
 799:USBLIB/Core/Src/usbd_ctlreq.c ****       ret = USBD_FAIL;
 901              		.loc 1 799 13 is_stmt 0 view .LVU321
 902 0022 294B     		ldr	r3, .L70
 903 0024 1978     		ldrb	r1, [r3]	@ zero_extendqisi2
 904 0026 2046     		mov	r0, r4
 905 0028 FFF7FEFF 		bl	USBD_ClrClassConfig
 906              	.LVL114:
 800:USBLIB/Core/Src/usbd_ctlreq.c ****       break;
 907              		.loc 1 800 7 is_stmt 1 view .LVU322
 801:USBLIB/Core/Src/usbd_ctlreq.c ****   }
 908              		.loc 1 801 7 view .LVU323
 800:USBLIB/Core/Src/usbd_ctlreq.c ****       break;
 909              		.loc 1 800 11 is_stmt 0 view .LVU324
 910 002c 0325     		movs	r5, #3
 911              	.LVL115:
 912              	.L57:
 805:USBLIB/Core/Src/usbd_ctlreq.c **** 
 913              		.loc 1 805 1 view .LVU325
 914 002e 2846     		mov	r0, r5
 915 0030 70BD     		pop	{r4, r5, r6, pc}
 916              	.LVL116:
 917              	.L68:
 732:USBLIB/Core/Src/usbd_ctlreq.c ****     return USBD_FAIL;
 918              		.loc 1 732 5 is_stmt 1 view .LVU326
 919 0032 FFF7FEFF 		bl	USBD_CtlError
 920              	.LVL117:
 733:USBLIB/Core/Src/usbd_ctlreq.c ****   }
 921              		.loc 1 733 5 view .LVU327
 733:USBLIB/Core/Src/usbd_ctlreq.c ****   }
 922              		.loc 1 733 12 is_stmt 0 view .LVU328
 923 0036 0325     		movs	r5, #3
 924 0038 F9E7     		b	.L57
 925              	.LVL118:
ARM GAS  C:\Users\Jim_YW\AppData\Local\Temp\cc86CmOl.s 			page 48


 926              	.L58:
 739:USBLIB/Core/Src/usbd_ctlreq.c ****       {
 927              		.loc 1 739 7 is_stmt 1 view .LVU329
 739:USBLIB/Core/Src/usbd_ctlreq.c ****       {
 928              		.loc 1 739 10 is_stmt 0 view .LVU330
 929 003a A5B1     		cbz	r5, .L61
 741:USBLIB/Core/Src/usbd_ctlreq.c **** 
 930              		.loc 1 741 9 is_stmt 1 view .LVU331
 741:USBLIB/Core/Src/usbd_ctlreq.c **** 
 931              		.loc 1 741 26 is_stmt 0 view .LVU332
 932 003c 4560     		str	r5, [r0, #4]
 743:USBLIB/Core/Src/usbd_ctlreq.c **** 
 933              		.loc 1 743 9 is_stmt 1 view .LVU333
 743:USBLIB/Core/Src/usbd_ctlreq.c **** 
 934              		.loc 1 743 15 is_stmt 0 view .LVU334
 935 003e 2946     		mov	r1, r5
 936              	.LVL119:
 743:USBLIB/Core/Src/usbd_ctlreq.c **** 
 937              		.loc 1 743 15 view .LVU335
 938 0040 FFF7FEFF 		bl	USBD_SetClassConfig
 939              	.LVL120:
 745:USBLIB/Core/Src/usbd_ctlreq.c ****         {
 940              		.loc 1 745 9 is_stmt 1 view .LVU336
 745:USBLIB/Core/Src/usbd_ctlreq.c ****         {
 941              		.loc 1 745 12 is_stmt 0 view .LVU337
 942 0044 0546     		mov	r5, r0
 943 0046 38B1     		cbz	r0, .L62
 747:USBLIB/Core/Src/usbd_ctlreq.c ****           pdev->dev_state = USBD_STATE_ADDRESSED;
 944              		.loc 1 747 11 is_stmt 1 view .LVU338
 945 0048 3146     		mov	r1, r6
 946 004a 2046     		mov	r0, r4
 947              	.LVL121:
 747:USBLIB/Core/Src/usbd_ctlreq.c ****           pdev->dev_state = USBD_STATE_ADDRESSED;
 948              		.loc 1 747 11 is_stmt 0 view .LVU339
 949 004c FFF7FEFF 		bl	USBD_CtlError
 950              	.LVL122:
 748:USBLIB/Core/Src/usbd_ctlreq.c ****         }
 951              		.loc 1 748 11 is_stmt 1 view .LVU340
 748:USBLIB/Core/Src/usbd_ctlreq.c ****         }
 952              		.loc 1 748 27 is_stmt 0 view .LVU341
 953 0050 0223     		movs	r3, #2
 954 0052 84F89C32 		strb	r3, [r4, #668]
 955 0056 EAE7     		b	.L57
 956              	.LVL123:
 957              	.L62:
 752:USBLIB/Core/Src/usbd_ctlreq.c ****           pdev->dev_state = USBD_STATE_CONFIGURED;
 958              		.loc 1 752 11 is_stmt 1 view .LVU342
 752:USBLIB/Core/Src/usbd_ctlreq.c ****           pdev->dev_state = USBD_STATE_CONFIGURED;
 959              		.loc 1 752 17 is_stmt 0 view .LVU343
 960 0058 2046     		mov	r0, r4
 961              	.LVL124:
 752:USBLIB/Core/Src/usbd_ctlreq.c ****           pdev->dev_state = USBD_STATE_CONFIGURED;
 962              		.loc 1 752 17 view .LVU344
 963 005a FFF7FEFF 		bl	USBD_CtlSendStatus
 964              	.LVL125:
 753:USBLIB/Core/Src/usbd_ctlreq.c ****         }
 965              		.loc 1 753 11 is_stmt 1 view .LVU345
ARM GAS  C:\Users\Jim_YW\AppData\Local\Temp\cc86CmOl.s 			page 49


 753:USBLIB/Core/Src/usbd_ctlreq.c ****         }
 966              		.loc 1 753 27 is_stmt 0 view .LVU346
 967 005e 0323     		movs	r3, #3
 968 0060 84F89C32 		strb	r3, [r4, #668]
 969 0064 E3E7     		b	.L57
 970              	.LVL126:
 971              	.L61:
 758:USBLIB/Core/Src/usbd_ctlreq.c ****       }
 972              		.loc 1 758 9 is_stmt 1 view .LVU347
 758:USBLIB/Core/Src/usbd_ctlreq.c ****       }
 973              		.loc 1 758 15 is_stmt 0 view .LVU348
 974 0066 FFF7FEFF 		bl	USBD_CtlSendStatus
 975              	.LVL127:
 758:USBLIB/Core/Src/usbd_ctlreq.c ****       }
 976              		.loc 1 758 15 view .LVU349
 977 006a E0E7     		b	.L57
 978              	.LVL128:
 979              	.L59:
 763:USBLIB/Core/Src/usbd_ctlreq.c ****       {
 980              		.loc 1 763 7 is_stmt 1 view .LVU350
 763:USBLIB/Core/Src/usbd_ctlreq.c ****       {
 981              		.loc 1 763 10 is_stmt 0 view .LVU351
 982 006c CDB1     		cbz	r5, .L69
 770:USBLIB/Core/Src/usbd_ctlreq.c ****       {
 983              		.loc 1 770 12 is_stmt 1 view .LVU352
 770:USBLIB/Core/Src/usbd_ctlreq.c ****       {
 984              		.loc 1 770 30 is_stmt 0 view .LVU353
 985 006e 4168     		ldr	r1, [r0, #4]
 986              	.LVL129:
 770:USBLIB/Core/Src/usbd_ctlreq.c ****       {
 987              		.loc 1 770 15 view .LVU354
 988 0070 8D42     		cmp	r5, r1
 989 0072 25D0     		beq	.L64
 773:USBLIB/Core/Src/usbd_ctlreq.c **** 
 990              		.loc 1 773 9 is_stmt 1 view .LVU355
 773:USBLIB/Core/Src/usbd_ctlreq.c **** 
 991              		.loc 1 773 15 is_stmt 0 view .LVU356
 992 0074 C9B2     		uxtb	r1, r1
 993 0076 FFF7FEFF 		bl	USBD_ClrClassConfig
 994              	.LVL130:
 776:USBLIB/Core/Src/usbd_ctlreq.c **** 
 995              		.loc 1 776 9 is_stmt 1 view .LVU357
 776:USBLIB/Core/Src/usbd_ctlreq.c **** 
 996              		.loc 1 776 26 is_stmt 0 view .LVU358
 997 007a 134B     		ldr	r3, .L70
 998 007c 1978     		ldrb	r1, [r3]	@ zero_extendqisi2
 999 007e 6160     		str	r1, [r4, #4]
 778:USBLIB/Core/Src/usbd_ctlreq.c **** 
 1000              		.loc 1 778 9 is_stmt 1 view .LVU359
 778:USBLIB/Core/Src/usbd_ctlreq.c **** 
 1001              		.loc 1 778 15 is_stmt 0 view .LVU360
 1002 0080 2046     		mov	r0, r4
 1003 0082 FFF7FEFF 		bl	USBD_SetClassConfig
 1004              	.LVL131:
 780:USBLIB/Core/Src/usbd_ctlreq.c ****         {
 1005              		.loc 1 780 9 is_stmt 1 view .LVU361
 780:USBLIB/Core/Src/usbd_ctlreq.c ****         {
ARM GAS  C:\Users\Jim_YW\AppData\Local\Temp\cc86CmOl.s 			page 50


 1006              		.loc 1 780 12 is_stmt 0 view .LVU362
 1007 0086 0546     		mov	r5, r0
 1008 0088 B0B1     		cbz	r0, .L65
 782:USBLIB/Core/Src/usbd_ctlreq.c ****           (void)USBD_ClrClassConfig(pdev, (uint8_t)pdev->dev_config);
 1009              		.loc 1 782 11 is_stmt 1 view .LVU363
 1010 008a 3146     		mov	r1, r6
 1011 008c 2046     		mov	r0, r4
 1012              	.LVL132:
 782:USBLIB/Core/Src/usbd_ctlreq.c ****           (void)USBD_ClrClassConfig(pdev, (uint8_t)pdev->dev_config);
 1013              		.loc 1 782 11 is_stmt 0 view .LVU364
 1014 008e FFF7FEFF 		bl	USBD_CtlError
 1015              	.LVL133:
 783:USBLIB/Core/Src/usbd_ctlreq.c ****           pdev->dev_state = USBD_STATE_ADDRESSED;
 1016              		.loc 1 783 11 is_stmt 1 view .LVU365
 783:USBLIB/Core/Src/usbd_ctlreq.c ****           pdev->dev_state = USBD_STATE_ADDRESSED;
 1017              		.loc 1 783 17 is_stmt 0 view .LVU366
 1018 0092 2179     		ldrb	r1, [r4, #4]	@ zero_extendqisi2
 1019 0094 2046     		mov	r0, r4
 1020 0096 FFF7FEFF 		bl	USBD_ClrClassConfig
 1021              	.LVL134:
 784:USBLIB/Core/Src/usbd_ctlreq.c ****         }
 1022              		.loc 1 784 11 is_stmt 1 view .LVU367
 784:USBLIB/Core/Src/usbd_ctlreq.c ****         }
 1023              		.loc 1 784 27 is_stmt 0 view .LVU368
 1024 009a 0223     		movs	r3, #2
 1025 009c 84F89C32 		strb	r3, [r4, #668]
 1026 00a0 C5E7     		b	.L57
 1027              	.LVL135:
 1028              	.L69:
 765:USBLIB/Core/Src/usbd_ctlreq.c ****         pdev->dev_config = cfgidx;
 1029              		.loc 1 765 9 is_stmt 1 view .LVU369
 765:USBLIB/Core/Src/usbd_ctlreq.c ****         pdev->dev_config = cfgidx;
 1030              		.loc 1 765 25 is_stmt 0 view .LVU370
 1031 00a2 0223     		movs	r3, #2
 1032 00a4 80F89C32 		strb	r3, [r0, #668]
 766:USBLIB/Core/Src/usbd_ctlreq.c ****         (void)USBD_ClrClassConfig(pdev, cfgidx);
 1033              		.loc 1 766 9 is_stmt 1 view .LVU371
 766:USBLIB/Core/Src/usbd_ctlreq.c ****         (void)USBD_ClrClassConfig(pdev, cfgidx);
 1034              		.loc 1 766 26 is_stmt 0 view .LVU372
 1035 00a8 4560     		str	r5, [r0, #4]
 767:USBLIB/Core/Src/usbd_ctlreq.c ****         (void)USBD_CtlSendStatus(pdev);
 1036              		.loc 1 767 9 is_stmt 1 view .LVU373
 767:USBLIB/Core/Src/usbd_ctlreq.c ****         (void)USBD_CtlSendStatus(pdev);
 1037              		.loc 1 767 15 is_stmt 0 view .LVU374
 1038 00aa 2946     		mov	r1, r5
 1039              	.LVL136:
 767:USBLIB/Core/Src/usbd_ctlreq.c ****         (void)USBD_CtlSendStatus(pdev);
 1040              		.loc 1 767 15 view .LVU375
 1041 00ac FFF7FEFF 		bl	USBD_ClrClassConfig
 1042              	.LVL137:
 768:USBLIB/Core/Src/usbd_ctlreq.c ****       }
 1043              		.loc 1 768 9 is_stmt 1 view .LVU376
 768:USBLIB/Core/Src/usbd_ctlreq.c ****       }
 1044              		.loc 1 768 15 is_stmt 0 view .LVU377
 1045 00b0 2046     		mov	r0, r4
 1046 00b2 FFF7FEFF 		bl	USBD_CtlSendStatus
 1047              	.LVL138:
ARM GAS  C:\Users\Jim_YW\AppData\Local\Temp\cc86CmOl.s 			page 51


 1048 00b6 BAE7     		b	.L57
 1049              	.LVL139:
 1050              	.L65:
 788:USBLIB/Core/Src/usbd_ctlreq.c ****         }
 1051              		.loc 1 788 11 is_stmt 1 view .LVU378
 788:USBLIB/Core/Src/usbd_ctlreq.c ****         }
 1052              		.loc 1 788 17 is_stmt 0 view .LVU379
 1053 00b8 2046     		mov	r0, r4
 1054              	.LVL140:
 788:USBLIB/Core/Src/usbd_ctlreq.c ****         }
 1055              		.loc 1 788 17 view .LVU380
 1056 00ba FFF7FEFF 		bl	USBD_CtlSendStatus
 1057              	.LVL141:
 1058 00be B6E7     		b	.L57
 1059              	.LVL142:
 1060              	.L64:
 793:USBLIB/Core/Src/usbd_ctlreq.c ****       }
 1061              		.loc 1 793 9 is_stmt 1 view .LVU381
 793:USBLIB/Core/Src/usbd_ctlreq.c ****       }
 1062              		.loc 1 793 15 is_stmt 0 view .LVU382
 1063 00c0 FFF7FEFF 		bl	USBD_CtlSendStatus
 1064              	.LVL143:
 725:USBLIB/Core/Src/usbd_ctlreq.c ****   static uint8_t cfgidx;
 1065              		.loc 1 725 22 view .LVU383
 1066 00c4 0025     		movs	r5, #0
 1067 00c6 B2E7     		b	.L57
 1068              	.L71:
 1069              		.align	2
 1070              	.L70:
 1071 00c8 00000000 		.word	.LANCHOR0
 1072              		.cfi_endproc
 1073              	.LFE139:
 1075              		.section	.text.USBD_GetConfig,"ax",%progbits
 1076              		.align	1
 1077              		.syntax unified
 1078              		.thumb
 1079              		.thumb_func
 1081              	USBD_GetConfig:
 1082              	.LVL144:
 1083              	.LFB140:
 815:USBLIB/Core/Src/usbd_ctlreq.c ****   if (req->wLength != 1U)
 1084              		.loc 1 815 1 is_stmt 1 view -0
 1085              		.cfi_startproc
 1086              		@ args = 0, pretend = 0, frame = 0
 1087              		@ frame_needed = 0, uses_anonymous_args = 0
 815:USBLIB/Core/Src/usbd_ctlreq.c ****   if (req->wLength != 1U)
 1088              		.loc 1 815 1 is_stmt 0 view .LVU385
 1089 0000 08B5     		push	{r3, lr}
 1090              	.LCFI7:
 1091              		.cfi_def_cfa_offset 8
 1092              		.cfi_offset 3, -8
 1093              		.cfi_offset 14, -4
 816:USBLIB/Core/Src/usbd_ctlreq.c ****   {
 1094              		.loc 1 816 3 is_stmt 1 view .LVU386
 816:USBLIB/Core/Src/usbd_ctlreq.c ****   {
 1095              		.loc 1 816 10 is_stmt 0 view .LVU387
 1096 0002 CB88     		ldrh	r3, [r1, #6]
ARM GAS  C:\Users\Jim_YW\AppData\Local\Temp\cc86CmOl.s 			page 52


 816:USBLIB/Core/Src/usbd_ctlreq.c ****   {
 1097              		.loc 1 816 6 view .LVU388
 1098 0004 012B     		cmp	r3, #1
 1099 0006 0BD1     		bne	.L80
 822:USBLIB/Core/Src/usbd_ctlreq.c ****     {
 1100              		.loc 1 822 5 is_stmt 1 view .LVU389
 822:USBLIB/Core/Src/usbd_ctlreq.c ****     {
 1101              		.loc 1 822 17 is_stmt 0 view .LVU390
 1102 0008 90F89C32 		ldrb	r3, [r0, #668]	@ zero_extendqisi2
 1103 000c DBB2     		uxtb	r3, r3
 822:USBLIB/Core/Src/usbd_ctlreq.c ****     {
 1104              		.loc 1 822 5 view .LVU391
 1105 000e 022B     		cmp	r3, #2
 1106 0010 09D9     		bls	.L81
 1107 0012 032B     		cmp	r3, #3
 1108 0014 09D1     		bne	.L77
 831:USBLIB/Core/Src/usbd_ctlreq.c ****         break;
 1109              		.loc 1 831 9 is_stmt 1 view .LVU392
 831:USBLIB/Core/Src/usbd_ctlreq.c ****         break;
 1110              		.loc 1 831 15 is_stmt 0 view .LVU393
 1111 0016 0122     		movs	r2, #1
 1112 0018 011D     		adds	r1, r0, #4
 1113              	.LVL145:
 831:USBLIB/Core/Src/usbd_ctlreq.c ****         break;
 1114              		.loc 1 831 15 view .LVU394
 1115 001a FFF7FEFF 		bl	USBD_CtlSendData
 1116              	.LVL146:
 832:USBLIB/Core/Src/usbd_ctlreq.c **** 
 1117              		.loc 1 832 9 is_stmt 1 view .LVU395
 1118 001e 01E0     		b	.L72
 1119              	.LVL147:
 1120              	.L80:
 818:USBLIB/Core/Src/usbd_ctlreq.c ****   }
 1121              		.loc 1 818 5 view .LVU396
 1122 0020 FFF7FEFF 		bl	USBD_CtlError
 1123              	.LVL148:
 1124              	.L72:
 839:USBLIB/Core/Src/usbd_ctlreq.c **** 
 1125              		.loc 1 839 1 is_stmt 0 view .LVU397
 1126 0024 08BD     		pop	{r3, pc}
 1127              	.LVL149:
 1128              	.L81:
 822:USBLIB/Core/Src/usbd_ctlreq.c ****     {
 1129              		.loc 1 822 5 view .LVU398
 1130 0026 5BB2     		sxtb	r3, r3
 1131 0028 13B9     		cbnz	r3, .L82
 1132              	.L77:
 835:USBLIB/Core/Src/usbd_ctlreq.c ****         break;
 1133              		.loc 1 835 9 is_stmt 1 view .LVU399
 1134 002a FFF7FEFF 		bl	USBD_CtlError
 1135              	.LVL150:
 836:USBLIB/Core/Src/usbd_ctlreq.c ****     }
 1136              		.loc 1 836 9 view .LVU400
 839:USBLIB/Core/Src/usbd_ctlreq.c **** 
 1137              		.loc 1 839 1 is_stmt 0 view .LVU401
 1138 002e F9E7     		b	.L72
 1139              	.LVL151:
ARM GAS  C:\Users\Jim_YW\AppData\Local\Temp\cc86CmOl.s 			page 53


 1140              	.L82:
 826:USBLIB/Core/Src/usbd_ctlreq.c ****         (void)USBD_CtlSendData(pdev, (uint8_t *)&pdev->dev_default_config, 1U);
 1141              		.loc 1 826 9 is_stmt 1 view .LVU402
 826:USBLIB/Core/Src/usbd_ctlreq.c ****         (void)USBD_CtlSendData(pdev, (uint8_t *)&pdev->dev_default_config, 1U);
 1142              		.loc 1 826 34 is_stmt 0 view .LVU403
 1143 0030 0146     		mov	r1, r0
 1144              	.LVL152:
 826:USBLIB/Core/Src/usbd_ctlreq.c ****         (void)USBD_CtlSendData(pdev, (uint8_t *)&pdev->dev_default_config, 1U);
 1145              		.loc 1 826 34 view .LVU404
 1146 0032 0023     		movs	r3, #0
 1147 0034 41F8083F 		str	r3, [r1, #8]!
 827:USBLIB/Core/Src/usbd_ctlreq.c ****         break;
 1148              		.loc 1 827 9 is_stmt 1 view .LVU405
 827:USBLIB/Core/Src/usbd_ctlreq.c ****         break;
 1149              		.loc 1 827 15 is_stmt 0 view .LVU406
 1150 0038 0122     		movs	r2, #1
 1151 003a FFF7FEFF 		bl	USBD_CtlSendData
 1152              	.LVL153:
 828:USBLIB/Core/Src/usbd_ctlreq.c **** 
 1153              		.loc 1 828 9 is_stmt 1 view .LVU407
 1154 003e F1E7     		b	.L72
 1155              		.cfi_endproc
 1156              	.LFE140:
 1158              		.section	.text.USBD_GetStatus,"ax",%progbits
 1159              		.align	1
 1160              		.syntax unified
 1161              		.thumb
 1162              		.thumb_func
 1164              	USBD_GetStatus:
 1165              	.LVL154:
 1166              	.LFB141:
 849:USBLIB/Core/Src/usbd_ctlreq.c ****   switch (pdev->dev_state)
 1167              		.loc 1 849 1 view -0
 1168              		.cfi_startproc
 1169              		@ args = 0, pretend = 0, frame = 0
 1170              		@ frame_needed = 0, uses_anonymous_args = 0
 849:USBLIB/Core/Src/usbd_ctlreq.c ****   switch (pdev->dev_state)
 1171              		.loc 1 849 1 is_stmt 0 view .LVU409
 1172 0000 08B5     		push	{r3, lr}
 1173              	.LCFI8:
 1174              		.cfi_def_cfa_offset 8
 1175              		.cfi_offset 3, -8
 1176              		.cfi_offset 14, -4
 850:USBLIB/Core/Src/usbd_ctlreq.c ****   {
 1177              		.loc 1 850 3 is_stmt 1 view .LVU410
 850:USBLIB/Core/Src/usbd_ctlreq.c ****   {
 1178              		.loc 1 850 15 is_stmt 0 view .LVU411
 1179 0002 90F89C32 		ldrb	r3, [r0, #668]	@ zero_extendqisi2
 850:USBLIB/Core/Src/usbd_ctlreq.c ****   {
 1180              		.loc 1 850 3 view .LVU412
 1181 0006 013B     		subs	r3, r3, #1
 1182 0008 022B     		cmp	r3, #2
 1183 000a 12D8     		bhi	.L84
 855:USBLIB/Core/Src/usbd_ctlreq.c ****       {
 1184              		.loc 1 855 7 is_stmt 1 view .LVU413
 855:USBLIB/Core/Src/usbd_ctlreq.c ****       {
 1185              		.loc 1 855 14 is_stmt 0 view .LVU414
ARM GAS  C:\Users\Jim_YW\AppData\Local\Temp\cc86CmOl.s 			page 54


 1186 000c CB88     		ldrh	r3, [r1, #6]
 855:USBLIB/Core/Src/usbd_ctlreq.c ****       {
 1187              		.loc 1 855 10 view .LVU415
 1188 000e 022B     		cmp	r3, #2
 1189 0010 0CD1     		bne	.L89
 862:USBLIB/Core/Src/usbd_ctlreq.c **** #else
 1190              		.loc 1 862 7 is_stmt 1 view .LVU416
 862:USBLIB/Core/Src/usbd_ctlreq.c **** #else
 1191              		.loc 1 862 31 is_stmt 0 view .LVU417
 1192 0012 0123     		movs	r3, #1
 1193 0014 C360     		str	r3, [r0, #12]
 867:USBLIB/Core/Src/usbd_ctlreq.c ****       {
 1194              		.loc 1 867 7 is_stmt 1 view .LVU418
 867:USBLIB/Core/Src/usbd_ctlreq.c ****       {
 1195              		.loc 1 867 15 is_stmt 0 view .LVU419
 1196 0016 D0F8A432 		ldr	r3, [r0, #676]
 867:USBLIB/Core/Src/usbd_ctlreq.c ****       {
 1197              		.loc 1 867 10 view .LVU420
 1198 001a 0BB1     		cbz	r3, .L87
 869:USBLIB/Core/Src/usbd_ctlreq.c ****       }
 1199              		.loc 1 869 9 is_stmt 1 view .LVU421
 869:USBLIB/Core/Src/usbd_ctlreq.c ****       }
 1200              		.loc 1 869 33 is_stmt 0 view .LVU422
 1201 001c 0323     		movs	r3, #3
 1202 001e C360     		str	r3, [r0, #12]
 1203              	.L87:
 872:USBLIB/Core/Src/usbd_ctlreq.c ****       break;
 1204              		.loc 1 872 7 is_stmt 1 view .LVU423
 872:USBLIB/Core/Src/usbd_ctlreq.c ****       break;
 1205              		.loc 1 872 13 is_stmt 0 view .LVU424
 1206 0020 0222     		movs	r2, #2
 1207 0022 00F10C01 		add	r1, r0, #12
 1208              	.LVL155:
 872:USBLIB/Core/Src/usbd_ctlreq.c ****       break;
 1209              		.loc 1 872 13 view .LVU425
 1210 0026 FFF7FEFF 		bl	USBD_CtlSendData
 1211              	.LVL156:
 873:USBLIB/Core/Src/usbd_ctlreq.c **** 
 1212              		.loc 1 873 7 is_stmt 1 view .LVU426
 1213              	.L83:
 879:USBLIB/Core/Src/usbd_ctlreq.c **** 
 1214              		.loc 1 879 1 is_stmt 0 view .LVU427
 1215 002a 08BD     		pop	{r3, pc}
 1216              	.LVL157:
 1217              	.L89:
 857:USBLIB/Core/Src/usbd_ctlreq.c ****         break;
 1218              		.loc 1 857 9 is_stmt 1 view .LVU428
 1219 002c FFF7FEFF 		bl	USBD_CtlError
 1220              	.LVL158:
 858:USBLIB/Core/Src/usbd_ctlreq.c ****       }
 1221              		.loc 1 858 9 view .LVU429
 1222 0030 FBE7     		b	.L83
 1223              	.LVL159:
 1224              	.L84:
 876:USBLIB/Core/Src/usbd_ctlreq.c ****       break;
 1225              		.loc 1 876 7 view .LVU430
 1226 0032 FFF7FEFF 		bl	USBD_CtlError
ARM GAS  C:\Users\Jim_YW\AppData\Local\Temp\cc86CmOl.s 			page 55


 1227              	.LVL160:
 877:USBLIB/Core/Src/usbd_ctlreq.c ****   }
 1228              		.loc 1 877 7 view .LVU431
 879:USBLIB/Core/Src/usbd_ctlreq.c **** 
 1229              		.loc 1 879 1 is_stmt 0 view .LVU432
 1230 0036 F8E7     		b	.L83
 1231              		.cfi_endproc
 1232              	.LFE141:
 1234              		.section	.text.USBD_SetFeature,"ax",%progbits
 1235              		.align	1
 1236              		.syntax unified
 1237              		.thumb
 1238              		.thumb_func
 1240              	USBD_SetFeature:
 1241              	.LVL161:
 1242              	.LFB142:
 890:USBLIB/Core/Src/usbd_ctlreq.c ****   if (req->wValue == USB_FEATURE_REMOTE_WAKEUP)
 1243              		.loc 1 890 1 is_stmt 1 view -0
 1244              		.cfi_startproc
 1245              		@ args = 0, pretend = 0, frame = 0
 1246              		@ frame_needed = 0, uses_anonymous_args = 0
 890:USBLIB/Core/Src/usbd_ctlreq.c ****   if (req->wValue == USB_FEATURE_REMOTE_WAKEUP)
 1247              		.loc 1 890 1 is_stmt 0 view .LVU434
 1248 0000 08B5     		push	{r3, lr}
 1249              	.LCFI9:
 1250              		.cfi_def_cfa_offset 8
 1251              		.cfi_offset 3, -8
 1252              		.cfi_offset 14, -4
 891:USBLIB/Core/Src/usbd_ctlreq.c ****   {
 1253              		.loc 1 891 3 is_stmt 1 view .LVU435
 891:USBLIB/Core/Src/usbd_ctlreq.c ****   {
 1254              		.loc 1 891 10 is_stmt 0 view .LVU436
 1255 0002 4B88     		ldrh	r3, [r1, #2]
 891:USBLIB/Core/Src/usbd_ctlreq.c ****   {
 1256              		.loc 1 891 6 view .LVU437
 1257 0004 012B     		cmp	r3, #1
 1258 0006 04D0     		beq	.L95
 896:USBLIB/Core/Src/usbd_ctlreq.c ****   {
 1259              		.loc 1 896 8 is_stmt 1 view .LVU438
 896:USBLIB/Core/Src/usbd_ctlreq.c ****   {
 1260              		.loc 1 896 11 is_stmt 0 view .LVU439
 1261 0008 022B     		cmp	r3, #2
 1262 000a 07D0     		beq	.L96
 903:USBLIB/Core/Src/usbd_ctlreq.c ****   }
 1263              		.loc 1 903 5 is_stmt 1 view .LVU440
 1264 000c FFF7FEFF 		bl	USBD_CtlError
 1265              	.LVL162:
 1266              	.L90:
 905:USBLIB/Core/Src/usbd_ctlreq.c **** 
 1267              		.loc 1 905 1 is_stmt 0 view .LVU441
 1268 0010 08BD     		pop	{r3, pc}
 1269              	.LVL163:
 1270              	.L95:
 893:USBLIB/Core/Src/usbd_ctlreq.c ****     (void)USBD_CtlSendStatus(pdev);
 1271              		.loc 1 893 5 is_stmt 1 view .LVU442
 893:USBLIB/Core/Src/usbd_ctlreq.c ****     (void)USBD_CtlSendStatus(pdev);
 1272              		.loc 1 893 29 is_stmt 0 view .LVU443
ARM GAS  C:\Users\Jim_YW\AppData\Local\Temp\cc86CmOl.s 			page 56


 1273 0012 C0F8A432 		str	r3, [r0, #676]
 894:USBLIB/Core/Src/usbd_ctlreq.c ****   }
 1274              		.loc 1 894 5 is_stmt 1 view .LVU444
 894:USBLIB/Core/Src/usbd_ctlreq.c ****   }
 1275              		.loc 1 894 11 is_stmt 0 view .LVU445
 1276 0016 FFF7FEFF 		bl	USBD_CtlSendStatus
 1277              	.LVL164:
 894:USBLIB/Core/Src/usbd_ctlreq.c ****   }
 1278              		.loc 1 894 11 view .LVU446
 1279 001a F9E7     		b	.L90
 1280              	.LVL165:
 1281              	.L96:
 898:USBLIB/Core/Src/usbd_ctlreq.c ****     (void)USBD_CtlSendStatus(pdev);
 1282              		.loc 1 898 5 is_stmt 1 view .LVU447
 898:USBLIB/Core/Src/usbd_ctlreq.c ****     (void)USBD_CtlSendStatus(pdev);
 1283              		.loc 1 898 30 is_stmt 0 view .LVU448
 1284 001c 8B88     		ldrh	r3, [r1, #4]
 898:USBLIB/Core/Src/usbd_ctlreq.c ****     (void)USBD_CtlSendStatus(pdev);
 1285              		.loc 1 898 25 view .LVU449
 1286 001e 1B0A     		lsrs	r3, r3, #8
 1287 0020 80F8A032 		strb	r3, [r0, #672]
 899:USBLIB/Core/Src/usbd_ctlreq.c ****   }
 1288              		.loc 1 899 5 is_stmt 1 view .LVU450
 899:USBLIB/Core/Src/usbd_ctlreq.c ****   }
 1289              		.loc 1 899 11 is_stmt 0 view .LVU451
 1290 0024 FFF7FEFF 		bl	USBD_CtlSendStatus
 1291              	.LVL166:
 899:USBLIB/Core/Src/usbd_ctlreq.c ****   }
 1292              		.loc 1 899 11 view .LVU452
 1293 0028 F2E7     		b	.L90
 1294              		.cfi_endproc
 1295              	.LFE142:
 1297              		.section	.text.USBD_ClrFeature,"ax",%progbits
 1298              		.align	1
 1299              		.syntax unified
 1300              		.thumb
 1301              		.thumb_func
 1303              	USBD_ClrFeature:
 1304              	.LVL167:
 1305              	.LFB143:
 916:USBLIB/Core/Src/usbd_ctlreq.c ****   switch (pdev->dev_state)
 1306              		.loc 1 916 1 is_stmt 1 view -0
 1307              		.cfi_startproc
 1308              		@ args = 0, pretend = 0, frame = 0
 1309              		@ frame_needed = 0, uses_anonymous_args = 0
 916:USBLIB/Core/Src/usbd_ctlreq.c ****   switch (pdev->dev_state)
 1310              		.loc 1 916 1 is_stmt 0 view .LVU454
 1311 0000 08B5     		push	{r3, lr}
 1312              	.LCFI10:
 1313              		.cfi_def_cfa_offset 8
 1314              		.cfi_offset 3, -8
 1315              		.cfi_offset 14, -4
 917:USBLIB/Core/Src/usbd_ctlreq.c ****   {
 1316              		.loc 1 917 3 is_stmt 1 view .LVU455
 917:USBLIB/Core/Src/usbd_ctlreq.c ****   {
 1317              		.loc 1 917 15 is_stmt 0 view .LVU456
 1318 0002 90F89C32 		ldrb	r3, [r0, #668]	@ zero_extendqisi2
ARM GAS  C:\Users\Jim_YW\AppData\Local\Temp\cc86CmOl.s 			page 57


 917:USBLIB/Core/Src/usbd_ctlreq.c ****   {
 1319              		.loc 1 917 3 view .LVU457
 1320 0006 013B     		subs	r3, r3, #1
 1321 0008 022B     		cmp	r3, #2
 1322 000a 09D8     		bhi	.L98
 922:USBLIB/Core/Src/usbd_ctlreq.c ****       {
 1323              		.loc 1 922 7 is_stmt 1 view .LVU458
 922:USBLIB/Core/Src/usbd_ctlreq.c ****       {
 1324              		.loc 1 922 14 is_stmt 0 view .LVU459
 1325 000c 4B88     		ldrh	r3, [r1, #2]
 922:USBLIB/Core/Src/usbd_ctlreq.c ****       {
 1326              		.loc 1 922 10 view .LVU460
 1327 000e 012B     		cmp	r3, #1
 1328 0010 00D0     		beq	.L101
 1329              	.LVL168:
 1330              	.L97:
 933:USBLIB/Core/Src/usbd_ctlreq.c **** 
 1331              		.loc 1 933 1 view .LVU461
 1332 0012 08BD     		pop	{r3, pc}
 1333              	.LVL169:
 1334              	.L101:
 924:USBLIB/Core/Src/usbd_ctlreq.c ****         (void)USBD_CtlSendStatus(pdev);
 1335              		.loc 1 924 9 is_stmt 1 view .LVU462
 924:USBLIB/Core/Src/usbd_ctlreq.c ****         (void)USBD_CtlSendStatus(pdev);
 1336              		.loc 1 924 33 is_stmt 0 view .LVU463
 1337 0014 0023     		movs	r3, #0
 1338 0016 C0F8A432 		str	r3, [r0, #676]
 925:USBLIB/Core/Src/usbd_ctlreq.c ****       }
 1339              		.loc 1 925 9 is_stmt 1 view .LVU464
 925:USBLIB/Core/Src/usbd_ctlreq.c ****       }
 1340              		.loc 1 925 15 is_stmt 0 view .LVU465
 1341 001a FFF7FEFF 		bl	USBD_CtlSendStatus
 1342              	.LVL170:
 925:USBLIB/Core/Src/usbd_ctlreq.c ****       }
 1343              		.loc 1 925 15 view .LVU466
 1344 001e F8E7     		b	.L97
 1345              	.LVL171:
 1346              	.L98:
 930:USBLIB/Core/Src/usbd_ctlreq.c ****       break;
 1347              		.loc 1 930 7 is_stmt 1 view .LVU467
 1348 0020 FFF7FEFF 		bl	USBD_CtlError
 1349              	.LVL172:
 931:USBLIB/Core/Src/usbd_ctlreq.c ****   }
 1350              		.loc 1 931 7 view .LVU468
 933:USBLIB/Core/Src/usbd_ctlreq.c **** 
 1351              		.loc 1 933 1 is_stmt 0 view .LVU469
 1352 0024 F5E7     		b	.L97
 1353              		.cfi_endproc
 1354              	.LFE143:
 1356              		.section	.text.USBD_StdDevReq,"ax",%progbits
 1357              		.align	1
 1358              		.global	USBD_StdDevReq
 1359              		.syntax unified
 1360              		.thumb
 1361              		.thumb_func
 1363              	USBD_StdDevReq:
 1364              	.LVL173:
ARM GAS  C:\Users\Jim_YW\AppData\Local\Temp\cc86CmOl.s 			page 58


 1365              	.LFB134:
 103:USBLIB/Core/Src/usbd_ctlreq.c ****   USBD_StatusTypeDef ret = USBD_OK;
 1366              		.loc 1 103 1 is_stmt 1 view -0
 1367              		.cfi_startproc
 1368              		@ args = 0, pretend = 0, frame = 0
 1369              		@ frame_needed = 0, uses_anonymous_args = 0
 103:USBLIB/Core/Src/usbd_ctlreq.c ****   USBD_StatusTypeDef ret = USBD_OK;
 1370              		.loc 1 103 1 is_stmt 0 view .LVU471
 1371 0000 38B5     		push	{r3, r4, r5, lr}
 1372              	.LCFI11:
 1373              		.cfi_def_cfa_offset 16
 1374              		.cfi_offset 3, -16
 1375              		.cfi_offset 4, -12
 1376              		.cfi_offset 5, -8
 1377              		.cfi_offset 14, -4
 104:USBLIB/Core/Src/usbd_ctlreq.c **** 
 1378              		.loc 1 104 3 is_stmt 1 view .LVU472
 1379              	.LVL174:
 106:USBLIB/Core/Src/usbd_ctlreq.c ****   {
 1380              		.loc 1 106 3 view .LVU473
 106:USBLIB/Core/Src/usbd_ctlreq.c ****   {
 1381              		.loc 1 106 14 is_stmt 0 view .LVU474
 1382 0002 0C78     		ldrb	r4, [r1]	@ zero_extendqisi2
 1383 0004 04F06004 		and	r4, r4, #96
 106:USBLIB/Core/Src/usbd_ctlreq.c ****   {
 1384              		.loc 1 106 3 view .LVU475
 1385 0008 202C     		cmp	r4, #32
 1386 000a 06D0     		beq	.L103
 1387 000c 402C     		cmp	r4, #64
 1388 000e 04D0     		beq	.L103
 1389 0010 6CB1     		cbz	r4, .L118
 151:USBLIB/Core/Src/usbd_ctlreq.c ****       break;
 1390              		.loc 1 151 7 is_stmt 1 view .LVU476
 1391 0012 FFF7FEFF 		bl	USBD_CtlError
 1392              	.LVL175:
 152:USBLIB/Core/Src/usbd_ctlreq.c ****   }
 1393              		.loc 1 152 7 view .LVU477
 104:USBLIB/Core/Src/usbd_ctlreq.c **** 
 1394              		.loc 1 104 22 is_stmt 0 view .LVU478
 1395 0016 0024     		movs	r4, #0
 152:USBLIB/Core/Src/usbd_ctlreq.c ****   }
 1396              		.loc 1 152 7 view .LVU479
 1397 0018 07E0     		b	.L106
 1398              	.LVL176:
 1399              	.L103:
 110:USBLIB/Core/Src/usbd_ctlreq.c ****       break;
 1400              		.loc 1 110 7 is_stmt 1 view .LVU480
 110:USBLIB/Core/Src/usbd_ctlreq.c ****       break;
 1401              		.loc 1 110 50 is_stmt 0 view .LVU481
 1402 001a D0F8F832 		ldr	r3, [r0, #760]
 110:USBLIB/Core/Src/usbd_ctlreq.c ****       break;
 1403              		.loc 1 110 45 view .LVU482
 1404 001e AE33     		adds	r3, r3, #174
 1405 0020 50F82330 		ldr	r3, [r0, r3, lsl #2]
 110:USBLIB/Core/Src/usbd_ctlreq.c ****       break;
 1406              		.loc 1 110 60 view .LVU483
 1407 0024 9B68     		ldr	r3, [r3, #8]
ARM GAS  C:\Users\Jim_YW\AppData\Local\Temp\cc86CmOl.s 			page 59


 110:USBLIB/Core/Src/usbd_ctlreq.c ****       break;
 1408              		.loc 1 110 33 view .LVU484
 1409 0026 9847     		blx	r3
 1410              	.LVL177:
 110:USBLIB/Core/Src/usbd_ctlreq.c ****       break;
 1411              		.loc 1 110 33 view .LVU485
 1412 0028 0446     		mov	r4, r0
 1413              	.LVL178:
 111:USBLIB/Core/Src/usbd_ctlreq.c **** 
 1414              		.loc 1 111 7 is_stmt 1 view .LVU486
 1415              	.L106:
 155:USBLIB/Core/Src/usbd_ctlreq.c **** }
 1416              		.loc 1 155 3 view .LVU487
 156:USBLIB/Core/Src/usbd_ctlreq.c **** 
 1417              		.loc 1 156 1 is_stmt 0 view .LVU488
 1418 002a 2046     		mov	r0, r4
 1419 002c 38BD     		pop	{r3, r4, r5, pc}
 1420              	.LVL179:
 1421              	.L118:
 114:USBLIB/Core/Src/usbd_ctlreq.c ****       {
 1422              		.loc 1 114 7 is_stmt 1 view .LVU489
 114:USBLIB/Core/Src/usbd_ctlreq.c ****       {
 1423              		.loc 1 114 18 is_stmt 0 view .LVU490
 1424 002e 4D78     		ldrb	r5, [r1, #1]	@ zero_extendqisi2
 1425 0030 092D     		cmp	r5, #9
 1426 0032 1DD8     		bhi	.L107
 1427 0034 DFE805F0 		tbb	[pc, r5]
 1428              	.L109:
 1429 0038 12       		.byte	(.L115-.L109)/2
 1430 0039 19       		.byte	(.L114-.L109)/2
 1431 003a 1C       		.byte	(.L107-.L109)/2
 1432 003b 16       		.byte	(.L113-.L109)/2
 1433 003c 1C       		.byte	(.L107-.L109)/2
 1434 003d 08       		.byte	(.L112-.L109)/2
 1435 003e 05       		.byte	(.L111-.L109)/2
 1436 003f 1C       		.byte	(.L107-.L109)/2
 1437 0040 0F       		.byte	(.L110-.L109)/2
 1438 0041 0B       		.byte	(.L108-.L109)/2
 1439              		.p2align 1
 1440              	.L111:
 117:USBLIB/Core/Src/usbd_ctlreq.c ****           break;
 1441              		.loc 1 117 11 is_stmt 1 view .LVU491
 1442 0042 FFF7FEFF 		bl	USBD_GetDescriptor
 1443              	.LVL180:
 118:USBLIB/Core/Src/usbd_ctlreq.c **** 
 1444              		.loc 1 118 11 view .LVU492
 1445 0046 F0E7     		b	.L106
 1446              	.LVL181:
 1447              	.L112:
 121:USBLIB/Core/Src/usbd_ctlreq.c ****           break;
 1448              		.loc 1 121 11 view .LVU493
 1449 0048 FFF7FEFF 		bl	USBD_SetAddress
 1450              	.LVL182:
 122:USBLIB/Core/Src/usbd_ctlreq.c **** 
 1451              		.loc 1 122 11 view .LVU494
 1452 004c EDE7     		b	.L106
 1453              	.LVL183:
ARM GAS  C:\Users\Jim_YW\AppData\Local\Temp\cc86CmOl.s 			page 60


 1454              	.L108:
 125:USBLIB/Core/Src/usbd_ctlreq.c ****           break;
 1455              		.loc 1 125 11 view .LVU495
 125:USBLIB/Core/Src/usbd_ctlreq.c ****           break;
 1456              		.loc 1 125 17 is_stmt 0 view .LVU496
 1457 004e FFF7FEFF 		bl	USBD_SetConfig
 1458              	.LVL184:
 125:USBLIB/Core/Src/usbd_ctlreq.c ****           break;
 1459              		.loc 1 125 17 view .LVU497
 1460 0052 0446     		mov	r4, r0
 1461              	.LVL185:
 126:USBLIB/Core/Src/usbd_ctlreq.c **** 
 1462              		.loc 1 126 11 is_stmt 1 view .LVU498
 1463 0054 E9E7     		b	.L106
 1464              	.LVL186:
 1465              	.L110:
 129:USBLIB/Core/Src/usbd_ctlreq.c ****           break;
 1466              		.loc 1 129 11 view .LVU499
 1467 0056 FFF7FEFF 		bl	USBD_GetConfig
 1468              	.LVL187:
 130:USBLIB/Core/Src/usbd_ctlreq.c **** 
 1469              		.loc 1 130 11 view .LVU500
 1470 005a E6E7     		b	.L106
 1471              	.LVL188:
 1472              	.L115:
 133:USBLIB/Core/Src/usbd_ctlreq.c ****           break;
 1473              		.loc 1 133 11 view .LVU501
 1474 005c FFF7FEFF 		bl	USBD_GetStatus
 1475              	.LVL189:
 134:USBLIB/Core/Src/usbd_ctlreq.c **** 
 1476              		.loc 1 134 11 view .LVU502
 104:USBLIB/Core/Src/usbd_ctlreq.c **** 
 1477              		.loc 1 104 22 is_stmt 0 view .LVU503
 1478 0060 2C46     		mov	r4, r5
 134:USBLIB/Core/Src/usbd_ctlreq.c **** 
 1479              		.loc 1 134 11 view .LVU504
 1480 0062 E2E7     		b	.L106
 1481              	.LVL190:
 1482              	.L113:
 137:USBLIB/Core/Src/usbd_ctlreq.c ****           break;
 1483              		.loc 1 137 11 is_stmt 1 view .LVU505
 1484 0064 FFF7FEFF 		bl	USBD_SetFeature
 1485              	.LVL191:
 138:USBLIB/Core/Src/usbd_ctlreq.c **** 
 1486              		.loc 1 138 11 view .LVU506
 1487 0068 DFE7     		b	.L106
 1488              	.LVL192:
 1489              	.L114:
 141:USBLIB/Core/Src/usbd_ctlreq.c ****           break;
 1490              		.loc 1 141 11 view .LVU507
 1491 006a FFF7FEFF 		bl	USBD_ClrFeature
 1492              	.LVL193:
 142:USBLIB/Core/Src/usbd_ctlreq.c **** 
 1493              		.loc 1 142 11 view .LVU508
 1494 006e DCE7     		b	.L106
 1495              	.LVL194:
 1496              	.L107:
ARM GAS  C:\Users\Jim_YW\AppData\Local\Temp\cc86CmOl.s 			page 61


 145:USBLIB/Core/Src/usbd_ctlreq.c ****           break;
 1497              		.loc 1 145 11 view .LVU509
 1498 0070 FFF7FEFF 		bl	USBD_CtlError
 1499              	.LVL195:
 146:USBLIB/Core/Src/usbd_ctlreq.c ****       }
 1500              		.loc 1 146 11 view .LVU510
 1501 0074 D9E7     		b	.L106
 1502              		.cfi_endproc
 1503              	.LFE134:
 1505              		.section	.text.USBD_StdItfReq,"ax",%progbits
 1506              		.align	1
 1507              		.global	USBD_StdItfReq
 1508              		.syntax unified
 1509              		.thumb
 1510              		.thumb_func
 1512              	USBD_StdItfReq:
 1513              	.LVL196:
 1514              	.LFB135:
 166:USBLIB/Core/Src/usbd_ctlreq.c ****   USBD_StatusTypeDef ret = USBD_OK;
 1515              		.loc 1 166 1 view -0
 1516              		.cfi_startproc
 1517              		@ args = 0, pretend = 0, frame = 0
 1518              		@ frame_needed = 0, uses_anonymous_args = 0
 166:USBLIB/Core/Src/usbd_ctlreq.c ****   USBD_StatusTypeDef ret = USBD_OK;
 1519              		.loc 1 166 1 is_stmt 0 view .LVU512
 1520 0000 70B5     		push	{r4, r5, r6, lr}
 1521              	.LCFI12:
 1522              		.cfi_def_cfa_offset 16
 1523              		.cfi_offset 4, -16
 1524              		.cfi_offset 5, -12
 1525              		.cfi_offset 6, -8
 1526              		.cfi_offset 14, -4
 1527 0002 0546     		mov	r5, r0
 1528 0004 0C46     		mov	r4, r1
 167:USBLIB/Core/Src/usbd_ctlreq.c ****   uint8_t idx;
 1529              		.loc 1 167 3 is_stmt 1 view .LVU513
 1530              	.LVL197:
 168:USBLIB/Core/Src/usbd_ctlreq.c **** 
 1531              		.loc 1 168 3 view .LVU514
 170:USBLIB/Core/Src/usbd_ctlreq.c ****   {
 1532              		.loc 1 170 3 view .LVU515
 170:USBLIB/Core/Src/usbd_ctlreq.c ****   {
 1533              		.loc 1 170 14 is_stmt 0 view .LVU516
 1534 0006 0B78     		ldrb	r3, [r1]	@ zero_extendqisi2
 1535 0008 03F06003 		and	r3, r3, #96
 170:USBLIB/Core/Src/usbd_ctlreq.c ****   {
 1536              		.loc 1 170 3 view .LVU517
 1537 000c 202B     		cmp	r3, #32
 1538 000e 07D0     		beq	.L120
 1539 0010 402B     		cmp	r3, #64
 1540 0012 05D0     		beq	.L120
 1541 0014 23B1     		cbz	r3, .L120
 223:USBLIB/Core/Src/usbd_ctlreq.c ****       break;
 1542              		.loc 1 223 7 is_stmt 1 view .LVU518
 1543 0016 FFF7FEFF 		bl	USBD_CtlError
 1544              	.LVL198:
 224:USBLIB/Core/Src/usbd_ctlreq.c ****   }
ARM GAS  C:\Users\Jim_YW\AppData\Local\Temp\cc86CmOl.s 			page 62


 1545              		.loc 1 224 7 view .LVU519
 167:USBLIB/Core/Src/usbd_ctlreq.c ****   uint8_t idx;
 1546              		.loc 1 167 22 is_stmt 0 view .LVU520
 1547 001a 0026     		movs	r6, #0
 1548              	.LVL199:
 1549              	.L125:
 227:USBLIB/Core/Src/usbd_ctlreq.c **** }
 1550              		.loc 1 227 3 is_stmt 1 view .LVU521
 228:USBLIB/Core/Src/usbd_ctlreq.c **** 
 1551              		.loc 1 228 1 is_stmt 0 view .LVU522
 1552 001c 3046     		mov	r0, r6
 1553 001e 70BD     		pop	{r4, r5, r6, pc}
 1554              	.LVL200:
 1555              	.L120:
 175:USBLIB/Core/Src/usbd_ctlreq.c ****       {
 1556              		.loc 1 175 7 is_stmt 1 view .LVU523
 175:USBLIB/Core/Src/usbd_ctlreq.c ****       {
 1557              		.loc 1 175 19 is_stmt 0 view .LVU524
 1558 0020 95F89C32 		ldrb	r3, [r5, #668]	@ zero_extendqisi2
 1559 0024 013B     		subs	r3, r3, #1
 1560 0026 022B     		cmp	r3, #2
 1561 0028 27D8     		bhi	.L122
 181:USBLIB/Core/Src/usbd_ctlreq.c ****           {
 1562              		.loc 1 181 11 is_stmt 1 view .LVU525
 181:USBLIB/Core/Src/usbd_ctlreq.c ****           {
 1563              		.loc 1 181 15 is_stmt 0 view .LVU526
 1564 002a 2179     		ldrb	r1, [r4, #4]	@ zero_extendqisi2
 1565              	.LVL201:
 181:USBLIB/Core/Src/usbd_ctlreq.c ****           {
 1566              		.loc 1 181 14 view .LVU527
 1567 002c 0329     		cmp	r1, #3
 1568 002e 1ED8     		bhi	.L123
 184:USBLIB/Core/Src/usbd_ctlreq.c ****             if (((uint8_t)idx != 0xFFU) && (idx < USBD_MAX_SUPPORTED_CLASS))
 1569              		.loc 1 184 13 is_stmt 1 view .LVU528
 184:USBLIB/Core/Src/usbd_ctlreq.c ****             if (((uint8_t)idx != 0xFFU) && (idx < USBD_MAX_SUPPORTED_CLASS))
 1570              		.loc 1 184 19 is_stmt 0 view .LVU529
 1571 0030 2846     		mov	r0, r5
 1572              	.LVL202:
 184:USBLIB/Core/Src/usbd_ctlreq.c ****             if (((uint8_t)idx != 0xFFU) && (idx < USBD_MAX_SUPPORTED_CLASS))
 1573              		.loc 1 184 19 view .LVU530
 1574 0032 FFF7FEFF 		bl	USBD_CoreFindIF
 1575              	.LVL203:
 185:USBLIB/Core/Src/usbd_ctlreq.c ****             {
 1576              		.loc 1 185 13 is_stmt 1 view .LVU531
 185:USBLIB/Core/Src/usbd_ctlreq.c ****             {
 1577              		.loc 1 185 16 is_stmt 0 view .LVU532
 1578 0036 0328     		cmp	r0, #3
 1579 0038 0DD8     		bhi	.L126
 188:USBLIB/Core/Src/usbd_ctlreq.c ****               {
 1580              		.loc 1 188 15 is_stmt 1 view .LVU533
 188:USBLIB/Core/Src/usbd_ctlreq.c ****               {
 1581              		.loc 1 188 31 is_stmt 0 view .LVU534
 1582 003a 00F1AE03 		add	r3, r0, #174
 1583 003e 55F82330 		ldr	r3, [r5, r3, lsl #2]
 188:USBLIB/Core/Src/usbd_ctlreq.c ****               {
 1584              		.loc 1 188 36 view .LVU535
 1585 0042 9A68     		ldr	r2, [r3, #8]
ARM GAS  C:\Users\Jim_YW\AppData\Local\Temp\cc86CmOl.s 			page 63


 188:USBLIB/Core/Src/usbd_ctlreq.c ****               {
 1586              		.loc 1 188 18 view .LVU536
 1587 0044 8AB1     		cbz	r2, .L127
 190:USBLIB/Core/Src/usbd_ctlreq.c ****                 ret = (USBD_StatusTypeDef)(pdev->pClass[idx]->Setup(pdev, req));
 1588              		.loc 1 190 17 is_stmt 1 view .LVU537
 190:USBLIB/Core/Src/usbd_ctlreq.c ****                 ret = (USBD_StatusTypeDef)(pdev->pClass[idx]->Setup(pdev, req));
 1589              		.loc 1 190 31 is_stmt 0 view .LVU538
 1590 0046 C5F8F802 		str	r0, [r5, #760]
 191:USBLIB/Core/Src/usbd_ctlreq.c ****               }
 1591              		.loc 1 191 17 is_stmt 1 view .LVU539
 191:USBLIB/Core/Src/usbd_ctlreq.c ****               }
 1592              		.loc 1 191 61 is_stmt 0 view .LVU540
 1593 004a 9B68     		ldr	r3, [r3, #8]
 191:USBLIB/Core/Src/usbd_ctlreq.c ****               }
 1594              		.loc 1 191 44 view .LVU541
 1595 004c 2146     		mov	r1, r4
 1596 004e 2846     		mov	r0, r5
 1597              	.LVL204:
 191:USBLIB/Core/Src/usbd_ctlreq.c ****               }
 1598              		.loc 1 191 44 view .LVU542
 1599 0050 9847     		blx	r3
 1600              	.LVL205:
 1601 0052 0646     		mov	r6, r0
 1602              	.LVL206:
 191:USBLIB/Core/Src/usbd_ctlreq.c ****               }
 1603              		.loc 1 191 44 view .LVU543
 1604 0054 00E0     		b	.L124
 1605              	.LVL207:
 1606              	.L126:
 202:USBLIB/Core/Src/usbd_ctlreq.c ****             }
 1607              		.loc 1 202 19 view .LVU544
 1608 0056 0326     		movs	r6, #3
 1609              	.LVL208:
 1610              	.L124:
 205:USBLIB/Core/Src/usbd_ctlreq.c ****             {
 1611              		.loc 1 205 13 is_stmt 1 view .LVU545
 205:USBLIB/Core/Src/usbd_ctlreq.c ****             {
 1612              		.loc 1 205 21 is_stmt 0 view .LVU546
 1613 0058 E388     		ldrh	r3, [r4, #6]
 205:USBLIB/Core/Src/usbd_ctlreq.c ****             {
 1614              		.loc 1 205 16 view .LVU547
 1615 005a 002B     		cmp	r3, #0
 1616 005c DED1     		bne	.L125
 205:USBLIB/Core/Src/usbd_ctlreq.c ****             {
 1617              		.loc 1 205 38 discriminator 1 view .LVU548
 1618 005e 002E     		cmp	r6, #0
 1619 0060 DCD1     		bne	.L125
 207:USBLIB/Core/Src/usbd_ctlreq.c ****             }
 1620              		.loc 1 207 15 is_stmt 1 view .LVU549
 207:USBLIB/Core/Src/usbd_ctlreq.c ****             }
 1621              		.loc 1 207 21 is_stmt 0 view .LVU550
 1622 0062 2846     		mov	r0, r5
 1623 0064 FFF7FEFF 		bl	USBD_CtlSendStatus
 1624              	.LVL209:
 1625 0068 D8E7     		b	.L125
 1626              	.LVL210:
 1627              	.L127:
ARM GAS  C:\Users\Jim_YW\AppData\Local\Temp\cc86CmOl.s 			page 64


 196:USBLIB/Core/Src/usbd_ctlreq.c ****               }
 1628              		.loc 1 196 21 view .LVU551
 1629 006a 0326     		movs	r6, #3
 1630 006c F4E7     		b	.L124
 1631              	.LVL211:
 1632              	.L123:
 212:USBLIB/Core/Src/usbd_ctlreq.c ****           }
 1633              		.loc 1 212 13 is_stmt 1 view .LVU552
 1634 006e 2146     		mov	r1, r4
 1635 0070 2846     		mov	r0, r5
 1636              	.LVL212:
 212:USBLIB/Core/Src/usbd_ctlreq.c ****           }
 1637              		.loc 1 212 13 is_stmt 0 view .LVU553
 1638 0072 FFF7FEFF 		bl	USBD_CtlError
 1639              	.LVL213:
 167:USBLIB/Core/Src/usbd_ctlreq.c ****   uint8_t idx;
 1640              		.loc 1 167 22 view .LVU554
 1641 0076 0026     		movs	r6, #0
 1642 0078 D0E7     		b	.L125
 1643              	.LVL214:
 1644              	.L122:
 217:USBLIB/Core/Src/usbd_ctlreq.c ****           break;
 1645              		.loc 1 217 11 is_stmt 1 view .LVU555
 1646 007a 2146     		mov	r1, r4
 1647              	.LVL215:
 217:USBLIB/Core/Src/usbd_ctlreq.c ****           break;
 1648              		.loc 1 217 11 is_stmt 0 view .LVU556
 1649 007c 2846     		mov	r0, r5
 1650              	.LVL216:
 217:USBLIB/Core/Src/usbd_ctlreq.c ****           break;
 1651              		.loc 1 217 11 view .LVU557
 1652 007e FFF7FEFF 		bl	USBD_CtlError
 1653              	.LVL217:
 218:USBLIB/Core/Src/usbd_ctlreq.c ****       }
 1654              		.loc 1 218 11 is_stmt 1 view .LVU558
 167:USBLIB/Core/Src/usbd_ctlreq.c ****   uint8_t idx;
 1655              		.loc 1 167 22 is_stmt 0 view .LVU559
 1656 0082 0026     		movs	r6, #0
 218:USBLIB/Core/Src/usbd_ctlreq.c ****       }
 1657              		.loc 1 218 11 view .LVU560
 1658 0084 CAE7     		b	.L125
 1659              		.cfi_endproc
 1660              	.LFE135:
 1662              		.section	.text.USBD_StdEPReq,"ax",%progbits
 1663              		.align	1
 1664              		.global	USBD_StdEPReq
 1665              		.syntax unified
 1666              		.thumb
 1667              		.thumb_func
 1669              	USBD_StdEPReq:
 1670              	.LVL218:
 1671              	.LFB136:
 238:USBLIB/Core/Src/usbd_ctlreq.c ****   USBD_EndpointTypeDef *pep;
 1672              		.loc 1 238 1 is_stmt 1 view -0
 1673              		.cfi_startproc
 1674              		@ args = 0, pretend = 0, frame = 0
 1675              		@ frame_needed = 0, uses_anonymous_args = 0
ARM GAS  C:\Users\Jim_YW\AppData\Local\Temp\cc86CmOl.s 			page 65


 238:USBLIB/Core/Src/usbd_ctlreq.c ****   USBD_EndpointTypeDef *pep;
 1676              		.loc 1 238 1 is_stmt 0 view .LVU562
 1677 0000 2DE9F041 		push	{r4, r5, r6, r7, r8, lr}
 1678              	.LCFI13:
 1679              		.cfi_def_cfa_offset 24
 1680              		.cfi_offset 4, -24
 1681              		.cfi_offset 5, -20
 1682              		.cfi_offset 6, -16
 1683              		.cfi_offset 7, -12
 1684              		.cfi_offset 8, -8
 1685              		.cfi_offset 14, -4
 1686 0004 0646     		mov	r6, r0
 1687 0006 0D46     		mov	r5, r1
 239:USBLIB/Core/Src/usbd_ctlreq.c ****   uint8_t ep_addr;
 1688              		.loc 1 239 3 is_stmt 1 view .LVU563
 240:USBLIB/Core/Src/usbd_ctlreq.c ****   uint8_t idx;
 1689              		.loc 1 240 3 view .LVU564
 241:USBLIB/Core/Src/usbd_ctlreq.c ****   USBD_StatusTypeDef ret = USBD_OK;
 1690              		.loc 1 241 3 view .LVU565
 242:USBLIB/Core/Src/usbd_ctlreq.c **** 
 1691              		.loc 1 242 3 view .LVU566
 1692              	.LVL219:
 244:USBLIB/Core/Src/usbd_ctlreq.c **** 
 1693              		.loc 1 244 3 view .LVU567
 244:USBLIB/Core/Src/usbd_ctlreq.c **** 
 1694              		.loc 1 244 13 is_stmt 0 view .LVU568
 1695 0008 8B88     		ldrh	r3, [r1, #4]
 244:USBLIB/Core/Src/usbd_ctlreq.c **** 
 1696              		.loc 1 244 11 view .LVU569
 1697 000a DFB2     		uxtb	r7, r3
 1698              	.LVL220:
 246:USBLIB/Core/Src/usbd_ctlreq.c ****   {
 1699              		.loc 1 246 3 is_stmt 1 view .LVU570
 246:USBLIB/Core/Src/usbd_ctlreq.c ****   {
 1700              		.loc 1 246 14 is_stmt 0 view .LVU571
 1701 000c 0C78     		ldrb	r4, [r1]	@ zero_extendqisi2
 1702 000e 04F06004 		and	r4, r4, #96
 246:USBLIB/Core/Src/usbd_ctlreq.c ****   {
 1703              		.loc 1 246 3 view .LVU572
 1704 0012 202C     		cmp	r4, #32
 1705 0014 08D0     		beq	.L130
 1706 0016 402C     		cmp	r4, #64
 1707 0018 06D0     		beq	.L130
 1708 001a D4B1     		cbz	r4, .L170
 411:USBLIB/Core/Src/usbd_ctlreq.c ****       break;
 1709              		.loc 1 411 7 is_stmt 1 view .LVU573
 1710 001c FFF7FEFF 		bl	USBD_CtlError
 1711              	.LVL221:
 412:USBLIB/Core/Src/usbd_ctlreq.c ****   }
 1712              		.loc 1 412 7 view .LVU574
 242:USBLIB/Core/Src/usbd_ctlreq.c **** 
 1713              		.loc 1 242 22 is_stmt 0 view .LVU575
 1714 0020 0024     		movs	r4, #0
 1715              	.LVL222:
 1716              	.L133:
 415:USBLIB/Core/Src/usbd_ctlreq.c **** }
 1717              		.loc 1 415 3 is_stmt 1 view .LVU576
ARM GAS  C:\Users\Jim_YW\AppData\Local\Temp\cc86CmOl.s 			page 66


 416:USBLIB/Core/Src/usbd_ctlreq.c **** 
 1718              		.loc 1 416 1 is_stmt 0 view .LVU577
 1719 0022 2046     		mov	r0, r4
 1720 0024 BDE8F081 		pop	{r4, r5, r6, r7, r8, pc}
 1721              	.LVL223:
 1722              	.L130:
 251:USBLIB/Core/Src/usbd_ctlreq.c ****       if (((uint8_t)idx != 0xFFU) && (idx < USBD_MAX_SUPPORTED_CLASS))
 1723              		.loc 1 251 7 is_stmt 1 view .LVU578
 251:USBLIB/Core/Src/usbd_ctlreq.c ****       if (((uint8_t)idx != 0xFFU) && (idx < USBD_MAX_SUPPORTED_CLASS))
 1724              		.loc 1 251 13 is_stmt 0 view .LVU579
 1725 0028 3946     		mov	r1, r7
 1726              	.LVL224:
 251:USBLIB/Core/Src/usbd_ctlreq.c ****       if (((uint8_t)idx != 0xFFU) && (idx < USBD_MAX_SUPPORTED_CLASS))
 1727              		.loc 1 251 13 view .LVU580
 1728 002a 3046     		mov	r0, r6
 1729              	.LVL225:
 251:USBLIB/Core/Src/usbd_ctlreq.c ****       if (((uint8_t)idx != 0xFFU) && (idx < USBD_MAX_SUPPORTED_CLASS))
 1730              		.loc 1 251 13 view .LVU581
 1731 002c FFF7FEFF 		bl	USBD_CoreFindEP
 1732              	.LVL226:
 252:USBLIB/Core/Src/usbd_ctlreq.c ****       {
 1733              		.loc 1 252 7 is_stmt 1 view .LVU582
 252:USBLIB/Core/Src/usbd_ctlreq.c ****       {
 1734              		.loc 1 252 10 is_stmt 0 view .LVU583
 1735 0030 0328     		cmp	r0, #3
 1736 0032 00F2F780 		bhi	.L162
