ARM GAS  C:\Users\Jim_YW\AppData\Local\Temp\ccU6FWQK.s 			page 1


   1              		.cpu cortex-m4
   2              		.arch armv7e-m
   3              		.fpu fpv4-sp-d16
   4              		.eabi_attribute 27, 1
   5              		.eabi_attribute 28, 1
   6              		.eabi_attribute 20, 1
   7              		.eabi_attribute 21, 1
   8              		.eabi_attribute 23, 3
   9              		.eabi_attribute 24, 1
  10              		.eabi_attribute 25, 1
  11              		.eabi_attribute 26, 1
  12              		.eabi_attribute 30, 1
  13              		.eabi_attribute 34, 1
  14              		.eabi_attribute 18, 4
  15              		.file	"usbd_cdc_if_template.c"
  16              		.text
  17              	.Ltext0:
  18              		.cfi_sections	.debug_frame
  19              		.section	.text.TEMPLATE_Init,"ax",%progbits
  20              		.align	1
  21              		.syntax unified
  22              		.thumb
  23              		.thumb_func
  25              	TEMPLATE_Init:
  26              	.LFB134:
  27              		.file 1 "USBLIB/Class/CDC/Src/usbd_cdc_if_template.c"
   1:USBLIB/Class/CDC/Src/usbd_cdc_if_template.c **** /**
   2:USBLIB/Class/CDC/Src/usbd_cdc_if_template.c ****   ******************************************************************************
   3:USBLIB/Class/CDC/Src/usbd_cdc_if_template.c ****   * @file    usbd_cdc_if_template.c
   4:USBLIB/Class/CDC/Src/usbd_cdc_if_template.c ****   * @author  MCD Application Team
   5:USBLIB/Class/CDC/Src/usbd_cdc_if_template.c ****   * @brief   Generic media access Layer.
   6:USBLIB/Class/CDC/Src/usbd_cdc_if_template.c ****   ******************************************************************************
   7:USBLIB/Class/CDC/Src/usbd_cdc_if_template.c ****   * @attention
   8:USBLIB/Class/CDC/Src/usbd_cdc_if_template.c ****   *
   9:USBLIB/Class/CDC/Src/usbd_cdc_if_template.c ****   * Copyright (c) 2015 STMicroelectronics.
  10:USBLIB/Class/CDC/Src/usbd_cdc_if_template.c ****   * All rights reserved.
  11:USBLIB/Class/CDC/Src/usbd_cdc_if_template.c ****   *
  12:USBLIB/Class/CDC/Src/usbd_cdc_if_template.c ****   * This software is licensed under terms that can be found in the LICENSE file
  13:USBLIB/Class/CDC/Src/usbd_cdc_if_template.c ****   * in the root directory of this software component.
  14:USBLIB/Class/CDC/Src/usbd_cdc_if_template.c ****   * If no LICENSE file comes with this software, it is provided AS-IS.
  15:USBLIB/Class/CDC/Src/usbd_cdc_if_template.c ****   *
  16:USBLIB/Class/CDC/Src/usbd_cdc_if_template.c ****   ******************************************************************************
  17:USBLIB/Class/CDC/Src/usbd_cdc_if_template.c ****   */
  18:USBLIB/Class/CDC/Src/usbd_cdc_if_template.c **** 
  19:USBLIB/Class/CDC/Src/usbd_cdc_if_template.c **** /* BSPDependencies
  20:USBLIB/Class/CDC/Src/usbd_cdc_if_template.c **** - "stm32xxxxx_{eval}{discovery}{nucleo_144}.c"
  21:USBLIB/Class/CDC/Src/usbd_cdc_if_template.c **** - "stm32xxxxx_{eval}{discovery}_io.c"
  22:USBLIB/Class/CDC/Src/usbd_cdc_if_template.c **** EndBSPDependencies */
  23:USBLIB/Class/CDC/Src/usbd_cdc_if_template.c **** 
  24:USBLIB/Class/CDC/Src/usbd_cdc_if_template.c **** /* Includes ------------------------------------------------------------------*/
  25:USBLIB/Class/CDC/Src/usbd_cdc_if_template.c **** #include "usbd_cdc_if_template.h"
  26:USBLIB/Class/CDC/Src/usbd_cdc_if_template.c **** 
  27:USBLIB/Class/CDC/Src/usbd_cdc_if_template.c **** /** @addtogroup STM32_USB_DEVICE_LIBRARY
  28:USBLIB/Class/CDC/Src/usbd_cdc_if_template.c ****   * @{
  29:USBLIB/Class/CDC/Src/usbd_cdc_if_template.c ****   */
  30:USBLIB/Class/CDC/Src/usbd_cdc_if_template.c **** 
  31:USBLIB/Class/CDC/Src/usbd_cdc_if_template.c **** 
ARM GAS  C:\Users\Jim_YW\AppData\Local\Temp\ccU6FWQK.s 			page 2


  32:USBLIB/Class/CDC/Src/usbd_cdc_if_template.c **** /** @defgroup USBD_CDC
  33:USBLIB/Class/CDC/Src/usbd_cdc_if_template.c ****   * @brief usbd core module
  34:USBLIB/Class/CDC/Src/usbd_cdc_if_template.c ****   * @{
  35:USBLIB/Class/CDC/Src/usbd_cdc_if_template.c ****   */
  36:USBLIB/Class/CDC/Src/usbd_cdc_if_template.c **** 
  37:USBLIB/Class/CDC/Src/usbd_cdc_if_template.c **** /** @defgroup USBD_CDC_Private_TypesDefinitions
  38:USBLIB/Class/CDC/Src/usbd_cdc_if_template.c ****   * @{
  39:USBLIB/Class/CDC/Src/usbd_cdc_if_template.c ****   */
  40:USBLIB/Class/CDC/Src/usbd_cdc_if_template.c **** /**
  41:USBLIB/Class/CDC/Src/usbd_cdc_if_template.c ****   * @}
  42:USBLIB/Class/CDC/Src/usbd_cdc_if_template.c ****   */
  43:USBLIB/Class/CDC/Src/usbd_cdc_if_template.c **** 
  44:USBLIB/Class/CDC/Src/usbd_cdc_if_template.c **** 
  45:USBLIB/Class/CDC/Src/usbd_cdc_if_template.c **** /** @defgroup USBD_CDC_Private_Defines
  46:USBLIB/Class/CDC/Src/usbd_cdc_if_template.c ****   * @{
  47:USBLIB/Class/CDC/Src/usbd_cdc_if_template.c ****   */
  48:USBLIB/Class/CDC/Src/usbd_cdc_if_template.c **** /**
  49:USBLIB/Class/CDC/Src/usbd_cdc_if_template.c ****   * @}
  50:USBLIB/Class/CDC/Src/usbd_cdc_if_template.c ****   */
  51:USBLIB/Class/CDC/Src/usbd_cdc_if_template.c **** 
  52:USBLIB/Class/CDC/Src/usbd_cdc_if_template.c **** 
  53:USBLIB/Class/CDC/Src/usbd_cdc_if_template.c **** /** @defgroup USBD_CDC_Private_Macros
  54:USBLIB/Class/CDC/Src/usbd_cdc_if_template.c ****   * @{
  55:USBLIB/Class/CDC/Src/usbd_cdc_if_template.c ****   */
  56:USBLIB/Class/CDC/Src/usbd_cdc_if_template.c **** 
  57:USBLIB/Class/CDC/Src/usbd_cdc_if_template.c **** /**
  58:USBLIB/Class/CDC/Src/usbd_cdc_if_template.c ****   * @}
  59:USBLIB/Class/CDC/Src/usbd_cdc_if_template.c ****   */
  60:USBLIB/Class/CDC/Src/usbd_cdc_if_template.c **** 
  61:USBLIB/Class/CDC/Src/usbd_cdc_if_template.c **** 
  62:USBLIB/Class/CDC/Src/usbd_cdc_if_template.c **** /** @defgroup USBD_CDC_Private_FunctionPrototypes
  63:USBLIB/Class/CDC/Src/usbd_cdc_if_template.c ****   * @{
  64:USBLIB/Class/CDC/Src/usbd_cdc_if_template.c ****   */
  65:USBLIB/Class/CDC/Src/usbd_cdc_if_template.c **** 
  66:USBLIB/Class/CDC/Src/usbd_cdc_if_template.c **** static int8_t TEMPLATE_Init(void);
  67:USBLIB/Class/CDC/Src/usbd_cdc_if_template.c **** static int8_t TEMPLATE_DeInit(void);
  68:USBLIB/Class/CDC/Src/usbd_cdc_if_template.c **** static int8_t TEMPLATE_Control(uint8_t cmd, uint8_t *pbuf, uint16_t length);
  69:USBLIB/Class/CDC/Src/usbd_cdc_if_template.c **** static int8_t TEMPLATE_Receive(uint8_t *pbuf, uint32_t *Len);
  70:USBLIB/Class/CDC/Src/usbd_cdc_if_template.c **** static int8_t TEMPLATE_TransmitCplt(uint8_t *pbuf, uint32_t *Len, uint8_t epnum);
  71:USBLIB/Class/CDC/Src/usbd_cdc_if_template.c **** 
  72:USBLIB/Class/CDC/Src/usbd_cdc_if_template.c **** USBD_CDC_ItfTypeDef USBD_CDC_Template_fops =
  73:USBLIB/Class/CDC/Src/usbd_cdc_if_template.c **** {
  74:USBLIB/Class/CDC/Src/usbd_cdc_if_template.c ****   TEMPLATE_Init,
  75:USBLIB/Class/CDC/Src/usbd_cdc_if_template.c ****   TEMPLATE_DeInit,
  76:USBLIB/Class/CDC/Src/usbd_cdc_if_template.c ****   TEMPLATE_Control,
  77:USBLIB/Class/CDC/Src/usbd_cdc_if_template.c ****   TEMPLATE_Receive,
  78:USBLIB/Class/CDC/Src/usbd_cdc_if_template.c ****   TEMPLATE_TransmitCplt
  79:USBLIB/Class/CDC/Src/usbd_cdc_if_template.c **** };
  80:USBLIB/Class/CDC/Src/usbd_cdc_if_template.c **** 
  81:USBLIB/Class/CDC/Src/usbd_cdc_if_template.c **** USBD_CDC_LineCodingTypeDef linecoding =
  82:USBLIB/Class/CDC/Src/usbd_cdc_if_template.c **** {
  83:USBLIB/Class/CDC/Src/usbd_cdc_if_template.c ****   115200, /* baud rate*/
  84:USBLIB/Class/CDC/Src/usbd_cdc_if_template.c ****   0x00,   /* stop bits-1*/
  85:USBLIB/Class/CDC/Src/usbd_cdc_if_template.c ****   0x00,   /* parity - none*/
  86:USBLIB/Class/CDC/Src/usbd_cdc_if_template.c ****   0x08    /* nb. of bits 8*/
  87:USBLIB/Class/CDC/Src/usbd_cdc_if_template.c **** };
  88:USBLIB/Class/CDC/Src/usbd_cdc_if_template.c **** 
ARM GAS  C:\Users\Jim_YW\AppData\Local\Temp\ccU6FWQK.s 			page 3


  89:USBLIB/Class/CDC/Src/usbd_cdc_if_template.c **** /* Private functions ---------------------------------------------------------*/
  90:USBLIB/Class/CDC/Src/usbd_cdc_if_template.c **** 
  91:USBLIB/Class/CDC/Src/usbd_cdc_if_template.c **** /**
  92:USBLIB/Class/CDC/Src/usbd_cdc_if_template.c ****   * @brief  TEMPLATE_Init
  93:USBLIB/Class/CDC/Src/usbd_cdc_if_template.c ****   *         Initializes the CDC media low layer
  94:USBLIB/Class/CDC/Src/usbd_cdc_if_template.c ****   * @param  None
  95:USBLIB/Class/CDC/Src/usbd_cdc_if_template.c ****   * @retval Result of the operation: USBD_OK if all operations are OK else USBD_FAIL
  96:USBLIB/Class/CDC/Src/usbd_cdc_if_template.c ****   */
  97:USBLIB/Class/CDC/Src/usbd_cdc_if_template.c **** static int8_t TEMPLATE_Init(void)
  98:USBLIB/Class/CDC/Src/usbd_cdc_if_template.c **** {
  28              		.loc 1 98 1 view -0
  29              		.cfi_startproc
  30              		@ args = 0, pretend = 0, frame = 0
  31              		@ frame_needed = 0, uses_anonymous_args = 0
  32              		@ link register save eliminated.
  99:USBLIB/Class/CDC/Src/usbd_cdc_if_template.c ****   /*
 100:USBLIB/Class/CDC/Src/usbd_cdc_if_template.c ****      Add your initialization code here
 101:USBLIB/Class/CDC/Src/usbd_cdc_if_template.c ****   */
 102:USBLIB/Class/CDC/Src/usbd_cdc_if_template.c ****   return (0);
  33              		.loc 1 102 3 view .LVU1
 103:USBLIB/Class/CDC/Src/usbd_cdc_if_template.c **** }
  34              		.loc 1 103 1 is_stmt 0 view .LVU2
  35 0000 0020     		movs	r0, #0
  36 0002 7047     		bx	lr
  37              		.cfi_endproc
  38              	.LFE134:
  40              		.section	.text.TEMPLATE_DeInit,"ax",%progbits
  41              		.align	1
  42              		.syntax unified
  43              		.thumb
  44              		.thumb_func
  46              	TEMPLATE_DeInit:
  47              	.LFB135:
 104:USBLIB/Class/CDC/Src/usbd_cdc_if_template.c **** 
 105:USBLIB/Class/CDC/Src/usbd_cdc_if_template.c **** /**
 106:USBLIB/Class/CDC/Src/usbd_cdc_if_template.c ****   * @brief  TEMPLATE_DeInit
 107:USBLIB/Class/CDC/Src/usbd_cdc_if_template.c ****   *         DeInitializes the CDC media low layer
 108:USBLIB/Class/CDC/Src/usbd_cdc_if_template.c ****   * @param  None
 109:USBLIB/Class/CDC/Src/usbd_cdc_if_template.c ****   * @retval Result of the operation: USBD_OK if all operations are OK else USBD_FAIL
 110:USBLIB/Class/CDC/Src/usbd_cdc_if_template.c ****   */
 111:USBLIB/Class/CDC/Src/usbd_cdc_if_template.c **** static int8_t TEMPLATE_DeInit(void)
 112:USBLIB/Class/CDC/Src/usbd_cdc_if_template.c **** {
  48              		.loc 1 112 1 is_stmt 1 view -0
  49              		.cfi_startproc
  50              		@ args = 0, pretend = 0, frame = 0
  51              		@ frame_needed = 0, uses_anonymous_args = 0
  52              		@ link register save eliminated.
 113:USBLIB/Class/CDC/Src/usbd_cdc_if_template.c ****   /*
 114:USBLIB/Class/CDC/Src/usbd_cdc_if_template.c ****      Add your deinitialization code here
 115:USBLIB/Class/CDC/Src/usbd_cdc_if_template.c ****   */
 116:USBLIB/Class/CDC/Src/usbd_cdc_if_template.c ****   return (0);
  53              		.loc 1 116 3 view .LVU4
 117:USBLIB/Class/CDC/Src/usbd_cdc_if_template.c **** }
  54              		.loc 1 117 1 is_stmt 0 view .LVU5
  55 0000 0020     		movs	r0, #0
  56 0002 7047     		bx	lr
  57              		.cfi_endproc
ARM GAS  C:\Users\Jim_YW\AppData\Local\Temp\ccU6FWQK.s 			page 4


  58              	.LFE135:
  60              		.section	.text.TEMPLATE_Control,"ax",%progbits
  61              		.align	1
  62              		.syntax unified
  63              		.thumb
  64              		.thumb_func
  66              	TEMPLATE_Control:
  67              	.LVL0:
  68              	.LFB136:
 118:USBLIB/Class/CDC/Src/usbd_cdc_if_template.c **** 
 119:USBLIB/Class/CDC/Src/usbd_cdc_if_template.c **** 
 120:USBLIB/Class/CDC/Src/usbd_cdc_if_template.c **** /**
 121:USBLIB/Class/CDC/Src/usbd_cdc_if_template.c ****   * @brief  TEMPLATE_Control
 122:USBLIB/Class/CDC/Src/usbd_cdc_if_template.c ****   *         Manage the CDC class requests
 123:USBLIB/Class/CDC/Src/usbd_cdc_if_template.c ****   * @param  Cmd: Command code
 124:USBLIB/Class/CDC/Src/usbd_cdc_if_template.c ****   * @param  Buf: Buffer containing command data (request parameters)
 125:USBLIB/Class/CDC/Src/usbd_cdc_if_template.c ****   * @param  Len: Number of data to be sent (in bytes)
 126:USBLIB/Class/CDC/Src/usbd_cdc_if_template.c ****   * @retval Result of the operation: USBD_OK if all operations are OK else USBD_FAIL
 127:USBLIB/Class/CDC/Src/usbd_cdc_if_template.c ****   */
 128:USBLIB/Class/CDC/Src/usbd_cdc_if_template.c **** static int8_t TEMPLATE_Control(uint8_t cmd, uint8_t *pbuf, uint16_t length)
 129:USBLIB/Class/CDC/Src/usbd_cdc_if_template.c **** {
  69              		.loc 1 129 1 is_stmt 1 view -0
  70              		.cfi_startproc
  71              		@ args = 0, pretend = 0, frame = 0
  72              		@ frame_needed = 0, uses_anonymous_args = 0
  73              		@ link register save eliminated.
 130:USBLIB/Class/CDC/Src/usbd_cdc_if_template.c ****   UNUSED(length);
  74              		.loc 1 130 3 view .LVU7
 131:USBLIB/Class/CDC/Src/usbd_cdc_if_template.c **** 
 132:USBLIB/Class/CDC/Src/usbd_cdc_if_template.c ****   switch (cmd)
  75              		.loc 1 132 3 view .LVU8
  76 0000 2028     		cmp	r0, #32
  77 0002 03D0     		beq	.L4
  78 0004 2128     		cmp	r0, #33
  79 0006 14D0     		beq	.L5
  80              	.LVL1:
  81              	.L6:
 133:USBLIB/Class/CDC/Src/usbd_cdc_if_template.c ****   {
 134:USBLIB/Class/CDC/Src/usbd_cdc_if_template.c ****     case CDC_SEND_ENCAPSULATED_COMMAND:
 135:USBLIB/Class/CDC/Src/usbd_cdc_if_template.c ****       /* Add your code here */
 136:USBLIB/Class/CDC/Src/usbd_cdc_if_template.c ****       break;
 137:USBLIB/Class/CDC/Src/usbd_cdc_if_template.c **** 
 138:USBLIB/Class/CDC/Src/usbd_cdc_if_template.c ****     case CDC_GET_ENCAPSULATED_RESPONSE:
 139:USBLIB/Class/CDC/Src/usbd_cdc_if_template.c ****       /* Add your code here */
 140:USBLIB/Class/CDC/Src/usbd_cdc_if_template.c ****       break;
 141:USBLIB/Class/CDC/Src/usbd_cdc_if_template.c **** 
 142:USBLIB/Class/CDC/Src/usbd_cdc_if_template.c ****     case CDC_SET_COMM_FEATURE:
 143:USBLIB/Class/CDC/Src/usbd_cdc_if_template.c ****       /* Add your code here */
 144:USBLIB/Class/CDC/Src/usbd_cdc_if_template.c ****       break;
 145:USBLIB/Class/CDC/Src/usbd_cdc_if_template.c **** 
 146:USBLIB/Class/CDC/Src/usbd_cdc_if_template.c ****     case CDC_GET_COMM_FEATURE:
 147:USBLIB/Class/CDC/Src/usbd_cdc_if_template.c ****       /* Add your code here */
 148:USBLIB/Class/CDC/Src/usbd_cdc_if_template.c ****       break;
 149:USBLIB/Class/CDC/Src/usbd_cdc_if_template.c **** 
 150:USBLIB/Class/CDC/Src/usbd_cdc_if_template.c ****     case CDC_CLEAR_COMM_FEATURE:
 151:USBLIB/Class/CDC/Src/usbd_cdc_if_template.c ****       /* Add your code here */
 152:USBLIB/Class/CDC/Src/usbd_cdc_if_template.c ****       break;
ARM GAS  C:\Users\Jim_YW\AppData\Local\Temp\ccU6FWQK.s 			page 5


 153:USBLIB/Class/CDC/Src/usbd_cdc_if_template.c **** 
 154:USBLIB/Class/CDC/Src/usbd_cdc_if_template.c ****     case CDC_SET_LINE_CODING:
 155:USBLIB/Class/CDC/Src/usbd_cdc_if_template.c ****       linecoding.bitrate    = (uint32_t)(pbuf[0] | (pbuf[1] << 8) | \
 156:USBLIB/Class/CDC/Src/usbd_cdc_if_template.c ****                                          (pbuf[2] << 16) | (pbuf[3] << 24));
 157:USBLIB/Class/CDC/Src/usbd_cdc_if_template.c ****       linecoding.format     = pbuf[4];
 158:USBLIB/Class/CDC/Src/usbd_cdc_if_template.c ****       linecoding.paritytype = pbuf[5];
 159:USBLIB/Class/CDC/Src/usbd_cdc_if_template.c ****       linecoding.datatype   = pbuf[6];
 160:USBLIB/Class/CDC/Src/usbd_cdc_if_template.c **** 
 161:USBLIB/Class/CDC/Src/usbd_cdc_if_template.c ****       /* Add your code here */
 162:USBLIB/Class/CDC/Src/usbd_cdc_if_template.c ****       break;
 163:USBLIB/Class/CDC/Src/usbd_cdc_if_template.c **** 
 164:USBLIB/Class/CDC/Src/usbd_cdc_if_template.c ****     case CDC_GET_LINE_CODING:
 165:USBLIB/Class/CDC/Src/usbd_cdc_if_template.c ****       pbuf[0] = (uint8_t)(linecoding.bitrate);
 166:USBLIB/Class/CDC/Src/usbd_cdc_if_template.c ****       pbuf[1] = (uint8_t)(linecoding.bitrate >> 8);
 167:USBLIB/Class/CDC/Src/usbd_cdc_if_template.c ****       pbuf[2] = (uint8_t)(linecoding.bitrate >> 16);
 168:USBLIB/Class/CDC/Src/usbd_cdc_if_template.c ****       pbuf[3] = (uint8_t)(linecoding.bitrate >> 24);
 169:USBLIB/Class/CDC/Src/usbd_cdc_if_template.c ****       pbuf[4] = linecoding.format;
 170:USBLIB/Class/CDC/Src/usbd_cdc_if_template.c ****       pbuf[5] = linecoding.paritytype;
 171:USBLIB/Class/CDC/Src/usbd_cdc_if_template.c ****       pbuf[6] = linecoding.datatype;
 172:USBLIB/Class/CDC/Src/usbd_cdc_if_template.c **** 
 173:USBLIB/Class/CDC/Src/usbd_cdc_if_template.c ****       /* Add your code here */
 174:USBLIB/Class/CDC/Src/usbd_cdc_if_template.c ****       break;
 175:USBLIB/Class/CDC/Src/usbd_cdc_if_template.c **** 
 176:USBLIB/Class/CDC/Src/usbd_cdc_if_template.c ****     case CDC_SET_CONTROL_LINE_STATE:
 177:USBLIB/Class/CDC/Src/usbd_cdc_if_template.c ****       /* Add your code here */
 178:USBLIB/Class/CDC/Src/usbd_cdc_if_template.c ****       break;
 179:USBLIB/Class/CDC/Src/usbd_cdc_if_template.c **** 
 180:USBLIB/Class/CDC/Src/usbd_cdc_if_template.c ****     case CDC_SEND_BREAK:
 181:USBLIB/Class/CDC/Src/usbd_cdc_if_template.c ****       /* Add your code here */
 182:USBLIB/Class/CDC/Src/usbd_cdc_if_template.c ****       break;
 183:USBLIB/Class/CDC/Src/usbd_cdc_if_template.c **** 
 184:USBLIB/Class/CDC/Src/usbd_cdc_if_template.c ****     default:
 185:USBLIB/Class/CDC/Src/usbd_cdc_if_template.c ****       break;
 186:USBLIB/Class/CDC/Src/usbd_cdc_if_template.c ****   }
 187:USBLIB/Class/CDC/Src/usbd_cdc_if_template.c **** 
 188:USBLIB/Class/CDC/Src/usbd_cdc_if_template.c ****   return (0);
  82              		.loc 1 188 3 view .LVU9
 189:USBLIB/Class/CDC/Src/usbd_cdc_if_template.c **** }
  83              		.loc 1 189 1 is_stmt 0 view .LVU10
  84 0008 0020     		movs	r0, #0
  85              	.LVL2:
  86              		.loc 1 189 1 view .LVU11
  87 000a 7047     		bx	lr
  88              	.LVL3:
  89              	.L4:
 155:USBLIB/Class/CDC/Src/usbd_cdc_if_template.c ****                                          (pbuf[2] << 16) | (pbuf[3] << 24));
  90              		.loc 1 155 7 is_stmt 1 view .LVU12
 155:USBLIB/Class/CDC/Src/usbd_cdc_if_template.c ****                                          (pbuf[2] << 16) | (pbuf[3] << 24));
  91              		.loc 1 155 46 is_stmt 0 view .LVU13
  92 000c 0B78     		ldrb	r3, [r1]	@ zero_extendqisi2
 155:USBLIB/Class/CDC/Src/usbd_cdc_if_template.c ****                                          (pbuf[2] << 16) | (pbuf[3] << 24));
  93              		.loc 1 155 57 view .LVU14
  94 000e 4A78     		ldrb	r2, [r1, #1]	@ zero_extendqisi2
  95              	.LVL4:
 155:USBLIB/Class/CDC/Src/usbd_cdc_if_template.c ****                                          (pbuf[2] << 16) | (pbuf[3] << 24));
  96              		.loc 1 155 50 view .LVU15
  97 0010 43EA0223 		orr	r3, r3, r2, lsl #8
ARM GAS  C:\Users\Jim_YW\AppData\Local\Temp\ccU6FWQK.s 			page 6


 156:USBLIB/Class/CDC/Src/usbd_cdc_if_template.c ****       linecoding.format     = pbuf[4];
  98              		.loc 1 156 47 view .LVU16
  99 0014 8A78     		ldrb	r2, [r1, #2]	@ zero_extendqisi2
 155:USBLIB/Class/CDC/Src/usbd_cdc_if_template.c ****                                          (pbuf[2] << 16) | (pbuf[3] << 24));
 100              		.loc 1 155 67 view .LVU17
 101 0016 43EA0243 		orr	r3, r3, r2, lsl #16
 156:USBLIB/Class/CDC/Src/usbd_cdc_if_template.c ****       linecoding.format     = pbuf[4];
 102              		.loc 1 156 65 view .LVU18
 103 001a CA78     		ldrb	r2, [r1, #3]	@ zero_extendqisi2
 156:USBLIB/Class/CDC/Src/usbd_cdc_if_template.c ****       linecoding.format     = pbuf[4];
 104              		.loc 1 156 58 view .LVU19
 105 001c 43EA0263 		orr	r3, r3, r2, lsl #24
 155:USBLIB/Class/CDC/Src/usbd_cdc_if_template.c ****                                          (pbuf[2] << 16) | (pbuf[3] << 24));
 106              		.loc 1 155 29 view .LVU20
 107 0020 0C4A     		ldr	r2, .L7
 108 0022 1360     		str	r3, [r2]
 157:USBLIB/Class/CDC/Src/usbd_cdc_if_template.c ****       linecoding.paritytype = pbuf[5];
 109              		.loc 1 157 7 is_stmt 1 view .LVU21
 157:USBLIB/Class/CDC/Src/usbd_cdc_if_template.c ****       linecoding.paritytype = pbuf[5];
 110              		.loc 1 157 29 is_stmt 0 view .LVU22
 111 0024 0B79     		ldrb	r3, [r1, #4]	@ zero_extendqisi2
 112 0026 1371     		strb	r3, [r2, #4]
 158:USBLIB/Class/CDC/Src/usbd_cdc_if_template.c ****       linecoding.datatype   = pbuf[6];
 113              		.loc 1 158 7 is_stmt 1 view .LVU23
 158:USBLIB/Class/CDC/Src/usbd_cdc_if_template.c ****       linecoding.datatype   = pbuf[6];
 114              		.loc 1 158 29 is_stmt 0 view .LVU24
 115 0028 4B79     		ldrb	r3, [r1, #5]	@ zero_extendqisi2
 116 002a 5371     		strb	r3, [r2, #5]
 159:USBLIB/Class/CDC/Src/usbd_cdc_if_template.c **** 
 117              		.loc 1 159 7 is_stmt 1 view .LVU25
 159:USBLIB/Class/CDC/Src/usbd_cdc_if_template.c **** 
 118              		.loc 1 159 29 is_stmt 0 view .LVU26
 119 002c 8B79     		ldrb	r3, [r1, #6]	@ zero_extendqisi2
 120 002e 9371     		strb	r3, [r2, #6]
 162:USBLIB/Class/CDC/Src/usbd_cdc_if_template.c **** 
 121              		.loc 1 162 7 is_stmt 1 view .LVU27
 122 0030 EAE7     		b	.L6
 123              	.LVL5:
 124              	.L5:
 165:USBLIB/Class/CDC/Src/usbd_cdc_if_template.c ****       pbuf[1] = (uint8_t)(linecoding.bitrate >> 8);
 125              		.loc 1 165 7 view .LVU28
 165:USBLIB/Class/CDC/Src/usbd_cdc_if_template.c ****       pbuf[1] = (uint8_t)(linecoding.bitrate >> 8);
 126              		.loc 1 165 37 is_stmt 0 view .LVU29
 127 0032 084B     		ldr	r3, .L7
 165:USBLIB/Class/CDC/Src/usbd_cdc_if_template.c ****       pbuf[1] = (uint8_t)(linecoding.bitrate >> 8);
 128              		.loc 1 165 17 view .LVU30
 129 0034 1A78     		ldrb	r2, [r3]	@ zero_extendqisi2
 130              	.LVL6:
 165:USBLIB/Class/CDC/Src/usbd_cdc_if_template.c ****       pbuf[1] = (uint8_t)(linecoding.bitrate >> 8);
 131              		.loc 1 165 15 view .LVU31
 132 0036 0A70     		strb	r2, [r1]
 166:USBLIB/Class/CDC/Src/usbd_cdc_if_template.c ****       pbuf[2] = (uint8_t)(linecoding.bitrate >> 16);
 133              		.loc 1 166 7 is_stmt 1 view .LVU32
 166:USBLIB/Class/CDC/Src/usbd_cdc_if_template.c ****       pbuf[2] = (uint8_t)(linecoding.bitrate >> 16);
 134              		.loc 1 166 17 is_stmt 0 view .LVU33
 135 0038 5A78     		ldrb	r2, [r3, #1]	@ zero_extendqisi2
 166:USBLIB/Class/CDC/Src/usbd_cdc_if_template.c ****       pbuf[2] = (uint8_t)(linecoding.bitrate >> 16);
ARM GAS  C:\Users\Jim_YW\AppData\Local\Temp\ccU6FWQK.s 			page 7


 136              		.loc 1 166 15 view .LVU34
 137 003a 4A70     		strb	r2, [r1, #1]
 167:USBLIB/Class/CDC/Src/usbd_cdc_if_template.c ****       pbuf[3] = (uint8_t)(linecoding.bitrate >> 24);
 138              		.loc 1 167 7 is_stmt 1 view .LVU35
 167:USBLIB/Class/CDC/Src/usbd_cdc_if_template.c ****       pbuf[3] = (uint8_t)(linecoding.bitrate >> 24);
 139              		.loc 1 167 17 is_stmt 0 view .LVU36
 140 003c 9A78     		ldrb	r2, [r3, #2]	@ zero_extendqisi2
 167:USBLIB/Class/CDC/Src/usbd_cdc_if_template.c ****       pbuf[3] = (uint8_t)(linecoding.bitrate >> 24);
 141              		.loc 1 167 15 view .LVU37
 142 003e 8A70     		strb	r2, [r1, #2]
 168:USBLIB/Class/CDC/Src/usbd_cdc_if_template.c ****       pbuf[4] = linecoding.format;
 143              		.loc 1 168 7 is_stmt 1 view .LVU38
 168:USBLIB/Class/CDC/Src/usbd_cdc_if_template.c ****       pbuf[4] = linecoding.format;
 144              		.loc 1 168 17 is_stmt 0 view .LVU39
 145 0040 DA78     		ldrb	r2, [r3, #3]	@ zero_extendqisi2
 168:USBLIB/Class/CDC/Src/usbd_cdc_if_template.c ****       pbuf[4] = linecoding.format;
 146              		.loc 1 168 15 view .LVU40
 147 0042 CA70     		strb	r2, [r1, #3]
 169:USBLIB/Class/CDC/Src/usbd_cdc_if_template.c ****       pbuf[5] = linecoding.paritytype;
 148              		.loc 1 169 7 is_stmt 1 view .LVU41
 169:USBLIB/Class/CDC/Src/usbd_cdc_if_template.c ****       pbuf[5] = linecoding.paritytype;
 149              		.loc 1 169 27 is_stmt 0 view .LVU42
 150 0044 1A79     		ldrb	r2, [r3, #4]	@ zero_extendqisi2
 169:USBLIB/Class/CDC/Src/usbd_cdc_if_template.c ****       pbuf[5] = linecoding.paritytype;
 151              		.loc 1 169 15 view .LVU43
 152 0046 0A71     		strb	r2, [r1, #4]
 170:USBLIB/Class/CDC/Src/usbd_cdc_if_template.c ****       pbuf[6] = linecoding.datatype;
 153              		.loc 1 170 7 is_stmt 1 view .LVU44
 170:USBLIB/Class/CDC/Src/usbd_cdc_if_template.c ****       pbuf[6] = linecoding.datatype;
 154              		.loc 1 170 27 is_stmt 0 view .LVU45
 155 0048 5A79     		ldrb	r2, [r3, #5]	@ zero_extendqisi2
 170:USBLIB/Class/CDC/Src/usbd_cdc_if_template.c ****       pbuf[6] = linecoding.datatype;
 156              		.loc 1 170 15 view .LVU46
 157 004a 4A71     		strb	r2, [r1, #5]
 171:USBLIB/Class/CDC/Src/usbd_cdc_if_template.c **** 
 158              		.loc 1 171 7 is_stmt 1 view .LVU47
 171:USBLIB/Class/CDC/Src/usbd_cdc_if_template.c **** 
 159              		.loc 1 171 27 is_stmt 0 view .LVU48
 160 004c 9B79     		ldrb	r3, [r3, #6]	@ zero_extendqisi2
 171:USBLIB/Class/CDC/Src/usbd_cdc_if_template.c **** 
 161              		.loc 1 171 15 view .LVU49
 162 004e 8B71     		strb	r3, [r1, #6]
 174:USBLIB/Class/CDC/Src/usbd_cdc_if_template.c **** 
 163              		.loc 1 174 7 is_stmt 1 view .LVU50
 164 0050 DAE7     		b	.L6
 165              	.L8:
 166 0052 00BF     		.align	2
 167              	.L7:
 168 0054 00000000 		.word	.LANCHOR0
 169              		.cfi_endproc
 170              	.LFE136:
 172              		.section	.text.TEMPLATE_Receive,"ax",%progbits
 173              		.align	1
 174              		.syntax unified
 175              		.thumb
 176              		.thumb_func
 178              	TEMPLATE_Receive:
ARM GAS  C:\Users\Jim_YW\AppData\Local\Temp\ccU6FWQK.s 			page 8


 179              	.LVL7:
 180              	.LFB137:
 190:USBLIB/Class/CDC/Src/usbd_cdc_if_template.c **** 
 191:USBLIB/Class/CDC/Src/usbd_cdc_if_template.c **** /**
 192:USBLIB/Class/CDC/Src/usbd_cdc_if_template.c ****   * @brief  TEMPLATE_Receive
 193:USBLIB/Class/CDC/Src/usbd_cdc_if_template.c ****   *         Data received over USB OUT endpoint are sent over CDC interface
 194:USBLIB/Class/CDC/Src/usbd_cdc_if_template.c ****   *         through this function.
 195:USBLIB/Class/CDC/Src/usbd_cdc_if_template.c ****   *
 196:USBLIB/Class/CDC/Src/usbd_cdc_if_template.c ****   *         @note
 197:USBLIB/Class/CDC/Src/usbd_cdc_if_template.c ****   *         This function will issue a NAK packet on any OUT packet received on
 198:USBLIB/Class/CDC/Src/usbd_cdc_if_template.c ****   *         USB endpoint until exiting this function. If you exit this function
 199:USBLIB/Class/CDC/Src/usbd_cdc_if_template.c ****   *         before transfer is complete on CDC interface (ie. using DMA controller)
 200:USBLIB/Class/CDC/Src/usbd_cdc_if_template.c ****   *         it will result in receiving more data while previous ones are still
 201:USBLIB/Class/CDC/Src/usbd_cdc_if_template.c ****   *         not sent.
 202:USBLIB/Class/CDC/Src/usbd_cdc_if_template.c ****   *
 203:USBLIB/Class/CDC/Src/usbd_cdc_if_template.c ****   * @param  Buf: Buffer of data to be received
 204:USBLIB/Class/CDC/Src/usbd_cdc_if_template.c ****   * @param  Len: Number of data received (in bytes)
 205:USBLIB/Class/CDC/Src/usbd_cdc_if_template.c ****   * @retval Result of the operation: USBD_OK if all operations are OK else USBD_FAIL
 206:USBLIB/Class/CDC/Src/usbd_cdc_if_template.c ****   */
 207:USBLIB/Class/CDC/Src/usbd_cdc_if_template.c **** static int8_t TEMPLATE_Receive(uint8_t *Buf, uint32_t *Len)
 208:USBLIB/Class/CDC/Src/usbd_cdc_if_template.c **** {
 181              		.loc 1 208 1 view -0
 182              		.cfi_startproc
 183              		@ args = 0, pretend = 0, frame = 0
 184              		@ frame_needed = 0, uses_anonymous_args = 0
 185              		@ link register save eliminated.
 209:USBLIB/Class/CDC/Src/usbd_cdc_if_template.c ****   UNUSED(Buf);
 186              		.loc 1 209 3 view .LVU52
 210:USBLIB/Class/CDC/Src/usbd_cdc_if_template.c ****   UNUSED(Len);
 187              		.loc 1 210 3 view .LVU53
 211:USBLIB/Class/CDC/Src/usbd_cdc_if_template.c **** 
 212:USBLIB/Class/CDC/Src/usbd_cdc_if_template.c ****   return (0);
 188              		.loc 1 212 3 view .LVU54
 213:USBLIB/Class/CDC/Src/usbd_cdc_if_template.c **** }
 189              		.loc 1 213 1 is_stmt 0 view .LVU55
 190 0000 0020     		movs	r0, #0
 191              	.LVL8:
 192              		.loc 1 213 1 view .LVU56
 193 0002 7047     		bx	lr
 194              		.cfi_endproc
 195              	.LFE137:
 197              		.section	.text.TEMPLATE_TransmitCplt,"ax",%progbits
 198              		.align	1
 199              		.syntax unified
 200              		.thumb
 201              		.thumb_func
 203              	TEMPLATE_TransmitCplt:
 204              	.LVL9:
 205              	.LFB138:
 214:USBLIB/Class/CDC/Src/usbd_cdc_if_template.c **** 
 215:USBLIB/Class/CDC/Src/usbd_cdc_if_template.c **** /**
 216:USBLIB/Class/CDC/Src/usbd_cdc_if_template.c ****   * @brief  TEMPLATE_TransmitCplt
 217:USBLIB/Class/CDC/Src/usbd_cdc_if_template.c ****   *         Data transmitted callback
 218:USBLIB/Class/CDC/Src/usbd_cdc_if_template.c ****   *
 219:USBLIB/Class/CDC/Src/usbd_cdc_if_template.c ****   *         @note
 220:USBLIB/Class/CDC/Src/usbd_cdc_if_template.c ****   *         This function is IN transfer complete callback used to inform user that
 221:USBLIB/Class/CDC/Src/usbd_cdc_if_template.c ****   *         the submitted Data is successfully sent over USB.
ARM GAS  C:\Users\Jim_YW\AppData\Local\Temp\ccU6FWQK.s 			page 9


 222:USBLIB/Class/CDC/Src/usbd_cdc_if_template.c ****   *
 223:USBLIB/Class/CDC/Src/usbd_cdc_if_template.c ****   * @param  Buf: Buffer of data to be received
 224:USBLIB/Class/CDC/Src/usbd_cdc_if_template.c ****   * @param  Len: Number of data received (in bytes)
 225:USBLIB/Class/CDC/Src/usbd_cdc_if_template.c ****   * @retval Result of the operation: USBD_OK if all operations are OK else USBD_FAIL
 226:USBLIB/Class/CDC/Src/usbd_cdc_if_template.c ****   */
 227:USBLIB/Class/CDC/Src/usbd_cdc_if_template.c **** static int8_t TEMPLATE_TransmitCplt(uint8_t *Buf, uint32_t *Len, uint8_t epnum)
 228:USBLIB/Class/CDC/Src/usbd_cdc_if_template.c **** {
 206              		.loc 1 228 1 is_stmt 1 view -0
 207              		.cfi_startproc
 208              		@ args = 0, pretend = 0, frame = 0
 209              		@ frame_needed = 0, uses_anonymous_args = 0
 210              		@ link register save eliminated.
 229:USBLIB/Class/CDC/Src/usbd_cdc_if_template.c ****   UNUSED(Buf);
 211              		.loc 1 229 3 view .LVU58
 230:USBLIB/Class/CDC/Src/usbd_cdc_if_template.c ****   UNUSED(Len);
 212              		.loc 1 230 3 view .LVU59
 231:USBLIB/Class/CDC/Src/usbd_cdc_if_template.c ****   UNUSED(epnum);
 213              		.loc 1 231 3 view .LVU60
 232:USBLIB/Class/CDC/Src/usbd_cdc_if_template.c **** 
 233:USBLIB/Class/CDC/Src/usbd_cdc_if_template.c ****   return (0);
 214              		.loc 1 233 3 view .LVU61
 234:USBLIB/Class/CDC/Src/usbd_cdc_if_template.c **** }
 215              		.loc 1 234 1 is_stmt 0 view .LVU62
 216 0000 0020     		movs	r0, #0
 217              	.LVL10:
 218              		.loc 1 234 1 view .LVU63
 219 0002 7047     		bx	lr
 220              		.cfi_endproc
 221              	.LFE138:
 223              		.global	linecoding
 224              		.global	USBD_CDC_Template_fops
 225              		.section	.data.USBD_CDC_Template_fops,"aw"
 226              		.align	2
 229              	USBD_CDC_Template_fops:
 230 0000 00000000 		.word	TEMPLATE_Init
 231 0004 00000000 		.word	TEMPLATE_DeInit
 232 0008 00000000 		.word	TEMPLATE_Control
 233 000c 00000000 		.word	TEMPLATE_Receive
 234 0010 00000000 		.word	TEMPLATE_TransmitCplt
 235              		.section	.data.linecoding,"aw"
 236              		.align	2
 237              		.set	.LANCHOR0,. + 0
 240              	linecoding:
 241 0000 00C20100 		.word	115200
 242 0004 00       		.byte	0
 243 0005 00       		.byte	0
 244 0006 08       		.byte	8
 245 0007 00       		.space	1
 246              		.text
 247              	.Letext0:
 248              		.file 2 "c:\\program files (x86)\\gnu arm embedded toolchain\\10 2021.10\\arm-none-eabi\\include\\
 249              		.file 3 "c:\\program files (x86)\\gnu arm embedded toolchain\\10 2021.10\\arm-none-eabi\\include\\
 250              		.file 4 "USBLIB/Class/CDC/Inc/usbd_cdc.h"
 251              		.file 5 "USBLIB/Class/CDC/Inc/usbd_cdc_if_template.h"
ARM GAS  C:\Users\Jim_YW\AppData\Local\Temp\ccU6FWQK.s 			page 10


DEFINED SYMBOLS
                            *ABS*:00000000 usbd_cdc_if_template.c
C:\Users\Jim_YW\AppData\Local\Temp\ccU6FWQK.s:20     .text.TEMPLATE_Init:00000000 $t
C:\Users\Jim_YW\AppData\Local\Temp\ccU6FWQK.s:25     .text.TEMPLATE_Init:00000000 TEMPLATE_Init
C:\Users\Jim_YW\AppData\Local\Temp\ccU6FWQK.s:41     .text.TEMPLATE_DeInit:00000000 $t
C:\Users\Jim_YW\AppData\Local\Temp\ccU6FWQK.s:46     .text.TEMPLATE_DeInit:00000000 TEMPLATE_DeInit
C:\Users\Jim_YW\AppData\Local\Temp\ccU6FWQK.s:61     .text.TEMPLATE_Control:00000000 $t
C:\Users\Jim_YW\AppData\Local\Temp\ccU6FWQK.s:66     .text.TEMPLATE_Control:00000000 TEMPLATE_Control
C:\Users\Jim_YW\AppData\Local\Temp\ccU6FWQK.s:168    .text.TEMPLATE_Control:00000054 $d
C:\Users\Jim_YW\AppData\Local\Temp\ccU6FWQK.s:173    .text.TEMPLATE_Receive:00000000 $t
C:\Users\Jim_YW\AppData\Local\Temp\ccU6FWQK.s:178    .text.TEMPLATE_Receive:00000000 TEMPLATE_Receive
C:\Users\Jim_YW\AppData\Local\Temp\ccU6FWQK.s:198    .text.TEMPLATE_TransmitCplt:00000000 $t
C:\Users\Jim_YW\AppData\Local\Temp\ccU6FWQK.s:203    .text.TEMPLATE_TransmitCplt:00000000 TEMPLATE_TransmitCplt
C:\Users\Jim_YW\AppData\Local\Temp\ccU6FWQK.s:240    .data.linecoding:00000000 linecoding
C:\Users\Jim_YW\AppData\Local\Temp\ccU6FWQK.s:229    .data.USBD_CDC_Template_fops:00000000 USBD_CDC_Template_fops
C:\Users\Jim_YW\AppData\Local\Temp\ccU6FWQK.s:226    .data.USBD_CDC_Template_fops:00000000 $d
C:\Users\Jim_YW\AppData\Local\Temp\ccU6FWQK.s:236    .data.linecoding:00000000 $d

NO UNDEFINED SYMBOLS
