ARM GAS  C:\Users\Jim_YW\AppData\Local\Temp\ccpYu19a.s 			page 1


   1              		.cpu cortex-m4
   2              		.arch armv7e-m
   3              		.fpu fpv4-sp-d16
   4              		.eabi_attribute 27, 1
   5              		.eabi_attribute 28, 1
   6              		.eabi_attribute 20, 1
   7              		.eabi_attribute 21, 1
   8              		.eabi_attribute 23, 3
   9              		.eabi_attribute 24, 1
  10              		.eabi_attribute 25, 1
  11              		.eabi_attribute 26, 1
  12              		.eabi_attribute 30, 1
  13              		.eabi_attribute 34, 1
  14              		.eabi_attribute 18, 4
  15              		.file	"usbd_cdc_if.c"
  16              		.text
  17              	.Ltext0:
  18              		.cfi_sections	.debug_frame
  19              		.section	.text.CDC_DeInit_FS,"ax",%progbits
  20              		.align	1
  21              		.syntax unified
  22              		.thumb
  23              		.thumb_func
  25              	CDC_DeInit_FS:
  26              	.LFB135:
  27              		.file 1 "USBUSER/CMPST/usbd_cdc_if.c"
   1:USBUSER/CMPST/usbd_cdc_if.c **** /* USER CODE BEGIN Header */
   2:USBUSER/CMPST/usbd_cdc_if.c **** /**
   3:USBUSER/CMPST/usbd_cdc_if.c ****   ******************************************************************************
   4:USBUSER/CMPST/usbd_cdc_if.c ****   * @file           : usbd_cdc_if.c
   5:USBUSER/CMPST/usbd_cdc_if.c ****   * @version        : v1.0_Cube
   6:USBUSER/CMPST/usbd_cdc_if.c ****   * @brief          : Usb device for Virtual Com Port.
   7:USBUSER/CMPST/usbd_cdc_if.c ****   ******************************************************************************
   8:USBUSER/CMPST/usbd_cdc_if.c ****   * @attention
   9:USBUSER/CMPST/usbd_cdc_if.c ****   *
  10:USBUSER/CMPST/usbd_cdc_if.c ****   * Copyright (c) 2024 STMicroelectronics.
  11:USBUSER/CMPST/usbd_cdc_if.c ****   * All rights reserved.
  12:USBUSER/CMPST/usbd_cdc_if.c ****   *
  13:USBUSER/CMPST/usbd_cdc_if.c ****   * This software is licensed under terms that can be found in the LICENSE file
  14:USBUSER/CMPST/usbd_cdc_if.c ****   * in the root directory of this software component.
  15:USBUSER/CMPST/usbd_cdc_if.c ****   * If no LICENSE file comes with this software, it is provided AS-IS.
  16:USBUSER/CMPST/usbd_cdc_if.c ****   *
  17:USBUSER/CMPST/usbd_cdc_if.c ****   ******************************************************************************
  18:USBUSER/CMPST/usbd_cdc_if.c ****   */
  19:USBUSER/CMPST/usbd_cdc_if.c **** /* USER CODE END Header */
  20:USBUSER/CMPST/usbd_cdc_if.c **** 
  21:USBUSER/CMPST/usbd_cdc_if.c **** /* Includes ------------------------------------------------------------------*/
  22:USBUSER/CMPST/usbd_cdc_if.c **** #include "usbd_cdc_if.h"
  23:USBUSER/CMPST/usbd_cdc_if.c **** #include "elog.h"
  24:USBUSER/CMPST/usbd_cdc_if.c **** 
  25:USBUSER/CMPST/usbd_cdc_if.c **** /* USER CODE BEGIN INCLUDE */
  26:USBUSER/CMPST/usbd_cdc_if.c **** 
  27:USBUSER/CMPST/usbd_cdc_if.c **** /* USER CODE END INCLUDE */
  28:USBUSER/CMPST/usbd_cdc_if.c **** 
  29:USBUSER/CMPST/usbd_cdc_if.c **** /* Private typedef -----------------------------------------------------------*/
  30:USBUSER/CMPST/usbd_cdc_if.c **** /* Private define ------------------------------------------------------------*/
  31:USBUSER/CMPST/usbd_cdc_if.c **** /* Private macro -------------------------------------------------------------*/
ARM GAS  C:\Users\Jim_YW\AppData\Local\Temp\ccpYu19a.s 			page 2


  32:USBUSER/CMPST/usbd_cdc_if.c **** 
  33:USBUSER/CMPST/usbd_cdc_if.c **** /* USER CODE BEGIN PV */
  34:USBUSER/CMPST/usbd_cdc_if.c **** /* Private variables ---------------------------------------------------------*/
  35:USBUSER/CMPST/usbd_cdc_if.c **** 
  36:USBUSER/CMPST/usbd_cdc_if.c **** /* USER CODE END PV */
  37:USBUSER/CMPST/usbd_cdc_if.c **** 
  38:USBUSER/CMPST/usbd_cdc_if.c **** /** @addtogroup STM32_USB_OTG_DEVICE_LIBRARY
  39:USBUSER/CMPST/usbd_cdc_if.c ****   * @brief Usb device library.
  40:USBUSER/CMPST/usbd_cdc_if.c ****   * @{
  41:USBUSER/CMPST/usbd_cdc_if.c ****   */
  42:USBUSER/CMPST/usbd_cdc_if.c **** 
  43:USBUSER/CMPST/usbd_cdc_if.c **** /** @addtogroup USBD_CDC_IF
  44:USBUSER/CMPST/usbd_cdc_if.c ****   * @{
  45:USBUSER/CMPST/usbd_cdc_if.c ****   */
  46:USBUSER/CMPST/usbd_cdc_if.c **** 
  47:USBUSER/CMPST/usbd_cdc_if.c **** /** @defgroup USBD_CDC_IF_Private_TypesDefinitions USBD_CDC_IF_Private_TypesDefinitions
  48:USBUSER/CMPST/usbd_cdc_if.c ****   * @brief Private types.
  49:USBUSER/CMPST/usbd_cdc_if.c ****   * @{
  50:USBUSER/CMPST/usbd_cdc_if.c ****   */
  51:USBUSER/CMPST/usbd_cdc_if.c **** 
  52:USBUSER/CMPST/usbd_cdc_if.c **** /* USER CODE BEGIN PRIVATE_TYPES */
  53:USBUSER/CMPST/usbd_cdc_if.c **** 
  54:USBUSER/CMPST/usbd_cdc_if.c **** /* USER CODE END PRIVATE_TYPES */
  55:USBUSER/CMPST/usbd_cdc_if.c **** 
  56:USBUSER/CMPST/usbd_cdc_if.c **** /**
  57:USBUSER/CMPST/usbd_cdc_if.c ****   * @}
  58:USBUSER/CMPST/usbd_cdc_if.c ****   */
  59:USBUSER/CMPST/usbd_cdc_if.c **** 
  60:USBUSER/CMPST/usbd_cdc_if.c **** /** @defgroup USBD_CDC_IF_Private_Defines USBD_CDC_IF_Private_Defines
  61:USBUSER/CMPST/usbd_cdc_if.c ****   * @brief Private defines.
  62:USBUSER/CMPST/usbd_cdc_if.c ****   * @{
  63:USBUSER/CMPST/usbd_cdc_if.c ****   */
  64:USBUSER/CMPST/usbd_cdc_if.c **** 
  65:USBUSER/CMPST/usbd_cdc_if.c **** /* USER CODE BEGIN PRIVATE_DEFINES */
  66:USBUSER/CMPST/usbd_cdc_if.c **** /* USER CODE END PRIVATE_DEFINES */
  67:USBUSER/CMPST/usbd_cdc_if.c **** 
  68:USBUSER/CMPST/usbd_cdc_if.c **** /**
  69:USBUSER/CMPST/usbd_cdc_if.c ****   * @}
  70:USBUSER/CMPST/usbd_cdc_if.c ****   */
  71:USBUSER/CMPST/usbd_cdc_if.c **** 
  72:USBUSER/CMPST/usbd_cdc_if.c **** /** @defgroup USBD_CDC_IF_Private_Macros USBD_CDC_IF_Private_Macros
  73:USBUSER/CMPST/usbd_cdc_if.c ****   * @brief Private macros.
  74:USBUSER/CMPST/usbd_cdc_if.c ****   * @{
  75:USBUSER/CMPST/usbd_cdc_if.c ****   */
  76:USBUSER/CMPST/usbd_cdc_if.c **** 
  77:USBUSER/CMPST/usbd_cdc_if.c **** /* USER CODE BEGIN PRIVATE_MACRO */
  78:USBUSER/CMPST/usbd_cdc_if.c **** 
  79:USBUSER/CMPST/usbd_cdc_if.c **** /* USER CODE END PRIVATE_MACRO */
  80:USBUSER/CMPST/usbd_cdc_if.c **** 
  81:USBUSER/CMPST/usbd_cdc_if.c **** /**
  82:USBUSER/CMPST/usbd_cdc_if.c ****   * @}
  83:USBUSER/CMPST/usbd_cdc_if.c ****   */
  84:USBUSER/CMPST/usbd_cdc_if.c **** 
  85:USBUSER/CMPST/usbd_cdc_if.c **** /** @defgroup USBD_CDC_IF_Private_Variables USBD_CDC_IF_Private_Variables
  86:USBUSER/CMPST/usbd_cdc_if.c ****   * @brief Private variables.
  87:USBUSER/CMPST/usbd_cdc_if.c ****   * @{
  88:USBUSER/CMPST/usbd_cdc_if.c ****   */
ARM GAS  C:\Users\Jim_YW\AppData\Local\Temp\ccpYu19a.s 			page 3


  89:USBUSER/CMPST/usbd_cdc_if.c **** /* Create buffer for reception and transmission           */
  90:USBUSER/CMPST/usbd_cdc_if.c **** /* It's up to user to redefine and/or remove those define */
  91:USBUSER/CMPST/usbd_cdc_if.c **** /** Received data over USB are stored in this buffer      */
  92:USBUSER/CMPST/usbd_cdc_if.c **** uint8_t UserRxBufferFS[APP_RX_DATA_SIZE];
  93:USBUSER/CMPST/usbd_cdc_if.c **** 
  94:USBUSER/CMPST/usbd_cdc_if.c **** /** Data to send over USB CDC are stored in this buffer   */
  95:USBUSER/CMPST/usbd_cdc_if.c **** uint8_t UserTxBufferFS[APP_TX_DATA_SIZE];
  96:USBUSER/CMPST/usbd_cdc_if.c **** 
  97:USBUSER/CMPST/usbd_cdc_if.c **** /* USER CODE BEGIN PRIVATE_VARIABLES */
  98:USBUSER/CMPST/usbd_cdc_if.c **** 
  99:USBUSER/CMPST/usbd_cdc_if.c **** /* USER CODE END PRIVATE_VARIABLES */
 100:USBUSER/CMPST/usbd_cdc_if.c **** 
 101:USBUSER/CMPST/usbd_cdc_if.c **** /**
 102:USBUSER/CMPST/usbd_cdc_if.c ****   * @}
 103:USBUSER/CMPST/usbd_cdc_if.c ****   */
 104:USBUSER/CMPST/usbd_cdc_if.c **** 
 105:USBUSER/CMPST/usbd_cdc_if.c **** /** @defgroup USBD_CDC_IF_Exported_Variables USBD_CDC_IF_Exported_Variables
 106:USBUSER/CMPST/usbd_cdc_if.c ****   * @brief Public variables.
 107:USBUSER/CMPST/usbd_cdc_if.c ****   * @{
 108:USBUSER/CMPST/usbd_cdc_if.c ****   */
 109:USBUSER/CMPST/usbd_cdc_if.c **** 
 110:USBUSER/CMPST/usbd_cdc_if.c **** extern USBD_HandleTypeDef hUsbDeviceFS;
 111:USBUSER/CMPST/usbd_cdc_if.c **** 
 112:USBUSER/CMPST/usbd_cdc_if.c **** /* USER CODE BEGIN EXPORTED_VARIABLES */
 113:USBUSER/CMPST/usbd_cdc_if.c **** 
 114:USBUSER/CMPST/usbd_cdc_if.c **** /* USER CODE END EXPORTED_VARIABLES */
 115:USBUSER/CMPST/usbd_cdc_if.c **** 
 116:USBUSER/CMPST/usbd_cdc_if.c **** /**
 117:USBUSER/CMPST/usbd_cdc_if.c ****   * @}
 118:USBUSER/CMPST/usbd_cdc_if.c ****   */
 119:USBUSER/CMPST/usbd_cdc_if.c **** 
 120:USBUSER/CMPST/usbd_cdc_if.c **** /** @defgroup USBD_CDC_IF_Private_FunctionPrototypes USBD_CDC_IF_Private_FunctionPrototypes
 121:USBUSER/CMPST/usbd_cdc_if.c ****   * @brief Private functions declaration.
 122:USBUSER/CMPST/usbd_cdc_if.c ****   * @{
 123:USBUSER/CMPST/usbd_cdc_if.c ****   */
 124:USBUSER/CMPST/usbd_cdc_if.c **** 
 125:USBUSER/CMPST/usbd_cdc_if.c **** static int8_t CDC_Init_FS(void);
 126:USBUSER/CMPST/usbd_cdc_if.c **** static int8_t CDC_DeInit_FS(void);
 127:USBUSER/CMPST/usbd_cdc_if.c **** static int8_t CDC_Control_FS(uint8_t cmd, uint8_t* pbuf, uint16_t length);
 128:USBUSER/CMPST/usbd_cdc_if.c **** static int8_t CDC_Receive_FS(uint8_t* pbuf, uint32_t *Len);
 129:USBUSER/CMPST/usbd_cdc_if.c **** static int8_t CDC_TransmitCplt_FS(uint8_t *pbuf, uint32_t *Len, uint8_t epnum);
 130:USBUSER/CMPST/usbd_cdc_if.c **** 
 131:USBUSER/CMPST/usbd_cdc_if.c **** /* USER CODE BEGIN PRIVATE_FUNCTIONS_DECLARATION */
 132:USBUSER/CMPST/usbd_cdc_if.c **** 
 133:USBUSER/CMPST/usbd_cdc_if.c **** /* USER CODE END PRIVATE_FUNCTIONS_DECLARATION */
 134:USBUSER/CMPST/usbd_cdc_if.c **** 
 135:USBUSER/CMPST/usbd_cdc_if.c **** /**
 136:USBUSER/CMPST/usbd_cdc_if.c ****   * @}
 137:USBUSER/CMPST/usbd_cdc_if.c ****   */
 138:USBUSER/CMPST/usbd_cdc_if.c **** 
 139:USBUSER/CMPST/usbd_cdc_if.c **** USBD_CDC_ItfTypeDef USBD_Interface_fops_FS =
 140:USBUSER/CMPST/usbd_cdc_if.c **** {
 141:USBUSER/CMPST/usbd_cdc_if.c ****   CDC_Init_FS,
 142:USBUSER/CMPST/usbd_cdc_if.c ****   CDC_DeInit_FS,
 143:USBUSER/CMPST/usbd_cdc_if.c ****   CDC_Control_FS,
 144:USBUSER/CMPST/usbd_cdc_if.c ****   CDC_Receive_FS,
 145:USBUSER/CMPST/usbd_cdc_if.c ****   CDC_TransmitCplt_FS
ARM GAS  C:\Users\Jim_YW\AppData\Local\Temp\ccpYu19a.s 			page 4


 146:USBUSER/CMPST/usbd_cdc_if.c **** };
 147:USBUSER/CMPST/usbd_cdc_if.c **** 
 148:USBUSER/CMPST/usbd_cdc_if.c **** /* Private functions ---------------------------------------------------------*/
 149:USBUSER/CMPST/usbd_cdc_if.c **** /**
 150:USBUSER/CMPST/usbd_cdc_if.c ****   * @brief  Initializes the CDC media low layer over the FS USB IP
 151:USBUSER/CMPST/usbd_cdc_if.c ****   * @retval USBD_OK if all operations are OK else USBD_FAIL
 152:USBUSER/CMPST/usbd_cdc_if.c ****   */
 153:USBUSER/CMPST/usbd_cdc_if.c **** static int8_t CDC_Init_FS(void)
 154:USBUSER/CMPST/usbd_cdc_if.c **** {
 155:USBUSER/CMPST/usbd_cdc_if.c ****   /* USER CODE BEGIN 3 */
 156:USBUSER/CMPST/usbd_cdc_if.c ****   /* Set Application Buffers */
 157:USBUSER/CMPST/usbd_cdc_if.c ****   USBD_CDC_SetTxBuffer(&hUsbDeviceFS, UserTxBufferFS, 0);
 158:USBUSER/CMPST/usbd_cdc_if.c ****   USBD_CDC_SetRxBuffer(&hUsbDeviceFS, UserRxBufferFS);
 159:USBUSER/CMPST/usbd_cdc_if.c ****   return (USBD_OK);
 160:USBUSER/CMPST/usbd_cdc_if.c ****   /* USER CODE END 3 */
 161:USBUSER/CMPST/usbd_cdc_if.c **** }
 162:USBUSER/CMPST/usbd_cdc_if.c **** 
 163:USBUSER/CMPST/usbd_cdc_if.c **** /**
 164:USBUSER/CMPST/usbd_cdc_if.c ****   * @brief  DeInitializes the CDC media low layer
 165:USBUSER/CMPST/usbd_cdc_if.c ****   * @retval USBD_OK if all operations are OK else USBD_FAIL
 166:USBUSER/CMPST/usbd_cdc_if.c ****   */
 167:USBUSER/CMPST/usbd_cdc_if.c **** static int8_t CDC_DeInit_FS(void)
 168:USBUSER/CMPST/usbd_cdc_if.c **** {
  28              		.loc 1 168 1 view -0
  29              		.cfi_startproc
  30              		@ args = 0, pretend = 0, frame = 0
  31              		@ frame_needed = 0, uses_anonymous_args = 0
  32              		@ link register save eliminated.
 169:USBUSER/CMPST/usbd_cdc_if.c ****   /* USER CODE BEGIN 4 */
 170:USBUSER/CMPST/usbd_cdc_if.c ****   return (USBD_OK);
  33              		.loc 1 170 3 view .LVU1
 171:USBUSER/CMPST/usbd_cdc_if.c ****   /* USER CODE END 4 */
 172:USBUSER/CMPST/usbd_cdc_if.c **** }
  34              		.loc 1 172 1 is_stmt 0 view .LVU2
  35 0000 0020     		movs	r0, #0
  36 0002 7047     		bx	lr
  37              		.cfi_endproc
  38              	.LFE135:
  40              		.section	.text.CDC_Control_FS,"ax",%progbits
  41              		.align	1
  42              		.syntax unified
  43              		.thumb
  44              		.thumb_func
  46              	CDC_Control_FS:
  47              	.LVL0:
  48              	.LFB136:
 173:USBUSER/CMPST/usbd_cdc_if.c **** 
 174:USBUSER/CMPST/usbd_cdc_if.c **** /**
 175:USBUSER/CMPST/usbd_cdc_if.c ****   * @brief  Manage the CDC class requests
 176:USBUSER/CMPST/usbd_cdc_if.c ****   * @param  cmd: Command code
 177:USBUSER/CMPST/usbd_cdc_if.c ****   * @param  pbuf: Buffer containing command data (request parameters)
 178:USBUSER/CMPST/usbd_cdc_if.c ****   * @param  length: Number of data to be sent (in bytes)
 179:USBUSER/CMPST/usbd_cdc_if.c ****   * @retval Result of the operation: USBD_OK if all operations are OK else USBD_FAIL
 180:USBUSER/CMPST/usbd_cdc_if.c ****   */
 181:USBUSER/CMPST/usbd_cdc_if.c **** static int8_t CDC_Control_FS(uint8_t cmd, uint8_t* pbuf, uint16_t length)
 182:USBUSER/CMPST/usbd_cdc_if.c **** {
  49              		.loc 1 182 1 is_stmt 1 view -0
ARM GAS  C:\Users\Jim_YW\AppData\Local\Temp\ccpYu19a.s 			page 5


  50              		.cfi_startproc
  51              		@ args = 0, pretend = 0, frame = 0
  52              		@ frame_needed = 0, uses_anonymous_args = 0
  53              		@ link register save eliminated.
 183:USBUSER/CMPST/usbd_cdc_if.c ****   /* USER CODE BEGIN 5 */
 184:USBUSER/CMPST/usbd_cdc_if.c ****   switch(cmd)
  54              		.loc 1 184 3 view .LVU4
 185:USBUSER/CMPST/usbd_cdc_if.c ****   {
 186:USBUSER/CMPST/usbd_cdc_if.c ****     case CDC_SEND_ENCAPSULATED_COMMAND:
 187:USBUSER/CMPST/usbd_cdc_if.c **** 
 188:USBUSER/CMPST/usbd_cdc_if.c ****     break;
 189:USBUSER/CMPST/usbd_cdc_if.c **** 
 190:USBUSER/CMPST/usbd_cdc_if.c ****     case CDC_GET_ENCAPSULATED_RESPONSE:
 191:USBUSER/CMPST/usbd_cdc_if.c **** 
 192:USBUSER/CMPST/usbd_cdc_if.c ****     break;
 193:USBUSER/CMPST/usbd_cdc_if.c **** 
 194:USBUSER/CMPST/usbd_cdc_if.c ****     case CDC_SET_COMM_FEATURE:
 195:USBUSER/CMPST/usbd_cdc_if.c **** 
 196:USBUSER/CMPST/usbd_cdc_if.c ****     break;
 197:USBUSER/CMPST/usbd_cdc_if.c **** 
 198:USBUSER/CMPST/usbd_cdc_if.c ****     case CDC_GET_COMM_FEATURE:
 199:USBUSER/CMPST/usbd_cdc_if.c **** 
 200:USBUSER/CMPST/usbd_cdc_if.c ****     break;
 201:USBUSER/CMPST/usbd_cdc_if.c **** 
 202:USBUSER/CMPST/usbd_cdc_if.c ****     case CDC_CLEAR_COMM_FEATURE:
 203:USBUSER/CMPST/usbd_cdc_if.c **** 
 204:USBUSER/CMPST/usbd_cdc_if.c ****     break;
 205:USBUSER/CMPST/usbd_cdc_if.c **** 
 206:USBUSER/CMPST/usbd_cdc_if.c ****   /*******************************************************************************/
 207:USBUSER/CMPST/usbd_cdc_if.c ****   /* Line Coding Structure                                                       */
 208:USBUSER/CMPST/usbd_cdc_if.c ****   /*-----------------------------------------------------------------------------*/
 209:USBUSER/CMPST/usbd_cdc_if.c ****   /* Offset | Field       | Size | Value  | Description                          */
 210:USBUSER/CMPST/usbd_cdc_if.c ****   /* 0      | dwDTERate   |   4  | Number |Data terminal rate, in bits per second*/
 211:USBUSER/CMPST/usbd_cdc_if.c ****   /* 4      | bCharFormat |   1  | Number | Stop bits                            */
 212:USBUSER/CMPST/usbd_cdc_if.c ****   /*                                        0 - 1 Stop bit                       */
 213:USBUSER/CMPST/usbd_cdc_if.c ****   /*                                        1 - 1.5 Stop bits                    */
 214:USBUSER/CMPST/usbd_cdc_if.c ****   /*                                        2 - 2 Stop bits                      */
 215:USBUSER/CMPST/usbd_cdc_if.c ****   /* 5      | bParityType |  1   | Number | Parity                               */
 216:USBUSER/CMPST/usbd_cdc_if.c ****   /*                                        0 - None                             */
 217:USBUSER/CMPST/usbd_cdc_if.c ****   /*                                        1 - Odd                              */
 218:USBUSER/CMPST/usbd_cdc_if.c ****   /*                                        2 - Even                             */
 219:USBUSER/CMPST/usbd_cdc_if.c ****   /*                                        3 - Mark                             */
 220:USBUSER/CMPST/usbd_cdc_if.c ****   /*                                        4 - Space                            */
 221:USBUSER/CMPST/usbd_cdc_if.c ****   /* 6      | bDataBits  |   1   | Number Data bits (5, 6, 7, 8 or 16).          */
 222:USBUSER/CMPST/usbd_cdc_if.c ****   /*******************************************************************************/
 223:USBUSER/CMPST/usbd_cdc_if.c ****     case CDC_SET_LINE_CODING:
 224:USBUSER/CMPST/usbd_cdc_if.c **** 
 225:USBUSER/CMPST/usbd_cdc_if.c ****     break;
 226:USBUSER/CMPST/usbd_cdc_if.c **** 
 227:USBUSER/CMPST/usbd_cdc_if.c ****     case CDC_GET_LINE_CODING:
 228:USBUSER/CMPST/usbd_cdc_if.c **** 
 229:USBUSER/CMPST/usbd_cdc_if.c ****     break;
 230:USBUSER/CMPST/usbd_cdc_if.c **** 
 231:USBUSER/CMPST/usbd_cdc_if.c ****     case CDC_SET_CONTROL_LINE_STATE:
 232:USBUSER/CMPST/usbd_cdc_if.c **** 
 233:USBUSER/CMPST/usbd_cdc_if.c ****     break;
 234:USBUSER/CMPST/usbd_cdc_if.c **** 
ARM GAS  C:\Users\Jim_YW\AppData\Local\Temp\ccpYu19a.s 			page 6


 235:USBUSER/CMPST/usbd_cdc_if.c ****     case CDC_SEND_BREAK:
 236:USBUSER/CMPST/usbd_cdc_if.c **** 
 237:USBUSER/CMPST/usbd_cdc_if.c ****     break;
 238:USBUSER/CMPST/usbd_cdc_if.c **** 
 239:USBUSER/CMPST/usbd_cdc_if.c ****   default:
 240:USBUSER/CMPST/usbd_cdc_if.c ****     break;
 241:USBUSER/CMPST/usbd_cdc_if.c ****   }
 242:USBUSER/CMPST/usbd_cdc_if.c **** 
 243:USBUSER/CMPST/usbd_cdc_if.c ****   return (USBD_OK);
  55              		.loc 1 243 3 view .LVU5
 244:USBUSER/CMPST/usbd_cdc_if.c ****   /* USER CODE END 5 */
 245:USBUSER/CMPST/usbd_cdc_if.c **** }
  56              		.loc 1 245 1 is_stmt 0 view .LVU6
  57 0000 0020     		movs	r0, #0
  58              	.LVL1:
  59              		.loc 1 245 1 view .LVU7
  60 0002 7047     		bx	lr
  61              		.cfi_endproc
  62              	.LFE136:
  64              		.section	.text.CDC_TransmitCplt_FS,"ax",%progbits
  65              		.align	1
  66              		.syntax unified
  67              		.thumb
  68              		.thumb_func
  70              	CDC_TransmitCplt_FS:
  71              	.LVL2:
  72              	.LFB139:
 246:USBUSER/CMPST/usbd_cdc_if.c **** 
 247:USBUSER/CMPST/usbd_cdc_if.c **** /**
 248:USBUSER/CMPST/usbd_cdc_if.c ****   * @brief  Data received over USB OUT endpoint are sent over CDC interface
 249:USBUSER/CMPST/usbd_cdc_if.c ****   *         through this function.
 250:USBUSER/CMPST/usbd_cdc_if.c ****   *
 251:USBUSER/CMPST/usbd_cdc_if.c ****   *         @note
 252:USBUSER/CMPST/usbd_cdc_if.c ****   *         This function will issue a NAK packet on any OUT packet received on
 253:USBUSER/CMPST/usbd_cdc_if.c ****   *         USB endpoint until exiting this function. If you exit this function
 254:USBUSER/CMPST/usbd_cdc_if.c ****   *         before transfer is complete on CDC interface (ie. using DMA controller)
 255:USBUSER/CMPST/usbd_cdc_if.c ****   *         it will result in receiving more data while previous ones are still
 256:USBUSER/CMPST/usbd_cdc_if.c ****   *         not sent.
 257:USBUSER/CMPST/usbd_cdc_if.c ****   *
 258:USBUSER/CMPST/usbd_cdc_if.c ****   * @param  Buf: Buffer of data to be received
 259:USBUSER/CMPST/usbd_cdc_if.c ****   * @param  Len: Number of data received (in bytes)
 260:USBUSER/CMPST/usbd_cdc_if.c ****   * @retval Result of the operation: USBD_OK if all operations are OK else USBD_FAIL
 261:USBUSER/CMPST/usbd_cdc_if.c ****   */
 262:USBUSER/CMPST/usbd_cdc_if.c **** static int8_t CDC_Receive_FS(uint8_t* Buf, uint32_t *Len)
 263:USBUSER/CMPST/usbd_cdc_if.c **** {
 264:USBUSER/CMPST/usbd_cdc_if.c ****  
 265:USBUSER/CMPST/usbd_cdc_if.c ****   /* USER CODE BEGIN 6 */
 266:USBUSER/CMPST/usbd_cdc_if.c ****   USBD_CDC_SetRxBuffer(&hUsbDeviceFS, &Buf[0]);
 267:USBUSER/CMPST/usbd_cdc_if.c ****   USBD_CDC_ReceivePacket(&hUsbDeviceFS);
 268:USBUSER/CMPST/usbd_cdc_if.c **** 
 269:USBUSER/CMPST/usbd_cdc_if.c ****  CDC_Transmit_FS(UserRxBufferFS, *Len);
 270:USBUSER/CMPST/usbd_cdc_if.c **** 
 271:USBUSER/CMPST/usbd_cdc_if.c ****   return (USBD_OK);
 272:USBUSER/CMPST/usbd_cdc_if.c ****   /* USER CODE END 6 */
 273:USBUSER/CMPST/usbd_cdc_if.c **** }
 274:USBUSER/CMPST/usbd_cdc_if.c **** 
 275:USBUSER/CMPST/usbd_cdc_if.c **** /**
ARM GAS  C:\Users\Jim_YW\AppData\Local\Temp\ccpYu19a.s 			page 7


 276:USBUSER/CMPST/usbd_cdc_if.c ****   * @brief  CDC_Transmit_FS
 277:USBUSER/CMPST/usbd_cdc_if.c ****   *         Data to send over USB IN endpoint are sent over CDC interface
 278:USBUSER/CMPST/usbd_cdc_if.c ****   *         through this function.
 279:USBUSER/CMPST/usbd_cdc_if.c ****   *         @note
 280:USBUSER/CMPST/usbd_cdc_if.c ****   *
 281:USBUSER/CMPST/usbd_cdc_if.c ****   *
 282:USBUSER/CMPST/usbd_cdc_if.c ****   * @param  Buf: Buffer of data to be sent
 283:USBUSER/CMPST/usbd_cdc_if.c ****   * @param  Len: Number of data to be sent (in bytes)
 284:USBUSER/CMPST/usbd_cdc_if.c ****   * @retval USBD_OK if all operations are OK else USBD_FAIL or USBD_BUSY
 285:USBUSER/CMPST/usbd_cdc_if.c ****   */
 286:USBUSER/CMPST/usbd_cdc_if.c **** uint8_t CDC_Transmit_FS(uint8_t* Buf, uint16_t Len)
 287:USBUSER/CMPST/usbd_cdc_if.c **** {
 288:USBUSER/CMPST/usbd_cdc_if.c ****   uint8_t result = USBD_OK;
 289:USBUSER/CMPST/usbd_cdc_if.c ****   /* USER CODE BEGIN 7 */
 290:USBUSER/CMPST/usbd_cdc_if.c **** 
 291:USBUSER/CMPST/usbd_cdc_if.c **** #if 0
 292:USBUSER/CMPST/usbd_cdc_if.c ****   USBD_CDC_HandleTypeDef *hcdc = (USBD_CDC_HandleTypeDef*)hUsbDeviceFS.pClassData;
 293:USBUSER/CMPST/usbd_cdc_if.c ****   if (hcdc->TxState != 0){
 294:USBUSER/CMPST/usbd_cdc_if.c ****     return USBD_BUSY;
 295:USBUSER/CMPST/usbd_cdc_if.c ****   }
 296:USBUSER/CMPST/usbd_cdc_if.c ****   USBD_CDC_SetTxBuffer(&hUsbDeviceFS, Buf, Len);
 297:USBUSER/CMPST/usbd_cdc_if.c ****   result = USBD_CDC_TransmitPacket(&hUsbDeviceFS);
 298:USBUSER/CMPST/usbd_cdc_if.c **** 
 299:USBUSER/CMPST/usbd_cdc_if.c **** #else
 300:USBUSER/CMPST/usbd_cdc_if.c **** 
 301:USBUSER/CMPST/usbd_cdc_if.c ****   USBD_HandleTypeDef *pdev = &hUsbDeviceFS;
 302:USBUSER/CMPST/usbd_cdc_if.c **** 
 303:USBUSER/CMPST/usbd_cdc_if.c ****   /* Get the class index relative to this endpoint */
 304:USBUSER/CMPST/usbd_cdc_if.c ****   uint8_t idx = USBD_CoreFindEP(pdev, CDC_IN_EP);
 305:USBUSER/CMPST/usbd_cdc_if.c ****   log_i("CDC_Transmit_FS .." );
 306:USBUSER/CMPST/usbd_cdc_if.c ****   if (((uint8_t)idx != 0xFFU) && (idx < USBD_MAX_SUPPORTED_CLASS))
 307:USBUSER/CMPST/usbd_cdc_if.c ****   {
 308:USBUSER/CMPST/usbd_cdc_if.c **** 
 309:USBUSER/CMPST/usbd_cdc_if.c ****     pdev->classId = idx;
 310:USBUSER/CMPST/usbd_cdc_if.c ****     USBD_CDC_HandleTypeDef *hcdc = (USBD_CDC_HandleTypeDef*)hUsbDeviceFS.pClassDataCmsit[pdev->clas
 311:USBUSER/CMPST/usbd_cdc_if.c ****     
 312:USBUSER/CMPST/usbd_cdc_if.c ****     log_i("CDC_Transmit_FS .. 3 .." );
 313:USBUSER/CMPST/usbd_cdc_if.c **** 
 314:USBUSER/CMPST/usbd_cdc_if.c ****     // ((USBD_HandleTypeDef*)(hUsbDeviceFS.pData))->pClass->EP0_RxReady(((USBD_HandleTypeDef*)(hUsb
 315:USBUSER/CMPST/usbd_cdc_if.c ****     pdev->pClass[pdev->classId]->EP0_RxReady(pdev);
 316:USBUSER/CMPST/usbd_cdc_if.c ****     // hcdc->USBD_CDC_EP0_RxReady(pdev);
 317:USBUSER/CMPST/usbd_cdc_if.c ****     if (hcdc->TxState != 0){
 318:USBUSER/CMPST/usbd_cdc_if.c ****       return USBD_BUSY;
 319:USBUSER/CMPST/usbd_cdc_if.c ****     }
 320:USBUSER/CMPST/usbd_cdc_if.c ****     log_i("CDC_Transmit_FS .. 4 .." );
 321:USBUSER/CMPST/usbd_cdc_if.c ****     USBD_CDC_SetTxBuffer(pdev, Buf, Len);
 322:USBUSER/CMPST/usbd_cdc_if.c ****     result = USBD_CDC_TransmitPacket(pdev);
 323:USBUSER/CMPST/usbd_cdc_if.c ****  
 324:USBUSER/CMPST/usbd_cdc_if.c ****   }
 325:USBUSER/CMPST/usbd_cdc_if.c ****  
 326:USBUSER/CMPST/usbd_cdc_if.c **** 
 327:USBUSER/CMPST/usbd_cdc_if.c **** #endif
 328:USBUSER/CMPST/usbd_cdc_if.c **** 
 329:USBUSER/CMPST/usbd_cdc_if.c ****   /* USER CODE END 7 */
 330:USBUSER/CMPST/usbd_cdc_if.c ****   return result;
 331:USBUSER/CMPST/usbd_cdc_if.c **** }
 332:USBUSER/CMPST/usbd_cdc_if.c **** 
ARM GAS  C:\Users\Jim_YW\AppData\Local\Temp\ccpYu19a.s 			page 8


 333:USBUSER/CMPST/usbd_cdc_if.c **** /**
 334:USBUSER/CMPST/usbd_cdc_if.c ****   * @brief  CDC_TransmitCplt_FS
 335:USBUSER/CMPST/usbd_cdc_if.c ****   *         Data transmitted callback
 336:USBUSER/CMPST/usbd_cdc_if.c ****   *
 337:USBUSER/CMPST/usbd_cdc_if.c ****   *         @note
 338:USBUSER/CMPST/usbd_cdc_if.c ****   *         This function is IN transfer complete callback used to inform user that
 339:USBUSER/CMPST/usbd_cdc_if.c ****   *         the submitted Data is successfully sent over USB.
 340:USBUSER/CMPST/usbd_cdc_if.c ****   *
 341:USBUSER/CMPST/usbd_cdc_if.c ****   * @param  Buf: Buffer of data to be received
 342:USBUSER/CMPST/usbd_cdc_if.c ****   * @param  Len: Number of data received (in bytes)
 343:USBUSER/CMPST/usbd_cdc_if.c ****   * @retval Result of the operation: USBD_OK if all operations are OK else USBD_FAIL
 344:USBUSER/CMPST/usbd_cdc_if.c ****   */
 345:USBUSER/CMPST/usbd_cdc_if.c **** static int8_t CDC_TransmitCplt_FS(uint8_t *Buf, uint32_t *Len, uint8_t epnum)
 346:USBUSER/CMPST/usbd_cdc_if.c **** {
  73              		.loc 1 346 1 is_stmt 1 view -0
  74              		.cfi_startproc
  75              		@ args = 0, pretend = 0, frame = 0
  76              		@ frame_needed = 0, uses_anonymous_args = 0
  77              		@ link register save eliminated.
 347:USBUSER/CMPST/usbd_cdc_if.c ****   uint8_t result = USBD_OK;
  78              		.loc 1 347 3 view .LVU9
 348:USBUSER/CMPST/usbd_cdc_if.c ****   /* USER CODE BEGIN 13 */
 349:USBUSER/CMPST/usbd_cdc_if.c ****   UNUSED(Buf);
  79              		.loc 1 349 3 view .LVU10
 350:USBUSER/CMPST/usbd_cdc_if.c ****   UNUSED(Len);
  80              		.loc 1 350 3 view .LVU11
 351:USBUSER/CMPST/usbd_cdc_if.c ****   UNUSED(epnum);
  81              		.loc 1 351 3 view .LVU12
 352:USBUSER/CMPST/usbd_cdc_if.c ****   /* USER CODE END 13 */
 353:USBUSER/CMPST/usbd_cdc_if.c ****   return result;
  82              		.loc 1 353 3 view .LVU13
 354:USBUSER/CMPST/usbd_cdc_if.c **** }
  83              		.loc 1 354 1 is_stmt 0 view .LVU14
  84 0000 0020     		movs	r0, #0
  85              	.LVL3:
  86              		.loc 1 354 1 view .LVU15
  87 0002 7047     		bx	lr
  88              		.cfi_endproc
  89              	.LFE139:
  91              		.section	.text.CDC_Init_FS,"ax",%progbits
  92              		.align	1
  93              		.syntax unified
  94              		.thumb
  95              		.thumb_func
  97              	CDC_Init_FS:
  98              	.LFB134:
 154:USBUSER/CMPST/usbd_cdc_if.c ****   /* USER CODE BEGIN 3 */
  99              		.loc 1 154 1 is_stmt 1 view -0
 100              		.cfi_startproc
 101              		@ args = 0, pretend = 0, frame = 0
 102              		@ frame_needed = 0, uses_anonymous_args = 0
 103 0000 10B5     		push	{r4, lr}
 104              	.LCFI0:
 105              		.cfi_def_cfa_offset 8
 106              		.cfi_offset 4, -8
 107              		.cfi_offset 14, -4
 157:USBUSER/CMPST/usbd_cdc_if.c ****   USBD_CDC_SetRxBuffer(&hUsbDeviceFS, UserRxBufferFS);
ARM GAS  C:\Users\Jim_YW\AppData\Local\Temp\ccpYu19a.s 			page 9


 108              		.loc 1 157 3 view .LVU17
 109 0002 064C     		ldr	r4, .L6
 110 0004 0022     		movs	r2, #0
 111 0006 0649     		ldr	r1, .L6+4
 112 0008 2046     		mov	r0, r4
 113 000a FFF7FEFF 		bl	USBD_CDC_SetTxBuffer
 114              	.LVL4:
 158:USBUSER/CMPST/usbd_cdc_if.c ****   return (USBD_OK);
 115              		.loc 1 158 3 view .LVU18
 116 000e 0549     		ldr	r1, .L6+8
 117 0010 2046     		mov	r0, r4
 118 0012 FFF7FEFF 		bl	USBD_CDC_SetRxBuffer
 119              	.LVL5:
 159:USBUSER/CMPST/usbd_cdc_if.c ****   /* USER CODE END 3 */
 120              		.loc 1 159 3 view .LVU19
 161:USBUSER/CMPST/usbd_cdc_if.c **** 
 121              		.loc 1 161 1 is_stmt 0 view .LVU20
 122 0016 0020     		movs	r0, #0
 123 0018 10BD     		pop	{r4, pc}
 124              	.L7:
 125 001a 00BF     		.align	2
 126              	.L6:
 127 001c 00000000 		.word	hUsbDeviceFS
 128 0020 00000000 		.word	.LANCHOR0
 129 0024 00000000 		.word	.LANCHOR1
 130              		.cfi_endproc
 131              	.LFE134:
 133              		.section	.rodata.CDC_Transmit_FS.str1.4,"aMS",%progbits,1
 134              		.align	2
 135              	.LC0:
 136 0000 55534255 		.ascii	"USBUSER/CMPST/usbd_cdc_if.c\000"
 136      5345522F 
 136      434D5053 
 136      542F7573 
 136      62645F63 
 137              		.align	2
 138              	.LC1:
 139 001c 4E4F5F54 		.ascii	"NO_TAG\000"
 139      414700
 140 0023 00       		.align	2
 141              	.LC2:
 142 0024 4344435F 		.ascii	"CDC_Transmit_FS ..\000"
 142      5472616E 
 142      736D6974 
 142      5F465320 
 142      2E2E00
 143 0037 00       		.align	2
 144              	.LC3:
 145 0038 4344435F 		.ascii	"CDC_Transmit_FS .. 3 ..\000"
 145      5472616E 
 145      736D6974 
 145      5F465320 
 145      2E2E2033 
 146              		.align	2
 147              	.LC4:
 148 0050 4344435F 		.ascii	"CDC_Transmit_FS .. 4 ..\000"
 148      5472616E 
ARM GAS  C:\Users\Jim_YW\AppData\Local\Temp\ccpYu19a.s 			page 10


 148      736D6974 
 148      5F465320 
 148      2E2E2034 
 149              		.section	.text.CDC_Transmit_FS,"ax",%progbits
 150              		.align	1
 151              		.global	CDC_Transmit_FS
 152              		.syntax unified
 153              		.thumb
 154              		.thumb_func
 156              	CDC_Transmit_FS:
 157              	.LVL6:
 158              	.LFB138:
 287:USBUSER/CMPST/usbd_cdc_if.c ****   uint8_t result = USBD_OK;
 159              		.loc 1 287 1 is_stmt 1 view -0
 160              		.cfi_startproc
 161              		@ args = 0, pretend = 0, frame = 0
 162              		@ frame_needed = 0, uses_anonymous_args = 0
 287:USBUSER/CMPST/usbd_cdc_if.c ****   uint8_t result = USBD_OK;
 163              		.loc 1 287 1 is_stmt 0 view .LVU22
 164 0000 F0B5     		push	{r4, r5, r6, r7, lr}
 165              	.LCFI1:
 166              		.cfi_def_cfa_offset 20
 167              		.cfi_offset 4, -20
 168              		.cfi_offset 5, -16
 169              		.cfi_offset 6, -12
 170              		.cfi_offset 7, -8
 171              		.cfi_offset 14, -4
 172 0002 83B0     		sub	sp, sp, #12
 173              	.LCFI2:
 174              		.cfi_def_cfa_offset 32
 175 0004 0546     		mov	r5, r0
 176 0006 0E46     		mov	r6, r1
 288:USBUSER/CMPST/usbd_cdc_if.c ****   /* USER CODE BEGIN 7 */
 177              		.loc 1 288 3 is_stmt 1 view .LVU23
 178              	.LVL7:
 301:USBUSER/CMPST/usbd_cdc_if.c **** 
 179              		.loc 1 301 3 view .LVU24
 304:USBUSER/CMPST/usbd_cdc_if.c ****   log_i("CDC_Transmit_FS .." );
 180              		.loc 1 304 3 view .LVU25
 304:USBUSER/CMPST/usbd_cdc_if.c ****   log_i("CDC_Transmit_FS .." );
 181              		.loc 1 304 17 is_stmt 0 view .LVU26
 182 0008 8121     		movs	r1, #129
 183              	.LVL8:
 304:USBUSER/CMPST/usbd_cdc_if.c ****   log_i("CDC_Transmit_FS .." );
 184              		.loc 1 304 17 view .LVU27
 185 000a 2348     		ldr	r0, .L15
 186              	.LVL9:
 304:USBUSER/CMPST/usbd_cdc_if.c ****   log_i("CDC_Transmit_FS .." );
 187              		.loc 1 304 17 view .LVU28
 188 000c FFF7FEFF 		bl	USBD_CoreFindEP
 189              	.LVL10:
 190 0010 0446     		mov	r4, r0
 191              	.LVL11:
 305:USBUSER/CMPST/usbd_cdc_if.c ****   if (((uint8_t)idx != 0xFFU) && (idx < USBD_MAX_SUPPORTED_CLASS))
 192              		.loc 1 305 3 is_stmt 1 view .LVU29
 193 0012 224B     		ldr	r3, .L15+4
 194 0014 0193     		str	r3, [sp, #4]
ARM GAS  C:\Users\Jim_YW\AppData\Local\Temp\ccpYu19a.s 			page 11


 195 0016 40F23113 		movw	r3, #305
 196 001a 0093     		str	r3, [sp]
 197 001c 204B     		ldr	r3, .L15+8
 198 001e 214A     		ldr	r2, .L15+12
 199 0020 2149     		ldr	r1, .L15+16
 200 0022 0320     		movs	r0, #3
 201 0024 FFF7FEFF 		bl	elog_output
 202              	.LVL12:
 306:USBUSER/CMPST/usbd_cdc_if.c ****   {
 203              		.loc 1 306 3 view .LVU30
 306:USBUSER/CMPST/usbd_cdc_if.c ****   {
 204              		.loc 1 306 6 is_stmt 0 view .LVU31
 205 0028 032C     		cmp	r4, #3
 206 002a 02D9     		bls	.L13
 288:USBUSER/CMPST/usbd_cdc_if.c ****   /* USER CODE BEGIN 7 */
 207              		.loc 1 288 11 view .LVU32
 208 002c 0020     		movs	r0, #0
 209              	.LVL13:
 210              	.L9:
 331:USBUSER/CMPST/usbd_cdc_if.c **** 
 211              		.loc 1 331 1 view .LVU33
 212 002e 03B0     		add	sp, sp, #12
 213              	.LCFI3:
 214              		.cfi_remember_state
 215              		.cfi_def_cfa_offset 20
 216              		@ sp needed
 217 0030 F0BD     		pop	{r4, r5, r6, r7, pc}
 218              	.LVL14:
 219              	.L13:
 220              	.LCFI4:
 221              		.cfi_restore_state
 222              	.LBB2:
 309:USBUSER/CMPST/usbd_cdc_if.c ****     USBD_CDC_HandleTypeDef *hcdc = (USBD_CDC_HandleTypeDef*)hUsbDeviceFS.pClassDataCmsit[pdev->clas
 223              		.loc 1 309 5 is_stmt 1 view .LVU34
 309:USBUSER/CMPST/usbd_cdc_if.c ****     USBD_CDC_HandleTypeDef *hcdc = (USBD_CDC_HandleTypeDef*)hUsbDeviceFS.pClassDataCmsit[pdev->clas
 224              		.loc 1 309 19 is_stmt 0 view .LVU35
 225 0032 194F     		ldr	r7, .L15
 226 0034 C7F8F842 		str	r4, [r7, #760]
 310:USBUSER/CMPST/usbd_cdc_if.c ****     
 227              		.loc 1 310 5 is_stmt 1 view .LVU36
 310:USBUSER/CMPST/usbd_cdc_if.c ****     
 228              		.loc 1 310 29 is_stmt 0 view .LVU37
 229 0038 B234     		adds	r4, r4, #178
 230              	.LVL15:
 310:USBUSER/CMPST/usbd_cdc_if.c ****     
 231              		.loc 1 310 29 view .LVU38
 232 003a 07EB8404 		add	r4, r7, r4, lsl #2
 233 003e 6468     		ldr	r4, [r4, #4]
 234              	.LVL16:
 312:USBUSER/CMPST/usbd_cdc_if.c **** 
 235              		.loc 1 312 5 is_stmt 1 view .LVU39
 236 0040 1A4B     		ldr	r3, .L15+20
 237 0042 0193     		str	r3, [sp, #4]
 238 0044 4FF49C73 		mov	r3, #312
 239 0048 0093     		str	r3, [sp]
 240 004a 154B     		ldr	r3, .L15+8
 241 004c 154A     		ldr	r2, .L15+12
ARM GAS  C:\Users\Jim_YW\AppData\Local\Temp\ccpYu19a.s 			page 12


 242 004e 1649     		ldr	r1, .L15+16
 243 0050 0320     		movs	r0, #3
 244 0052 FFF7FEFF 		bl	elog_output
 245              	.LVL17:
 315:USBUSER/CMPST/usbd_cdc_if.c ****     // hcdc->USBD_CDC_EP0_RxReady(pdev);
 246              		.loc 1 315 5 view .LVU40
 315:USBUSER/CMPST/usbd_cdc_if.c ****     // hcdc->USBD_CDC_EP0_RxReady(pdev);
 247              		.loc 1 315 22 is_stmt 0 view .LVU41
 248 0056 D7F8F832 		ldr	r3, [r7, #760]
 315:USBUSER/CMPST/usbd_cdc_if.c ****     // hcdc->USBD_CDC_EP0_RxReady(pdev);
 249              		.loc 1 315 17 view .LVU42
 250 005a AE33     		adds	r3, r3, #174
 251 005c 57F82330 		ldr	r3, [r7, r3, lsl #2]
 315:USBUSER/CMPST/usbd_cdc_if.c ****     // hcdc->USBD_CDC_EP0_RxReady(pdev);
 252              		.loc 1 315 32 view .LVU43
 253 0060 1B69     		ldr	r3, [r3, #16]
 315:USBUSER/CMPST/usbd_cdc_if.c ****     // hcdc->USBD_CDC_EP0_RxReady(pdev);
 254              		.loc 1 315 5 view .LVU44
 255 0062 3846     		mov	r0, r7
 256 0064 9847     		blx	r3
 257              	.LVL18:
 317:USBUSER/CMPST/usbd_cdc_if.c ****       return USBD_BUSY;
 258              		.loc 1 317 5 is_stmt 1 view .LVU45
 317:USBUSER/CMPST/usbd_cdc_if.c ****       return USBD_BUSY;
 259              		.loc 1 317 13 is_stmt 0 view .LVU46
 260 0066 D4F81432 		ldr	r3, [r4, #532]
 317:USBUSER/CMPST/usbd_cdc_if.c ****       return USBD_BUSY;
 261              		.loc 1 317 8 view .LVU47
 262 006a 0BB1     		cbz	r3, .L14
 318:USBUSER/CMPST/usbd_cdc_if.c ****     }
 263              		.loc 1 318 14 view .LVU48
 264 006c 0120     		movs	r0, #1
 265 006e DEE7     		b	.L9
 266              	.L14:
 320:USBUSER/CMPST/usbd_cdc_if.c ****     USBD_CDC_SetTxBuffer(pdev, Buf, Len);
 267              		.loc 1 320 5 is_stmt 1 view .LVU49
 268 0070 0F4B     		ldr	r3, .L15+24
 269 0072 0193     		str	r3, [sp, #4]
 270 0074 4FF4A073 		mov	r3, #320
 271 0078 0093     		str	r3, [sp]
 272 007a 094B     		ldr	r3, .L15+8
 273 007c 094A     		ldr	r2, .L15+12
 274 007e 0A49     		ldr	r1, .L15+16
 275 0080 0320     		movs	r0, #3
 276 0082 FFF7FEFF 		bl	elog_output
 277              	.LVL19:
 321:USBUSER/CMPST/usbd_cdc_if.c ****     result = USBD_CDC_TransmitPacket(pdev);
 278              		.loc 1 321 5 view .LVU50
 279 0086 3246     		mov	r2, r6
 280 0088 2946     		mov	r1, r5
 281 008a 3846     		mov	r0, r7
 282 008c FFF7FEFF 		bl	USBD_CDC_SetTxBuffer
 283              	.LVL20:
 322:USBUSER/CMPST/usbd_cdc_if.c ****  
 284              		.loc 1 322 5 view .LVU51
 322:USBUSER/CMPST/usbd_cdc_if.c ****  
 285              		.loc 1 322 14 is_stmt 0 view .LVU52
ARM GAS  C:\Users\Jim_YW\AppData\Local\Temp\ccpYu19a.s 			page 13


 286 0090 3846     		mov	r0, r7
 287 0092 FFF7FEFF 		bl	USBD_CDC_TransmitPacket
 288              	.LVL21:
 322:USBUSER/CMPST/usbd_cdc_if.c ****  
 289              		.loc 1 322 14 view .LVU53
 290 0096 CAE7     		b	.L9
 291              	.L16:
 292              		.align	2
 293              	.L15:
 294 0098 00000000 		.word	hUsbDeviceFS
 295 009c 24000000 		.word	.LC2
 296 00a0 00000000 		.word	.LANCHOR2
 297 00a4 00000000 		.word	.LC0
 298 00a8 1C000000 		.word	.LC1
 299 00ac 38000000 		.word	.LC3
 300 00b0 50000000 		.word	.LC4
 301              	.LBE2:
 302              		.cfi_endproc
 303              	.LFE138:
 305              		.section	.text.CDC_Receive_FS,"ax",%progbits
 306              		.align	1
 307              		.syntax unified
 308              		.thumb
 309              		.thumb_func
 311              	CDC_Receive_FS:
 312              	.LVL22:
 313              	.LFB137:
 263:USBUSER/CMPST/usbd_cdc_if.c ****  
 314              		.loc 1 263 1 is_stmt 1 view -0
 315              		.cfi_startproc
 316              		@ args = 0, pretend = 0, frame = 0
 317              		@ frame_needed = 0, uses_anonymous_args = 0
 263:USBUSER/CMPST/usbd_cdc_if.c ****  
 318              		.loc 1 263 1 is_stmt 0 view .LVU55
 319 0000 38B5     		push	{r3, r4, r5, lr}
 320              	.LCFI5:
 321              		.cfi_def_cfa_offset 16
 322              		.cfi_offset 3, -16
 323              		.cfi_offset 4, -12
 324              		.cfi_offset 5, -8
 325              		.cfi_offset 14, -4
 326 0002 0C46     		mov	r4, r1
 266:USBUSER/CMPST/usbd_cdc_if.c ****   USBD_CDC_ReceivePacket(&hUsbDeviceFS);
 327              		.loc 1 266 3 is_stmt 1 view .LVU56
 328 0004 064D     		ldr	r5, .L19
 329 0006 0146     		mov	r1, r0
 330              	.LVL23:
 266:USBUSER/CMPST/usbd_cdc_if.c ****   USBD_CDC_ReceivePacket(&hUsbDeviceFS);
 331              		.loc 1 266 3 is_stmt 0 view .LVU57
 332 0008 2846     		mov	r0, r5
 333              	.LVL24:
 266:USBUSER/CMPST/usbd_cdc_if.c ****   USBD_CDC_ReceivePacket(&hUsbDeviceFS);
 334              		.loc 1 266 3 view .LVU58
 335 000a FFF7FEFF 		bl	USBD_CDC_SetRxBuffer
 336              	.LVL25:
 267:USBUSER/CMPST/usbd_cdc_if.c **** 
 337              		.loc 1 267 3 is_stmt 1 view .LVU59
ARM GAS  C:\Users\Jim_YW\AppData\Local\Temp\ccpYu19a.s 			page 14


 338 000e 2846     		mov	r0, r5
 339 0010 FFF7FEFF 		bl	USBD_CDC_ReceivePacket
 340              	.LVL26:
 269:USBUSER/CMPST/usbd_cdc_if.c **** 
 341              		.loc 1 269 2 view .LVU60
 342 0014 2188     		ldrh	r1, [r4]
 343 0016 0348     		ldr	r0, .L19+4
 344 0018 FFF7FEFF 		bl	CDC_Transmit_FS
 345              	.LVL27:
 271:USBUSER/CMPST/usbd_cdc_if.c ****   /* USER CODE END 6 */
 346              		.loc 1 271 3 view .LVU61
 273:USBUSER/CMPST/usbd_cdc_if.c **** 
 347              		.loc 1 273 1 is_stmt 0 view .LVU62
 348 001c 0020     		movs	r0, #0
 349 001e 38BD     		pop	{r3, r4, r5, pc}
 350              	.LVL28:
 351              	.L20:
 273:USBUSER/CMPST/usbd_cdc_if.c **** 
 352              		.loc 1 273 1 view .LVU63
 353              		.align	2
 354              	.L19:
 355 0020 00000000 		.word	hUsbDeviceFS
 356 0024 00000000 		.word	.LANCHOR1
 357              		.cfi_endproc
 358              	.LFE137:
 360              		.global	USBD_Interface_fops_FS
 361              		.global	UserTxBufferFS
 362              		.global	UserRxBufferFS
 363              		.section	.bss.UserRxBufferFS,"aw",%nobits
 364              		.align	2
 365              		.set	.LANCHOR1,. + 0
 368              	UserRxBufferFS:
 369 0000 00000000 		.space	2048
 369      00000000 
 369      00000000 
 369      00000000 
 369      00000000 
 370              		.section	.bss.UserTxBufferFS,"aw",%nobits
 371              		.align	2
 372              		.set	.LANCHOR0,. + 0
 375              	UserTxBufferFS:
 376 0000 00000000 		.space	2048
 376      00000000 
 376      00000000 
 376      00000000 
 376      00000000 
 377              		.section	.data.USBD_Interface_fops_FS,"aw"
 378              		.align	2
 381              	USBD_Interface_fops_FS:
 382 0000 00000000 		.word	CDC_Init_FS
 383 0004 00000000 		.word	CDC_DeInit_FS
 384 0008 00000000 		.word	CDC_Control_FS
 385 000c 00000000 		.word	CDC_Receive_FS
 386 0010 00000000 		.word	CDC_TransmitCplt_FS
 387              		.section	.rodata.__FUNCTION__.0,"a"
 388              		.align	2
 389              		.set	.LANCHOR2,. + 0
ARM GAS  C:\Users\Jim_YW\AppData\Local\Temp\ccpYu19a.s 			page 15


 392              	__FUNCTION__.0:
 393 0000 4344435F 		.ascii	"CDC_Transmit_FS\000"
 393      5472616E 
 393      736D6974 
 393      5F465300 
 394              		.text
 395              	.Letext0:
 396              		.file 2 "c:\\program files (x86)\\gnu arm embedded toolchain\\10 2021.10\\arm-none-eabi\\include\\
 397              		.file 3 "c:\\program files (x86)\\gnu arm embedded toolchain\\10 2021.10\\arm-none-eabi\\include\\
 398              		.file 4 "USBLIB/Core/Inc/usbd_def.h"
 399              		.file 5 "USBLIB/Class/CDC/Inc/usbd_cdc.h"
 400              		.file 6 "USBUSER/CMPST/usbd_cdc_if.h"
 401              		.file 7 "../../../easylogger/inc/elog.h"
 402              		.file 8 "USBLIB/Core/Inc/usbd_core.h"
ARM GAS  C:\Users\Jim_YW\AppData\Local\Temp\ccpYu19a.s 			page 16


DEFINED SYMBOLS
                            *ABS*:00000000 usbd_cdc_if.c
C:\Users\Jim_YW\AppData\Local\Temp\ccpYu19a.s:20     .text.CDC_DeInit_FS:00000000 $t
C:\Users\Jim_YW\AppData\Local\Temp\ccpYu19a.s:25     .text.CDC_DeInit_FS:00000000 CDC_DeInit_FS
C:\Users\Jim_YW\AppData\Local\Temp\ccpYu19a.s:41     .text.CDC_Control_FS:00000000 $t
C:\Users\Jim_YW\AppData\Local\Temp\ccpYu19a.s:46     .text.CDC_Control_FS:00000000 CDC_Control_FS
C:\Users\Jim_YW\AppData\Local\Temp\ccpYu19a.s:65     .text.CDC_TransmitCplt_FS:00000000 $t
C:\Users\Jim_YW\AppData\Local\Temp\ccpYu19a.s:70     .text.CDC_TransmitCplt_FS:00000000 CDC_TransmitCplt_FS
C:\Users\Jim_YW\AppData\Local\Temp\ccpYu19a.s:92     .text.CDC_Init_FS:00000000 $t
C:\Users\Jim_YW\AppData\Local\Temp\ccpYu19a.s:97     .text.CDC_Init_FS:00000000 CDC_Init_FS
C:\Users\Jim_YW\AppData\Local\Temp\ccpYu19a.s:127    .text.CDC_Init_FS:0000001c $d
C:\Users\Jim_YW\AppData\Local\Temp\ccpYu19a.s:134    .rodata.CDC_Transmit_FS.str1.4:00000000 $d
C:\Users\Jim_YW\AppData\Local\Temp\ccpYu19a.s:150    .text.CDC_Transmit_FS:00000000 $t
C:\Users\Jim_YW\AppData\Local\Temp\ccpYu19a.s:156    .text.CDC_Transmit_FS:00000000 CDC_Transmit_FS
C:\Users\Jim_YW\AppData\Local\Temp\ccpYu19a.s:294    .text.CDC_Transmit_FS:00000098 $d
C:\Users\Jim_YW\AppData\Local\Temp\ccpYu19a.s:306    .text.CDC_Receive_FS:00000000 $t
C:\Users\Jim_YW\AppData\Local\Temp\ccpYu19a.s:311    .text.CDC_Receive_FS:00000000 CDC_Receive_FS
C:\Users\Jim_YW\AppData\Local\Temp\ccpYu19a.s:355    .text.CDC_Receive_FS:00000020 $d
C:\Users\Jim_YW\AppData\Local\Temp\ccpYu19a.s:381    .data.USBD_Interface_fops_FS:00000000 USBD_Interface_fops_FS
C:\Users\Jim_YW\AppData\Local\Temp\ccpYu19a.s:375    .bss.UserTxBufferFS:00000000 UserTxBufferFS
C:\Users\Jim_YW\AppData\Local\Temp\ccpYu19a.s:368    .bss.UserRxBufferFS:00000000 UserRxBufferFS
C:\Users\Jim_YW\AppData\Local\Temp\ccpYu19a.s:364    .bss.UserRxBufferFS:00000000 $d
C:\Users\Jim_YW\AppData\Local\Temp\ccpYu19a.s:371    .bss.UserTxBufferFS:00000000 $d
C:\Users\Jim_YW\AppData\Local\Temp\ccpYu19a.s:378    .data.USBD_Interface_fops_FS:00000000 $d
C:\Users\Jim_YW\AppData\Local\Temp\ccpYu19a.s:388    .rodata.__FUNCTION__.0:00000000 $d
C:\Users\Jim_YW\AppData\Local\Temp\ccpYu19a.s:392    .rodata.__FUNCTION__.0:00000000 __FUNCTION__.0

UNDEFINED SYMBOLS
USBD_CDC_SetTxBuffer
USBD_CDC_SetRxBuffer
hUsbDeviceFS
USBD_CoreFindEP
elog_output
USBD_CDC_TransmitPacket
USBD_CDC_ReceivePacket
