ARM GAS  C:\Users\Jim_YW\AppData\Local\Temp\ccyPkMoH.s 			page 1


   1              		.cpu cortex-m4
   2              		.arch armv7e-m
   3              		.fpu fpv4-sp-d16
   4              		.eabi_attribute 27, 1
   5              		.eabi_attribute 28, 1
   6              		.eabi_attribute 20, 1
   7              		.eabi_attribute 21, 1
   8              		.eabi_attribute 23, 3
   9              		.eabi_attribute 24, 1
  10              		.eabi_attribute 25, 1
  11              		.eabi_attribute 26, 1
  12              		.eabi_attribute 30, 1
  13              		.eabi_attribute 34, 1
  14              		.eabi_attribute 18, 4
  15              		.file	"bsp.c"
  16              		.text
  17              	.Ltext0:
  18              		.cfi_sections	.debug_frame
  19              		.section	.text.bsp_init_prepare,"ax",%progbits
  20              		.align	1
  21              		.global	bsp_init_prepare
  22              		.syntax unified
  23              		.thumb
  24              		.thumb_func
  26              	bsp_init_prepare:
  27              	.LFB131:
  28              		.file 1 "DEV/bsp.c"
   1:DEV/bsp.c     **** #include "bsp.h" 
   2:DEV/bsp.c     **** 
   3:DEV/bsp.c     **** 
   4:DEV/bsp.c     **** // #define TEST_ENV 1
   5:DEV/bsp.c     **** // UART_HandleTypeDef DebugUartHandle;
   6:DEV/bsp.c     **** // // #ifndef Flash_SPI_Handle
   7:DEV/bsp.c     **** // // SPI_HandleTypeDef Flash_SPI_Handle;
   8:DEV/bsp.c     **** // // #else
   9:DEV/bsp.c     **** // // extern SPI_HandleTypeDef Flash_SPI_Handle;
  10:DEV/bsp.c     **** // // #endif
  11:DEV/bsp.c     **** 
  12:DEV/bsp.c     **** // SPI_HandleTypeDef MY_SPI_Handle;
  13:DEV/bsp.c     **** // // HAL_SD_CardInfoTypeDef SD_CardInfo;
  14:DEV/bsp.c     **** 
  15:DEV/bsp.c     **** void bsp_init_prepare(void)
  16:DEV/bsp.c     **** {
  29              		.loc 1 16 1 view -0
  30              		.cfi_startproc
  31              		@ args = 0, pretend = 0, frame = 0
  32              		@ frame_needed = 0, uses_anonymous_args = 0
  33 0000 10B5     		push	{r4, lr}
  34              	.LCFI0:
  35              		.cfi_def_cfa_offset 8
  36              		.cfi_offset 4, -8
  37              		.cfi_offset 14, -4
  38 0002 8CB0     		sub	sp, sp, #48
  39              	.LCFI1:
  40              		.cfi_def_cfa_offset 56
  17:DEV/bsp.c     **** 	led_init();
  41              		.loc 1 17 2 view .LVU1
ARM GAS  C:\Users\Jim_YW\AppData\Local\Temp\ccyPkMoH.s 			page 2


  42 0004 FFF7FEFF 		bl	led_init
  43              	.LVL0:
  18:DEV/bsp.c     ****  
  19:DEV/bsp.c     **** 	DWT_Delay_Init( );
  44              		.loc 1 19 2 view .LVU2
  45 0008 FFF7FEFF 		bl	DWT_Delay_Init
  46              	.LVL1:
  20:DEV/bsp.c     **** 
  21:DEV/bsp.c     ****     // uart_init(&huart1,USART1,115200);
  22:DEV/bsp.c     ****     // uart_init(&huart2,USART2,115200);
  23:DEV/bsp.c     ****     // uart_init(&huart2,USART2,115200);
  24:DEV/bsp.c     **** 
  25:DEV/bsp.c     ****     uart_helper_init(huart1_helper);
  47              		.loc 1 25 5 view .LVU3
  48 000c 1E4C     		ldr	r4, .L3
  49 000e EC46     		mov	ip, sp
  50 0010 04F1100E 		add	lr, r4, #16
  51 0014 BEE80F00 		ldmia	lr!, {r0, r1, r2, r3}
  52 0018 ACE80F00 		stmia	ip!, {r0, r1, r2, r3}
  53 001c BEE80F00 		ldmia	lr!, {r0, r1, r2, r3}
  54 0020 ACE80F00 		stmia	ip!, {r0, r1, r2, r3}
  55 0024 9EE80F00 		ldm	lr, {r0, r1, r2, r3}
  56 0028 8CE80F00 		stm	ip, {r0, r1, r2, r3}
  57 002c 94E80F00 		ldm	r4, {r0, r1, r2, r3}
  58 0030 FFF7FEFF 		bl	uart_helper_init
  59              	.LVL2:
  26:DEV/bsp.c     ****     uart_helper_init(huart2_helper);
  60              		.loc 1 26 5 view .LVU4
  61 0034 154C     		ldr	r4, .L3+4
  62 0036 EC46     		mov	ip, sp
  63 0038 04F1100E 		add	lr, r4, #16
  64 003c BEE80F00 		ldmia	lr!, {r0, r1, r2, r3}
  65 0040 ACE80F00 		stmia	ip!, {r0, r1, r2, r3}
  66 0044 BEE80F00 		ldmia	lr!, {r0, r1, r2, r3}
  67 0048 ACE80F00 		stmia	ip!, {r0, r1, r2, r3}
  68 004c 9EE80F00 		ldm	lr, {r0, r1, r2, r3}
  69 0050 8CE80F00 		stm	ip, {r0, r1, r2, r3}
  70 0054 94E80F00 		ldm	r4, {r0, r1, r2, r3}
  71 0058 FFF7FEFF 		bl	uart_helper_init
  72              	.LVL3:
  27:DEV/bsp.c     ****     uart_helper_init(huart3_helper);
  73              		.loc 1 27 5 view .LVU5
  74 005c 0C4C     		ldr	r4, .L3+8
  75 005e EC46     		mov	ip, sp
  76 0060 04F1100E 		add	lr, r4, #16
  77 0064 BEE80F00 		ldmia	lr!, {r0, r1, r2, r3}
  78 0068 ACE80F00 		stmia	ip!, {r0, r1, r2, r3}
  79 006c BEE80F00 		ldmia	lr!, {r0, r1, r2, r3}
  80 0070 ACE80F00 		stmia	ip!, {r0, r1, r2, r3}
  81 0074 9EE80F00 		ldm	lr, {r0, r1, r2, r3}
  82 0078 8CE80F00 		stm	ip, {r0, r1, r2, r3}
  83 007c 94E80F00 		ldm	r4, {r0, r1, r2, r3}
  84 0080 FFF7FEFF 		bl	uart_helper_init
  85              	.LVL4:
  28:DEV/bsp.c     **** 	
  29:DEV/bsp.c     **** 	// led_init();
  30:DEV/bsp.c     ****     // MX_SPI1_Init( );
ARM GAS  C:\Users\Jim_YW\AppData\Local\Temp\ccyPkMoH.s 			page 3


  31:DEV/bsp.c     ****     // MX_SDIO_SD_Init();
  32:DEV/bsp.c     **** 
  33:DEV/bsp.c     ****     // extern SPI_HandleTypeDef hspi1;
  34:DEV/bsp.c     ****     // spiflash_init(&hspi1);
  35:DEV/bsp.c     **** 
  36:DEV/bsp.c     ****     // MX_FATFS_Init();
  37:DEV/bsp.c     **** }
  86              		.loc 1 37 1 is_stmt 0 view .LVU6
  87 0084 0CB0     		add	sp, sp, #48
  88              	.LCFI2:
  89              		.cfi_def_cfa_offset 8
  90              		@ sp needed
  91 0086 10BD     		pop	{r4, pc}
  92              	.L4:
  93              		.align	2
  94              	.L3:
  95 0088 00000000 		.word	huart1_helper
  96 008c 00000000 		.word	huart2_helper
  97 0090 00000000 		.word	huart3_helper
  98              		.cfi_endproc
  99              	.LFE131:
 101              		.section	.text.bsp_init,"ax",%progbits
 102              		.align	1
 103              		.global	bsp_init
 104              		.syntax unified
 105              		.thumb
 106              		.thumb_func
 108              	bsp_init:
 109              	.LFB132:
  38:DEV/bsp.c     **** 
  39:DEV/bsp.c     **** void bsp_init(void)
  40:DEV/bsp.c     **** {
 110              		.loc 1 40 1 is_stmt 1 view -0
 111              		.cfi_startproc
 112              		@ args = 0, pretend = 0, frame = 0
 113              		@ frame_needed = 0, uses_anonymous_args = 0
 114 0000 10B5     		push	{r4, lr}
 115              	.LCFI3:
 116              		.cfi_def_cfa_offset 8
 117              		.cfi_offset 4, -8
 118              		.cfi_offset 14, -4
 119 0002 8CB0     		sub	sp, sp, #48
 120              	.LCFI4:
 121              		.cfi_def_cfa_offset 56
  41:DEV/bsp.c     **** 
  42:DEV/bsp.c     **** 
  43:DEV/bsp.c     **** 
  44:DEV/bsp.c     **** 	uart_helper_init(huart1_helper);
 122              		.loc 1 44 2 view .LVU8
 123 0004 1E4C     		ldr	r4, .L7
 124 0006 EC46     		mov	ip, sp
 125 0008 04F1100E 		add	lr, r4, #16
 126 000c BEE80F00 		ldmia	lr!, {r0, r1, r2, r3}
 127 0010 ACE80F00 		stmia	ip!, {r0, r1, r2, r3}
 128 0014 BEE80F00 		ldmia	lr!, {r0, r1, r2, r3}
 129 0018 ACE80F00 		stmia	ip!, {r0, r1, r2, r3}
 130 001c 9EE80F00 		ldm	lr, {r0, r1, r2, r3}
ARM GAS  C:\Users\Jim_YW\AppData\Local\Temp\ccyPkMoH.s 			page 4


 131 0020 8CE80F00 		stm	ip, {r0, r1, r2, r3}
 132 0024 94E80F00 		ldm	r4, {r0, r1, r2, r3}
 133 0028 FFF7FEFF 		bl	uart_helper_init
 134              	.LVL5:
  45:DEV/bsp.c     ****     uart_helper_init(huart2_helper);
 135              		.loc 1 45 5 view .LVU9
 136 002c 154C     		ldr	r4, .L7+4
 137 002e EC46     		mov	ip, sp
 138 0030 04F1100E 		add	lr, r4, #16
 139 0034 BEE80F00 		ldmia	lr!, {r0, r1, r2, r3}
 140 0038 ACE80F00 		stmia	ip!, {r0, r1, r2, r3}
 141 003c BEE80F00 		ldmia	lr!, {r0, r1, r2, r3}
 142 0040 ACE80F00 		stmia	ip!, {r0, r1, r2, r3}
 143 0044 9EE80F00 		ldm	lr, {r0, r1, r2, r3}
 144 0048 8CE80F00 		stm	ip, {r0, r1, r2, r3}
 145 004c 94E80F00 		ldm	r4, {r0, r1, r2, r3}
 146 0050 FFF7FEFF 		bl	uart_helper_init
 147              	.LVL6:
  46:DEV/bsp.c     ****     uart_helper_init(huart3_helper);
 148              		.loc 1 46 5 view .LVU10
 149 0054 0C4C     		ldr	r4, .L7+8
 150 0056 EC46     		mov	ip, sp
 151 0058 04F1100E 		add	lr, r4, #16
 152 005c BEE80F00 		ldmia	lr!, {r0, r1, r2, r3}
 153 0060 ACE80F00 		stmia	ip!, {r0, r1, r2, r3}
 154 0064 BEE80F00 		ldmia	lr!, {r0, r1, r2, r3}
 155 0068 ACE80F00 		stmia	ip!, {r0, r1, r2, r3}
 156 006c 9EE80F00 		ldm	lr, {r0, r1, r2, r3}
 157 0070 8CE80F00 		stm	ip, {r0, r1, r2, r3}
 158 0074 94E80F00 		ldm	r4, {r0, r1, r2, r3}
 159 0078 FFF7FEFF 		bl	uart_helper_init
 160              	.LVL7:
  47:DEV/bsp.c     **** 
  48:DEV/bsp.c     **** //     log_i("bsp_init .....");
  49:DEV/bsp.c     **** 
  50:DEV/bsp.c     **** //     // BSP_SD_Init();
  51:DEV/bsp.c     **** //     BSP_SD_GetCardInfo(&SD_CardInfo);
  52:DEV/bsp.c     **** //     // printf(" SD_CardInfo ->  %d \r\n ", SD_CardInfo.BlockSize );
  53:DEV/bsp.c     **** 
  54:DEV/bsp.c     **** 	
  55:DEV/bsp.c     **** 
  56:DEV/bsp.c     **** // #if (TEST_ENV ==1)
  57:DEV/bsp.c     **** // 	bsp_test_fatfs_flash();
  58:DEV/bsp.c     **** // 	// bsp_test_fatfs_sd();
  59:DEV/bsp.c     **** // #endif
  60:DEV/bsp.c     **** 
  61:DEV/bsp.c     **** }
 161              		.loc 1 61 1 is_stmt 0 view .LVU11
 162 007c 0CB0     		add	sp, sp, #48
 163              	.LCFI5:
 164              		.cfi_def_cfa_offset 8
 165              		@ sp needed
 166 007e 10BD     		pop	{r4, pc}
 167              	.L8:
 168              		.align	2
 169              	.L7:
 170 0080 00000000 		.word	huart1_helper
ARM GAS  C:\Users\Jim_YW\AppData\Local\Temp\ccyPkMoH.s 			page 5


 171 0084 00000000 		.word	huart2_helper
 172 0088 00000000 		.word	huart3_helper
 173              		.cfi_endproc
 174              	.LFE132:
 176              		.text
 177              	.Letext0:
 178              		.file 2 "c:\\program files (x86)\\gnu arm embedded toolchain\\10 2021.10\\arm-none-eabi\\include\\
 179              		.file 3 "c:\\program files (x86)\\gnu arm embedded toolchain\\10 2021.10\\arm-none-eabi\\include\\
 180              		.file 4 "../../../Drivers/CMSIS/Device/ST/STM32F4xx/Include/stm32f407xx.h"
 181              		.file 5 "../../../Drivers/STM32F4xx_HAL_Driver/Inc/stm32f4xx_hal_def.h"
 182              		.file 6 "../../../Drivers/STM32F4xx_HAL_Driver/Inc/stm32f4xx_hal_dma.h"
 183              		.file 7 "../../../Drivers/STM32F4xx_HAL_Driver/Inc/stm32f4xx_hal_uart.h"
 184              		.file 8 "Code/platform.h"
 185              		.file 9 "DEV/dev_uart.h"
 186              		.file 10 "DEV/dev_led.h"
 187              		.file 11 "DEV/dev_dwt.h"
ARM GAS  C:\Users\Jim_YW\AppData\Local\Temp\ccyPkMoH.s 			page 6


DEFINED SYMBOLS
                            *ABS*:00000000 bsp.c
C:\Users\Jim_YW\AppData\Local\Temp\ccyPkMoH.s:20     .text.bsp_init_prepare:00000000 $t
C:\Users\Jim_YW\AppData\Local\Temp\ccyPkMoH.s:26     .text.bsp_init_prepare:00000000 bsp_init_prepare
C:\Users\Jim_YW\AppData\Local\Temp\ccyPkMoH.s:95     .text.bsp_init_prepare:00000088 $d
C:\Users\Jim_YW\AppData\Local\Temp\ccyPkMoH.s:102    .text.bsp_init:00000000 $t
C:\Users\Jim_YW\AppData\Local\Temp\ccyPkMoH.s:108    .text.bsp_init:00000000 bsp_init
C:\Users\Jim_YW\AppData\Local\Temp\ccyPkMoH.s:170    .text.bsp_init:00000080 $d

UNDEFINED SYMBOLS
led_init
DWT_Delay_Init
uart_helper_init
huart1_helper
huart2_helper
huart3_helper
