ARM GAS  C:\Users\Jim_YW\AppData\Local\Temp\ccmlIxgi.s 			page 1


   1              		.cpu cortex-m4
   2              		.arch armv7e-m
   3              		.fpu fpv4-sp-d16
   4              		.eabi_attribute 27, 1
   5              		.eabi_attribute 28, 1
   6              		.eabi_attribute 20, 1
   7              		.eabi_attribute 21, 1
   8              		.eabi_attribute 23, 3
   9              		.eabi_attribute 24, 1
  10              		.eabi_attribute 25, 1
  11              		.eabi_attribute 26, 1
  12              		.eabi_attribute 30, 1
  13              		.eabi_attribute 34, 1
  14              		.eabi_attribute 18, 4
  15              		.file	"dev_led.c"
  16              		.text
  17              	.Ltext0:
  18              		.cfi_sections	.debug_frame
  19              		.section	.text.led_setup,"ax",%progbits
  20              		.align	1
  21              		.global	led_setup
  22              		.syntax unified
  23              		.thumb
  24              		.thumb_func
  26              	led_setup:
  27              	.LVL0:
  28              	.LFB131:
  29              		.file 1 "DEV/dev_led.c"
   1:DEV/dev_led.c **** #include "dev_led.h"
   2:DEV/dev_led.c **** #include "platform.h"
   3:DEV/dev_led.c **** 
   4:DEV/dev_led.c **** static struct led *led_table[LED_MAX_NUM];
   5:DEV/dev_led.c **** static uint8_t p_led_table = 0;
   6:DEV/dev_led.c **** static uint32_t delay_time_ms = 200;
   7:DEV/dev_led.c **** 
   8:DEV/dev_led.c ****  
   9:DEV/dev_led.c **** 
  10:DEV/dev_led.c **** int led_init()
  11:DEV/dev_led.c **** {
  12:DEV/dev_led.c ****     GPIO_InitTypeDef GPIO_InitStruct = {0};
  13:DEV/dev_led.c **** 
  14:DEV/dev_led.c ****     // REDLED_GPIO_CLK_ENABLE();
  15:DEV/dev_led.c ****     // GRNLED_GPIO_CLK_ENABLE();
  16:DEV/dev_led.c ****     ENABLE_GPIO_PORT(REDLED_GPIO_Port);
  17:DEV/dev_led.c ****     ENABLE_GPIO_PORT(GRNLED_GPIO_Port);
  18:DEV/dev_led.c **** 
  19:DEV/dev_led.c ****     /*Configure GPIO pins : PFPin PFPin */
  20:DEV/dev_led.c ****     GPIO_InitStruct.Mode = GPIO_MODE_OUTPUT_PP;
  21:DEV/dev_led.c ****     GPIO_InitStruct.Pull = GPIO_NOPULL;
  22:DEV/dev_led.c ****     GPIO_InitStruct.Speed = GPIO_SPEED_FREQ_LOW;
  23:DEV/dev_led.c **** 
  24:DEV/dev_led.c ****     GPIO_InitStruct.Pin = REDLED_Pin;
  25:DEV/dev_led.c ****     HAL_GPIO_Init(REDLED_GPIO_Port, &GPIO_InitStruct);
  26:DEV/dev_led.c **** 
  27:DEV/dev_led.c ****     GPIO_InitStruct.Pin = GRNLED_Pin;
  28:DEV/dev_led.c ****     HAL_GPIO_Init(GRNLED_GPIO_Port, &GPIO_InitStruct);
  29:DEV/dev_led.c **** 
ARM GAS  C:\Users\Jim_YW\AppData\Local\Temp\ccmlIxgi.s 			page 2


  30:DEV/dev_led.c ****     HAL_GPIO_WritePin(REDLED_GPIO_Port, REDLED_Pin , GPIO_PIN_RESET);
  31:DEV/dev_led.c ****     HAL_GPIO_WritePin(GRNLED_GPIO_Port,  GRNLED_Pin, GPIO_PIN_RESET);
  32:DEV/dev_led.c **** 
  33:DEV/dev_led.c ****     led_setup(LED_COLOR_RED, REDLED_GPIO_Port,REDLED_Pin, LED_STATE_ON, RESET);
  34:DEV/dev_led.c ****     led_set_state(LED_COLOR_RED, LED_STATE_FLICKER_MEDIUM);
  35:DEV/dev_led.c **** 
  36:DEV/dev_led.c ****     led_setup(LED_COLOR_GRN, GRNLED_GPIO_Port, GRNLED_Pin, LED_STATE_ON, RESET);
  37:DEV/dev_led.c ****     led_set_state(LED_COLOR_GRN, LED_STATE_FLICKER_MEDIUM);
  38:DEV/dev_led.c **** 
  39:DEV/dev_led.c ****     return 0;
  40:DEV/dev_led.c **** }
  41:DEV/dev_led.c **** 
  42:DEV/dev_led.c **** // #if( RTOS_ENABLE ==1)
  43:DEV/dev_led.c **** // void Led_Task(void *argument)
  44:DEV/dev_led.c **** // {
  45:DEV/dev_led.c **** //     uint16_t *delay_ms = argument;
  46:DEV/dev_led.c **** //     for (;;)
  47:DEV/dev_led.c **** //     {
  48:DEV/dev_led.c **** //         led_callback();
  49:DEV/dev_led.c **** //         osDelay(*delay_ms);
  50:DEV/dev_led.c **** //         // osDelay(200);
  51:DEV/dev_led.c **** //     }
  52:DEV/dev_led.c **** // }
  53:DEV/dev_led.c **** 
  54:DEV/dev_led.c **** // void Led_Port(uint16_t delay_ms)
  55:DEV/dev_led.c **** // {
  56:DEV/dev_led.c **** //     delay_time_ms = delay_ms;
  57:DEV/dev_led.c **** //     ledHandle = osThreadNew(Led_Task, (void *)(&delay_time_ms), &led_attributes);
  58:DEV/dev_led.c **** //     return 0;
  59:DEV/dev_led.c **** // }
  60:DEV/dev_led.c **** // #endif
  61:DEV/dev_led.c **** 
  62:DEV/dev_led.c **** int led_setup(uint8_t seq, GPIO_TypeDef *gpio, uint16_t pin, enum led_state state, uint16_t level_o
  63:DEV/dev_led.c **** {
  30              		.loc 1 63 1 view -0
  31              		.cfi_startproc
  32              		@ args = 4, pretend = 0, frame = 0
  33              		@ frame_needed = 0, uses_anonymous_args = 0
  64:DEV/dev_led.c ****     if (seq >= LED_MAX_NUM  || seq < 0)
  34              		.loc 1 64 5 view .LVU1
  35              		.loc 1 64 8 is_stmt 0 view .LVU2
  36 0000 0128     		cmp	r0, #1
  37 0002 1BD8     		bhi	.L3
  63:DEV/dev_led.c ****     if (seq >= LED_MAX_NUM  || seq < 0)
  38              		.loc 1 63 1 view .LVU3
  39 0004 2DE9F041 		push	{r4, r5, r6, r7, r8, lr}
  40              	.LCFI0:
  41              		.cfi_def_cfa_offset 24
  42              		.cfi_offset 4, -24
  43              		.cfi_offset 5, -20
  44              		.cfi_offset 6, -16
  45              		.cfi_offset 7, -12
  46              		.cfi_offset 8, -8
  47              		.cfi_offset 14, -4
  48 0008 0546     		mov	r5, r0
  49 000a 8846     		mov	r8, r1
  50 000c 1746     		mov	r7, r2
ARM GAS  C:\Users\Jim_YW\AppData\Local\Temp\ccmlIxgi.s 			page 3


  51 000e 1E46     		mov	r6, r3
  65:DEV/dev_led.c ****     {
  66:DEV/dev_led.c ****         return -1;
  67:DEV/dev_led.c ****     }
  68:DEV/dev_led.c ****     struct led *Handle = (struct led *)malloc(sizeof(struct led));
  52              		.loc 1 68 5 is_stmt 1 view .LVU4
  53              		.loc 1 68 40 is_stmt 0 view .LVU5
  54 0010 1020     		movs	r0, #16
  55              	.LVL1:
  56              		.loc 1 68 40 view .LVU6
  57 0012 FFF7FEFF 		bl	malloc
  58              	.LVL2:
  69:DEV/dev_led.c ****     if (Handle == NULL)
  59              		.loc 1 69 5 is_stmt 1 view .LVU7
  60              		.loc 1 69 8 is_stmt 0 view .LVU8
  61 0016 A0B1     		cbz	r0, .L4
  70:DEV/dev_led.c ****     {
  71:DEV/dev_led.c ****         return -1;
  72:DEV/dev_led.c ****     }
  73:DEV/dev_led.c ****     led_table[seq] = Handle;
  62              		.loc 1 73 5 is_stmt 1 view .LVU9
  63              		.loc 1 73 20 is_stmt 0 view .LVU10
  64 0018 0B4B     		ldr	r3, .L9
  65 001a 43F82500 		str	r0, [r3, r5, lsl #2]
  74:DEV/dev_led.c ****     led_table[seq]->gpio = gpio;
  66              		.loc 1 74 5 is_stmt 1 view .LVU11
  67              		.loc 1 74 26 is_stmt 0 view .LVU12
  68 001e C0F80480 		str	r8, [r0, #4]
  75:DEV/dev_led.c ****     led_table[seq]->pin = pin;
  69              		.loc 1 75 5 is_stmt 1 view .LVU13
  70              		.loc 1 75 25 is_stmt 0 view .LVU14
  71 0022 0781     		strh	r7, [r0, #8]	@ movhi
  76:DEV/dev_led.c ****     led_table[seq]->state = state;
  72              		.loc 1 76 5 is_stmt 1 view .LVU15
  73              		.loc 1 76 27 is_stmt 0 view .LVU16
  74 0024 0670     		strb	r6, [r0]
  77:DEV/dev_led.c ****     led_table[seq]->level_on = level_on;
  75              		.loc 1 77 5 is_stmt 1 view .LVU17
  76              		.loc 1 77 30 is_stmt 0 view .LVU18
  77 0026 BDF81830 		ldrh	r3, [sp, #24]
  78 002a 4381     		strh	r3, [r0, #10]	@ movhi
  78:DEV/dev_led.c ****     led_table[seq]->seq = seq;
  79              		.loc 1 78 5 is_stmt 1 view .LVU19
  80              		.loc 1 78 25 is_stmt 0 view .LVU20
  81 002c 8581     		strh	r5, [r0, #12]	@ movhi
  79:DEV/dev_led.c ****     p_led_table++;
  82              		.loc 1 79 5 is_stmt 1 view .LVU21
  83              		.loc 1 79 16 is_stmt 0 view .LVU22
  84 002e 074A     		ldr	r2, .L9+4
  85 0030 1378     		ldrb	r3, [r2]	@ zero_extendqisi2
  86 0032 0133     		adds	r3, r3, #1
  87 0034 1370     		strb	r3, [r2]
  80:DEV/dev_led.c ****     return 0;
  88              		.loc 1 80 5 is_stmt 1 view .LVU23
  89              		.loc 1 80 12 is_stmt 0 view .LVU24
  90 0036 0020     		movs	r0, #0
  91              	.LVL3:
ARM GAS  C:\Users\Jim_YW\AppData\Local\Temp\ccmlIxgi.s 			page 4


  92              	.L1:
  81:DEV/dev_led.c **** }
  93              		.loc 1 81 1 view .LVU25
  94 0038 BDE8F081 		pop	{r4, r5, r6, r7, r8, pc}
  95              	.LVL4:
  96              	.L3:
  97              	.LCFI1:
  98              		.cfi_def_cfa_offset 0
  99              		.cfi_restore 4
 100              		.cfi_restore 5
 101              		.cfi_restore 6
 102              		.cfi_restore 7
 103              		.cfi_restore 8
 104              		.cfi_restore 14
  66:DEV/dev_led.c ****     }
 105              		.loc 1 66 16 view .LVU26
 106 003c 4FF0FF30 		mov	r0, #-1
 107              	.LVL5:
 108              		.loc 1 81 1 view .LVU27
 109 0040 7047     		bx	lr
 110              	.LVL6:
 111              	.L4:
 112              	.LCFI2:
 113              		.cfi_def_cfa_offset 24
 114              		.cfi_offset 4, -24
 115              		.cfi_offset 5, -20
 116              		.cfi_offset 6, -16
 117              		.cfi_offset 7, -12
 118              		.cfi_offset 8, -8
 119              		.cfi_offset 14, -4
  71:DEV/dev_led.c ****     }
 120              		.loc 1 71 16 view .LVU28
 121 0042 4FF0FF30 		mov	r0, #-1
 122              	.LVL7:
  71:DEV/dev_led.c ****     }
 123              		.loc 1 71 16 view .LVU29
 124 0046 F7E7     		b	.L1
 125              	.L10:
 126              		.align	2
 127              	.L9:
 128 0048 00000000 		.word	.LANCHOR0
 129 004c 00000000 		.word	.LANCHOR1
 130              		.cfi_endproc
 131              	.LFE131:
 133              		.section	.text.led_set_state,"ax",%progbits
 134              		.align	1
 135              		.global	led_set_state
 136              		.syntax unified
 137              		.thumb
 138              		.thumb_func
 140              	led_set_state:
 141              	.LVL8:
 142              	.LFB132:
  82:DEV/dev_led.c **** 
  83:DEV/dev_led.c **** int led_set_state(uint8_t seq, enum led_state state)
  84:DEV/dev_led.c **** {
 143              		.loc 1 84 1 is_stmt 1 view -0
ARM GAS  C:\Users\Jim_YW\AppData\Local\Temp\ccmlIxgi.s 			page 5


 144              		.cfi_startproc
 145              		@ args = 0, pretend = 0, frame = 0
 146              		@ frame_needed = 0, uses_anonymous_args = 0
 147              		@ link register save eliminated.
  85:DEV/dev_led.c ****     if (led_table[seq] == NULL)
 148              		.loc 1 85 5 view .LVU31
 149              		.loc 1 85 18 is_stmt 0 view .LVU32
 150 0000 044B     		ldr	r3, .L14
 151 0002 53F82030 		ldr	r3, [r3, r0, lsl #2]
 152              		.loc 1 85 8 view .LVU33
 153 0006 13B1     		cbz	r3, .L13
  86:DEV/dev_led.c ****     {
  87:DEV/dev_led.c ****         return -1;
  88:DEV/dev_led.c ****     }
  89:DEV/dev_led.c ****     led_table[seq]->state = state;
 154              		.loc 1 89 5 is_stmt 1 view .LVU34
 155              		.loc 1 89 27 is_stmt 0 view .LVU35
 156 0008 1970     		strb	r1, [r3]
  90:DEV/dev_led.c ****     return 0;
 157              		.loc 1 90 5 is_stmt 1 view .LVU36
 158              		.loc 1 90 12 is_stmt 0 view .LVU37
 159 000a 0020     		movs	r0, #0
 160              	.LVL9:
 161              		.loc 1 90 12 view .LVU38
 162 000c 7047     		bx	lr
 163              	.LVL10:
 164              	.L13:
  87:DEV/dev_led.c ****     }
 165              		.loc 1 87 16 view .LVU39
 166 000e 4FF0FF30 		mov	r0, #-1
 167              	.LVL11:
  91:DEV/dev_led.c **** }
 168              		.loc 1 91 1 view .LVU40
 169 0012 7047     		bx	lr
 170              	.L15:
 171              		.align	2
 172              	.L14:
 173 0014 00000000 		.word	.LANCHOR0
 174              		.cfi_endproc
 175              	.LFE132:
 177              		.section	.text.led_init,"ax",%progbits
 178              		.align	1
 179              		.global	led_init
 180              		.syntax unified
 181              		.thumb
 182              		.thumb_func
 184              	led_init:
 185              	.LFB130:
  11:DEV/dev_led.c ****     GPIO_InitTypeDef GPIO_InitStruct = {0};
 186              		.loc 1 11 1 is_stmt 1 view -0
 187              		.cfi_startproc
 188              		@ args = 0, pretend = 0, frame = 24
 189              		@ frame_needed = 0, uses_anonymous_args = 0
 190 0000 2DE9F041 		push	{r4, r5, r6, r7, r8, lr}
 191              	.LCFI3:
 192              		.cfi_def_cfa_offset 24
 193              		.cfi_offset 4, -24
ARM GAS  C:\Users\Jim_YW\AppData\Local\Temp\ccmlIxgi.s 			page 6


 194              		.cfi_offset 5, -20
 195              		.cfi_offset 6, -16
 196              		.cfi_offset 7, -12
 197              		.cfi_offset 8, -8
 198              		.cfi_offset 14, -4
 199 0004 88B0     		sub	sp, sp, #32
 200              	.LCFI4:
 201              		.cfi_def_cfa_offset 56
  12:DEV/dev_led.c **** 
 202              		.loc 1 12 5 view .LVU42
  12:DEV/dev_led.c **** 
 203              		.loc 1 12 22 is_stmt 0 view .LVU43
 204 0006 0024     		movs	r4, #0
 205 0008 0394     		str	r4, [sp, #12]
 206 000a 0494     		str	r4, [sp, #16]
 207 000c 0594     		str	r4, [sp, #20]
 208 000e 0694     		str	r4, [sp, #24]
 209 0010 0794     		str	r4, [sp, #28]
  16:DEV/dev_led.c ****     ENABLE_GPIO_PORT(GRNLED_GPIO_Port);
 210              		.loc 1 16 5 is_stmt 1 view .LVU44
 211 0012 1F4B     		ldr	r3, .L18
 212 0014 1A6B     		ldr	r2, [r3, #48]
 213 0016 42F02002 		orr	r2, r2, #32
 214 001a 1A63     		str	r2, [r3, #48]
  17:DEV/dev_led.c **** 
 215              		.loc 1 17 5 view .LVU45
 216 001c 1A6B     		ldr	r2, [r3, #48]
 217 001e 42F02002 		orr	r2, r2, #32
 218 0022 1A63     		str	r2, [r3, #48]
  20:DEV/dev_led.c ****     GPIO_InitStruct.Pull = GPIO_NOPULL;
 219              		.loc 1 20 5 view .LVU46
  20:DEV/dev_led.c ****     GPIO_InitStruct.Pull = GPIO_NOPULL;
 220              		.loc 1 20 26 is_stmt 0 view .LVU47
 221 0024 0126     		movs	r6, #1
 222 0026 0496     		str	r6, [sp, #16]
  21:DEV/dev_led.c ****     GPIO_InitStruct.Speed = GPIO_SPEED_FREQ_LOW;
 223              		.loc 1 21 5 is_stmt 1 view .LVU48
  22:DEV/dev_led.c **** 
 224              		.loc 1 22 5 view .LVU49
  24:DEV/dev_led.c ****     HAL_GPIO_Init(REDLED_GPIO_Port, &GPIO_InitStruct);
 225              		.loc 1 24 5 view .LVU50
  24:DEV/dev_led.c ****     HAL_GPIO_Init(REDLED_GPIO_Port, &GPIO_InitStruct);
 226              		.loc 1 24 25 is_stmt 0 view .LVU51
 227 0028 4FF40078 		mov	r8, #512
 228 002c CDF80C80 		str	r8, [sp, #12]
  25:DEV/dev_led.c **** 
 229              		.loc 1 25 5 is_stmt 1 view .LVU52
 230 0030 184D     		ldr	r5, .L18+4
 231 0032 03A9     		add	r1, sp, #12
 232 0034 2846     		mov	r0, r5
 233 0036 FFF7FEFF 		bl	HAL_GPIO_Init
 234              	.LVL12:
  27:DEV/dev_led.c ****     HAL_GPIO_Init(GRNLED_GPIO_Port, &GPIO_InitStruct);
 235              		.loc 1 27 5 view .LVU53
  27:DEV/dev_led.c ****     HAL_GPIO_Init(GRNLED_GPIO_Port, &GPIO_InitStruct);
 236              		.loc 1 27 25 is_stmt 0 view .LVU54
 237 003a 4FF48067 		mov	r7, #1024
ARM GAS  C:\Users\Jim_YW\AppData\Local\Temp\ccmlIxgi.s 			page 7


 238 003e 0397     		str	r7, [sp, #12]
  28:DEV/dev_led.c **** 
 239              		.loc 1 28 5 is_stmt 1 view .LVU55
 240 0040 03A9     		add	r1, sp, #12
 241 0042 2846     		mov	r0, r5
 242 0044 FFF7FEFF 		bl	HAL_GPIO_Init
 243              	.LVL13:
  30:DEV/dev_led.c ****     HAL_GPIO_WritePin(GRNLED_GPIO_Port,  GRNLED_Pin, GPIO_PIN_RESET);
 244              		.loc 1 30 5 view .LVU56
 245 0048 2246     		mov	r2, r4
 246 004a 4146     		mov	r1, r8
 247 004c 2846     		mov	r0, r5
 248 004e FFF7FEFF 		bl	HAL_GPIO_WritePin
 249              	.LVL14:
  31:DEV/dev_led.c **** 
 250              		.loc 1 31 5 view .LVU57
 251 0052 2246     		mov	r2, r4
 252 0054 3946     		mov	r1, r7
 253 0056 2846     		mov	r0, r5
 254 0058 FFF7FEFF 		bl	HAL_GPIO_WritePin
 255              	.LVL15:
  33:DEV/dev_led.c ****     led_set_state(LED_COLOR_RED, LED_STATE_FLICKER_MEDIUM);
 256              		.loc 1 33 5 view .LVU58
 257 005c 0094     		str	r4, [sp]
 258 005e 2346     		mov	r3, r4
 259 0060 4246     		mov	r2, r8
 260 0062 2946     		mov	r1, r5
 261 0064 2046     		mov	r0, r4
 262 0066 FFF7FEFF 		bl	led_setup
 263              	.LVL16:
  34:DEV/dev_led.c **** 
 264              		.loc 1 34 5 view .LVU59
 265 006a 0221     		movs	r1, #2
 266 006c 2046     		mov	r0, r4
 267 006e FFF7FEFF 		bl	led_set_state
 268              	.LVL17:
  36:DEV/dev_led.c ****     led_set_state(LED_COLOR_GRN, LED_STATE_FLICKER_MEDIUM);
 269              		.loc 1 36 5 view .LVU60
 270 0072 0094     		str	r4, [sp]
 271 0074 2346     		mov	r3, r4
 272 0076 3A46     		mov	r2, r7
 273 0078 2946     		mov	r1, r5
 274 007a 3046     		mov	r0, r6
 275 007c FFF7FEFF 		bl	led_setup
 276              	.LVL18:
  37:DEV/dev_led.c **** 
 277              		.loc 1 37 5 view .LVU61
 278 0080 0221     		movs	r1, #2
 279 0082 3046     		mov	r0, r6
 280 0084 FFF7FEFF 		bl	led_set_state
 281              	.LVL19:
  39:DEV/dev_led.c **** }
 282              		.loc 1 39 5 view .LVU62
  40:DEV/dev_led.c **** 
 283              		.loc 1 40 1 is_stmt 0 view .LVU63
 284 0088 2046     		mov	r0, r4
 285 008a 08B0     		add	sp, sp, #32
ARM GAS  C:\Users\Jim_YW\AppData\Local\Temp\ccmlIxgi.s 			page 8


 286              	.LCFI5:
 287              		.cfi_def_cfa_offset 24
 288              		@ sp needed
 289 008c BDE8F081 		pop	{r4, r5, r6, r7, r8, pc}
 290              	.L19:
 291              		.align	2
 292              	.L18:
 293 0090 00380240 		.word	1073887232
 294 0094 00140240 		.word	1073878016
 295              		.cfi_endproc
 296              	.LFE130:
 298              		.section	.text.led_callback,"ax",%progbits
 299              		.align	1
 300              		.global	led_callback
 301              		.syntax unified
 302              		.thumb
 303              		.thumb_func
 305              	led_callback:
 306              	.LFB133:
  92:DEV/dev_led.c **** 
  93:DEV/dev_led.c **** /**
  94:DEV/dev_led.c ****  * @brief led回调函数 每100ms调用一次
  95:DEV/dev_led.c ****  *
  96:DEV/dev_led.c ****  */
  97:DEV/dev_led.c **** void led_callback( )
  98:DEV/dev_led.c **** {
 307              		.loc 1 98 1 is_stmt 1 view -0
 308              		.cfi_startproc
 309              		@ args = 0, pretend = 0, frame = 0
 310              		@ frame_needed = 0, uses_anonymous_args = 0
 311 0000 10B5     		push	{r4, lr}
 312              	.LCFI6:
 313              		.cfi_def_cfa_offset 8
 314              		.cfi_offset 4, -8
 315              		.cfi_offset 14, -4
  99:DEV/dev_led.c ****     int i;
 316              		.loc 1 99 5 view .LVU65
 100:DEV/dev_led.c ****     static uint32_t tick_con = 0;
 317              		.loc 1 100 5 view .LVU66
 101:DEV/dev_led.c ****     tick_con++;
 318              		.loc 1 101 5 view .LVU67
 319              		.loc 1 101 13 is_stmt 0 view .LVU68
 320 0002 244A     		ldr	r2, .L32
 321 0004 1368     		ldr	r3, [r2]
 322 0006 0133     		adds	r3, r3, #1
 323 0008 1360     		str	r3, [r2]
 102:DEV/dev_led.c ****     for (i = 0; i < p_led_table; i++)
 324              		.loc 1 102 5 is_stmt 1 view .LVU69
 325              	.LVL20:
 326              		.loc 1 102 12 is_stmt 0 view .LVU70
 327 000a 0024     		movs	r4, #0
 328              		.loc 1 102 5 view .LVU71
 329 000c 09E0     		b	.L21
 330              	.LVL21:
 331              	.L23:
 103:DEV/dev_led.c ****     {
 104:DEV/dev_led.c ****         switch (led_table[i]->state)
ARM GAS  C:\Users\Jim_YW\AppData\Local\Temp\ccmlIxgi.s 			page 9


 105:DEV/dev_led.c ****         {
 106:DEV/dev_led.c ****         case LED_STATE_OFF:
 107:DEV/dev_led.c ****             HAL_GPIO_WritePin(led_table[i]->gpio, led_table[i]->pin, (~led_table[i]->level_on) & 1)
 332              		.loc 1 107 13 is_stmt 1 view .LVU72
 333              		.loc 1 107 84 is_stmt 0 view .LVU73
 334 000e 5A89     		ldrh	r2, [r3, #10]
 335              		.loc 1 107 13 view .LVU74
 336 0010 82F00102 		eor	r2, r2, #1
 337 0014 02F00102 		and	r2, r2, #1
 338 0018 1989     		ldrh	r1, [r3, #8]
 339 001a 5868     		ldr	r0, [r3, #4]
 340 001c FFF7FEFF 		bl	HAL_GPIO_WritePin
 341              	.LVL22:
 108:DEV/dev_led.c ****             // GPIO_WriteBit(led_table[i]->gpio,led_table[i]->pin,(~led_table[i]->level_on)&1);
 109:DEV/dev_led.c ****             break;
 342              		.loc 1 109 13 is_stmt 1 view .LVU75
 343              	.L22:
 102:DEV/dev_led.c ****     {
 344              		.loc 1 102 34 discriminator 2 view .LVU76
 102:DEV/dev_led.c ****     {
 345              		.loc 1 102 35 is_stmt 0 discriminator 2 view .LVU77
 346 0020 0134     		adds	r4, r4, #1
 347              	.LVL23:
 348              	.L21:
 102:DEV/dev_led.c ****     {
 349              		.loc 1 102 17 is_stmt 1 discriminator 1 view .LVU78
 102:DEV/dev_led.c ****     {
 350              		.loc 1 102 19 is_stmt 0 discriminator 1 view .LVU79
 351 0022 1D4B     		ldr	r3, .L32+4
 352 0024 1B78     		ldrb	r3, [r3]	@ zero_extendqisi2
 102:DEV/dev_led.c ****     {
 353              		.loc 1 102 5 discriminator 1 view .LVU80
 354 0026 A342     		cmp	r3, r4
 355 0028 33DD     		ble	.L31
 104:DEV/dev_led.c ****         {
 356              		.loc 1 104 9 is_stmt 1 view .LVU81
 104:DEV/dev_led.c ****         {
 357              		.loc 1 104 26 is_stmt 0 view .LVU82
 358 002a 1C4B     		ldr	r3, .L32+8
 359 002c 53F82430 		ldr	r3, [r3, r4, lsl #2]
 104:DEV/dev_led.c ****         {
 360              		.loc 1 104 29 view .LVU83
 361 0030 1A78     		ldrb	r2, [r3]	@ zero_extendqisi2
 104:DEV/dev_led.c ****         {
 362              		.loc 1 104 9 view .LVU84
 363 0032 042A     		cmp	r2, #4
 364 0034 F4D8     		bhi	.L22
 365 0036 01A1     		adr	r1, .L24
 366 0038 51F822F0 		ldr	pc, [r1, r2, lsl #2]
 367              		.p2align 2
 368              	.L24:
 369 003c 51000000 		.word	.L28+1
 370 0040 7F000000 		.word	.L27+1
 371 0044 6B000000 		.word	.L26+1
 372 0048 61000000 		.word	.L25+1
 373 004c 0F000000 		.word	.L23+1
 374              		.p2align 1
ARM GAS  C:\Users\Jim_YW\AppData\Local\Temp\ccmlIxgi.s 			page 10


 375              	.L28:
 110:DEV/dev_led.c **** 
 111:DEV/dev_led.c ****         case LED_STATE_ON:
 112:DEV/dev_led.c ****             HAL_GPIO_WritePin(led_table[i]->gpio, led_table[i]->pin, led_table[i]->level_on & 1);
 376              		.loc 1 112 13 is_stmt 1 view .LVU85
 377              		.loc 1 112 82 is_stmt 0 view .LVU86
 378 0050 5A89     		ldrh	r2, [r3, #10]
 379              		.loc 1 112 13 view .LVU87
 380 0052 02F00102 		and	r2, r2, #1
 381 0056 1989     		ldrh	r1, [r3, #8]
 382 0058 5868     		ldr	r0, [r3, #4]
 383 005a FFF7FEFF 		bl	HAL_GPIO_WritePin
 384              	.LVL24:
 113:DEV/dev_led.c ****             // GPIO_WriteBit(led_table[i]->gpio,led_table[i]->pin,led_table[i]->level_on&1);
 114:DEV/dev_led.c ****             break;
 385              		.loc 1 114 13 is_stmt 1 view .LVU88
 386 005e DFE7     		b	.L22
 387              	.L25:
 115:DEV/dev_led.c **** 
 116:DEV/dev_led.c ****         case LED_STATE_FLICKER_QUICK:
 117:DEV/dev_led.c ****             HAL_GPIO_TogglePin(led_table[i]->gpio, led_table[i]->pin);
 388              		.loc 1 117 13 view .LVU89
 389 0060 1989     		ldrh	r1, [r3, #8]
 390 0062 5868     		ldr	r0, [r3, #4]
 391 0064 FFF7FEFF 		bl	HAL_GPIO_TogglePin
 392              	.LVL25:
 118:DEV/dev_led.c ****             // GPIO_WriteBit(led_table[i]->gpio,led_table[i]->pin,!GPIO_ReadOutputDataBit(led_table
 119:DEV/dev_led.c ****             break;
 393              		.loc 1 119 13 view .LVU90
 394 0068 DAE7     		b	.L22
 395              	.L26:
 120:DEV/dev_led.c **** 
 121:DEV/dev_led.c ****         case LED_STATE_FLICKER_MEDIUM:
 122:DEV/dev_led.c ****             if ((tick_con & 0x01) == 0)
 396              		.loc 1 122 13 view .LVU91
 397              		.loc 1 122 27 is_stmt 0 view .LVU92
 398 006a 0A4A     		ldr	r2, .L32
 399 006c 1268     		ldr	r2, [r2]
 400              		.loc 1 122 16 view .LVU93
 401 006e 12F0010F 		tst	r2, #1
 402 0072 D5D1     		bne	.L22
 123:DEV/dev_led.c ****             {
 124:DEV/dev_led.c ****                 HAL_GPIO_TogglePin(led_table[i]->gpio, led_table[i]->pin);
 403              		.loc 1 124 17 is_stmt 1 view .LVU94
 404 0074 1989     		ldrh	r1, [r3, #8]
 405 0076 5868     		ldr	r0, [r3, #4]
 406 0078 FFF7FEFF 		bl	HAL_GPIO_TogglePin
 407              	.LVL26:
 408 007c D0E7     		b	.L22
 409              	.L27:
 125:DEV/dev_led.c ****                 // GPIO_WriteBit(led_table[i]->gpio,led_table[i]->pin,!GPIO_ReadOutputDataBit(led_t
 126:DEV/dev_led.c ****             }
 127:DEV/dev_led.c ****             break;
 128:DEV/dev_led.c **** 
 129:DEV/dev_led.c ****         case LED_STATE_FLICKER_SLOW:
 130:DEV/dev_led.c ****             if ((tick_con & 0x03) == 0)
 410              		.loc 1 130 13 view .LVU95
ARM GAS  C:\Users\Jim_YW\AppData\Local\Temp\ccmlIxgi.s 			page 11


 411              		.loc 1 130 27 is_stmt 0 view .LVU96
 412 007e 054A     		ldr	r2, .L32
 413 0080 1268     		ldr	r2, [r2]
 414              		.loc 1 130 16 view .LVU97
 415 0082 12F0030F 		tst	r2, #3
 416 0086 CBD1     		bne	.L22
 131:DEV/dev_led.c ****             {
 132:DEV/dev_led.c ****                 HAL_GPIO_TogglePin(led_table[i]->gpio, led_table[i]->pin);
 417              		.loc 1 132 17 is_stmt 1 view .LVU98
 418 0088 1989     		ldrh	r1, [r3, #8]
 419 008a 5868     		ldr	r0, [r3, #4]
 420 008c FFF7FEFF 		bl	HAL_GPIO_TogglePin
 421              	.LVL27:
 422 0090 C6E7     		b	.L22
 423              	.L31:
 133:DEV/dev_led.c ****                 // GPIO_WriteBit(led_table[i]->gpio,led_table[i]->pin,!GPIO_ReadOutputDataBit(led_t
 134:DEV/dev_led.c ****             }
 135:DEV/dev_led.c ****             break;
 136:DEV/dev_led.c ****         default:
 137:DEV/dev_led.c ****             break;
 138:DEV/dev_led.c ****         }
 139:DEV/dev_led.c ****     }
 140:DEV/dev_led.c **** }
 424              		.loc 1 140 1 is_stmt 0 view .LVU99
 425 0092 10BD     		pop	{r4, pc}
 426              	.LVL28:
 427              	.L33:
 428              		.loc 1 140 1 view .LVU100
 429              		.align	2
 430              	.L32:
 431 0094 00000000 		.word	.LANCHOR2
 432 0098 00000000 		.word	.LANCHOR1
 433 009c 00000000 		.word	.LANCHOR0
 434              		.cfi_endproc
 435              	.LFE133:
 437              		.section	.text.get_led_num,"ax",%progbits
 438              		.align	1
 439              		.global	get_led_num
 440              		.syntax unified
 441              		.thumb
 442              		.thumb_func
 444              	get_led_num:
 445              	.LFB134:
 141:DEV/dev_led.c **** 
 142:DEV/dev_led.c **** int get_led_num(void)
 143:DEV/dev_led.c **** {
 446              		.loc 1 143 1 is_stmt 1 view -0
 447              		.cfi_startproc
 448              		@ args = 0, pretend = 0, frame = 0
 449              		@ frame_needed = 0, uses_anonymous_args = 0
 450              		@ link register save eliminated.
 144:DEV/dev_led.c ****     return p_led_table;
 451              		.loc 1 144 5 view .LVU102
 145:DEV/dev_led.c **** }...
 452              		.loc 1 145 1 is_stmt 0 view .LVU103
 453 0000 014B     		ldr	r3, .L35
 454 0002 1878     		ldrb	r0, [r3]	@ zero_extendqisi2
ARM GAS  C:\Users\Jim_YW\AppData\Local\Temp\ccmlIxgi.s 			page 12


 455 0004 7047     		bx	lr
 456              	.L36:
 457 0006 00BF     		.align	2
 458              	.L35:
 459 0008 00000000 		.word	.LANCHOR1
 460              		.cfi_endproc
 461              	.LFE134:
 463              		.section	.bss.led_table,"aw",%nobits
 464              		.align	2
 465              		.set	.LANCHOR0,. + 0
 468              	led_table:
 469 0000 00000000 		.space	8
 469      00000000 
 470              		.section	.bss.p_led_table,"aw",%nobits
 471              		.set	.LANCHOR1,. + 0
 474              	p_led_table:
 475 0000 00       		.space	1
 476              		.section	.bss.tick_con.0,"aw",%nobits
 477              		.align	2
 478              		.set	.LANCHOR2,. + 0
 481              	tick_con.0:
 482 0000 00000000 		.space	4
 483              		.text
 484              	.Letext0:
 485              		.file 2 "c:\\program files (x86)\\gnu arm embedded toolchain\\10 2021.10\\arm-none-eabi\\include\\
 486              		.file 3 "c:\\program files (x86)\\gnu arm embedded toolchain\\10 2021.10\\arm-none-eabi\\include\\
 487              		.file 4 "../../../Drivers/CMSIS/Device/ST/STM32F4xx/Include/stm32f407xx.h"
 488              		.file 5 "../../../Drivers/STM32F4xx_HAL_Driver/Inc/stm32f4xx_hal_gpio.h"
 489              		.file 6 "../../../Drivers/CMSIS/Device/ST/STM32F4xx/Include/stm32f4xx.h"
 490              		.file 7 "DEV/dev_led.h"
 491              		.file 8 "<built-in>"
ARM GAS  C:\Users\Jim_YW\AppData\Local\Temp\ccmlIxgi.s 			page 13


DEFINED SYMBOLS
                            *ABS*:00000000 dev_led.c
C:\Users\Jim_YW\AppData\Local\Temp\ccmlIxgi.s:20     .text.led_setup:00000000 $t
C:\Users\Jim_YW\AppData\Local\Temp\ccmlIxgi.s:26     .text.led_setup:00000000 led_setup
C:\Users\Jim_YW\AppData\Local\Temp\ccmlIxgi.s:128    .text.led_setup:00000048 $d
C:\Users\Jim_YW\AppData\Local\Temp\ccmlIxgi.s:134    .text.led_set_state:00000000 $t
C:\Users\Jim_YW\AppData\Local\Temp\ccmlIxgi.s:140    .text.led_set_state:00000000 led_set_state
C:\Users\Jim_YW\AppData\Local\Temp\ccmlIxgi.s:173    .text.led_set_state:00000014 $d
C:\Users\Jim_YW\AppData\Local\Temp\ccmlIxgi.s:178    .text.led_init:00000000 $t
C:\Users\Jim_YW\AppData\Local\Temp\ccmlIxgi.s:184    .text.led_init:00000000 led_init
C:\Users\Jim_YW\AppData\Local\Temp\ccmlIxgi.s:293    .text.led_init:00000090 $d
C:\Users\Jim_YW\AppData\Local\Temp\ccmlIxgi.s:299    .text.led_callback:00000000 $t
C:\Users\Jim_YW\AppData\Local\Temp\ccmlIxgi.s:305    .text.led_callback:00000000 led_callback
C:\Users\Jim_YW\AppData\Local\Temp\ccmlIxgi.s:369    .text.led_callback:0000003c $d
C:\Users\Jim_YW\AppData\Local\Temp\ccmlIxgi.s:374    .text.led_callback:00000050 $t
C:\Users\Jim_YW\AppData\Local\Temp\ccmlIxgi.s:431    .text.led_callback:00000094 $d
C:\Users\Jim_YW\AppData\Local\Temp\ccmlIxgi.s:438    .text.get_led_num:00000000 $t
C:\Users\Jim_YW\AppData\Local\Temp\ccmlIxgi.s:444    .text.get_led_num:00000000 get_led_num
C:\Users\Jim_YW\AppData\Local\Temp\ccmlIxgi.s:459    .text.get_led_num:00000008 $d
C:\Users\Jim_YW\AppData\Local\Temp\ccmlIxgi.s:464    .bss.led_table:00000000 $d
C:\Users\Jim_YW\AppData\Local\Temp\ccmlIxgi.s:468    .bss.led_table:00000000 led_table
C:\Users\Jim_YW\AppData\Local\Temp\ccmlIxgi.s:474    .bss.p_led_table:00000000 p_led_table
C:\Users\Jim_YW\AppData\Local\Temp\ccmlIxgi.s:475    .bss.p_led_table:00000000 $d
C:\Users\Jim_YW\AppData\Local\Temp\ccmlIxgi.s:477    .bss.tick_con.0:00000000 $d
C:\Users\Jim_YW\AppData\Local\Temp\ccmlIxgi.s:481    .bss.tick_con.0:00000000 tick_con.0

UNDEFINED SYMBOLS
malloc
HAL_GPIO_Init
HAL_GPIO_WritePin
HAL_GPIO_TogglePin
