ARM GAS  C:\Users\Jim_YW\AppData\Local\Temp\ccVYwxt0.s 			page 1


   1              		.cpu cortex-m4
   2              		.arch armv7e-m
   3              		.fpu fpv4-sp-d16
   4              		.eabi_attribute 27, 1
   5              		.eabi_attribute 28, 1
   6              		.eabi_attribute 20, 1
   7              		.eabi_attribute 21, 1
   8              		.eabi_attribute 23, 3
   9              		.eabi_attribute 24, 1
  10              		.eabi_attribute 25, 1
  11              		.eabi_attribute 26, 1
  12              		.eabi_attribute 30, 1
  13              		.eabi_attribute 34, 1
  14              		.eabi_attribute 18, 4
  15              		.file	"usbd_core.c"
  16              		.text
  17              	.Ltext0:
  18              		.cfi_sections	.debug_frame
  19              		.section	.text.is_device_configured,"ax",%progbits
  20              		.align	1
  21              		.syntax unified
  22              		.thumb
  23              		.thumb_func
  25              	is_device_configured:
  26              	.LVL0:
  27              	.LFB23:
  28              		.file 1 "CherryUSB/core/usbd_core.c"
   1:CherryUSB/core/usbd_core.c **** /*
   2:CherryUSB/core/usbd_core.c ****  * Copyright (c) 2022, sakumisu
   3:CherryUSB/core/usbd_core.c ****  *
   4:CherryUSB/core/usbd_core.c ****  * SPDX-License-Identifier: Apache-2.0
   5:CherryUSB/core/usbd_core.c ****  */
   6:CherryUSB/core/usbd_core.c **** #include "usbd_core.h"
   7:CherryUSB/core/usbd_core.c **** 
   8:CherryUSB/core/usbd_core.c **** /* general descriptor field offsets */
   9:CherryUSB/core/usbd_core.c **** #define DESC_bLength         0 /** Length offset */
  10:CherryUSB/core/usbd_core.c **** #define DESC_bDescriptorType 1 /** Descriptor type offset */
  11:CherryUSB/core/usbd_core.c **** 
  12:CherryUSB/core/usbd_core.c **** /* config descriptor field offsets */
  13:CherryUSB/core/usbd_core.c **** #define CONF_DESC_wTotalLength        2 /** Total length offset */
  14:CherryUSB/core/usbd_core.c **** #define CONF_DESC_bConfigurationValue 5 /** Configuration value offset */
  15:CherryUSB/core/usbd_core.c **** #define CONF_DESC_bmAttributes        7 /** configuration characteristics */
  16:CherryUSB/core/usbd_core.c **** 
  17:CherryUSB/core/usbd_core.c **** /* interface descriptor field offsets */
  18:CherryUSB/core/usbd_core.c **** #define INTF_DESC_bInterfaceNumber  2 /** Interface number offset */
  19:CherryUSB/core/usbd_core.c **** #define INTF_DESC_bAlternateSetting 3 /** Alternate setting offset */
  20:CherryUSB/core/usbd_core.c **** 
  21:CherryUSB/core/usbd_core.c **** struct usbd_tx_rx_msg {
  22:CherryUSB/core/usbd_core.c ****     uint8_t ep;
  23:CherryUSB/core/usbd_core.c ****     uint32_t nbytes;
  24:CherryUSB/core/usbd_core.c ****     usbd_endpoint_callback cb;
  25:CherryUSB/core/usbd_core.c **** };
  26:CherryUSB/core/usbd_core.c **** 
  27:CherryUSB/core/usbd_core.c **** USB_NOCACHE_RAM_SECTION struct usbd_core_priv {
  28:CherryUSB/core/usbd_core.c ****     /** Setup packet */
  29:CherryUSB/core/usbd_core.c ****     USB_MEM_ALIGNX struct usb_setup_packet setup;
  30:CherryUSB/core/usbd_core.c ****     /** Pointer to data buffer */
ARM GAS  C:\Users\Jim_YW\AppData\Local\Temp\ccVYwxt0.s 			page 2


  31:CherryUSB/core/usbd_core.c ****     uint8_t *ep0_data_buf;
  32:CherryUSB/core/usbd_core.c ****     /** Remaining bytes in buffer */
  33:CherryUSB/core/usbd_core.c ****     uint32_t ep0_data_buf_residue;
  34:CherryUSB/core/usbd_core.c ****     /** Total length of control transfer */
  35:CherryUSB/core/usbd_core.c ****     uint32_t ep0_data_buf_len;
  36:CherryUSB/core/usbd_core.c ****     /** Zero length packet flag of control transfer */
  37:CherryUSB/core/usbd_core.c ****     bool zlp_flag;
  38:CherryUSB/core/usbd_core.c ****     /** Pointer to registered descriptors */
  39:CherryUSB/core/usbd_core.c **** #ifdef CONFIG_USBDEV_ADVANCE_DESC
  40:CherryUSB/core/usbd_core.c ****     const struct usb_descriptor *descriptors;
  41:CherryUSB/core/usbd_core.c **** #else
  42:CherryUSB/core/usbd_core.c ****     const uint8_t *descriptors;
  43:CherryUSB/core/usbd_core.c ****     struct usb_msosv1_descriptor *msosv1_desc;
  44:CherryUSB/core/usbd_core.c ****     struct usb_msosv2_descriptor *msosv2_desc;
  45:CherryUSB/core/usbd_core.c ****     struct usb_bos_descriptor *bos_desc;
  46:CherryUSB/core/usbd_core.c **** #endif
  47:CherryUSB/core/usbd_core.c ****     /* Buffer used for storing standard, class and vendor request data */
  48:CherryUSB/core/usbd_core.c ****     USB_MEM_ALIGNX uint8_t req_data[CONFIG_USBDEV_REQUEST_BUFFER_LEN];
  49:CherryUSB/core/usbd_core.c **** 
  50:CherryUSB/core/usbd_core.c ****     /** Currently selected configuration */
  51:CherryUSB/core/usbd_core.c ****     uint8_t configuration;
  52:CherryUSB/core/usbd_core.c ****     uint8_t speed;
  53:CherryUSB/core/usbd_core.c **** #ifdef CONFIG_USBDEV_TEST_MODE
  54:CherryUSB/core/usbd_core.c ****     bool test_req;
  55:CherryUSB/core/usbd_core.c **** #endif
  56:CherryUSB/core/usbd_core.c ****     struct usbd_interface *intf[8];
  57:CherryUSB/core/usbd_core.c ****     uint8_t intf_offset;
  58:CherryUSB/core/usbd_core.c **** 
  59:CherryUSB/core/usbd_core.c ****     struct usbd_tx_rx_msg tx_msg[CONFIG_USBDEV_EP_NUM];
  60:CherryUSB/core/usbd_core.c ****     struct usbd_tx_rx_msg rx_msg[CONFIG_USBDEV_EP_NUM];
  61:CherryUSB/core/usbd_core.c **** 
  62:CherryUSB/core/usbd_core.c ****     void (*event_handler)(uint8_t busid, uint8_t event);
  63:CherryUSB/core/usbd_core.c **** } g_usbd_core[CONFIG_USBDEV_MAX_BUS];
  64:CherryUSB/core/usbd_core.c **** 
  65:CherryUSB/core/usbd_core.c **** struct usbd_bus g_usbdev_bus[CONFIG_USBDEV_MAX_BUS];
  66:CherryUSB/core/usbd_core.c **** 
  67:CherryUSB/core/usbd_core.c **** static void usbd_class_event_notify_handler(uint8_t busid, uint8_t event, void *arg);
  68:CherryUSB/core/usbd_core.c **** 
  69:CherryUSB/core/usbd_core.c **** static void usbd_print_setup(struct usb_setup_packet *setup)
  70:CherryUSB/core/usbd_core.c **** {
  71:CherryUSB/core/usbd_core.c ****     USB_LOG_INFO("Setup: "
  72:CherryUSB/core/usbd_core.c ****                  "bmRequestType 0x%02x, bRequest 0x%02x, wValue 0x%04x, wIndex 0x%04x, wLength 0x%0
  73:CherryUSB/core/usbd_core.c ****                  setup->bmRequestType,
  74:CherryUSB/core/usbd_core.c ****                  setup->bRequest,
  75:CherryUSB/core/usbd_core.c ****                  setup->wValue,
  76:CherryUSB/core/usbd_core.c ****                  setup->wIndex,
  77:CherryUSB/core/usbd_core.c ****                  setup->wLength);
  78:CherryUSB/core/usbd_core.c **** }
  79:CherryUSB/core/usbd_core.c **** 
  80:CherryUSB/core/usbd_core.c **** static bool is_device_configured(uint8_t busid)
  81:CherryUSB/core/usbd_core.c **** {
  29              		.loc 1 81 1 view -0
  30              		.cfi_startproc
  31              		@ args = 0, pretend = 0, frame = 0
  32              		@ frame_needed = 0, uses_anonymous_args = 0
  33              		@ link register save eliminated.
  82:CherryUSB/core/usbd_core.c ****     return (g_usbd_core[busid].configuration != 0);
ARM GAS  C:\Users\Jim_YW\AppData\Local\Temp\ccVYwxt0.s 			page 3


  34              		.loc 1 82 5 view .LVU1
  35              		.loc 1 82 31 is_stmt 0 view .LVU2
  36 0000 054B     		ldr	r3, .L2
  37 0002 4FF4DA72 		mov	r2, #436
  38 0006 02FB0033 		mla	r3, r2, r0, r3
  39 000a 93F82801 		ldrb	r0, [r3, #296]	@ zero_extendqisi2
  40              	.LVL1:
  83:CherryUSB/core/usbd_core.c **** }
  41              		.loc 1 83 1 view .LVU3
  42 000e 0038     		subs	r0, r0, #0
  43 0010 18BF     		it	ne
  44 0012 0120     		movne	r0, #1
  45 0014 7047     		bx	lr
  46              	.L3:
  47 0016 00BF     		.align	2
  48              	.L2:
  49 0018 00000000 		.word	.LANCHOR0
  50              		.cfi_endproc
  51              	.LFE23:
  53              		.section	.text.usbd_class_request_handler,"ax",%progbits
  54              		.align	1
  55              		.syntax unified
  56              		.thumb
  57              		.thumb_func
  59              	usbd_class_request_handler:
  60              	.LVL2:
  61              	.LFB33:
  84:CherryUSB/core/usbd_core.c **** 
  85:CherryUSB/core/usbd_core.c **** /**
  86:CherryUSB/core/usbd_core.c ****  * @brief configure and enable endpoint
  87:CherryUSB/core/usbd_core.c ****  *
  88:CherryUSB/core/usbd_core.c ****  * This function sets endpoint configuration according to one specified in USB
  89:CherryUSB/core/usbd_core.c ****  * endpoint descriptor and then enables it for data transfers.
  90:CherryUSB/core/usbd_core.c ****  *
  91:CherryUSB/core/usbd_core.c ****  * @param [in]  ep Endpoint descriptor byte array
  92:CherryUSB/core/usbd_core.c ****  *
  93:CherryUSB/core/usbd_core.c ****  * @return true if successfully configured and enabled
  94:CherryUSB/core/usbd_core.c ****  */
  95:CherryUSB/core/usbd_core.c **** static bool usbd_set_endpoint(uint8_t busid, const struct usb_endpoint_descriptor *ep)
  96:CherryUSB/core/usbd_core.c **** {
  97:CherryUSB/core/usbd_core.c ****     USB_LOG_INFO("Open ep:0x%02x type:%u mps:%u\r\n",
  98:CherryUSB/core/usbd_core.c ****                  ep->bEndpointAddress,
  99:CherryUSB/core/usbd_core.c ****                  USB_GET_ENDPOINT_TYPE(ep->bmAttributes),
 100:CherryUSB/core/usbd_core.c ****                  USB_GET_MAXPACKETSIZE(ep->wMaxPacketSize));
 101:CherryUSB/core/usbd_core.c **** 
 102:CherryUSB/core/usbd_core.c ****     return usbd_ep_open(busid, ep) == 0 ? true : false;
 103:CherryUSB/core/usbd_core.c **** }
 104:CherryUSB/core/usbd_core.c **** /**
 105:CherryUSB/core/usbd_core.c ****  * @brief Disable endpoint for transferring data
 106:CherryUSB/core/usbd_core.c ****  *
 107:CherryUSB/core/usbd_core.c ****  * This function cancels transfers that are associated with endpoint and
 108:CherryUSB/core/usbd_core.c ****  * disabled endpoint itself.
 109:CherryUSB/core/usbd_core.c ****  *
 110:CherryUSB/core/usbd_core.c ****  * @param [in]  ep Endpoint descriptor byte array
 111:CherryUSB/core/usbd_core.c ****  *
 112:CherryUSB/core/usbd_core.c ****  * @return true if successfully deconfigured and disabled
 113:CherryUSB/core/usbd_core.c ****  */
ARM GAS  C:\Users\Jim_YW\AppData\Local\Temp\ccVYwxt0.s 			page 4


 114:CherryUSB/core/usbd_core.c **** static bool usbd_reset_endpoint(uint8_t busid, const struct usb_endpoint_descriptor *ep)
 115:CherryUSB/core/usbd_core.c **** {
 116:CherryUSB/core/usbd_core.c ****     USB_LOG_INFO("Close ep:0x%02x type:%u\r\n",
 117:CherryUSB/core/usbd_core.c ****                  ep->bEndpointAddress,
 118:CherryUSB/core/usbd_core.c ****                  USB_GET_ENDPOINT_TYPE(ep->bmAttributes));
 119:CherryUSB/core/usbd_core.c **** 
 120:CherryUSB/core/usbd_core.c ****     return usbd_ep_close(busid, ep->bEndpointAddress) == 0 ? true : false;
 121:CherryUSB/core/usbd_core.c **** }
 122:CherryUSB/core/usbd_core.c **** 
 123:CherryUSB/core/usbd_core.c **** /**
 124:CherryUSB/core/usbd_core.c ****  * @brief get specified USB descriptor
 125:CherryUSB/core/usbd_core.c ****  *
 126:CherryUSB/core/usbd_core.c ****  * This function parses the list of installed USB descriptors and attempts
 127:CherryUSB/core/usbd_core.c ****  * to find the specified USB descriptor.
 128:CherryUSB/core/usbd_core.c ****  *
 129:CherryUSB/core/usbd_core.c ****  * @param [in]  type_index Type and index of the descriptor
 130:CherryUSB/core/usbd_core.c ****  * @param [out] data       Descriptor data
 131:CherryUSB/core/usbd_core.c ****  * @param [out] len        Descriptor length
 132:CherryUSB/core/usbd_core.c ****  *
 133:CherryUSB/core/usbd_core.c ****  * @return true if the descriptor was found, false otherwise
 134:CherryUSB/core/usbd_core.c ****  */
 135:CherryUSB/core/usbd_core.c **** #ifdef CONFIG_USBDEV_ADVANCE_DESC
 136:CherryUSB/core/usbd_core.c **** static bool usbd_get_descriptor(uint8_t busid, uint16_t type_index, uint8_t **data, uint32_t *len)
 137:CherryUSB/core/usbd_core.c **** {
 138:CherryUSB/core/usbd_core.c ****     uint8_t type = 0U;
 139:CherryUSB/core/usbd_core.c ****     uint8_t index = 0U;
 140:CherryUSB/core/usbd_core.c ****     bool found = true;
 141:CherryUSB/core/usbd_core.c ****     uint32_t desc_len = 0;
 142:CherryUSB/core/usbd_core.c ****     const uint8_t *desc = NULL;
 143:CherryUSB/core/usbd_core.c **** 
 144:CherryUSB/core/usbd_core.c ****     type = HI_BYTE(type_index);
 145:CherryUSB/core/usbd_core.c ****     index = LO_BYTE(type_index);
 146:CherryUSB/core/usbd_core.c **** 
 147:CherryUSB/core/usbd_core.c ****     switch (type) {
 148:CherryUSB/core/usbd_core.c ****         case USB_DESCRIPTOR_TYPE_DEVICE:
 149:CherryUSB/core/usbd_core.c ****             desc = g_usbd_core[busid].descriptors->device_descriptor_callback(g_usbd_core[busid].sp
 150:CherryUSB/core/usbd_core.c ****             if (desc == NULL) {
 151:CherryUSB/core/usbd_core.c ****                 found = false;
 152:CherryUSB/core/usbd_core.c ****                 break;
 153:CherryUSB/core/usbd_core.c ****             }
 154:CherryUSB/core/usbd_core.c ****             desc_len = desc[0];
 155:CherryUSB/core/usbd_core.c ****             break;
 156:CherryUSB/core/usbd_core.c ****         case USB_DESCRIPTOR_TYPE_CONFIGURATION:
 157:CherryUSB/core/usbd_core.c ****             desc = g_usbd_core[busid].descriptors->config_descriptor_callback(g_usbd_core[busid].sp
 158:CherryUSB/core/usbd_core.c ****             if (desc == NULL) {
 159:CherryUSB/core/usbd_core.c ****                 found = false;
 160:CherryUSB/core/usbd_core.c ****                 break;
 161:CherryUSB/core/usbd_core.c ****             }
 162:CherryUSB/core/usbd_core.c ****             desc_len = ((desc[CONF_DESC_wTotalLength]) | (desc[CONF_DESC_wTotalLength + 1] << 8));
 163:CherryUSB/core/usbd_core.c ****             break;
 164:CherryUSB/core/usbd_core.c ****         case USB_DESCRIPTOR_TYPE_STRING:
 165:CherryUSB/core/usbd_core.c ****             if (index == USB_OSDESC_STRING_DESC_INDEX) {
 166:CherryUSB/core/usbd_core.c ****                 USB_LOG_INFO("read MS OS 2.0 descriptor string\r\n");
 167:CherryUSB/core/usbd_core.c **** 
 168:CherryUSB/core/usbd_core.c ****                 if (!g_usbd_core[busid].descriptors->msosv1_descriptor) {
 169:CherryUSB/core/usbd_core.c ****                     found = false;
 170:CherryUSB/core/usbd_core.c ****                     break;
ARM GAS  C:\Users\Jim_YW\AppData\Local\Temp\ccVYwxt0.s 			page 5


 171:CherryUSB/core/usbd_core.c ****                 }
 172:CherryUSB/core/usbd_core.c **** 
 173:CherryUSB/core/usbd_core.c ****                 desc = (uint8_t *)g_usbd_core[busid].descriptors->msosv1_descriptor->string;
 174:CherryUSB/core/usbd_core.c ****                 desc_len = g_usbd_core[busid].descriptors->msosv1_descriptor->string[0];
 175:CherryUSB/core/usbd_core.c ****             } else {
 176:CherryUSB/core/usbd_core.c ****                 desc = g_usbd_core[busid].descriptors->string_descriptor_callback(g_usbd_core[busid
 177:CherryUSB/core/usbd_core.c ****                 if (desc == NULL) {
 178:CherryUSB/core/usbd_core.c ****                     found = false;
 179:CherryUSB/core/usbd_core.c ****                     break;
 180:CherryUSB/core/usbd_core.c ****                 }
 181:CherryUSB/core/usbd_core.c ****                 desc_len = desc[0];
 182:CherryUSB/core/usbd_core.c ****             }
 183:CherryUSB/core/usbd_core.c ****             break;
 184:CherryUSB/core/usbd_core.c ****         case USB_DESCRIPTOR_TYPE_DEVICE_QUALIFIER:
 185:CherryUSB/core/usbd_core.c ****             desc = g_usbd_core[busid].descriptors->device_quality_descriptor_callback(g_usbd_core[b
 186:CherryUSB/core/usbd_core.c ****             if (desc == NULL) {
 187:CherryUSB/core/usbd_core.c ****                 found = false;
 188:CherryUSB/core/usbd_core.c ****                 break;
 189:CherryUSB/core/usbd_core.c ****             }
 190:CherryUSB/core/usbd_core.c ****             desc_len = desc[0];
 191:CherryUSB/core/usbd_core.c ****             break;
 192:CherryUSB/core/usbd_core.c ****         case USB_DESCRIPTOR_TYPE_OTHER_SPEED:
 193:CherryUSB/core/usbd_core.c ****             desc = g_usbd_core[busid].descriptors->other_speed_descriptor_callback(g_usbd_core[busi
 194:CherryUSB/core/usbd_core.c ****             if (desc == NULL) {
 195:CherryUSB/core/usbd_core.c ****                 found = false;
 196:CherryUSB/core/usbd_core.c ****                 break;
 197:CherryUSB/core/usbd_core.c ****             }
 198:CherryUSB/core/usbd_core.c ****             desc_len = ((desc[CONF_DESC_wTotalLength]) | (desc[CONF_DESC_wTotalLength + 1] << 8));
 199:CherryUSB/core/usbd_core.c ****             break;
 200:CherryUSB/core/usbd_core.c **** 
 201:CherryUSB/core/usbd_core.c ****         case USB_DESCRIPTOR_TYPE_BINARY_OBJECT_STORE:
 202:CherryUSB/core/usbd_core.c ****             USB_LOG_INFO("read BOS descriptor string\r\n");
 203:CherryUSB/core/usbd_core.c **** 
 204:CherryUSB/core/usbd_core.c ****             if (!g_usbd_core[busid].descriptors->bos_descriptor) {
 205:CherryUSB/core/usbd_core.c ****                 found = false;
 206:CherryUSB/core/usbd_core.c ****                 break;
 207:CherryUSB/core/usbd_core.c ****             }
 208:CherryUSB/core/usbd_core.c **** 
 209:CherryUSB/core/usbd_core.c ****             desc = (uint8_t *)g_usbd_core[busid].descriptors->bos_descriptor->string;
 210:CherryUSB/core/usbd_core.c ****             desc_len = g_usbd_core[busid].descriptors->bos_descriptor->string_len;
 211:CherryUSB/core/usbd_core.c ****             break;
 212:CherryUSB/core/usbd_core.c **** 
 213:CherryUSB/core/usbd_core.c ****         default:
 214:CherryUSB/core/usbd_core.c ****             found = false;
 215:CherryUSB/core/usbd_core.c ****             break;
 216:CherryUSB/core/usbd_core.c ****     }
 217:CherryUSB/core/usbd_core.c **** 
 218:CherryUSB/core/usbd_core.c ****     if (found == false) {
 219:CherryUSB/core/usbd_core.c ****         /* nothing found */
 220:CherryUSB/core/usbd_core.c ****         USB_LOG_ERR("descriptor <type:%x,index:%x> not found!\r\n", type, index);
 221:CherryUSB/core/usbd_core.c ****     } else {
 222:CherryUSB/core/usbd_core.c ****         // *data = desc;
 223:CherryUSB/core/usbd_core.c ****         memcpy(*data, desc, desc_len);
 224:CherryUSB/core/usbd_core.c ****         *len = desc_len;
 225:CherryUSB/core/usbd_core.c ****     }
 226:CherryUSB/core/usbd_core.c ****     return found;
 227:CherryUSB/core/usbd_core.c **** }
ARM GAS  C:\Users\Jim_YW\AppData\Local\Temp\ccVYwxt0.s 			page 6


 228:CherryUSB/core/usbd_core.c **** #else
 229:CherryUSB/core/usbd_core.c **** static bool usbd_get_descriptor(uint8_t busid, uint16_t type_index, uint8_t **data, uint32_t *len)
 230:CherryUSB/core/usbd_core.c **** {
 231:CherryUSB/core/usbd_core.c ****     uint8_t type = 0U;
 232:CherryUSB/core/usbd_core.c ****     uint8_t index = 0U;
 233:CherryUSB/core/usbd_core.c ****     uint8_t *p = NULL;
 234:CherryUSB/core/usbd_core.c ****     uint32_t cur_index = 0U;
 235:CherryUSB/core/usbd_core.c ****     bool found = false;
 236:CherryUSB/core/usbd_core.c **** 
 237:CherryUSB/core/usbd_core.c ****     type = HI_BYTE(type_index);
 238:CherryUSB/core/usbd_core.c ****     index = LO_BYTE(type_index);
 239:CherryUSB/core/usbd_core.c **** 
 240:CherryUSB/core/usbd_core.c ****     if ((type == USB_DESCRIPTOR_TYPE_STRING) && (index == USB_OSDESC_STRING_DESC_INDEX)) {
 241:CherryUSB/core/usbd_core.c ****         USB_LOG_INFO("read MS OS 2.0 descriptor string\r\n");
 242:CherryUSB/core/usbd_core.c **** 
 243:CherryUSB/core/usbd_core.c ****         if (!g_usbd_core[busid].msosv1_desc) {
 244:CherryUSB/core/usbd_core.c ****             return false;
 245:CherryUSB/core/usbd_core.c ****         }
 246:CherryUSB/core/usbd_core.c **** 
 247:CherryUSB/core/usbd_core.c ****         //*data = (uint8_t *)g_usbd_core[busid].msosv1_desc->string;
 248:CherryUSB/core/usbd_core.c ****         memcpy(*data, (uint8_t *)g_usbd_core[busid].msosv1_desc->string, g_usbd_core[busid].msosv1_
 249:CherryUSB/core/usbd_core.c ****         *len = g_usbd_core[busid].msosv1_desc->string[0];
 250:CherryUSB/core/usbd_core.c **** 
 251:CherryUSB/core/usbd_core.c ****         return true;
 252:CherryUSB/core/usbd_core.c ****     } else if (type == USB_DESCRIPTOR_TYPE_BINARY_OBJECT_STORE) {
 253:CherryUSB/core/usbd_core.c ****         USB_LOG_INFO("read BOS descriptor string\r\n");
 254:CherryUSB/core/usbd_core.c **** 
 255:CherryUSB/core/usbd_core.c ****         if (!g_usbd_core[busid].bos_desc) {
 256:CherryUSB/core/usbd_core.c ****             return false;
 257:CherryUSB/core/usbd_core.c ****         }
 258:CherryUSB/core/usbd_core.c **** 
 259:CherryUSB/core/usbd_core.c ****         //*data = g_usbd_core[busid].bos_desc->string;
 260:CherryUSB/core/usbd_core.c ****         memcpy(*data, (uint8_t *)g_usbd_core[busid].bos_desc->string, g_usbd_core[busid].bos_desc->
 261:CherryUSB/core/usbd_core.c ****         *len = g_usbd_core[busid].bos_desc->string_len;
 262:CherryUSB/core/usbd_core.c ****         return true;
 263:CherryUSB/core/usbd_core.c ****     }
 264:CherryUSB/core/usbd_core.c ****     /*
 265:CherryUSB/core/usbd_core.c ****      * Invalid types of descriptors,
 266:CherryUSB/core/usbd_core.c ****      * see USB Spec. Revision 2.0, 9.4.3 Get Descriptor
 267:CherryUSB/core/usbd_core.c ****      */
 268:CherryUSB/core/usbd_core.c ****     else if ((type == USB_DESCRIPTOR_TYPE_INTERFACE) || (type == USB_DESCRIPTOR_TYPE_ENDPOINT) ||
 269:CherryUSB/core/usbd_core.c **** #ifndef CONFIG_USB_HS
 270:CherryUSB/core/usbd_core.c ****              (type > USB_DESCRIPTOR_TYPE_ENDPOINT)) {
 271:CherryUSB/core/usbd_core.c **** #else
 272:CherryUSB/core/usbd_core.c ****              (type > USB_DESCRIPTOR_TYPE_OTHER_SPEED)) {
 273:CherryUSB/core/usbd_core.c **** #endif
 274:CherryUSB/core/usbd_core.c ****         return false;
 275:CherryUSB/core/usbd_core.c ****     }
 276:CherryUSB/core/usbd_core.c **** 
 277:CherryUSB/core/usbd_core.c ****     p = (uint8_t *)g_usbd_core[busid].descriptors;
 278:CherryUSB/core/usbd_core.c **** 
 279:CherryUSB/core/usbd_core.c ****     cur_index = 0U;
 280:CherryUSB/core/usbd_core.c **** 
 281:CherryUSB/core/usbd_core.c ****     while (p[DESC_bLength] != 0U) {
 282:CherryUSB/core/usbd_core.c ****         if (p[DESC_bDescriptorType] == type) {
 283:CherryUSB/core/usbd_core.c ****             if (cur_index == index) {
 284:CherryUSB/core/usbd_core.c ****                 found = true;
ARM GAS  C:\Users\Jim_YW\AppData\Local\Temp\ccVYwxt0.s 			page 7


 285:CherryUSB/core/usbd_core.c ****                 break;
 286:CherryUSB/core/usbd_core.c ****             }
 287:CherryUSB/core/usbd_core.c **** 
 288:CherryUSB/core/usbd_core.c ****             cur_index++;
 289:CherryUSB/core/usbd_core.c ****         }
 290:CherryUSB/core/usbd_core.c **** 
 291:CherryUSB/core/usbd_core.c ****         /* skip to next descriptor */
 292:CherryUSB/core/usbd_core.c ****         p += p[DESC_bLength];
 293:CherryUSB/core/usbd_core.c ****     }
 294:CherryUSB/core/usbd_core.c **** 
 295:CherryUSB/core/usbd_core.c ****     if (found) {
 296:CherryUSB/core/usbd_core.c ****         if ((type == USB_DESCRIPTOR_TYPE_CONFIGURATION) || ((type == USB_DESCRIPTOR_TYPE_OTHER_SPEE
 297:CherryUSB/core/usbd_core.c ****             /* configuration or other speed descriptor is an
 298:CherryUSB/core/usbd_core.c ****              * exception, length is at offset 2 and 3
 299:CherryUSB/core/usbd_core.c ****              */
 300:CherryUSB/core/usbd_core.c ****             *len = (p[CONF_DESC_wTotalLength]) |
 301:CherryUSB/core/usbd_core.c ****                    (p[CONF_DESC_wTotalLength + 1] << 8);
 302:CherryUSB/core/usbd_core.c ****         } else {
 303:CherryUSB/core/usbd_core.c ****             /* normally length is at offset 0 */
 304:CherryUSB/core/usbd_core.c ****             *len = p[DESC_bLength];
 305:CherryUSB/core/usbd_core.c ****         }
 306:CherryUSB/core/usbd_core.c ****         memcpy(*data, p, *len);
 307:CherryUSB/core/usbd_core.c ****     } else {
 308:CherryUSB/core/usbd_core.c ****         /* nothing found */
 309:CherryUSB/core/usbd_core.c ****         USB_LOG_ERR("descriptor <type:0x%02x,index:0x%02x> not found!\r\n", type, index);
 310:CherryUSB/core/usbd_core.c ****     }
 311:CherryUSB/core/usbd_core.c **** 
 312:CherryUSB/core/usbd_core.c ****     return found;
 313:CherryUSB/core/usbd_core.c **** }
 314:CherryUSB/core/usbd_core.c **** #endif
 315:CherryUSB/core/usbd_core.c **** 
 316:CherryUSB/core/usbd_core.c **** /**
 317:CherryUSB/core/usbd_core.c ****  * @brief set USB configuration
 318:CherryUSB/core/usbd_core.c ****  *
 319:CherryUSB/core/usbd_core.c ****  * This function configures the device according to the specified configuration
 320:CherryUSB/core/usbd_core.c ****  * index and alternate setting by parsing the installed USB descriptor list.
 321:CherryUSB/core/usbd_core.c ****  * A configuration index of 0 unconfigures the device.
 322:CherryUSB/core/usbd_core.c ****  *
 323:CherryUSB/core/usbd_core.c ****  * @param [in] config_index Configuration index
 324:CherryUSB/core/usbd_core.c ****  * @param [in] alt_setting  Alternate setting number
 325:CherryUSB/core/usbd_core.c ****  *
 326:CherryUSB/core/usbd_core.c ****  * @return true if successfully configured false if error or unconfigured
 327:CherryUSB/core/usbd_core.c ****  */
 328:CherryUSB/core/usbd_core.c **** static bool usbd_set_configuration(uint8_t busid, uint8_t config_index, uint8_t alt_setting)
 329:CherryUSB/core/usbd_core.c **** {
 330:CherryUSB/core/usbd_core.c ****     uint8_t cur_alt_setting = 0xFF;
 331:CherryUSB/core/usbd_core.c ****     uint8_t cur_config = 0xFF;
 332:CherryUSB/core/usbd_core.c ****     bool found = false;
 333:CherryUSB/core/usbd_core.c ****     const uint8_t *p;
 334:CherryUSB/core/usbd_core.c ****     uint32_t desc_len = 0;
 335:CherryUSB/core/usbd_core.c ****     uint32_t current_desc_len = 0;
 336:CherryUSB/core/usbd_core.c **** 
 337:CherryUSB/core/usbd_core.c **** #ifdef CONFIG_USBDEV_ADVANCE_DESC
 338:CherryUSB/core/usbd_core.c ****     p = g_usbd_core[busid].descriptors->config_descriptor_callback(g_usbd_core[busid].speed);
 339:CherryUSB/core/usbd_core.c **** #else
 340:CherryUSB/core/usbd_core.c ****     p = (uint8_t *)g_usbd_core[busid].descriptors;
 341:CherryUSB/core/usbd_core.c **** #endif
ARM GAS  C:\Users\Jim_YW\AppData\Local\Temp\ccVYwxt0.s 			page 8


 342:CherryUSB/core/usbd_core.c ****     /* configure endpoints for this configuration/altsetting */
 343:CherryUSB/core/usbd_core.c ****     while (p[DESC_bLength] != 0U) {
 344:CherryUSB/core/usbd_core.c ****         switch (p[DESC_bDescriptorType]) {
 345:CherryUSB/core/usbd_core.c ****             case USB_DESCRIPTOR_TYPE_CONFIGURATION:
 346:CherryUSB/core/usbd_core.c ****                 /* remember current configuration index */
 347:CherryUSB/core/usbd_core.c ****                 cur_config = p[CONF_DESC_bConfigurationValue];
 348:CherryUSB/core/usbd_core.c **** 
 349:CherryUSB/core/usbd_core.c ****                 if (cur_config == config_index) {
 350:CherryUSB/core/usbd_core.c ****                     found = true;
 351:CherryUSB/core/usbd_core.c **** 
 352:CherryUSB/core/usbd_core.c ****                     current_desc_len = 0;
 353:CherryUSB/core/usbd_core.c ****                     desc_len = (p[CONF_DESC_wTotalLength]) |
 354:CherryUSB/core/usbd_core.c ****                                (p[CONF_DESC_wTotalLength + 1] << 8);
 355:CherryUSB/core/usbd_core.c ****                 }
 356:CherryUSB/core/usbd_core.c **** 
 357:CherryUSB/core/usbd_core.c ****                 break;
 358:CherryUSB/core/usbd_core.c **** 
 359:CherryUSB/core/usbd_core.c ****             case USB_DESCRIPTOR_TYPE_INTERFACE:
 360:CherryUSB/core/usbd_core.c ****                 /* remember current alternate setting */
 361:CherryUSB/core/usbd_core.c ****                 cur_alt_setting =
 362:CherryUSB/core/usbd_core.c ****                     p[INTF_DESC_bAlternateSetting];
 363:CherryUSB/core/usbd_core.c ****                 break;
 364:CherryUSB/core/usbd_core.c **** 
 365:CherryUSB/core/usbd_core.c ****             case USB_DESCRIPTOR_TYPE_ENDPOINT:
 366:CherryUSB/core/usbd_core.c ****                 if ((cur_config != config_index) ||
 367:CherryUSB/core/usbd_core.c ****                     (cur_alt_setting != alt_setting)) {
 368:CherryUSB/core/usbd_core.c ****                     break;
 369:CherryUSB/core/usbd_core.c ****                 }
 370:CherryUSB/core/usbd_core.c **** 
 371:CherryUSB/core/usbd_core.c ****                 found = usbd_set_endpoint(busid, (struct usb_endpoint_descriptor *)p);
 372:CherryUSB/core/usbd_core.c ****                 break;
 373:CherryUSB/core/usbd_core.c **** 
 374:CherryUSB/core/usbd_core.c ****             default:
 375:CherryUSB/core/usbd_core.c ****                 break;
 376:CherryUSB/core/usbd_core.c ****         }
 377:CherryUSB/core/usbd_core.c **** 
 378:CherryUSB/core/usbd_core.c ****         /* skip to next descriptor */
 379:CherryUSB/core/usbd_core.c ****         p += p[DESC_bLength];
 380:CherryUSB/core/usbd_core.c ****         current_desc_len += p[DESC_bLength];
 381:CherryUSB/core/usbd_core.c ****         if (current_desc_len >= desc_len && desc_len) {
 382:CherryUSB/core/usbd_core.c ****             break;
 383:CherryUSB/core/usbd_core.c ****         }
 384:CherryUSB/core/usbd_core.c ****     }
 385:CherryUSB/core/usbd_core.c **** 
 386:CherryUSB/core/usbd_core.c ****     return found;
 387:CherryUSB/core/usbd_core.c **** }
 388:CherryUSB/core/usbd_core.c **** 
 389:CherryUSB/core/usbd_core.c **** /**
 390:CherryUSB/core/usbd_core.c ****  * @brief set USB interface
 391:CherryUSB/core/usbd_core.c ****  *
 392:CherryUSB/core/usbd_core.c ****  * @param [in] iface Interface index
 393:CherryUSB/core/usbd_core.c ****  * @param [in] alt_setting  Alternate setting number
 394:CherryUSB/core/usbd_core.c ****  *
 395:CherryUSB/core/usbd_core.c ****  * @return true if successfully configured false if error or unconfigured
 396:CherryUSB/core/usbd_core.c ****  */
 397:CherryUSB/core/usbd_core.c **** static bool usbd_set_interface(uint8_t busid, uint8_t iface, uint8_t alt_setting)
 398:CherryUSB/core/usbd_core.c **** {
ARM GAS  C:\Users\Jim_YW\AppData\Local\Temp\ccVYwxt0.s 			page 9


 399:CherryUSB/core/usbd_core.c ****     const uint8_t *if_desc = NULL;
 400:CherryUSB/core/usbd_core.c ****     struct usb_endpoint_descriptor *ep_desc;
 401:CherryUSB/core/usbd_core.c ****     uint8_t cur_alt_setting = 0xFF;
 402:CherryUSB/core/usbd_core.c ****     uint8_t cur_iface = 0xFF;
 403:CherryUSB/core/usbd_core.c ****     bool ret = false;
 404:CherryUSB/core/usbd_core.c ****     const uint8_t *p;
 405:CherryUSB/core/usbd_core.c ****     uint32_t desc_len = 0;
 406:CherryUSB/core/usbd_core.c ****     uint32_t current_desc_len = 0;
 407:CherryUSB/core/usbd_core.c **** 
 408:CherryUSB/core/usbd_core.c **** #ifdef CONFIG_USBDEV_ADVANCE_DESC
 409:CherryUSB/core/usbd_core.c ****     p = g_usbd_core[busid].descriptors->config_descriptor_callback(g_usbd_core[busid].speed);
 410:CherryUSB/core/usbd_core.c **** #else
 411:CherryUSB/core/usbd_core.c ****     p = (uint8_t *)g_usbd_core[busid].descriptors;
 412:CherryUSB/core/usbd_core.c **** #endif
 413:CherryUSB/core/usbd_core.c ****     USB_LOG_DBG("iface %u alt_setting %u\r\n", iface, alt_setting);
 414:CherryUSB/core/usbd_core.c **** 
 415:CherryUSB/core/usbd_core.c ****     while (p[DESC_bLength] != 0U) {
 416:CherryUSB/core/usbd_core.c ****         switch (p[DESC_bDescriptorType]) {
 417:CherryUSB/core/usbd_core.c ****             case USB_DESCRIPTOR_TYPE_CONFIGURATION:
 418:CherryUSB/core/usbd_core.c ****                 current_desc_len = 0;
 419:CherryUSB/core/usbd_core.c ****                 desc_len = (p[CONF_DESC_wTotalLength]) |
 420:CherryUSB/core/usbd_core.c ****                            (p[CONF_DESC_wTotalLength + 1] << 8);
 421:CherryUSB/core/usbd_core.c **** 
 422:CherryUSB/core/usbd_core.c ****                 break;
 423:CherryUSB/core/usbd_core.c **** 
 424:CherryUSB/core/usbd_core.c ****             case USB_DESCRIPTOR_TYPE_INTERFACE:
 425:CherryUSB/core/usbd_core.c ****                 /* remember current alternate setting */
 426:CherryUSB/core/usbd_core.c ****                 cur_alt_setting = p[INTF_DESC_bAlternateSetting];
 427:CherryUSB/core/usbd_core.c ****                 cur_iface = p[INTF_DESC_bInterfaceNumber];
 428:CherryUSB/core/usbd_core.c **** 
 429:CherryUSB/core/usbd_core.c ****                 if (cur_iface == iface &&
 430:CherryUSB/core/usbd_core.c ****                     cur_alt_setting == alt_setting) {
 431:CherryUSB/core/usbd_core.c ****                     if_desc = (void *)p;
 432:CherryUSB/core/usbd_core.c ****                 }
 433:CherryUSB/core/usbd_core.c **** 
 434:CherryUSB/core/usbd_core.c ****                 USB_LOG_DBG("Current iface %u alt setting %u",
 435:CherryUSB/core/usbd_core.c ****                             cur_iface, cur_alt_setting);
 436:CherryUSB/core/usbd_core.c ****                 break;
 437:CherryUSB/core/usbd_core.c **** 
 438:CherryUSB/core/usbd_core.c ****             case USB_DESCRIPTOR_TYPE_ENDPOINT:
 439:CherryUSB/core/usbd_core.c ****                 if (cur_iface == iface) {
 440:CherryUSB/core/usbd_core.c ****                     ep_desc = (struct usb_endpoint_descriptor *)p;
 441:CherryUSB/core/usbd_core.c **** 
 442:CherryUSB/core/usbd_core.c ****                     if (cur_alt_setting != alt_setting) {
 443:CherryUSB/core/usbd_core.c ****                         ret = usbd_reset_endpoint(busid, ep_desc);
 444:CherryUSB/core/usbd_core.c ****                     } else {
 445:CherryUSB/core/usbd_core.c ****                         ret = usbd_set_endpoint(busid, ep_desc);
 446:CherryUSB/core/usbd_core.c ****                     }
 447:CherryUSB/core/usbd_core.c ****                 }
 448:CherryUSB/core/usbd_core.c **** 
 449:CherryUSB/core/usbd_core.c ****                 break;
 450:CherryUSB/core/usbd_core.c **** 
 451:CherryUSB/core/usbd_core.c ****             default:
 452:CherryUSB/core/usbd_core.c ****                 break;
 453:CherryUSB/core/usbd_core.c ****         }
 454:CherryUSB/core/usbd_core.c **** 
 455:CherryUSB/core/usbd_core.c ****         /* skip to next descriptor */
ARM GAS  C:\Users\Jim_YW\AppData\Local\Temp\ccVYwxt0.s 			page 10


 456:CherryUSB/core/usbd_core.c ****         p += p[DESC_bLength];
 457:CherryUSB/core/usbd_core.c ****         current_desc_len += p[DESC_bLength];
 458:CherryUSB/core/usbd_core.c ****         if (current_desc_len >= desc_len && desc_len) {
 459:CherryUSB/core/usbd_core.c ****             break;
 460:CherryUSB/core/usbd_core.c ****         }
 461:CherryUSB/core/usbd_core.c ****     }
 462:CherryUSB/core/usbd_core.c **** 
 463:CherryUSB/core/usbd_core.c ****     usbd_class_event_notify_handler(busid, USBD_EVENT_SET_INTERFACE, (void *)if_desc);
 464:CherryUSB/core/usbd_core.c **** 
 465:CherryUSB/core/usbd_core.c ****     return ret;
 466:CherryUSB/core/usbd_core.c **** }
 467:CherryUSB/core/usbd_core.c **** 
 468:CherryUSB/core/usbd_core.c **** /**
 469:CherryUSB/core/usbd_core.c ****  * @brief handle a standard device request
 470:CherryUSB/core/usbd_core.c ****  *
 471:CherryUSB/core/usbd_core.c ****  * @param [in]     setup    The setup packet
 472:CherryUSB/core/usbd_core.c ****  * @param [in,out] data     Data buffer
 473:CherryUSB/core/usbd_core.c ****  * @param [in,out] len      Pointer to data length
 474:CherryUSB/core/usbd_core.c ****  *
 475:CherryUSB/core/usbd_core.c ****  * @return true if the request was handled successfully
 476:CherryUSB/core/usbd_core.c ****  */
 477:CherryUSB/core/usbd_core.c **** static bool usbd_std_device_req_handler(uint8_t busid, struct usb_setup_packet *setup, uint8_t **da
 478:CherryUSB/core/usbd_core.c **** {
 479:CherryUSB/core/usbd_core.c ****     uint16_t value = setup->wValue;
 480:CherryUSB/core/usbd_core.c ****     bool ret = true;
 481:CherryUSB/core/usbd_core.c **** 
 482:CherryUSB/core/usbd_core.c ****     switch (setup->bRequest) {
 483:CherryUSB/core/usbd_core.c ****         case USB_REQUEST_GET_STATUS:
 484:CherryUSB/core/usbd_core.c ****             /* bit 0: self-powered */
 485:CherryUSB/core/usbd_core.c ****             /* bit 1: remote wakeup */
 486:CherryUSB/core/usbd_core.c ****             (*data)[0] = 0x00;
 487:CherryUSB/core/usbd_core.c ****             (*data)[1] = 0x00;
 488:CherryUSB/core/usbd_core.c ****             *len = 2;
 489:CherryUSB/core/usbd_core.c ****             break;
 490:CherryUSB/core/usbd_core.c **** 
 491:CherryUSB/core/usbd_core.c ****         case USB_REQUEST_CLEAR_FEATURE:
 492:CherryUSB/core/usbd_core.c ****         case USB_REQUEST_SET_FEATURE:
 493:CherryUSB/core/usbd_core.c ****             if (value == USB_FEATURE_REMOTE_WAKEUP) {
 494:CherryUSB/core/usbd_core.c ****                 if (setup->bRequest == USB_REQUEST_SET_FEATURE) {
 495:CherryUSB/core/usbd_core.c ****                     g_usbd_core[busid].event_handler(busid, USBD_EVENT_SET_REMOTE_WAKEUP);
 496:CherryUSB/core/usbd_core.c ****                 } else {
 497:CherryUSB/core/usbd_core.c ****                     g_usbd_core[busid].event_handler(busid, USBD_EVENT_CLR_REMOTE_WAKEUP);
 498:CherryUSB/core/usbd_core.c ****                 }
 499:CherryUSB/core/usbd_core.c ****             } else if (value == USB_FEATURE_TEST_MODE) {
 500:CherryUSB/core/usbd_core.c **** #ifdef CONFIG_USBDEV_TEST_MODE
 501:CherryUSB/core/usbd_core.c ****                 g_usbd_core[busid].test_req = true;
 502:CherryUSB/core/usbd_core.c **** #endif
 503:CherryUSB/core/usbd_core.c ****             }
 504:CherryUSB/core/usbd_core.c ****             *len = 0;
 505:CherryUSB/core/usbd_core.c ****             break;
 506:CherryUSB/core/usbd_core.c **** 
 507:CherryUSB/core/usbd_core.c ****         case USB_REQUEST_SET_ADDRESS:
 508:CherryUSB/core/usbd_core.c ****             usbd_set_address(busid, value);
 509:CherryUSB/core/usbd_core.c ****             *len = 0;
 510:CherryUSB/core/usbd_core.c ****             break;
 511:CherryUSB/core/usbd_core.c **** 
 512:CherryUSB/core/usbd_core.c ****         case USB_REQUEST_GET_DESCRIPTOR:
ARM GAS  C:\Users\Jim_YW\AppData\Local\Temp\ccVYwxt0.s 			page 11


 513:CherryUSB/core/usbd_core.c ****             ret = usbd_get_descriptor(busid, value, data, len);
 514:CherryUSB/core/usbd_core.c ****             break;
 515:CherryUSB/core/usbd_core.c **** 
 516:CherryUSB/core/usbd_core.c ****         case USB_REQUEST_SET_DESCRIPTOR:
 517:CherryUSB/core/usbd_core.c ****             ret = false;
 518:CherryUSB/core/usbd_core.c ****             break;
 519:CherryUSB/core/usbd_core.c **** 
 520:CherryUSB/core/usbd_core.c ****         case USB_REQUEST_GET_CONFIGURATION:
 521:CherryUSB/core/usbd_core.c ****             *data = (uint8_t *)&g_usbd_core[busid].configuration;
 522:CherryUSB/core/usbd_core.c ****             *len = 1;
 523:CherryUSB/core/usbd_core.c ****             break;
 524:CherryUSB/core/usbd_core.c **** 
 525:CherryUSB/core/usbd_core.c ****         case USB_REQUEST_SET_CONFIGURATION:
 526:CherryUSB/core/usbd_core.c ****             value &= 0xFF;
 527:CherryUSB/core/usbd_core.c **** 
 528:CherryUSB/core/usbd_core.c ****             if (!usbd_set_configuration(busid, value, 0)) {
 529:CherryUSB/core/usbd_core.c ****                 ret = false;
 530:CherryUSB/core/usbd_core.c ****             } else {
 531:CherryUSB/core/usbd_core.c ****                 g_usbd_core[busid].configuration = value;
 532:CherryUSB/core/usbd_core.c ****                 usbd_class_event_notify_handler(busid, USBD_EVENT_CONFIGURED, NULL);
 533:CherryUSB/core/usbd_core.c ****                 g_usbd_core[busid].event_handler(busid, USBD_EVENT_CONFIGURED);
 534:CherryUSB/core/usbd_core.c ****             }
 535:CherryUSB/core/usbd_core.c ****             *len = 0;
 536:CherryUSB/core/usbd_core.c ****             break;
 537:CherryUSB/core/usbd_core.c **** 
 538:CherryUSB/core/usbd_core.c ****         case USB_REQUEST_GET_INTERFACE:
 539:CherryUSB/core/usbd_core.c ****         case USB_REQUEST_SET_INTERFACE:
 540:CherryUSB/core/usbd_core.c ****             ret = false;
 541:CherryUSB/core/usbd_core.c ****             break;
 542:CherryUSB/core/usbd_core.c **** 
 543:CherryUSB/core/usbd_core.c ****         default:
 544:CherryUSB/core/usbd_core.c ****             ret = false;
 545:CherryUSB/core/usbd_core.c ****             break;
 546:CherryUSB/core/usbd_core.c ****     }
 547:CherryUSB/core/usbd_core.c **** 
 548:CherryUSB/core/usbd_core.c ****     return ret;
 549:CherryUSB/core/usbd_core.c **** }
 550:CherryUSB/core/usbd_core.c **** 
 551:CherryUSB/core/usbd_core.c **** /**
 552:CherryUSB/core/usbd_core.c ****  * @brief handle a standard interface request
 553:CherryUSB/core/usbd_core.c ****  *
 554:CherryUSB/core/usbd_core.c ****  * @param [in]     setup    The setup packet
 555:CherryUSB/core/usbd_core.c ****  * @param [in,out] data     Data buffer
 556:CherryUSB/core/usbd_core.c ****  * @param [in,out] len      Pointer to data length
 557:CherryUSB/core/usbd_core.c ****  *
 558:CherryUSB/core/usbd_core.c ****  * @return true if the request was handled successfully
 559:CherryUSB/core/usbd_core.c ****  */
 560:CherryUSB/core/usbd_core.c **** static bool usbd_std_interface_req_handler(uint8_t busid, struct usb_setup_packet *setup, uint8_t *
 561:CherryUSB/core/usbd_core.c **** {
 562:CherryUSB/core/usbd_core.c ****     uint8_t type = HI_BYTE(setup->wValue);
 563:CherryUSB/core/usbd_core.c ****     uint8_t intf_num = LO_BYTE(setup->wIndex);
 564:CherryUSB/core/usbd_core.c ****     bool ret = true;
 565:CherryUSB/core/usbd_core.c **** 
 566:CherryUSB/core/usbd_core.c ****     /* Only when device is configured, then interface requests can be valid. */
 567:CherryUSB/core/usbd_core.c ****     if (!is_device_configured(busid)) {
 568:CherryUSB/core/usbd_core.c ****         return false;
 569:CherryUSB/core/usbd_core.c ****     }
ARM GAS  C:\Users\Jim_YW\AppData\Local\Temp\ccVYwxt0.s 			page 12


 570:CherryUSB/core/usbd_core.c **** 
 571:CherryUSB/core/usbd_core.c ****     switch (setup->bRequest) {
 572:CherryUSB/core/usbd_core.c ****         case USB_REQUEST_GET_STATUS:
 573:CherryUSB/core/usbd_core.c ****             (*data)[0] = 0x00;
 574:CherryUSB/core/usbd_core.c ****             (*data)[1] = 0x00;
 575:CherryUSB/core/usbd_core.c ****             *len = 2;
 576:CherryUSB/core/usbd_core.c ****             break;
 577:CherryUSB/core/usbd_core.c **** 
 578:CherryUSB/core/usbd_core.c ****         case USB_REQUEST_GET_DESCRIPTOR:
 579:CherryUSB/core/usbd_core.c ****             if (type == 0x22) { /* HID_DESCRIPTOR_TYPE_HID_REPORT */
 580:CherryUSB/core/usbd_core.c ****                 USB_LOG_INFO("read hid report descriptor\r\n");
 581:CherryUSB/core/usbd_core.c **** 
 582:CherryUSB/core/usbd_core.c ****                 for (uint8_t i = 0; i < g_usbd_core[busid].intf_offset; i++) {
 583:CherryUSB/core/usbd_core.c ****                     struct usbd_interface *intf = g_usbd_core[busid].intf[i];
 584:CherryUSB/core/usbd_core.c **** 
 585:CherryUSB/core/usbd_core.c ****                     if (intf && (intf->intf_num == intf_num)) {
 586:CherryUSB/core/usbd_core.c ****                         //*data = (uint8_t *)intf->hid_report_descriptor;
 587:CherryUSB/core/usbd_core.c ****                         memcpy(*data, intf->hid_report_descriptor, intf->hid_report_descriptor_len)
 588:CherryUSB/core/usbd_core.c ****                         *len = intf->hid_report_descriptor_len;
 589:CherryUSB/core/usbd_core.c ****                         return true;
 590:CherryUSB/core/usbd_core.c ****                     }
 591:CherryUSB/core/usbd_core.c ****                 }
 592:CherryUSB/core/usbd_core.c ****             }
 593:CherryUSB/core/usbd_core.c ****             ret = false;
 594:CherryUSB/core/usbd_core.c ****             break;
 595:CherryUSB/core/usbd_core.c ****         case USB_REQUEST_CLEAR_FEATURE:
 596:CherryUSB/core/usbd_core.c ****         case USB_REQUEST_SET_FEATURE:
 597:CherryUSB/core/usbd_core.c ****             ret = false;
 598:CherryUSB/core/usbd_core.c ****             break;
 599:CherryUSB/core/usbd_core.c ****         case USB_REQUEST_GET_INTERFACE:
 600:CherryUSB/core/usbd_core.c ****             (*data)[0] = 0;
 601:CherryUSB/core/usbd_core.c ****             *len = 1;
 602:CherryUSB/core/usbd_core.c ****             break;
 603:CherryUSB/core/usbd_core.c **** 
 604:CherryUSB/core/usbd_core.c ****         case USB_REQUEST_SET_INTERFACE:
 605:CherryUSB/core/usbd_core.c ****             usbd_set_interface(busid, setup->wIndex, setup->wValue);
 606:CherryUSB/core/usbd_core.c ****             *len = 0;
 607:CherryUSB/core/usbd_core.c ****             break;
 608:CherryUSB/core/usbd_core.c **** 
 609:CherryUSB/core/usbd_core.c ****         default:
 610:CherryUSB/core/usbd_core.c ****             ret = false;
 611:CherryUSB/core/usbd_core.c ****             break;
 612:CherryUSB/core/usbd_core.c ****     }
 613:CherryUSB/core/usbd_core.c **** 
 614:CherryUSB/core/usbd_core.c ****     return ret;
 615:CherryUSB/core/usbd_core.c **** }
 616:CherryUSB/core/usbd_core.c **** 
 617:CherryUSB/core/usbd_core.c **** /**
 618:CherryUSB/core/usbd_core.c ****  * @brief handle a standard endpoint request
 619:CherryUSB/core/usbd_core.c ****  *
 620:CherryUSB/core/usbd_core.c ****  * @param [in]     setup    The setup packet
 621:CherryUSB/core/usbd_core.c ****  * @param [in,out] data     Data buffer
 622:CherryUSB/core/usbd_core.c ****  * @param [in,out] len      Pointer to data length
 623:CherryUSB/core/usbd_core.c ****  *
 624:CherryUSB/core/usbd_core.c ****  * @return true if the request was handled successfully
 625:CherryUSB/core/usbd_core.c ****  */
 626:CherryUSB/core/usbd_core.c **** static bool usbd_std_endpoint_req_handler(uint8_t busid, struct usb_setup_packet *setup, uint8_t **
ARM GAS  C:\Users\Jim_YW\AppData\Local\Temp\ccVYwxt0.s 			page 13


 627:CherryUSB/core/usbd_core.c **** {
 628:CherryUSB/core/usbd_core.c ****     uint8_t ep = (uint8_t)setup->wIndex;
 629:CherryUSB/core/usbd_core.c ****     bool ret = true;
 630:CherryUSB/core/usbd_core.c **** 
 631:CherryUSB/core/usbd_core.c ****     /* Only when device is configured, then endpoint requests can be valid. */
 632:CherryUSB/core/usbd_core.c ****     if (!is_device_configured(busid)) {
 633:CherryUSB/core/usbd_core.c ****         return false;
 634:CherryUSB/core/usbd_core.c ****     }
 635:CherryUSB/core/usbd_core.c **** 
 636:CherryUSB/core/usbd_core.c ****     switch (setup->bRequest) {
 637:CherryUSB/core/usbd_core.c ****         case USB_REQUEST_GET_STATUS:
 638:CherryUSB/core/usbd_core.c ****             (*data)[0] = 0x00;
 639:CherryUSB/core/usbd_core.c ****             (*data)[1] = 0x00;
 640:CherryUSB/core/usbd_core.c ****             *len = 2;
 641:CherryUSB/core/usbd_core.c ****             break;
 642:CherryUSB/core/usbd_core.c ****         case USB_REQUEST_CLEAR_FEATURE:
 643:CherryUSB/core/usbd_core.c ****             if (setup->wValue == USB_FEATURE_ENDPOINT_HALT) {
 644:CherryUSB/core/usbd_core.c ****                 USB_LOG_ERR("ep:%02x clear halt\r\n", ep);
 645:CherryUSB/core/usbd_core.c **** 
 646:CherryUSB/core/usbd_core.c ****                 usbd_ep_clear_stall(busid, ep);
 647:CherryUSB/core/usbd_core.c ****                 break;
 648:CherryUSB/core/usbd_core.c ****             } else {
 649:CherryUSB/core/usbd_core.c ****                 ret = false;
 650:CherryUSB/core/usbd_core.c ****             }
 651:CherryUSB/core/usbd_core.c ****             *len = 0;
 652:CherryUSB/core/usbd_core.c ****             break;
 653:CherryUSB/core/usbd_core.c ****         case USB_REQUEST_SET_FEATURE:
 654:CherryUSB/core/usbd_core.c ****             if (setup->wValue == USB_FEATURE_ENDPOINT_HALT) {
 655:CherryUSB/core/usbd_core.c ****                 USB_LOG_ERR("ep:%02x set halt\r\n", ep);
 656:CherryUSB/core/usbd_core.c **** 
 657:CherryUSB/core/usbd_core.c ****                 usbd_ep_set_stall(busid, ep);
 658:CherryUSB/core/usbd_core.c ****             } else {
 659:CherryUSB/core/usbd_core.c ****                 ret = false;
 660:CherryUSB/core/usbd_core.c ****             }
 661:CherryUSB/core/usbd_core.c ****             *len = 0;
 662:CherryUSB/core/usbd_core.c ****             break;
 663:CherryUSB/core/usbd_core.c **** 
 664:CherryUSB/core/usbd_core.c ****         case USB_REQUEST_SYNCH_FRAME:
 665:CherryUSB/core/usbd_core.c ****             ret = false;
 666:CherryUSB/core/usbd_core.c ****             break;
 667:CherryUSB/core/usbd_core.c ****         default:
 668:CherryUSB/core/usbd_core.c ****             ret = false;
 669:CherryUSB/core/usbd_core.c ****             break;
 670:CherryUSB/core/usbd_core.c ****     }
 671:CherryUSB/core/usbd_core.c **** 
 672:CherryUSB/core/usbd_core.c ****     return ret;
 673:CherryUSB/core/usbd_core.c **** }
 674:CherryUSB/core/usbd_core.c **** 
 675:CherryUSB/core/usbd_core.c **** /**
 676:CherryUSB/core/usbd_core.c ****  * @brief handle standard requests (list in chapter 9)
 677:CherryUSB/core/usbd_core.c ****  *
 678:CherryUSB/core/usbd_core.c ****  * @param [in]     setup    The setup packet
 679:CherryUSB/core/usbd_core.c ****  * @param [in,out] data     Data buffer
 680:CherryUSB/core/usbd_core.c ****  * @param [in,out] len      Pointer to data length
 681:CherryUSB/core/usbd_core.c ****  *
 682:CherryUSB/core/usbd_core.c ****  * @return true if the request was handled successfully
 683:CherryUSB/core/usbd_core.c ****  */
ARM GAS  C:\Users\Jim_YW\AppData\Local\Temp\ccVYwxt0.s 			page 14


 684:CherryUSB/core/usbd_core.c **** static int usbd_standard_request_handler(uint8_t busid, struct usb_setup_packet *setup, uint8_t **d
 685:CherryUSB/core/usbd_core.c **** {
 686:CherryUSB/core/usbd_core.c ****     int rc = 0;
 687:CherryUSB/core/usbd_core.c **** 
 688:CherryUSB/core/usbd_core.c ****     switch (setup->bmRequestType & USB_REQUEST_RECIPIENT_MASK) {
 689:CherryUSB/core/usbd_core.c ****         case USB_REQUEST_RECIPIENT_DEVICE:
 690:CherryUSB/core/usbd_core.c ****             if (usbd_std_device_req_handler(busid, setup, data, len) == false) {
 691:CherryUSB/core/usbd_core.c ****                 rc = -1;
 692:CherryUSB/core/usbd_core.c ****             }
 693:CherryUSB/core/usbd_core.c **** 
 694:CherryUSB/core/usbd_core.c ****             break;
 695:CherryUSB/core/usbd_core.c **** 
 696:CherryUSB/core/usbd_core.c ****         case USB_REQUEST_RECIPIENT_INTERFACE:
 697:CherryUSB/core/usbd_core.c ****             if (usbd_std_interface_req_handler(busid, setup, data, len) == false) {
 698:CherryUSB/core/usbd_core.c ****                 rc = -1;
 699:CherryUSB/core/usbd_core.c ****             }
 700:CherryUSB/core/usbd_core.c **** 
 701:CherryUSB/core/usbd_core.c ****             break;
 702:CherryUSB/core/usbd_core.c **** 
 703:CherryUSB/core/usbd_core.c ****         case USB_REQUEST_RECIPIENT_ENDPOINT:
 704:CherryUSB/core/usbd_core.c ****             if (usbd_std_endpoint_req_handler(busid, setup, data, len) == false) {
 705:CherryUSB/core/usbd_core.c ****                 rc = -1;
 706:CherryUSB/core/usbd_core.c ****             }
 707:CherryUSB/core/usbd_core.c **** 
 708:CherryUSB/core/usbd_core.c ****             break;
 709:CherryUSB/core/usbd_core.c **** 
 710:CherryUSB/core/usbd_core.c ****         default:
 711:CherryUSB/core/usbd_core.c ****             rc = -1;
 712:CherryUSB/core/usbd_core.c ****             break;
 713:CherryUSB/core/usbd_core.c ****     }
 714:CherryUSB/core/usbd_core.c **** 
 715:CherryUSB/core/usbd_core.c ****     return rc;
 716:CherryUSB/core/usbd_core.c **** }
 717:CherryUSB/core/usbd_core.c **** 
 718:CherryUSB/core/usbd_core.c **** /**
 719:CherryUSB/core/usbd_core.c ****  * @brief handler for class requests
 720:CherryUSB/core/usbd_core.c ****  *
 721:CherryUSB/core/usbd_core.c ****  * If a custom request handler was installed, this handler is called first.
 722:CherryUSB/core/usbd_core.c ****  *
 723:CherryUSB/core/usbd_core.c ****  * @param [in]     setup    The setup packet
 724:CherryUSB/core/usbd_core.c ****  * @param [in,out] data     Data buffer
 725:CherryUSB/core/usbd_core.c ****  * @param [in,out] len      Pointer to data length
 726:CherryUSB/core/usbd_core.c ****  *
 727:CherryUSB/core/usbd_core.c ****  * @return true if the request was handled successfully
 728:CherryUSB/core/usbd_core.c ****  */
 729:CherryUSB/core/usbd_core.c **** static int usbd_class_request_handler(uint8_t busid, struct usb_setup_packet *setup, uint8_t **data
 730:CherryUSB/core/usbd_core.c **** {
  62              		.loc 1 730 1 is_stmt 1 view -0
  63              		.cfi_startproc
  64              		@ args = 0, pretend = 0, frame = 0
  65              		@ frame_needed = 0, uses_anonymous_args = 0
  66              		.loc 1 730 1 is_stmt 0 view .LVU5
  67 0000 70B5     		push	{r4, r5, r6, lr}
  68              	.LCFI0:
  69              		.cfi_def_cfa_offset 16
  70              		.cfi_offset 4, -16
  71              		.cfi_offset 5, -12
ARM GAS  C:\Users\Jim_YW\AppData\Local\Temp\ccVYwxt0.s 			page 15


  72              		.cfi_offset 6, -8
  73              		.cfi_offset 14, -4
 731:CherryUSB/core/usbd_core.c ****     if ((setup->bmRequestType & USB_REQUEST_RECIPIENT_MASK) == USB_REQUEST_RECIPIENT_INTERFACE) {
  74              		.loc 1 731 5 is_stmt 1 view .LVU6
  75              		.loc 1 731 15 is_stmt 0 view .LVU7
  76 0002 0C78     		ldrb	r4, [r1]	@ zero_extendqisi2
  77 0004 04F00304 		and	r4, r4, #3
  78              		.loc 1 731 8 view .LVU8
  79 0008 012C     		cmp	r4, #1
  80 000a 27D0     		beq	.L17
 732:CherryUSB/core/usbd_core.c ****         for (uint8_t i = 0; i < g_usbd_core[busid].intf_offset; i++) {
 733:CherryUSB/core/usbd_core.c ****             struct usbd_interface *intf = g_usbd_core[busid].intf[i];
 734:CherryUSB/core/usbd_core.c **** 
 735:CherryUSB/core/usbd_core.c ****             if (intf && intf->class_interface_handler && (intf->intf_num == (setup->wIndex & 0xFF))
 736:CherryUSB/core/usbd_core.c ****                 return intf->class_interface_handler(busid, setup, data, len);
 737:CherryUSB/core/usbd_core.c ****             }
 738:CherryUSB/core/usbd_core.c ****         }
 739:CherryUSB/core/usbd_core.c ****     } else if ((setup->bmRequestType & USB_REQUEST_RECIPIENT_MASK) == USB_REQUEST_RECIPIENT_ENDPOIN
  81              		.loc 1 739 12 is_stmt 1 view .LVU9
  82              		.loc 1 739 15 is_stmt 0 view .LVU10
  83 000c 022C     		cmp	r4, #2
  84 000e 2AD1     		bne	.L18
  85              	.LBB2:
 740:CherryUSB/core/usbd_core.c ****         for (uint8_t i = 0; i < g_usbd_core[busid].intf_offset; i++) {
  86              		.loc 1 740 22 view .LVU11
  87 0010 4FF0000E 		mov	lr, #0
  88 0014 2EE0     		b	.L10
  89              	.LVL3:
  90              	.L7:
  91              		.loc 1 740 22 view .LVU12
  92              	.LBE2:
  93              	.LBB4:
 732:CherryUSB/core/usbd_core.c ****         for (uint8_t i = 0; i < g_usbd_core[busid].intf_offset; i++) {
  94              		.loc 1 732 65 is_stmt 1 discriminator 2 view .LVU13
 732:CherryUSB/core/usbd_core.c ****         for (uint8_t i = 0; i < g_usbd_core[busid].intf_offset; i++) {
  95              		.loc 1 732 66 is_stmt 0 discriminator 2 view .LVU14
  96 0016 0134     		adds	r4, r4, #1
  97              	.LVL4:
 732:CherryUSB/core/usbd_core.c ****         for (uint8_t i = 0; i < g_usbd_core[busid].intf_offset; i++) {
  98              		.loc 1 732 66 discriminator 2 view .LVU15
  99 0018 E4B2     		uxtb	r4, r4
 100              	.LVL5:
 101              	.L5:
 732:CherryUSB/core/usbd_core.c ****         for (uint8_t i = 0; i < g_usbd_core[busid].intf_offset; i++) {
 102              		.loc 1 732 29 is_stmt 1 discriminator 1 view .LVU16
 732:CherryUSB/core/usbd_core.c ****         for (uint8_t i = 0; i < g_usbd_core[busid].intf_offset; i++) {
 103              		.loc 1 732 51 is_stmt 0 discriminator 1 view .LVU17
 104 001a 254D     		ldr	r5, .L21
 105 001c 4FF4DA7C 		mov	ip, #436
 106 0020 0CFB005C 		mla	ip, ip, r0, r5
 107 0024 9CF84C51 		ldrb	r5, [ip, #332]	@ zero_extendqisi2
 732:CherryUSB/core/usbd_core.c ****         for (uint8_t i = 0; i < g_usbd_core[busid].intf_offset; i++) {
 108              		.loc 1 732 9 discriminator 1 view .LVU18
 109 0028 A542     		cmp	r5, r4
 110 002a 19D9     		bls	.L19
 111              	.LBB5:
 733:CherryUSB/core/usbd_core.c **** 
ARM GAS  C:\Users\Jim_YW\AppData\Local\Temp\ccVYwxt0.s 			page 16


 112              		.loc 1 733 13 is_stmt 1 view .LVU19
 733:CherryUSB/core/usbd_core.c **** 
 113              		.loc 1 733 36 is_stmt 0 view .LVU20
 114 002c 4FF06D0C 		mov	ip, #109
 115 0030 0CFB004C 		mla	ip, ip, r0, r4
 116 0034 0CF14A0C 		add	ip, ip, #74
 117 0038 1D4D     		ldr	r5, .L21
 118 003a 05EB8C0C 		add	ip, r5, ip, lsl #2
 119 003e DCF80450 		ldr	r5, [ip, #4]
 120              	.LVL6:
 735:CherryUSB/core/usbd_core.c ****                 return intf->class_interface_handler(busid, setup, data, len);
 121              		.loc 1 735 13 is_stmt 1 view .LVU21
 735:CherryUSB/core/usbd_core.c ****                 return intf->class_interface_handler(busid, setup, data, len);
 122              		.loc 1 735 16 is_stmt 0 view .LVU22
 123 0042 002D     		cmp	r5, #0
 124 0044 E7D0     		beq	.L7
 735:CherryUSB/core/usbd_core.c ****                 return intf->class_interface_handler(busid, setup, data, len);
 125              		.loc 1 735 29 discriminator 1 view .LVU23
 126 0046 2E68     		ldr	r6, [r5]
 735:CherryUSB/core/usbd_core.c ****                 return intf->class_interface_handler(busid, setup, data, len);
 127              		.loc 1 735 22 discriminator 1 view .LVU24
 128 0048 002E     		cmp	r6, #0
 129 004a E4D0     		beq	.L7
 735:CherryUSB/core/usbd_core.c ****                 return intf->class_interface_handler(busid, setup, data, len);
 130              		.loc 1 735 63 discriminator 2 view .LVU25
 131 004c 95F818C0 		ldrb	ip, [r5, #24]	@ zero_extendqisi2
 735:CherryUSB/core/usbd_core.c ****                 return intf->class_interface_handler(busid, setup, data, len);
 132              		.loc 1 735 83 discriminator 2 view .LVU26
 133 0050 8D88     		ldrh	r5, [r1, #4]	@ unaligned
 134              	.LVL7:
 735:CherryUSB/core/usbd_core.c ****                 return intf->class_interface_handler(busid, setup, data, len);
 135              		.loc 1 735 92 discriminator 2 view .LVU27
 136 0052 EDB2     		uxtb	r5, r5
 735:CherryUSB/core/usbd_core.c ****                 return intf->class_interface_handler(busid, setup, data, len);
 137              		.loc 1 735 55 discriminator 2 view .LVU28
 138 0054 AC45     		cmp	ip, r5
 139 0056 DED1     		bne	.L7
 736:CherryUSB/core/usbd_core.c ****             }
 140              		.loc 1 736 17 is_stmt 1 view .LVU29
 736:CherryUSB/core/usbd_core.c ****             }
 141              		.loc 1 736 24 is_stmt 0 view .LVU30
 142 0058 B047     		blx	r6
 143              	.LVL8:
 736:CherryUSB/core/usbd_core.c ****             }
 144              		.loc 1 736 24 view .LVU31
 145 005a 28E0     		b	.L4
 146              	.LVL9:
 147              	.L17:
 736:CherryUSB/core/usbd_core.c ****             }
 148              		.loc 1 736 24 view .LVU32
 149              	.LBE5:
 732:CherryUSB/core/usbd_core.c ****             struct usbd_interface *intf = g_usbd_core[busid].intf[i];
 150              		.loc 1 732 22 view .LVU33
 151 005c 0024     		movs	r4, #0
 152 005e DCE7     		b	.L5
 153              	.LVL10:
 154              	.L19:
ARM GAS  C:\Users\Jim_YW\AppData\Local\Temp\ccVYwxt0.s 			page 17


 732:CherryUSB/core/usbd_core.c ****             struct usbd_interface *intf = g_usbd_core[busid].intf[i];
 155              		.loc 1 732 22 view .LVU34
 156              	.LBE4:
 741:CherryUSB/core/usbd_core.c ****             struct usbd_interface *intf = g_usbd_core[busid].intf[i];
 742:CherryUSB/core/usbd_core.c **** 
 743:CherryUSB/core/usbd_core.c ****             if (intf && intf->class_endpoint_handler) {
 744:CherryUSB/core/usbd_core.c ****                 return intf->class_endpoint_handler(busid, setup, data, len);
 745:CherryUSB/core/usbd_core.c ****             }
 746:CherryUSB/core/usbd_core.c ****         }
 747:CherryUSB/core/usbd_core.c ****     }
 748:CherryUSB/core/usbd_core.c ****     return -1;
 157              		.loc 1 748 12 view .LVU35
 158 0060 4FF0FF30 		mov	r0, #-1
 159              	.LVL11:
 160              		.loc 1 748 12 view .LVU36
 161 0064 23E0     		b	.L4
 162              	.LVL12:
 163              	.L18:
 164              		.loc 1 748 12 view .LVU37
 165 0066 4FF0FF30 		mov	r0, #-1
 166              	.LVL13:
 167              		.loc 1 748 12 view .LVU38
 168 006a 20E0     		b	.L4
 169              	.LVL14:
 170              	.L11:
 171              	.LBB6:
 740:CherryUSB/core/usbd_core.c ****             struct usbd_interface *intf = g_usbd_core[busid].intf[i];
 172              		.loc 1 740 65 is_stmt 1 discriminator 2 view .LVU39
 740:CherryUSB/core/usbd_core.c ****             struct usbd_interface *intf = g_usbd_core[busid].intf[i];
 173              		.loc 1 740 66 is_stmt 0 discriminator 2 view .LVU40
 174 006c 0EF1010E 		add	lr, lr, #1
 175              	.LVL15:
 740:CherryUSB/core/usbd_core.c ****             struct usbd_interface *intf = g_usbd_core[busid].intf[i];
 176              		.loc 1 740 66 discriminator 2 view .LVU41
 177 0070 5FFA8EFE 		uxtb	lr, lr
 178              	.LVL16:
 179              	.L10:
 740:CherryUSB/core/usbd_core.c ****             struct usbd_interface *intf = g_usbd_core[busid].intf[i];
 180              		.loc 1 740 29 is_stmt 1 discriminator 1 view .LVU42
 740:CherryUSB/core/usbd_core.c ****             struct usbd_interface *intf = g_usbd_core[busid].intf[i];
 181              		.loc 1 740 51 is_stmt 0 discriminator 1 view .LVU43
 182 0074 0E4C     		ldr	r4, .L21
 183 0076 4FF4DA7C 		mov	ip, #436
 184 007a 0CFB004C 		mla	ip, ip, r0, r4
 185 007e 9CF84C41 		ldrb	r4, [ip, #332]	@ zero_extendqisi2
 740:CherryUSB/core/usbd_core.c ****             struct usbd_interface *intf = g_usbd_core[busid].intf[i];
 186              		.loc 1 740 9 discriminator 1 view .LVU44
 187 0082 7445     		cmp	r4, lr
 188 0084 11D9     		bls	.L20
 189              	.LBB3:
 741:CherryUSB/core/usbd_core.c ****             struct usbd_interface *intf = g_usbd_core[busid].intf[i];
 190              		.loc 1 741 13 is_stmt 1 view .LVU45
 741:CherryUSB/core/usbd_core.c ****             struct usbd_interface *intf = g_usbd_core[busid].intf[i];
 191              		.loc 1 741 36 is_stmt 0 view .LVU46
 192 0086 4FF06D0C 		mov	ip, #109
 193 008a 0CFB00EC 		mla	ip, ip, r0, lr
 194 008e 0CF14A0C 		add	ip, ip, #74
ARM GAS  C:\Users\Jim_YW\AppData\Local\Temp\ccVYwxt0.s 			page 18


 195 0092 074C     		ldr	r4, .L21
 196 0094 04EB8C0C 		add	ip, r4, ip, lsl #2
 197 0098 DCF80440 		ldr	r4, [ip, #4]
 198              	.LVL17:
 743:CherryUSB/core/usbd_core.c ****                 return intf->class_endpoint_handler(busid, setup, data, len);
 199              		.loc 1 743 13 is_stmt 1 view .LVU47
 743:CherryUSB/core/usbd_core.c ****                 return intf->class_endpoint_handler(busid, setup, data, len);
 200              		.loc 1 743 16 is_stmt 0 view .LVU48
 201 009c 002C     		cmp	r4, #0
 202 009e E5D0     		beq	.L11
 743:CherryUSB/core/usbd_core.c ****                 return intf->class_endpoint_handler(busid, setup, data, len);
 203              		.loc 1 743 29 discriminator 1 view .LVU49
 204 00a0 6468     		ldr	r4, [r4, #4]
 205              	.LVL18:
 743:CherryUSB/core/usbd_core.c ****                 return intf->class_endpoint_handler(busid, setup, data, len);
 206              		.loc 1 743 22 discriminator 1 view .LVU50
 207 00a2 002C     		cmp	r4, #0
 208 00a4 E2D0     		beq	.L11
 744:CherryUSB/core/usbd_core.c ****             }
 209              		.loc 1 744 17 is_stmt 1 view .LVU51
 744:CherryUSB/core/usbd_core.c ****             }
 210              		.loc 1 744 24 is_stmt 0 view .LVU52
 211 00a6 A047     		blx	r4
 212              	.LVL19:
 744:CherryUSB/core/usbd_core.c ****             }
 213              		.loc 1 744 24 view .LVU53
 214 00a8 01E0     		b	.L4
 215              	.LVL20:
 216              	.L20:
 744:CherryUSB/core/usbd_core.c ****             }
 217              		.loc 1 744 24 view .LVU54
 218              	.LBE3:
 219              	.LBE6:
 220              		.loc 1 748 12 view .LVU55
 221 00aa 4FF0FF30 		mov	r0, #-1
 222              	.LVL21:
 223              	.L4:
 749:CherryUSB/core/usbd_core.c **** }
 224              		.loc 1 749 1 view .LVU56
 225 00ae 70BD     		pop	{r4, r5, r6, pc}
 226              	.L22:
 227              		.align	2
 228              	.L21:
 229 00b0 00000000 		.word	.LANCHOR0
 230              		.cfi_endproc
 231              	.LFE33:
 233              		.section	.text.usbd_class_event_notify_handler,"ax",%progbits
 234              		.align	1
 235              		.syntax unified
 236              		.thumb
 237              		.thumb_func
 239              	usbd_class_event_notify_handler:
 240              	.LVL22:
 241              	.LFB36:
 750:CherryUSB/core/usbd_core.c **** 
 751:CherryUSB/core/usbd_core.c **** /**
 752:CherryUSB/core/usbd_core.c ****  * @brief handler for vendor requests
ARM GAS  C:\Users\Jim_YW\AppData\Local\Temp\ccVYwxt0.s 			page 19


 753:CherryUSB/core/usbd_core.c ****  *
 754:CherryUSB/core/usbd_core.c ****  * If a custom request handler was installed, this handler is called first.
 755:CherryUSB/core/usbd_core.c ****  *
 756:CherryUSB/core/usbd_core.c ****  * @param [in]     setup    The setup packet
 757:CherryUSB/core/usbd_core.c ****  * @param [in,out] data     Data buffer
 758:CherryUSB/core/usbd_core.c ****  * @param [in,out] len      Pointer to data length
 759:CherryUSB/core/usbd_core.c ****  *
 760:CherryUSB/core/usbd_core.c ****  * @return true if the request was handled successfully
 761:CherryUSB/core/usbd_core.c ****  */
 762:CherryUSB/core/usbd_core.c **** static int usbd_vendor_request_handler(uint8_t busid, struct usb_setup_packet *setup, uint8_t **dat
 763:CherryUSB/core/usbd_core.c **** {
 764:CherryUSB/core/usbd_core.c ****     uint32_t desclen;
 765:CherryUSB/core/usbd_core.c **** #ifdef CONFIG_USBDEV_ADVANCE_DESC
 766:CherryUSB/core/usbd_core.c ****     if (g_usbd_core[busid].descriptors->msosv1_descriptor) {
 767:CherryUSB/core/usbd_core.c ****         if (setup->bRequest == g_usbd_core[busid].descriptors->msosv1_descriptor->vendor_code) {
 768:CherryUSB/core/usbd_core.c ****             switch (setup->wIndex) {
 769:CherryUSB/core/usbd_core.c ****                 case 0x04:
 770:CherryUSB/core/usbd_core.c ****                     USB_LOG_INFO("get Compat ID\r\n");
 771:CherryUSB/core/usbd_core.c ****                     desclen = g_usbd_core[busid].descriptors->msosv1_descriptor->compat_id[0] +
 772:CherryUSB/core/usbd_core.c ****                               (g_usbd_core[busid].descriptors->msosv1_descriptor->compat_id[1] << 8
 773:CherryUSB/core/usbd_core.c ****                               (g_usbd_core[busid].descriptors->msosv1_descriptor->compat_id[2] << 1
 774:CherryUSB/core/usbd_core.c ****                               (g_usbd_core[busid].descriptors->msosv1_descriptor->compat_id[3] << 2
 775:CherryUSB/core/usbd_core.c **** 
 776:CherryUSB/core/usbd_core.c ****                     //*data = (uint8_t *)g_usbd_core[busid].descriptors->msosv1_descriptor->compat_
 777:CherryUSB/core/usbd_core.c ****                     memcpy(*data, g_usbd_core[busid].descriptors->msosv1_descriptor->compat_id, des
 778:CherryUSB/core/usbd_core.c ****                     *len = desclen;
 779:CherryUSB/core/usbd_core.c ****                     return 0;
 780:CherryUSB/core/usbd_core.c ****                 case 0x05:
 781:CherryUSB/core/usbd_core.c ****                     USB_LOG_INFO("get Compat id properties\r\n");
 782:CherryUSB/core/usbd_core.c ****                     desclen = g_usbd_core[busid].descriptors->msosv1_descriptor->comp_id_property[s
 783:CherryUSB/core/usbd_core.c ****                               (g_usbd_core[busid].descriptors->msosv1_descriptor->comp_id_property[
 784:CherryUSB/core/usbd_core.c ****                               (g_usbd_core[busid].descriptors->msosv1_descriptor->comp_id_property[
 785:CherryUSB/core/usbd_core.c ****                               (g_usbd_core[busid].descriptors->msosv1_descriptor->comp_id_property[
 786:CherryUSB/core/usbd_core.c **** 
 787:CherryUSB/core/usbd_core.c ****                     //*data = (uint8_t *)g_usbd_core[busid].descriptors->msosv1_descriptor->comp_id
 788:CherryUSB/core/usbd_core.c ****                     memcpy(*data, g_usbd_core[busid].descriptors->msosv1_descriptor->comp_id_proper
 789:CherryUSB/core/usbd_core.c ****                     *len = desclen;
 790:CherryUSB/core/usbd_core.c ****                     return 0;
 791:CherryUSB/core/usbd_core.c ****                 default:
 792:CherryUSB/core/usbd_core.c ****                     USB_LOG_ERR("unknown vendor code\r\n");
 793:CherryUSB/core/usbd_core.c ****                     return -1;
 794:CherryUSB/core/usbd_core.c ****             }
 795:CherryUSB/core/usbd_core.c ****         }
 796:CherryUSB/core/usbd_core.c ****     } else if (g_usbd_core[busid].descriptors->msosv2_descriptor) {
 797:CherryUSB/core/usbd_core.c ****         if (setup->bRequest == g_usbd_core[busid].descriptors->msosv2_descriptor->vendor_code) {
 798:CherryUSB/core/usbd_core.c ****             switch (setup->wIndex) {
 799:CherryUSB/core/usbd_core.c ****                 case WINUSB_REQUEST_GET_DESCRIPTOR_SET:
 800:CherryUSB/core/usbd_core.c ****                     USB_LOG_INFO("GET MS OS 2.0 Descriptor\r\n");
 801:CherryUSB/core/usbd_core.c **** 
 802:CherryUSB/core/usbd_core.c ****                     desclen = g_usbd_core[busid].descriptors->msosv2_descriptor->compat_id_len;
 803:CherryUSB/core/usbd_core.c ****                     //*data = (uint8_t *)g_usbd_core[busid].descriptors->msosv2_descriptor->compat_
 804:CherryUSB/core/usbd_core.c ****                     memcpy(*data, g_usbd_core[busid].descriptors->msosv2_descriptor->compat_id, des
 805:CherryUSB/core/usbd_core.c ****                     *len = g_usbd_core[busid].descriptors->msosv2_descriptor->compat_id_len;
 806:CherryUSB/core/usbd_core.c ****                     return 0;
 807:CherryUSB/core/usbd_core.c ****                 default:
 808:CherryUSB/core/usbd_core.c ****                     USB_LOG_ERR("unknown vendor code\r\n");
 809:CherryUSB/core/usbd_core.c ****                     return -1;
ARM GAS  C:\Users\Jim_YW\AppData\Local\Temp\ccVYwxt0.s 			page 20


 810:CherryUSB/core/usbd_core.c ****             }
 811:CherryUSB/core/usbd_core.c ****         }
 812:CherryUSB/core/usbd_core.c ****     } else if (g_usbd_core[busid].descriptors->webusb_url_descriptor) {
 813:CherryUSB/core/usbd_core.c ****         if (setup->bRequest == g_usbd_core[busid].descriptors->webusb_url_descriptor->vendor_code) 
 814:CherryUSB/core/usbd_core.c ****             switch (setup->wIndex) {
 815:CherryUSB/core/usbd_core.c ****                 case WINUSB_REQUEST_GET_DESCRIPTOR_SET:
 816:CherryUSB/core/usbd_core.c ****                     USB_LOG_INFO("GET Webusb url Descriptor\r\n");
 817:CherryUSB/core/usbd_core.c **** 
 818:CherryUSB/core/usbd_core.c ****                     desclen = g_usbd_core[busid].descriptors->webusb_url_descriptor->string_len;
 819:CherryUSB/core/usbd_core.c ****                     //*data = (uint8_t *)g_usbd_core[busid].descriptors->webusb_url_descriptor->str
 820:CherryUSB/core/usbd_core.c ****                     memcpy(*data, g_usbd_core[busid].descriptors->webusb_url_descriptor->string, de
 821:CherryUSB/core/usbd_core.c ****                     *len = desclen;
 822:CherryUSB/core/usbd_core.c ****                     return 0;
 823:CherryUSB/core/usbd_core.c ****                 default:
 824:CherryUSB/core/usbd_core.c ****                     USB_LOG_ERR("unknown vendor code\r\n");
 825:CherryUSB/core/usbd_core.c ****                     return -1;
 826:CherryUSB/core/usbd_core.c ****             }
 827:CherryUSB/core/usbd_core.c ****         }
 828:CherryUSB/core/usbd_core.c ****     }
 829:CherryUSB/core/usbd_core.c **** #else
 830:CherryUSB/core/usbd_core.c ****     if (g_usbd_core[busid].msosv1_desc) {
 831:CherryUSB/core/usbd_core.c ****         if (setup->bRequest == g_usbd_core[busid].msosv1_desc->vendor_code) {
 832:CherryUSB/core/usbd_core.c ****             switch (setup->wIndex) {
 833:CherryUSB/core/usbd_core.c ****                 case 0x04:
 834:CherryUSB/core/usbd_core.c ****                     USB_LOG_INFO("get Compat ID\r\n");
 835:CherryUSB/core/usbd_core.c ****                     //*data = (uint8_t *)msosv1_desc->compat_id;
 836:CherryUSB/core/usbd_core.c ****                     desclen = g_usbd_core[busid].msosv1_desc->compat_id[0] +
 837:CherryUSB/core/usbd_core.c ****                               (g_usbd_core[busid].msosv1_desc->compat_id[1] << 8) +
 838:CherryUSB/core/usbd_core.c ****                               (g_usbd_core[busid].msosv1_desc->compat_id[2] << 16) +
 839:CherryUSB/core/usbd_core.c ****                               (g_usbd_core[busid].msosv1_desc->compat_id[3] << 24);
 840:CherryUSB/core/usbd_core.c ****                     memcpy(*data, g_usbd_core[busid].msosv1_desc->compat_id, desclen);
 841:CherryUSB/core/usbd_core.c ****                     *len = desclen;
 842:CherryUSB/core/usbd_core.c ****                     return 0;
 843:CherryUSB/core/usbd_core.c ****                 case 0x05:
 844:CherryUSB/core/usbd_core.c ****                     USB_LOG_INFO("get Compat id properties\r\n");
 845:CherryUSB/core/usbd_core.c ****                     //*data = (uint8_t *)msosv1_desc->comp_id_property[setup->wValue];
 846:CherryUSB/core/usbd_core.c ****                     desclen = g_usbd_core[busid].msosv1_desc->comp_id_property[setup->wValue][0] +
 847:CherryUSB/core/usbd_core.c ****                               (g_usbd_core[busid].msosv1_desc->comp_id_property[setup->wValue][1] <
 848:CherryUSB/core/usbd_core.c ****                               (g_usbd_core[busid].msosv1_desc->comp_id_property[setup->wValue][2] <
 849:CherryUSB/core/usbd_core.c ****                               (g_usbd_core[busid].msosv1_desc->comp_id_property[setup->wValue][3] <
 850:CherryUSB/core/usbd_core.c ****                     memcpy(*data, g_usbd_core[busid].msosv1_desc->comp_id_property[setup->wValue], 
 851:CherryUSB/core/usbd_core.c ****                     *len = desclen;
 852:CherryUSB/core/usbd_core.c ****                     return 0;
 853:CherryUSB/core/usbd_core.c ****                 default:
 854:CherryUSB/core/usbd_core.c ****                     USB_LOG_ERR("unknown vendor code\r\n");
 855:CherryUSB/core/usbd_core.c ****                     return -1;
 856:CherryUSB/core/usbd_core.c ****             }
 857:CherryUSB/core/usbd_core.c ****         }
 858:CherryUSB/core/usbd_core.c ****     } else if (g_usbd_core[busid].msosv2_desc) {
 859:CherryUSB/core/usbd_core.c ****         if (setup->bRequest == g_usbd_core[busid].msosv2_desc->vendor_code) {
 860:CherryUSB/core/usbd_core.c ****             switch (setup->wIndex) {
 861:CherryUSB/core/usbd_core.c ****                 case WINUSB_REQUEST_GET_DESCRIPTOR_SET:
 862:CherryUSB/core/usbd_core.c ****                     USB_LOG_INFO("GET MS OS 2.0 Descriptor\r\n");
 863:CherryUSB/core/usbd_core.c ****                     //*data = (uint8_t *)msosv2_desc->compat_id;
 864:CherryUSB/core/usbd_core.c ****                     memcpy(*data, g_usbd_core[busid].msosv2_desc->compat_id, g_usbd_core[busid].mso
 865:CherryUSB/core/usbd_core.c ****                     *len = g_usbd_core[busid].msosv2_desc->compat_id_len;
 866:CherryUSB/core/usbd_core.c ****                     return 0;
ARM GAS  C:\Users\Jim_YW\AppData\Local\Temp\ccVYwxt0.s 			page 21


 867:CherryUSB/core/usbd_core.c ****                 default:
 868:CherryUSB/core/usbd_core.c ****                     USB_LOG_ERR("unknown vendor code\r\n");
 869:CherryUSB/core/usbd_core.c ****                     return -1;
 870:CherryUSB/core/usbd_core.c ****             }
 871:CherryUSB/core/usbd_core.c ****         }
 872:CherryUSB/core/usbd_core.c ****     }
 873:CherryUSB/core/usbd_core.c **** #endif
 874:CherryUSB/core/usbd_core.c ****     for (uint8_t i = 0; i < g_usbd_core[busid].intf_offset; i++) {
 875:CherryUSB/core/usbd_core.c ****         struct usbd_interface *intf = g_usbd_core[busid].intf[i];
 876:CherryUSB/core/usbd_core.c **** 
 877:CherryUSB/core/usbd_core.c ****         if (intf && intf->vendor_handler && (intf->vendor_handler(busid, setup, data, len) == 0)) {
 878:CherryUSB/core/usbd_core.c ****             return 0;
 879:CherryUSB/core/usbd_core.c ****         }
 880:CherryUSB/core/usbd_core.c ****     }
 881:CherryUSB/core/usbd_core.c **** 
 882:CherryUSB/core/usbd_core.c ****     return -1;
 883:CherryUSB/core/usbd_core.c **** }
 884:CherryUSB/core/usbd_core.c **** 
 885:CherryUSB/core/usbd_core.c **** /**
 886:CherryUSB/core/usbd_core.c ****  * @brief handle setup request( standard/class/vendor/other)
 887:CherryUSB/core/usbd_core.c ****  *
 888:CherryUSB/core/usbd_core.c ****  * @param [in]     setup The setup packet
 889:CherryUSB/core/usbd_core.c ****  * @param [in,out] data  Data buffer
 890:CherryUSB/core/usbd_core.c ****  * @param [in,out] len   Pointer to data length
 891:CherryUSB/core/usbd_core.c ****  *
 892:CherryUSB/core/usbd_core.c ****  * @return true if the request was handles successfully
 893:CherryUSB/core/usbd_core.c ****  */
 894:CherryUSB/core/usbd_core.c **** static bool usbd_setup_request_handler(uint8_t busid, struct usb_setup_packet *setup, uint8_t **dat
 895:CherryUSB/core/usbd_core.c **** {
 896:CherryUSB/core/usbd_core.c ****     switch (setup->bmRequestType & USB_REQUEST_TYPE_MASK) {
 897:CherryUSB/core/usbd_core.c ****         case USB_REQUEST_STANDARD:
 898:CherryUSB/core/usbd_core.c **** #ifndef CONFIG_USB_HS
 899:CherryUSB/core/usbd_core.c ****             //g_usbd_core[busid].speed = USB_SPEED_FULL; /* next time will support getting device s
 900:CherryUSB/core/usbd_core.c ****             if ((setup->bRequest == 0x06) && (setup->wValue == 0x0600) && (g_usbd_core[busid].speed
 901:CherryUSB/core/usbd_core.c ****                 USB_LOG_WRN("Ignore DQD in fs\r\n"); /* Device Qualifier Descriptor */
 902:CherryUSB/core/usbd_core.c ****                 return false;
 903:CherryUSB/core/usbd_core.c ****             }
 904:CherryUSB/core/usbd_core.c **** #endif
 905:CherryUSB/core/usbd_core.c ****             if (usbd_standard_request_handler(busid, setup, data, len) < 0) {
 906:CherryUSB/core/usbd_core.c ****                 USB_LOG_ERR("standard request error\r\n");
 907:CherryUSB/core/usbd_core.c ****                 usbd_print_setup(setup);
 908:CherryUSB/core/usbd_core.c ****                 return false;
 909:CherryUSB/core/usbd_core.c ****             }
 910:CherryUSB/core/usbd_core.c ****             break;
 911:CherryUSB/core/usbd_core.c ****         case USB_REQUEST_CLASS:
 912:CherryUSB/core/usbd_core.c ****             if (usbd_class_request_handler(busid, setup, data, len) < 0) {
 913:CherryUSB/core/usbd_core.c ****                 USB_LOG_ERR("class request error\r\n");
 914:CherryUSB/core/usbd_core.c ****                 usbd_print_setup(setup);
 915:CherryUSB/core/usbd_core.c ****                 return false;
 916:CherryUSB/core/usbd_core.c ****             }
 917:CherryUSB/core/usbd_core.c ****             break;
 918:CherryUSB/core/usbd_core.c ****         case USB_REQUEST_VENDOR:
 919:CherryUSB/core/usbd_core.c ****             if (usbd_vendor_request_handler(busid, setup, data, len) < 0) {
 920:CherryUSB/core/usbd_core.c ****                 USB_LOG_ERR("vendor request error\r\n");
 921:CherryUSB/core/usbd_core.c ****                 usbd_print_setup(setup);
 922:CherryUSB/core/usbd_core.c ****                 return false;
 923:CherryUSB/core/usbd_core.c ****             }
ARM GAS  C:\Users\Jim_YW\AppData\Local\Temp\ccVYwxt0.s 			page 22


 924:CherryUSB/core/usbd_core.c ****             break;
 925:CherryUSB/core/usbd_core.c **** 
 926:CherryUSB/core/usbd_core.c ****         default:
 927:CherryUSB/core/usbd_core.c ****             return false;
 928:CherryUSB/core/usbd_core.c ****     }
 929:CherryUSB/core/usbd_core.c **** 
 930:CherryUSB/core/usbd_core.c ****     return true;
 931:CherryUSB/core/usbd_core.c **** }
 932:CherryUSB/core/usbd_core.c **** 
 933:CherryUSB/core/usbd_core.c **** static void usbd_class_event_notify_handler(uint8_t busid, uint8_t event, void *arg)
 934:CherryUSB/core/usbd_core.c **** {
 242              		.loc 1 934 1 is_stmt 1 view -0
 243              		.cfi_startproc
 244              		@ args = 0, pretend = 0, frame = 0
 245              		@ frame_needed = 0, uses_anonymous_args = 0
 246              		.loc 1 934 1 is_stmt 0 view .LVU58
 247 0000 2DE9F041 		push	{r4, r5, r6, r7, r8, lr}
 248              	.LCFI1:
 249              		.cfi_def_cfa_offset 24
 250              		.cfi_offset 4, -24
 251              		.cfi_offset 5, -20
 252              		.cfi_offset 6, -16
 253              		.cfi_offset 7, -12
 254              		.cfi_offset 8, -8
 255              		.cfi_offset 14, -4
 256 0004 0546     		mov	r5, r0
 257 0006 0F46     		mov	r7, r1
 258 0008 1646     		mov	r6, r2
 935:CherryUSB/core/usbd_core.c ****     for (uint8_t i = 0; i < g_usbd_core[busid].intf_offset; i++) {
 259              		.loc 1 935 5 is_stmt 1 view .LVU59
 260              	.LBB7:
 261              		.loc 1 935 10 view .LVU60
 262              	.LVL23:
 263              		.loc 1 935 18 is_stmt 0 view .LVU61
 264 000a 0024     		movs	r4, #0
 265              		.loc 1 935 5 view .LVU62
 266 000c 08E0     		b	.L24
 267              	.LVL24:
 268              	.L25:
 269              	.LBB8:
 936:CherryUSB/core/usbd_core.c ****         struct usbd_interface *intf = g_usbd_core[busid].intf[i];
 937:CherryUSB/core/usbd_core.c **** 
 938:CherryUSB/core/usbd_core.c ****         if (arg) {
 939:CherryUSB/core/usbd_core.c ****             struct usb_interface_descriptor *desc = (struct usb_interface_descriptor *)arg;
 940:CherryUSB/core/usbd_core.c ****             if (intf && intf->notify_handler && (desc->bInterfaceNumber == (intf->intf_num))) {
 941:CherryUSB/core/usbd_core.c ****                 intf->notify_handler(busid, event, arg);
 942:CherryUSB/core/usbd_core.c ****             }
 943:CherryUSB/core/usbd_core.c ****         } else {
 944:CherryUSB/core/usbd_core.c ****             if (intf && intf->notify_handler) {
 270              		.loc 1 944 13 is_stmt 1 view .LVU63
 271              		.loc 1 944 16 is_stmt 0 view .LVU64
 272 000e 2BB1     		cbz	r3, .L26
 273              		.loc 1 944 29 discriminator 1 view .LVU65
 274 0010 DB68     		ldr	r3, [r3, #12]
 275              	.LVL25:
 276              		.loc 1 944 22 discriminator 1 view .LVU66
 277 0012 1BB1     		cbz	r3, .L26
ARM GAS  C:\Users\Jim_YW\AppData\Local\Temp\ccVYwxt0.s 			page 23


 945:CherryUSB/core/usbd_core.c ****                 intf->notify_handler(busid, event, arg);
 278              		.loc 1 945 17 is_stmt 1 view .LVU67
 279 0014 3246     		mov	r2, r6
 280              	.LVL26:
 281              		.loc 1 945 17 is_stmt 0 view .LVU68
 282 0016 3946     		mov	r1, r7
 283 0018 2846     		mov	r0, r5
 284 001a 9847     		blx	r3
 285              	.LVL27:
 286              	.L26:
 287              		.loc 1 945 17 view .LVU69
 288              	.LBE8:
 935:CherryUSB/core/usbd_core.c ****     for (uint8_t i = 0; i < g_usbd_core[busid].intf_offset; i++) {
 289              		.loc 1 935 61 is_stmt 1 discriminator 2 view .LVU70
 935:CherryUSB/core/usbd_core.c ****     for (uint8_t i = 0; i < g_usbd_core[busid].intf_offset; i++) {
 290              		.loc 1 935 62 is_stmt 0 discriminator 2 view .LVU71
 291 001c 0134     		adds	r4, r4, #1
 292              	.LVL28:
 935:CherryUSB/core/usbd_core.c ****     for (uint8_t i = 0; i < g_usbd_core[busid].intf_offset; i++) {
 293              		.loc 1 935 62 discriminator 2 view .LVU72
 294 001e E4B2     		uxtb	r4, r4
 295              	.LVL29:
 296              	.L24:
 935:CherryUSB/core/usbd_core.c ****     for (uint8_t i = 0; i < g_usbd_core[busid].intf_offset; i++) {
 297              		.loc 1 935 25 is_stmt 1 discriminator 1 view .LVU73
 935:CherryUSB/core/usbd_core.c ****     for (uint8_t i = 0; i < g_usbd_core[busid].intf_offset; i++) {
 298              		.loc 1 935 47 is_stmt 0 discriminator 1 view .LVU74
 299 0020 124B     		ldr	r3, .L30
 300 0022 4FF4DA72 		mov	r2, #436
 301 0026 02FB0533 		mla	r3, r2, r5, r3
 302 002a 93F84C31 		ldrb	r3, [r3, #332]	@ zero_extendqisi2
 935:CherryUSB/core/usbd_core.c ****     for (uint8_t i = 0; i < g_usbd_core[busid].intf_offset; i++) {
 303              		.loc 1 935 5 discriminator 1 view .LVU75
 304 002e A342     		cmp	r3, r4
 305 0030 19D9     		bls	.L29
 306              	.LBB10:
 936:CherryUSB/core/usbd_core.c ****         struct usbd_interface *intf = g_usbd_core[busid].intf[i];
 307              		.loc 1 936 9 is_stmt 1 view .LVU76
 936:CherryUSB/core/usbd_core.c ****         struct usbd_interface *intf = g_usbd_core[busid].intf[i];
 308              		.loc 1 936 32 is_stmt 0 view .LVU77
 309 0032 6D23     		movs	r3, #109
 310 0034 03FB0543 		mla	r3, r3, r5, r4
 311 0038 4A33     		adds	r3, r3, #74
 312 003a 0C4A     		ldr	r2, .L30
 313 003c 02EB8303 		add	r3, r2, r3, lsl #2
 314 0040 5B68     		ldr	r3, [r3, #4]
 315              	.LVL30:
 938:CherryUSB/core/usbd_core.c ****             struct usb_interface_descriptor *desc = (struct usb_interface_descriptor *)arg;
 316              		.loc 1 938 9 is_stmt 1 view .LVU78
 938:CherryUSB/core/usbd_core.c ****             struct usb_interface_descriptor *desc = (struct usb_interface_descriptor *)arg;
 317              		.loc 1 938 12 is_stmt 0 view .LVU79
 318 0042 002E     		cmp	r6, #0
 319 0044 E3D0     		beq	.L25
 320              	.LBB9:
 939:CherryUSB/core/usbd_core.c ****             if (intf && intf->notify_handler && (desc->bInterfaceNumber == (intf->intf_num))) {
 321              		.loc 1 939 13 is_stmt 1 view .LVU80
 322              	.LVL31:
ARM GAS  C:\Users\Jim_YW\AppData\Local\Temp\ccVYwxt0.s 			page 24


 940:CherryUSB/core/usbd_core.c ****                 intf->notify_handler(busid, event, arg);
 323              		.loc 1 940 13 view .LVU81
 940:CherryUSB/core/usbd_core.c ****                 intf->notify_handler(busid, event, arg);
 324              		.loc 1 940 16 is_stmt 0 view .LVU82
 325 0046 002B     		cmp	r3, #0
 326 0048 E8D0     		beq	.L26
 940:CherryUSB/core/usbd_core.c ****                 intf->notify_handler(busid, event, arg);
 327              		.loc 1 940 29 discriminator 1 view .LVU83
 328 004a D3F80C80 		ldr	r8, [r3, #12]
 940:CherryUSB/core/usbd_core.c ****                 intf->notify_handler(busid, event, arg);
 329              		.loc 1 940 22 discriminator 1 view .LVU84
 330 004e B8F1000F 		cmp	r8, #0
 331 0052 E3D0     		beq	.L26
 940:CherryUSB/core/usbd_core.c ****                 intf->notify_handler(busid, event, arg);
 332              		.loc 1 940 54 discriminator 2 view .LVU85
 333 0054 B278     		ldrb	r2, [r6, #2]	@ zero_extendqisi2
 940:CherryUSB/core/usbd_core.c ****                 intf->notify_handler(busid, event, arg);
 334              		.loc 1 940 81 discriminator 2 view .LVU86
 335 0056 1B7E     		ldrb	r3, [r3, #24]	@ zero_extendqisi2
 336              	.LVL32:
 940:CherryUSB/core/usbd_core.c ****                 intf->notify_handler(busid, event, arg);
 337              		.loc 1 940 46 discriminator 2 view .LVU87
 338 0058 9A42     		cmp	r2, r3
 339 005a DFD1     		bne	.L26
 941:CherryUSB/core/usbd_core.c ****             }
 340              		.loc 1 941 17 is_stmt 1 view .LVU88
 341 005c 3246     		mov	r2, r6
 342 005e 3946     		mov	r1, r7
 343 0060 2846     		mov	r0, r5
 344 0062 C047     		blx	r8
 345              	.LVL33:
 941:CherryUSB/core/usbd_core.c ****             }
 346              		.loc 1 941 17 is_stmt 0 view .LVU89
 347 0064 DAE7     		b	.L26
 348              	.LVL34:
 349              	.L29:
 941:CherryUSB/core/usbd_core.c ****             }
 350              		.loc 1 941 17 view .LVU90
 351              	.LBE9:
 352              	.LBE10:
 353              	.LBE7:
 946:CherryUSB/core/usbd_core.c ****             }
 947:CherryUSB/core/usbd_core.c ****         }
 948:CherryUSB/core/usbd_core.c ****     }
 949:CherryUSB/core/usbd_core.c **** }
 354              		.loc 1 949 1 view .LVU91
 355 0066 BDE8F081 		pop	{r4, r5, r6, r7, r8, pc}
 356              	.LVL35:
 357              	.L31:
 358              		.loc 1 949 1 view .LVU92
 359 006a 00BF     		.align	2
 360              	.L30:
 361 006c 00000000 		.word	.LANCHOR0
 362              		.cfi_endproc
 363              	.LFE36:
 365              		.section	.rodata.usbd_set_endpoint.str1.4,"aMS",%progbits,1
 366              		.align	2
ARM GAS  C:\Users\Jim_YW\AppData\Local\Temp\ccVYwxt0.s 			page 25


 367              	.LC0:
 368 0000 1B5B3332 		.ascii	"\033[32m[I/USB] \000"
 368      6D5B492F 
 368      5553425D 
 368      2000
 369 000e 0000     		.align	2
 370              	.LC1:
 371 0010 4F70656E 		.ascii	"Open ep:0x%02x type:%u mps:%u\015\012\000"
 371      2065703A 
 371      30782530 
 371      32782074 
 371      7970653A 
 372              		.align	2
 373              	.LC2:
 374 0030 1B5B306D 		.ascii	"\033[0m\000"
 374      00
 375              		.section	.text.usbd_set_endpoint,"ax",%progbits
 376              		.align	1
 377              		.syntax unified
 378              		.thumb
 379              		.thumb_func
 381              	usbd_set_endpoint:
 382              	.LVL36:
 383              	.LFB24:
  96:CherryUSB/core/usbd_core.c ****     USB_LOG_INFO("Open ep:0x%02x type:%u mps:%u\r\n",
 384              		.loc 1 96 1 is_stmt 1 view -0
 385              		.cfi_startproc
 386              		@ args = 0, pretend = 0, frame = 0
 387              		@ frame_needed = 0, uses_anonymous_args = 0
  96:CherryUSB/core/usbd_core.c ****     USB_LOG_INFO("Open ep:0x%02x type:%u mps:%u\r\n",
 388              		.loc 1 96 1 is_stmt 0 view .LVU94
 389 0000 38B5     		push	{r3, r4, r5, lr}
 390              	.LCFI2:
 391              		.cfi_def_cfa_offset 16
 392              		.cfi_offset 3, -16
 393              		.cfi_offset 4, -12
 394              		.cfi_offset 5, -8
 395              		.cfi_offset 14, -4
 396 0002 0546     		mov	r5, r0
 397 0004 0C46     		mov	r4, r1
  97:CherryUSB/core/usbd_core.c ****                  ep->bEndpointAddress,
 398              		.loc 1 97 5 is_stmt 1 view .LVU95
  97:CherryUSB/core/usbd_core.c ****                  ep->bEndpointAddress,
 399              		.loc 1 97 5 view .LVU96
 400 0006 0C48     		ldr	r0, .L34
 401              	.LVL37:
  97:CherryUSB/core/usbd_core.c ****                  ep->bEndpointAddress,
 402              		.loc 1 97 5 is_stmt 0 view .LVU97
 403 0008 FFF7FEFF 		bl	printf
 404              	.LVL38:
  97:CherryUSB/core/usbd_core.c ****                  ep->bEndpointAddress,
 405              		.loc 1 97 5 is_stmt 1 view .LVU98
 406 000c E278     		ldrb	r2, [r4, #3]	@ zero_extendqisi2
 407 000e A388     		ldrh	r3, [r4, #4]	@ unaligned
 408 0010 C3F30A03 		ubfx	r3, r3, #0, #11
 409 0014 02F00302 		and	r2, r2, #3
 410 0018 A178     		ldrb	r1, [r4, #2]	@ zero_extendqisi2
ARM GAS  C:\Users\Jim_YW\AppData\Local\Temp\ccVYwxt0.s 			page 26


 411 001a 0848     		ldr	r0, .L34+4
 412 001c FFF7FEFF 		bl	printf
 413              	.LVL39:
  97:CherryUSB/core/usbd_core.c ****                  ep->bEndpointAddress,
 414              		.loc 1 97 5 view .LVU99
 415 0020 0748     		ldr	r0, .L34+8
 416 0022 FFF7FEFF 		bl	printf
 417              	.LVL40:
  97:CherryUSB/core/usbd_core.c ****                  ep->bEndpointAddress,
 418              		.loc 1 97 5 view .LVU100
 102:CherryUSB/core/usbd_core.c **** }
 419              		.loc 1 102 5 view .LVU101
 102:CherryUSB/core/usbd_core.c **** }
 420              		.loc 1 102 12 is_stmt 0 view .LVU102
 421 0026 2146     		mov	r1, r4
 422 0028 2846     		mov	r0, r5
 423 002a FFF7FEFF 		bl	usbd_ep_open
 424              	.LVL41:
 103:CherryUSB/core/usbd_core.c **** /**
 425              		.loc 1 103 1 view .LVU103
 426 002e B0FA80F0 		clz	r0, r0
 427 0032 4009     		lsrs	r0, r0, #5
 428 0034 38BD     		pop	{r3, r4, r5, pc}
 429              	.LVL42:
 430              	.L35:
 103:CherryUSB/core/usbd_core.c **** /**
 431              		.loc 1 103 1 view .LVU104
 432 0036 00BF     		.align	2
 433              	.L34:
 434 0038 00000000 		.word	.LC0
 435 003c 10000000 		.word	.LC1
 436 0040 30000000 		.word	.LC2
 437              		.cfi_endproc
 438              	.LFE24:
 440              		.section	.text.usbd_set_configuration,"ax",%progbits
 441              		.align	1
 442              		.syntax unified
 443              		.thumb
 444              		.thumb_func
 446              	usbd_set_configuration:
 447              	.LVL43:
 448              	.LFB27:
 329:CherryUSB/core/usbd_core.c ****     uint8_t cur_alt_setting = 0xFF;
 449              		.loc 1 329 1 is_stmt 1 view -0
 450              		.cfi_startproc
 451              		@ args = 0, pretend = 0, frame = 0
 452              		@ frame_needed = 0, uses_anonymous_args = 0
 329:CherryUSB/core/usbd_core.c ****     uint8_t cur_alt_setting = 0xFF;
 453              		.loc 1 329 1 is_stmt 0 view .LVU106
 454 0000 2DE9F84F 		push	{r3, r4, r5, r6, r7, r8, r9, r10, fp, lr}
 455              	.LCFI3:
 456              		.cfi_def_cfa_offset 40
 457              		.cfi_offset 3, -40
 458              		.cfi_offset 4, -36
 459              		.cfi_offset 5, -32
 460              		.cfi_offset 6, -28
 461              		.cfi_offset 7, -24
ARM GAS  C:\Users\Jim_YW\AppData\Local\Temp\ccVYwxt0.s 			page 27


 462              		.cfi_offset 8, -20
 463              		.cfi_offset 9, -16
 464              		.cfi_offset 10, -12
 465              		.cfi_offset 11, -8
 466              		.cfi_offset 14, -4
 467 0004 8246     		mov	r10, r0
 468 0006 8846     		mov	r8, r1
 469 0008 9346     		mov	fp, r2
 330:CherryUSB/core/usbd_core.c ****     uint8_t cur_config = 0xFF;
 470              		.loc 1 330 5 is_stmt 1 view .LVU107
 471              	.LVL44:
 331:CherryUSB/core/usbd_core.c ****     bool found = false;
 472              		.loc 1 331 5 view .LVU108
 332:CherryUSB/core/usbd_core.c ****     const uint8_t *p;
 473              		.loc 1 332 5 view .LVU109
 333:CherryUSB/core/usbd_core.c ****     uint32_t desc_len = 0;
 474              		.loc 1 333 5 view .LVU110
 334:CherryUSB/core/usbd_core.c ****     uint32_t current_desc_len = 0;
 475              		.loc 1 334 5 view .LVU111
 335:CherryUSB/core/usbd_core.c **** 
 476              		.loc 1 335 5 view .LVU112
 340:CherryUSB/core/usbd_core.c **** #endif
 477              		.loc 1 340 5 view .LVU113
 340:CherryUSB/core/usbd_core.c **** #endif
 478              		.loc 1 340 7 is_stmt 0 view .LVU114
 479 000a 1A4B     		ldr	r3, .L45
 480 000c 4FF4DA72 		mov	r2, #436
 481              	.LVL45:
 340:CherryUSB/core/usbd_core.c **** #endif
 482              		.loc 1 340 7 view .LVU115
 483 0010 02FB0033 		mla	r3, r2, r0, r3
 484 0014 9C69     		ldr	r4, [r3, #24]
 485              	.LVL46:
 343:CherryUSB/core/usbd_core.c ****         switch (p[DESC_bDescriptorType]) {
 486              		.loc 1 343 5 is_stmt 1 view .LVU116
 335:CherryUSB/core/usbd_core.c **** 
 487              		.loc 1 335 14 is_stmt 0 view .LVU117
 488 0016 0025     		movs	r5, #0
 334:CherryUSB/core/usbd_core.c ****     uint32_t current_desc_len = 0;
 489              		.loc 1 334 14 view .LVU118
 490 0018 2E46     		mov	r6, r5
 332:CherryUSB/core/usbd_core.c ****     const uint8_t *p;
 491              		.loc 1 332 10 view .LVU119
 492 001a 2846     		mov	r0, r5
 493              	.LVL47:
 331:CherryUSB/core/usbd_core.c ****     bool found = false;
 494              		.loc 1 331 13 view .LVU120
 495 001c FF27     		movs	r7, #255
 330:CherryUSB/core/usbd_core.c ****     uint8_t cur_config = 0xFF;
 496              		.loc 1 330 13 view .LVU121
 497 001e B946     		mov	r9, r7
 498              	.LVL48:
 499              	.L37:
 343:CherryUSB/core/usbd_core.c ****         switch (p[DESC_bDescriptorType]) {
 500              		.loc 1 343 11 is_stmt 1 view .LVU122
 343:CherryUSB/core/usbd_core.c ****         switch (p[DESC_bDescriptorType]) {
 501              		.loc 1 343 13 is_stmt 0 view .LVU123
ARM GAS  C:\Users\Jim_YW\AppData\Local\Temp\ccVYwxt0.s 			page 28


 502 0020 2378     		ldrb	r3, [r4]	@ zero_extendqisi2
 343:CherryUSB/core/usbd_core.c ****         switch (p[DESC_bDescriptorType]) {
 503              		.loc 1 343 11 view .LVU124
 504 0022 73B1     		cbz	r3, .L41
 344:CherryUSB/core/usbd_core.c ****             case USB_DESCRIPTOR_TYPE_CONFIGURATION:
 505              		.loc 1 344 9 is_stmt 1 view .LVU125
 344:CherryUSB/core/usbd_core.c ****             case USB_DESCRIPTOR_TYPE_CONFIGURATION:
 506              		.loc 1 344 18 is_stmt 0 view .LVU126
 507 0024 6378     		ldrb	r3, [r4, #1]	@ zero_extendqisi2
 344:CherryUSB/core/usbd_core.c ****             case USB_DESCRIPTOR_TYPE_CONFIGURATION:
 508              		.loc 1 344 9 view .LVU127
 509 0026 042B     		cmp	r3, #4
 510 0028 17D0     		beq	.L38
 511 002a 052B     		cmp	r3, #5
 512 002c 18D0     		beq	.L39
 513 002e 022B     		cmp	r3, #2
 514 0030 09D0     		beq	.L44
 515              	.LVL49:
 516              	.L40:
 379:CherryUSB/core/usbd_core.c ****         current_desc_len += p[DESC_bLength];
 517              		.loc 1 379 9 is_stmt 1 view .LVU128
 379:CherryUSB/core/usbd_core.c ****         current_desc_len += p[DESC_bLength];
 518              		.loc 1 379 15 is_stmt 0 view .LVU129
 519 0032 2378     		ldrb	r3, [r4]	@ zero_extendqisi2
 379:CherryUSB/core/usbd_core.c ****         current_desc_len += p[DESC_bLength];
 520              		.loc 1 379 11 view .LVU130
 521 0034 1C44     		add	r4, r4, r3
 522              	.LVL50:
 380:CherryUSB/core/usbd_core.c ****         if (current_desc_len >= desc_len && desc_len) {
 523              		.loc 1 380 9 is_stmt 1 view .LVU131
 380:CherryUSB/core/usbd_core.c ****         if (current_desc_len >= desc_len && desc_len) {
 524              		.loc 1 380 30 is_stmt 0 view .LVU132
 525 0036 2378     		ldrb	r3, [r4]	@ zero_extendqisi2
 380:CherryUSB/core/usbd_core.c ****         if (current_desc_len >= desc_len && desc_len) {
 526              		.loc 1 380 26 view .LVU133
 527 0038 1D44     		add	r5, r5, r3
 528              	.LVL51:
 381:CherryUSB/core/usbd_core.c ****             break;
 529              		.loc 1 381 9 is_stmt 1 view .LVU134
 381:CherryUSB/core/usbd_core.c ****             break;
 530              		.loc 1 381 12 is_stmt 0 view .LVU135
 531 003a AE42     		cmp	r6, r5
 532 003c F0D8     		bhi	.L37
 381:CherryUSB/core/usbd_core.c ****             break;
 533              		.loc 1 381 42 discriminator 1 view .LVU136
 534 003e 002E     		cmp	r6, #0
 535 0040 EED0     		beq	.L37
 536              	.L41:
 386:CherryUSB/core/usbd_core.c **** }
 537              		.loc 1 386 5 is_stmt 1 view .LVU137
 387:CherryUSB/core/usbd_core.c **** 
 538              		.loc 1 387 1 is_stmt 0 view .LVU138
 539 0042 BDE8F88F 		pop	{r3, r4, r5, r6, r7, r8, r9, r10, fp, pc}
 540              	.LVL52:
 541              	.L44:
 347:CherryUSB/core/usbd_core.c **** 
 542              		.loc 1 347 17 is_stmt 1 view .LVU139
ARM GAS  C:\Users\Jim_YW\AppData\Local\Temp\ccVYwxt0.s 			page 29


 347:CherryUSB/core/usbd_core.c **** 
 543              		.loc 1 347 28 is_stmt 0 view .LVU140
 544 0046 6779     		ldrb	r7, [r4, #5]	@ zero_extendqisi2
 545              	.LVL53:
 349:CherryUSB/core/usbd_core.c ****                     found = true;
 546              		.loc 1 349 17 is_stmt 1 view .LVU141
 349:CherryUSB/core/usbd_core.c ****                     found = true;
 547              		.loc 1 349 20 is_stmt 0 view .LVU142
 548 0048 B845     		cmp	r8, r7
 549 004a F2D1     		bne	.L40
 350:CherryUSB/core/usbd_core.c **** 
 550              		.loc 1 350 21 is_stmt 1 view .LVU143
 551              	.LVL54:
 352:CherryUSB/core/usbd_core.c ****                     desc_len = (p[CONF_DESC_wTotalLength]) |
 552              		.loc 1 352 21 view .LVU144
 353:CherryUSB/core/usbd_core.c ****                                (p[CONF_DESC_wTotalLength + 1] << 8);
 553              		.loc 1 353 21 view .LVU145
 353:CherryUSB/core/usbd_core.c ****                                (p[CONF_DESC_wTotalLength + 1] << 8);
 554              		.loc 1 353 34 is_stmt 0 view .LVU146
 555 004c A678     		ldrb	r6, [r4, #2]	@ zero_extendqisi2
 556              	.LVL55:
 354:CherryUSB/core/usbd_core.c ****                 }
 557              		.loc 1 354 34 view .LVU147
 558 004e E378     		ldrb	r3, [r4, #3]	@ zero_extendqisi2
 353:CherryUSB/core/usbd_core.c ****                                (p[CONF_DESC_wTotalLength + 1] << 8);
 559              		.loc 1 353 60 view .LVU148
 560 0050 46EA0326 		orr	r6, r6, r3, lsl #8
 561              	.LVL56:
 352:CherryUSB/core/usbd_core.c ****                     desc_len = (p[CONF_DESC_wTotalLength]) |
 562              		.loc 1 352 38 view .LVU149
 563 0054 0025     		movs	r5, #0
 350:CherryUSB/core/usbd_core.c **** 
 564              		.loc 1 350 27 view .LVU150
 565 0056 0120     		movs	r0, #1
 566 0058 EBE7     		b	.L40
 567              	.LVL57:
 568              	.L38:
 361:CherryUSB/core/usbd_core.c ****                     p[INTF_DESC_bAlternateSetting];
 569              		.loc 1 361 17 is_stmt 1 view .LVU151
 361:CherryUSB/core/usbd_core.c ****                     p[INTF_DESC_bAlternateSetting];
 570              		.loc 1 361 33 is_stmt 0 view .LVU152
 571 005a 94F80390 		ldrb	r9, [r4, #3]	@ zero_extendqisi2
 572              	.LVL58:
 363:CherryUSB/core/usbd_core.c **** 
 573              		.loc 1 363 17 is_stmt 1 view .LVU153
 574 005e E8E7     		b	.L40
 575              	.L39:
 366:CherryUSB/core/usbd_core.c ****                     (cur_alt_setting != alt_setting)) {
 576              		.loc 1 366 17 view .LVU154
 366:CherryUSB/core/usbd_core.c ****                     (cur_alt_setting != alt_setting)) {
 577              		.loc 1 366 20 is_stmt 0 view .LVU155
 578 0060 4745     		cmp	r7, r8
 579 0062 E6D1     		bne	.L40
 366:CherryUSB/core/usbd_core.c ****                     (cur_alt_setting != alt_setting)) {
 580              		.loc 1 366 50 discriminator 1 view .LVU156
 581 0064 D945     		cmp	r9, fp
 582 0066 E4D1     		bne	.L40
ARM GAS  C:\Users\Jim_YW\AppData\Local\Temp\ccVYwxt0.s 			page 30


 371:CherryUSB/core/usbd_core.c ****                 break;
 583              		.loc 1 371 17 is_stmt 1 view .LVU157
 371:CherryUSB/core/usbd_core.c ****                 break;
 584              		.loc 1 371 25 is_stmt 0 view .LVU158
 585 0068 2146     		mov	r1, r4
 586 006a 5046     		mov	r0, r10
 587              	.LVL59:
 371:CherryUSB/core/usbd_core.c ****                 break;
 588              		.loc 1 371 25 view .LVU159
 589 006c FFF7FEFF 		bl	usbd_set_endpoint
 590              	.LVL60:
 372:CherryUSB/core/usbd_core.c **** 
 591              		.loc 1 372 17 is_stmt 1 view .LVU160
 592 0070 DFE7     		b	.L40
 593              	.L46:
 594 0072 00BF     		.align	2
 595              	.L45:
 596 0074 00000000 		.word	.LANCHOR0
 597              		.cfi_endproc
 598              	.LFE27:
 600              		.section	.rodata.usbd_print_setup.str1.4,"aMS",%progbits,1
 601              		.align	2
 602              	.LC3:
 603 0000 53657475 		.ascii	"Setup: bmRequestType 0x%02x, bRequest 0x%02x, wValu"
 603      703A2062 
 603      6D526571 
 603      75657374 
 603      54797065 
 604 0033 65203078 		.ascii	"e 0x%04x, wIndex 0x%04x, wLength 0x%04x\015\012\000"
 604      25303478 
 604      2C207749 
 604      6E646578 
 604      20307825 
 605              		.section	.text.usbd_print_setup,"ax",%progbits
 606              		.align	1
 607              		.syntax unified
 608              		.thumb
 609              		.thumb_func
 611              	usbd_print_setup:
 612              	.LVL61:
 613              	.LFB22:
  70:CherryUSB/core/usbd_core.c ****     USB_LOG_INFO("Setup: "
 614              		.loc 1 70 1 view -0
 615              		.cfi_startproc
 616              		@ args = 0, pretend = 0, frame = 0
 617              		@ frame_needed = 0, uses_anonymous_args = 0
  70:CherryUSB/core/usbd_core.c ****     USB_LOG_INFO("Setup: "
 618              		.loc 1 70 1 is_stmt 0 view .LVU162
 619 0000 10B5     		push	{r4, lr}
 620              	.LCFI4:
 621              		.cfi_def_cfa_offset 8
 622              		.cfi_offset 4, -8
 623              		.cfi_offset 14, -4
 624 0002 82B0     		sub	sp, sp, #8
 625              	.LCFI5:
 626              		.cfi_def_cfa_offset 16
 627 0004 0446     		mov	r4, r0
ARM GAS  C:\Users\Jim_YW\AppData\Local\Temp\ccVYwxt0.s 			page 31


  71:CherryUSB/core/usbd_core.c ****                  "bmRequestType 0x%02x, bRequest 0x%02x, wValue 0x%04x, wIndex 0x%04x, wLength 0x%0
 628              		.loc 1 71 5 is_stmt 1 view .LVU163
  71:CherryUSB/core/usbd_core.c ****                  "bmRequestType 0x%02x, bRequest 0x%02x, wValue 0x%04x, wIndex 0x%04x, wLength 0x%0
 629              		.loc 1 71 5 view .LVU164
 630 0006 0948     		ldr	r0, .L49
 631              	.LVL62:
  71:CherryUSB/core/usbd_core.c ****                  "bmRequestType 0x%02x, bRequest 0x%02x, wValue 0x%04x, wIndex 0x%04x, wLength 0x%0
 632              		.loc 1 71 5 is_stmt 0 view .LVU165
 633 0008 FFF7FEFF 		bl	printf
 634              	.LVL63:
  71:CherryUSB/core/usbd_core.c ****                  "bmRequestType 0x%02x, bRequest 0x%02x, wValue 0x%04x, wIndex 0x%04x, wLength 0x%0
 635              		.loc 1 71 5 is_stmt 1 view .LVU166
 636 000c A388     		ldrh	r3, [r4, #4]	@ unaligned
 637 000e E288     		ldrh	r2, [r4, #6]	@ unaligned
 638 0010 0192     		str	r2, [sp, #4]
 639 0012 0093     		str	r3, [sp]
 640 0014 6388     		ldrh	r3, [r4, #2]	@ unaligned
 641 0016 6278     		ldrb	r2, [r4, #1]	@ zero_extendqisi2
 642 0018 2178     		ldrb	r1, [r4]	@ zero_extendqisi2
 643 001a 0548     		ldr	r0, .L49+4
 644 001c FFF7FEFF 		bl	printf
 645              	.LVL64:
  71:CherryUSB/core/usbd_core.c ****                  "bmRequestType 0x%02x, bRequest 0x%02x, wValue 0x%04x, wIndex 0x%04x, wLength 0x%0
 646              		.loc 1 71 5 view .LVU167
 647 0020 0448     		ldr	r0, .L49+8
 648 0022 FFF7FEFF 		bl	printf
 649              	.LVL65:
  71:CherryUSB/core/usbd_core.c ****                  "bmRequestType 0x%02x, bRequest 0x%02x, wValue 0x%04x, wIndex 0x%04x, wLength 0x%0
 650              		.loc 1 71 5 view .LVU168
  78:CherryUSB/core/usbd_core.c **** 
 651              		.loc 1 78 1 is_stmt 0 view .LVU169
 652 0026 02B0     		add	sp, sp, #8
 653              	.LCFI6:
 654              		.cfi_def_cfa_offset 8
 655              		@ sp needed
 656 0028 10BD     		pop	{r4, pc}
 657              	.LVL66:
 658              	.L50:
  78:CherryUSB/core/usbd_core.c **** 
 659              		.loc 1 78 1 view .LVU170
 660 002a 00BF     		.align	2
 661              	.L49:
 662 002c 00000000 		.word	.LC0
 663 0030 00000000 		.word	.LC3
 664 0034 30000000 		.word	.LC2
 665              		.cfi_endproc
 666              	.LFE22:
 668              		.section	.rodata.usbd_get_descriptor.str1.4,"aMS",%progbits,1
 669              		.align	2
 670              	.LC4:
 671 0000 72656164 		.ascii	"read MS OS 2.0 descriptor string\015\000"
 671      204D5320 
 671      4F532032 
 671      2E302064 
 671      65736372 
 672 0022 0000     		.align	2
 673              	.LC5:
ARM GAS  C:\Users\Jim_YW\AppData\Local\Temp\ccVYwxt0.s 			page 32


 674 0024 72656164 		.ascii	"read BOS descriptor string\015\000"
 674      20424F53 
 674      20646573 
 674      63726970 
 674      746F7220 
 675              		.align	2
 676              	.LC6:
 677 0040 1B5B3331 		.ascii	"\033[31m[E/USB] \000"
 677      6D5B452F 
 677      5553425D 
 677      2000
 678 004e 0000     		.align	2
 679              	.LC7:
 680 0050 64657363 		.ascii	"descriptor <type:0x%02x,index:0x%02x> not found!\015"
 680      72697074 
 680      6F72203C 
 680      74797065 
 680      3A307825 
 681 0081 0A00     		.ascii	"\012\000"
 682              		.section	.text.usbd_get_descriptor,"ax",%progbits
 683              		.align	1
 684              		.syntax unified
 685              		.thumb
 686              		.thumb_func
 688              	usbd_get_descriptor:
 689              	.LVL67:
 690              	.LFB26:
 230:CherryUSB/core/usbd_core.c ****     uint8_t type = 0U;
 691              		.loc 1 230 1 is_stmt 1 view -0
 692              		.cfi_startproc
 693              		@ args = 0, pretend = 0, frame = 0
 694              		@ frame_needed = 0, uses_anonymous_args = 0
 230:CherryUSB/core/usbd_core.c ****     uint8_t type = 0U;
 695              		.loc 1 230 1 is_stmt 0 view .LVU172
 696 0000 2DE9F041 		push	{r4, r5, r6, r7, r8, lr}
 697              	.LCFI7:
 698              		.cfi_def_cfa_offset 24
 699              		.cfi_offset 4, -24
 700              		.cfi_offset 5, -20
 701              		.cfi_offset 6, -16
 702              		.cfi_offset 7, -12
 703              		.cfi_offset 8, -8
 704              		.cfi_offset 14, -4
 705 0004 8046     		mov	r8, r0
 706 0006 1746     		mov	r7, r2
 707 0008 1E46     		mov	r6, r3
 231:CherryUSB/core/usbd_core.c ****     uint8_t index = 0U;
 708              		.loc 1 231 5 is_stmt 1 view .LVU173
 709              	.LVL68:
 232:CherryUSB/core/usbd_core.c ****     uint8_t *p = NULL;
 710              		.loc 1 232 5 view .LVU174
 233:CherryUSB/core/usbd_core.c ****     uint32_t cur_index = 0U;
 711              		.loc 1 233 5 view .LVU175
 234:CherryUSB/core/usbd_core.c ****     bool found = false;
 712              		.loc 1 234 5 view .LVU176
 235:CherryUSB/core/usbd_core.c **** 
 713              		.loc 1 235 5 view .LVU177
ARM GAS  C:\Users\Jim_YW\AppData\Local\Temp\ccVYwxt0.s 			page 33


 237:CherryUSB/core/usbd_core.c ****     index = LO_BYTE(type_index);
 714              		.loc 1 237 5 view .LVU178
 237:CherryUSB/core/usbd_core.c ****     index = LO_BYTE(type_index);
 715              		.loc 1 237 10 is_stmt 0 view .LVU179
 716 000a 0C0A     		lsrs	r4, r1, #8
 717              	.LVL69:
 238:CherryUSB/core/usbd_core.c **** 
 718              		.loc 1 238 5 is_stmt 1 view .LVU180
 238:CherryUSB/core/usbd_core.c **** 
 719              		.loc 1 238 11 is_stmt 0 view .LVU181
 720 000c CDB2     		uxtb	r5, r1
 721              	.LVL70:
 240:CherryUSB/core/usbd_core.c ****         USB_LOG_INFO("read MS OS 2.0 descriptor string\r\n");
 722              		.loc 1 240 5 is_stmt 1 view .LVU182
 240:CherryUSB/core/usbd_core.c ****         USB_LOG_INFO("read MS OS 2.0 descriptor string\r\n");
 723              		.loc 1 240 8 is_stmt 0 view .LVU183
 724 000e 032C     		cmp	r4, #3
 725 0010 0ED0     		beq	.L68
 726              	.L52:
 252:CherryUSB/core/usbd_core.c ****         USB_LOG_INFO("read BOS descriptor string\r\n");
 727              		.loc 1 252 12 is_stmt 1 view .LVU184
 252:CherryUSB/core/usbd_core.c ****         USB_LOG_INFO("read BOS descriptor string\r\n");
 728              		.loc 1 252 15 is_stmt 0 view .LVU185
 729 0012 0F2C     		cmp	r4, #15
 730 0014 31D0     		beq	.L69
 268:CherryUSB/core/usbd_core.c **** #ifndef CONFIG_USB_HS
 731              		.loc 1 268 10 is_stmt 1 view .LVU186
 268:CherryUSB/core/usbd_core.c **** #ifndef CONFIG_USB_HS
 732              		.loc 1 268 13 is_stmt 0 view .LVU187
 733 0016 032C     		cmp	r4, #3
 734 0018 00F28980 		bhi	.L65
 277:CherryUSB/core/usbd_core.c **** 
 735              		.loc 1 277 5 is_stmt 1 view .LVU188
 277:CherryUSB/core/usbd_core.c **** 
 736              		.loc 1 277 7 is_stmt 0 view .LVU189
 737 001c 4548     		ldr	r0, .L71
 738              	.LVL71:
 277:CherryUSB/core/usbd_core.c **** 
 739              		.loc 1 277 7 view .LVU190
 740 001e 4FF4DA73 		mov	r3, #436
 741              	.LVL72:
 277:CherryUSB/core/usbd_core.c **** 
 742              		.loc 1 277 7 view .LVU191
 743 0022 03FB0808 		mla	r8, r3, r8, r0
 744 0026 D8F81810 		ldr	r1, [r8, #24]
 745              	.LVL73:
 279:CherryUSB/core/usbd_core.c **** 
 746              		.loc 1 279 5 is_stmt 1 view .LVU192
 281:CherryUSB/core/usbd_core.c ****         if (p[DESC_bDescriptorType] == type) {
 747              		.loc 1 281 5 view .LVU193
 279:CherryUSB/core/usbd_core.c **** 
 748              		.loc 1 279 15 is_stmt 0 view .LVU194
 749 002a 4FF0000E 		mov	lr, #0
 281:CherryUSB/core/usbd_core.c ****         if (p[DESC_bDescriptorType] == type) {
 750              		.loc 1 281 11 view .LVU195
 751 002e 47E0     		b	.L55
 752              	.LVL74:
ARM GAS  C:\Users\Jim_YW\AppData\Local\Temp\ccVYwxt0.s 			page 34


 753              	.L68:
 240:CherryUSB/core/usbd_core.c ****         USB_LOG_INFO("read MS OS 2.0 descriptor string\r\n");
 754              		.loc 1 240 46 discriminator 1 view .LVU196
 755 0030 EE2D     		cmp	r5, #238
 756 0032 EED1     		bne	.L52
 241:CherryUSB/core/usbd_core.c **** 
 757              		.loc 1 241 9 is_stmt 1 view .LVU197
 241:CherryUSB/core/usbd_core.c **** 
 758              		.loc 1 241 9 view .LVU198
 759 0034 4048     		ldr	r0, .L71+4
 760              	.LVL75:
 241:CherryUSB/core/usbd_core.c **** 
 761              		.loc 1 241 9 is_stmt 0 view .LVU199
 762 0036 FFF7FEFF 		bl	printf
 763              	.LVL76:
 241:CherryUSB/core/usbd_core.c **** 
 764              		.loc 1 241 9 is_stmt 1 view .LVU200
 765 003a 4048     		ldr	r0, .L71+8
 766 003c FFF7FEFF 		bl	puts
 767              	.LVL77:
 241:CherryUSB/core/usbd_core.c **** 
 768              		.loc 1 241 9 view .LVU201
 769 0040 3F48     		ldr	r0, .L71+12
 770 0042 FFF7FEFF 		bl	printf
 771              	.LVL78:
 241:CherryUSB/core/usbd_core.c **** 
 772              		.loc 1 241 9 view .LVU202
 243:CherryUSB/core/usbd_core.c ****             return false;
 773              		.loc 1 243 9 view .LVU203
 243:CherryUSB/core/usbd_core.c ****             return false;
 774              		.loc 1 243 32 is_stmt 0 view .LVU204
 775 0046 3B4B     		ldr	r3, .L71
 776 0048 4FF4DA72 		mov	r2, #436
 777 004c 02FB0833 		mla	r3, r2, r8, r3
 778 0050 DB69     		ldr	r3, [r3, #28]
 243:CherryUSB/core/usbd_core.c ****             return false;
 779              		.loc 1 243 12 view .LVU205
 780 0052 002B     		cmp	r3, #0
 781 0054 65D0     		beq	.L63
 248:CherryUSB/core/usbd_core.c ****         *len = g_usbd_core[busid].msosv1_desc->string[0];
 782              		.loc 1 248 9 is_stmt 1 view .LVU206
 248:CherryUSB/core/usbd_core.c ****         *len = g_usbd_core[busid].msosv1_desc->string[0];
 783              		.loc 1 248 64 is_stmt 0 view .LVU207
 784 0056 1968     		ldr	r1, [r3]
 248:CherryUSB/core/usbd_core.c ****         *len = g_usbd_core[busid].msosv1_desc->string[0];
 785              		.loc 1 248 9 view .LVU208
 786 0058 0A78     		ldrb	r2, [r1]	@ zero_extendqisi2
 787 005a 3868     		ldr	r0, [r7]
 788 005c FFF7FEFF 		bl	memcpy
 789              	.LVL79:
 249:CherryUSB/core/usbd_core.c **** 
 790              		.loc 1 249 9 is_stmt 1 view .LVU209
 249:CherryUSB/core/usbd_core.c **** 
 791              		.loc 1 249 34 is_stmt 0 view .LVU210
 792 0060 344B     		ldr	r3, .L71
 793 0062 4FF4DA72 		mov	r2, #436
 794 0066 02FB0838 		mla	r8, r2, r8, r3
ARM GAS  C:\Users\Jim_YW\AppData\Local\Temp\ccVYwxt0.s 			page 35


 795 006a D8F81C30 		ldr	r3, [r8, #28]
 249:CherryUSB/core/usbd_core.c **** 
 796              		.loc 1 249 46 view .LVU211
 797 006e 1B68     		ldr	r3, [r3]
 249:CherryUSB/core/usbd_core.c **** 
 798              		.loc 1 249 54 view .LVU212
 799 0070 1B78     		ldrb	r3, [r3]	@ zero_extendqisi2
 249:CherryUSB/core/usbd_core.c **** 
 800              		.loc 1 249 14 view .LVU213
 801 0072 3360     		str	r3, [r6]
 251:CherryUSB/core/usbd_core.c ****     } else if (type == USB_DESCRIPTOR_TYPE_BINARY_OBJECT_STORE) {
 802              		.loc 1 251 9 is_stmt 1 view .LVU214
 251:CherryUSB/core/usbd_core.c ****     } else if (type == USB_DESCRIPTOR_TYPE_BINARY_OBJECT_STORE) {
 803              		.loc 1 251 16 is_stmt 0 view .LVU215
 804 0074 4FF00108 		mov	r8, #1
 805 0078 44E0     		b	.L53
 806              	.LVL80:
 807              	.L69:
 253:CherryUSB/core/usbd_core.c **** 
 808              		.loc 1 253 9 is_stmt 1 view .LVU216
 253:CherryUSB/core/usbd_core.c **** 
 809              		.loc 1 253 9 view .LVU217
 810 007a 2F48     		ldr	r0, .L71+4
 811              	.LVL81:
 253:CherryUSB/core/usbd_core.c **** 
 812              		.loc 1 253 9 is_stmt 0 view .LVU218
 813 007c FFF7FEFF 		bl	printf
 814              	.LVL82:
 253:CherryUSB/core/usbd_core.c **** 
 815              		.loc 1 253 9 is_stmt 1 view .LVU219
 816 0080 3048     		ldr	r0, .L71+16
 817 0082 FFF7FEFF 		bl	puts
 818              	.LVL83:
 253:CherryUSB/core/usbd_core.c **** 
 819              		.loc 1 253 9 view .LVU220
 820 0086 2E48     		ldr	r0, .L71+12
 821 0088 FFF7FEFF 		bl	printf
 822              	.LVL84:
 253:CherryUSB/core/usbd_core.c **** 
 823              		.loc 1 253 9 view .LVU221
 255:CherryUSB/core/usbd_core.c ****             return false;
 824              		.loc 1 255 9 view .LVU222
 255:CherryUSB/core/usbd_core.c ****             return false;
 825              		.loc 1 255 32 is_stmt 0 view .LVU223
 826 008c 294B     		ldr	r3, .L71
 827 008e 4FF4DA72 		mov	r2, #436
 828 0092 02FB0833 		mla	r3, r2, r8, r3
 829 0096 5B6A     		ldr	r3, [r3, #36]
 255:CherryUSB/core/usbd_core.c ****             return false;
 830              		.loc 1 255 12 view .LVU224
 831 0098 002B     		cmp	r3, #0
 832 009a 45D0     		beq	.L64
 260:CherryUSB/core/usbd_core.c ****         *len = g_usbd_core[busid].bos_desc->string_len;
 833              		.loc 1 260 9 is_stmt 1 view .LVU225
 834 009c 5A68     		ldr	r2, [r3, #4]
 835 009e 1968     		ldr	r1, [r3]
 836 00a0 3868     		ldr	r0, [r7]
ARM GAS  C:\Users\Jim_YW\AppData\Local\Temp\ccVYwxt0.s 			page 36


 837 00a2 FFF7FEFF 		bl	memcpy
 838              	.LVL85:
 261:CherryUSB/core/usbd_core.c ****         return true;
 839              		.loc 1 261 9 view .LVU226
 261:CherryUSB/core/usbd_core.c ****         return true;
 840              		.loc 1 261 34 is_stmt 0 view .LVU227
 841 00a6 234B     		ldr	r3, .L71
 842 00a8 4FF4DA72 		mov	r2, #436
 843 00ac 02FB0838 		mla	r8, r2, r8, r3
 844 00b0 D8F82430 		ldr	r3, [r8, #36]
 261:CherryUSB/core/usbd_core.c ****         return true;
 845              		.loc 1 261 43 view .LVU228
 846 00b4 5B68     		ldr	r3, [r3, #4]
 261:CherryUSB/core/usbd_core.c ****         return true;
 847              		.loc 1 261 14 view .LVU229
 848 00b6 3360     		str	r3, [r6]
 262:CherryUSB/core/usbd_core.c ****     }
 849              		.loc 1 262 9 is_stmt 1 view .LVU230
 262:CherryUSB/core/usbd_core.c ****     }
 850              		.loc 1 262 16 is_stmt 0 view .LVU231
 851 00b8 4FF00108 		mov	r8, #1
 852 00bc 22E0     		b	.L53
 853              	.LVL86:
 854              	.L56:
 292:CherryUSB/core/usbd_core.c ****     }
 855              		.loc 1 292 9 is_stmt 1 view .LVU232
 292:CherryUSB/core/usbd_core.c ****     }
 856              		.loc 1 292 11 is_stmt 0 view .LVU233
 857 00be 0144     		add	r1, r1, r0
 858              	.LVL87:
 859              	.L55:
 281:CherryUSB/core/usbd_core.c ****         if (p[DESC_bDescriptorType] == type) {
 860              		.loc 1 281 11 is_stmt 1 view .LVU234
 281:CherryUSB/core/usbd_core.c ****         if (p[DESC_bDescriptorType] == type) {
 861              		.loc 1 281 13 is_stmt 0 view .LVU235
 862 00c0 0878     		ldrb	r0, [r1]	@ zero_extendqisi2
 281:CherryUSB/core/usbd_core.c ****         if (p[DESC_bDescriptorType] == type) {
 863              		.loc 1 281 11 view .LVU236
 864 00c2 40B1     		cbz	r0, .L70
 282:CherryUSB/core/usbd_core.c ****             if (cur_index == index) {
 865              		.loc 1 282 9 is_stmt 1 view .LVU237
 282:CherryUSB/core/usbd_core.c ****             if (cur_index == index) {
 866              		.loc 1 282 14 is_stmt 0 view .LVU238
 867 00c4 91F801C0 		ldrb	ip, [r1, #1]	@ zero_extendqisi2
 282:CherryUSB/core/usbd_core.c ****             if (cur_index == index) {
 868              		.loc 1 282 12 view .LVU239
 869 00c8 A445     		cmp	ip, r4
 870 00ca F8D1     		bne	.L56
 283:CherryUSB/core/usbd_core.c ****                 found = true;
 871              		.loc 1 283 13 is_stmt 1 view .LVU240
 283:CherryUSB/core/usbd_core.c ****                 found = true;
 872              		.loc 1 283 16 is_stmt 0 view .LVU241
 873 00cc 7545     		cmp	r5, lr
 874 00ce 0DD0     		beq	.L66
 288:CherryUSB/core/usbd_core.c ****         }
 875              		.loc 1 288 13 is_stmt 1 view .LVU242
 288:CherryUSB/core/usbd_core.c ****         }
ARM GAS  C:\Users\Jim_YW\AppData\Local\Temp\ccVYwxt0.s 			page 37


 876              		.loc 1 288 22 is_stmt 0 view .LVU243
 877 00d0 0EF1010E 		add	lr, lr, #1
 878              	.LVL88:
 288:CherryUSB/core/usbd_core.c ****         }
 879              		.loc 1 288 22 view .LVU244
 880 00d4 F3E7     		b	.L56
 881              	.L70:
 235:CherryUSB/core/usbd_core.c **** 
 882              		.loc 1 235 10 view .LVU245
 883 00d6 4FF00008 		mov	r8, #0
 884              	.L57:
 885              	.LVL89:
 295:CherryUSB/core/usbd_core.c ****         if ((type == USB_DESCRIPTOR_TYPE_CONFIGURATION) || ((type == USB_DESCRIPTOR_TYPE_OTHER_SPEE
 886              		.loc 1 295 5 is_stmt 1 view .LVU246
 295:CherryUSB/core/usbd_core.c ****         if ((type == USB_DESCRIPTOR_TYPE_CONFIGURATION) || ((type == USB_DESCRIPTOR_TYPE_OTHER_SPEE
 887              		.loc 1 295 8 is_stmt 0 view .LVU247
 888 00da B8F1000F 		cmp	r8, #0
 889 00de 14D0     		beq	.L59
 296:CherryUSB/core/usbd_core.c ****             /* configuration or other speed descriptor is an
 890              		.loc 1 296 9 is_stmt 1 view .LVU248
 296:CherryUSB/core/usbd_core.c ****             /* configuration or other speed descriptor is an
 891              		.loc 1 296 12 is_stmt 0 view .LVU249
 892 00e0 022C     		cmp	r4, #2
 893 00e2 06D0     		beq	.L60
 296:CherryUSB/core/usbd_core.c ****             /* configuration or other speed descriptor is an
 894              		.loc 1 296 57 discriminator 1 view .LVU250
 895 00e4 072C     		cmp	r4, #7
 896 00e6 04D0     		beq	.L60
 304:CherryUSB/core/usbd_core.c ****         }
 897              		.loc 1 304 13 is_stmt 1 view .LVU251
 304:CherryUSB/core/usbd_core.c ****         }
 898              		.loc 1 304 18 is_stmt 0 view .LVU252
 899 00e8 3060     		str	r0, [r6]
 900 00ea 07E0     		b	.L62
 901              	.LVL90:
 902              	.L66:
 284:CherryUSB/core/usbd_core.c ****                 break;
 903              		.loc 1 284 23 view .LVU253
 904 00ec 4FF00108 		mov	r8, #1
 905 00f0 F3E7     		b	.L57
 906              	.LVL91:
 907              	.L60:
 300:CherryUSB/core/usbd_core.c ****                    (p[CONF_DESC_wTotalLength + 1] << 8);
 908              		.loc 1 300 13 is_stmt 1 view .LVU254
 300:CherryUSB/core/usbd_core.c ****                    (p[CONF_DESC_wTotalLength + 1] << 8);
 909              		.loc 1 300 22 is_stmt 0 view .LVU255
 910 00f2 8B78     		ldrb	r3, [r1, #2]	@ zero_extendqisi2
 301:CherryUSB/core/usbd_core.c ****         } else {
 911              		.loc 1 301 22 view .LVU256
 912 00f4 CA78     		ldrb	r2, [r1, #3]	@ zero_extendqisi2
 913              	.LVL92:
 300:CherryUSB/core/usbd_core.c ****                    (p[CONF_DESC_wTotalLength + 1] << 8);
 914              		.loc 1 300 48 view .LVU257
 915 00f6 43EA0223 		orr	r3, r3, r2, lsl #8
 300:CherryUSB/core/usbd_core.c ****                    (p[CONF_DESC_wTotalLength + 1] << 8);
 916              		.loc 1 300 18 view .LVU258
 917 00fa 3360     		str	r3, [r6]
ARM GAS  C:\Users\Jim_YW\AppData\Local\Temp\ccVYwxt0.s 			page 38


 918              	.L62:
 306:CherryUSB/core/usbd_core.c ****     } else {
 919              		.loc 1 306 9 is_stmt 1 view .LVU259
 920 00fc 3268     		ldr	r2, [r6]
 921 00fe 3868     		ldr	r0, [r7]
 922 0100 FFF7FEFF 		bl	memcpy
 923              	.LVL93:
 924              	.L53:
 313:CherryUSB/core/usbd_core.c **** #endif
 925              		.loc 1 313 1 is_stmt 0 view .LVU260
 926 0104 4046     		mov	r0, r8
 927 0106 BDE8F081 		pop	{r4, r5, r6, r7, r8, pc}
 928              	.LVL94:
 929              	.L59:
 309:CherryUSB/core/usbd_core.c ****     }
 930              		.loc 1 309 9 is_stmt 1 view .LVU261
 309:CherryUSB/core/usbd_core.c ****     }
 931              		.loc 1 309 9 view .LVU262
 932 010a 0F48     		ldr	r0, .L71+20
 933 010c FFF7FEFF 		bl	printf
 934              	.LVL95:
 309:CherryUSB/core/usbd_core.c ****     }
 935              		.loc 1 309 9 view .LVU263
 936 0110 2A46     		mov	r2, r5
 937 0112 2146     		mov	r1, r4
 938 0114 0D48     		ldr	r0, .L71+24
 939 0116 FFF7FEFF 		bl	printf
 940              	.LVL96:
 309:CherryUSB/core/usbd_core.c ****     }
 941              		.loc 1 309 9 view .LVU264
 942 011a 0948     		ldr	r0, .L71+12
 943 011c FFF7FEFF 		bl	printf
 944              	.LVL97:
 945 0120 F0E7     		b	.L53
 946              	.LVL98:
 947              	.L63:
 244:CherryUSB/core/usbd_core.c ****         }
 948              		.loc 1 244 20 is_stmt 0 view .LVU265
 949 0122 4FF00008 		mov	r8, #0
 950 0126 EDE7     		b	.L53
 951              	.L64:
 256:CherryUSB/core/usbd_core.c ****         }
 952              		.loc 1 256 20 view .LVU266
 953 0128 4FF00008 		mov	r8, #0
 954 012c EAE7     		b	.L53
 955              	.LVL99:
 956              	.L65:
 274:CherryUSB/core/usbd_core.c ****     }
 957              		.loc 1 274 16 view .LVU267
 958 012e 4FF00008 		mov	r8, #0
 959 0132 E7E7     		b	.L53
 960              	.L72:
 961              		.align	2
 962              	.L71:
 963 0134 00000000 		.word	.LANCHOR0
 964 0138 00000000 		.word	.LC0
 965 013c 00000000 		.word	.LC4
ARM GAS  C:\Users\Jim_YW\AppData\Local\Temp\ccVYwxt0.s 			page 39


 966 0140 30000000 		.word	.LC2
 967 0144 24000000 		.word	.LC5
 968 0148 40000000 		.word	.LC6
 969 014c 50000000 		.word	.LC7
 970              		.cfi_endproc
 971              	.LFE26:
 973              		.section	.text.usbd_std_device_req_handler,"ax",%progbits
 974              		.align	1
 975              		.syntax unified
 976              		.thumb
 977              		.thumb_func
 979              	usbd_std_device_req_handler:
 980              	.LVL100:
 981              	.LFB29:
 478:CherryUSB/core/usbd_core.c ****     uint16_t value = setup->wValue;
 982              		.loc 1 478 1 is_stmt 1 view -0
 983              		.cfi_startproc
 984              		@ args = 0, pretend = 0, frame = 0
 985              		@ frame_needed = 0, uses_anonymous_args = 0
 478:CherryUSB/core/usbd_core.c ****     uint16_t value = setup->wValue;
 986              		.loc 1 478 1 is_stmt 0 view .LVU269
 987 0000 2DE9F041 		push	{r4, r5, r6, r7, r8, lr}
 988              	.LCFI8:
 989              		.cfi_def_cfa_offset 24
 990              		.cfi_offset 4, -24
 991              		.cfi_offset 5, -20
 992              		.cfi_offset 6, -16
 993              		.cfi_offset 7, -12
 994              		.cfi_offset 8, -8
 995              		.cfi_offset 14, -4
 996 0004 0646     		mov	r6, r0
 997 0006 1D46     		mov	r5, r3
 479:CherryUSB/core/usbd_core.c ****     bool ret = true;
 998              		.loc 1 479 5 is_stmt 1 view .LVU270
 479:CherryUSB/core/usbd_core.c ****     bool ret = true;
 999              		.loc 1 479 14 is_stmt 0 view .LVU271
 1000 0008 4F88     		ldrh	r7, [r1, #2]	@ unaligned
 1001              	.LVL101:
 480:CherryUSB/core/usbd_core.c **** 
 1002              		.loc 1 480 5 is_stmt 1 view .LVU272
 482:CherryUSB/core/usbd_core.c ****         case USB_REQUEST_GET_STATUS:
 1003              		.loc 1 482 5 view .LVU273
 482:CherryUSB/core/usbd_core.c ****         case USB_REQUEST_GET_STATUS:
 1004              		.loc 1 482 18 is_stmt 0 view .LVU274
 1005 000a 91F801C0 		ldrb	ip, [r1, #1]	@ zero_extendqisi2
 482:CherryUSB/core/usbd_core.c ****         case USB_REQUEST_GET_STATUS:
 1006              		.loc 1 482 5 view .LVU275
 1007 000e BCF1090F 		cmp	ip, #9
 1008 0012 61D8     		bhi	.L85
 1009 0014 DFE80CF0 		tbb	[pc, ip]
 1010              	.LVL102:
 1011              	.L76:
 1012 0018 05       		.byte	(.L81-.L76)/2
 1013 0019 0E       		.byte	(.L80-.L76)/2
 1014 001a 60       		.byte	(.L85-.L76)/2
 1015 001b 0E       		.byte	(.L80-.L76)/2
 1016 001c 60       		.byte	(.L85-.L76)/2
ARM GAS  C:\Users\Jim_YW\AppData\Local\Temp\ccVYwxt0.s 			page 40


 1017 001d 2B       		.byte	(.L79-.L76)/2
 1018 001e 32       		.byte	(.L78-.L76)/2
 1019 001f 60       		.byte	(.L85-.L76)/2
 1020 0020 38       		.byte	(.L77-.L76)/2
 1021 0021 44       		.byte	(.L75-.L76)/2
 1022              		.p2align 1
 1023              	.L81:
 486:CherryUSB/core/usbd_core.c ****             (*data)[1] = 0x00;
 1024              		.loc 1 486 13 is_stmt 1 view .LVU276
 486:CherryUSB/core/usbd_core.c ****             (*data)[1] = 0x00;
 1025              		.loc 1 486 14 is_stmt 0 view .LVU277
 1026 0022 1168     		ldr	r1, [r2]
 1027              	.LVL103:
 486:CherryUSB/core/usbd_core.c ****             (*data)[1] = 0x00;
 1028              		.loc 1 486 24 view .LVU278
 1029 0024 0023     		movs	r3, #0
 1030 0026 0B70     		strb	r3, [r1]
 1031              	.LVL104:
 487:CherryUSB/core/usbd_core.c ****             *len = 2;
 1032              		.loc 1 487 13 is_stmt 1 view .LVU279
 487:CherryUSB/core/usbd_core.c ****             *len = 2;
 1033              		.loc 1 487 14 is_stmt 0 view .LVU280
 1034 0028 1268     		ldr	r2, [r2]
 1035              	.LVL105:
 487:CherryUSB/core/usbd_core.c ****             *len = 2;
 1036              		.loc 1 487 24 view .LVU281
 1037 002a 5370     		strb	r3, [r2, #1]
 488:CherryUSB/core/usbd_core.c ****             break;
 1038              		.loc 1 488 13 is_stmt 1 view .LVU282
 488:CherryUSB/core/usbd_core.c ****             break;
 1039              		.loc 1 488 18 is_stmt 0 view .LVU283
 1040 002c 0223     		movs	r3, #2
 1041 002e 2B60     		str	r3, [r5]
 489:CherryUSB/core/usbd_core.c **** 
 1042              		.loc 1 489 13 is_stmt 1 view .LVU284
 480:CherryUSB/core/usbd_core.c **** 
 1043              		.loc 1 480 10 is_stmt 0 view .LVU285
 1044 0030 0124     		movs	r4, #1
 489:CherryUSB/core/usbd_core.c **** 
 1045              		.loc 1 489 13 view .LVU286
 1046 0032 52E0     		b	.L74
 1047              	.LVL106:
 1048              	.L80:
 493:CherryUSB/core/usbd_core.c ****                 if (setup->bRequest == USB_REQUEST_SET_FEATURE) {
 1049              		.loc 1 493 13 is_stmt 1 view .LVU287
 493:CherryUSB/core/usbd_core.c ****                 if (setup->bRequest == USB_REQUEST_SET_FEATURE) {
 1050              		.loc 1 493 16 is_stmt 0 view .LVU288
 1051 0034 012F     		cmp	r7, #1
 1052 0036 03D0     		beq	.L87
 1053              	.LVL107:
 1054              	.L82:
 503:CherryUSB/core/usbd_core.c ****             *len = 0;
 1055              		.loc 1 503 13 is_stmt 1 view .LVU289
 504:CherryUSB/core/usbd_core.c ****             break;
 1056              		.loc 1 504 13 view .LVU290
 504:CherryUSB/core/usbd_core.c ****             break;
 1057              		.loc 1 504 18 is_stmt 0 view .LVU291
ARM GAS  C:\Users\Jim_YW\AppData\Local\Temp\ccVYwxt0.s 			page 41


 1058 0038 0023     		movs	r3, #0
 1059 003a 2B60     		str	r3, [r5]
 505:CherryUSB/core/usbd_core.c **** 
 1060              		.loc 1 505 13 is_stmt 1 view .LVU292
 480:CherryUSB/core/usbd_core.c **** 
 1061              		.loc 1 480 10 is_stmt 0 view .LVU293
 1062 003c 0124     		movs	r4, #1
 505:CherryUSB/core/usbd_core.c **** 
 1063              		.loc 1 505 13 view .LVU294
 1064 003e 4CE0     		b	.L74
 1065              	.LVL108:
 1066              	.L87:
 494:CherryUSB/core/usbd_core.c ****                     g_usbd_core[busid].event_handler(busid, USBD_EVENT_SET_REMOTE_WAKEUP);
 1067              		.loc 1 494 17 is_stmt 1 view .LVU295
 494:CherryUSB/core/usbd_core.c ****                     g_usbd_core[busid].event_handler(busid, USBD_EVENT_SET_REMOTE_WAKEUP);
 1068              		.loc 1 494 20 is_stmt 0 view .LVU296
 1069 0040 BCF1030F 		cmp	ip, #3
 1070 0044 09D0     		beq	.L88
 497:CherryUSB/core/usbd_core.c ****                 }
 1071              		.loc 1 497 21 is_stmt 1 view .LVU297
 497:CherryUSB/core/usbd_core.c ****                 }
 1072              		.loc 1 497 39 is_stmt 0 view .LVU298
 1073 0046 264B     		ldr	r3, .L90
 1074 0048 4FF4DA72 		mov	r2, #436
 1075              	.LVL109:
 497:CherryUSB/core/usbd_core.c ****                 }
 1076              		.loc 1 497 39 view .LVU299
 1077 004c 02FB0033 		mla	r3, r2, r0, r3
 1078 0050 D3F8B031 		ldr	r3, [r3, #432]
 497:CherryUSB/core/usbd_core.c ****                 }
 1079              		.loc 1 497 21 view .LVU300
 1080 0054 0A21     		movs	r1, #10
 1081              	.LVL110:
 497:CherryUSB/core/usbd_core.c ****                 }
 1082              		.loc 1 497 21 view .LVU301
 1083 0056 9847     		blx	r3
 1084              	.LVL111:
 497:CherryUSB/core/usbd_core.c ****                 }
 1085              		.loc 1 497 21 view .LVU302
 1086 0058 EEE7     		b	.L82
 1087              	.LVL112:
 1088              	.L88:
 495:CherryUSB/core/usbd_core.c ****                 } else {
 1089              		.loc 1 495 21 is_stmt 1 view .LVU303
 495:CherryUSB/core/usbd_core.c ****                 } else {
 1090              		.loc 1 495 39 is_stmt 0 view .LVU304
 1091 005a 214B     		ldr	r3, .L90
 1092 005c 4FF4DA72 		mov	r2, #436
 1093              	.LVL113:
 495:CherryUSB/core/usbd_core.c ****                 } else {
 1094              		.loc 1 495 39 view .LVU305
 1095 0060 02FB0033 		mla	r3, r2, r0, r3
 1096 0064 D3F8B031 		ldr	r3, [r3, #432]
 495:CherryUSB/core/usbd_core.c ****                 } else {
 1097              		.loc 1 495 21 view .LVU306
 1098 0068 0921     		movs	r1, #9
 1099              	.LVL114:
ARM GAS  C:\Users\Jim_YW\AppData\Local\Temp\ccVYwxt0.s 			page 42


 495:CherryUSB/core/usbd_core.c ****                 } else {
 1100              		.loc 1 495 21 view .LVU307
 1101 006a 9847     		blx	r3
 1102              	.LVL115:
 495:CherryUSB/core/usbd_core.c ****                 } else {
 1103              		.loc 1 495 21 view .LVU308
 1104 006c E4E7     		b	.L82
 1105              	.LVL116:
 1106              	.L79:
 508:CherryUSB/core/usbd_core.c ****             *len = 0;
 1107              		.loc 1 508 13 is_stmt 1 view .LVU309
 1108 006e F9B2     		uxtb	r1, r7
 1109              	.LVL117:
 508:CherryUSB/core/usbd_core.c ****             *len = 0;
 1110              		.loc 1 508 13 is_stmt 0 view .LVU310
 1111 0070 FFF7FEFF 		bl	usbd_set_address
 1112              	.LVL118:
 509:CherryUSB/core/usbd_core.c ****             break;
 1113              		.loc 1 509 13 is_stmt 1 view .LVU311
 509:CherryUSB/core/usbd_core.c ****             break;
 1114              		.loc 1 509 18 is_stmt 0 view .LVU312
 1115 0074 0023     		movs	r3, #0
 1116 0076 2B60     		str	r3, [r5]
 510:CherryUSB/core/usbd_core.c **** 
 1117              		.loc 1 510 13 is_stmt 1 view .LVU313
 480:CherryUSB/core/usbd_core.c **** 
 1118              		.loc 1 480 10 is_stmt 0 view .LVU314
 1119 0078 0124     		movs	r4, #1
 510:CherryUSB/core/usbd_core.c **** 
 1120              		.loc 1 510 13 view .LVU315
 1121 007a 2EE0     		b	.L74
 1122              	.LVL119:
 1123              	.L78:
 513:CherryUSB/core/usbd_core.c ****             break;
 1124              		.loc 1 513 13 is_stmt 1 view .LVU316
 513:CherryUSB/core/usbd_core.c ****             break;
 1125              		.loc 1 513 19 is_stmt 0 view .LVU317
 1126 007c 2B46     		mov	r3, r5
 1127 007e 3946     		mov	r1, r7
 1128              	.LVL120:
 513:CherryUSB/core/usbd_core.c ****             break;
 1129              		.loc 1 513 19 view .LVU318
 1130 0080 FFF7FEFF 		bl	usbd_get_descriptor
 1131              	.LVL121:
 513:CherryUSB/core/usbd_core.c ****             break;
 1132              		.loc 1 513 19 view .LVU319
 1133 0084 0446     		mov	r4, r0
 1134              	.LVL122:
 514:CherryUSB/core/usbd_core.c **** 
 1135              		.loc 1 514 13 is_stmt 1 view .LVU320
 1136 0086 28E0     		b	.L74
 1137              	.LVL123:
 1138              	.L77:
 521:CherryUSB/core/usbd_core.c ****             *len = 1;
 1139              		.loc 1 521 13 view .LVU321
 521:CherryUSB/core/usbd_core.c ****             *len = 1;
 1140              		.loc 1 521 21 is_stmt 0 view .LVU322
ARM GAS  C:\Users\Jim_YW\AppData\Local\Temp\ccVYwxt0.s 			page 43


 1141 0088 4FF4DA70 		mov	r0, #436
 1142              	.LVL124:
 521:CherryUSB/core/usbd_core.c ****             *len = 1;
 1143              		.loc 1 521 21 view .LVU323
 1144 008c 00FB06F6 		mul	r6, r0, r6
 1145 0090 06F59476 		add	r6, r6, #296
 1146 0094 124B     		ldr	r3, .L90
 1147 0096 1E44     		add	r6, r6, r3
 521:CherryUSB/core/usbd_core.c ****             *len = 1;
 1148              		.loc 1 521 19 view .LVU324
 1149 0098 1660     		str	r6, [r2]
 1150              	.LVL125:
 522:CherryUSB/core/usbd_core.c ****             break;
 1151              		.loc 1 522 13 is_stmt 1 view .LVU325
 522:CherryUSB/core/usbd_core.c ****             break;
 1152              		.loc 1 522 18 is_stmt 0 view .LVU326
 1153 009a 0124     		movs	r4, #1
 1154 009c 2C60     		str	r4, [r5]
 523:CherryUSB/core/usbd_core.c **** 
 1155              		.loc 1 523 13 is_stmt 1 view .LVU327
 1156 009e 1CE0     		b	.L74
 1157              	.LVL126:
 1158              	.L75:
 526:CherryUSB/core/usbd_core.c **** 
 1159              		.loc 1 526 13 view .LVU328
 528:CherryUSB/core/usbd_core.c ****                 ret = false;
 1160              		.loc 1 528 13 view .LVU329
 528:CherryUSB/core/usbd_core.c ****                 ret = false;
 1161              		.loc 1 528 18 is_stmt 0 view .LVU330
 1162 00a0 FFB2     		uxtb	r7, r7
 1163 00a2 0022     		movs	r2, #0
 1164              	.LVL127:
 528:CherryUSB/core/usbd_core.c ****                 ret = false;
 1165              		.loc 1 528 18 view .LVU331
 1166 00a4 3946     		mov	r1, r7
 1167              	.LVL128:
 528:CherryUSB/core/usbd_core.c ****                 ret = false;
 1168              		.loc 1 528 18 view .LVU332
 1169 00a6 FFF7FEFF 		bl	usbd_set_configuration
 1170              	.LVL129:
 528:CherryUSB/core/usbd_core.c ****                 ret = false;
 1171              		.loc 1 528 16 view .LVU333
 1172 00aa 0446     		mov	r4, r0
 1173 00ac 10B9     		cbnz	r0, .L89
 1174              	.L84:
 1175              	.LVL130:
 535:CherryUSB/core/usbd_core.c ****             break;
 1176              		.loc 1 535 13 is_stmt 1 view .LVU334
 535:CherryUSB/core/usbd_core.c ****             break;
 1177              		.loc 1 535 18 is_stmt 0 view .LVU335
 1178 00ae 0023     		movs	r3, #0
 1179 00b0 2B60     		str	r3, [r5]
 536:CherryUSB/core/usbd_core.c **** 
 1180              		.loc 1 536 13 is_stmt 1 view .LVU336
 1181 00b2 12E0     		b	.L74
 1182              	.LVL131:
 1183              	.L89:
ARM GAS  C:\Users\Jim_YW\AppData\Local\Temp\ccVYwxt0.s 			page 44


 531:CherryUSB/core/usbd_core.c ****                 usbd_class_event_notify_handler(busid, USBD_EVENT_CONFIGURED, NULL);
 1184              		.loc 1 531 17 view .LVU337
 531:CherryUSB/core/usbd_core.c ****                 usbd_class_event_notify_handler(busid, USBD_EVENT_CONFIGURED, NULL);
 1185              		.loc 1 531 50 is_stmt 0 view .LVU338
 1186 00b4 0A4B     		ldr	r3, .L90
 1187 00b6 4FF4DA78 		mov	r8, #436
 1188 00ba 08FB0638 		mla	r8, r8, r6, r3
 1189 00be 88F82871 		strb	r7, [r8, #296]
 532:CherryUSB/core/usbd_core.c ****                 g_usbd_core[busid].event_handler(busid, USBD_EVENT_CONFIGURED);
 1190              		.loc 1 532 17 is_stmt 1 view .LVU339
 1191 00c2 0022     		movs	r2, #0
 1192 00c4 0721     		movs	r1, #7
 1193 00c6 3046     		mov	r0, r6
 1194 00c8 FFF7FEFF 		bl	usbd_class_event_notify_handler
 1195              	.LVL132:
 533:CherryUSB/core/usbd_core.c ****             }
 1196              		.loc 1 533 17 view .LVU340
 533:CherryUSB/core/usbd_core.c ****             }
 1197              		.loc 1 533 35 is_stmt 0 view .LVU341
 1198 00cc D8F8B031 		ldr	r3, [r8, #432]
 533:CherryUSB/core/usbd_core.c ****             }
 1199              		.loc 1 533 17 view .LVU342
 1200 00d0 0721     		movs	r1, #7
 1201 00d2 3046     		mov	r0, r6
 1202 00d4 9847     		blx	r3
 1203              	.LVL133:
 1204 00d6 EAE7     		b	.L84
 1205              	.LVL134:
 1206              	.L85:
 482:CherryUSB/core/usbd_core.c ****         case USB_REQUEST_GET_STATUS:
 1207              		.loc 1 482 5 view .LVU343
 1208 00d8 0024     		movs	r4, #0
 1209              	.LVL135:
 1210              	.L74:
 548:CherryUSB/core/usbd_core.c **** }
 1211              		.loc 1 548 5 is_stmt 1 view .LVU344
 549:CherryUSB/core/usbd_core.c **** 
 1212              		.loc 1 549 1 is_stmt 0 view .LVU345
 1213 00da 2046     		mov	r0, r4
 1214 00dc BDE8F081 		pop	{r4, r5, r6, r7, r8, pc}
 1215              	.LVL136:
 1216              	.L91:
 549:CherryUSB/core/usbd_core.c **** 
 1217              		.loc 1 549 1 view .LVU346
 1218              		.align	2
 1219              	.L90:
 1220 00e0 00000000 		.word	.LANCHOR0
 1221              		.cfi_endproc
 1222              	.LFE29:
 1224              		.section	.rodata.usbd_vendor_request_handler.str1.4,"aMS",%progbits,1
 1225              		.align	2
 1226              	.LC8:
 1227 0000 67657420 		.ascii	"get Compat ID\015\000"
 1227      436F6D70 
 1227      61742049 
 1227      440D00
 1228 000f 00       		.align	2
ARM GAS  C:\Users\Jim_YW\AppData\Local\Temp\ccVYwxt0.s 			page 45


 1229              	.LC9:
 1230 0010 67657420 		.ascii	"get Compat id properties\015\000"
 1230      436F6D70 
 1230      61742069 
 1230      64207072 
 1230      6F706572 
 1231 002a 0000     		.align	2
 1232              	.LC10:
 1233 002c 756E6B6E 		.ascii	"unknown vendor code\015\000"
 1233      6F776E20 
 1233      76656E64 
 1233      6F722063 
 1233      6F64650D 
 1234 0041 000000   		.align	2
 1235              	.LC11:
 1236 0044 47455420 		.ascii	"GET MS OS 2.0 Descriptor\015\000"
 1236      4D53204F 
 1236      5320322E 
 1236      30204465 
 1236      73637269 
 1237              		.section	.text.usbd_vendor_request_handler,"ax",%progbits
 1238              		.align	1
 1239              		.syntax unified
 1240              		.thumb
 1241              		.thumb_func
 1243              	usbd_vendor_request_handler:
 1244              	.LVL137:
 1245              	.LFB34:
 763:CherryUSB/core/usbd_core.c ****     uint32_t desclen;
 1246              		.loc 1 763 1 is_stmt 1 view -0
 1247              		.cfi_startproc
 1248              		@ args = 0, pretend = 0, frame = 0
 1249              		@ frame_needed = 0, uses_anonymous_args = 0
 763:CherryUSB/core/usbd_core.c ****     uint32_t desclen;
 1250              		.loc 1 763 1 is_stmt 0 view .LVU348
 1251 0000 2DE9F843 		push	{r3, r4, r5, r6, r7, r8, r9, lr}
 1252              	.LCFI9:
 1253              		.cfi_def_cfa_offset 32
 1254              		.cfi_offset 3, -32
 1255              		.cfi_offset 4, -28
 1256              		.cfi_offset 5, -24
 1257              		.cfi_offset 6, -20
 1258              		.cfi_offset 7, -16
 1259              		.cfi_offset 8, -12
 1260              		.cfi_offset 9, -8
 1261              		.cfi_offset 14, -4
 1262 0004 0546     		mov	r5, r0
 1263 0006 0E46     		mov	r6, r1
 1264 0008 1746     		mov	r7, r2
 1265 000a 9846     		mov	r8, r3
 764:CherryUSB/core/usbd_core.c **** #ifdef CONFIG_USBDEV_ADVANCE_DESC
 1266              		.loc 1 764 5 is_stmt 1 view .LVU349
 830:CherryUSB/core/usbd_core.c ****         if (setup->bRequest == g_usbd_core[busid].msosv1_desc->vendor_code) {
 1267              		.loc 1 830 5 view .LVU350
 830:CherryUSB/core/usbd_core.c ****         if (setup->bRequest == g_usbd_core[busid].msosv1_desc->vendor_code) {
 1268              		.loc 1 830 27 is_stmt 0 view .LVU351
 1269 000c 644B     		ldr	r3, .L111
ARM GAS  C:\Users\Jim_YW\AppData\Local\Temp\ccVYwxt0.s 			page 46


 1270              	.LVL138:
 830:CherryUSB/core/usbd_core.c ****         if (setup->bRequest == g_usbd_core[busid].msosv1_desc->vendor_code) {
 1271              		.loc 1 830 27 view .LVU352
 1272 000e 4FF4DA72 		mov	r2, #436
 1273              	.LVL139:
 830:CherryUSB/core/usbd_core.c ****         if (setup->bRequest == g_usbd_core[busid].msosv1_desc->vendor_code) {
 1274              		.loc 1 830 27 view .LVU353
 1275 0012 02FB0033 		mla	r3, r2, r0, r3
 1276 0016 DB69     		ldr	r3, [r3, #28]
 830:CherryUSB/core/usbd_core.c ****         if (setup->bRequest == g_usbd_core[busid].msosv1_desc->vendor_code) {
 1277              		.loc 1 830 8 view .LVU354
 1278 0018 002B     		cmp	r3, #0
 1279 001a 5DD0     		beq	.L93
 831:CherryUSB/core/usbd_core.c ****             switch (setup->wIndex) {
 1280              		.loc 1 831 9 is_stmt 1 view .LVU355
 831:CherryUSB/core/usbd_core.c ****             switch (setup->wIndex) {
 1281              		.loc 1 831 18 is_stmt 0 view .LVU356
 1282 001c 4A78     		ldrb	r2, [r1, #1]	@ zero_extendqisi2
 831:CherryUSB/core/usbd_core.c ****             switch (setup->wIndex) {
 1283              		.loc 1 831 62 view .LVU357
 1284 001e 1B79     		ldrb	r3, [r3, #4]	@ zero_extendqisi2
 831:CherryUSB/core/usbd_core.c ****             switch (setup->wIndex) {
 1285              		.loc 1 831 12 view .LVU358
 1286 0020 9A42     		cmp	r2, r3
 1287 0022 01D0     		beq	.L108
 1288 0024 0024     		movs	r4, #0
 1289 0026 90E0     		b	.L101
 1290              	.L108:
 832:CherryUSB/core/usbd_core.c ****                 case 0x04:
 1291              		.loc 1 832 13 is_stmt 1 view .LVU359
 832:CherryUSB/core/usbd_core.c ****                 case 0x04:
 1292              		.loc 1 832 26 is_stmt 0 view .LVU360
 1293 0028 8B88     		ldrh	r3, [r1, #4]	@ unaligned
 832:CherryUSB/core/usbd_core.c ****                 case 0x04:
 1294              		.loc 1 832 13 view .LVU361
 1295 002a 042B     		cmp	r3, #4
 1296 002c 0DD0     		beq	.L95
 1297 002e 052B     		cmp	r3, #5
 1298 0030 2DD0     		beq	.L96
 854:CherryUSB/core/usbd_core.c ****                     return -1;
 1299              		.loc 1 854 21 is_stmt 1 view .LVU362
 854:CherryUSB/core/usbd_core.c ****                     return -1;
 1300              		.loc 1 854 21 view .LVU363
 1301 0032 5C48     		ldr	r0, .L111+4
 1302              	.LVL140:
 854:CherryUSB/core/usbd_core.c ****                     return -1;
 1303              		.loc 1 854 21 is_stmt 0 view .LVU364
 1304 0034 FFF7FEFF 		bl	printf
 1305              	.LVL141:
 854:CherryUSB/core/usbd_core.c ****                     return -1;
 1306              		.loc 1 854 21 is_stmt 1 view .LVU365
 1307 0038 5B48     		ldr	r0, .L111+8
 1308 003a FFF7FEFF 		bl	puts
 1309              	.LVL142:
 854:CherryUSB/core/usbd_core.c ****                     return -1;
 1310              		.loc 1 854 21 view .LVU366
 1311 003e 5B48     		ldr	r0, .L111+12
ARM GAS  C:\Users\Jim_YW\AppData\Local\Temp\ccVYwxt0.s 			page 47


 1312 0040 FFF7FEFF 		bl	printf
 1313              	.LVL143:
 854:CherryUSB/core/usbd_core.c ****                     return -1;
 1314              		.loc 1 854 21 view .LVU367
 855:CherryUSB/core/usbd_core.c ****             }
 1315              		.loc 1 855 21 view .LVU368
 855:CherryUSB/core/usbd_core.c ****             }
 1316              		.loc 1 855 28 is_stmt 0 view .LVU369
 1317 0044 4FF0FF33 		mov	r3, #-1
 1318 0048 A7E0     		b	.L92
 1319              	.LVL144:
 1320              	.L95:
 834:CherryUSB/core/usbd_core.c ****                     //*data = (uint8_t *)msosv1_desc->compat_id;
 1321              		.loc 1 834 21 is_stmt 1 view .LVU370
 834:CherryUSB/core/usbd_core.c ****                     //*data = (uint8_t *)msosv1_desc->compat_id;
 1322              		.loc 1 834 21 view .LVU371
 1323 004a 5948     		ldr	r0, .L111+16
 1324              	.LVL145:
 834:CherryUSB/core/usbd_core.c ****                     //*data = (uint8_t *)msosv1_desc->compat_id;
 1325              		.loc 1 834 21 is_stmt 0 view .LVU372
 1326 004c FFF7FEFF 		bl	printf
 1327              	.LVL146:
 834:CherryUSB/core/usbd_core.c ****                     //*data = (uint8_t *)msosv1_desc->compat_id;
 1328              		.loc 1 834 21 is_stmt 1 view .LVU373
 1329 0050 5848     		ldr	r0, .L111+20
 1330 0052 FFF7FEFF 		bl	puts
 1331              	.LVL147:
 834:CherryUSB/core/usbd_core.c ****                     //*data = (uint8_t *)msosv1_desc->compat_id;
 1332              		.loc 1 834 21 view .LVU374
 1333 0056 5548     		ldr	r0, .L111+12
 1334 0058 FFF7FEFF 		bl	printf
 1335              	.LVL148:
 834:CherryUSB/core/usbd_core.c ****                     //*data = (uint8_t *)msosv1_desc->compat_id;
 1336              		.loc 1 834 21 view .LVU375
 836:CherryUSB/core/usbd_core.c ****                               (g_usbd_core[busid].msosv1_desc->compat_id[1] << 8) +
 1337              		.loc 1 836 21 view .LVU376
 836:CherryUSB/core/usbd_core.c ****                               (g_usbd_core[busid].msosv1_desc->compat_id[1] << 8) +
 1338              		.loc 1 836 49 is_stmt 0 view .LVU377
 1339 005c 504B     		ldr	r3, .L111
 1340 005e 4FF4DA72 		mov	r2, #436
 1341 0062 02FB0535 		mla	r5, r2, r5, r3
 1342 0066 EB69     		ldr	r3, [r5, #28]
 836:CherryUSB/core/usbd_core.c ****                               (g_usbd_core[busid].msosv1_desc->compat_id[1] << 8) +
 1343              		.loc 1 836 61 view .LVU378
 1344 0068 9968     		ldr	r1, [r3, #8]
 836:CherryUSB/core/usbd_core.c ****                               (g_usbd_core[busid].msosv1_desc->compat_id[1] << 8) +
 1345              		.loc 1 836 72 view .LVU379
 1346 006a 0C78     		ldrb	r4, [r1]	@ zero_extendqisi2
 837:CherryUSB/core/usbd_core.c ****                               (g_usbd_core[busid].msosv1_desc->compat_id[2] << 16) +
 1347              		.loc 1 837 73 view .LVU380
 1348 006c 4B78     		ldrb	r3, [r1, #1]	@ zero_extendqisi2
 836:CherryUSB/core/usbd_core.c ****                               (g_usbd_core[busid].msosv1_desc->compat_id[1] << 8) +
 1349              		.loc 1 836 76 view .LVU381
 1350 006e 04EB0324 		add	r4, r4, r3, lsl #8
 838:CherryUSB/core/usbd_core.c ****                               (g_usbd_core[busid].msosv1_desc->compat_id[3] << 24);
 1351              		.loc 1 838 73 view .LVU382
 1352 0072 8B78     		ldrb	r3, [r1, #2]	@ zero_extendqisi2
ARM GAS  C:\Users\Jim_YW\AppData\Local\Temp\ccVYwxt0.s 			page 48


 837:CherryUSB/core/usbd_core.c ****                               (g_usbd_core[busid].msosv1_desc->compat_id[2] << 16) +
 1353              		.loc 1 837 83 view .LVU383
 1354 0074 04EB0344 		add	r4, r4, r3, lsl #16
 839:CherryUSB/core/usbd_core.c ****                     memcpy(*data, g_usbd_core[busid].msosv1_desc->compat_id, desclen);
 1355              		.loc 1 839 73 view .LVU384
 1356 0078 CB78     		ldrb	r3, [r1, #3]	@ zero_extendqisi2
 838:CherryUSB/core/usbd_core.c ****                               (g_usbd_core[busid].msosv1_desc->compat_id[3] << 24);
 1357              		.loc 1 838 84 view .LVU385
 1358 007a 04EB0364 		add	r4, r4, r3, lsl #24
 1359              	.LVL149:
 840:CherryUSB/core/usbd_core.c ****                     *len = desclen;
 1360              		.loc 1 840 21 is_stmt 1 view .LVU386
 1361 007e 2246     		mov	r2, r4
 1362 0080 3868     		ldr	r0, [r7]
 1363 0082 FFF7FEFF 		bl	memcpy
 1364              	.LVL150:
 841:CherryUSB/core/usbd_core.c ****                     return 0;
 1365              		.loc 1 841 21 view .LVU387
 841:CherryUSB/core/usbd_core.c ****                     return 0;
 1366              		.loc 1 841 26 is_stmt 0 view .LVU388
 1367 0086 C8F80040 		str	r4, [r8]
 842:CherryUSB/core/usbd_core.c ****                 case 0x05:
 1368              		.loc 1 842 21 is_stmt 1 view .LVU389
 842:CherryUSB/core/usbd_core.c ****                 case 0x05:
 1369              		.loc 1 842 28 is_stmt 0 view .LVU390
 1370 008a 0023     		movs	r3, #0
 1371 008c 85E0     		b	.L92
 1372              	.LVL151:
 1373              	.L96:
 844:CherryUSB/core/usbd_core.c ****                     //*data = (uint8_t *)msosv1_desc->comp_id_property[setup->wValue];
 1374              		.loc 1 844 21 is_stmt 1 view .LVU391
 844:CherryUSB/core/usbd_core.c ****                     //*data = (uint8_t *)msosv1_desc->comp_id_property[setup->wValue];
 1375              		.loc 1 844 21 view .LVU392
 1376 008e 4848     		ldr	r0, .L111+16
 1377              	.LVL152:
 844:CherryUSB/core/usbd_core.c ****                     //*data = (uint8_t *)msosv1_desc->comp_id_property[setup->wValue];
 1378              		.loc 1 844 21 is_stmt 0 view .LVU393
 1379 0090 FFF7FEFF 		bl	printf
 1380              	.LVL153:
 844:CherryUSB/core/usbd_core.c ****                     //*data = (uint8_t *)msosv1_desc->comp_id_property[setup->wValue];
 1381              		.loc 1 844 21 is_stmt 1 view .LVU394
 1382 0094 4848     		ldr	r0, .L111+24
 1383 0096 FFF7FEFF 		bl	puts
 1384              	.LVL154:
 844:CherryUSB/core/usbd_core.c ****                     //*data = (uint8_t *)msosv1_desc->comp_id_property[setup->wValue];
 1385              		.loc 1 844 21 view .LVU395
 1386 009a 4448     		ldr	r0, .L111+12
 1387 009c FFF7FEFF 		bl	printf
 1388              	.LVL155:
 844:CherryUSB/core/usbd_core.c ****                     //*data = (uint8_t *)msosv1_desc->comp_id_property[setup->wValue];
 1389              		.loc 1 844 21 view .LVU396
 846:CherryUSB/core/usbd_core.c ****                               (g_usbd_core[busid].msosv1_desc->comp_id_property[setup->wValue][1] <
 1390              		.loc 1 846 21 view .LVU397
 846:CherryUSB/core/usbd_core.c ****                               (g_usbd_core[busid].msosv1_desc->comp_id_property[setup->wValue][1] <
 1391              		.loc 1 846 49 is_stmt 0 view .LVU398
 1392 00a0 3F4B     		ldr	r3, .L111
 1393 00a2 4FF4DA72 		mov	r2, #436
ARM GAS  C:\Users\Jim_YW\AppData\Local\Temp\ccVYwxt0.s 			page 49


 1394 00a6 02FB0535 		mla	r5, r2, r5, r3
 1395 00aa EB69     		ldr	r3, [r5, #28]
 846:CherryUSB/core/usbd_core.c ****                               (g_usbd_core[busid].msosv1_desc->comp_id_property[setup->wValue][1] <
 1396              		.loc 1 846 61 view .LVU399
 1397 00ac DB68     		ldr	r3, [r3, #12]
 846:CherryUSB/core/usbd_core.c ****                               (g_usbd_core[busid].msosv1_desc->comp_id_property[setup->wValue][1] <
 1398              		.loc 1 846 85 view .LVU400
 1399 00ae 7288     		ldrh	r2, [r6, #2]	@ unaligned
 846:CherryUSB/core/usbd_core.c ****                               (g_usbd_core[busid].msosv1_desc->comp_id_property[setup->wValue][1] <
 1400              		.loc 1 846 79 view .LVU401
 1401 00b0 53F82210 		ldr	r1, [r3, r2, lsl #2]
 846:CherryUSB/core/usbd_core.c ****                               (g_usbd_core[busid].msosv1_desc->comp_id_property[setup->wValue][1] <
 1402              		.loc 1 846 94 view .LVU402
 1403 00b4 0C78     		ldrb	r4, [r1]	@ zero_extendqisi2
 847:CherryUSB/core/usbd_core.c ****                               (g_usbd_core[busid].msosv1_desc->comp_id_property[setup->wValue][2] <
 1404              		.loc 1 847 95 view .LVU403
 1405 00b6 4B78     		ldrb	r3, [r1, #1]	@ zero_extendqisi2
 846:CherryUSB/core/usbd_core.c ****                               (g_usbd_core[busid].msosv1_desc->comp_id_property[setup->wValue][1] <
 1406              		.loc 1 846 98 view .LVU404
 1407 00b8 04EB0324 		add	r4, r4, r3, lsl #8
 848:CherryUSB/core/usbd_core.c ****                               (g_usbd_core[busid].msosv1_desc->comp_id_property[setup->wValue][3] <
 1408              		.loc 1 848 95 view .LVU405
 1409 00bc 8B78     		ldrb	r3, [r1, #2]	@ zero_extendqisi2
 847:CherryUSB/core/usbd_core.c ****                               (g_usbd_core[busid].msosv1_desc->comp_id_property[setup->wValue][2] <
 1410              		.loc 1 847 105 view .LVU406
 1411 00be 04EB0344 		add	r4, r4, r3, lsl #16
 849:CherryUSB/core/usbd_core.c ****                     memcpy(*data, g_usbd_core[busid].msosv1_desc->comp_id_property[setup->wValue], 
 1412              		.loc 1 849 95 view .LVU407
 1413 00c2 CB78     		ldrb	r3, [r1, #3]	@ zero_extendqisi2
 848:CherryUSB/core/usbd_core.c ****                               (g_usbd_core[busid].msosv1_desc->comp_id_property[setup->wValue][3] <
 1414              		.loc 1 848 106 view .LVU408
 1415 00c4 04EB0364 		add	r4, r4, r3, lsl #24
 1416              	.LVL156:
 850:CherryUSB/core/usbd_core.c ****                     *len = desclen;
 1417              		.loc 1 850 21 is_stmt 1 view .LVU409
 1418 00c8 2246     		mov	r2, r4
 1419 00ca 3868     		ldr	r0, [r7]
 1420 00cc FFF7FEFF 		bl	memcpy
 1421              	.LVL157:
 851:CherryUSB/core/usbd_core.c ****                     return 0;
 1422              		.loc 1 851 21 view .LVU410
 851:CherryUSB/core/usbd_core.c ****                     return 0;
 1423              		.loc 1 851 26 is_stmt 0 view .LVU411
 1424 00d0 C8F80040 		str	r4, [r8]
 852:CherryUSB/core/usbd_core.c ****                 default:
 1425              		.loc 1 852 21 is_stmt 1 view .LVU412
 852:CherryUSB/core/usbd_core.c ****                 default:
 1426              		.loc 1 852 28 is_stmt 0 view .LVU413
 1427 00d4 0023     		movs	r3, #0
 1428 00d6 60E0     		b	.L92
 1429              	.LVL158:
 1430              	.L93:
 858:CherryUSB/core/usbd_core.c ****         if (setup->bRequest == g_usbd_core[busid].msosv2_desc->vendor_code) {
 1431              		.loc 1 858 12 is_stmt 1 view .LVU414
 858:CherryUSB/core/usbd_core.c ****         if (setup->bRequest == g_usbd_core[busid].msosv2_desc->vendor_code) {
 1432              		.loc 1 858 34 is_stmt 0 view .LVU415
 1433 00d8 314B     		ldr	r3, .L111
ARM GAS  C:\Users\Jim_YW\AppData\Local\Temp\ccVYwxt0.s 			page 50


 1434 00da 4FF4DA72 		mov	r2, #436
 1435 00de 02FB0033 		mla	r3, r2, r0, r3
 1436 00e2 1B6A     		ldr	r3, [r3, #32]
 858:CherryUSB/core/usbd_core.c ****         if (setup->bRequest == g_usbd_core[busid].msosv2_desc->vendor_code) {
 1437              		.loc 1 858 15 view .LVU416
 1438 00e4 002B     		cmp	r3, #0
 1439 00e6 54D0     		beq	.L104
 859:CherryUSB/core/usbd_core.c ****             switch (setup->wIndex) {
 1440              		.loc 1 859 9 is_stmt 1 view .LVU417
 859:CherryUSB/core/usbd_core.c ****             switch (setup->wIndex) {
 1441              		.loc 1 859 18 is_stmt 0 view .LVU418
 1442 00e8 4A78     		ldrb	r2, [r1, #1]	@ zero_extendqisi2
 859:CherryUSB/core/usbd_core.c ****             switch (setup->wIndex) {
 1443              		.loc 1 859 62 view .LVU419
 1444 00ea 9B79     		ldrb	r3, [r3, #6]	@ zero_extendqisi2
 859:CherryUSB/core/usbd_core.c ****             switch (setup->wIndex) {
 1445              		.loc 1 859 12 view .LVU420
 1446 00ec 9A42     		cmp	r2, r3
 1447 00ee 01D0     		beq	.L109
 1448 00f0 0024     		movs	r4, #0
 1449 00f2 2AE0     		b	.L101
 1450              	.L109:
 860:CherryUSB/core/usbd_core.c ****                 case WINUSB_REQUEST_GET_DESCRIPTOR_SET:
 1451              		.loc 1 860 13 is_stmt 1 view .LVU421
 860:CherryUSB/core/usbd_core.c ****                 case WINUSB_REQUEST_GET_DESCRIPTOR_SET:
 1452              		.loc 1 860 26 is_stmt 0 view .LVU422
 1453 00f4 8B88     		ldrh	r3, [r1, #4]	@ unaligned
 860:CherryUSB/core/usbd_core.c ****                 case WINUSB_REQUEST_GET_DESCRIPTOR_SET:
 1454              		.loc 1 860 13 view .LVU423
 1455 00f6 072B     		cmp	r3, #7
 1456 00f8 19D1     		bne	.L99
 862:CherryUSB/core/usbd_core.c ****                     //*data = (uint8_t *)msosv2_desc->compat_id;
 1457              		.loc 1 862 21 is_stmt 1 view .LVU424
 862:CherryUSB/core/usbd_core.c ****                     //*data = (uint8_t *)msosv2_desc->compat_id;
 1458              		.loc 1 862 21 view .LVU425
 1459 00fa 2D48     		ldr	r0, .L111+16
 1460              	.LVL159:
 862:CherryUSB/core/usbd_core.c ****                     //*data = (uint8_t *)msosv2_desc->compat_id;
 1461              		.loc 1 862 21 is_stmt 0 view .LVU426
 1462 00fc FFF7FEFF 		bl	printf
 1463              	.LVL160:
 862:CherryUSB/core/usbd_core.c ****                     //*data = (uint8_t *)msosv2_desc->compat_id;
 1464              		.loc 1 862 21 is_stmt 1 view .LVU427
 1465 0100 2E48     		ldr	r0, .L111+28
 1466 0102 FFF7FEFF 		bl	puts
 1467              	.LVL161:
 862:CherryUSB/core/usbd_core.c ****                     //*data = (uint8_t *)msosv2_desc->compat_id;
 1468              		.loc 1 862 21 view .LVU428
 1469 0106 2948     		ldr	r0, .L111+12
 1470 0108 FFF7FEFF 		bl	printf
 1471              	.LVL162:
 862:CherryUSB/core/usbd_core.c ****                     //*data = (uint8_t *)msosv2_desc->compat_id;
 1472              		.loc 1 862 21 view .LVU429
 864:CherryUSB/core/usbd_core.c ****                     *len = g_usbd_core[busid].msosv2_desc->compat_id_len;
 1473              		.loc 1 864 21 view .LVU430
 864:CherryUSB/core/usbd_core.c ****                     *len = g_usbd_core[busid].msosv2_desc->compat_id_len;
 1474              		.loc 1 864 53 is_stmt 0 view .LVU431
ARM GAS  C:\Users\Jim_YW\AppData\Local\Temp\ccVYwxt0.s 			page 51


 1475 010c 244B     		ldr	r3, .L111
 1476 010e 4FF4DA72 		mov	r2, #436
 1477 0112 02FB0535 		mla	r5, r2, r5, r3
 1478 0116 2B6A     		ldr	r3, [r5, #32]
 864:CherryUSB/core/usbd_core.c ****                     *len = g_usbd_core[busid].msosv2_desc->compat_id_len;
 1479              		.loc 1 864 21 view .LVU432
 1480 0118 9A88     		ldrh	r2, [r3, #4]
 1481 011a 1968     		ldr	r1, [r3]
 1482 011c 3868     		ldr	r0, [r7]
 1483 011e FFF7FEFF 		bl	memcpy
 1484              	.LVL163:
 865:CherryUSB/core/usbd_core.c ****                     return 0;
 1485              		.loc 1 865 21 is_stmt 1 view .LVU433
 865:CherryUSB/core/usbd_core.c ****                     return 0;
 1486              		.loc 1 865 46 is_stmt 0 view .LVU434
 1487 0122 2B6A     		ldr	r3, [r5, #32]
 865:CherryUSB/core/usbd_core.c ****                     return 0;
 1488              		.loc 1 865 58 view .LVU435
 1489 0124 9B88     		ldrh	r3, [r3, #4]
 865:CherryUSB/core/usbd_core.c ****                     return 0;
 1490              		.loc 1 865 26 view .LVU436
 1491 0126 C8F80030 		str	r3, [r8]
 866:CherryUSB/core/usbd_core.c ****                 default:
 1492              		.loc 1 866 21 is_stmt 1 view .LVU437
 866:CherryUSB/core/usbd_core.c ****                 default:
 1493              		.loc 1 866 28 is_stmt 0 view .LVU438
 1494 012a 0023     		movs	r3, #0
 1495 012c 35E0     		b	.L92
 1496              	.LVL164:
 1497              	.L99:
 868:CherryUSB/core/usbd_core.c ****                     return -1;
 1498              		.loc 1 868 21 is_stmt 1 view .LVU439
 868:CherryUSB/core/usbd_core.c ****                     return -1;
 1499              		.loc 1 868 21 view .LVU440
 1500 012e 1D48     		ldr	r0, .L111+4
 1501              	.LVL165:
 868:CherryUSB/core/usbd_core.c ****                     return -1;
 1502              		.loc 1 868 21 is_stmt 0 view .LVU441
 1503 0130 FFF7FEFF 		bl	printf
 1504              	.LVL166:
 868:CherryUSB/core/usbd_core.c ****                     return -1;
 1505              		.loc 1 868 21 is_stmt 1 view .LVU442
 1506 0134 1C48     		ldr	r0, .L111+8
 1507 0136 FFF7FEFF 		bl	puts
 1508              	.LVL167:
 868:CherryUSB/core/usbd_core.c ****                     return -1;
 1509              		.loc 1 868 21 view .LVU443
 1510 013a 1C48     		ldr	r0, .L111+12
 1511 013c FFF7FEFF 		bl	printf
 1512              	.LVL168:
 868:CherryUSB/core/usbd_core.c ****                     return -1;
 1513              		.loc 1 868 21 view .LVU444
 869:CherryUSB/core/usbd_core.c ****             }
 1514              		.loc 1 869 21 view .LVU445
 869:CherryUSB/core/usbd_core.c ****             }
 1515              		.loc 1 869 28 is_stmt 0 view .LVU446
 1516 0140 4FF0FF33 		mov	r3, #-1
ARM GAS  C:\Users\Jim_YW\AppData\Local\Temp\ccVYwxt0.s 			page 52


 1517 0144 29E0     		b	.L92
 1518              	.LVL169:
 1519              	.L100:
 1520              	.LBB11:
 874:CherryUSB/core/usbd_core.c ****         struct usbd_interface *intf = g_usbd_core[busid].intf[i];
 1521              		.loc 1 874 61 is_stmt 1 discriminator 2 view .LVU447
 874:CherryUSB/core/usbd_core.c ****         struct usbd_interface *intf = g_usbd_core[busid].intf[i];
 1522              		.loc 1 874 62 is_stmt 0 discriminator 2 view .LVU448
 1523 0146 0134     		adds	r4, r4, #1
 1524              	.LVL170:
 874:CherryUSB/core/usbd_core.c ****         struct usbd_interface *intf = g_usbd_core[busid].intf[i];
 1525              		.loc 1 874 62 discriminator 2 view .LVU449
 1526 0148 E4B2     		uxtb	r4, r4
 1527              	.LVL171:
 1528              	.L101:
 874:CherryUSB/core/usbd_core.c ****         struct usbd_interface *intf = g_usbd_core[busid].intf[i];
 1529              		.loc 1 874 25 is_stmt 1 discriminator 1 view .LVU450
 874:CherryUSB/core/usbd_core.c ****         struct usbd_interface *intf = g_usbd_core[busid].intf[i];
 1530              		.loc 1 874 47 is_stmt 0 discriminator 1 view .LVU451
 1531 014a 154B     		ldr	r3, .L111
 1532 014c 4FF4DA72 		mov	r2, #436
 1533 0150 02FB0533 		mla	r3, r2, r5, r3
 1534 0154 93F84C31 		ldrb	r3, [r3, #332]	@ zero_extendqisi2
 874:CherryUSB/core/usbd_core.c ****         struct usbd_interface *intf = g_usbd_core[busid].intf[i];
 1535              		.loc 1 874 5 discriminator 1 view .LVU452
 1536 0158 A342     		cmp	r3, r4
 1537 015a 1CD9     		bls	.L110
 1538              	.LBB12:
 875:CherryUSB/core/usbd_core.c **** 
 1539              		.loc 1 875 9 is_stmt 1 view .LVU453
 875:CherryUSB/core/usbd_core.c **** 
 1540              		.loc 1 875 32 is_stmt 0 view .LVU454
 1541 015c 4FF06D0C 		mov	ip, #109
 1542 0160 0CFB054C 		mla	ip, ip, r5, r4
 1543 0164 0CF14A0C 		add	ip, ip, #74
 1544 0168 0D4B     		ldr	r3, .L111
 1545 016a 03EB8C0C 		add	ip, r3, ip, lsl #2
 1546 016e DCF80430 		ldr	r3, [ip, #4]
 1547              	.LVL172:
 877:CherryUSB/core/usbd_core.c ****             return 0;
 1548              		.loc 1 877 9 is_stmt 1 view .LVU455
 877:CherryUSB/core/usbd_core.c ****             return 0;
 1549              		.loc 1 877 12 is_stmt 0 view .LVU456
 1550 0172 002B     		cmp	r3, #0
 1551 0174 E7D0     		beq	.L100
 877:CherryUSB/core/usbd_core.c ****             return 0;
 1552              		.loc 1 877 25 discriminator 1 view .LVU457
 1553 0176 D3F80890 		ldr	r9, [r3, #8]
 877:CherryUSB/core/usbd_core.c ****             return 0;
 1554              		.loc 1 877 18 discriminator 1 view .LVU458
 1555 017a B9F1000F 		cmp	r9, #0
 1556 017e E2D0     		beq	.L100
 877:CherryUSB/core/usbd_core.c ****             return 0;
 1557              		.loc 1 877 46 discriminator 2 view .LVU459
 1558 0180 4346     		mov	r3, r8
 1559              	.LVL173:
 877:CherryUSB/core/usbd_core.c ****             return 0;
ARM GAS  C:\Users\Jim_YW\AppData\Local\Temp\ccVYwxt0.s 			page 53


 1560              		.loc 1 877 46 discriminator 2 view .LVU460
 1561 0182 3A46     		mov	r2, r7
 1562 0184 3146     		mov	r1, r6
 1563 0186 2846     		mov	r0, r5
 1564 0188 C847     		blx	r9
 1565              	.LVL174:
 877:CherryUSB/core/usbd_core.c ****             return 0;
 1566              		.loc 1 877 42 discriminator 2 view .LVU461
 1567 018a 0346     		mov	r3, r0
 1568 018c 0028     		cmp	r0, #0
 1569 018e DAD1     		bne	.L100
 1570 0190 03E0     		b	.L92
 1571              	.LVL175:
 1572              	.L104:
 877:CherryUSB/core/usbd_core.c ****             return 0;
 1573              		.loc 1 877 42 discriminator 2 view .LVU462
 1574              	.LBE12:
 1575              	.LBE11:
 1576 0192 0024     		movs	r4, #0
 1577 0194 D9E7     		b	.L101
 1578              	.LVL176:
 1579              	.L110:
 882:CherryUSB/core/usbd_core.c **** }
 1580              		.loc 1 882 12 view .LVU463
 1581 0196 4FF0FF33 		mov	r3, #-1
 1582              	.LVL177:
 1583              	.L92:
 883:CherryUSB/core/usbd_core.c **** 
 1584              		.loc 1 883 1 view .LVU464
 1585 019a 1846     		mov	r0, r3
 1586 019c BDE8F883 		pop	{r3, r4, r5, r6, r7, r8, r9, pc}
 1587              	.LVL178:
 1588              	.L112:
 883:CherryUSB/core/usbd_core.c **** 
 1589              		.loc 1 883 1 view .LVU465
 1590              		.align	2
 1591              	.L111:
 1592 01a0 00000000 		.word	.LANCHOR0
 1593 01a4 40000000 		.word	.LC6
 1594 01a8 2C000000 		.word	.LC10
 1595 01ac 30000000 		.word	.LC2
 1596 01b0 00000000 		.word	.LC0
 1597 01b4 00000000 		.word	.LC8
 1598 01b8 10000000 		.word	.LC9
 1599 01bc 44000000 		.word	.LC11
 1600              		.cfi_endproc
 1601              	.LFE34:
 1603              		.section	.text.usbd_event_ep0_in_complete_handler,"ax",%progbits
 1604              		.align	1
 1605              		.global	usbd_event_ep0_in_complete_handler
 1606              		.syntax unified
 1607              		.thumb
 1608              		.thumb_func
 1610              	usbd_event_ep0_in_complete_handler:
 1611              	.LVL179:
 1612              	.LFB43:
 950:CherryUSB/core/usbd_core.c **** 
ARM GAS  C:\Users\Jim_YW\AppData\Local\Temp\ccVYwxt0.s 			page 54


 951:CherryUSB/core/usbd_core.c **** void usbd_event_connect_handler(uint8_t busid)
 952:CherryUSB/core/usbd_core.c **** {
 953:CherryUSB/core/usbd_core.c ****     g_usbd_core[busid].event_handler(busid, USBD_EVENT_CONNECTED);
 954:CherryUSB/core/usbd_core.c **** }
 955:CherryUSB/core/usbd_core.c **** 
 956:CherryUSB/core/usbd_core.c **** void usbd_event_disconnect_handler(uint8_t busid)
 957:CherryUSB/core/usbd_core.c **** {
 958:CherryUSB/core/usbd_core.c ****     g_usbd_core[busid].event_handler(busid, USBD_EVENT_DISCONNECTED);
 959:CherryUSB/core/usbd_core.c **** }
 960:CherryUSB/core/usbd_core.c **** 
 961:CherryUSB/core/usbd_core.c **** void usbd_event_resume_handler(uint8_t busid)
 962:CherryUSB/core/usbd_core.c **** {
 963:CherryUSB/core/usbd_core.c ****     g_usbd_core[busid].event_handler(busid, USBD_EVENT_RESUME);
 964:CherryUSB/core/usbd_core.c **** }
 965:CherryUSB/core/usbd_core.c **** 
 966:CherryUSB/core/usbd_core.c **** void usbd_event_suspend_handler(uint8_t busid)
 967:CherryUSB/core/usbd_core.c **** {
 968:CherryUSB/core/usbd_core.c ****     g_usbd_core[busid].event_handler(busid, USBD_EVENT_SUSPEND);
 969:CherryUSB/core/usbd_core.c **** }
 970:CherryUSB/core/usbd_core.c **** 
 971:CherryUSB/core/usbd_core.c **** void usbd_event_reset_handler(uint8_t busid)
 972:CherryUSB/core/usbd_core.c **** {
 973:CherryUSB/core/usbd_core.c ****     usbd_set_address(busid, 0);
 974:CherryUSB/core/usbd_core.c ****     g_usbd_core[busid].configuration = 0;
 975:CherryUSB/core/usbd_core.c ****     struct usb_endpoint_descriptor ep0;
 976:CherryUSB/core/usbd_core.c **** 
 977:CherryUSB/core/usbd_core.c ****     ep0.bLength = 7;
 978:CherryUSB/core/usbd_core.c ****     ep0.bDescriptorType = USB_DESCRIPTOR_TYPE_ENDPOINT;
 979:CherryUSB/core/usbd_core.c ****     ep0.wMaxPacketSize = USB_CTRL_EP_MPS;
 980:CherryUSB/core/usbd_core.c ****     ep0.bmAttributes = USB_ENDPOINT_TYPE_CONTROL;
 981:CherryUSB/core/usbd_core.c ****     ep0.bEndpointAddress = USB_CONTROL_IN_EP0;
 982:CherryUSB/core/usbd_core.c ****     ep0.bInterval = 0;
 983:CherryUSB/core/usbd_core.c ****     usbd_ep_open(busid, &ep0);
 984:CherryUSB/core/usbd_core.c **** 
 985:CherryUSB/core/usbd_core.c ****     ep0.bEndpointAddress = USB_CONTROL_OUT_EP0;
 986:CherryUSB/core/usbd_core.c ****     usbd_ep_open(busid, &ep0);
 987:CherryUSB/core/usbd_core.c **** 
 988:CherryUSB/core/usbd_core.c ****     usbd_class_event_notify_handler(busid, USBD_EVENT_RESET, NULL);
 989:CherryUSB/core/usbd_core.c ****     g_usbd_core[busid].event_handler(busid, USBD_EVENT_RESET);
 990:CherryUSB/core/usbd_core.c **** }
 991:CherryUSB/core/usbd_core.c **** 
 992:CherryUSB/core/usbd_core.c **** void usbd_event_ep0_setup_complete_handler(uint8_t busid, uint8_t *psetup)
 993:CherryUSB/core/usbd_core.c **** {
 994:CherryUSB/core/usbd_core.c ****     struct usb_setup_packet *setup = &g_usbd_core[busid].setup;
 995:CherryUSB/core/usbd_core.c **** 
 996:CherryUSB/core/usbd_core.c ****     memcpy(setup, psetup, 8);
 997:CherryUSB/core/usbd_core.c **** #ifdef CONFIG_USBDEV_SETUP_LOG_PRINT
 998:CherryUSB/core/usbd_core.c ****     usbd_print_setup(setup);
 999:CherryUSB/core/usbd_core.c **** #endif
1000:CherryUSB/core/usbd_core.c ****     if (setup->wLength > CONFIG_USBDEV_REQUEST_BUFFER_LEN) {
1001:CherryUSB/core/usbd_core.c ****         if ((setup->bmRequestType & USB_REQUEST_DIR_MASK) == USB_REQUEST_DIR_OUT) {
1002:CherryUSB/core/usbd_core.c ****             USB_LOG_ERR("Request buffer too small\r\n");
1003:CherryUSB/core/usbd_core.c ****             usbd_ep_set_stall(busid, USB_CONTROL_IN_EP0);
1004:CherryUSB/core/usbd_core.c ****             return;
1005:CherryUSB/core/usbd_core.c ****         }
1006:CherryUSB/core/usbd_core.c ****     }
1007:CherryUSB/core/usbd_core.c **** 
ARM GAS  C:\Users\Jim_YW\AppData\Local\Temp\ccVYwxt0.s 			page 55


1008:CherryUSB/core/usbd_core.c ****     g_usbd_core[busid].ep0_data_buf = g_usbd_core[busid].req_data;
1009:CherryUSB/core/usbd_core.c ****     g_usbd_core[busid].ep0_data_buf_residue = setup->wLength;
1010:CherryUSB/core/usbd_core.c ****     g_usbd_core[busid].ep0_data_buf_len = setup->wLength;
1011:CherryUSB/core/usbd_core.c ****     g_usbd_core[busid].zlp_flag = false;
1012:CherryUSB/core/usbd_core.c **** 
1013:CherryUSB/core/usbd_core.c ****     /* handle class request when all the data is received */
1014:CherryUSB/core/usbd_core.c ****     if (setup->wLength && ((setup->bmRequestType & USB_REQUEST_DIR_MASK) == USB_REQUEST_DIR_OUT)) {
1015:CherryUSB/core/usbd_core.c ****         USB_LOG_DBG("Start reading %d bytes from ep0\r\n", setup->wLength);
1016:CherryUSB/core/usbd_core.c ****         usbd_ep_start_read(busid, USB_CONTROL_OUT_EP0, g_usbd_core[busid].ep0_data_buf, setup->wLen
1017:CherryUSB/core/usbd_core.c ****         return;
1018:CherryUSB/core/usbd_core.c ****     }
1019:CherryUSB/core/usbd_core.c **** 
1020:CherryUSB/core/usbd_core.c ****     /* Ask installed handler to process request */
1021:CherryUSB/core/usbd_core.c ****     if (!usbd_setup_request_handler(busid, setup, &g_usbd_core[busid].ep0_data_buf, &g_usbd_core[bu
1022:CherryUSB/core/usbd_core.c ****         usbd_ep_set_stall(busid, USB_CONTROL_IN_EP0);
1023:CherryUSB/core/usbd_core.c ****         return;
1024:CherryUSB/core/usbd_core.c ****     }
1025:CherryUSB/core/usbd_core.c **** 
1026:CherryUSB/core/usbd_core.c ****     /* Send smallest of requested and offered length */
1027:CherryUSB/core/usbd_core.c ****     g_usbd_core[busid].ep0_data_buf_residue = MIN(g_usbd_core[busid].ep0_data_buf_len, setup->wLeng
1028:CherryUSB/core/usbd_core.c ****     if (g_usbd_core[busid].ep0_data_buf_residue > CONFIG_USBDEV_REQUEST_BUFFER_LEN) {
1029:CherryUSB/core/usbd_core.c ****         USB_LOG_ERR("Request buffer too small\r\n");
1030:CherryUSB/core/usbd_core.c ****         return;
1031:CherryUSB/core/usbd_core.c ****     }
1032:CherryUSB/core/usbd_core.c **** 
1033:CherryUSB/core/usbd_core.c ****     /* Send data or status to host */
1034:CherryUSB/core/usbd_core.c ****     usbd_ep_start_write(busid, USB_CONTROL_IN_EP0, g_usbd_core[busid].ep0_data_buf, g_usbd_core[bus
1035:CherryUSB/core/usbd_core.c ****     /*
1036:CherryUSB/core/usbd_core.c ****     * Set ZLP flag when host asks for a bigger length and the data size is
1037:CherryUSB/core/usbd_core.c ****     * multiplier of USB_CTRL_EP_MPS, to indicate the transfer done after zlp
1038:CherryUSB/core/usbd_core.c ****     * sent.
1039:CherryUSB/core/usbd_core.c ****     */
1040:CherryUSB/core/usbd_core.c ****     if ((setup->wLength > g_usbd_core[busid].ep0_data_buf_len) && (!(g_usbd_core[busid].ep0_data_bu
1041:CherryUSB/core/usbd_core.c ****         g_usbd_core[busid].zlp_flag = true;
1042:CherryUSB/core/usbd_core.c ****         USB_LOG_DBG("EP0 Set zlp\r\n");
1043:CherryUSB/core/usbd_core.c ****     }
1044:CherryUSB/core/usbd_core.c **** }
1045:CherryUSB/core/usbd_core.c **** 
1046:CherryUSB/core/usbd_core.c **** void usbd_event_ep0_in_complete_handler(uint8_t busid, uint8_t ep, uint32_t nbytes)
1047:CherryUSB/core/usbd_core.c **** {
 1613              		.loc 1 1047 1 is_stmt 1 view -0
 1614              		.cfi_startproc
 1615              		@ args = 0, pretend = 0, frame = 0
 1616              		@ frame_needed = 0, uses_anonymous_args = 0
 1617              		.loc 1 1047 1 is_stmt 0 view .LVU467
 1618 0000 08B5     		push	{r3, lr}
 1619              	.LCFI10:
 1620              		.cfi_def_cfa_offset 8
 1621              		.cfi_offset 3, -8
 1622              		.cfi_offset 14, -4
 1623 0002 9446     		mov	ip, r2
1048:CherryUSB/core/usbd_core.c ****     struct usb_setup_packet *setup = &g_usbd_core[busid].setup;
 1624              		.loc 1 1048 5 is_stmt 1 view .LVU468
 1625              	.LVL180:
1049:CherryUSB/core/usbd_core.c **** 
1050:CherryUSB/core/usbd_core.c ****     g_usbd_core[busid].ep0_data_buf += nbytes;
 1626              		.loc 1 1050 5 view .LVU469
ARM GAS  C:\Users\Jim_YW\AppData\Local\Temp\ccVYwxt0.s 			page 56


 1627              		.loc 1 1050 37 is_stmt 0 view .LVU470
 1628 0004 1A49     		ldr	r1, .L120
 1629              	.LVL181:
 1630              		.loc 1 1050 37 view .LVU471
 1631 0006 4FF4DA73 		mov	r3, #436
 1632 000a 03FB0011 		mla	r1, r3, r0, r1
 1633 000e 8A68     		ldr	r2, [r1, #8]
 1634              	.LVL182:
 1635              		.loc 1 1050 37 view .LVU472
 1636 0010 6244     		add	r2, r2, ip
 1637 0012 8A60     		str	r2, [r1, #8]
1051:CherryUSB/core/usbd_core.c ****     g_usbd_core[busid].ep0_data_buf_residue -= nbytes;
 1638              		.loc 1 1051 5 is_stmt 1 view .LVU473
 1639              		.loc 1 1051 45 is_stmt 0 view .LVU474
 1640 0014 CB68     		ldr	r3, [r1, #12]
 1641 0016 A3EB0C03 		sub	r3, r3, ip
 1642 001a CB60     		str	r3, [r1, #12]
1052:CherryUSB/core/usbd_core.c **** 
1053:CherryUSB/core/usbd_core.c ****     USB_LOG_DBG("EP0 send %d bytes, %d remained\r\n", nbytes, g_usbd_core[busid].ep0_data_buf_resid
 1643              		.loc 1 1053 5 is_stmt 1 view .LVU475
 1644              		.loc 1 1053 103 view .LVU476
1054:CherryUSB/core/usbd_core.c **** 
1055:CherryUSB/core/usbd_core.c ****     if (g_usbd_core[busid].ep0_data_buf_residue != 0) {
 1645              		.loc 1 1055 5 view .LVU477
 1646              		.loc 1 1055 8 is_stmt 0 view .LVU478
 1647 001c D3B9     		cbnz	r3, .L118
1056:CherryUSB/core/usbd_core.c ****         /* Start sending the remain data */
1057:CherryUSB/core/usbd_core.c ****         usbd_ep_start_write(busid, USB_CONTROL_IN_EP0, g_usbd_core[busid].ep0_data_buf, g_usbd_core
1058:CherryUSB/core/usbd_core.c ****     } else {
1059:CherryUSB/core/usbd_core.c ****         if (g_usbd_core[busid].zlp_flag == true) {
 1648              		.loc 1 1059 9 is_stmt 1 view .LVU479
 1649              		.loc 1 1059 31 is_stmt 0 view .LVU480
 1650 001e 144B     		ldr	r3, .L120
 1651 0020 4FF4DA72 		mov	r2, #436
 1652 0024 02FB0033 		mla	r3, r2, r0, r3
 1653 0028 1B7D     		ldrb	r3, [r3, #20]	@ zero_extendqisi2
 1654              		.loc 1 1059 12 view .LVU481
 1655 002a BBB9     		cbnz	r3, .L119
1060:CherryUSB/core/usbd_core.c ****             g_usbd_core[busid].zlp_flag = false;
1061:CherryUSB/core/usbd_core.c ****             /* Send zlp to host */
1062:CherryUSB/core/usbd_core.c ****             USB_LOG_DBG("EP0 Send zlp\r\n");
1063:CherryUSB/core/usbd_core.c ****             usbd_ep_start_write(busid, USB_CONTROL_IN_EP0, NULL, 0);
1064:CherryUSB/core/usbd_core.c ****         } else {
1065:CherryUSB/core/usbd_core.c ****             /* Satisfying three conditions will jump here.
1066:CherryUSB/core/usbd_core.c ****                 * 1. send status completely
1067:CherryUSB/core/usbd_core.c ****                 * 2. send zlp completely
1068:CherryUSB/core/usbd_core.c ****                 * 3. send last data completely.
1069:CherryUSB/core/usbd_core.c ****                 */
1070:CherryUSB/core/usbd_core.c ****             if (setup->wLength && ((setup->bmRequestType & USB_REQUEST_DIR_MASK) == USB_REQUEST_DIR
 1656              		.loc 1 1070 13 is_stmt 1 view .LVU482
 1657              		.loc 1 1070 22 is_stmt 0 view .LVU483
 1658 002c 104B     		ldr	r3, .L120
 1659 002e 4FF4DA72 		mov	r2, #436
 1660 0032 02FB0033 		mla	r3, r2, r0, r3
 1661 0036 DB88     		ldrh	r3, [r3, #6]
 1662              		.loc 1 1070 16 view .LVU484
 1663 0038 7BB1     		cbz	r3, .L113
ARM GAS  C:\Users\Jim_YW\AppData\Local\Temp\ccVYwxt0.s 			page 57


 1664              		.loc 1 1070 42 discriminator 1 view .LVU485
 1665 003a 1346     		mov	r3, r2
 1666 003c 00FB03F3 		mul	r3, r0, r3
 1667              		.loc 1 1070 82 discriminator 1 view .LVU486
 1668 0040 0B4A     		ldr	r2, .L120
 1669 0042 D356     		ldrsb	r3, [r2, r3]
 1670              		.loc 1 1070 32 discriminator 1 view .LVU487
 1671 0044 002B     		cmp	r3, #0
 1672 0046 08DA     		bge	.L113
1071:CherryUSB/core/usbd_core.c ****                 /* if all data has sent completely, start reading out status */
1072:CherryUSB/core/usbd_core.c ****                 usbd_ep_start_read(busid, USB_CONTROL_OUT_EP0, NULL, 0);
 1673              		.loc 1 1072 17 is_stmt 1 view .LVU488
 1674 0048 0023     		movs	r3, #0
 1675 004a 1A46     		mov	r2, r3
 1676 004c 1946     		mov	r1, r3
 1677 004e FFF7FEFF 		bl	usbd_ep_start_read
 1678              	.LVL183:
1073:CherryUSB/core/usbd_core.c ****             }
1074:CherryUSB/core/usbd_core.c **** 
1075:CherryUSB/core/usbd_core.c **** #ifdef CONFIG_USBDEV_TEST_MODE
1076:CherryUSB/core/usbd_core.c ****             if (g_usbd_core[busid].test_req) {
1077:CherryUSB/core/usbd_core.c ****                 usbd_execute_test_mode(busid, HI_BYTE(setup->wIndex));
1078:CherryUSB/core/usbd_core.c ****                 g_usbd_core[busid].test_req = false;
1079:CherryUSB/core/usbd_core.c ****             }
1080:CherryUSB/core/usbd_core.c **** #endif
1081:CherryUSB/core/usbd_core.c ****         }
1082:CherryUSB/core/usbd_core.c ****     }
1083:CherryUSB/core/usbd_core.c **** }
 1679              		.loc 1 1083 1 is_stmt 0 view .LVU489
 1680 0052 02E0     		b	.L113
 1681              	.LVL184:
 1682              	.L118:
1057:CherryUSB/core/usbd_core.c ****     } else {
 1683              		.loc 1 1057 9 is_stmt 1 view .LVU490
 1684 0054 8021     		movs	r1, #128
 1685 0056 FFF7FEFF 		bl	usbd_ep_start_write
 1686              	.LVL185:
 1687              	.L113:
 1688              		.loc 1 1083 1 is_stmt 0 view .LVU491
 1689 005a 08BD     		pop	{r3, pc}
 1690              	.LVL186:
 1691              	.L119:
1060:CherryUSB/core/usbd_core.c ****             /* Send zlp to host */
 1692              		.loc 1 1060 13 is_stmt 1 view .LVU492
1060:CherryUSB/core/usbd_core.c ****             /* Send zlp to host */
 1693              		.loc 1 1060 41 is_stmt 0 view .LVU493
 1694 005c 044B     		ldr	r3, .L120
 1695 005e 02FB0033 		mla	r3, r2, r0, r3
 1696 0062 0022     		movs	r2, #0
 1697 0064 1A75     		strb	r2, [r3, #20]
1062:CherryUSB/core/usbd_core.c ****             usbd_ep_start_write(busid, USB_CONTROL_IN_EP0, NULL, 0);
 1698              		.loc 1 1062 13 is_stmt 1 view .LVU494
1062:CherryUSB/core/usbd_core.c ****             usbd_ep_start_write(busid, USB_CONTROL_IN_EP0, NULL, 0);
 1699              		.loc 1 1062 44 view .LVU495
1063:CherryUSB/core/usbd_core.c ****         } else {
 1700              		.loc 1 1063 13 view .LVU496
 1701 0066 1346     		mov	r3, r2
ARM GAS  C:\Users\Jim_YW\AppData\Local\Temp\ccVYwxt0.s 			page 58


 1702 0068 8021     		movs	r1, #128
 1703 006a FFF7FEFF 		bl	usbd_ep_start_write
 1704              	.LVL187:
1063:CherryUSB/core/usbd_core.c ****         } else {
 1705              		.loc 1 1063 13 is_stmt 0 view .LVU497
 1706 006e F4E7     		b	.L113
 1707              	.L121:
 1708              		.align	2
 1709              	.L120:
 1710 0070 00000000 		.word	.LANCHOR0
 1711              		.cfi_endproc
 1712              	.LFE43:
 1714              		.section	.rodata.usbd_reset_endpoint.str1.4,"aMS",%progbits,1
 1715              		.align	2
 1716              	.LC12:
 1717 0000 436C6F73 		.ascii	"Close ep:0x%02x type:%u\015\012\000"
 1717      65206570 
 1717      3A307825 
 1717      30327820 
 1717      74797065 
 1718              		.section	.text.usbd_reset_endpoint,"ax",%progbits
 1719              		.align	1
 1720              		.syntax unified
 1721              		.thumb
 1722              		.thumb_func
 1724              	usbd_reset_endpoint:
 1725              	.LVL188:
 1726              	.LFB25:
 115:CherryUSB/core/usbd_core.c ****     USB_LOG_INFO("Close ep:0x%02x type:%u\r\n",
 1727              		.loc 1 115 1 is_stmt 1 view -0
 1728              		.cfi_startproc
 1729              		@ args = 0, pretend = 0, frame = 0
 1730              		@ frame_needed = 0, uses_anonymous_args = 0
 115:CherryUSB/core/usbd_core.c ****     USB_LOG_INFO("Close ep:0x%02x type:%u\r\n",
 1731              		.loc 1 115 1 is_stmt 0 view .LVU499
 1732 0000 38B5     		push	{r3, r4, r5, lr}
 1733              	.LCFI11:
 1734              		.cfi_def_cfa_offset 16
 1735              		.cfi_offset 3, -16
 1736              		.cfi_offset 4, -12
 1737              		.cfi_offset 5, -8
 1738              		.cfi_offset 14, -4
 1739 0002 0546     		mov	r5, r0
 1740 0004 0C46     		mov	r4, r1
 116:CherryUSB/core/usbd_core.c ****                  ep->bEndpointAddress,
 1741              		.loc 1 116 5 is_stmt 1 view .LVU500
 116:CherryUSB/core/usbd_core.c ****                  ep->bEndpointAddress,
 1742              		.loc 1 116 5 view .LVU501
 1743 0006 0A48     		ldr	r0, .L124
 1744              	.LVL189:
 116:CherryUSB/core/usbd_core.c ****                  ep->bEndpointAddress,
 1745              		.loc 1 116 5 is_stmt 0 view .LVU502
 1746 0008 FFF7FEFF 		bl	printf
 1747              	.LVL190:
 116:CherryUSB/core/usbd_core.c ****                  ep->bEndpointAddress,
 1748              		.loc 1 116 5 is_stmt 1 view .LVU503
 1749 000c E278     		ldrb	r2, [r4, #3]	@ zero_extendqisi2
ARM GAS  C:\Users\Jim_YW\AppData\Local\Temp\ccVYwxt0.s 			page 59


 1750 000e 02F00302 		and	r2, r2, #3
 1751 0012 A178     		ldrb	r1, [r4, #2]	@ zero_extendqisi2
 1752 0014 0748     		ldr	r0, .L124+4
 1753 0016 FFF7FEFF 		bl	printf
 1754              	.LVL191:
 116:CherryUSB/core/usbd_core.c ****                  ep->bEndpointAddress,
 1755              		.loc 1 116 5 view .LVU504
 1756 001a 0748     		ldr	r0, .L124+8
 1757 001c FFF7FEFF 		bl	printf
 1758              	.LVL192:
 116:CherryUSB/core/usbd_core.c ****                  ep->bEndpointAddress,
 1759              		.loc 1 116 5 view .LVU505
 120:CherryUSB/core/usbd_core.c **** }
 1760              		.loc 1 120 5 view .LVU506
 120:CherryUSB/core/usbd_core.c **** }
 1761              		.loc 1 120 12 is_stmt 0 view .LVU507
 1762 0020 A178     		ldrb	r1, [r4, #2]	@ zero_extendqisi2
 1763 0022 2846     		mov	r0, r5
 1764 0024 FFF7FEFF 		bl	usbd_ep_close
 1765              	.LVL193:
 121:CherryUSB/core/usbd_core.c **** 
 1766              		.loc 1 121 1 view .LVU508
 1767 0028 B0FA80F0 		clz	r0, r0
 1768 002c 4009     		lsrs	r0, r0, #5
 1769 002e 38BD     		pop	{r3, r4, r5, pc}
 1770              	.LVL194:
 1771              	.L125:
 121:CherryUSB/core/usbd_core.c **** 
 1772              		.loc 1 121 1 view .LVU509
 1773              		.align	2
 1774              	.L124:
 1775 0030 00000000 		.word	.LC0
 1776 0034 00000000 		.word	.LC12
 1777 0038 30000000 		.word	.LC2
 1778              		.cfi_endproc
 1779              	.LFE25:
 1781              		.section	.text.usbd_set_interface,"ax",%progbits
 1782              		.align	1
 1783              		.syntax unified
 1784              		.thumb
 1785              		.thumb_func
 1787              	usbd_set_interface:
 1788              	.LVL195:
 1789              	.LFB28:
 398:CherryUSB/core/usbd_core.c ****     const uint8_t *if_desc = NULL;
 1790              		.loc 1 398 1 is_stmt 1 view -0
 1791              		.cfi_startproc
 1792              		@ args = 0, pretend = 0, frame = 8
 1793              		@ frame_needed = 0, uses_anonymous_args = 0
 398:CherryUSB/core/usbd_core.c ****     const uint8_t *if_desc = NULL;
 1794              		.loc 1 398 1 is_stmt 0 view .LVU511
 1795 0000 2DE9F04F 		push	{r4, r5, r6, r7, r8, r9, r10, fp, lr}
 1796              	.LCFI12:
 1797              		.cfi_def_cfa_offset 36
 1798              		.cfi_offset 4, -36
 1799              		.cfi_offset 5, -32
 1800              		.cfi_offset 6, -28
ARM GAS  C:\Users\Jim_YW\AppData\Local\Temp\ccVYwxt0.s 			page 60


 1801              		.cfi_offset 7, -24
 1802              		.cfi_offset 8, -20
 1803              		.cfi_offset 9, -16
 1804              		.cfi_offset 10, -12
 1805              		.cfi_offset 11, -8
 1806              		.cfi_offset 14, -4
 1807 0004 83B0     		sub	sp, sp, #12
 1808              	.LCFI13:
 1809              		.cfi_def_cfa_offset 48
 1810 0006 8146     		mov	r9, r0
 1811 0008 8846     		mov	r8, r1
 1812 000a 9346     		mov	fp, r2
 399:CherryUSB/core/usbd_core.c ****     struct usb_endpoint_descriptor *ep_desc;
 1813              		.loc 1 399 5 is_stmt 1 view .LVU512
 1814              	.LVL196:
 400:CherryUSB/core/usbd_core.c ****     uint8_t cur_alt_setting = 0xFF;
 1815              		.loc 1 400 5 view .LVU513
 401:CherryUSB/core/usbd_core.c ****     uint8_t cur_iface = 0xFF;
 1816              		.loc 1 401 5 view .LVU514
 402:CherryUSB/core/usbd_core.c ****     bool ret = false;
 1817              		.loc 1 402 5 view .LVU515
 403:CherryUSB/core/usbd_core.c ****     const uint8_t *p;
 1818              		.loc 1 403 5 view .LVU516
 404:CherryUSB/core/usbd_core.c ****     uint32_t desc_len = 0;
 1819              		.loc 1 404 5 view .LVU517
 405:CherryUSB/core/usbd_core.c ****     uint32_t current_desc_len = 0;
 1820              		.loc 1 405 5 view .LVU518
 406:CherryUSB/core/usbd_core.c **** 
 1821              		.loc 1 406 5 view .LVU519
 411:CherryUSB/core/usbd_core.c **** #endif
 1822              		.loc 1 411 5 view .LVU520
 411:CherryUSB/core/usbd_core.c **** #endif
 1823              		.loc 1 411 7 is_stmt 0 view .LVU521
 1824 000c 224B     		ldr	r3, .L137
 1825 000e 4FF4DA72 		mov	r2, #436
 1826              	.LVL197:
 411:CherryUSB/core/usbd_core.c **** #endif
 1827              		.loc 1 411 7 view .LVU522
 1828 0012 02FB0033 		mla	r3, r2, r0, r3
 1829 0016 9C69     		ldr	r4, [r3, #24]
 1830              	.LVL198:
 413:CherryUSB/core/usbd_core.c **** 
 1831              		.loc 1 413 5 is_stmt 1 view .LVU523
 413:CherryUSB/core/usbd_core.c **** 
 1832              		.loc 1 413 67 view .LVU524
 415:CherryUSB/core/usbd_core.c ****         switch (p[DESC_bDescriptorType]) {
 1833              		.loc 1 415 5 view .LVU525
 406:CherryUSB/core/usbd_core.c **** 
 1834              		.loc 1 406 14 is_stmt 0 view .LVU526
 1835 0018 0025     		movs	r5, #0
 405:CherryUSB/core/usbd_core.c ****     uint32_t current_desc_len = 0;
 1836              		.loc 1 405 14 view .LVU527
 1837 001a 2E46     		mov	r6, r5
 403:CherryUSB/core/usbd_core.c ****     const uint8_t *p;
 1838              		.loc 1 403 10 view .LVU528
 1839 001c 0095     		str	r5, [sp]
 402:CherryUSB/core/usbd_core.c ****     bool ret = false;
ARM GAS  C:\Users\Jim_YW\AppData\Local\Temp\ccVYwxt0.s 			page 61


 1840              		.loc 1 402 13 view .LVU529
 1841 001e FF27     		movs	r7, #255
 401:CherryUSB/core/usbd_core.c ****     uint8_t cur_iface = 0xFF;
 1842              		.loc 1 401 13 view .LVU530
 1843 0020 BA46     		mov	r10, r7
 399:CherryUSB/core/usbd_core.c ****     struct usb_endpoint_descriptor *ep_desc;
 1844              		.loc 1 399 20 view .LVU531
 1845 0022 0195     		str	r5, [sp, #4]
 1846              	.LVL199:
 1847              	.L127:
 415:CherryUSB/core/usbd_core.c ****         switch (p[DESC_bDescriptorType]) {
 1848              		.loc 1 415 11 is_stmt 1 view .LVU532
 415:CherryUSB/core/usbd_core.c ****         switch (p[DESC_bDescriptorType]) {
 1849              		.loc 1 415 13 is_stmt 0 view .LVU533
 1850 0024 2378     		ldrb	r3, [r4]	@ zero_extendqisi2
 415:CherryUSB/core/usbd_core.c ****         switch (p[DESC_bDescriptorType]) {
 1851              		.loc 1 415 11 view .LVU534
 1852 0026 73B1     		cbz	r3, .L132
 416:CherryUSB/core/usbd_core.c ****             case USB_DESCRIPTOR_TYPE_CONFIGURATION:
 1853              		.loc 1 416 9 is_stmt 1 view .LVU535
 416:CherryUSB/core/usbd_core.c ****             case USB_DESCRIPTOR_TYPE_CONFIGURATION:
 1854              		.loc 1 416 18 is_stmt 0 view .LVU536
 1855 0028 6378     		ldrb	r3, [r4, #1]	@ zero_extendqisi2
 416:CherryUSB/core/usbd_core.c ****             case USB_DESCRIPTOR_TYPE_CONFIGURATION:
 1856              		.loc 1 416 9 view .LVU537
 1857 002a 042B     		cmp	r3, #4
 1858 002c 1AD0     		beq	.L128
 1859 002e 052B     		cmp	r3, #5
 1860 0030 21D0     		beq	.L129
 1861 0032 022B     		cmp	r3, #2
 1862 0034 10D0     		beq	.L136
 1863              	.LVL200:
 1864              	.L130:
 456:CherryUSB/core/usbd_core.c ****         current_desc_len += p[DESC_bLength];
 1865              		.loc 1 456 9 is_stmt 1 view .LVU538
 456:CherryUSB/core/usbd_core.c ****         current_desc_len += p[DESC_bLength];
 1866              		.loc 1 456 15 is_stmt 0 view .LVU539
 1867 0036 2378     		ldrb	r3, [r4]	@ zero_extendqisi2
 456:CherryUSB/core/usbd_core.c ****         current_desc_len += p[DESC_bLength];
 1868              		.loc 1 456 11 view .LVU540
 1869 0038 1C44     		add	r4, r4, r3
 1870              	.LVL201:
 457:CherryUSB/core/usbd_core.c ****         if (current_desc_len >= desc_len && desc_len) {
 1871              		.loc 1 457 9 is_stmt 1 view .LVU541
 457:CherryUSB/core/usbd_core.c ****         if (current_desc_len >= desc_len && desc_len) {
 1872              		.loc 1 457 30 is_stmt 0 view .LVU542
 1873 003a 2378     		ldrb	r3, [r4]	@ zero_extendqisi2
 457:CherryUSB/core/usbd_core.c ****         if (current_desc_len >= desc_len && desc_len) {
 1874              		.loc 1 457 26 view .LVU543
 1875 003c 1D44     		add	r5, r5, r3
 1876              	.LVL202:
 458:CherryUSB/core/usbd_core.c ****             break;
 1877              		.loc 1 458 9 is_stmt 1 view .LVU544
 458:CherryUSB/core/usbd_core.c ****             break;
 1878              		.loc 1 458 12 is_stmt 0 view .LVU545
 1879 003e AE42     		cmp	r6, r5
 1880 0040 F0D8     		bhi	.L127
ARM GAS  C:\Users\Jim_YW\AppData\Local\Temp\ccVYwxt0.s 			page 62


 458:CherryUSB/core/usbd_core.c ****             break;
 1881              		.loc 1 458 42 discriminator 1 view .LVU546
 1882 0042 002E     		cmp	r6, #0
 1883 0044 EED0     		beq	.L127
 1884              	.L132:
 463:CherryUSB/core/usbd_core.c **** 
 1885              		.loc 1 463 5 is_stmt 1 view .LVU547
 1886 0046 019A     		ldr	r2, [sp, #4]
 1887 0048 0821     		movs	r1, #8
 1888 004a 4846     		mov	r0, r9
 1889 004c FFF7FEFF 		bl	usbd_class_event_notify_handler
 1890              	.LVL203:
 465:CherryUSB/core/usbd_core.c **** }
 1891              		.loc 1 465 5 view .LVU548
 466:CherryUSB/core/usbd_core.c **** 
 1892              		.loc 1 466 1 is_stmt 0 view .LVU549
 1893 0050 0098     		ldr	r0, [sp]
 1894 0052 03B0     		add	sp, sp, #12
 1895              	.LCFI14:
 1896              		.cfi_remember_state
 1897              		.cfi_def_cfa_offset 36
 1898              	.LVL204:
 466:CherryUSB/core/usbd_core.c **** 
 1899              		.loc 1 466 1 view .LVU550
 1900              		@ sp needed
 1901 0054 BDE8F08F 		pop	{r4, r5, r6, r7, r8, r9, r10, fp, pc}
 1902              	.LVL205:
 1903              	.L136:
 1904              	.LCFI15:
 1905              		.cfi_restore_state
 418:CherryUSB/core/usbd_core.c ****                 desc_len = (p[CONF_DESC_wTotalLength]) |
 1906              		.loc 1 418 17 is_stmt 1 view .LVU551
 419:CherryUSB/core/usbd_core.c ****                            (p[CONF_DESC_wTotalLength + 1] << 8);
 1907              		.loc 1 419 17 view .LVU552
 419:CherryUSB/core/usbd_core.c ****                            (p[CONF_DESC_wTotalLength + 1] << 8);
 1908              		.loc 1 419 30 is_stmt 0 view .LVU553
 1909 0058 A678     		ldrb	r6, [r4, #2]	@ zero_extendqisi2
 1910              	.LVL206:
 420:CherryUSB/core/usbd_core.c **** 
 1911              		.loc 1 420 30 view .LVU554
 1912 005a E378     		ldrb	r3, [r4, #3]	@ zero_extendqisi2
 419:CherryUSB/core/usbd_core.c ****                            (p[CONF_DESC_wTotalLength + 1] << 8);
 1913              		.loc 1 419 56 view .LVU555
 1914 005c 46EA0326 		orr	r6, r6, r3, lsl #8
 1915              	.LVL207:
 422:CherryUSB/core/usbd_core.c **** 
 1916              		.loc 1 422 17 is_stmt 1 view .LVU556
 418:CherryUSB/core/usbd_core.c ****                 desc_len = (p[CONF_DESC_wTotalLength]) |
 1917              		.loc 1 418 34 is_stmt 0 view .LVU557
 1918 0060 0025     		movs	r5, #0
 422:CherryUSB/core/usbd_core.c **** 
 1919              		.loc 1 422 17 view .LVU558
 1920 0062 E8E7     		b	.L130
 1921              	.LVL208:
 1922              	.L128:
 426:CherryUSB/core/usbd_core.c ****                 cur_iface = p[INTF_DESC_bInterfaceNumber];
 1923              		.loc 1 426 17 is_stmt 1 view .LVU559
ARM GAS  C:\Users\Jim_YW\AppData\Local\Temp\ccVYwxt0.s 			page 63


 426:CherryUSB/core/usbd_core.c ****                 cur_iface = p[INTF_DESC_bInterfaceNumber];
 1924              		.loc 1 426 33 is_stmt 0 view .LVU560
 1925 0064 94F803A0 		ldrb	r10, [r4, #3]	@ zero_extendqisi2
 1926              	.LVL209:
 427:CherryUSB/core/usbd_core.c **** 
 1927              		.loc 1 427 17 is_stmt 1 view .LVU561
 427:CherryUSB/core/usbd_core.c **** 
 1928              		.loc 1 427 27 is_stmt 0 view .LVU562
 1929 0068 A778     		ldrb	r7, [r4, #2]	@ zero_extendqisi2
 1930              	.LVL210:
 429:CherryUSB/core/usbd_core.c ****                     cur_alt_setting == alt_setting) {
 1931              		.loc 1 429 17 is_stmt 1 view .LVU563
 429:CherryUSB/core/usbd_core.c ****                     cur_alt_setting == alt_setting) {
 1932              		.loc 1 429 20 is_stmt 0 view .LVU564
 1933 006a B845     		cmp	r8, r7
 1934 006c E3D1     		bne	.L130
 429:CherryUSB/core/usbd_core.c ****                     cur_alt_setting == alt_setting) {
 1935              		.loc 1 429 40 discriminator 1 view .LVU565
 1936 006e D345     		cmp	fp, r10
 1937 0070 E1D1     		bne	.L130
 431:CherryUSB/core/usbd_core.c ****                 }
 1938              		.loc 1 431 29 view .LVU566
 1939 0072 0194     		str	r4, [sp, #4]
 1940              	.LVL211:
 431:CherryUSB/core/usbd_core.c ****                 }
 1941              		.loc 1 431 29 view .LVU567
 1942 0074 DFE7     		b	.L130
 1943              	.LVL212:
 1944              	.L129:
 439:CherryUSB/core/usbd_core.c ****                     ep_desc = (struct usb_endpoint_descriptor *)p;
 1945              		.loc 1 439 17 is_stmt 1 view .LVU568
 439:CherryUSB/core/usbd_core.c ****                     ep_desc = (struct usb_endpoint_descriptor *)p;
 1946              		.loc 1 439 20 is_stmt 0 view .LVU569
 1947 0076 4745     		cmp	r7, r8
 1948 0078 DDD1     		bne	.L130
 440:CherryUSB/core/usbd_core.c **** 
 1949              		.loc 1 440 21 is_stmt 1 view .LVU570
 1950              	.LVL213:
 442:CherryUSB/core/usbd_core.c ****                         ret = usbd_reset_endpoint(busid, ep_desc);
 1951              		.loc 1 442 21 view .LVU571
 442:CherryUSB/core/usbd_core.c ****                         ret = usbd_reset_endpoint(busid, ep_desc);
 1952              		.loc 1 442 24 is_stmt 0 view .LVU572
 1953 007a DA45     		cmp	r10, fp
 1954 007c 05D0     		beq	.L131
 443:CherryUSB/core/usbd_core.c ****                     } else {
