ARM GAS  C:\Users\Jim_YW\AppData\Local\Temp\ccsjj2uj.s 			page 1


   1              		.cpu cortex-m4
   2              		.arch armv7e-m
   3              		.fpu fpv4-sp-d16
   4              		.eabi_attribute 27, 1
   5              		.eabi_attribute 28, 1
   6              		.eabi_attribute 20, 1
   7              		.eabi_attribute 21, 1
   8              		.eabi_attribute 23, 3
   9              		.eabi_attribute 24, 1
  10              		.eabi_attribute 25, 1
  11              		.eabi_attribute 26, 1
  12              		.eabi_attribute 30, 1
  13              		.eabi_attribute 34, 1
  14              		.eabi_attribute 18, 4
  15              		.file	"stmflash.c"
  16              		.text
  17              	.Ltext0:
  18              		.cfi_sections	.debug_frame
  19              		.section	.text.STMFLASH_ReadWord,"ax",%progbits
  20              		.align	1
  21              		.global	STMFLASH_ReadWord
  22              		.syntax unified
  23              		.thumb
  24              		.thumb_func
  26              	STMFLASH_ReadWord:
  27              	.LVL0:
  28              	.LFB130:
  29              		.file 1 "Code/stmflash.c"
   1:Code/stmflash.c **** #include "stmflash.h"
   2:Code/stmflash.c **** // #include "delay.h"
   3:Code/stmflash.c **** 
   4:Code/stmflash.c **** 
   5:Code/stmflash.c **** uint32_t STMFLASH_ReadWord(uint32_t faddr)
   6:Code/stmflash.c **** {
  30              		.loc 1 6 1 view -0
  31              		.cfi_startproc
  32              		@ args = 0, pretend = 0, frame = 0
  33              		@ frame_needed = 0, uses_anonymous_args = 0
  34              		@ link register save eliminated.
   7:Code/stmflash.c **** 	return *(volatile uint32_t*)faddr; 
  35              		.loc 1 7 2 view .LVU1
  36              		.loc 1 7 9 is_stmt 0 view .LVU2
  37 0000 0068     		ldr	r0, [r0]
  38              	.LVL1:
   8:Code/stmflash.c **** }
  39              		.loc 1 8 1 view .LVU3
  40 0002 7047     		bx	lr
  41              		.cfi_endproc
  42              	.LFE130:
  44              		.section	.text.STMFLASH_GetFlashSector,"ax",%progbits
  45              		.align	1
  46              		.global	STMFLASH_GetFlashSector
  47              		.syntax unified
  48              		.thumb
  49              		.thumb_func
  51              	STMFLASH_GetFlashSector:
  52              	.LVL2:
ARM GAS  C:\Users\Jim_YW\AppData\Local\Temp\ccsjj2uj.s 			page 2


  53              	.LFB131:
   9:Code/stmflash.c **** 
  10:Code/stmflash.c **** //获取某个地址所在的flash扇区
  11:Code/stmflash.c **** //addr:flash地址
  12:Code/stmflash.c **** //返回值:0~11,即addr所在的扇区
  13:Code/stmflash.c **** uint8_t STMFLASH_GetFlashSector(uint32_t addr)
  14:Code/stmflash.c **** {
  54              		.loc 1 14 1 is_stmt 1 view -0
  55              		.cfi_startproc
  56              		@ args = 0, pretend = 0, frame = 0
  57              		@ frame_needed = 0, uses_anonymous_args = 0
  58              		@ link register save eliminated.
  15:Code/stmflash.c **** 	if(addr<ADDR_FLASH_SECTOR_1)return FLASH_SECTOR_0;
  59              		.loc 1 15 2 view .LVU5
  60              		.loc 1 15 4 is_stmt 0 view .LVU6
  61 0000 204B     		ldr	r3, .L15
  62 0002 9842     		cmp	r0, r3
  63 0004 28D3     		bcc	.L4
  16:Code/stmflash.c **** 	else if(addr<ADDR_FLASH_SECTOR_2)return FLASH_SECTOR_1;
  64              		.loc 1 16 7 is_stmt 1 view .LVU7
  65              		.loc 1 16 9 is_stmt 0 view .LVU8
  66 0006 03F58043 		add	r3, r3, #16384
  67 000a 9842     		cmp	r0, r3
  68 000c 26D3     		bcc	.L5
  17:Code/stmflash.c **** 	else if(addr<ADDR_FLASH_SECTOR_3)return FLASH_SECTOR_2;
  69              		.loc 1 17 7 is_stmt 1 view .LVU9
  70              		.loc 1 17 9 is_stmt 0 view .LVU10
  71 000e 03F58043 		add	r3, r3, #16384
  72 0012 9842     		cmp	r0, r3
  73 0014 24D3     		bcc	.L6
  18:Code/stmflash.c **** 	else if(addr<ADDR_FLASH_SECTOR_4)return FLASH_SECTOR_3;
  74              		.loc 1 18 7 is_stmt 1 view .LVU11
  75              		.loc 1 18 9 is_stmt 0 view .LVU12
  76 0016 1C4B     		ldr	r3, .L15+4
  77 0018 9842     		cmp	r0, r3
  78 001a 23D9     		bls	.L7
  19:Code/stmflash.c **** 	else if(addr<ADDR_FLASH_SECTOR_5)return FLASH_SECTOR_4;
  79              		.loc 1 19 7 is_stmt 1 view .LVU13
  80              		.loc 1 19 9 is_stmt 0 view .LVU14
  81 001c 03F58033 		add	r3, r3, #65536
  82 0020 9842     		cmp	r0, r3
  83 0022 21D9     		bls	.L8
  20:Code/stmflash.c **** 	else if(addr<ADDR_FLASH_SECTOR_6)return FLASH_SECTOR_5;
  84              		.loc 1 20 7 is_stmt 1 view .LVU15
  85              		.loc 1 20 9 is_stmt 0 view .LVU16
  86 0024 03F50033 		add	r3, r3, #131072
  87 0028 9842     		cmp	r0, r3
  88 002a 1FD9     		bls	.L9
  21:Code/stmflash.c **** 	else if(addr<ADDR_FLASH_SECTOR_7)return FLASH_SECTOR_6;
  89              		.loc 1 21 7 is_stmt 1 view .LVU17
  90              		.loc 1 21 9 is_stmt 0 view .LVU18
  91 002c 03F50033 		add	r3, r3, #131072
  92 0030 9842     		cmp	r0, r3
  93 0032 1DD9     		bls	.L10
  22:Code/stmflash.c **** 	else if(addr<ADDR_FLASH_SECTOR_8)return FLASH_SECTOR_7;
  94              		.loc 1 22 7 is_stmt 1 view .LVU19
  95              		.loc 1 22 9 is_stmt 0 view .LVU20
ARM GAS  C:\Users\Jim_YW\AppData\Local\Temp\ccsjj2uj.s 			page 3


  96 0034 03F50033 		add	r3, r3, #131072
  97 0038 9842     		cmp	r0, r3
  98 003a 1BD9     		bls	.L11
  23:Code/stmflash.c **** 	else if(addr<ADDR_FLASH_SECTOR_9)return FLASH_SECTOR_8;
  99              		.loc 1 23 7 is_stmt 1 view .LVU21
 100              		.loc 1 23 9 is_stmt 0 view .LVU22
 101 003c 03F50033 		add	r3, r3, #131072
 102 0040 9842     		cmp	r0, r3
 103 0042 19D9     		bls	.L12
  24:Code/stmflash.c **** 	else if(addr<ADDR_FLASH_SECTOR_10)return FLASH_SECTOR_9;
 104              		.loc 1 24 7 is_stmt 1 view .LVU23
 105              		.loc 1 24 9 is_stmt 0 view .LVU24
 106 0044 03F50033 		add	r3, r3, #131072
 107 0048 9842     		cmp	r0, r3
 108 004a 17D9     		bls	.L13
  25:Code/stmflash.c **** 	else if(addr<ADDR_FLASH_SECTOR_11)return FLASH_SECTOR_10;   
 109              		.loc 1 25 7 is_stmt 1 view .LVU25
 110              		.loc 1 25 9 is_stmt 0 view .LVU26
 111 004c 03F50033 		add	r3, r3, #131072
 112 0050 9842     		cmp	r0, r3
 113 0052 15D9     		bls	.L14
  26:Code/stmflash.c **** 	return FLASH_SECTOR_11;	
 114              		.loc 1 26 9 view .LVU27
 115 0054 0B20     		movs	r0, #11
 116              	.LVL3:
 117              		.loc 1 26 9 view .LVU28
 118 0056 7047     		bx	lr
 119              	.LVL4:
 120              	.L4:
  15:Code/stmflash.c **** 	else if(addr<ADDR_FLASH_SECTOR_2)return FLASH_SECTOR_1;
 121              		.loc 1 15 37 view .LVU29
 122 0058 0020     		movs	r0, #0
 123              	.LVL5:
  15:Code/stmflash.c **** 	else if(addr<ADDR_FLASH_SECTOR_2)return FLASH_SECTOR_1;
 124              		.loc 1 15 37 view .LVU30
 125 005a 7047     		bx	lr
 126              	.LVL6:
 127              	.L5:
  16:Code/stmflash.c **** 	else if(addr<ADDR_FLASH_SECTOR_3)return FLASH_SECTOR_2;
 128              		.loc 1 16 42 view .LVU31
 129 005c 0120     		movs	r0, #1
 130              	.LVL7:
  16:Code/stmflash.c **** 	else if(addr<ADDR_FLASH_SECTOR_3)return FLASH_SECTOR_2;
 131              		.loc 1 16 42 view .LVU32
 132 005e 7047     		bx	lr
 133              	.LVL8:
 134              	.L6:
  17:Code/stmflash.c **** 	else if(addr<ADDR_FLASH_SECTOR_4)return FLASH_SECTOR_3;
 135              		.loc 1 17 42 view .LVU33
 136 0060 0220     		movs	r0, #2
 137              	.LVL9:
  17:Code/stmflash.c **** 	else if(addr<ADDR_FLASH_SECTOR_4)return FLASH_SECTOR_3;
 138              		.loc 1 17 42 view .LVU34
 139 0062 7047     		bx	lr
 140              	.LVL10:
 141              	.L7:
  18:Code/stmflash.c **** 	else if(addr<ADDR_FLASH_SECTOR_5)return FLASH_SECTOR_4;
ARM GAS  C:\Users\Jim_YW\AppData\Local\Temp\ccsjj2uj.s 			page 4


 142              		.loc 1 18 42 view .LVU35
 143 0064 0320     		movs	r0, #3
 144              	.LVL11:
  18:Code/stmflash.c **** 	else if(addr<ADDR_FLASH_SECTOR_5)return FLASH_SECTOR_4;
 145              		.loc 1 18 42 view .LVU36
 146 0066 7047     		bx	lr
 147              	.LVL12:
 148              	.L8:
  19:Code/stmflash.c **** 	else if(addr<ADDR_FLASH_SECTOR_6)return FLASH_SECTOR_5;
 149              		.loc 1 19 42 view .LVU37
 150 0068 0420     		movs	r0, #4
 151              	.LVL13:
  19:Code/stmflash.c **** 	else if(addr<ADDR_FLASH_SECTOR_6)return FLASH_SECTOR_5;
 152              		.loc 1 19 42 view .LVU38
 153 006a 7047     		bx	lr
 154              	.LVL14:
 155              	.L9:
  20:Code/stmflash.c **** 	else if(addr<ADDR_FLASH_SECTOR_7)return FLASH_SECTOR_6;
 156              		.loc 1 20 42 view .LVU39
 157 006c 0520     		movs	r0, #5
 158              	.LVL15:
  20:Code/stmflash.c **** 	else if(addr<ADDR_FLASH_SECTOR_7)return FLASH_SECTOR_6;
 159              		.loc 1 20 42 view .LVU40
 160 006e 7047     		bx	lr
 161              	.LVL16:
 162              	.L10:
  21:Code/stmflash.c **** 	else if(addr<ADDR_FLASH_SECTOR_8)return FLASH_SECTOR_7;
 163              		.loc 1 21 42 view .LVU41
 164 0070 0620     		movs	r0, #6
 165              	.LVL17:
  21:Code/stmflash.c **** 	else if(addr<ADDR_FLASH_SECTOR_8)return FLASH_SECTOR_7;
 166              		.loc 1 21 42 view .LVU42
 167 0072 7047     		bx	lr
 168              	.LVL18:
 169              	.L11:
  22:Code/stmflash.c **** 	else if(addr<ADDR_FLASH_SECTOR_9)return FLASH_SECTOR_8;
 170              		.loc 1 22 42 view .LVU43
 171 0074 0720     		movs	r0, #7
 172              	.LVL19:
  22:Code/stmflash.c **** 	else if(addr<ADDR_FLASH_SECTOR_9)return FLASH_SECTOR_8;
 173              		.loc 1 22 42 view .LVU44
 174 0076 7047     		bx	lr
 175              	.LVL20:
 176              	.L12:
  23:Code/stmflash.c **** 	else if(addr<ADDR_FLASH_SECTOR_10)return FLASH_SECTOR_9;
 177              		.loc 1 23 42 view .LVU45
 178 0078 0820     		movs	r0, #8
 179              	.LVL21:
  23:Code/stmflash.c **** 	else if(addr<ADDR_FLASH_SECTOR_10)return FLASH_SECTOR_9;
 180              		.loc 1 23 42 view .LVU46
 181 007a 7047     		bx	lr
 182              	.LVL22:
 183              	.L13:
  24:Code/stmflash.c **** 	else if(addr<ADDR_FLASH_SECTOR_11)return FLASH_SECTOR_10;   
 184              		.loc 1 24 43 view .LVU47
 185 007c 0920     		movs	r0, #9
 186              	.LVL23:
ARM GAS  C:\Users\Jim_YW\AppData\Local\Temp\ccsjj2uj.s 			page 5


  24:Code/stmflash.c **** 	else if(addr<ADDR_FLASH_SECTOR_11)return FLASH_SECTOR_10;   
 187              		.loc 1 24 43 view .LVU48
 188 007e 7047     		bx	lr
 189              	.LVL24:
 190              	.L14:
  25:Code/stmflash.c **** 	return FLASH_SECTOR_11;	
 191              		.loc 1 25 43 view .LVU49
 192 0080 0A20     		movs	r0, #10
 193              	.LVL25:
  27:Code/stmflash.c **** }
 194              		.loc 1 27 1 view .LVU50
 195 0082 7047     		bx	lr
 196              	.L16:
 197              		.align	2
 198              	.L15:
 199 0084 00400008 		.word	134234112
 200 0088 FFFF0008 		.word	134283263
 201              		.cfi_endproc
 202              	.LFE131:
 204              		.section	.text.STMFLASH_Write,"ax",%progbits
 205              		.align	1
 206              		.global	STMFLASH_Write
 207              		.syntax unified
 208              		.thumb
 209              		.thumb_func
 211              	STMFLASH_Write:
 212              	.LVL26:
 213              	.LFB132:
  28:Code/stmflash.c **** 
  29:Code/stmflash.c **** //从指定地址开始写入指定长度的数据
  30:Code/stmflash.c **** //特别注意:因为STM32F4的扇区实在太大,没办法本地保存扇区数据,所以本函数
  31:Code/stmflash.c **** //         写地址如果非0XFF,那么会先擦除整个扇区且不保存扇区数据.所以
  32:Code/stmflash.c **** //         写非0XFF的地址,将导致整个扇区数据丢失.建议写之前确保扇区里
  33:Code/stmflash.c **** //         没有重要数据,最好是整个扇区先擦除了,然后慢慢往后写. 
  34:Code/stmflash.c **** //该函数对OTP区域也有效!可以用来写OTP区!
  35:Code/stmflash.c **** //OTP区域地址范围:0X1FFF7800~0X1FFF7A0F(注意：最后16字节，用于OTP数据块锁定，
  36:Code/stmflash.c **** //WriteAddr:起始地址(此地址必须为4的倍数!!)
  37:Code/stmflash.c **** //pBuffer:数据指针
  38:Code/stmflash.c **** //NumToWrite:字(32位)数(就是要写入的32位数据的个数.) 
  39:Code/stmflash.c **** void STMFLASH_Write(uint32_t WriteAddr,uint32_t *pBuffer,uint32_t NumToWrite)	
  40:Code/stmflash.c **** { 
 214              		.loc 1 40 1 is_stmt 1 view -0
 215              		.cfi_startproc
 216              		@ args = 0, pretend = 0, frame = 24
 217              		@ frame_needed = 0, uses_anonymous_args = 0
 218              		.loc 1 40 1 is_stmt 0 view .LVU52
 219 0000 F0B5     		push	{r4, r5, r6, r7, lr}
 220              	.LCFI0:
 221              		.cfi_def_cfa_offset 20
 222              		.cfi_offset 4, -20
 223              		.cfi_offset 5, -16
 224              		.cfi_offset 6, -12
 225              		.cfi_offset 7, -8
 226              		.cfi_offset 14, -4
 227 0002 87B0     		sub	sp, sp, #28
 228              	.LCFI1:
 229              		.cfi_def_cfa_offset 48
ARM GAS  C:\Users\Jim_YW\AppData\Local\Temp\ccsjj2uj.s 			page 6


  41:Code/stmflash.c **** 	FLASH_EraseInitTypeDef FlashEraseInit;
 230              		.loc 1 41 2 is_stmt 1 view .LVU53
  42:Code/stmflash.c **** 	HAL_StatusTypeDef FlashStatus=HAL_OK;
 231              		.loc 1 42 2 view .LVU54
 232              	.LVL27:
  43:Code/stmflash.c **** 	uint32_t SectorError=0;
 233              		.loc 1 43 2 view .LVU55
 234              		.loc 1 43 11 is_stmt 0 view .LVU56
 235 0004 0023     		movs	r3, #0
 236 0006 0093     		str	r3, [sp]
  44:Code/stmflash.c **** 	uint32_t addrx=0;
 237              		.loc 1 44 2 is_stmt 1 view .LVU57
 238              	.LVL28:
  45:Code/stmflash.c **** 	uint32_t endaddr=0;	
 239              		.loc 1 45 2 view .LVU58
  46:Code/stmflash.c **** 	if(WriteAddr<STM32_FLASH_BASE||WriteAddr%4)return;	//非法地址
 240              		.loc 1 46 2 view .LVU59
 241              		.loc 1 46 4 is_stmt 0 view .LVU60
 242 0008 B0F1006F 		cmp	r0, #134217728
 243 000c 05D3     		bcc	.L17
 244 000e 0446     		mov	r4, r0
 245 0010 0F46     		mov	r7, r1
 246 0012 1546     		mov	r5, r2
 247              		.loc 1 46 31 discriminator 2 view .LVU61
 248 0014 10F0030F 		tst	r0, #3
 249 0018 01D0     		beq	.L31
 250              	.LVL29:
 251              	.L17:
  47:Code/stmflash.c ****     
  48:Code/stmflash.c **** 	HAL_FLASH_Unlock();             //解锁	
  49:Code/stmflash.c **** 	addrx=WriteAddr;				//写入的起始地址
  50:Code/stmflash.c **** 	endaddr=WriteAddr+NumToWrite*4;	//写入的结束地址
  51:Code/stmflash.c ****     
  52:Code/stmflash.c **** 	if(addrx<0X1FFF0000)
  53:Code/stmflash.c **** 	{
  54:Code/stmflash.c **** 		while(addrx<endaddr)		//扫清一切障碍.(对非FFFFFFFF的地方,先擦除)
  55:Code/stmflash.c **** 		{
  56:Code/stmflash.c **** 			 if(STMFLASH_ReadWord(addrx)!=0XFFFFFFFF)//有非0XFFFFFFFF的地方,要擦除这个扇区
  57:Code/stmflash.c **** 			{   
  58:Code/stmflash.c **** 				FlashEraseInit.TypeErase=FLASH_TYPEERASE_SECTORS;       //擦除类型，扇区擦除 
  59:Code/stmflash.c **** 				FlashEraseInit.Sector=STMFLASH_GetFlashSector(addrx);   //要擦除的扇区
  60:Code/stmflash.c **** 				FlashEraseInit.NbSectors=1;                             //一次只擦除一个扇区
  61:Code/stmflash.c **** 				FlashEraseInit.VoltageRange=FLASH_VOLTAGE_RANGE_3;      //电压范围，VCC=2.7~3.6V之间!!
  62:Code/stmflash.c **** 				if(HAL_FLASHEx_Erase(&FlashEraseInit,&SectorError)!=HAL_OK) 
  63:Code/stmflash.c **** 				{
  64:Code/stmflash.c **** 					break;//发生错误了	
  65:Code/stmflash.c **** 				}
  66:Code/stmflash.c **** 				}else addrx+=4;
  67:Code/stmflash.c **** 				FLASH_WaitForLastOperation(FLASH_WAITETIME);                //等待上次操作完成
  68:Code/stmflash.c **** 		}
  69:Code/stmflash.c **** 	}
  70:Code/stmflash.c **** 	FlashStatus=FLASH_WaitForLastOperation(FLASH_WAITETIME);            //等待上次操作完成
  71:Code/stmflash.c **** 	if(FlashStatus==HAL_OK)
  72:Code/stmflash.c **** 	{
  73:Code/stmflash.c **** 		 while(WriteAddr<endaddr)//写数据
  74:Code/stmflash.c **** 		 {
  75:Code/stmflash.c **** 			if(HAL_FLASH_Program(FLASH_TYPEPROGRAM_WORD,WriteAddr,*pBuffer)!=HAL_OK)//写入数据
ARM GAS  C:\Users\Jim_YW\AppData\Local\Temp\ccsjj2uj.s 			page 7


  76:Code/stmflash.c **** 			{ 
  77:Code/stmflash.c **** 				break;	//写入异常
  78:Code/stmflash.c **** 			}
  79:Code/stmflash.c **** 			WriteAddr+=4;
  80:Code/stmflash.c **** 			pBuffer++;
  81:Code/stmflash.c **** 		}  
  82:Code/stmflash.c **** 	}
  83:Code/stmflash.c **** 	HAL_FLASH_Lock();           //上锁
  84:Code/stmflash.c **** } 
 252              		.loc 1 84 1 view .LVU62
 253 001a 07B0     		add	sp, sp, #28
 254              	.LCFI2:
 255              		.cfi_remember_state
 256              		.cfi_def_cfa_offset 20
 257              		@ sp needed
 258 001c F0BD     		pop	{r4, r5, r6, r7, pc}
 259              	.LVL30:
 260              	.L31:
 261              	.LCFI3:
 262              		.cfi_restore_state
  48:Code/stmflash.c **** 	addrx=WriteAddr;				//写入的起始地址
 263              		.loc 1 48 2 is_stmt 1 view .LVU63
 264 001e FFF7FEFF 		bl	HAL_FLASH_Unlock
 265              	.LVL31:
  49:Code/stmflash.c **** 	endaddr=WriteAddr+NumToWrite*4;	//写入的结束地址
 266              		.loc 1 49 2 view .LVU64
  50:Code/stmflash.c ****     
 267              		.loc 1 50 2 view .LVU65
  50:Code/stmflash.c ****     
 268              		.loc 1 50 9 is_stmt 0 view .LVU66
 269 0022 04EB8505 		add	r5, r4, r5, lsl #2
 270              	.LVL32:
  52:Code/stmflash.c **** 	{
 271              		.loc 1 52 2 is_stmt 1 view .LVU67
  52:Code/stmflash.c **** 	{
 272              		.loc 1 52 4 is_stmt 0 view .LVU68
 273 0026 1C4B     		ldr	r3, .L33
 274 0028 9C42     		cmp	r4, r3
 275 002a 25D9     		bls	.L29
 276              	.LVL33:
 277              	.L22:
  70:Code/stmflash.c **** 	if(FlashStatus==HAL_OK)
 278              		.loc 1 70 2 is_stmt 1 view .LVU69
  70:Code/stmflash.c **** 	if(FlashStatus==HAL_OK)
 279              		.loc 1 70 14 is_stmt 0 view .LVU70
 280 002c 4CF25030 		movw	r0, #50000
 281 0030 FFF7FEFF 		bl	FLASH_WaitForLastOperation
 282              	.LVL34:
  71:Code/stmflash.c **** 	{
 283              		.loc 1 71 2 is_stmt 1 view .LVU71
  71:Code/stmflash.c **** 	{
 284              		.loc 1 71 4 is_stmt 0 view .LVU72
 285 0034 10B3     		cbz	r0, .L26
 286              	.LVL35:
 287              	.L27:
  83:Code/stmflash.c **** } 
 288              		.loc 1 83 2 is_stmt 1 view .LVU73
ARM GAS  C:\Users\Jim_YW\AppData\Local\Temp\ccsjj2uj.s 			page 8


 289 0036 FFF7FEFF 		bl	HAL_FLASH_Lock
 290              	.LVL36:
 291 003a EEE7     		b	.L17
 292              	.LVL37:
 293              	.L32:
  58:Code/stmflash.c **** 				FlashEraseInit.Sector=STMFLASH_GetFlashSector(addrx);   //要擦除的扇区
 294              		.loc 1 58 5 view .LVU74
  58:Code/stmflash.c **** 				FlashEraseInit.Sector=STMFLASH_GetFlashSector(addrx);   //要擦除的扇区
 295              		.loc 1 58 29 is_stmt 0 view .LVU75
 296 003c 0023     		movs	r3, #0
 297 003e 0193     		str	r3, [sp, #4]
  59:Code/stmflash.c **** 				FlashEraseInit.NbSectors=1;                             //一次只擦除一个扇区
 298              		.loc 1 59 5 is_stmt 1 view .LVU76
  59:Code/stmflash.c **** 				FlashEraseInit.NbSectors=1;                             //一次只擦除一个扇区
 299              		.loc 1 59 27 is_stmt 0 view .LVU77
 300 0040 3046     		mov	r0, r6
 301 0042 FFF7FEFF 		bl	STMFLASH_GetFlashSector
 302              	.LVL38:
  59:Code/stmflash.c **** 				FlashEraseInit.NbSectors=1;                             //一次只擦除一个扇区
 303              		.loc 1 59 26 view .LVU78
 304 0046 0390     		str	r0, [sp, #12]
  60:Code/stmflash.c **** 				FlashEraseInit.VoltageRange=FLASH_VOLTAGE_RANGE_3;      //电压范围，VCC=2.7~3.6V之间!!
 305              		.loc 1 60 5 is_stmt 1 view .LVU79
  60:Code/stmflash.c **** 				FlashEraseInit.VoltageRange=FLASH_VOLTAGE_RANGE_3;      //电压范围，VCC=2.7~3.6V之间!!
 306              		.loc 1 60 29 is_stmt 0 view .LVU80
 307 0048 0123     		movs	r3, #1
 308 004a 0493     		str	r3, [sp, #16]
  61:Code/stmflash.c **** 				if(HAL_FLASHEx_Erase(&FlashEraseInit,&SectorError)!=HAL_OK) 
 309              		.loc 1 61 5 is_stmt 1 view .LVU81
  61:Code/stmflash.c **** 				if(HAL_FLASHEx_Erase(&FlashEraseInit,&SectorError)!=HAL_OK) 
 310              		.loc 1 61 32 is_stmt 0 view .LVU82
 311 004c 0223     		movs	r3, #2
 312 004e 0593     		str	r3, [sp, #20]
  62:Code/stmflash.c **** 				{
 313              		.loc 1 62 5 is_stmt 1 view .LVU83
  62:Code/stmflash.c **** 				{
 314              		.loc 1 62 8 is_stmt 0 view .LVU84
 315 0050 6946     		mov	r1, sp
 316 0052 01A8     		add	r0, sp, #4
 317 0054 FFF7FEFF 		bl	HAL_FLASHEx_Erase
 318              	.LVL39:
  62:Code/stmflash.c **** 				{
 319              		.loc 1 62 7 view .LVU85
 320 0058 0028     		cmp	r0, #0
 321 005a E7D1     		bne	.L22
 322              	.L24:
  67:Code/stmflash.c **** 		}
 323              		.loc 1 67 5 is_stmt 1 view .LVU86
 324 005c 4CF25030 		movw	r0, #50000
 325 0060 FFF7FEFF 		bl	FLASH_WaitForLastOperation
 326              	.LVL40:
 327              	.L21:
  54:Code/stmflash.c **** 		{
 328              		.loc 1 54 8 view .LVU87
 329 0064 AE42     		cmp	r6, r5
 330 0066 E1D2     		bcs	.L22
  56:Code/stmflash.c **** 			{   
ARM GAS  C:\Users\Jim_YW\AppData\Local\Temp\ccsjj2uj.s 			page 9


 331              		.loc 1 56 5 view .LVU88
  56:Code/stmflash.c **** 			{   
 332              		.loc 1 56 8 is_stmt 0 view .LVU89
 333 0068 3046     		mov	r0, r6
 334 006a FFF7FEFF 		bl	STMFLASH_ReadWord
 335              	.LVL41:
  56:Code/stmflash.c **** 			{   
 336              		.loc 1 56 7 view .LVU90
 337 006e B0F1FF3F 		cmp	r0, #-1
 338 0072 E3D1     		bne	.L32
  66:Code/stmflash.c **** 				FLASH_WaitForLastOperation(FLASH_WAITETIME);                //等待上次操作完成
 339              		.loc 1 66 11 is_stmt 1 view .LVU91
  66:Code/stmflash.c **** 				FLASH_WaitForLastOperation(FLASH_WAITETIME);                //等待上次操作完成
 340              		.loc 1 66 16 is_stmt 0 view .LVU92
 341 0074 0436     		adds	r6, r6, #4
 342              	.LVL42:
  66:Code/stmflash.c **** 				FLASH_WaitForLastOperation(FLASH_WAITETIME);                //等待上次操作完成
 343              		.loc 1 66 16 view .LVU93
 344 0076 F1E7     		b	.L24
 345              	.LVL43:
 346              	.L29:
  49:Code/stmflash.c **** 	endaddr=WriteAddr+NumToWrite*4;	//写入的结束地址
 347              		.loc 1 49 7 view .LVU94
 348 0078 2646     		mov	r6, r4
 349 007a F3E7     		b	.L21
 350              	.LVL44:
 351              	.L26:
  73:Code/stmflash.c **** 		 {
 352              		.loc 1 73 9 is_stmt 1 view .LVU95
 353 007c AC42     		cmp	r4, r5
 354 007e DAD2     		bcs	.L27
  75:Code/stmflash.c **** 			{ 
 355              		.loc 1 75 4 view .LVU96
  75:Code/stmflash.c **** 			{ 
 356              		.loc 1 75 7 is_stmt 0 view .LVU97
 357 0080 3A68     		ldr	r2, [r7]
 358 0082 0023     		movs	r3, #0
 359 0084 2146     		mov	r1, r4
 360 0086 0220     		movs	r0, #2
 361 0088 FFF7FEFF 		bl	HAL_FLASH_Program
 362              	.LVL45:
  75:Code/stmflash.c **** 			{ 
 363              		.loc 1 75 6 view .LVU98
 364 008c 0028     		cmp	r0, #0
 365 008e D2D1     		bne	.L27
  79:Code/stmflash.c **** 			pBuffer++;
 366              		.loc 1 79 4 is_stmt 1 view .LVU99
  79:Code/stmflash.c **** 			pBuffer++;
 367              		.loc 1 79 13 is_stmt 0 view .LVU100
 368 0090 0434     		adds	r4, r4, #4
 369              	.LVL46:
  80:Code/stmflash.c **** 		}  
 370              		.loc 1 80 4 is_stmt 1 view .LVU101
  80:Code/stmflash.c **** 		}  
 371              		.loc 1 80 11 is_stmt 0 view .LVU102
 372 0092 0437     		adds	r7, r7, #4
 373              	.LVL47:
ARM GAS  C:\Users\Jim_YW\AppData\Local\Temp\ccsjj2uj.s 			page 10


  80:Code/stmflash.c **** 		}  
 374              		.loc 1 80 11 view .LVU103
 375 0094 F2E7     		b	.L26
 376              	.L34:
 377 0096 00BF     		.align	2
 378              	.L33:
 379 0098 FFFFFE1F 		.word	536805375
 380              		.cfi_endproc
 381              	.LFE132:
 383              		.section	.text.STMFLASH_Read,"ax",%progbits
 384              		.align	1
 385              		.global	STMFLASH_Read
 386              		.syntax unified
 387              		.thumb
 388              		.thumb_func
 390              	STMFLASH_Read:
 391              	.LVL48:
 392              	.LFB133:
  85:Code/stmflash.c **** 
  86:Code/stmflash.c **** //从指定地址开始读出指定长度的数据
  87:Code/stmflash.c **** //ReadAddr:起始地址
  88:Code/stmflash.c **** //pBuffer:数据指针
  89:Code/stmflash.c **** //NumToRead:字(32位)数
  90:Code/stmflash.c **** void STMFLASH_Read(uint32_t ReadAddr,uint32_t *pBuffer,uint32_t NumToRead)   	
  91:Code/stmflash.c **** {
 393              		.loc 1 91 1 is_stmt 1 view -0
 394              		.cfi_startproc
 395              		@ args = 0, pretend = 0, frame = 0
 396              		@ frame_needed = 0, uses_anonymous_args = 0
 397              		.loc 1 91 1 is_stmt 0 view .LVU105
 398 0000 F8B5     		push	{r3, r4, r5, r6, r7, lr}
 399              	.LCFI4:
 400              		.cfi_def_cfa_offset 24
 401              		.cfi_offset 3, -24
 402              		.cfi_offset 4, -20
 403              		.cfi_offset 5, -16
 404              		.cfi_offset 6, -12
 405              		.cfi_offset 7, -8
 406              		.cfi_offset 14, -4
 407 0002 0546     		mov	r5, r0
 408 0004 0F46     		mov	r7, r1
 409 0006 1646     		mov	r6, r2
  92:Code/stmflash.c **** 	uint32_t i;
 410              		.loc 1 92 2 is_stmt 1 view .LVU106
  93:Code/stmflash.c **** 	for(i=0;i<NumToRead;i++)
 411              		.loc 1 93 2 view .LVU107
 412              	.LVL49:
 413              		.loc 1 93 7 is_stmt 0 view .LVU108
 414 0008 0024     		movs	r4, #0
 415              		.loc 1 93 2 view .LVU109
 416 000a 06E0     		b	.L36
 417              	.LVL50:
 418              	.L37:
  94:Code/stmflash.c **** 	{
  95:Code/stmflash.c **** 		pBuffer[i]=STMFLASH_ReadWord(ReadAddr);//读取4个字节.
 419              		.loc 1 95 3 is_stmt 1 discriminator 3 view .LVU110
 420              		.loc 1 95 14 is_stmt 0 discriminator 3 view .LVU111
ARM GAS  C:\Users\Jim_YW\AppData\Local\Temp\ccsjj2uj.s 			page 11


 421 000c 2846     		mov	r0, r5
 422 000e FFF7FEFF 		bl	STMFLASH_ReadWord
 423              	.LVL51:
 424              		.loc 1 95 13 discriminator 3 view .LVU112
 425 0012 47F82400 		str	r0, [r7, r4, lsl #2]
  96:Code/stmflash.c **** 		ReadAddr+=4;//偏移4个字节.	
 426              		.loc 1 96 3 is_stmt 1 discriminator 3 view .LVU113
 427              		.loc 1 96 11 is_stmt 0 discriminator 3 view .LVU114
 428 0016 0435     		adds	r5, r5, #4
 429              	.LVL52:
  93:Code/stmflash.c **** 	for(i=0;i<NumToRead;i++)
 430              		.loc 1 93 22 is_stmt 1 discriminator 3 view .LVU115
  93:Code/stmflash.c **** 	for(i=0;i<NumToRead;i++)
 431              		.loc 1 93 23 is_stmt 0 discriminator 3 view .LVU116
 432 0018 0134     		adds	r4, r4, #1
 433              	.LVL53:
 434              	.L36:
  93:Code/stmflash.c **** 	for(i=0;i<NumToRead;i++)
 435              		.loc 1 93 10 is_stmt 1 discriminator 1 view .LVU117
  93:Code/stmflash.c **** 	for(i=0;i<NumToRead;i++)
 436              		.loc 1 93 2 is_stmt 0 discriminator 1 view .LVU118
 437 001a B442     		cmp	r4, r6
 438 001c F6D3     		bcc	.L37
  97:Code/stmflash.c **** 	}
  98:Code/stmflash.c **** }
 439              		.loc 1 98 1 view .LVU119
 440 001e F8BD     		pop	{r3, r4, r5, r6, r7, pc}
 441              		.loc 1 98 1 view .LVU120
 442              		.cfi_endproc
 443              	.LFE133:
 445              		.section	.text.Test_Write,"ax",%progbits
 446              		.align	1
 447              		.global	Test_Write
 448              		.syntax unified
 449              		.thumb
 450              		.thumb_func
 452              	Test_Write:
 453              	.LVL54:
 454              	.LFB134:
  99:Code/stmflash.c **** 
 100:Code/stmflash.c **** //////////////////////////////////////////测试用///////////////////////////////////////////
 101:Code/stmflash.c **** //WriteAddr:起始地址
 102:Code/stmflash.c **** //WriteData:要写入的数据
 103:Code/stmflash.c **** void Test_Write(uint32_t WriteAddr,uint32_t WriteData)   	
 104:Code/stmflash.c **** {
 455              		.loc 1 104 1 is_stmt 1 view -0
 456              		.cfi_startproc
 457              		@ args = 0, pretend = 0, frame = 8
 458              		@ frame_needed = 0, uses_anonymous_args = 0
 459              		.loc 1 104 1 is_stmt 0 view .LVU122
 460 0000 00B5     		push	{lr}
 461              	.LCFI5:
 462              		.cfi_def_cfa_offset 4
 463              		.cfi_offset 14, -4
 464 0002 83B0     		sub	sp, sp, #12
 465              	.LCFI6:
 466              		.cfi_def_cfa_offset 16
ARM GAS  C:\Users\Jim_YW\AppData\Local\Temp\ccsjj2uj.s 			page 12


 467 0004 0191     		str	r1, [sp, #4]
 105:Code/stmflash.c **** 	STMFLASH_Write(WriteAddr,&WriteData,1);//写入一个字 
 468              		.loc 1 105 2 is_stmt 1 view .LVU123
 469 0006 0122     		movs	r2, #1
 470 0008 01A9     		add	r1, sp, #4
 471              	.LVL55:
 472              		.loc 1 105 2 is_stmt 0 view .LVU124
 473 000a FFF7FEFF 		bl	STMFLASH_Write
 474              	.LVL56:
 106:Code/stmflash.c **** }
 475              		.loc 1 106 1 view .LVU125
 476 000e 03B0     		add	sp, sp, #12
 477              	.LCFI7:
 478              		.cfi_def_cfa_offset 4
 479              		@ sp needed
 480 0010 5DF804FB 		ldr	pc, [sp], #4
 481              		.cfi_endproc
 482              	.LFE134:
 484              		.text
 485              	.Letext0:
 486              		.file 2 "c:\\program files (x86)\\gnu arm embedded toolchain\\10 2021.10\\arm-none-eabi\\include\\
 487              		.file 3 "c:\\program files (x86)\\gnu arm embedded toolchain\\10 2021.10\\arm-none-eabi\\include\\
 488              		.file 4 "../../../Drivers/STM32F4xx_HAL_Driver/Inc/stm32f4xx_hal_def.h"
 489              		.file 5 "../../../Drivers/STM32F4xx_HAL_Driver/Inc/stm32f4xx_hal_flash_ex.h"
 490              		.file 6 "../../../Drivers/STM32F4xx_HAL_Driver/Inc/stm32f4xx_hal_flash.h"
ARM GAS  C:\Users\Jim_YW\AppData\Local\Temp\ccsjj2uj.s 			page 13


DEFINED SYMBOLS
                            *ABS*:00000000 stmflash.c
C:\Users\Jim_YW\AppData\Local\Temp\ccsjj2uj.s:20     .text.STMFLASH_ReadWord:00000000 $t
C:\Users\Jim_YW\AppData\Local\Temp\ccsjj2uj.s:26     .text.STMFLASH_ReadWord:00000000 STMFLASH_ReadWord
C:\Users\Jim_YW\AppData\Local\Temp\ccsjj2uj.s:45     .text.STMFLASH_GetFlashSector:00000000 $t
C:\Users\Jim_YW\AppData\Local\Temp\ccsjj2uj.s:51     .text.STMFLASH_GetFlashSector:00000000 STMFLASH_GetFlashSector
C:\Users\Jim_YW\AppData\Local\Temp\ccsjj2uj.s:199    .text.STMFLASH_GetFlashSector:00000084 $d
C:\Users\Jim_YW\AppData\Local\Temp\ccsjj2uj.s:205    .text.STMFLASH_Write:00000000 $t
C:\Users\Jim_YW\AppData\Local\Temp\ccsjj2uj.s:211    .text.STMFLASH_Write:00000000 STMFLASH_Write
C:\Users\Jim_YW\AppData\Local\Temp\ccsjj2uj.s:379    .text.STMFLASH_Write:00000098 $d
C:\Users\Jim_YW\AppData\Local\Temp\ccsjj2uj.s:384    .text.STMFLASH_Read:00000000 $t
C:\Users\Jim_YW\AppData\Local\Temp\ccsjj2uj.s:390    .text.STMFLASH_Read:00000000 STMFLASH_Read
C:\Users\Jim_YW\AppData\Local\Temp\ccsjj2uj.s:446    .text.Test_Write:00000000 $t
C:\Users\Jim_YW\AppData\Local\Temp\ccsjj2uj.s:452    .text.Test_Write:00000000 Test_Write

UNDEFINED SYMBOLS
HAL_FLASH_Unlock
FLASH_WaitForLastOperation
HAL_FLASH_Lock
HAL_FLASHEx_Erase
HAL_FLASH_Program
