ARM GAS  C:\Users\Jim_YW\AppData\Local\Temp\ccykl1oO.s 			page 1


   1              		.cpu cortex-m4
   2              		.arch armv7e-m
   3              		.fpu fpv4-sp-d16
   4              		.eabi_attribute 27, 1
   5              		.eabi_attribute 28, 1
   6              		.eabi_attribute 20, 1
   7              		.eabi_attribute 21, 1
   8              		.eabi_attribute 23, 3
   9              		.eabi_attribute 24, 1
  10              		.eabi_attribute 25, 1
  11              		.eabi_attribute 26, 1
  12              		.eabi_attribute 30, 1
  13              		.eabi_attribute 34, 1
  14              		.eabi_attribute 18, 4
  15              		.file	"elog.c"
  16              		.text
  17              	.Ltext0:
  18              		.cfi_sections	.debug_frame
  19              		.section	.text.elog_set_filter_tag_lvl_default,"ax",%progbits
  20              		.align	1
  21              		.syntax unified
  22              		.thumb
  23              		.thumb_func
  25              	elog_set_filter_tag_lvl_default:
  26              	.LFB18:
  27              		.file 1 "../../../easylogger/src/elog.c"
   1:../../../easylogger/src/elog.c **** /*
   2:../../../easylogger/src/elog.c ****  * This file is part of the EasyLogger Library.
   3:../../../easylogger/src/elog.c ****  *
   4:../../../easylogger/src/elog.c ****  * Copyright (c) 2015-2018, Armink, <armink.ztl@gmail.com>
   5:../../../easylogger/src/elog.c ****  *
   6:../../../easylogger/src/elog.c ****  * Permission is hereby granted, free of charge, to any person obtaining
   7:../../../easylogger/src/elog.c ****  * a copy of this software and associated documentation files (the
   8:../../../easylogger/src/elog.c ****  * 'Software'), to deal in the Software without restriction, including
   9:../../../easylogger/src/elog.c ****  * without limitation the rights to use, copy, modify, merge, publish,
  10:../../../easylogger/src/elog.c ****  * distribute, sublicense, and/or sell copies of the Software, and to
  11:../../../easylogger/src/elog.c ****  * permit persons to whom the Software is furnished to do so, subject to
  12:../../../easylogger/src/elog.c ****  * the following conditions:
  13:../../../easylogger/src/elog.c ****  *
  14:../../../easylogger/src/elog.c ****  * The above copyright notice and this permission notice shall be
  15:../../../easylogger/src/elog.c ****  * included in all copies or substantial portions of the Software.
  16:../../../easylogger/src/elog.c ****  *
  17:../../../easylogger/src/elog.c ****  * THE SOFTWARE IS PROVIDED 'AS IS', WITHOUT WARRANTY OF ANY KIND,
  18:../../../easylogger/src/elog.c ****  * EXPRESS OR IMPLIED, INCLUDING BUT NOT LIMITED TO THE WARRANTIES OF
  19:../../../easylogger/src/elog.c ****  * MERCHANTABILITY, FITNESS FOR A PARTICULAR PURPOSE AND NONINFRINGEMENT.
  20:../../../easylogger/src/elog.c ****  * IN NO EVENT SHALL THE AUTHORS OR COPYRIGHT HOLDERS BE LIABLE FOR ANY
  21:../../../easylogger/src/elog.c ****  * CLAIM, DAMAGES OR OTHER LIABILITY, WHETHER IN AN ACTION OF CONTRACT,
  22:../../../easylogger/src/elog.c ****  * TORT OR OTHERWISE, ARISING FROM, OUT OF OR IN CONNECTION WITH THE
  23:../../../easylogger/src/elog.c ****  * SOFTWARE OR THE USE OR OTHER DEALINGS IN THE SOFTWARE.
  24:../../../easylogger/src/elog.c ****  *
  25:../../../easylogger/src/elog.c ****  * Function: Initialize function and other general function.
  26:../../../easylogger/src/elog.c ****  * Created on: 2015-04-28
  27:../../../easylogger/src/elog.c ****  */
  28:../../../easylogger/src/elog.c **** 
  29:../../../easylogger/src/elog.c **** #define LOG_TAG      "elog"
  30:../../../easylogger/src/elog.c **** 
  31:../../../easylogger/src/elog.c **** #include <elog.h>
ARM GAS  C:\Users\Jim_YW\AppData\Local\Temp\ccykl1oO.s 			page 2


  32:../../../easylogger/src/elog.c **** #include <string.h>
  33:../../../easylogger/src/elog.c **** #include <stdarg.h>
  34:../../../easylogger/src/elog.c **** #include <stdio.h>
  35:../../../easylogger/src/elog.c **** 
  36:../../../easylogger/src/elog.c **** #if !defined(ELOG_OUTPUT_LVL)
  37:../../../easylogger/src/elog.c ****     #error "Please configure static output log level (in elog_cfg.h)"
  38:../../../easylogger/src/elog.c **** #endif
  39:../../../easylogger/src/elog.c **** 
  40:../../../easylogger/src/elog.c **** #if !defined(ELOG_LINE_NUM_MAX_LEN)
  41:../../../easylogger/src/elog.c ****     #error "Please configure output line number max length (in elog_cfg.h)"
  42:../../../easylogger/src/elog.c **** #endif
  43:../../../easylogger/src/elog.c **** 
  44:../../../easylogger/src/elog.c **** #if !defined(ELOG_LINE_BUF_SIZE)
  45:../../../easylogger/src/elog.c ****     #error "Please configure buffer size for every line's log (in elog_cfg.h)"
  46:../../../easylogger/src/elog.c **** #endif
  47:../../../easylogger/src/elog.c **** 
  48:../../../easylogger/src/elog.c **** #if !defined(ELOG_FILTER_TAG_MAX_LEN)
  49:../../../easylogger/src/elog.c ****     #error "Please configure output filter's tag max length (in elog_cfg.h)"
  50:../../../easylogger/src/elog.c **** #endif
  51:../../../easylogger/src/elog.c **** 
  52:../../../easylogger/src/elog.c **** #if !defined(ELOG_FILTER_KW_MAX_LEN)
  53:../../../easylogger/src/elog.c ****     #error "Please configure output filter's keyword max length (in elog_cfg.h)"
  54:../../../easylogger/src/elog.c **** #endif
  55:../../../easylogger/src/elog.c **** 
  56:../../../easylogger/src/elog.c **** #if !defined(ELOG_NEWLINE_SIGN)
  57:../../../easylogger/src/elog.c ****     #error "Please configure output newline sign (in elog_cfg.h)"
  58:../../../easylogger/src/elog.c **** #endif
  59:../../../easylogger/src/elog.c **** 
  60:../../../easylogger/src/elog.c **** /* output filter's tag level max num */
  61:../../../easylogger/src/elog.c **** #ifndef ELOG_FILTER_TAG_LVL_MAX_NUM
  62:../../../easylogger/src/elog.c **** #define ELOG_FILTER_TAG_LVL_MAX_NUM          4
  63:../../../easylogger/src/elog.c **** #endif
  64:../../../easylogger/src/elog.c **** 
  65:../../../easylogger/src/elog.c **** #ifdef ELOG_COLOR_ENABLE
  66:../../../easylogger/src/elog.c **** /**
  67:../../../easylogger/src/elog.c ****  * CSI(Control Sequence Introducer/Initiator) sign
  68:../../../easylogger/src/elog.c ****  * more information on https://en.wikipedia.org/wiki/ANSI_escape_code
  69:../../../easylogger/src/elog.c ****  */
  70:../../../easylogger/src/elog.c **** #define CSI_START                      "\033["
  71:../../../easylogger/src/elog.c **** #define CSI_END                        "\033[0m"
  72:../../../easylogger/src/elog.c **** /* output log front color */
  73:../../../easylogger/src/elog.c **** #define F_BLACK                        "30;"
  74:../../../easylogger/src/elog.c **** #define F_RED                          "31;"
  75:../../../easylogger/src/elog.c **** #define F_GREEN                        "32;"
  76:../../../easylogger/src/elog.c **** #define F_YELLOW                       "33;"
  77:../../../easylogger/src/elog.c **** #define F_BLUE                         "34;"
  78:../../../easylogger/src/elog.c **** #define F_MAGENTA                      "35;"
  79:../../../easylogger/src/elog.c **** #define F_CYAN                         "36;"
  80:../../../easylogger/src/elog.c **** #define F_WHITE                        "37;"
  81:../../../easylogger/src/elog.c **** /* output log background color */
  82:../../../easylogger/src/elog.c **** #define B_NULL
  83:../../../easylogger/src/elog.c **** #define B_BLACK                        "40;"
  84:../../../easylogger/src/elog.c **** #define B_RED                          "41;"
  85:../../../easylogger/src/elog.c **** #define B_GREEN                        "42;"
  86:../../../easylogger/src/elog.c **** #define B_YELLOW                       "43;"
  87:../../../easylogger/src/elog.c **** #define B_BLUE                         "44;"
  88:../../../easylogger/src/elog.c **** #define B_MAGENTA                      "45;"
ARM GAS  C:\Users\Jim_YW\AppData\Local\Temp\ccykl1oO.s 			page 3


  89:../../../easylogger/src/elog.c **** #define B_CYAN                         "46;"
  90:../../../easylogger/src/elog.c **** #define B_WHITE                        "47;"
  91:../../../easylogger/src/elog.c **** /* output log fonts style */
  92:../../../easylogger/src/elog.c **** #define S_BOLD                         "1m"
  93:../../../easylogger/src/elog.c **** #define S_UNDERLINE                    "4m"
  94:../../../easylogger/src/elog.c **** #define S_BLINK                        "5m"
  95:../../../easylogger/src/elog.c **** #define S_NORMAL                       "22m"
  96:../../../easylogger/src/elog.c **** /* output log default color definition: [front color] + [background color] + [show style] */
  97:../../../easylogger/src/elog.c **** #ifndef ELOG_COLOR_ASSERT
  98:../../../easylogger/src/elog.c **** #define ELOG_COLOR_ASSERT              (F_MAGENTA B_NULL S_NORMAL)
  99:../../../easylogger/src/elog.c **** #endif
 100:../../../easylogger/src/elog.c **** #ifndef ELOG_COLOR_ERROR
 101:../../../easylogger/src/elog.c **** #define ELOG_COLOR_ERROR               (F_RED B_NULL S_NORMAL)
 102:../../../easylogger/src/elog.c **** #endif
 103:../../../easylogger/src/elog.c **** #ifndef ELOG_COLOR_WARN
 104:../../../easylogger/src/elog.c **** #define ELOG_COLOR_WARN                (F_YELLOW B_NULL S_NORMAL)
 105:../../../easylogger/src/elog.c **** #endif
 106:../../../easylogger/src/elog.c **** #ifndef ELOG_COLOR_INFO
 107:../../../easylogger/src/elog.c **** #define ELOG_COLOR_INFO                (F_CYAN B_NULL S_NORMAL)
 108:../../../easylogger/src/elog.c **** #endif
 109:../../../easylogger/src/elog.c **** #ifndef ELOG_COLOR_DEBUG
 110:../../../easylogger/src/elog.c **** #define ELOG_COLOR_DEBUG               (F_GREEN B_NULL S_NORMAL)
 111:../../../easylogger/src/elog.c **** #endif
 112:../../../easylogger/src/elog.c **** #ifndef ELOG_COLOR_VERBOSE
 113:../../../easylogger/src/elog.c **** #define ELOG_COLOR_VERBOSE             (F_BLUE B_NULL S_NORMAL)
 114:../../../easylogger/src/elog.c **** #endif
 115:../../../easylogger/src/elog.c **** #endif /* ELOG_COLOR_ENABLE */
 116:../../../easylogger/src/elog.c **** 
 117:../../../easylogger/src/elog.c **** /* EasyLogger object */
 118:../../../easylogger/src/elog.c **** static EasyLogger elog;
 119:../../../easylogger/src/elog.c **** /* every line log's buffer */
 120:../../../easylogger/src/elog.c **** static char log_buf[ELOG_LINE_BUF_SIZE] = { 0 };
 121:../../../easylogger/src/elog.c **** /* level output info */
 122:../../../easylogger/src/elog.c **** static const char *level_output_info[] = {
 123:../../../easylogger/src/elog.c ****         [ELOG_LVL_ASSERT]  = "A/",
 124:../../../easylogger/src/elog.c ****         [ELOG_LVL_ERROR]   = "E/",
 125:../../../easylogger/src/elog.c ****         [ELOG_LVL_WARN]    = "W/",
 126:../../../easylogger/src/elog.c ****         [ELOG_LVL_INFO]    = "I/",
 127:../../../easylogger/src/elog.c ****         [ELOG_LVL_DEBUG]   = "D/",
 128:../../../easylogger/src/elog.c ****         [ELOG_LVL_VERBOSE] = "V/",
 129:../../../easylogger/src/elog.c **** };
 130:../../../easylogger/src/elog.c **** 
 131:../../../easylogger/src/elog.c **** #ifdef ELOG_COLOR_ENABLE
 132:../../../easylogger/src/elog.c **** /* color output info */
 133:../../../easylogger/src/elog.c **** static const char *color_output_info[] = {
 134:../../../easylogger/src/elog.c ****         [ELOG_LVL_ASSERT]  = ELOG_COLOR_ASSERT,
 135:../../../easylogger/src/elog.c ****         [ELOG_LVL_ERROR]   = ELOG_COLOR_ERROR,
 136:../../../easylogger/src/elog.c ****         [ELOG_LVL_WARN]    = ELOG_COLOR_WARN,
 137:../../../easylogger/src/elog.c ****         [ELOG_LVL_INFO]    = ELOG_COLOR_INFO,
 138:../../../easylogger/src/elog.c ****         [ELOG_LVL_DEBUG]   = ELOG_COLOR_DEBUG,
 139:../../../easylogger/src/elog.c ****         [ELOG_LVL_VERBOSE] = ELOG_COLOR_VERBOSE,
 140:../../../easylogger/src/elog.c **** };
 141:../../../easylogger/src/elog.c **** #endif /* ELOG_COLOR_ENABLE */
 142:../../../easylogger/src/elog.c **** 
 143:../../../easylogger/src/elog.c **** static bool get_fmt_enabled(uint8_t level, size_t set);
 144:../../../easylogger/src/elog.c **** static void elog_set_filter_tag_lvl_default(void);
 145:../../../easylogger/src/elog.c **** 
ARM GAS  C:\Users\Jim_YW\AppData\Local\Temp\ccykl1oO.s 			page 4


 146:../../../easylogger/src/elog.c **** /* EasyLogger assert hook */
 147:../../../easylogger/src/elog.c **** void (*elog_assert_hook)(const char* expr, const char* func, size_t line);
 148:../../../easylogger/src/elog.c **** 
 149:../../../easylogger/src/elog.c **** extern void elog_port_output(const char *log, size_t size);
 150:../../../easylogger/src/elog.c **** extern void elog_port_output_lock(void);
 151:../../../easylogger/src/elog.c **** extern void elog_port_output_unlock(void);
 152:../../../easylogger/src/elog.c **** 
 153:../../../easylogger/src/elog.c **** /**
 154:../../../easylogger/src/elog.c ****  * EasyLogger initialize.
 155:../../../easylogger/src/elog.c ****  *
 156:../../../easylogger/src/elog.c ****  * @return result
 157:../../../easylogger/src/elog.c ****  */
 158:../../../easylogger/src/elog.c **** ElogErrCode elog_init(void) {
 159:../../../easylogger/src/elog.c ****     extern ElogErrCode elog_port_init(void);
 160:../../../easylogger/src/elog.c ****     extern ElogErrCode elog_async_init(void);
 161:../../../easylogger/src/elog.c **** 
 162:../../../easylogger/src/elog.c ****     ElogErrCode result = ELOG_NO_ERR;
 163:../../../easylogger/src/elog.c **** 
 164:../../../easylogger/src/elog.c ****     if (elog.init_ok == true) {
 165:../../../easylogger/src/elog.c ****         return result;
 166:../../../easylogger/src/elog.c ****     }
 167:../../../easylogger/src/elog.c **** 
 168:../../../easylogger/src/elog.c ****     /* port initialize */
 169:../../../easylogger/src/elog.c ****     result = elog_port_init();
 170:../../../easylogger/src/elog.c ****     if (result != ELOG_NO_ERR) {
 171:../../../easylogger/src/elog.c ****         return result;
 172:../../../easylogger/src/elog.c ****     }
 173:../../../easylogger/src/elog.c **** 
 174:../../../easylogger/src/elog.c **** #ifdef ELOG_ASYNC_OUTPUT_ENABLE
 175:../../../easylogger/src/elog.c ****     result = elog_async_init();
 176:../../../easylogger/src/elog.c ****     if (result != ELOG_NO_ERR) {
 177:../../../easylogger/src/elog.c ****         return result;
 178:../../../easylogger/src/elog.c ****     }
 179:../../../easylogger/src/elog.c **** #endif
 180:../../../easylogger/src/elog.c **** 
 181:../../../easylogger/src/elog.c ****     /* enable the output lock */
 182:../../../easylogger/src/elog.c ****     elog_output_lock_enabled(true);
 183:../../../easylogger/src/elog.c ****     /* output locked status initialize */
 184:../../../easylogger/src/elog.c ****     elog.output_is_locked_before_enable = false;
 185:../../../easylogger/src/elog.c ****     elog.output_is_locked_before_disable = false;
 186:../../../easylogger/src/elog.c **** 
 187:../../../easylogger/src/elog.c **** #ifdef ELOG_COLOR_ENABLE
 188:../../../easylogger/src/elog.c ****     /* enable text color by default */
 189:../../../easylogger/src/elog.c ****     elog_set_text_color_enabled(true);
 190:../../../easylogger/src/elog.c **** #endif
 191:../../../easylogger/src/elog.c **** 
 192:../../../easylogger/src/elog.c ****     /* set level is ELOG_LVL_VERBOSE */
 193:../../../easylogger/src/elog.c ****     elog_set_filter_lvl(ELOG_LVL_VERBOSE);
 194:../../../easylogger/src/elog.c **** 
 195:../../../easylogger/src/elog.c ****     /* set tag_level to default val */
 196:../../../easylogger/src/elog.c ****     elog_set_filter_tag_lvl_default();
 197:../../../easylogger/src/elog.c **** 
 198:../../../easylogger/src/elog.c ****     elog.init_ok = true;
 199:../../../easylogger/src/elog.c **** 
 200:../../../easylogger/src/elog.c ****     return result;
 201:../../../easylogger/src/elog.c **** }
 202:../../../easylogger/src/elog.c **** 
ARM GAS  C:\Users\Jim_YW\AppData\Local\Temp\ccykl1oO.s 			page 5


 203:../../../easylogger/src/elog.c **** /**
 204:../../../easylogger/src/elog.c ****  * EasyLogger deinitialize.
 205:../../../easylogger/src/elog.c ****  *
 206:../../../easylogger/src/elog.c ****  */
 207:../../../easylogger/src/elog.c **** void elog_deinit(void) {
 208:../../../easylogger/src/elog.c ****     extern ElogErrCode elog_port_deinit(void);
 209:../../../easylogger/src/elog.c ****     extern ElogErrCode elog_async_deinit(void);
 210:../../../easylogger/src/elog.c **** 
 211:../../../easylogger/src/elog.c ****     if (!elog.init_ok) {
 212:../../../easylogger/src/elog.c ****         return ;
 213:../../../easylogger/src/elog.c ****     }
 214:../../../easylogger/src/elog.c ****     
 215:../../../easylogger/src/elog.c **** #ifdef ELOG_ASYNC_OUTPUT_ENABLE
 216:../../../easylogger/src/elog.c ****     elog_async_deinit();
 217:../../../easylogger/src/elog.c **** #endif
 218:../../../easylogger/src/elog.c **** 
 219:../../../easylogger/src/elog.c ****     /* port deinitialize */
 220:../../../easylogger/src/elog.c ****     elog_port_deinit();
 221:../../../easylogger/src/elog.c **** 
 222:../../../easylogger/src/elog.c ****     elog.init_ok = false;
 223:../../../easylogger/src/elog.c **** }
 224:../../../easylogger/src/elog.c **** 
 225:../../../easylogger/src/elog.c **** 
 226:../../../easylogger/src/elog.c **** /**
 227:../../../easylogger/src/elog.c ****  * EasyLogger start after initialize.
 228:../../../easylogger/src/elog.c ****  */
 229:../../../easylogger/src/elog.c **** void elog_start(void) {
 230:../../../easylogger/src/elog.c ****     if (!elog.init_ok) {
 231:../../../easylogger/src/elog.c ****         return ;
 232:../../../easylogger/src/elog.c ****     }
 233:../../../easylogger/src/elog.c ****     
 234:../../../easylogger/src/elog.c ****     /* enable output */
 235:../../../easylogger/src/elog.c ****     elog_set_output_enabled(true);
 236:../../../easylogger/src/elog.c **** 
 237:../../../easylogger/src/elog.c **** #if defined(ELOG_ASYNC_OUTPUT_ENABLE)
 238:../../../easylogger/src/elog.c ****     elog_async_enabled(true);
 239:../../../easylogger/src/elog.c **** #elif defined(ELOG_BUF_OUTPUT_ENABLE)
 240:../../../easylogger/src/elog.c ****     elog_buf_enabled(true);
 241:../../../easylogger/src/elog.c **** #endif
 242:../../../easylogger/src/elog.c **** 
 243:../../../easylogger/src/elog.c ****     /* show version */
 244:../../../easylogger/src/elog.c ****     log_i("EasyLogger V%s is initialize success.", ELOG_SW_VERSION);
 245:../../../easylogger/src/elog.c **** }
 246:../../../easylogger/src/elog.c **** 
 247:../../../easylogger/src/elog.c **** /**
 248:../../../easylogger/src/elog.c ****  * EasyLogger stop after initialize.
 249:../../../easylogger/src/elog.c ****  */
 250:../../../easylogger/src/elog.c **** void elog_stop(void) {
 251:../../../easylogger/src/elog.c ****     if (!elog.init_ok) {
 252:../../../easylogger/src/elog.c ****         return ;
 253:../../../easylogger/src/elog.c ****     }
 254:../../../easylogger/src/elog.c **** 
 255:../../../easylogger/src/elog.c ****     /* disable output */
 256:../../../easylogger/src/elog.c ****     elog_set_output_enabled(false);
 257:../../../easylogger/src/elog.c **** 
 258:../../../easylogger/src/elog.c **** #if defined(ELOG_ASYNC_OUTPUT_ENABLE)
 259:../../../easylogger/src/elog.c ****     elog_async_enabled(false);
ARM GAS  C:\Users\Jim_YW\AppData\Local\Temp\ccykl1oO.s 			page 6


 260:../../../easylogger/src/elog.c **** #elif defined(ELOG_BUF_OUTPUT_ENABLE)
 261:../../../easylogger/src/elog.c ****     elog_buf_enabled(false);
 262:../../../easylogger/src/elog.c **** #endif
 263:../../../easylogger/src/elog.c **** 
 264:../../../easylogger/src/elog.c ****     /* show version */
 265:../../../easylogger/src/elog.c ****     log_i("EasyLogger V%s is deinitialize success.", ELOG_SW_VERSION);
 266:../../../easylogger/src/elog.c **** }
 267:../../../easylogger/src/elog.c **** 
 268:../../../easylogger/src/elog.c **** 
 269:../../../easylogger/src/elog.c **** /**
 270:../../../easylogger/src/elog.c ****  * set output enable or disable
 271:../../../easylogger/src/elog.c ****  *
 272:../../../easylogger/src/elog.c ****  * @param enabled TRUE: enable FALSE: disable
 273:../../../easylogger/src/elog.c ****  */
 274:../../../easylogger/src/elog.c **** void elog_set_output_enabled(bool enabled) {
 275:../../../easylogger/src/elog.c ****     ELOG_ASSERT((enabled == false) || (enabled == true));
 276:../../../easylogger/src/elog.c **** 
 277:../../../easylogger/src/elog.c ****     elog.output_enabled = enabled;
 278:../../../easylogger/src/elog.c **** }
 279:../../../easylogger/src/elog.c **** 
 280:../../../easylogger/src/elog.c **** #ifdef ELOG_COLOR_ENABLE
 281:../../../easylogger/src/elog.c **** /**
 282:../../../easylogger/src/elog.c ****  * set log text color enable or disable
 283:../../../easylogger/src/elog.c ****  * 
 284:../../../easylogger/src/elog.c ****  * @param enabled TRUE: enable FALSE:disable
 285:../../../easylogger/src/elog.c ****  */
 286:../../../easylogger/src/elog.c **** void elog_set_text_color_enabled(bool enabled) {
 287:../../../easylogger/src/elog.c ****     elog.text_color_enabled = enabled;
 288:../../../easylogger/src/elog.c **** }
 289:../../../easylogger/src/elog.c **** 
 290:../../../easylogger/src/elog.c **** /**
 291:../../../easylogger/src/elog.c ****  * get log text color enable status
 292:../../../easylogger/src/elog.c ****  *
 293:../../../easylogger/src/elog.c ****  * @return enable or disable
 294:../../../easylogger/src/elog.c ****  */
 295:../../../easylogger/src/elog.c **** bool elog_get_text_color_enabled(void) {
 296:../../../easylogger/src/elog.c ****     return elog.text_color_enabled;
 297:../../../easylogger/src/elog.c **** }
 298:../../../easylogger/src/elog.c **** #endif /* ELOG_COLOR_ENABLE */
 299:../../../easylogger/src/elog.c **** 
 300:../../../easylogger/src/elog.c **** /**
 301:../../../easylogger/src/elog.c ****  * get output is enable or disable
 302:../../../easylogger/src/elog.c ****  *
 303:../../../easylogger/src/elog.c ****  * @return enable or disable
 304:../../../easylogger/src/elog.c ****  */
 305:../../../easylogger/src/elog.c **** bool elog_get_output_enabled(void) {
 306:../../../easylogger/src/elog.c ****     return elog.output_enabled;
 307:../../../easylogger/src/elog.c **** }
 308:../../../easylogger/src/elog.c **** 
 309:../../../easylogger/src/elog.c **** /**
 310:../../../easylogger/src/elog.c ****  * set log output format. only enable or disable
 311:../../../easylogger/src/elog.c ****  *
 312:../../../easylogger/src/elog.c ****  * @param level level
 313:../../../easylogger/src/elog.c ****  * @param set format set
 314:../../../easylogger/src/elog.c ****  */
 315:../../../easylogger/src/elog.c **** void elog_set_fmt(uint8_t level, size_t set) {
 316:../../../easylogger/src/elog.c ****     ELOG_ASSERT(level <= ELOG_LVL_VERBOSE);
ARM GAS  C:\Users\Jim_YW\AppData\Local\Temp\ccykl1oO.s 			page 7


 317:../../../easylogger/src/elog.c **** 
 318:../../../easylogger/src/elog.c ****     elog.enabled_fmt_set[level] = set;
 319:../../../easylogger/src/elog.c **** }
 320:../../../easylogger/src/elog.c **** 
 321:../../../easylogger/src/elog.c **** /**
 322:../../../easylogger/src/elog.c ****  * set log filter all parameter
 323:../../../easylogger/src/elog.c ****  *
 324:../../../easylogger/src/elog.c ****  * @param level level
 325:../../../easylogger/src/elog.c ****  * @param tag tag
 326:../../../easylogger/src/elog.c ****  * @param keyword keyword
 327:../../../easylogger/src/elog.c ****  */
 328:../../../easylogger/src/elog.c **** void elog_set_filter(uint8_t level, const char *tag, const char *keyword) {
 329:../../../easylogger/src/elog.c ****     ELOG_ASSERT(level <= ELOG_LVL_VERBOSE);
 330:../../../easylogger/src/elog.c **** 
 331:../../../easylogger/src/elog.c ****     elog_set_filter_lvl(level);
 332:../../../easylogger/src/elog.c ****     elog_set_filter_tag(tag);
 333:../../../easylogger/src/elog.c ****     elog_set_filter_kw(keyword);
 334:../../../easylogger/src/elog.c **** }
 335:../../../easylogger/src/elog.c **** 
 336:../../../easylogger/src/elog.c **** /**
 337:../../../easylogger/src/elog.c ****  * set log filter's level
 338:../../../easylogger/src/elog.c ****  *
 339:../../../easylogger/src/elog.c ****  * @param level level
 340:../../../easylogger/src/elog.c ****  */
 341:../../../easylogger/src/elog.c **** void elog_set_filter_lvl(uint8_t level) {
 342:../../../easylogger/src/elog.c ****     ELOG_ASSERT(level <= ELOG_LVL_VERBOSE);
 343:../../../easylogger/src/elog.c **** 
 344:../../../easylogger/src/elog.c ****     elog.filter.level = level;
 345:../../../easylogger/src/elog.c **** }
 346:../../../easylogger/src/elog.c **** 
 347:../../../easylogger/src/elog.c **** /**
 348:../../../easylogger/src/elog.c ****  * set log filter's tag
 349:../../../easylogger/src/elog.c ****  *
 350:../../../easylogger/src/elog.c ****  * @param tag tag
 351:../../../easylogger/src/elog.c ****  */
 352:../../../easylogger/src/elog.c **** void elog_set_filter_tag(const char *tag) {
 353:../../../easylogger/src/elog.c ****     strncpy(elog.filter.tag, tag, ELOG_FILTER_TAG_MAX_LEN);
 354:../../../easylogger/src/elog.c **** }
 355:../../../easylogger/src/elog.c **** 
 356:../../../easylogger/src/elog.c **** /**
 357:../../../easylogger/src/elog.c ****  * set log filter's keyword
 358:../../../easylogger/src/elog.c ****  *
 359:../../../easylogger/src/elog.c ****  * @param keyword keyword
 360:../../../easylogger/src/elog.c ****  */
 361:../../../easylogger/src/elog.c **** void elog_set_filter_kw(const char *keyword) {
 362:../../../easylogger/src/elog.c ****     strncpy(elog.filter.keyword, keyword, ELOG_FILTER_KW_MAX_LEN);
 363:../../../easylogger/src/elog.c **** }
 364:../../../easylogger/src/elog.c **** 
 365:../../../easylogger/src/elog.c **** /**
 366:../../../easylogger/src/elog.c ****  * lock output 
 367:../../../easylogger/src/elog.c ****  */
 368:../../../easylogger/src/elog.c **** void elog_output_lock(void) {
 369:../../../easylogger/src/elog.c ****     if (elog.output_lock_enabled) {
 370:../../../easylogger/src/elog.c ****         elog_port_output_lock();
 371:../../../easylogger/src/elog.c ****         elog.output_is_locked_before_disable = true;
 372:../../../easylogger/src/elog.c ****     } else {
 373:../../../easylogger/src/elog.c ****         elog.output_is_locked_before_enable = true;
ARM GAS  C:\Users\Jim_YW\AppData\Local\Temp\ccykl1oO.s 			page 8


 374:../../../easylogger/src/elog.c ****     }
 375:../../../easylogger/src/elog.c **** }
 376:../../../easylogger/src/elog.c **** 
 377:../../../easylogger/src/elog.c **** /**
 378:../../../easylogger/src/elog.c ****  * unlock output
 379:../../../easylogger/src/elog.c ****  */
 380:../../../easylogger/src/elog.c **** void elog_output_unlock(void) {
 381:../../../easylogger/src/elog.c ****     if (elog.output_lock_enabled) {
 382:../../../easylogger/src/elog.c ****         elog_port_output_unlock();
 383:../../../easylogger/src/elog.c ****         elog.output_is_locked_before_disable = false;
 384:../../../easylogger/src/elog.c ****     } else {
 385:../../../easylogger/src/elog.c ****         elog.output_is_locked_before_enable = false;
 386:../../../easylogger/src/elog.c ****     }
 387:../../../easylogger/src/elog.c **** }
 388:../../../easylogger/src/elog.c **** 
 389:../../../easylogger/src/elog.c **** /**
 390:../../../easylogger/src/elog.c ****  * set log filter's tag level val to default
 391:../../../easylogger/src/elog.c ****  */
 392:../../../easylogger/src/elog.c **** static void elog_set_filter_tag_lvl_default(void)
 393:../../../easylogger/src/elog.c **** {
  28              		.loc 1 393 1 view -0
  29              		.cfi_startproc
  30              		@ args = 0, pretend = 0, frame = 0
  31              		@ frame_needed = 0, uses_anonymous_args = 0
  32 0000 70B5     		push	{r4, r5, r6, lr}
  33              	.LCFI0:
  34              		.cfi_def_cfa_offset 16
  35              		.cfi_offset 4, -16
  36              		.cfi_offset 5, -12
  37              		.cfi_offset 6, -8
  38              		.cfi_offset 14, -4
 394:../../../easylogger/src/elog.c ****     uint8_t i = 0;
  39              		.loc 1 394 5 view .LVU1
  40              	.LVL0:
 395:../../../easylogger/src/elog.c **** 
 396:../../../easylogger/src/elog.c ****     for (i =0; i< ELOG_FILTER_TAG_LVL_MAX_NUM; i++){
  41              		.loc 1 396 5 view .LVU2
  42              		.loc 1 396 12 is_stmt 0 view .LVU3
  43 0002 0024     		movs	r4, #0
  44              		.loc 1 396 5 view .LVU4
  45 0004 12E0     		b	.L2
  46              	.LVL1:
  47              	.L3:
 397:../../../easylogger/src/elog.c ****         memset(elog.filter.tag_lvl[i].tag, '\0', ELOG_FILTER_TAG_MAX_LEN + 1);
  48              		.loc 1 397 9 is_stmt 1 discriminator 3 view .LVU5
  49              		.loc 1 397 38 is_stmt 0 discriminator 3 view .LVU6
  50 0006 0B4D     		ldr	r5, .L5
  51 0008 04EB4416 		add	r6, r4, r4, lsl #5
  52 000c 06F13000 		add	r0, r6, #48
  53 0010 2844     		add	r0, r0, r5
  54              		.loc 1 397 9 discriminator 3 view .LVU7
  55 0012 1F22     		movs	r2, #31
  56 0014 0021     		movs	r1, #0
  57 0016 0230     		adds	r0, r0, #2
  58 0018 FFF7FEFF 		bl	memset
  59              	.LVL2:
 398:../../../easylogger/src/elog.c ****         elog.filter.tag_lvl[i].level = ELOG_FILTER_LVL_SILENT;
ARM GAS  C:\Users\Jim_YW\AppData\Local\Temp\ccykl1oO.s 			page 9


  60              		.loc 1 398 9 is_stmt 1 discriminator 3 view .LVU8
  61              		.loc 1 398 38 is_stmt 0 discriminator 3 view .LVU9
  62 001c 3544     		add	r5, r5, r6
  63 001e 0023     		movs	r3, #0
  64 0020 85F83130 		strb	r3, [r5, #49]
 399:../../../easylogger/src/elog.c ****         elog.filter.tag_lvl[i].tag_use_flag = false;
  65              		.loc 1 399 9 is_stmt 1 discriminator 3 view .LVU10
  66              		.loc 1 399 45 is_stmt 0 discriminator 3 view .LVU11
  67 0024 85F85130 		strb	r3, [r5, #81]
 396:../../../easylogger/src/elog.c ****         memset(elog.filter.tag_lvl[i].tag, '\0', ELOG_FILTER_TAG_MAX_LEN + 1);
  68              		.loc 1 396 48 is_stmt 1 discriminator 3 view .LVU12
 396:../../../easylogger/src/elog.c ****         memset(elog.filter.tag_lvl[i].tag, '\0', ELOG_FILTER_TAG_MAX_LEN + 1);
  69              		.loc 1 396 49 is_stmt 0 discriminator 3 view .LVU13
  70 0028 0134     		adds	r4, r4, #1
  71              	.LVL3:
 396:../../../easylogger/src/elog.c ****         memset(elog.filter.tag_lvl[i].tag, '\0', ELOG_FILTER_TAG_MAX_LEN + 1);
  72              		.loc 1 396 49 discriminator 3 view .LVU14
  73 002a E4B2     		uxtb	r4, r4
  74              	.LVL4:
  75              	.L2:
 396:../../../easylogger/src/elog.c ****         memset(elog.filter.tag_lvl[i].tag, '\0', ELOG_FILTER_TAG_MAX_LEN + 1);
  76              		.loc 1 396 16 is_stmt 1 discriminator 1 view .LVU15
 396:../../../easylogger/src/elog.c ****         memset(elog.filter.tag_lvl[i].tag, '\0', ELOG_FILTER_TAG_MAX_LEN + 1);
  77              		.loc 1 396 5 is_stmt 0 discriminator 1 view .LVU16
  78 002c 042C     		cmp	r4, #4
  79 002e EAD9     		bls	.L3
 400:../../../easylogger/src/elog.c ****     }
 401:../../../easylogger/src/elog.c **** }
  80              		.loc 1 401 1 view .LVU17
  81 0030 70BD     		pop	{r4, r5, r6, pc}
  82              	.LVL5:
  83              	.L6:
  84              		.loc 1 401 1 view .LVU18
  85 0032 00BF     		.align	2
  86              	.L5:
  87 0034 00000000 		.word	.LANCHOR0
  88              		.cfi_endproc
  89              	.LFE18:
  91              		.section	.text.elog_deinit,"ax",%progbits
  92              		.align	1
  93              		.global	elog_deinit
  94              		.syntax unified
  95              		.thumb
  96              		.thumb_func
  98              	elog_deinit:
  99              	.LFB4:
 207:../../../easylogger/src/elog.c ****     extern ElogErrCode elog_port_deinit(void);
 100              		.loc 1 207 24 is_stmt 1 view -0
 101              		.cfi_startproc
 102              		@ args = 0, pretend = 0, frame = 0
 103              		@ frame_needed = 0, uses_anonymous_args = 0
 104 0000 08B5     		push	{r3, lr}
 105              	.LCFI1:
 106              		.cfi_def_cfa_offset 8
 107              		.cfi_offset 3, -8
 108              		.cfi_offset 14, -4
 208:../../../easylogger/src/elog.c ****     extern ElogErrCode elog_async_deinit(void);
ARM GAS  C:\Users\Jim_YW\AppData\Local\Temp\ccykl1oO.s 			page 10


 109              		.loc 1 208 5 view .LVU20
 209:../../../easylogger/src/elog.c **** 
 110              		.loc 1 209 5 view .LVU21
 211:../../../easylogger/src/elog.c ****         return ;
 111              		.loc 1 211 5 view .LVU22
 211:../../../easylogger/src/elog.c ****         return ;
 112              		.loc 1 211 14 is_stmt 0 view .LVU23
 113 0002 074B     		ldr	r3, .L11
 114 0004 93F8F030 		ldrb	r3, [r3, #240]	@ zero_extendqisi2
 211:../../../easylogger/src/elog.c ****         return ;
 115              		.loc 1 211 8 view .LVU24
 116 0008 03B9     		cbnz	r3, .L10
 117              	.L7:
 223:../../../easylogger/src/elog.c **** 
 118              		.loc 1 223 1 view .LVU25
 119 000a 08BD     		pop	{r3, pc}
 120              	.L10:
 216:../../../easylogger/src/elog.c **** #endif
 121              		.loc 1 216 5 is_stmt 1 view .LVU26
 122 000c FFF7FEFF 		bl	elog_async_deinit
 123              	.LVL6:
 220:../../../easylogger/src/elog.c **** 
 124              		.loc 1 220 5 view .LVU27
 125 0010 FFF7FEFF 		bl	elog_port_deinit
 126              	.LVL7:
 222:../../../easylogger/src/elog.c **** }
 127              		.loc 1 222 5 view .LVU28
 222:../../../easylogger/src/elog.c **** }
 128              		.loc 1 222 18 is_stmt 0 view .LVU29
 129 0014 024B     		ldr	r3, .L11
 130 0016 0022     		movs	r2, #0
 131 0018 83F8F020 		strb	r2, [r3, #240]
 132 001c F5E7     		b	.L7
 133              	.L12:
 134 001e 00BF     		.align	2
 135              	.L11:
 136 0020 00000000 		.word	.LANCHOR0
 137              		.cfi_endproc
 138              	.LFE4:
 140              		.section	.text.elog_set_output_enabled,"ax",%progbits
 141              		.align	1
 142              		.global	elog_set_output_enabled
 143              		.syntax unified
 144              		.thumb
 145              		.thumb_func
 147              	elog_set_output_enabled:
 148              	.LVL8:
 149              	.LFB7:
 274:../../../easylogger/src/elog.c ****     ELOG_ASSERT((enabled == false) || (enabled == true));
 150              		.loc 1 274 44 is_stmt 1 view -0
 151              		.cfi_startproc
 152              		@ args = 0, pretend = 0, frame = 0
 153              		@ frame_needed = 0, uses_anonymous_args = 0
 154              		@ link register save eliminated.
 275:../../../easylogger/src/elog.c **** 
 155              		.loc 1 275 5 view .LVU31
 275:../../../easylogger/src/elog.c **** 
ARM GAS  C:\Users\Jim_YW\AppData\Local\Temp\ccykl1oO.s 			page 11


 156              		.loc 1 275 57 view .LVU32
 277:../../../easylogger/src/elog.c **** }
 157              		.loc 1 277 5 view .LVU33
 277:../../../easylogger/src/elog.c **** }
 158              		.loc 1 277 25 is_stmt 0 view .LVU34
 159 0000 014B     		ldr	r3, .L14
 160 0002 83F8F100 		strb	r0, [r3, #241]
 278:../../../easylogger/src/elog.c **** 
 161              		.loc 1 278 1 view .LVU35
 162 0006 7047     		bx	lr
 163              	.L15:
 164              		.align	2
 165              	.L14:
 166 0008 00000000 		.word	.LANCHOR0
 167              		.cfi_endproc
 168              	.LFE7:
 170              		.section	.text.elog_set_text_color_enabled,"ax",%progbits
 171              		.align	1
 172              		.global	elog_set_text_color_enabled
 173              		.syntax unified
 174              		.thumb
 175              		.thumb_func
 177              	elog_set_text_color_enabled:
 178              	.LVL9:
 179              	.LFB8:
 286:../../../easylogger/src/elog.c ****     elog.text_color_enabled = enabled;
 180              		.loc 1 286 48 is_stmt 1 view -0
 181              		.cfi_startproc
 182              		@ args = 0, pretend = 0, frame = 0
 183              		@ frame_needed = 0, uses_anonymous_args = 0
 184              		@ link register save eliminated.
 287:../../../easylogger/src/elog.c **** }
 185              		.loc 1 287 5 view .LVU37
 287:../../../easylogger/src/elog.c **** }
 186              		.loc 1 287 29 is_stmt 0 view .LVU38
 187 0000 014B     		ldr	r3, .L17
 188 0002 83F8F500 		strb	r0, [r3, #245]
 288:../../../easylogger/src/elog.c **** 
 189              		.loc 1 288 1 view .LVU39
 190 0006 7047     		bx	lr
 191              	.L18:
 192              		.align	2
 193              	.L17:
 194 0008 00000000 		.word	.LANCHOR0
 195              		.cfi_endproc
 196              	.LFE8:
 198              		.section	.text.elog_get_text_color_enabled,"ax",%progbits
 199              		.align	1
 200              		.global	elog_get_text_color_enabled
 201              		.syntax unified
 202              		.thumb
 203              		.thumb_func
 205              	elog_get_text_color_enabled:
 206              	.LFB9:
 295:../../../easylogger/src/elog.c ****     return elog.text_color_enabled;
 207              		.loc 1 295 40 is_stmt 1 view -0
 208              		.cfi_startproc
ARM GAS  C:\Users\Jim_YW\AppData\Local\Temp\ccykl1oO.s 			page 12


 209              		@ args = 0, pretend = 0, frame = 0
 210              		@ frame_needed = 0, uses_anonymous_args = 0
 211              		@ link register save eliminated.
 296:../../../easylogger/src/elog.c **** }
 212              		.loc 1 296 5 view .LVU41
 297:../../../easylogger/src/elog.c **** #endif /* ELOG_COLOR_ENABLE */
 213              		.loc 1 297 1 is_stmt 0 view .LVU42
 214 0000 014B     		ldr	r3, .L20
 215 0002 93F8F500 		ldrb	r0, [r3, #245]	@ zero_extendqisi2
 216 0006 7047     		bx	lr
 217              	.L21:
 218              		.align	2
 219              	.L20:
 220 0008 00000000 		.word	.LANCHOR0
 221              		.cfi_endproc
 222              	.LFE9:
 224              		.section	.text.elog_get_output_enabled,"ax",%progbits
 225              		.align	1
 226              		.global	elog_get_output_enabled
 227              		.syntax unified
 228              		.thumb
 229              		.thumb_func
 231              	elog_get_output_enabled:
 232              	.LFB10:
 305:../../../easylogger/src/elog.c ****     return elog.output_enabled;
 233              		.loc 1 305 36 is_stmt 1 view -0
 234              		.cfi_startproc
 235              		@ args = 0, pretend = 0, frame = 0
 236              		@ frame_needed = 0, uses_anonymous_args = 0
 237              		@ link register save eliminated.
 306:../../../easylogger/src/elog.c **** }
 238              		.loc 1 306 5 view .LVU44
 307:../../../easylogger/src/elog.c **** 
 239              		.loc 1 307 1 is_stmt 0 view .LVU45
 240 0000 014B     		ldr	r3, .L23
 241 0002 93F8F100 		ldrb	r0, [r3, #241]	@ zero_extendqisi2
 242 0006 7047     		bx	lr
 243              	.L24:
 244              		.align	2
 245              	.L23:
 246 0008 00000000 		.word	.LANCHOR0
 247              		.cfi_endproc
 248              	.LFE10:
 250              		.section	.text.elog_set_filter_tag,"ax",%progbits
 251              		.align	1
 252              		.global	elog_set_filter_tag
 253              		.syntax unified
 254              		.thumb
 255              		.thumb_func
 257              	elog_set_filter_tag:
 258              	.LVL10:
 259              	.LFB14:
 352:../../../easylogger/src/elog.c ****     strncpy(elog.filter.tag, tag, ELOG_FILTER_TAG_MAX_LEN);
 260              		.loc 1 352 43 is_stmt 1 view -0
 261              		.cfi_startproc
 262              		@ args = 0, pretend = 0, frame = 0
 263              		@ frame_needed = 0, uses_anonymous_args = 0
ARM GAS  C:\Users\Jim_YW\AppData\Local\Temp\ccykl1oO.s 			page 13


 352:../../../easylogger/src/elog.c ****     strncpy(elog.filter.tag, tag, ELOG_FILTER_TAG_MAX_LEN);
 264              		.loc 1 352 43 is_stmt 0 view .LVU47
 265 0000 08B5     		push	{r3, lr}
 266              	.LCFI2:
 267              		.cfi_def_cfa_offset 8
 268              		.cfi_offset 3, -8
 269              		.cfi_offset 14, -4
 270 0002 0146     		mov	r1, r0
 353:../../../easylogger/src/elog.c **** }
 271              		.loc 1 353 5 is_stmt 1 view .LVU48
 272 0004 1E22     		movs	r2, #30
 273 0006 0248     		ldr	r0, .L27
 274              	.LVL11:
 353:../../../easylogger/src/elog.c **** }
 275              		.loc 1 353 5 is_stmt 0 view .LVU49
 276 0008 FFF7FEFF 		bl	strncpy
 277              	.LVL12:
 354:../../../easylogger/src/elog.c **** 
 278              		.loc 1 354 1 view .LVU50
 279 000c 08BD     		pop	{r3, pc}
 280              	.L28:
 281 000e 00BF     		.align	2
 282              	.L27:
 283 0010 01000000 		.word	.LANCHOR0+1
 284              		.cfi_endproc
 285              	.LFE14:
 287              		.section	.text.elog_set_filter_kw,"ax",%progbits
 288              		.align	1
 289              		.global	elog_set_filter_kw
 290              		.syntax unified
 291              		.thumb
 292              		.thumb_func
 294              	elog_set_filter_kw:
 295              	.LVL13:
 296              	.LFB15:
 361:../../../easylogger/src/elog.c ****     strncpy(elog.filter.keyword, keyword, ELOG_FILTER_KW_MAX_LEN);
 297              		.loc 1 361 46 is_stmt 1 view -0
 298              		.cfi_startproc
 299              		@ args = 0, pretend = 0, frame = 0
 300              		@ frame_needed = 0, uses_anonymous_args = 0
 361:../../../easylogger/src/elog.c ****     strncpy(elog.filter.keyword, keyword, ELOG_FILTER_KW_MAX_LEN);
 301              		.loc 1 361 46 is_stmt 0 view .LVU52
 302 0000 08B5     		push	{r3, lr}
 303              	.LCFI3:
 304              		.cfi_def_cfa_offset 8
 305              		.cfi_offset 3, -8
 306              		.cfi_offset 14, -4
 307 0002 0146     		mov	r1, r0
 362:../../../easylogger/src/elog.c **** }
 308              		.loc 1 362 5 is_stmt 1 view .LVU53
 309 0004 1022     		movs	r2, #16
 310 0006 0248     		ldr	r0, .L31
 311              	.LVL14:
 362:../../../easylogger/src/elog.c **** }
 312              		.loc 1 362 5 is_stmt 0 view .LVU54
 313 0008 FFF7FEFF 		bl	strncpy
 314              	.LVL15:
ARM GAS  C:\Users\Jim_YW\AppData\Local\Temp\ccykl1oO.s 			page 14


 363:../../../easylogger/src/elog.c **** 
 315              		.loc 1 363 1 view .LVU55
 316 000c 08BD     		pop	{r3, pc}
 317              	.L32:
 318 000e 00BF     		.align	2
 319              	.L31:
 320 0010 20000000 		.word	.LANCHOR0+32
 321              		.cfi_endproc
 322              	.LFE15:
 324              		.section	.text.elog_output_lock,"ax",%progbits
 325              		.align	1
 326              		.global	elog_output_lock
 327              		.syntax unified
 328              		.thumb
 329              		.thumb_func
 331              	elog_output_lock:
 332              	.LFB16:
 368:../../../easylogger/src/elog.c ****     if (elog.output_lock_enabled) {
 333              		.loc 1 368 29 is_stmt 1 view -0
 334              		.cfi_startproc
 335              		@ args = 0, pretend = 0, frame = 0
 336              		@ frame_needed = 0, uses_anonymous_args = 0
 337 0000 08B5     		push	{r3, lr}
 338              	.LCFI4:
 339              		.cfi_def_cfa_offset 8
 340              		.cfi_offset 3, -8
 341              		.cfi_offset 14, -4
 369:../../../easylogger/src/elog.c ****         elog_port_output_lock();
 342              		.loc 1 369 5 view .LVU57
 369:../../../easylogger/src/elog.c ****         elog_port_output_lock();
 343              		.loc 1 369 13 is_stmt 0 view .LVU58
 344 0002 084B     		ldr	r3, .L38
 345 0004 93F8F230 		ldrb	r3, [r3, #242]	@ zero_extendqisi2
 369:../../../easylogger/src/elog.c ****         elog_port_output_lock();
 346              		.loc 1 369 8 view .LVU59
 347 0008 23B9     		cbnz	r3, .L37
 373:../../../easylogger/src/elog.c ****     }
 348              		.loc 1 373 9 is_stmt 1 view .LVU60
 373:../../../easylogger/src/elog.c ****     }
 349              		.loc 1 373 45 is_stmt 0 view .LVU61
 350 000a 064B     		ldr	r3, .L38
 351 000c 0122     		movs	r2, #1
 352 000e 83F8F320 		strb	r2, [r3, #243]
 353              	.L33:
 375:../../../easylogger/src/elog.c **** 
 354              		.loc 1 375 1 view .LVU62
 355 0012 08BD     		pop	{r3, pc}
 356              	.L37:
 370:../../../easylogger/src/elog.c ****         elog.output_is_locked_before_disable = true;
 357              		.loc 1 370 9 is_stmt 1 view .LVU63
 358 0014 FFF7FEFF 		bl	elog_port_output_lock
 359              	.LVL16:
 371:../../../easylogger/src/elog.c ****     } else {
 360              		.loc 1 371 9 view .LVU64
 371:../../../easylogger/src/elog.c ****     } else {
 361              		.loc 1 371 46 is_stmt 0 view .LVU65
 362 0018 024B     		ldr	r3, .L38
ARM GAS  C:\Users\Jim_YW\AppData\Local\Temp\ccykl1oO.s 			page 15


 363 001a 0122     		movs	r2, #1
 364 001c 83F8F420 		strb	r2, [r3, #244]
 365 0020 F7E7     		b	.L33
 366              	.L39:
 367 0022 00BF     		.align	2
 368              	.L38:
 369 0024 00000000 		.word	.LANCHOR0
 370              		.cfi_endproc
 371              	.LFE16:
 373              		.section	.text.elog_output_unlock,"ax",%progbits
 374              		.align	1
 375              		.global	elog_output_unlock
 376              		.syntax unified
 377              		.thumb
 378              		.thumb_func
 380              	elog_output_unlock:
 381              	.LFB17:
 380:../../../easylogger/src/elog.c ****     if (elog.output_lock_enabled) {
 382              		.loc 1 380 31 is_stmt 1 view -0
 383              		.cfi_startproc
 384              		@ args = 0, pretend = 0, frame = 0
 385              		@ frame_needed = 0, uses_anonymous_args = 0
 386 0000 08B5     		push	{r3, lr}
 387              	.LCFI5:
 388              		.cfi_def_cfa_offset 8
 389              		.cfi_offset 3, -8
 390              		.cfi_offset 14, -4
 381:../../../easylogger/src/elog.c ****         elog_port_output_unlock();
 391              		.loc 1 381 5 view .LVU67
 381:../../../easylogger/src/elog.c ****         elog_port_output_unlock();
 392              		.loc 1 381 13 is_stmt 0 view .LVU68
 393 0002 084B     		ldr	r3, .L45
 394 0004 93F8F230 		ldrb	r3, [r3, #242]	@ zero_extendqisi2
 381:../../../easylogger/src/elog.c ****         elog_port_output_unlock();
 395              		.loc 1 381 8 view .LVU69
 396 0008 23B9     		cbnz	r3, .L44
 385:../../../easylogger/src/elog.c ****     }
 397              		.loc 1 385 9 is_stmt 1 view .LVU70
 385:../../../easylogger/src/elog.c ****     }
 398              		.loc 1 385 45 is_stmt 0 view .LVU71
 399 000a 064B     		ldr	r3, .L45
 400 000c 0022     		movs	r2, #0
 401 000e 83F8F320 		strb	r2, [r3, #243]
 402              	.L40:
 387:../../../easylogger/src/elog.c **** 
 403              		.loc 1 387 1 view .LVU72
 404 0012 08BD     		pop	{r3, pc}
 405              	.L44:
 382:../../../easylogger/src/elog.c ****         elog.output_is_locked_before_disable = false;
 406              		.loc 1 382 9 is_stmt 1 view .LVU73
 407 0014 FFF7FEFF 		bl	elog_port_output_unlock
 408              	.LVL17:
 383:../../../easylogger/src/elog.c ****     } else {
 409              		.loc 1 383 9 view .LVU74
 383:../../../easylogger/src/elog.c ****     } else {
 410              		.loc 1 383 46 is_stmt 0 view .LVU75
 411 0018 024B     		ldr	r3, .L45
ARM GAS  C:\Users\Jim_YW\AppData\Local\Temp\ccykl1oO.s 			page 16


 412 001a 0022     		movs	r2, #0
 413 001c 83F8F420 		strb	r2, [r3, #244]
 414 0020 F7E7     		b	.L40
 415              	.L46:
 416 0022 00BF     		.align	2
 417              	.L45:
 418 0024 00000000 		.word	.LANCHOR0
 419              		.cfi_endproc
 420              	.LFE17:
 422              		.section	.text.elog_raw,"ax",%progbits
 423              		.align	1
 424              		.global	elog_raw
 425              		.syntax unified
 426              		.thumb
 427              		.thumb_func
 429              	elog_raw:
 430              	.LVL18:
 431              	.LFB21:
 402:../../../easylogger/src/elog.c **** 
 403:../../../easylogger/src/elog.c **** /**
 404:../../../easylogger/src/elog.c ****  * Set the filter's level by different tag.
 405:../../../easylogger/src/elog.c ****  * The log on this tag which level is less than it will stop output.
 406:../../../easylogger/src/elog.c ****  *
 407:../../../easylogger/src/elog.c ****  * example:
 408:../../../easylogger/src/elog.c ****  *     // the example tag log enter silent mode
 409:../../../easylogger/src/elog.c ****  *     elog_set_filter_tag_lvl("example", ELOG_FILTER_LVL_SILENT);
 410:../../../easylogger/src/elog.c ****  *     // the example tag log which level is less than INFO level will stop output
 411:../../../easylogger/src/elog.c ****  *     elog_set_filter_tag_lvl("example", ELOG_LVL_INFO);
 412:../../../easylogger/src/elog.c ****  *     // remove example tag's level filter, all level log will resume output
 413:../../../easylogger/src/elog.c ****  *     elog_set_filter_tag_lvl("example", ELOG_FILTER_LVL_ALL);
 414:../../../easylogger/src/elog.c ****  *
 415:../../../easylogger/src/elog.c ****  * @param tag log tag
 416:../../../easylogger/src/elog.c ****  * @param level The filter level. When the level is ELOG_FILTER_LVL_SILENT, the log enter silent mo
 417:../../../easylogger/src/elog.c ****  *        When the level is ELOG_FILTER_LVL_ALL, it will remove this tag's level filer.
 418:../../../easylogger/src/elog.c ****  *        Then all level log will resume output.
 419:../../../easylogger/src/elog.c ****  *
 420:../../../easylogger/src/elog.c ****  */
 421:../../../easylogger/src/elog.c **** void elog_set_filter_tag_lvl(const char *tag, uint8_t level)
 422:../../../easylogger/src/elog.c **** {
 423:../../../easylogger/src/elog.c ****     ELOG_ASSERT(level <= ELOG_LVL_VERBOSE);
 424:../../../easylogger/src/elog.c ****     ELOG_ASSERT(tag != ((void *)0));
 425:../../../easylogger/src/elog.c ****     uint8_t i = 0;
 426:../../../easylogger/src/elog.c **** 
 427:../../../easylogger/src/elog.c ****     if (!elog.init_ok) {
 428:../../../easylogger/src/elog.c ****         return;
 429:../../../easylogger/src/elog.c ****     }
 430:../../../easylogger/src/elog.c **** 
 431:../../../easylogger/src/elog.c ****     elog_output_lock();
 432:../../../easylogger/src/elog.c ****     /* find the tag in arr */
 433:../../../easylogger/src/elog.c ****     for (i =0; i< ELOG_FILTER_TAG_LVL_MAX_NUM; i++){
 434:../../../easylogger/src/elog.c ****         if (elog.filter.tag_lvl[i].tag_use_flag == true &&
 435:../../../easylogger/src/elog.c ****             !strncmp(tag, elog.filter.tag_lvl[i].tag,ELOG_FILTER_TAG_MAX_LEN)){
 436:../../../easylogger/src/elog.c ****             break;
 437:../../../easylogger/src/elog.c ****         }
 438:../../../easylogger/src/elog.c ****     }
 439:../../../easylogger/src/elog.c **** 
 440:../../../easylogger/src/elog.c ****     if (i < ELOG_FILTER_TAG_LVL_MAX_NUM){
ARM GAS  C:\Users\Jim_YW\AppData\Local\Temp\ccykl1oO.s 			page 17


 441:../../../easylogger/src/elog.c ****         /* find OK */
 442:../../../easylogger/src/elog.c ****         if (level == ELOG_FILTER_LVL_ALL){
 443:../../../easylogger/src/elog.c ****             /* remove current tag's level filter when input level is the lowest level */
 444:../../../easylogger/src/elog.c ****              elog.filter.tag_lvl[i].tag_use_flag = false;
 445:../../../easylogger/src/elog.c ****              memset(elog.filter.tag_lvl[i].tag, '\0', ELOG_FILTER_TAG_MAX_LEN + 1);
 446:../../../easylogger/src/elog.c ****              elog.filter.tag_lvl[i].level = ELOG_FILTER_LVL_SILENT;
 447:../../../easylogger/src/elog.c ****         } else{
 448:../../../easylogger/src/elog.c ****             elog.filter.tag_lvl[i].level = level;
 449:../../../easylogger/src/elog.c ****         }
 450:../../../easylogger/src/elog.c ****     } else{
 451:../../../easylogger/src/elog.c ****         /* only add the new tag's level filer when level is not ELOG_FILTER_LVL_ALL */
 452:../../../easylogger/src/elog.c ****         if (level != ELOG_FILTER_LVL_ALL){
 453:../../../easylogger/src/elog.c ****             for (i =0; i< ELOG_FILTER_TAG_LVL_MAX_NUM; i++){
 454:../../../easylogger/src/elog.c ****                 if (elog.filter.tag_lvl[i].tag_use_flag == false){
 455:../../../easylogger/src/elog.c ****                     strncpy(elog.filter.tag_lvl[i].tag, tag, ELOG_FILTER_TAG_MAX_LEN);
 456:../../../easylogger/src/elog.c ****                     elog.filter.tag_lvl[i].level = level;
 457:../../../easylogger/src/elog.c ****                     elog.filter.tag_lvl[i].tag_use_flag = true;
 458:../../../easylogger/src/elog.c ****                     break;
 459:../../../easylogger/src/elog.c ****                 }
 460:../../../easylogger/src/elog.c ****             }
 461:../../../easylogger/src/elog.c ****         }
 462:../../../easylogger/src/elog.c ****     }
 463:../../../easylogger/src/elog.c ****     elog_output_unlock();
 464:../../../easylogger/src/elog.c **** }
 465:../../../easylogger/src/elog.c **** 
 466:../../../easylogger/src/elog.c **** /**
 467:../../../easylogger/src/elog.c ****  * get the level on tag's level filer
 468:../../../easylogger/src/elog.c ****  *
 469:../../../easylogger/src/elog.c ****  * @param tag tag
 470:../../../easylogger/src/elog.c ****  *
 471:../../../easylogger/src/elog.c ****  * @return It will return the lowest level when tag was not found.
 472:../../../easylogger/src/elog.c ****  *         Other level will return when tag was found.
 473:../../../easylogger/src/elog.c ****  */
 474:../../../easylogger/src/elog.c **** uint8_t elog_get_filter_tag_lvl(const char *tag)
 475:../../../easylogger/src/elog.c **** {
 476:../../../easylogger/src/elog.c ****     ELOG_ASSERT(tag != ((void *)0));
 477:../../../easylogger/src/elog.c ****     uint8_t i = 0;
 478:../../../easylogger/src/elog.c ****     uint8_t level = ELOG_FILTER_LVL_ALL;
 479:../../../easylogger/src/elog.c **** 
 480:../../../easylogger/src/elog.c ****     if (!elog.init_ok) {
 481:../../../easylogger/src/elog.c ****         return level;
 482:../../../easylogger/src/elog.c ****     }
 483:../../../easylogger/src/elog.c **** 
 484:../../../easylogger/src/elog.c ****     elog_output_lock();
 485:../../../easylogger/src/elog.c ****     /* find the tag in arr */
 486:../../../easylogger/src/elog.c ****     for (i =0; i< ELOG_FILTER_TAG_LVL_MAX_NUM; i++){
 487:../../../easylogger/src/elog.c ****         if (elog.filter.tag_lvl[i].tag_use_flag == true &&
 488:../../../easylogger/src/elog.c ****             !strncmp(tag, elog.filter.tag_lvl[i].tag,ELOG_FILTER_TAG_MAX_LEN)){
 489:../../../easylogger/src/elog.c ****             level = elog.filter.tag_lvl[i].level;
 490:../../../easylogger/src/elog.c ****             break;
 491:../../../easylogger/src/elog.c ****         }
 492:../../../easylogger/src/elog.c ****     }
 493:../../../easylogger/src/elog.c ****     elog_output_unlock();
 494:../../../easylogger/src/elog.c **** 
 495:../../../easylogger/src/elog.c ****     return level;
 496:../../../easylogger/src/elog.c **** }
 497:../../../easylogger/src/elog.c **** 
ARM GAS  C:\Users\Jim_YW\AppData\Local\Temp\ccykl1oO.s 			page 18


 498:../../../easylogger/src/elog.c **** /**
 499:../../../easylogger/src/elog.c ****  * output RAW format log
 500:../../../easylogger/src/elog.c ****  *
 501:../../../easylogger/src/elog.c ****  * @param format output format
 502:../../../easylogger/src/elog.c ****  * @param ... args
 503:../../../easylogger/src/elog.c ****  */
 504:../../../easylogger/src/elog.c **** void elog_raw(const char *format, ...) {
 432              		.loc 1 504 40 is_stmt 1 view -0
 433              		.cfi_startproc
 434              		@ args = 4, pretend = 16, frame = 8
 435              		@ frame_needed = 0, uses_anonymous_args = 1
 436              		.loc 1 504 40 is_stmt 0 view .LVU77
 437 0000 0FB4     		push	{r0, r1, r2, r3}
 438              	.LCFI6:
 439              		.cfi_def_cfa_offset 16
 440              		.cfi_offset 0, -16
 441              		.cfi_offset 1, -12
 442              		.cfi_offset 2, -8
 443              		.cfi_offset 3, -4
 444 0002 00B5     		push	{lr}
 445              	.LCFI7:
 446              		.cfi_def_cfa_offset 20
 447              		.cfi_offset 14, -20
 448 0004 83B0     		sub	sp, sp, #12
 449              	.LCFI8:
 450              		.cfi_def_cfa_offset 32
 505:../../../easylogger/src/elog.c ****     va_list args;
 451              		.loc 1 505 5 is_stmt 1 view .LVU78
 506:../../../easylogger/src/elog.c ****     size_t log_len = 0;
 452              		.loc 1 506 5 view .LVU79
 453              	.LVL19:
 507:../../../easylogger/src/elog.c ****     int fmt_result;
 454              		.loc 1 507 5 view .LVU80
 508:../../../easylogger/src/elog.c **** 
 509:../../../easylogger/src/elog.c ****     /* check output enabled */
 510:../../../easylogger/src/elog.c ****     if (!elog.output_enabled) {
 455              		.loc 1 510 5 view .LVU81
 456              		.loc 1 510 14 is_stmt 0 view .LVU82
 457 0006 104B     		ldr	r3, .L53
 458 0008 93F8F130 		ldrb	r3, [r3, #241]	@ zero_extendqisi2
 459              		.loc 1 510 8 view .LVU83
 460 000c 23B9     		cbnz	r3, .L52
 461              	.LVL20:
 462              	.L47:
 511:../../../easylogger/src/elog.c ****         return;
 512:../../../easylogger/src/elog.c ****     }
 513:../../../easylogger/src/elog.c **** 
 514:../../../easylogger/src/elog.c ****     /* args point to the first variable parameter */
 515:../../../easylogger/src/elog.c ****     va_start(args, format);
 516:../../../easylogger/src/elog.c **** 
 517:../../../easylogger/src/elog.c ****     /* lock output */
 518:../../../easylogger/src/elog.c ****     elog_output_lock();
 519:../../../easylogger/src/elog.c **** 
 520:../../../easylogger/src/elog.c ****     /* package log data to buffer */
 521:../../../easylogger/src/elog.c ****     fmt_result = vsnprintf(log_buf, ELOG_LINE_BUF_SIZE, format, args);
 522:../../../easylogger/src/elog.c **** 
 523:../../../easylogger/src/elog.c ****     /* output converted log */
ARM GAS  C:\Users\Jim_YW\AppData\Local\Temp\ccykl1oO.s 			page 19


 524:../../../easylogger/src/elog.c ****     if ((fmt_result > -1) && (fmt_result <= ELOG_LINE_BUF_SIZE)) {
 525:../../../easylogger/src/elog.c ****         log_len = fmt_result;
 526:../../../easylogger/src/elog.c ****     } else {
 527:../../../easylogger/src/elog.c ****         log_len = ELOG_LINE_BUF_SIZE;
 528:../../../easylogger/src/elog.c ****     }
 529:../../../easylogger/src/elog.c ****     /* output log */
 530:../../../easylogger/src/elog.c **** #if defined(ELOG_ASYNC_OUTPUT_ENABLE)
 531:../../../easylogger/src/elog.c ****     extern void elog_async_output(uint8_t level, const char *log, size_t size);
 532:../../../easylogger/src/elog.c ****     /* raw log will using assert level */
 533:../../../easylogger/src/elog.c ****     elog_async_output(ELOG_LVL_ASSERT, log_buf, log_len);
 534:../../../easylogger/src/elog.c **** #elif defined(ELOG_BUF_OUTPUT_ENABLE)
 535:../../../easylogger/src/elog.c ****     extern void elog_buf_output(const char *log, size_t size);
 536:../../../easylogger/src/elog.c ****     elog_buf_output(log_buf, log_len);
 537:../../../easylogger/src/elog.c **** #else
 538:../../../easylogger/src/elog.c ****     elog_port_output(log_buf, log_len);
 539:../../../easylogger/src/elog.c **** #endif
 540:../../../easylogger/src/elog.c ****     /* unlock output */
 541:../../../easylogger/src/elog.c ****     elog_output_unlock();
 542:../../../easylogger/src/elog.c **** 
 543:../../../easylogger/src/elog.c ****     va_end(args);
 544:../../../easylogger/src/elog.c **** }
 463              		.loc 1 544 1 view .LVU84
 464 000e 03B0     		add	sp, sp, #12
 465              	.LCFI9:
 466              		.cfi_remember_state
 467              		.cfi_def_cfa_offset 20
 468              		@ sp needed
 469 0010 5DF804EB 		ldr	lr, [sp], #4
 470              	.LCFI10:
 471              		.cfi_restore 14
 472              		.cfi_def_cfa_offset 16
 473 0014 04B0     		add	sp, sp, #16
 474              	.LCFI11:
 475              		.cfi_restore 3
 476              		.cfi_restore 2
 477              		.cfi_restore 1
 478              		.cfi_restore 0
 479              		.cfi_def_cfa_offset 0
 480 0016 7047     		bx	lr
 481              	.LVL21:
 482              	.L52:
 483              	.LCFI12:
 484              		.cfi_restore_state
 515:../../../easylogger/src/elog.c **** 
 485              		.loc 1 515 5 is_stmt 1 view .LVU85
 486 0018 05AB     		add	r3, sp, #20
 487 001a 0193     		str	r3, [sp, #4]
 518:../../../easylogger/src/elog.c **** 
 488              		.loc 1 518 5 view .LVU86
 489 001c FFF7FEFF 		bl	elog_output_lock
 490              	.LVL22:
 521:../../../easylogger/src/elog.c **** 
 491              		.loc 1 521 5 view .LVU87
 521:../../../easylogger/src/elog.c **** 
 492              		.loc 1 521 18 is_stmt 0 view .LVU88
 493 0020 019B     		ldr	r3, [sp, #4]
 494 0022 049A     		ldr	r2, [sp, #16]
ARM GAS  C:\Users\Jim_YW\AppData\Local\Temp\ccykl1oO.s 			page 20


 495 0024 4FF40071 		mov	r1, #512
 496 0028 0848     		ldr	r0, .L53+4
 497 002a FFF7FEFF 		bl	vsnprintf
 498              	.LVL23:
 499 002e 0246     		mov	r2, r0
 524:../../../easylogger/src/elog.c ****         log_len = fmt_result;
 500              		.loc 1 524 5 is_stmt 1 view .LVU89
 524:../../../easylogger/src/elog.c ****         log_len = fmt_result;
 501              		.loc 1 524 8 is_stmt 0 view .LVU90
 502 0030 B0F5007F 		cmp	r0, #512
 503 0034 01D9     		bls	.L50
 527:../../../easylogger/src/elog.c ****     }
 504              		.loc 1 527 17 view .LVU91
 505 0036 4FF40072 		mov	r2, #512
 506              	.L50:
 507              	.LVL24:
 531:../../../easylogger/src/elog.c ****     /* raw log will using assert level */
 508              		.loc 1 531 5 is_stmt 1 view .LVU92
 533:../../../easylogger/src/elog.c **** #elif defined(ELOG_BUF_OUTPUT_ENABLE)
 509              		.loc 1 533 5 view .LVU93
 510 003a 0449     		ldr	r1, .L53+4
 511 003c 0020     		movs	r0, #0
 512 003e FFF7FEFF 		bl	elog_async_output
 513              	.LVL25:
 541:../../../easylogger/src/elog.c **** 
 514              		.loc 1 541 5 view .LVU94
 515 0042 FFF7FEFF 		bl	elog_output_unlock
 516              	.LVL26:
 543:../../../easylogger/src/elog.c **** }
 517              		.loc 1 543 5 view .LVU95
 518 0046 E2E7     		b	.L47
 519              	.L54:
 520              		.align	2
 521              	.L53:
 522 0048 00000000 		.word	.LANCHOR0
 523 004c 00000000 		.word	.LANCHOR1
 524              		.cfi_endproc
 525              	.LFE21:
 527              		.section	.rodata.elog_output.str1.4,"aMS",%progbits,1
 528              		.align	2
 529              	.LC0:
 530 0000 2E2E2F2E 		.ascii	"../../../easylogger/src/elog.c\000"
 530      2E2F2E2E 
 530      2F656173 
 530      796C6F67 
 530      6765722F 
 531 001f 00       		.align	2
 532              	.LC1:
 533 0020 656C6F67 		.ascii	"elog\000"
 533      00
 534 0025 000000   		.align	2
 535              	.LC2:
 536 0028 6C657665 		.ascii	"level <= ELOG_LVL_VERBOSE\000"
 536      6C203C3D 
 536      20454C4F 
 536      475F4C56 
 536      4C5F5645 
ARM GAS  C:\Users\Jim_YW\AppData\Local\Temp\ccykl1oO.s 			page 21


 537 0042 0000     		.align	2
 538              	.LC3:
 539 0044 28257329 		.ascii	"(%s) has assert failed at %s:%ld.\000"
 539      20686173 
 539      20617373 
 539      65727420 
 539      6661696C 
 540 0066 0000     		.align	2
 541              	.LC4:
 542 0068 1B5B00   		.ascii	"\033[\000"
 543 006b 00       		.align	2
 544              	.LC5:
 545 006c 2000     		.ascii	" \000"
 546 006e 0000     		.align	2
 547              	.LC6:
 548 0070 5B00     		.ascii	"[\000"
 549 0072 0000     		.align	2
 550              	.LC7:
 551 0074 5D2000   		.ascii	"] \000"
 552 0077 00       		.align	2
 553              	.LC8:
 554 0078 2800     		.ascii	"(\000"
 555 007a 0000     		.align	2
 556              	.LC9:
 557 007c 3A00     		.ascii	":\000"
 558 007e 0000     		.align	2
 559              	.LC10:
 560 0080 256C6400 		.ascii	"%ld\000"
 561              		.align	2
 562              	.LC11:
 563 0084 2900     		.ascii	")\000"
 564 0086 0000     		.align	2
 565              	.LC12:
 566 0088 1B5B306D 		.ascii	"\033[0m\000"
 566      00
 567 008d 000000   		.align	2
 568              	.LC13:
 569 0090 0D0A00   		.ascii	"\015\012\000"
 570              		.section	.text.elog_output,"ax",%progbits
 571              		.align	1
 572              		.global	elog_output
 573              		.syntax unified
 574              		.thumb
 575              		.thumb_func
 577              	elog_output:
 578              	.LVL27:
 579              	.LFB22:
 545:../../../easylogger/src/elog.c **** 
 546:../../../easylogger/src/elog.c **** /**
 547:../../../easylogger/src/elog.c ****  * output the log
 548:../../../easylogger/src/elog.c ****  *
 549:../../../easylogger/src/elog.c ****  * @param level level
 550:../../../easylogger/src/elog.c ****  * @param tag tag
 551:../../../easylogger/src/elog.c ****  * @param file file name
 552:../../../easylogger/src/elog.c ****  * @param func function name
 553:../../../easylogger/src/elog.c ****  * @param line line number
 554:../../../easylogger/src/elog.c ****  * @param format output format
ARM GAS  C:\Users\Jim_YW\AppData\Local\Temp\ccykl1oO.s 			page 22


 555:../../../easylogger/src/elog.c ****  * @param ... args
 556:../../../easylogger/src/elog.c ****  *
 557:../../../easylogger/src/elog.c ****  */
 558:../../../easylogger/src/elog.c **** void elog_output(uint8_t level, const char *tag, const char *file, const char *func,
 559:../../../easylogger/src/elog.c ****         const long line, const char *format, ...) {
 580              		.loc 1 559 51 view -0
 581              		.cfi_startproc
 582              		@ args = 8, pretend = 0, frame = 32
 583              		@ frame_needed = 0, uses_anonymous_args = 1
 584              		.loc 1 559 51 is_stmt 0 view .LVU97
 585 0000 2DE9F047 		push	{r4, r5, r6, r7, r8, r9, r10, lr}
 586              	.LCFI13:
 587              		.cfi_def_cfa_offset 32
 588              		.cfi_offset 4, -32
 589              		.cfi_offset 5, -28
 590              		.cfi_offset 6, -24
 591              		.cfi_offset 7, -20
 592              		.cfi_offset 8, -16
 593              		.cfi_offset 9, -12
 594              		.cfi_offset 10, -8
 595              		.cfi_offset 14, -4
 596 0004 8EB0     		sub	sp, sp, #56
 597              	.LCFI14:
 598              		.cfi_def_cfa_offset 88
 599 0006 0546     		mov	r5, r0
 600 0008 0E46     		mov	r6, r1
 601 000a 9046     		mov	r8, r2
 602 000c 9946     		mov	r9, r3
 560:../../../easylogger/src/elog.c ****     extern const char *elog_port_get_time(void);
 603              		.loc 1 560 5 is_stmt 1 view .LVU98
 561:../../../easylogger/src/elog.c ****     extern const char *elog_port_get_p_info(void);
 604              		.loc 1 561 5 view .LVU99
 562:../../../easylogger/src/elog.c ****     extern const char *elog_port_get_t_info(void);
 605              		.loc 1 562 5 view .LVU100
 563:../../../easylogger/src/elog.c **** 
 564:../../../easylogger/src/elog.c ****     size_t tag_len = strlen(tag), log_len = 0, newline_len = strlen(ELOG_NEWLINE_SIGN);
 606              		.loc 1 564 5 view .LVU101
 607              		.loc 1 564 22 is_stmt 0 view .LVU102
 608 000e 0846     		mov	r0, r1
 609              	.LVL28:
 610              		.loc 1 564 22 view .LVU103
 611 0010 FFF7FEFF 		bl	strlen
 612              	.LVL29:
 613              		.loc 1 564 22 view .LVU104
 614 0014 0746     		mov	r7, r0
 615              	.LVL30:
 565:../../../easylogger/src/elog.c ****     char line_num[ELOG_LINE_NUM_MAX_LEN + 1] = { 0 };
 616              		.loc 1 565 5 is_stmt 1 view .LVU105
 617              		.loc 1 565 10 is_stmt 0 view .LVU106
 618 0016 0024     		movs	r4, #0
 619 0018 0C94     		str	r4, [sp, #48]
 620 001a ADF83440 		strh	r4, [sp, #52]	@ movhi
 566:../../../easylogger/src/elog.c ****     char tag_sapce[ELOG_FILTER_TAG_MAX_LEN / 2 + 1] = { 0 };
 621              		.loc 1 566 5 is_stmt 1 view .LVU107
 622              		.loc 1 566 10 is_stmt 0 view .LVU108
 623 001e 0894     		str	r4, [sp, #32]
 624 0020 0994     		str	r4, [sp, #36]
ARM GAS  C:\Users\Jim_YW\AppData\Local\Temp\ccykl1oO.s 			page 23


 625 0022 0A94     		str	r4, [sp, #40]
 626 0024 0B94     		str	r4, [sp, #44]
 567:../../../easylogger/src/elog.c ****     va_list args;
 627              		.loc 1 567 5 is_stmt 1 view .LVU109
 568:../../../easylogger/src/elog.c ****     int fmt_result;
 628              		.loc 1 568 5 view .LVU110
 569:../../../easylogger/src/elog.c **** 
 570:../../../easylogger/src/elog.c ****     ELOG_ASSERT(level <= ELOG_LVL_VERBOSE);
 629              		.loc 1 570 5 view .LVU111
 630 0026 052D     		cmp	r5, #5
 631 0028 07D9     		bls	.L56
 632              		.loc 1 570 5 discriminator 1 view .LVU112
 633 002a AC4B     		ldr	r3, .L100
 634 002c 1B68     		ldr	r3, [r3]
 635 002e 7BB1     		cbz	r3, .L84
 636              		.loc 1 570 5 discriminator 4 view .LVU113
 637 0030 40F23A22 		movw	r2, #570
 638 0034 AA49     		ldr	r1, .L100+4
 639 0036 AB48     		ldr	r0, .L100+8
 640              	.LVL31:
 641              		.loc 1 570 5 is_stmt 0 discriminator 4 view .LVU114
 642 0038 9847     		blx	r3
 643              	.LVL32:
 644              	.L56:
 645              		.loc 1 570 43 is_stmt 1 discriminator 6 view .LVU115
 571:../../../easylogger/src/elog.c **** 
 572:../../../easylogger/src/elog.c ****     /* check output enabled */
 573:../../../easylogger/src/elog.c ****     if (!elog.output_enabled) {
 646              		.loc 1 573 5 discriminator 6 view .LVU116
 647              		.loc 1 573 14 is_stmt 0 discriminator 6 view .LVU117
 648 003a AB4B     		ldr	r3, .L100+12
 649 003c 93F8F130 		ldrb	r3, [r3, #241]	@ zero_extendqisi2
 650              		.loc 1 573 8 discriminator 6 view .LVU118
 651 0040 1BB1     		cbz	r3, .L55
 574:../../../easylogger/src/elog.c ****         return;
 575:../../../easylogger/src/elog.c ****     }
 576:../../../easylogger/src/elog.c ****     /* level filter */
 577:../../../easylogger/src/elog.c ****     if (level > elog.filter.level || level > elog_get_filter_tag_lvl(tag)) {
 652              		.loc 1 577 5 is_stmt 1 view .LVU119
 653              		.loc 1 577 28 is_stmt 0 view .LVU120
 654 0042 A94B     		ldr	r3, .L100+12
 655 0044 1B78     		ldrb	r3, [r3]	@ zero_extendqisi2
 656              		.loc 1 577 8 view .LVU121
 657 0046 AB42     		cmp	r3, r5
 658 0048 12D2     		bcs	.L85
 659              	.LVL33:
 660              	.L55:
 578:../../../easylogger/src/elog.c ****         return;
 579:../../../easylogger/src/elog.c ****     } else if (!strstr(tag, elog.filter.tag)) { /* tag filter */
 580:../../../easylogger/src/elog.c ****         return;
 581:../../../easylogger/src/elog.c ****     }
 582:../../../easylogger/src/elog.c ****     /* args point to the first variable parameter */
 583:../../../easylogger/src/elog.c ****     va_start(args, format);
 584:../../../easylogger/src/elog.c ****     /* lock output */
 585:../../../easylogger/src/elog.c ****     elog_output_lock();
 586:../../../easylogger/src/elog.c **** 
 587:../../../easylogger/src/elog.c **** #ifdef ELOG_COLOR_ENABLE
ARM GAS  C:\Users\Jim_YW\AppData\Local\Temp\ccykl1oO.s 			page 24


 588:../../../easylogger/src/elog.c ****     /* add CSI start sign and color info */
 589:../../../easylogger/src/elog.c ****     if (elog.text_color_enabled) {
 590:../../../easylogger/src/elog.c ****         log_len += elog_strcpy(log_len, log_buf + log_len, CSI_START);
 591:../../../easylogger/src/elog.c ****         log_len += elog_strcpy(log_len, log_buf + log_len, color_output_info[level]);
 592:../../../easylogger/src/elog.c ****     }
 593:../../../easylogger/src/elog.c **** #endif
 594:../../../easylogger/src/elog.c **** 
 595:../../../easylogger/src/elog.c ****     /* package level info */
 596:../../../easylogger/src/elog.c ****     if (get_fmt_enabled(level, ELOG_FMT_LVL)) {
 597:../../../easylogger/src/elog.c ****         log_len += elog_strcpy(log_len, log_buf + log_len, level_output_info[level]);
 598:../../../easylogger/src/elog.c ****     }
 599:../../../easylogger/src/elog.c ****     /* package tag info */
 600:../../../easylogger/src/elog.c ****     if (get_fmt_enabled(level, ELOG_FMT_TAG)) {
 601:../../../easylogger/src/elog.c ****         log_len += elog_strcpy(log_len, log_buf + log_len, tag);
 602:../../../easylogger/src/elog.c ****         /* if the tag length is less than 50% ELOG_FILTER_TAG_MAX_LEN, then fill space */
 603:../../../easylogger/src/elog.c ****         if (tag_len <= ELOG_FILTER_TAG_MAX_LEN / 2) {
 604:../../../easylogger/src/elog.c ****             memset(tag_sapce, ' ', ELOG_FILTER_TAG_MAX_LEN / 2 - tag_len);
 605:../../../easylogger/src/elog.c ****             log_len += elog_strcpy(log_len, log_buf + log_len, tag_sapce);
 606:../../../easylogger/src/elog.c ****         }
 607:../../../easylogger/src/elog.c ****         log_len += elog_strcpy(log_len, log_buf + log_len, " ");
 608:../../../easylogger/src/elog.c ****     }
 609:../../../easylogger/src/elog.c ****     /* package time, process and thread info */
 610:../../../easylogger/src/elog.c ****     if (get_fmt_enabled(level, ELOG_FMT_TIME | ELOG_FMT_P_INFO | ELOG_FMT_T_INFO)) {
 611:../../../easylogger/src/elog.c ****         log_len += elog_strcpy(log_len, log_buf + log_len, "[");
 612:../../../easylogger/src/elog.c ****         /* package time info */
 613:../../../easylogger/src/elog.c ****         if (get_fmt_enabled(level, ELOG_FMT_TIME)) {
 614:../../../easylogger/src/elog.c ****             log_len += elog_strcpy(log_len, log_buf + log_len, elog_port_get_time());
 615:../../../easylogger/src/elog.c ****             if (get_fmt_enabled(level, ELOG_FMT_P_INFO | ELOG_FMT_T_INFO)) {
 616:../../../easylogger/src/elog.c ****                 log_len += elog_strcpy(log_len, log_buf + log_len, " ");
 617:../../../easylogger/src/elog.c ****             }
 618:../../../easylogger/src/elog.c ****         }
 619:../../../easylogger/src/elog.c ****         /* package process info */
 620:../../../easylogger/src/elog.c ****         if (get_fmt_enabled(level, ELOG_FMT_P_INFO)) {
 621:../../../easylogger/src/elog.c ****             log_len += elog_strcpy(log_len, log_buf + log_len, elog_port_get_p_info());
 622:../../../easylogger/src/elog.c ****             if (get_fmt_enabled(level, ELOG_FMT_T_INFO)) {
 623:../../../easylogger/src/elog.c ****                 log_len += elog_strcpy(log_len, log_buf + log_len, " ");
 624:../../../easylogger/src/elog.c ****             }
 625:../../../easylogger/src/elog.c ****         }
 626:../../../easylogger/src/elog.c ****         /* package thread info */
 627:../../../easylogger/src/elog.c ****         if (get_fmt_enabled(level, ELOG_FMT_T_INFO)) {
 628:../../../easylogger/src/elog.c ****             log_len += elog_strcpy(log_len, log_buf + log_len, elog_port_get_t_info());
 629:../../../easylogger/src/elog.c ****         }
 630:../../../easylogger/src/elog.c ****         log_len += elog_strcpy(log_len, log_buf + log_len, "] ");
 631:../../../easylogger/src/elog.c ****     }
 632:../../../easylogger/src/elog.c ****     /* package file directory and name, function name and line number info */
 633:../../../easylogger/src/elog.c ****     if (get_fmt_enabled(level, ELOG_FMT_DIR | ELOG_FMT_FUNC | ELOG_FMT_LINE)) {
 634:../../../easylogger/src/elog.c ****         log_len += elog_strcpy(log_len, log_buf + log_len, "(");
 635:../../../easylogger/src/elog.c ****         /* package file info */
 636:../../../easylogger/src/elog.c ****         if (get_fmt_enabled(level, ELOG_FMT_DIR)) {
 637:../../../easylogger/src/elog.c ****             log_len += elog_strcpy(log_len, log_buf + log_len, file);
 638:../../../easylogger/src/elog.c ****             if (get_fmt_enabled(level, ELOG_FMT_FUNC)) {
 639:../../../easylogger/src/elog.c ****                 log_len += elog_strcpy(log_len, log_buf + log_len, ":");
 640:../../../easylogger/src/elog.c ****             } else if (get_fmt_enabled(level, ELOG_FMT_LINE)) {
 641:../../../easylogger/src/elog.c ****                 log_len += elog_strcpy(log_len, log_buf + log_len, " ");
 642:../../../easylogger/src/elog.c ****             }
 643:../../../easylogger/src/elog.c ****         }
 644:../../../easylogger/src/elog.c ****         /* package line info */
ARM GAS  C:\Users\Jim_YW\AppData\Local\Temp\ccykl1oO.s 			page 25


 645:../../../easylogger/src/elog.c ****         if (get_fmt_enabled(level, ELOG_FMT_LINE)) {
 646:../../../easylogger/src/elog.c ****             snprintf(line_num, ELOG_LINE_NUM_MAX_LEN, "%ld", line);
 647:../../../easylogger/src/elog.c ****             log_len += elog_strcpy(log_len, log_buf + log_len, line_num);
 648:../../../easylogger/src/elog.c ****             if (get_fmt_enabled(level, ELOG_FMT_FUNC)) {
 649:../../../easylogger/src/elog.c ****                 log_len += elog_strcpy(log_len, log_buf + log_len, " ");
 650:../../../easylogger/src/elog.c ****             }
 651:../../../easylogger/src/elog.c ****         }
 652:../../../easylogger/src/elog.c ****         /* package func info */
 653:../../../easylogger/src/elog.c ****         if (get_fmt_enabled(level, ELOG_FMT_FUNC)) {
 654:../../../easylogger/src/elog.c ****             log_len += elog_strcpy(log_len, log_buf + log_len, func);
 655:../../../easylogger/src/elog.c ****             
 656:../../../easylogger/src/elog.c ****         }
 657:../../../easylogger/src/elog.c ****         log_len += elog_strcpy(log_len, log_buf + log_len, ")");
 658:../../../easylogger/src/elog.c ****     }
 659:../../../easylogger/src/elog.c ****     /* package other log data to buffer. '\0' must be added in the end by vsnprintf. */
 660:../../../easylogger/src/elog.c ****     fmt_result = vsnprintf(log_buf + log_len, ELOG_LINE_BUF_SIZE - log_len, format, args);
 661:../../../easylogger/src/elog.c **** 
 662:../../../easylogger/src/elog.c ****     va_end(args);
 663:../../../easylogger/src/elog.c ****     /* calculate log length */
 664:../../../easylogger/src/elog.c ****     if ((log_len + fmt_result <= ELOG_LINE_BUF_SIZE) && (fmt_result > -1)) {
 665:../../../easylogger/src/elog.c ****         log_len += fmt_result;
 666:../../../easylogger/src/elog.c ****     } else {
 667:../../../easylogger/src/elog.c ****         /* using max length */
 668:../../../easylogger/src/elog.c ****         log_len = ELOG_LINE_BUF_SIZE;
 669:../../../easylogger/src/elog.c ****     }
 670:../../../easylogger/src/elog.c ****     /* overflow check and reserve some space for CSI end sign and newline sign */
 671:../../../easylogger/src/elog.c **** #ifdef ELOG_COLOR_ENABLE
 672:../../../easylogger/src/elog.c ****     if (log_len + (sizeof(CSI_END) - 1) + newline_len > ELOG_LINE_BUF_SIZE) {
 673:../../../easylogger/src/elog.c ****         /* using max length */
 674:../../../easylogger/src/elog.c ****         log_len = ELOG_LINE_BUF_SIZE;
 675:../../../easylogger/src/elog.c ****         /* reserve some space for CSI end sign */
 676:../../../easylogger/src/elog.c ****         log_len -= (sizeof(CSI_END) - 1);
 677:../../../easylogger/src/elog.c **** #else
 678:../../../easylogger/src/elog.c ****     if (log_len + newline_len > ELOG_LINE_BUF_SIZE) {
 679:../../../easylogger/src/elog.c ****         /* using max length */
 680:../../../easylogger/src/elog.c ****         log_len = ELOG_LINE_BUF_SIZE;
 681:../../../easylogger/src/elog.c **** #endif /* ELOG_COLOR_ENABLE */
 682:../../../easylogger/src/elog.c ****         /* reserve some space for newline sign */
 683:../../../easylogger/src/elog.c ****         log_len -= newline_len;
 684:../../../easylogger/src/elog.c ****     }
 685:../../../easylogger/src/elog.c ****     /* keyword filter */
 686:../../../easylogger/src/elog.c ****     if (elog.filter.keyword[0] != '\0') {
 687:../../../easylogger/src/elog.c ****         /* add string end sign */
 688:../../../easylogger/src/elog.c ****         log_buf[log_len] = '\0';
 689:../../../easylogger/src/elog.c ****         /* find the keyword */
 690:../../../easylogger/src/elog.c ****         if (!strstr(log_buf, elog.filter.keyword)) {
 691:../../../easylogger/src/elog.c ****             /* unlock output */
 692:../../../easylogger/src/elog.c ****             elog_output_unlock();
 693:../../../easylogger/src/elog.c ****             return;
 694:../../../easylogger/src/elog.c ****         }
 695:../../../easylogger/src/elog.c ****     }
 696:../../../easylogger/src/elog.c **** 
 697:../../../easylogger/src/elog.c **** #ifdef ELOG_COLOR_ENABLE
 698:../../../easylogger/src/elog.c ****     /* add CSI end sign */
 699:../../../easylogger/src/elog.c ****     if (elog.text_color_enabled) {
 700:../../../easylogger/src/elog.c ****         log_len += elog_strcpy(log_len, log_buf + log_len, CSI_END);
 701:../../../easylogger/src/elog.c ****     }
ARM GAS  C:\Users\Jim_YW\AppData\Local\Temp\ccykl1oO.s 			page 26


 702:../../../easylogger/src/elog.c **** #endif
 703:../../../easylogger/src/elog.c **** 
 704:../../../easylogger/src/elog.c ****     /* package newline sign */
 705:../../../easylogger/src/elog.c ****     log_len += elog_strcpy(log_len, log_buf + log_len, ELOG_NEWLINE_SIGN);
 706:../../../easylogger/src/elog.c ****     /* output log */
 707:../../../easylogger/src/elog.c **** #if defined(ELOG_ASYNC_OUTPUT_ENABLE)
 708:../../../easylogger/src/elog.c ****     extern void elog_async_output(uint8_t level, const char *log, size_t size);
 709:../../../easylogger/src/elog.c ****     elog_async_output(level, log_buf, log_len);
 710:../../../easylogger/src/elog.c **** #elif defined(ELOG_BUF_OUTPUT_ENABLE)
 711:../../../easylogger/src/elog.c ****     extern void elog_buf_output(const char *log, size_t size);
 712:../../../easylogger/src/elog.c ****     elog_buf_output(log_buf, log_len);
 713:../../../easylogger/src/elog.c **** #else
 714:../../../easylogger/src/elog.c ****     // printf("-----++++");
 715:../../../easylogger/src/elog.c ****     elog_port_output(log_buf, log_len);
 716:../../../easylogger/src/elog.c ****     // printf("-----");
 717:../../../easylogger/src/elog.c **** #endif
 718:../../../easylogger/src/elog.c ****     /* unlock output */
 719:../../../easylogger/src/elog.c ****     // printf("before unlock----- \r\n");
 720:../../../easylogger/src/elog.c ****     elog_output_unlock();
 721:../../../easylogger/src/elog.c **** }
 661              		.loc 1 721 1 view .LVU122
 662 004a 0EB0     		add	sp, sp, #56
 663              	.LCFI15:
 664              		.cfi_remember_state
 665              		.cfi_def_cfa_offset 32
 666              		@ sp needed
 667 004c BDE8F087 		pop	{r4, r5, r6, r7, r8, r9, r10, pc}
 668              	.LVL34:
 669              	.L84:
 670              	.LCFI16:
 671              		.cfi_restore_state
 570:../../../easylogger/src/elog.c **** 
 672              		.loc 1 570 5 is_stmt 1 discriminator 3 view .LVU123
 673 0050 A34B     		ldr	r3, .L100+4
 674 0052 40F23A22 		movw	r2, #570
 675 0056 0492     		str	r2, [sp, #16]
 676 0058 0393     		str	r3, [sp, #12]
 677 005a A249     		ldr	r1, .L100+8
 678 005c 0291     		str	r1, [sp, #8]
 679 005e A349     		ldr	r1, .L100+16
 680 0060 0191     		str	r1, [sp, #4]
 681 0062 0092     		str	r2, [sp]
 682 0064 A24A     		ldr	r2, .L100+20
 683 0066 A349     		ldr	r1, .L100+24
 684 0068 2046     		mov	r0, r4
 685              	.LVL35:
 570:../../../easylogger/src/elog.c **** 
 686              		.loc 1 570 5 is_stmt 0 discriminator 3 view .LVU124
 687 006a FFF7FEFF 		bl	elog_output
 688              	.LVL36:
 689              	.L58:
 570:../../../easylogger/src/elog.c **** 
 690              		.loc 1 570 5 is_stmt 1 discriminator 1 view .LVU125
 570:../../../easylogger/src/elog.c **** 
 691              		.loc 1 570 5 discriminator 1 view .LVU126
 570:../../../easylogger/src/elog.c **** 
 692              		.loc 1 570 5 discriminator 1 view .LVU127
ARM GAS  C:\Users\Jim_YW\AppData\Local\Temp\ccykl1oO.s 			page 27


 693 006e FEE7     		b	.L58
 694              	.L85:
 577:../../../easylogger/src/elog.c ****         return;
 695              		.loc 1 577 46 is_stmt 0 discriminator 1 view .LVU128
 696 0070 3046     		mov	r0, r6
 697 0072 FFF7FEFF 		bl	elog_get_filter_tag_lvl
 698              	.LVL37:
 577:../../../easylogger/src/elog.c ****         return;
 699              		.loc 1 577 35 discriminator 1 view .LVU129
 700 0076 A842     		cmp	r0, r5
 701 0078 E7D3     		bcc	.L55
 579:../../../easylogger/src/elog.c ****         return;
 702              		.loc 1 579 12 is_stmt 1 view .LVU130
 579:../../../easylogger/src/elog.c ****         return;
 703              		.loc 1 579 17 is_stmt 0 view .LVU131
 704 007a 9F49     		ldr	r1, .L100+28
 705 007c 3046     		mov	r0, r6
 706 007e FFF7FEFF 		bl	strstr
 707              	.LVL38:
 579:../../../easylogger/src/elog.c ****         return;
 708              		.loc 1 579 15 view .LVU132
 709 0082 0028     		cmp	r0, #0
 710 0084 E1D0     		beq	.L55
 583:../../../easylogger/src/elog.c ****     /* lock output */
 711              		.loc 1 583 5 is_stmt 1 view .LVU133
 712 0086 18AB     		add	r3, sp, #96
 713 0088 0793     		str	r3, [sp, #28]
 585:../../../easylogger/src/elog.c **** 
 714              		.loc 1 585 5 view .LVU134
 715 008a FFF7FEFF 		bl	elog_output_lock
 716              	.LVL39:
 589:../../../easylogger/src/elog.c ****         log_len += elog_strcpy(log_len, log_buf + log_len, CSI_START);
 717              		.loc 1 589 5 view .LVU135
 589:../../../easylogger/src/elog.c ****         log_len += elog_strcpy(log_len, log_buf + log_len, CSI_START);
 718              		.loc 1 589 13 is_stmt 0 view .LVU136
 719 008e 964B     		ldr	r3, .L100+12
 720 0090 93F8F530 		ldrb	r3, [r3, #245]	@ zero_extendqisi2
 589:../../../easylogger/src/elog.c ****         log_len += elog_strcpy(log_len, log_buf + log_len, CSI_START);
 721              		.loc 1 589 8 view .LVU137
 722 0094 63BB     		cbnz	r3, .L86
 564:../../../easylogger/src/elog.c ****     char line_num[ELOG_LINE_NUM_MAX_LEN + 1] = { 0 };
 723              		.loc 1 564 35 view .LVU138
 724 0096 0024     		movs	r4, #0
 725              	.LVL40:
 726              	.L62:
 596:../../../easylogger/src/elog.c ****         log_len += elog_strcpy(log_len, log_buf + log_len, level_output_info[level]);
 727              		.loc 1 596 5 is_stmt 1 view .LVU139
 596:../../../easylogger/src/elog.c ****         log_len += elog_strcpy(log_len, log_buf + log_len, level_output_info[level]);
 728              		.loc 1 596 9 is_stmt 0 view .LVU140
 729 0098 0121     		movs	r1, #1
 730 009a 2846     		mov	r0, r5
 731 009c FFF7FEFF 		bl	get_fmt_enabled
 732              	.LVL41:
 596:../../../easylogger/src/elog.c ****         log_len += elog_strcpy(log_len, log_buf + log_len, level_output_info[level]);
 733              		.loc 1 596 8 view .LVU141
 734 00a0 0028     		cmp	r0, #0
 735 00a2 36D1     		bne	.L87
ARM GAS  C:\Users\Jim_YW\AppData\Local\Temp\ccykl1oO.s 			page 28


 736              	.L63:
 600:../../../easylogger/src/elog.c ****         log_len += elog_strcpy(log_len, log_buf + log_len, tag);
 737              		.loc 1 600 5 is_stmt 1 view .LVU142
 600:../../../easylogger/src/elog.c ****         log_len += elog_strcpy(log_len, log_buf + log_len, tag);
 738              		.loc 1 600 9 is_stmt 0 view .LVU143
 739 00a4 0221     		movs	r1, #2
 740 00a6 2846     		mov	r0, r5
 741 00a8 FFF7FEFF 		bl	get_fmt_enabled
 742              	.LVL42:
 600:../../../easylogger/src/elog.c ****         log_len += elog_strcpy(log_len, log_buf + log_len, tag);
 743              		.loc 1 600 8 view .LVU144
 744 00ac 0028     		cmp	r0, #0
 745 00ae 3AD1     		bne	.L88
 746              	.L64:
 610:../../../easylogger/src/elog.c ****         log_len += elog_strcpy(log_len, log_buf + log_len, "[");
 747              		.loc 1 610 5 is_stmt 1 view .LVU145
 610:../../../easylogger/src/elog.c ****         log_len += elog_strcpy(log_len, log_buf + log_len, "[");
 748              		.loc 1 610 9 is_stmt 0 view .LVU146
 749 00b0 1C21     		movs	r1, #28
 750 00b2 2846     		mov	r0, r5
 751 00b4 FFF7FEFF 		bl	get_fmt_enabled
 752              	.LVL43:
 610:../../../easylogger/src/elog.c ****         log_len += elog_strcpy(log_len, log_buf + log_len, "[");
 753              		.loc 1 610 8 view .LVU147
 754 00b8 0028     		cmp	r0, #0
 755 00ba 54D1     		bne	.L89
 756              	.L66:
 633:../../../easylogger/src/elog.c ****         log_len += elog_strcpy(log_len, log_buf + log_len, "(");
 757              		.loc 1 633 5 is_stmt 1 view .LVU148
 633:../../../easylogger/src/elog.c ****         log_len += elog_strcpy(log_len, log_buf + log_len, "(");
 758              		.loc 1 633 9 is_stmt 0 view .LVU149
 759 00bc E021     		movs	r1, #224
 760 00be 2846     		mov	r0, r5
 761 00c0 FFF7FEFF 		bl	get_fmt_enabled
 762              	.LVL44:
 633:../../../easylogger/src/elog.c ****         log_len += elog_strcpy(log_len, log_buf + log_len, "(");
 763              		.loc 1 633 8 view .LVU150
 764 00c4 0028     		cmp	r0, #0
 765 00c6 40F0A580 		bne	.L90
 766              	.L70:
 660:../../../easylogger/src/elog.c **** 
 767              		.loc 1 660 5 is_stmt 1 view .LVU151
 660:../../../easylogger/src/elog.c **** 
 768              		.loc 1 660 18 is_stmt 0 view .LVU152
 769 00ca 079B     		ldr	r3, [sp, #28]
 770 00cc 179A     		ldr	r2, [sp, #92]
 771 00ce C4F50071 		rsb	r1, r4, #512
 772 00d2 8A48     		ldr	r0, .L100+32
 773 00d4 2044     		add	r0, r0, r4
 774 00d6 FFF7FEFF 		bl	vsnprintf
 775              	.LVL45:
 662:../../../easylogger/src/elog.c ****     /* calculate log length */
 776              		.loc 1 662 5 is_stmt 1 view .LVU153
 664:../../../easylogger/src/elog.c ****         log_len += fmt_result;
 777              		.loc 1 664 5 view .LVU154
 664:../../../easylogger/src/elog.c ****         log_len += fmt_result;
 778              		.loc 1 664 18 is_stmt 0 view .LVU155
ARM GAS  C:\Users\Jim_YW\AppData\Local\Temp\ccykl1oO.s 			page 29


 779 00da 0444     		add	r4, r4, r0
 780              	.LVL46:
 664:../../../easylogger/src/elog.c ****         log_len += fmt_result;
 781              		.loc 1 664 8 view .LVU156
 782 00dc B4F5007F 		cmp	r4, #512
 783 00e0 00F22281 		bhi	.L81
 664:../../../easylogger/src/elog.c ****         log_len += fmt_result;
 784              		.loc 1 664 54 discriminator 1 view .LVU157
 785 00e4 0028     		cmp	r0, #0
 786 00e6 80F22181 		bge	.L75
 668:../../../easylogger/src/elog.c ****     }
 787              		.loc 1 668 17 view .LVU158
 788 00ea 4FF40074 		mov	r4, #512
 789 00ee 1DE1     		b	.L75
 790              	.LVL47:
 791              	.L86:
 590:../../../easylogger/src/elog.c ****         log_len += elog_strcpy(log_len, log_buf + log_len, color_output_info[level]);
 792              		.loc 1 590 9 is_stmt 1 view .LVU159
 590:../../../easylogger/src/elog.c ****         log_len += elog_strcpy(log_len, log_buf + log_len, color_output_info[level]);
 793              		.loc 1 590 20 is_stmt 0 view .LVU160
 794 00f0 DFF808A2 		ldr	r10, .L100+32
 795 00f4 824A     		ldr	r2, .L100+36
 796 00f6 5146     		mov	r1, r10
 797 00f8 0020     		movs	r0, #0
 798 00fa FFF7FEFF 		bl	elog_strcpy
 799              	.LVL48:
 800 00fe 0446     		mov	r4, r0
 801              	.LVL49:
 591:../../../easylogger/src/elog.c ****     }
 802              		.loc 1 591 9 is_stmt 1 view .LVU161
 591:../../../easylogger/src/elog.c ****     }
 803              		.loc 1 591 20 is_stmt 0 view .LVU162
 804 0100 804B     		ldr	r3, .L100+40
 805 0102 53F82520 		ldr	r2, [r3, r5, lsl #2]
 806 0106 0AEB0001 		add	r1, r10, r0
 807 010a FFF7FEFF 		bl	elog_strcpy
 808              	.LVL50:
 591:../../../easylogger/src/elog.c ****     }
 809              		.loc 1 591 17 view .LVU163
 810 010e 0444     		add	r4, r4, r0
 811              	.LVL51:
 591:../../../easylogger/src/elog.c ****     }
 812              		.loc 1 591 17 view .LVU164
 813 0110 C2E7     		b	.L62
 814              	.L87:
 597:../../../easylogger/src/elog.c ****     }
 815              		.loc 1 597 9 is_stmt 1 view .LVU165
 597:../../../easylogger/src/elog.c ****     }
 816              		.loc 1 597 20 is_stmt 0 view .LVU166
 817 0112 7D4B     		ldr	r3, .L100+44
 818 0114 53F82520 		ldr	r2, [r3, r5, lsl #2]
 819 0118 7849     		ldr	r1, .L100+32
 820 011a 2144     		add	r1, r1, r4
 821 011c 2046     		mov	r0, r4
 822 011e FFF7FEFF 		bl	elog_strcpy
 823              	.LVL52:
 597:../../../easylogger/src/elog.c ****     }
ARM GAS  C:\Users\Jim_YW\AppData\Local\Temp\ccykl1oO.s 			page 30


 824              		.loc 1 597 17 view .LVU167
 825 0122 0444     		add	r4, r4, r0
 826              	.LVL53:
 597:../../../easylogger/src/elog.c ****     }
 827              		.loc 1 597 17 view .LVU168
 828 0124 BEE7     		b	.L63
 829              	.L88:
 601:../../../easylogger/src/elog.c ****         /* if the tag length is less than 50% ELOG_FILTER_TAG_MAX_LEN, then fill space */
 830              		.loc 1 601 9 is_stmt 1 view .LVU169
 601:../../../easylogger/src/elog.c ****         /* if the tag length is less than 50% ELOG_FILTER_TAG_MAX_LEN, then fill space */
 831              		.loc 1 601 20 is_stmt 0 view .LVU170
 832 0126 3246     		mov	r2, r6
 833 0128 7449     		ldr	r1, .L100+32
 834 012a 2144     		add	r1, r1, r4
 835 012c 2046     		mov	r0, r4
 836 012e FFF7FEFF 		bl	elog_strcpy
 837              	.LVL54:
 601:../../../easylogger/src/elog.c ****         /* if the tag length is less than 50% ELOG_FILTER_TAG_MAX_LEN, then fill space */
 838              		.loc 1 601 17 view .LVU171
 839 0132 0444     		add	r4, r4, r0
 840              	.LVL55:
 603:../../../easylogger/src/elog.c ****             memset(tag_sapce, ' ', ELOG_FILTER_TAG_MAX_LEN / 2 - tag_len);
 841              		.loc 1 603 9 is_stmt 1 view .LVU172
 603:../../../easylogger/src/elog.c ****             memset(tag_sapce, ' ', ELOG_FILTER_TAG_MAX_LEN / 2 - tag_len);
 842              		.loc 1 603 12 is_stmt 0 view .LVU173
 843 0134 0F2F     		cmp	r7, #15
 844 0136 07D9     		bls	.L91
 845              	.L65:
 607:../../../easylogger/src/elog.c ****     }
 846              		.loc 1 607 9 is_stmt 1 view .LVU174
 607:../../../easylogger/src/elog.c ****     }
 847              		.loc 1 607 20 is_stmt 0 view .LVU175
 848 0138 744A     		ldr	r2, .L100+48
 849 013a 7049     		ldr	r1, .L100+32
 850 013c 2144     		add	r1, r1, r4
 851 013e 2046     		mov	r0, r4
 852 0140 FFF7FEFF 		bl	elog_strcpy
 853              	.LVL56:
 607:../../../easylogger/src/elog.c ****     }
 854              		.loc 1 607 17 view .LVU176
 855 0144 0444     		add	r4, r4, r0
 856              	.LVL57:
 607:../../../easylogger/src/elog.c ****     }
 857              		.loc 1 607 17 view .LVU177
 858 0146 B3E7     		b	.L64
 859              	.L91:
 604:../../../easylogger/src/elog.c ****             log_len += elog_strcpy(log_len, log_buf + log_len, tag_sapce);
 860              		.loc 1 604 13 is_stmt 1 view .LVU178
 861 0148 C7F10F02 		rsb	r2, r7, #15
 862 014c 2021     		movs	r1, #32
 863 014e 0DEB0100 		add	r0, sp, r1
 864 0152 FFF7FEFF 		bl	memset
 865              	.LVL58:
 605:../../../easylogger/src/elog.c ****         }
 866              		.loc 1 605 13 view .LVU179
 605:../../../easylogger/src/elog.c ****         }
 867              		.loc 1 605 24 is_stmt 0 view .LVU180
ARM GAS  C:\Users\Jim_YW\AppData\Local\Temp\ccykl1oO.s 			page 31


 868 0156 08AA     		add	r2, sp, #32
 869 0158 6849     		ldr	r1, .L100+32
 870 015a 2144     		add	r1, r1, r4
 871 015c 2046     		mov	r0, r4
 872 015e FFF7FEFF 		bl	elog_strcpy
 873              	.LVL59:
 605:../../../easylogger/src/elog.c ****         }
 874              		.loc 1 605 21 view .LVU181
 875 0162 0444     		add	r4, r4, r0
 876              	.LVL60:
 605:../../../easylogger/src/elog.c ****         }
 877              		.loc 1 605 21 view .LVU182
 878 0164 E8E7     		b	.L65
 879              	.L89:
 611:../../../easylogger/src/elog.c ****         /* package time info */
 880              		.loc 1 611 9 is_stmt 1 view .LVU183
 611:../../../easylogger/src/elog.c ****         /* package time info */
 881              		.loc 1 611 20 is_stmt 0 view .LVU184
 882 0166 6A4A     		ldr	r2, .L100+52
 883 0168 6449     		ldr	r1, .L100+32
 884 016a 2144     		add	r1, r1, r4
 885 016c 2046     		mov	r0, r4
 886 016e FFF7FEFF 		bl	elog_strcpy
 887              	.LVL61:
 611:../../../easylogger/src/elog.c ****         /* package time info */
 888              		.loc 1 611 17 view .LVU185
 889 0172 0444     		add	r4, r4, r0
 890              	.LVL62:
 613:../../../easylogger/src/elog.c ****             log_len += elog_strcpy(log_len, log_buf + log_len, elog_port_get_time());
 891              		.loc 1 613 9 is_stmt 1 view .LVU186
 613:../../../easylogger/src/elog.c ****             log_len += elog_strcpy(log_len, log_buf + log_len, elog_port_get_time());
 892              		.loc 1 613 13 is_stmt 0 view .LVU187
 893 0174 0421     		movs	r1, #4
 894 0176 2846     		mov	r0, r5
 895 0178 FFF7FEFF 		bl	get_fmt_enabled
 896              	.LVL63:
 613:../../../easylogger/src/elog.c ****             log_len += elog_strcpy(log_len, log_buf + log_len, elog_port_get_time());
 897              		.loc 1 613 12 view .LVU188
 898 017c 90B9     		cbnz	r0, .L92
 899              	.L67:
 620:../../../easylogger/src/elog.c ****             log_len += elog_strcpy(log_len, log_buf + log_len, elog_port_get_p_info());
 900              		.loc 1 620 9 is_stmt 1 view .LVU189
 620:../../../easylogger/src/elog.c ****             log_len += elog_strcpy(log_len, log_buf + log_len, elog_port_get_p_info());
 901              		.loc 1 620 13 is_stmt 0 view .LVU190
 902 017e 0821     		movs	r1, #8
 903 0180 2846     		mov	r0, r5
 904 0182 FFF7FEFF 		bl	get_fmt_enabled
 905              	.LVL64:
 620:../../../easylogger/src/elog.c ****             log_len += elog_strcpy(log_len, log_buf + log_len, elog_port_get_p_info());
 906              		.loc 1 620 12 view .LVU191
 907 0186 20BB     		cbnz	r0, .L93
 908              	.L68:
 627:../../../easylogger/src/elog.c ****             log_len += elog_strcpy(log_len, log_buf + log_len, elog_port_get_t_info());
 909              		.loc 1 627 9 is_stmt 1 view .LVU192
 627:../../../easylogger/src/elog.c ****             log_len += elog_strcpy(log_len, log_buf + log_len, elog_port_get_t_info());
 910              		.loc 1 627 13 is_stmt 0 view .LVU193
 911 0188 1021     		movs	r1, #16
ARM GAS  C:\Users\Jim_YW\AppData\Local\Temp\ccykl1oO.s 			page 32


 912 018a 2846     		mov	r0, r5
 913 018c FFF7FEFF 		bl	get_fmt_enabled
 914              	.LVL65:
 627:../../../easylogger/src/elog.c ****             log_len += elog_strcpy(log_len, log_buf + log_len, elog_port_get_t_info());
 915              		.loc 1 627 12 view .LVU194
 916 0190 0028     		cmp	r0, #0
 917 0192 35D1     		bne	.L94
 918              	.L69:
 630:../../../easylogger/src/elog.c ****     }
 919              		.loc 1 630 9 is_stmt 1 view .LVU195
 630:../../../easylogger/src/elog.c ****     }
 920              		.loc 1 630 20 is_stmt 0 view .LVU196
 921 0194 5F4A     		ldr	r2, .L100+56
 922 0196 5949     		ldr	r1, .L100+32
 923 0198 2144     		add	r1, r1, r4
 924 019a 2046     		mov	r0, r4
 925 019c FFF7FEFF 		bl	elog_strcpy
 926              	.LVL66:
 630:../../../easylogger/src/elog.c ****     }
 927              		.loc 1 630 17 view .LVU197
 928 01a0 0444     		add	r4, r4, r0
 929              	.LVL67:
 630:../../../easylogger/src/elog.c ****     }
 930              		.loc 1 630 17 view .LVU198
 931 01a2 8BE7     		b	.L66
 932              	.L92:
 614:../../../easylogger/src/elog.c ****             if (get_fmt_enabled(level, ELOG_FMT_P_INFO | ELOG_FMT_T_INFO)) {
 933              		.loc 1 614 13 is_stmt 1 view .LVU199
 614:../../../easylogger/src/elog.c ****             if (get_fmt_enabled(level, ELOG_FMT_P_INFO | ELOG_FMT_T_INFO)) {
 934              		.loc 1 614 24 is_stmt 0 view .LVU200
 935 01a4 FFF7FEFF 		bl	elog_port_get_time
 936              	.LVL68:
 937 01a8 0246     		mov	r2, r0
 938 01aa 5449     		ldr	r1, .L100+32
 939 01ac 2144     		add	r1, r1, r4
 940 01ae 2046     		mov	r0, r4
 941 01b0 FFF7FEFF 		bl	elog_strcpy
 942              	.LVL69:
 614:../../../easylogger/src/elog.c ****             if (get_fmt_enabled(level, ELOG_FMT_P_INFO | ELOG_FMT_T_INFO)) {
 943              		.loc 1 614 21 view .LVU201
 944 01b4 0444     		add	r4, r4, r0
 945              	.LVL70:
 615:../../../easylogger/src/elog.c ****                 log_len += elog_strcpy(log_len, log_buf + log_len, " ");
 946              		.loc 1 615 13 is_stmt 1 view .LVU202
 615:../../../easylogger/src/elog.c ****                 log_len += elog_strcpy(log_len, log_buf + log_len, " ");
 947              		.loc 1 615 17 is_stmt 0 view .LVU203
 948 01b6 1821     		movs	r1, #24
 949 01b8 2846     		mov	r0, r5
 950 01ba FFF7FEFF 		bl	get_fmt_enabled
 951              	.LVL71:
 615:../../../easylogger/src/elog.c ****                 log_len += elog_strcpy(log_len, log_buf + log_len, " ");
 952              		.loc 1 615 16 view .LVU204
 953 01be 0028     		cmp	r0, #0
 954 01c0 DDD0     		beq	.L67
 616:../../../easylogger/src/elog.c ****             }
 955              		.loc 1 616 17 is_stmt 1 view .LVU205
 616:../../../easylogger/src/elog.c ****             }
ARM GAS  C:\Users\Jim_YW\AppData\Local\Temp\ccykl1oO.s 			page 33


 956              		.loc 1 616 28 is_stmt 0 view .LVU206
 957 01c2 524A     		ldr	r2, .L100+48
 958 01c4 4D49     		ldr	r1, .L100+32
 959 01c6 2144     		add	r1, r1, r4
 960 01c8 2046     		mov	r0, r4
 961 01ca FFF7FEFF 		bl	elog_strcpy
 962              	.LVL72:
 616:../../../easylogger/src/elog.c ****             }
 963              		.loc 1 616 25 view .LVU207
 964 01ce 0444     		add	r4, r4, r0
 965              	.LVL73:
 616:../../../easylogger/src/elog.c ****             }
 966              		.loc 1 616 25 view .LVU208
 967 01d0 D5E7     		b	.L67
 968              	.L93:
 621:../../../easylogger/src/elog.c ****             if (get_fmt_enabled(level, ELOG_FMT_T_INFO)) {
 969              		.loc 1 621 13 is_stmt 1 view .LVU209
 621:../../../easylogger/src/elog.c ****             if (get_fmt_enabled(level, ELOG_FMT_T_INFO)) {
 970              		.loc 1 621 24 is_stmt 0 view .LVU210
 971 01d2 FFF7FEFF 		bl	elog_port_get_p_info
 972              	.LVL74:
 973 01d6 0246     		mov	r2, r0
 974 01d8 4849     		ldr	r1, .L100+32
 975 01da 2144     		add	r1, r1, r4
 976 01dc 2046     		mov	r0, r4
 977 01de FFF7FEFF 		bl	elog_strcpy
 978              	.LVL75:
 621:../../../easylogger/src/elog.c ****             if (get_fmt_enabled(level, ELOG_FMT_T_INFO)) {
 979              		.loc 1 621 21 view .LVU211
 980 01e2 0444     		add	r4, r4, r0
 981              	.LVL76:
 622:../../../easylogger/src/elog.c ****                 log_len += elog_strcpy(log_len, log_buf + log_len, " ");
 982              		.loc 1 622 13 is_stmt 1 view .LVU212
 622:../../../easylogger/src/elog.c ****                 log_len += elog_strcpy(log_len, log_buf + log_len, " ");
 983              		.loc 1 622 17 is_stmt 0 view .LVU213
 984 01e4 1021     		movs	r1, #16
 985 01e6 2846     		mov	r0, r5
 986 01e8 FFF7FEFF 		bl	get_fmt_enabled
 987              	.LVL77:
 622:../../../easylogger/src/elog.c ****                 log_len += elog_strcpy(log_len, log_buf + log_len, " ");
 988              		.loc 1 622 16 view .LVU214
 989 01ec 0028     		cmp	r0, #0
 990 01ee CBD0     		beq	.L68
 623:../../../easylogger/src/elog.c ****             }
 991              		.loc 1 623 17 is_stmt 1 view .LVU215
 623:../../../easylogger/src/elog.c ****             }
 992              		.loc 1 623 28 is_stmt 0 view .LVU216
 993 01f0 464A     		ldr	r2, .L100+48
 994 01f2 4249     		ldr	r1, .L100+32
 995 01f4 2144     		add	r1, r1, r4
 996 01f6 2046     		mov	r0, r4
 997 01f8 FFF7FEFF 		bl	elog_strcpy
 998              	.LVL78:
 623:../../../easylogger/src/elog.c ****             }
 999              		.loc 1 623 25 view .LVU217
 1000 01fc 0444     		add	r4, r4, r0
 1001              	.LVL79:
ARM GAS  C:\Users\Jim_YW\AppData\Local\Temp\ccykl1oO.s 			page 34


 623:../../../easylogger/src/elog.c ****             }
 1002              		.loc 1 623 25 view .LVU218
 1003 01fe C3E7     		b	.L68
 1004              	.L94:
 628:../../../easylogger/src/elog.c ****         }
 1005              		.loc 1 628 13 is_stmt 1 view .LVU219
 628:../../../easylogger/src/elog.c ****         }
 1006              		.loc 1 628 24 is_stmt 0 view .LVU220
 1007 0200 FFF7FEFF 		bl	elog_port_get_t_info
 1008              	.LVL80:
 1009 0204 0246     		mov	r2, r0
 1010 0206 3D49     		ldr	r1, .L100+32
 1011 0208 2144     		add	r1, r1, r4
 1012 020a 2046     		mov	r0, r4
 1013 020c FFF7FEFF 		bl	elog_strcpy
 1014              	.LVL81:
 628:../../../easylogger/src/elog.c ****         }
 1015              		.loc 1 628 21 view .LVU221
 1016 0210 0444     		add	r4, r4, r0
 1017              	.LVL82:
 628:../../../easylogger/src/elog.c ****         }
 1018              		.loc 1 628 21 view .LVU222
 1019 0212 BFE7     		b	.L69
 1020              	.L90:
 634:../../../easylogger/src/elog.c ****         /* package file info */
 1021              		.loc 1 634 9 is_stmt 1 view .LVU223
 634:../../../easylogger/src/elog.c ****         /* package file info */
 1022              		.loc 1 634 20 is_stmt 0 view .LVU224
 1023 0214 404A     		ldr	r2, .L100+60
 1024 0216 3949     		ldr	r1, .L100+32
 1025 0218 2144     		add	r1, r1, r4
 1026 021a 2046     		mov	r0, r4
 1027 021c FFF7FEFF 		bl	elog_strcpy
 1028              	.LVL83:
 634:../../../easylogger/src/elog.c ****         /* package file info */
 1029              		.loc 1 634 17 view .LVU225
 1030 0220 0444     		add	r4, r4, r0
 1031              	.LVL84:
 636:../../../easylogger/src/elog.c ****             log_len += elog_strcpy(log_len, log_buf + log_len, file);
 1032              		.loc 1 636 9 is_stmt 1 view .LVU226
 636:../../../easylogger/src/elog.c ****             log_len += elog_strcpy(log_len, log_buf + log_len, file);
 1033              		.loc 1 636 13 is_stmt 0 view .LVU227
 1034 0222 2021     		movs	r1, #32
 1035 0224 2846     		mov	r0, r5
 1036 0226 FFF7FEFF 		bl	get_fmt_enabled
 1037              	.LVL85:
 636:../../../easylogger/src/elog.c ****             log_len += elog_strcpy(log_len, log_buf + log_len, file);
 1038              		.loc 1 636 12 view .LVU228
 1039 022a 90B9     		cbnz	r0, .L95
 1040              	.L71:
 645:../../../easylogger/src/elog.c ****             snprintf(line_num, ELOG_LINE_NUM_MAX_LEN, "%ld", line);
 1041              		.loc 1 645 9 is_stmt 1 view .LVU229
 645:../../../easylogger/src/elog.c ****             snprintf(line_num, ELOG_LINE_NUM_MAX_LEN, "%ld", line);
 1042              		.loc 1 645 13 is_stmt 0 view .LVU230
 1043 022c 8021     		movs	r1, #128
 1044 022e 2846     		mov	r0, r5
 1045 0230 FFF7FEFF 		bl	get_fmt_enabled
ARM GAS  C:\Users\Jim_YW\AppData\Local\Temp\ccykl1oO.s 			page 35


 1046              	.LVL86:
 645:../../../easylogger/src/elog.c ****             snprintf(line_num, ELOG_LINE_NUM_MAX_LEN, "%ld", line);
 1047              		.loc 1 645 12 view .LVU231
 1048 0234 78BB     		cbnz	r0, .L96
 1049              	.L73:
 653:../../../easylogger/src/elog.c ****             log_len += elog_strcpy(log_len, log_buf + log_len, func);
 1050              		.loc 1 653 9 is_stmt 1 view .LVU232
 653:../../../easylogger/src/elog.c ****             log_len += elog_strcpy(log_len, log_buf + log_len, func);
 1051              		.loc 1 653 13 is_stmt 0 view .LVU233
 1052 0236 4021     		movs	r1, #64
 1053 0238 2846     		mov	r0, r5
 1054 023a FFF7FEFF 		bl	get_fmt_enabled
 1055              	.LVL87:
 653:../../../easylogger/src/elog.c ****             log_len += elog_strcpy(log_len, log_buf + log_len, func);
 1056              		.loc 1 653 12 view .LVU234
 1057 023e 0028     		cmp	r0, #0
 1058 0240 44D1     		bne	.L97
 1059              	.L74:
 657:../../../easylogger/src/elog.c ****     }
 1060              		.loc 1 657 9 is_stmt 1 view .LVU235
 657:../../../easylogger/src/elog.c ****     }
 1061              		.loc 1 657 20 is_stmt 0 view .LVU236
 1062 0242 364A     		ldr	r2, .L100+64
 1063 0244 2D49     		ldr	r1, .L100+32
 1064 0246 2144     		add	r1, r1, r4
 1065 0248 2046     		mov	r0, r4
 1066 024a FFF7FEFF 		bl	elog_strcpy
 1067              	.LVL88:
 657:../../../easylogger/src/elog.c ****     }
 1068              		.loc 1 657 17 view .LVU237
 1069 024e 0444     		add	r4, r4, r0
 1070              	.LVL89:
 657:../../../easylogger/src/elog.c ****     }
 1071              		.loc 1 657 17 view .LVU238
 1072 0250 3BE7     		b	.L70
 1073              	.L95:
 637:../../../easylogger/src/elog.c ****             if (get_fmt_enabled(level, ELOG_FMT_FUNC)) {
 1074              		.loc 1 637 13 is_stmt 1 view .LVU239
 637:../../../easylogger/src/elog.c ****             if (get_fmt_enabled(level, ELOG_FMT_FUNC)) {
 1075              		.loc 1 637 24 is_stmt 0 view .LVU240
 1076 0252 4246     		mov	r2, r8
 1077 0254 2949     		ldr	r1, .L100+32
 1078 0256 2144     		add	r1, r1, r4
 1079 0258 2046     		mov	r0, r4
 1080 025a FFF7FEFF 		bl	elog_strcpy
 1081              	.LVL90:
 637:../../../easylogger/src/elog.c ****             if (get_fmt_enabled(level, ELOG_FMT_FUNC)) {
 1082              		.loc 1 637 21 view .LVU241
 1083 025e 0444     		add	r4, r4, r0
 1084              	.LVL91:
 638:../../../easylogger/src/elog.c ****                 log_len += elog_strcpy(log_len, log_buf + log_len, ":");
 1085              		.loc 1 638 13 is_stmt 1 view .LVU242
 638:../../../easylogger/src/elog.c ****                 log_len += elog_strcpy(log_len, log_buf + log_len, ":");
 1086              		.loc 1 638 17 is_stmt 0 view .LVU243
 1087 0260 4021     		movs	r1, #64
 1088 0262 2846     		mov	r0, r5
 1089 0264 FFF7FEFF 		bl	get_fmt_enabled
ARM GAS  C:\Users\Jim_YW\AppData\Local\Temp\ccykl1oO.s 			page 36


 1090              	.LVL92:
 638:../../../easylogger/src/elog.c ****                 log_len += elog_strcpy(log_len, log_buf + log_len, ":");
 1091              		.loc 1 638 16 view .LVU244
 1092 0268 38B1     		cbz	r0, .L72
 639:../../../easylogger/src/elog.c ****             } else if (get_fmt_enabled(level, ELOG_FMT_LINE)) {
 1093              		.loc 1 639 17 is_stmt 1 view .LVU245
 639:../../../easylogger/src/elog.c ****             } else if (get_fmt_enabled(level, ELOG_FMT_LINE)) {
 1094              		.loc 1 639 28 is_stmt 0 view .LVU246
 1095 026a 2D4A     		ldr	r2, .L100+68
 1096 026c 2349     		ldr	r1, .L100+32
 1097 026e 2144     		add	r1, r1, r4
 1098 0270 2046     		mov	r0, r4
 1099 0272 FFF7FEFF 		bl	elog_strcpy
 1100              	.LVL93:
 639:../../../easylogger/src/elog.c ****             } else if (get_fmt_enabled(level, ELOG_FMT_LINE)) {
 1101              		.loc 1 639 25 view .LVU247
 1102 0276 0444     		add	r4, r4, r0
 1103              	.LVL94:
 639:../../../easylogger/src/elog.c ****             } else if (get_fmt_enabled(level, ELOG_FMT_LINE)) {
 1104              		.loc 1 639 25 view .LVU248
 1105 0278 D8E7     		b	.L71
 1106              	.L72:
 640:../../../easylogger/src/elog.c ****                 log_len += elog_strcpy(log_len, log_buf + log_len, " ");
 1107              		.loc 1 640 20 is_stmt 1 view .LVU249
 640:../../../easylogger/src/elog.c ****                 log_len += elog_strcpy(log_len, log_buf + log_len, " ");
 1108              		.loc 1 640 24 is_stmt 0 view .LVU250
 1109 027a 8021     		movs	r1, #128
 1110 027c 2846     		mov	r0, r5
 1111 027e FFF7FEFF 		bl	get_fmt_enabled
 1112              	.LVL95:
 640:../../../easylogger/src/elog.c ****                 log_len += elog_strcpy(log_len, log_buf + log_len, " ");
 1113              		.loc 1 640 23 view .LVU251
 1114 0282 0028     		cmp	r0, #0
 1115 0284 D2D0     		beq	.L71
 641:../../../easylogger/src/elog.c ****             }
 1116              		.loc 1 641 17 is_stmt 1 view .LVU252
 641:../../../easylogger/src/elog.c ****             }
 1117              		.loc 1 641 28 is_stmt 0 view .LVU253
 1118 0286 214A     		ldr	r2, .L100+48
 1119 0288 1C49     		ldr	r1, .L100+32
 1120 028a 2144     		add	r1, r1, r4
 1121 028c 2046     		mov	r0, r4
 1122 028e FFF7FEFF 		bl	elog_strcpy
 1123              	.LVL96:
 641:../../../easylogger/src/elog.c ****             }
 1124              		.loc 1 641 25 view .LVU254
 1125 0292 0444     		add	r4, r4, r0
 1126              	.LVL97:
 641:../../../easylogger/src/elog.c ****             }
 1127              		.loc 1 641 25 view .LVU255
 1128 0294 CAE7     		b	.L71
 1129              	.L96:
 646:../../../easylogger/src/elog.c ****             log_len += elog_strcpy(log_len, log_buf + log_len, line_num);
 1130              		.loc 1 646 13 is_stmt 1 view .LVU256
 1131 0296 169B     		ldr	r3, [sp, #88]
 1132 0298 224A     		ldr	r2, .L100+72
 1133 029a 0521     		movs	r1, #5
ARM GAS  C:\Users\Jim_YW\AppData\Local\Temp\ccykl1oO.s 			page 37


 1134 029c 0CA8     		add	r0, sp, #48
 1135 029e FFF7FEFF 		bl	snprintf
 1136              	.LVL98:
 647:../../../easylogger/src/elog.c ****             if (get_fmt_enabled(level, ELOG_FMT_FUNC)) {
 1137              		.loc 1 647 13 view .LVU257
 647:../../../easylogger/src/elog.c ****             if (get_fmt_enabled(level, ELOG_FMT_FUNC)) {
 1138              		.loc 1 647 24 is_stmt 0 view .LVU258
 1139 02a2 0CAA     		add	r2, sp, #48
 1140 02a4 1549     		ldr	r1, .L100+32
 1141 02a6 2144     		add	r1, r1, r4
 1142 02a8 2046     		mov	r0, r4
 1143 02aa FFF7FEFF 		bl	elog_strcpy
 1144              	.LVL99:
 647:../../../easylogger/src/elog.c ****             if (get_fmt_enabled(level, ELOG_FMT_FUNC)) {
 1145              		.loc 1 647 21 view .LVU259
 1146 02ae 0444     		add	r4, r4, r0
 1147              	.LVL100:
 648:../../../easylogger/src/elog.c ****                 log_len += elog_strcpy(log_len, log_buf + log_len, " ");
 1148              		.loc 1 648 13 is_stmt 1 view .LVU260
 648:../../../easylogger/src/elog.c ****                 log_len += elog_strcpy(log_len, log_buf + log_len, " ");
 1149              		.loc 1 648 17 is_stmt 0 view .LVU261
 1150 02b0 4021     		movs	r1, #64
 1151 02b2 2846     		mov	r0, r5
 1152 02b4 FFF7FEFF 		bl	get_fmt_enabled
 1153              	.LVL101:
 648:../../../easylogger/src/elog.c ****                 log_len += elog_strcpy(log_len, log_buf + log_len, " ");
 1154              		.loc 1 648 16 view .LVU262
 1155 02b8 0028     		cmp	r0, #0
 1156 02ba BCD0     		beq	.L73
 649:../../../easylogger/src/elog.c ****             }
 1157              		.loc 1 649 17 is_stmt 1 view .LVU263
 649:../../../easylogger/src/elog.c ****             }
 1158              		.loc 1 649 28 is_stmt 0 view .LVU264
 1159 02bc 134A     		ldr	r2, .L100+48
 1160 02be 0F49     		ldr	r1, .L100+32
 1161 02c0 2144     		add	r1, r1, r4
 1162 02c2 2046     		mov	r0, r4
 1163 02c4 FFF7FEFF 		bl	elog_strcpy
 1164              	.LVL102:
 649:../../../easylogger/src/elog.c ****             }
 1165              		.loc 1 649 25 view .LVU265
 1166 02c8 0444     		add	r4, r4, r0
 1167              	.LVL103:
 649:../../../easylogger/src/elog.c ****             }
 1168              		.loc 1 649 25 view .LVU266
 1169 02ca B4E7     		b	.L73
 1170              	.L97:
 654:../../../easylogger/src/elog.c ****             
 1171              		.loc 1 654 13 is_stmt 1 view .LVU267
 654:../../../easylogger/src/elog.c ****             
 1172              		.loc 1 654 24 is_stmt 0 view .LVU268
 1173 02cc 4A46     		mov	r2, r9
 1174 02ce 0B49     		ldr	r1, .L100+32
 1175 02d0 2144     		add	r1, r1, r4
 1176 02d2 2046     		mov	r0, r4
 1177 02d4 FFF7FEFF 		bl	elog_strcpy
 1178              	.LVL104:
ARM GAS  C:\Users\Jim_YW\AppData\Local\Temp\ccykl1oO.s 			page 38


 654:../../../easylogger/src/elog.c ****             
 1179              		.loc 1 654 21 view .LVU269
 1180 02d8 0444     		add	r4, r4, r0
 1181              	.LVL105:
 654:../../../easylogger/src/elog.c ****             
 1182              		.loc 1 654 21 view .LVU270
 1183 02da B2E7     		b	.L74
 1184              	.L101:
 1185              		.align	2
 1186              	.L100:
 1187 02dc 00000000 		.word	.LANCHOR2
 1188 02e0 00000000 		.word	.LANCHOR3
 1189 02e4 28000000 		.word	.LC2
 1190 02e8 00000000 		.word	.LANCHOR0
 1191 02ec 44000000 		.word	.LC3
 1192 02f0 00000000 		.word	.LC0
 1193 02f4 20000000 		.word	.LC1
 1194 02f8 01000000 		.word	.LANCHOR0+1
 1195 02fc 00000000 		.word	.LANCHOR1
 1196 0300 68000000 		.word	.LC4
 1197 0304 00000000 		.word	.LANCHOR4
 1198 0308 00000000 		.word	.LANCHOR5
 1199 030c 6C000000 		.word	.LC5
 1200 0310 70000000 		.word	.LC6
 1201 0314 74000000 		.word	.LC7
 1202 0318 78000000 		.word	.LC8
 1203 031c 84000000 		.word	.LC11
 1204 0320 7C000000 		.word	.LC9
 1205 0324 80000000 		.word	.LC10
 1206              	.LVL106:
 1207              	.L81:
 668:../../../easylogger/src/elog.c ****     }
 1208              		.loc 1 668 17 view .LVU271
 1209 0328 4FF40074 		mov	r4, #512
 1210              	.L75:
 1211              	.LVL107:
 672:../../../easylogger/src/elog.c ****         /* using max length */
 1212              		.loc 1 672 5 is_stmt 1 view .LVU272
 672:../../../easylogger/src/elog.c ****         /* using max length */
 1213              		.loc 1 672 41 is_stmt 0 view .LVU273
 1214 032c A31D     		adds	r3, r4, #6
 672:../../../easylogger/src/elog.c ****         /* using max length */
 1215              		.loc 1 672 8 view .LVU274
 1216 032e B3F5007F 		cmp	r3, #512
 1217 0332 01D9     		bls	.L76
 683:../../../easylogger/src/elog.c ****     }
 1218              		.loc 1 683 17 view .LVU275
 1219 0334 4FF4FD74 		mov	r4, #506
 1220              	.LVL108:
 1221              	.L76:
 686:../../../easylogger/src/elog.c ****         /* add string end sign */
 1222              		.loc 1 686 5 is_stmt 1 view .LVU276
 686:../../../easylogger/src/elog.c ****         /* add string end sign */
 1223              		.loc 1 686 28 is_stmt 0 view .LVU277
 1224 0338 134B     		ldr	r3, .L102
 1225 033a 93F82030 		ldrb	r3, [r3, #32]	@ zero_extendqisi2
 686:../../../easylogger/src/elog.c ****         /* add string end sign */
ARM GAS  C:\Users\Jim_YW\AppData\Local\Temp\ccykl1oO.s 			page 39


 1226              		.loc 1 686 8 view .LVU278
 1227 033e 33B1     		cbz	r3, .L77
 688:../../../easylogger/src/elog.c ****         /* find the keyword */
 1228              		.loc 1 688 9 is_stmt 1 view .LVU279
 688:../../../easylogger/src/elog.c ****         /* find the keyword */
 1229              		.loc 1 688 26 is_stmt 0 view .LVU280
 1230 0340 1248     		ldr	r0, .L102+4
 1231              	.LVL109:
 688:../../../easylogger/src/elog.c ****         /* find the keyword */
 1232              		.loc 1 688 26 view .LVU281
 1233 0342 0023     		movs	r3, #0
 1234 0344 0355     		strb	r3, [r0, r4]
 690:../../../easylogger/src/elog.c ****             /* unlock output */
 1235              		.loc 1 690 9 is_stmt 1 view .LVU282
 690:../../../easylogger/src/elog.c ****             /* unlock output */
 1236              		.loc 1 690 14 is_stmt 0 view .LVU283
 1237 0346 1249     		ldr	r1, .L102+8
 1238 0348 FFF7FEFF 		bl	strstr
 1239              	.LVL110:
 690:../../../easylogger/src/elog.c ****             /* unlock output */
 1240              		.loc 1 690 12 view .LVU284
 1241 034c 88B1     		cbz	r0, .L98
 1242              	.L77:
 699:../../../easylogger/src/elog.c ****         log_len += elog_strcpy(log_len, log_buf + log_len, CSI_END);
 1243              		.loc 1 699 5 is_stmt 1 view .LVU285
 699:../../../easylogger/src/elog.c ****         log_len += elog_strcpy(log_len, log_buf + log_len, CSI_END);
 1244              		.loc 1 699 13 is_stmt 0 view .LVU286
 1245 034e 0E4B     		ldr	r3, .L102
 1246 0350 93F8F530 		ldrb	r3, [r3, #245]	@ zero_extendqisi2
 699:../../../easylogger/src/elog.c ****         log_len += elog_strcpy(log_len, log_buf + log_len, CSI_END);
 1247              		.loc 1 699 8 view .LVU287
 1248 0354 83B9     		cbnz	r3, .L99
 1249              	.L78:
 705:../../../easylogger/src/elog.c ****     /* output log */
 1250              		.loc 1 705 5 is_stmt 1 view .LVU288
 705:../../../easylogger/src/elog.c ****     /* output log */
 1251              		.loc 1 705 16 is_stmt 0 view .LVU289
 1252 0356 0D4E     		ldr	r6, .L102+4
 1253              	.LVL111:
 705:../../../easylogger/src/elog.c ****     /* output log */
 1254              		.loc 1 705 16 view .LVU290
 1255 0358 0E4A     		ldr	r2, .L102+12
 1256 035a 3119     		adds	r1, r6, r4
 1257 035c 2046     		mov	r0, r4
 1258 035e FFF7FEFF 		bl	elog_strcpy
 1259              	.LVL112:
 708:../../../easylogger/src/elog.c ****     elog_async_output(level, log_buf, log_len);
 1260              		.loc 1 708 5 is_stmt 1 view .LVU291
 709:../../../easylogger/src/elog.c **** #elif defined(ELOG_BUF_OUTPUT_ENABLE)
 1261              		.loc 1 709 5 view .LVU292
 1262 0362 2218     		adds	r2, r4, r0
 1263              	.LVL113:
 709:../../../easylogger/src/elog.c **** #elif defined(ELOG_BUF_OUTPUT_ENABLE)
 1264              		.loc 1 709 5 is_stmt 0 view .LVU293
 1265 0364 3146     		mov	r1, r6
 1266 0366 2846     		mov	r0, r5
 1267 0368 FFF7FEFF 		bl	elog_async_output
ARM GAS  C:\Users\Jim_YW\AppData\Local\Temp\ccykl1oO.s 			page 40


 1268              	.LVL114:
 720:../../../easylogger/src/elog.c **** }
 1269              		.loc 1 720 5 is_stmt 1 view .LVU294
 1270 036c FFF7FEFF 		bl	elog_output_unlock
 1271              	.LVL115:
 1272 0370 6BE6     		b	.L55
 1273              	.LVL116:
 1274              	.L98:
 692:../../../easylogger/src/elog.c ****             return;
 1275              		.loc 1 692 13 view .LVU295
 1276 0372 FFF7FEFF 		bl	elog_output_unlock
 1277              	.LVL117:
 693:../../../easylogger/src/elog.c ****         }
 1278              		.loc 1 693 13 view .LVU296
 1279 0376 68E6     		b	.L55
 1280              	.L99:
 700:../../../easylogger/src/elog.c ****     }
 1281              		.loc 1 700 9 view .LVU297
 700:../../../easylogger/src/elog.c ****     }
 1282              		.loc 1 700 20 is_stmt 0 view .LVU298
 1283 0378 074A     		ldr	r2, .L102+16
 1284 037a 0449     		ldr	r1, .L102+4
 1285 037c 2144     		add	r1, r1, r4
 1286 037e 2046     		mov	r0, r4
 1287 0380 FFF7FEFF 		bl	elog_strcpy
 1288              	.LVL118:
 700:../../../easylogger/src/elog.c ****     }
 1289              		.loc 1 700 17 view .LVU299
 1290 0384 0444     		add	r4, r4, r0
 1291              	.LVL119:
 700:../../../easylogger/src/elog.c ****     }
 1292              		.loc 1 700 17 view .LVU300
 1293 0386 E6E7     		b	.L78
 1294              	.L103:
 1295              		.align	2
 1296              	.L102:
 1297 0388 00000000 		.word	.LANCHOR0
 1298 038c 00000000 		.word	.LANCHOR1
 1299 0390 20000000 		.word	.LANCHOR0+32
 1300 0394 90000000 		.word	.LC13
 1301 0398 88000000 		.word	.LC12
 1302              		.cfi_endproc
 1303              	.LFE22:
 1305              		.section	.rodata.elog_start.str1.4,"aMS",%progbits,1
 1306              		.align	2
 1307              	.LC14:
 1308 0000 322E322E 		.ascii	"2.2.99\000"
 1308      393900
 1309 0007 00       		.align	2
 1310              	.LC15:
 1311 0008 45617379 		.ascii	"EasyLogger V%s is initialize success.\000"
 1311      4C6F6767 
 1311      65722056 
 1311      25732069 
 1311      7320696E 
 1312              		.section	.text.elog_start,"ax",%progbits
 1313              		.align	1
ARM GAS  C:\Users\Jim_YW\AppData\Local\Temp\ccykl1oO.s 			page 41


 1314              		.global	elog_start
 1315              		.syntax unified
 1316              		.thumb
 1317              		.thumb_func
 1319              	elog_start:
 1320              	.LFB5:
 229:../../../easylogger/src/elog.c ****     if (!elog.init_ok) {
 1321              		.loc 1 229 23 is_stmt 1 view -0
 1322              		.cfi_startproc
 1323              		@ args = 0, pretend = 0, frame = 0
 1324              		@ frame_needed = 0, uses_anonymous_args = 0
 230:../../../easylogger/src/elog.c ****         return ;
 1325              		.loc 1 230 5 view .LVU302
 230:../../../easylogger/src/elog.c ****         return ;
 1326              		.loc 1 230 14 is_stmt 0 view .LVU303
 1327 0000 0D4B     		ldr	r3, .L111
 1328 0002 93F8F030 		ldrb	r3, [r3, #240]	@ zero_extendqisi2
 230:../../../easylogger/src/elog.c ****         return ;
 1329              		.loc 1 230 8 view .LVU304
 1330 0006 03B9     		cbnz	r3, .L110
 1331 0008 7047     		bx	lr
 1332              	.L110:
 229:../../../easylogger/src/elog.c ****     if (!elog.init_ok) {
 1333              		.loc 1 229 23 view .LVU305
 1334 000a 00B5     		push	{lr}
 1335              	.LCFI17:
 1336              		.cfi_def_cfa_offset 4
 1337              		.cfi_offset 14, -4
 1338 000c 85B0     		sub	sp, sp, #20
 1339              	.LCFI18:
 1340              		.cfi_def_cfa_offset 24
 235:../../../easylogger/src/elog.c **** 
 1341              		.loc 1 235 5 is_stmt 1 view .LVU306
 1342 000e 0120     		movs	r0, #1
 1343 0010 FFF7FEFF 		bl	elog_set_output_enabled
 1344              	.LVL120:
 238:../../../easylogger/src/elog.c **** #elif defined(ELOG_BUF_OUTPUT_ENABLE)
 1345              		.loc 1 238 5 view .LVU307
 1346 0014 0120     		movs	r0, #1
 1347 0016 FFF7FEFF 		bl	elog_async_enabled
 1348              	.LVL121:
 244:../../../easylogger/src/elog.c **** }
 1349              		.loc 1 244 5 view .LVU308
 1350 001a 084B     		ldr	r3, .L111+4
 1351 001c 0293     		str	r3, [sp, #8]
 1352 001e 084B     		ldr	r3, .L111+8
 1353 0020 0193     		str	r3, [sp, #4]
 1354 0022 F423     		movs	r3, #244
 1355 0024 0093     		str	r3, [sp]
 1356 0026 074B     		ldr	r3, .L111+12
 1357 0028 074A     		ldr	r2, .L111+16
 1358 002a 0849     		ldr	r1, .L111+20
 1359 002c 0320     		movs	r0, #3
 1360 002e FFF7FEFF 		bl	elog_output
 1361              	.LVL122:
 245:../../../easylogger/src/elog.c **** 
 1362              		.loc 1 245 1 is_stmt 0 view .LVU309
ARM GAS  C:\Users\Jim_YW\AppData\Local\Temp\ccykl1oO.s 			page 42


 1363 0032 05B0     		add	sp, sp, #20
 1364              	.LCFI19:
 1365              		.cfi_def_cfa_offset 4
 1366              		@ sp needed
 1367 0034 5DF804FB 		ldr	pc, [sp], #4
 1368              	.L112:
 1369              		.align	2
 1370              	.L111:
 1371 0038 00000000 		.word	.LANCHOR0
 1372 003c 00000000 		.word	.LC14
 1373 0040 08000000 		.word	.LC15
 1374 0044 00000000 		.word	.LANCHOR6
 1375 0048 00000000 		.word	.LC0
 1376 004c 20000000 		.word	.LC1
 1377              		.cfi_endproc
 1378              	.LFE5:
 1380              		.section	.rodata.elog_stop.str1.4,"aMS",%progbits,1
 1381              		.align	2
 1382              	.LC16:
 1383 0000 45617379 		.ascii	"EasyLogger V%s is deinitialize success.\000"
 1383      4C6F6767 
 1383      65722056 
 1383      25732069 
 1383      73206465 
 1384              		.section	.text.elog_stop,"ax",%progbits
 1385              		.align	1
 1386              		.global	elog_stop
 1387              		.syntax unified
 1388              		.thumb
 1389              		.thumb_func
 1391              	elog_stop:
 1392              	.LFB6:
 250:../../../easylogger/src/elog.c ****     if (!elog.init_ok) {
 1393              		.loc 1 250 22 is_stmt 1 view -0
 1394              		.cfi_startproc
 1395              		@ args = 0, pretend = 0, frame = 0
 1396              		@ frame_needed = 0, uses_anonymous_args = 0
 251:../../../easylogger/src/elog.c ****         return ;
 1397              		.loc 1 251 5 view .LVU311
 251:../../../easylogger/src/elog.c ****         return ;
 1398              		.loc 1 251 14 is_stmt 0 view .LVU312
 1399 0000 0E4B     		ldr	r3, .L120
 1400 0002 93F8F030 		ldrb	r3, [r3, #240]	@ zero_extendqisi2
 251:../../../easylogger/src/elog.c ****         return ;
 1401              		.loc 1 251 8 view .LVU313
 1402 0006 03B9     		cbnz	r3, .L119
 1403 0008 7047     		bx	lr
 1404              	.L119:
 250:../../../easylogger/src/elog.c ****     if (!elog.init_ok) {
 1405              		.loc 1 250 22 view .LVU314
 1406 000a 00B5     		push	{lr}
 1407              	.LCFI20:
 1408              		.cfi_def_cfa_offset 4
 1409              		.cfi_offset 14, -4
 1410 000c 85B0     		sub	sp, sp, #20
 1411              	.LCFI21:
 1412              		.cfi_def_cfa_offset 24
ARM GAS  C:\Users\Jim_YW\AppData\Local\Temp\ccykl1oO.s 			page 43


 256:../../../easylogger/src/elog.c **** 
 1413              		.loc 1 256 5 is_stmt 1 view .LVU315
 1414 000e 0020     		movs	r0, #0
 1415 0010 FFF7FEFF 		bl	elog_set_output_enabled
 1416              	.LVL123:
 259:../../../easylogger/src/elog.c **** #elif defined(ELOG_BUF_OUTPUT_ENABLE)
 1417              		.loc 1 259 5 view .LVU316
 1418 0014 0020     		movs	r0, #0
 1419 0016 FFF7FEFF 		bl	elog_async_enabled
 1420              	.LVL124:
 265:../../../easylogger/src/elog.c **** }
 1421              		.loc 1 265 5 view .LVU317
 1422 001a 094B     		ldr	r3, .L120+4
 1423 001c 0293     		str	r3, [sp, #8]
 1424 001e 094B     		ldr	r3, .L120+8
 1425 0020 0193     		str	r3, [sp, #4]
 1426 0022 40F20913 		movw	r3, #265
 1427 0026 0093     		str	r3, [sp]
 1428 0028 074B     		ldr	r3, .L120+12
 1429 002a 084A     		ldr	r2, .L120+16
 1430 002c 0849     		ldr	r1, .L120+20
 1431 002e 0320     		movs	r0, #3
 1432 0030 FFF7FEFF 		bl	elog_output
 1433              	.LVL125:
 266:../../../easylogger/src/elog.c **** 
 1434              		.loc 1 266 1 is_stmt 0 view .LVU318
 1435 0034 05B0     		add	sp, sp, #20
 1436              	.LCFI22:
 1437              		.cfi_def_cfa_offset 4
 1438              		@ sp needed
 1439 0036 5DF804FB 		ldr	pc, [sp], #4
 1440              	.L121:
 1441 003a 00BF     		.align	2
 1442              	.L120:
 1443 003c 00000000 		.word	.LANCHOR0
 1444 0040 00000000 		.word	.LC14
 1445 0044 00000000 		.word	.LC16
 1446 0048 00000000 		.word	.LANCHOR7
 1447 004c 00000000 		.word	.LC0
 1448 0050 20000000 		.word	.LC1
 1449              		.cfi_endproc
 1450              	.LFE6:
 1452              		.section	.text.elog_set_fmt,"ax",%progbits
 1453              		.align	1
 1454              		.global	elog_set_fmt
 1455              		.syntax unified
 1456              		.thumb
 1457              		.thumb_func
 1459              	elog_set_fmt:
 1460              	.LVL126:
 1461              	.LFB11:
 315:../../../easylogger/src/elog.c ****     ELOG_ASSERT(level <= ELOG_LVL_VERBOSE);
 1462              		.loc 1 315 46 is_stmt 1 view -0
 1463              		.cfi_startproc
 1464              		@ args = 0, pretend = 0, frame = 0
 1465              		@ frame_needed = 0, uses_anonymous_args = 0
 315:../../../easylogger/src/elog.c ****     ELOG_ASSERT(level <= ELOG_LVL_VERBOSE);
ARM GAS  C:\Users\Jim_YW\AppData\Local\Temp\ccykl1oO.s 			page 44


 1466              		.loc 1 315 46 is_stmt 0 view .LVU320
 1467 0000 30B5     		push	{r4, r5, lr}
 1468              	.LCFI23:
 1469              		.cfi_def_cfa_offset 12
 1470              		.cfi_offset 4, -12
 1471              		.cfi_offset 5, -8
 1472              		.cfi_offset 14, -4
 1473 0002 87B0     		sub	sp, sp, #28
 1474              	.LCFI24:
 1475              		.cfi_def_cfa_offset 40
 1476 0004 0446     		mov	r4, r0
 1477 0006 0D46     		mov	r5, r1
 316:../../../easylogger/src/elog.c **** 
 1478              		.loc 1 316 5 is_stmt 1 view .LVU321
 1479 0008 0528     		cmp	r0, #5
 1480 000a 07D9     		bls	.L123
 316:../../../easylogger/src/elog.c **** 
 1481              		.loc 1 316 5 discriminator 1 view .LVU322
 1482 000c 0E4B     		ldr	r3, .L128
 1483 000e 1B68     		ldr	r3, [r3]
 1484 0010 53B1     		cbz	r3, .L127
 316:../../../easylogger/src/elog.c **** 
 1485              		.loc 1 316 5 discriminator 4 view .LVU323
 1486 0012 4FF49E72 		mov	r2, #316
 1487 0016 0D49     		ldr	r1, .L128+4
 1488              	.LVL127:
 316:../../../easylogger/src/elog.c **** 
 1489              		.loc 1 316 5 is_stmt 0 discriminator 4 view .LVU324
 1490 0018 0D48     		ldr	r0, .L128+8
 1491              	.LVL128:
 316:../../../easylogger/src/elog.c **** 
 1492              		.loc 1 316 5 discriminator 4 view .LVU325
 1493 001a 9847     		blx	r3
 1494              	.LVL129:
 1495              	.L123:
 316:../../../easylogger/src/elog.c **** 
 1496              		.loc 1 316 43 is_stmt 1 discriminator 6 view .LVU326
 318:../../../easylogger/src/elog.c **** }
 1497              		.loc 1 318 5 discriminator 6 view .LVU327
 318:../../../easylogger/src/elog.c **** }
 1498              		.loc 1 318 33 is_stmt 0 discriminator 6 view .LVU328
 1499 001c 3634     		adds	r4, r4, #54
 1500 001e 0D4B     		ldr	r3, .L128+12
 1501 0020 43F82450 		str	r5, [r3, r4, lsl #2]
 319:../../../easylogger/src/elog.c **** 
 1502              		.loc 1 319 1 discriminator 6 view .LVU329
 1503 0024 07B0     		add	sp, sp, #28
 1504              	.LCFI25:
 1505              		.cfi_remember_state
 1506              		.cfi_def_cfa_offset 12
 1507              		@ sp needed
 1508 0026 30BD     		pop	{r4, r5, pc}
 1509              	.LVL130:
 1510              	.L127:
 1511              	.LCFI26:
 1512              		.cfi_restore_state
 316:../../../easylogger/src/elog.c **** 
ARM GAS  C:\Users\Jim_YW\AppData\Local\Temp\ccykl1oO.s 			page 45


 1513              		.loc 1 316 5 is_stmt 1 discriminator 3 view .LVU330
 1514 0028 084B     		ldr	r3, .L128+4
 1515 002a 4FF49E72 		mov	r2, #316
 1516 002e 0492     		str	r2, [sp, #16]
 1517 0030 0393     		str	r3, [sp, #12]
 1518 0032 0749     		ldr	r1, .L128+8
 1519              	.LVL131:
 316:../../../easylogger/src/elog.c **** 
 1520              		.loc 1 316 5 is_stmt 0 discriminator 3 view .LVU331
 1521 0034 0291     		str	r1, [sp, #8]
 1522 0036 0849     		ldr	r1, .L128+16
 1523 0038 0191     		str	r1, [sp, #4]
 1524 003a 0092     		str	r2, [sp]
 1525 003c 074A     		ldr	r2, .L128+20
 1526 003e 0849     		ldr	r1, .L128+24
 1527 0040 0020     		movs	r0, #0
 1528              	.LVL132:
 316:../../../easylogger/src/elog.c **** 
 1529              		.loc 1 316 5 discriminator 3 view .LVU332
 1530 0042 FFF7FEFF 		bl	elog_output
 1531              	.LVL133:
 1532              	.L125:
 316:../../../easylogger/src/elog.c **** 
 1533              		.loc 1 316 5 is_stmt 1 discriminator 1 view .LVU333
 316:../../../easylogger/src/elog.c **** 
 1534              		.loc 1 316 5 discriminator 1 view .LVU334
 316:../../../easylogger/src/elog.c **** 
 1535              		.loc 1 316 5 discriminator 1 view .LVU335
 1536 0046 FEE7     		b	.L125
 1537              	.L129:
 1538              		.align	2
 1539              	.L128:
 1540 0048 00000000 		.word	.LANCHOR2
 1541 004c 00000000 		.word	.LANCHOR8
 1542 0050 28000000 		.word	.LC2
 1543 0054 00000000 		.word	.LANCHOR0
 1544 0058 44000000 		.word	.LC3
 1545 005c 00000000 		.word	.LC0
 1546 0060 20000000 		.word	.LC1
 1547              		.cfi_endproc
 1548              	.LFE11:
 1550              		.section	.text.elog_set_filter_lvl,"ax",%progbits
 1551              		.align	1
 1552              		.global	elog_set_filter_lvl
 1553              		.syntax unified
 1554              		.thumb
 1555              		.thumb_func
 1557              	elog_set_filter_lvl:
 1558              	.LVL134:
 1559              	.LFB13:
 341:../../../easylogger/src/elog.c ****     ELOG_ASSERT(level <= ELOG_LVL_VERBOSE);
 1560              		.loc 1 341 41 view -0
 1561              		.cfi_startproc
 1562              		@ args = 0, pretend = 0, frame = 0
 1563              		@ frame_needed = 0, uses_anonymous_args = 0
 341:../../../easylogger/src/elog.c ****     ELOG_ASSERT(level <= ELOG_LVL_VERBOSE);
 1564              		.loc 1 341 41 is_stmt 0 view .LVU337
ARM GAS  C:\Users\Jim_YW\AppData\Local\Temp\ccykl1oO.s 			page 46


 1565 0000 10B5     		push	{r4, lr}
 1566              	.LCFI27:
 1567              		.cfi_def_cfa_offset 8
 1568              		.cfi_offset 4, -8
 1569              		.cfi_offset 14, -4
 1570 0002 86B0     		sub	sp, sp, #24
 1571              	.LCFI28:
 1572              		.cfi_def_cfa_offset 32
 1573 0004 0446     		mov	r4, r0
 342:../../../easylogger/src/elog.c **** 
 1574              		.loc 1 342 5 is_stmt 1 view .LVU338
 1575 0006 0528     		cmp	r0, #5
 1576 0008 07D9     		bls	.L131
 342:../../../easylogger/src/elog.c **** 
 1577              		.loc 1 342 5 discriminator 1 view .LVU339
 1578 000a 0E4B     		ldr	r3, .L136
 1579 000c 1B68     		ldr	r3, [r3]
 1580 000e 43B1     		cbz	r3, .L135
 342:../../../easylogger/src/elog.c **** 
 1581              		.loc 1 342 5 discriminator 4 view .LVU340
 1582 0010 4FF4AB72 		mov	r2, #342
 1583 0014 0C49     		ldr	r1, .L136+4
 1584 0016 0D48     		ldr	r0, .L136+8
 1585              	.LVL135:
 342:../../../easylogger/src/elog.c **** 
 1586              		.loc 1 342 5 is_stmt 0 discriminator 4 view .LVU341
 1587 0018 9847     		blx	r3
 1588              	.LVL136:
 1589              	.L131:
 342:../../../easylogger/src/elog.c **** 
 1590              		.loc 1 342 43 is_stmt 1 discriminator 6 view .LVU342
 344:../../../easylogger/src/elog.c **** }
 1591              		.loc 1 344 5 discriminator 6 view .LVU343
 344:../../../easylogger/src/elog.c **** }
 1592              		.loc 1 344 23 is_stmt 0 discriminator 6 view .LVU344
 1593 001a 0D4B     		ldr	r3, .L136+12
 1594 001c 1C70     		strb	r4, [r3]
 345:../../../easylogger/src/elog.c **** 
 1595              		.loc 1 345 1 discriminator 6 view .LVU345
 1596 001e 06B0     		add	sp, sp, #24
 1597              	.LCFI29:
 1598              		.cfi_remember_state
 1599              		.cfi_def_cfa_offset 8
 1600              		@ sp needed
 1601 0020 10BD     		pop	{r4, pc}
 1602              	.LVL137:
 1603              	.L135:
 1604              	.LCFI30:
 1605              		.cfi_restore_state
 342:../../../easylogger/src/elog.c **** 
 1606              		.loc 1 342 5 is_stmt 1 discriminator 3 view .LVU346
 1607 0022 094B     		ldr	r3, .L136+4
 1608 0024 4FF4AB72 		mov	r2, #342
 1609 0028 0492     		str	r2, [sp, #16]
 1610 002a 0393     		str	r3, [sp, #12]
 1611 002c 0749     		ldr	r1, .L136+8
 1612 002e 0291     		str	r1, [sp, #8]
ARM GAS  C:\Users\Jim_YW\AppData\Local\Temp\ccykl1oO.s 			page 47


 1613 0030 0849     		ldr	r1, .L136+16
 1614 0032 0191     		str	r1, [sp, #4]
 1615 0034 0092     		str	r2, [sp]
 1616 0036 084A     		ldr	r2, .L136+20
 1617 0038 0849     		ldr	r1, .L136+24
 1618 003a 0020     		movs	r0, #0
 1619              	.LVL138:
 342:../../../easylogger/src/elog.c **** 
 1620              		.loc 1 342 5 is_stmt 0 discriminator 3 view .LVU347
 1621 003c FFF7FEFF 		bl	elog_output
 1622              	.LVL139:
 1623              	.L133:
 342:../../../easylogger/src/elog.c **** 
 1624              		.loc 1 342 5 is_stmt 1 discriminator 1 view .LVU348
 342:../../../easylogger/src/elog.c **** 
 1625              		.loc 1 342 5 discriminator 1 view .LVU349
 342:../../../easylogger/src/elog.c **** 
 1626              		.loc 1 342 5 discriminator 1 view .LVU350
 1627 0040 FEE7     		b	.L133
 1628              	.L137:
 1629 0042 00BF     		.align	2
 1630              	.L136:
 1631 0044 00000000 		.word	.LANCHOR2
 1632 0048 00000000 		.word	.LANCHOR9
 1633 004c 28000000 		.word	.LC2
 1634 0050 00000000 		.word	.LANCHOR0
 1635 0054 44000000 		.word	.LC3
 1636 0058 00000000 		.word	.LC0
 1637 005c 20000000 		.word	.LC1
 1638              		.cfi_endproc
 1639              	.LFE13:
 1641              		.section	.text.elog_set_filter,"ax",%progbits
 1642              		.align	1
 1643              		.global	elog_set_filter
 1644              		.syntax unified
 1645              		.thumb
 1646              		.thumb_func
 1648              	elog_set_filter:
 1649              	.LVL140:
 1650              	.LFB12:
 328:../../../easylogger/src/elog.c ****     ELOG_ASSERT(level <= ELOG_LVL_VERBOSE);
 1651              		.loc 1 328 75 view -0
 1652              		.cfi_startproc
 1653              		@ args = 0, pretend = 0, frame = 0
 1654              		@ frame_needed = 0, uses_anonymous_args = 0
 328:../../../easylogger/src/elog.c ****     ELOG_ASSERT(level <= ELOG_LVL_VERBOSE);
 1655              		.loc 1 328 75 is_stmt 0 view .LVU352
 1656 0000 70B5     		push	{r4, r5, r6, lr}
 1657              	.LCFI31:
 1658              		.cfi_def_cfa_offset 16
 1659              		.cfi_offset 4, -16
 1660              		.cfi_offset 5, -12
 1661              		.cfi_offset 6, -8
 1662              		.cfi_offset 14, -4
 1663 0002 86B0     		sub	sp, sp, #24
 1664              	.LCFI32:
 1665              		.cfi_def_cfa_offset 40
ARM GAS  C:\Users\Jim_YW\AppData\Local\Temp\ccykl1oO.s 			page 48


 1666 0004 0446     		mov	r4, r0
 1667 0006 0E46     		mov	r6, r1
 1668 0008 1546     		mov	r5, r2
 329:../../../easylogger/src/elog.c **** 
 1669              		.loc 1 329 5 is_stmt 1 view .LVU353
 1670 000a 0528     		cmp	r0, #5
 1671 000c 07D9     		bls	.L139
 329:../../../easylogger/src/elog.c **** 
 1672              		.loc 1 329 5 discriminator 1 view .LVU354
 1673 000e 114B     		ldr	r3, .L144
 1674 0010 1B68     		ldr	r3, [r3]
 1675 0012 7BB1     		cbz	r3, .L143
 329:../../../easylogger/src/elog.c **** 
 1676              		.loc 1 329 5 discriminator 4 view .LVU355
 1677 0014 40F24912 		movw	r2, #329
 1678              	.LVL141:
 329:../../../easylogger/src/elog.c **** 
 1679              		.loc 1 329 5 is_stmt 0 discriminator 4 view .LVU356
 1680 0018 0F49     		ldr	r1, .L144+4
 1681              	.LVL142:
 329:../../../easylogger/src/elog.c **** 
 1682              		.loc 1 329 5 discriminator 4 view .LVU357
 1683 001a 1048     		ldr	r0, .L144+8
 1684              	.LVL143:
 329:../../../easylogger/src/elog.c **** 
 1685              		.loc 1 329 5 discriminator 4 view .LVU358
 1686 001c 9847     		blx	r3
 1687              	.LVL144:
 1688              	.L139:
 329:../../../easylogger/src/elog.c **** 
 1689              		.loc 1 329 43 is_stmt 1 discriminator 6 view .LVU359
 331:../../../easylogger/src/elog.c ****     elog_set_filter_tag(tag);
 1690              		.loc 1 331 5 discriminator 6 view .LVU360
 1691 001e 2046     		mov	r0, r4
 1692 0020 FFF7FEFF 		bl	elog_set_filter_lvl
 1693              	.LVL145:
 332:../../../easylogger/src/elog.c ****     elog_set_filter_kw(keyword);
 1694              		.loc 1 332 5 discriminator 6 view .LVU361
 1695 0024 3046     		mov	r0, r6
 1696 0026 FFF7FEFF 		bl	elog_set_filter_tag
 1697              	.LVL146:
 333:../../../easylogger/src/elog.c **** }
 1698              		.loc 1 333 5 discriminator 6 view .LVU362
 1699 002a 2846     		mov	r0, r5
 1700 002c FFF7FEFF 		bl	elog_set_filter_kw
 1701              	.LVL147:
 334:../../../easylogger/src/elog.c **** 
 1702              		.loc 1 334 1 is_stmt 0 discriminator 6 view .LVU363
 1703 0030 06B0     		add	sp, sp, #24
 1704              	.LCFI33:
 1705              		.cfi_remember_state
 1706              		.cfi_def_cfa_offset 16
 1707              		@ sp needed
 1708 0032 70BD     		pop	{r4, r5, r6, pc}
 1709              	.LVL148:
 1710              	.L143:
 1711              	.LCFI34:
ARM GAS  C:\Users\Jim_YW\AppData\Local\Temp\ccykl1oO.s 			page 49


 1712              		.cfi_restore_state
 329:../../../easylogger/src/elog.c **** 
 1713              		.loc 1 329 5 is_stmt 1 discriminator 3 view .LVU364
 1714 0034 084B     		ldr	r3, .L144+4
 1715 0036 40F24912 		movw	r2, #329
 1716              	.LVL149:
 329:../../../easylogger/src/elog.c **** 
 1717              		.loc 1 329 5 is_stmt 0 discriminator 3 view .LVU365
 1718 003a 0492     		str	r2, [sp, #16]
 1719 003c 0393     		str	r3, [sp, #12]
 1720 003e 0749     		ldr	r1, .L144+8
 1721              	.LVL150:
 329:../../../easylogger/src/elog.c **** 
 1722              		.loc 1 329 5 discriminator 3 view .LVU366
 1723 0040 0291     		str	r1, [sp, #8]
 1724 0042 0749     		ldr	r1, .L144+12
 1725 0044 0191     		str	r1, [sp, #4]
 1726 0046 0092     		str	r2, [sp]
 1727 0048 064A     		ldr	r2, .L144+16
 1728 004a 0749     		ldr	r1, .L144+20
 1729 004c 0020     		movs	r0, #0
 1730              	.LVL151:
 329:../../../easylogger/src/elog.c **** 
 1731              		.loc 1 329 5 discriminator 3 view .LVU367
 1732 004e FFF7FEFF 		bl	elog_output
 1733              	.LVL152:
 1734              	.L141:
 329:../../../easylogger/src/elog.c **** 
 1735              		.loc 1 329 5 is_stmt 1 discriminator 1 view .LVU368
 329:../../../easylogger/src/elog.c **** 
 1736              		.loc 1 329 5 discriminator 1 view .LVU369
 329:../../../easylogger/src/elog.c **** 
 1737              		.loc 1 329 5 discriminator 1 view .LVU370
 1738 0052 FEE7     		b	.L141
 1739              	.L145:
 1740              		.align	2
 1741              	.L144:
 1742 0054 00000000 		.word	.LANCHOR2
 1743 0058 00000000 		.word	.LANCHOR10
 1744 005c 28000000 		.word	.LC2
 1745 0060 44000000 		.word	.LC3
 1746 0064 00000000 		.word	.LC0
 1747 0068 20000000 		.word	.LC1
 1748              		.cfi_endproc
 1749              	.LFE12:
 1751              		.section	.rodata.elog_set_filter_tag_lvl.str1.4,"aMS",%progbits,1
 1752              		.align	2
 1753              	.LC17:
 1754 0000 74616720 		.ascii	"tag != ((void *)0)\000"
 1754      213D2028 
 1754      28766F69 
 1754      64202A29 
 1754      302900
 1755              		.section	.text.elog_set_filter_tag_lvl,"ax",%progbits
 1756              		.align	1
 1757              		.global	elog_set_filter_tag_lvl
 1758              		.syntax unified
ARM GAS  C:\Users\Jim_YW\AppData\Local\Temp\ccykl1oO.s 			page 50


 1759              		.thumb
 1760              		.thumb_func
 1762              	elog_set_filter_tag_lvl:
 1763              	.LVL153:
 1764              	.LFB19:
 422:../../../easylogger/src/elog.c ****     ELOG_ASSERT(level <= ELOG_LVL_VERBOSE);
 1765              		.loc 1 422 1 view -0
 1766              		.cfi_startproc
 1767              		@ args = 0, pretend = 0, frame = 0
 1768              		@ frame_needed = 0, uses_anonymous_args = 0
 422:../../../easylogger/src/elog.c ****     ELOG_ASSERT(level <= ELOG_LVL_VERBOSE);
 1769              		.loc 1 422 1 is_stmt 0 view .LVU372
 1770 0000 F0B5     		push	{r4, r5, r6, r7, lr}
 1771              	.LCFI35:
 1772              		.cfi_def_cfa_offset 20
 1773              		.cfi_offset 4, -20
 1774              		.cfi_offset 5, -16
 1775              		.cfi_offset 6, -12
 1776              		.cfi_offset 7, -8
 1777              		.cfi_offset 14, -4
 1778 0002 87B0     		sub	sp, sp, #28
 1779              	.LCFI36:
 1780              		.cfi_def_cfa_offset 48
 1781 0004 0546     		mov	r5, r0
 1782 0006 0E46     		mov	r6, r1
 423:../../../easylogger/src/elog.c ****     ELOG_ASSERT(tag != ((void *)0));
 1783              		.loc 1 423 5 is_stmt 1 view .LVU373
 1784 0008 0529     		cmp	r1, #5
 1785 000a 07D9     		bls	.L147
 423:../../../easylogger/src/elog.c ****     ELOG_ASSERT(tag != ((void *)0));
 1786              		.loc 1 423 5 discriminator 1 view .LVU374
 1787 000c 484B     		ldr	r3, .L172
 1788 000e 1B68     		ldr	r3, [r3]
 1789 0010 63B1     		cbz	r3, .L166
 423:../../../easylogger/src/elog.c ****     ELOG_ASSERT(tag != ((void *)0));
 1790              		.loc 1 423 5 discriminator 4 view .LVU375
 1791 0012 40F2A712 		movw	r2, #423
 1792 0016 4749     		ldr	r1, .L172+4
 1793              	.LVL154:
 423:../../../easylogger/src/elog.c ****     ELOG_ASSERT(tag != ((void *)0));
 1794              		.loc 1 423 5 is_stmt 0 discriminator 4 view .LVU376
 1795 0018 4748     		ldr	r0, .L172+8
 1796              	.LVL155:
 423:../../../easylogger/src/elog.c ****     ELOG_ASSERT(tag != ((void *)0));
 1797              		.loc 1 423 5 discriminator 4 view .LVU377
 1798 001a 9847     		blx	r3
 1799              	.LVL156:
 1800              	.L147:
 423:../../../easylogger/src/elog.c ****     ELOG_ASSERT(tag != ((void *)0));
 1801              		.loc 1 423 43 is_stmt 1 discriminator 6 view .LVU378
 424:../../../easylogger/src/elog.c ****     uint8_t i = 0;
 1802              		.loc 1 424 5 discriminator 6 view .LVU379
 1803 001c B5B1     		cbz	r5, .L167
 1804              	.L150:
 424:../../../easylogger/src/elog.c ****     uint8_t i = 0;
 1805              		.loc 1 424 36 discriminator 6 view .LVU380
 425:../../../easylogger/src/elog.c **** 
ARM GAS  C:\Users\Jim_YW\AppData\Local\Temp\ccykl1oO.s 			page 51


 1806              		.loc 1 425 5 discriminator 6 view .LVU381
 1807              	.LVL157:
 427:../../../easylogger/src/elog.c ****         return;
 1808              		.loc 1 427 5 discriminator 6 view .LVU382
 427:../../../easylogger/src/elog.c ****         return;
 1809              		.loc 1 427 14 is_stmt 0 discriminator 6 view .LVU383
 1810 001e 474B     		ldr	r3, .L172+12
 1811 0020 93F8F030 		ldrb	r3, [r3, #240]	@ zero_extendqisi2
 427:../../../easylogger/src/elog.c ****         return;
 1812              		.loc 1 427 8 discriminator 6 view .LVU384
 1813 0024 002B     		cmp	r3, #0
 1814 0026 2AD1     		bne	.L168
 1815              	.LVL158:
 1816              	.L146:
 464:../../../easylogger/src/elog.c **** 
 1817              		.loc 1 464 1 view .LVU385
 1818 0028 07B0     		add	sp, sp, #28
 1819              	.LCFI37:
 1820              		.cfi_remember_state
 1821              		.cfi_def_cfa_offset 20
 1822              		@ sp needed
 1823 002a F0BD     		pop	{r4, r5, r6, r7, pc}
 1824              	.LVL159:
 1825              	.L166:
 1826              	.LCFI38:
 1827              		.cfi_restore_state
 423:../../../easylogger/src/elog.c ****     ELOG_ASSERT(tag != ((void *)0));
 1828              		.loc 1 423 5 is_stmt 1 discriminator 3 view .LVU386
 1829 002c 414B     		ldr	r3, .L172+4
 1830 002e 40F2A712 		movw	r2, #423
 1831 0032 0492     		str	r2, [sp, #16]
 1832 0034 0393     		str	r3, [sp, #12]
 1833 0036 4049     		ldr	r1, .L172+8
 1834              	.LVL160:
 423:../../../easylogger/src/elog.c ****     ELOG_ASSERT(tag != ((void *)0));
 1835              		.loc 1 423 5 is_stmt 0 discriminator 3 view .LVU387
 1836 0038 0291     		str	r1, [sp, #8]
 1837 003a 4149     		ldr	r1, .L172+16
 1838 003c 0191     		str	r1, [sp, #4]
 1839 003e 0092     		str	r2, [sp]
 1840 0040 404A     		ldr	r2, .L172+20
 1841 0042 4149     		ldr	r1, .L172+24
 1842 0044 0020     		movs	r0, #0
 1843              	.LVL161:
 423:../../../easylogger/src/elog.c ****     ELOG_ASSERT(tag != ((void *)0));
 1844              		.loc 1 423 5 discriminator 3 view .LVU388
 1845 0046 FFF7FEFF 		bl	elog_output
 1846              	.LVL162:
 1847              	.L149:
 423:../../../easylogger/src/elog.c ****     ELOG_ASSERT(tag != ((void *)0));
 1848              		.loc 1 423 5 is_stmt 1 discriminator 1 view .LVU389
 423:../../../easylogger/src/elog.c ****     ELOG_ASSERT(tag != ((void *)0));
 1849              		.loc 1 423 5 discriminator 1 view .LVU390
 423:../../../easylogger/src/elog.c ****     ELOG_ASSERT(tag != ((void *)0));
 1850              		.loc 1 423 5 discriminator 1 view .LVU391
 1851 004a FEE7     		b	.L149
 1852              	.L167:
ARM GAS  C:\Users\Jim_YW\AppData\Local\Temp\ccykl1oO.s 			page 52


 424:../../../easylogger/src/elog.c ****     uint8_t i = 0;
 1853              		.loc 1 424 5 discriminator 1 view .LVU392
 1854 004c 384B     		ldr	r3, .L172
 1855 004e 1B68     		ldr	r3, [r3]
 1856 0050 2BB1     		cbz	r3, .L169
 424:../../../easylogger/src/elog.c ****     uint8_t i = 0;
 1857              		.loc 1 424 5 discriminator 4 view .LVU393
 1858 0052 4FF4D472 		mov	r2, #424
 1859 0056 3749     		ldr	r1, .L172+4
 1860 0058 3C48     		ldr	r0, .L172+28
 1861 005a 9847     		blx	r3
 1862              	.LVL163:
 1863 005c DFE7     		b	.L150
 1864              	.L169:
 424:../../../easylogger/src/elog.c ****     uint8_t i = 0;
 1865              		.loc 1 424 5 discriminator 3 view .LVU394
 1866 005e 354B     		ldr	r3, .L172+4
 1867 0060 4FF4D472 		mov	r2, #424
 1868 0064 0492     		str	r2, [sp, #16]
 1869 0066 0393     		str	r3, [sp, #12]
 1870 0068 3849     		ldr	r1, .L172+28
 1871 006a 0291     		str	r1, [sp, #8]
 1872 006c 3449     		ldr	r1, .L172+16
 1873 006e 0191     		str	r1, [sp, #4]
 1874 0070 0092     		str	r2, [sp]
 1875 0072 344A     		ldr	r2, .L172+20
 1876 0074 3449     		ldr	r1, .L172+24
 1877 0076 0020     		movs	r0, #0
 1878 0078 FFF7FEFF 		bl	elog_output
 1879              	.LVL164:
 1880              	.L152:
 424:../../../easylogger/src/elog.c ****     uint8_t i = 0;
 1881              		.loc 1 424 5 discriminator 2 view .LVU395
 424:../../../easylogger/src/elog.c ****     uint8_t i = 0;
 1882              		.loc 1 424 5 discriminator 2 view .LVU396
 424:../../../easylogger/src/elog.c ****     uint8_t i = 0;
 1883              		.loc 1 424 5 discriminator 2 view .LVU397
 1884 007c FEE7     		b	.L152
 1885              	.LVL165:
 1886              	.L168:
 431:../../../easylogger/src/elog.c ****     /* find the tag in arr */
 1887              		.loc 1 431 5 view .LVU398
 1888 007e FFF7FEFF 		bl	elog_output_lock
 1889              	.LVL166:
 433:../../../easylogger/src/elog.c ****         if (elog.filter.tag_lvl[i].tag_use_flag == true &&
 1890              		.loc 1 433 5 view .LVU399
 433:../../../easylogger/src/elog.c ****         if (elog.filter.tag_lvl[i].tag_use_flag == true &&
 1891              		.loc 1 433 12 is_stmt 0 view .LVU400
 1892 0082 0024     		movs	r4, #0
 433:../../../easylogger/src/elog.c ****         if (elog.filter.tag_lvl[i].tag_use_flag == true &&
 1893              		.loc 1 433 5 view .LVU401
 1894 0084 01E0     		b	.L154
 1895              	.LVL167:
 1896              	.L155:
 433:../../../easylogger/src/elog.c ****         if (elog.filter.tag_lvl[i].tag_use_flag == true &&
 1897              		.loc 1 433 48 is_stmt 1 discriminator 2 view .LVU402
 433:../../../easylogger/src/elog.c ****         if (elog.filter.tag_lvl[i].tag_use_flag == true &&
ARM GAS  C:\Users\Jim_YW\AppData\Local\Temp\ccykl1oO.s 			page 53


 1898              		.loc 1 433 49 is_stmt 0 discriminator 2 view .LVU403
 1899 0086 0134     		adds	r4, r4, #1
 1900              	.LVL168:
 433:../../../easylogger/src/elog.c ****         if (elog.filter.tag_lvl[i].tag_use_flag == true &&
 1901              		.loc 1 433 49 discriminator 2 view .LVU404
 1902 0088 E4B2     		uxtb	r4, r4
 1903              	.LVL169:
 1904              	.L154:
 433:../../../easylogger/src/elog.c ****         if (elog.filter.tag_lvl[i].tag_use_flag == true &&
 1905              		.loc 1 433 16 is_stmt 1 discriminator 1 view .LVU405
 433:../../../easylogger/src/elog.c ****         if (elog.filter.tag_lvl[i].tag_use_flag == true &&
 1906              		.loc 1 433 5 is_stmt 0 discriminator 1 view .LVU406
 1907 008a 042C     		cmp	r4, #4
 1908 008c 12D8     		bhi	.L156
 434:../../../easylogger/src/elog.c ****             !strncmp(tag, elog.filter.tag_lvl[i].tag,ELOG_FILTER_TAG_MAX_LEN)){
 1909              		.loc 1 434 9 is_stmt 1 view .LVU407
 434:../../../easylogger/src/elog.c ****             !strncmp(tag, elog.filter.tag_lvl[i].tag,ELOG_FILTER_TAG_MAX_LEN)){
 1910              		.loc 1 434 35 is_stmt 0 view .LVU408
 1911 008e 04EB4412 		add	r2, r4, r4, lsl #5
 1912 0092 2A4B     		ldr	r3, .L172+12
 1913 0094 1344     		add	r3, r3, r2
 1914 0096 93F85130 		ldrb	r3, [r3, #81]	@ zero_extendqisi2
 434:../../../easylogger/src/elog.c ****             !strncmp(tag, elog.filter.tag_lvl[i].tag,ELOG_FILTER_TAG_MAX_LEN)){
 1915              		.loc 1 434 12 view .LVU409
 1916 009a 002B     		cmp	r3, #0
 1917 009c F3D0     		beq	.L155
 435:../../../easylogger/src/elog.c ****             break;
 1918              		.loc 1 435 49 discriminator 1 view .LVU410
 1919 009e 02F13003 		add	r3, r2, #48
 1920 00a2 2649     		ldr	r1, .L172+12
 1921 00a4 1944     		add	r1, r1, r3
 435:../../../easylogger/src/elog.c ****             break;
 1922              		.loc 1 435 14 discriminator 1 view .LVU411
 1923 00a6 1E22     		movs	r2, #30
 1924 00a8 0231     		adds	r1, r1, #2
 1925 00aa 2846     		mov	r0, r5
 1926 00ac FFF7FEFF 		bl	strncmp
 1927              	.LVL170:
 434:../../../easylogger/src/elog.c ****             !strncmp(tag, elog.filter.tag_lvl[i].tag,ELOG_FILTER_TAG_MAX_LEN)){
 1928              		.loc 1 434 57 discriminator 1 view .LVU412
 1929 00b0 0028     		cmp	r0, #0
 1930 00b2 E8D1     		bne	.L155
 1931              	.L156:
 440:../../../easylogger/src/elog.c ****         /* find OK */
 1932              		.loc 1 440 5 is_stmt 1 view .LVU413
 440:../../../easylogger/src/elog.c ****         /* find OK */
 1933              		.loc 1 440 8 is_stmt 0 view .LVU414
 1934 00b4 042C     		cmp	r4, #4
 1935 00b6 1BD8     		bhi	.L158
 442:../../../easylogger/src/elog.c ****             /* remove current tag's level filter when input level is the lowest level */
 1936              		.loc 1 442 9 is_stmt 1 view .LVU415
 442:../../../easylogger/src/elog.c ****             /* remove current tag's level filter when input level is the lowest level */
 1937              		.loc 1 442 12 is_stmt 0 view .LVU416
 1938 00b8 052E     		cmp	r6, #5
 1939 00ba 08D0     		beq	.L170
 448:../../../easylogger/src/elog.c ****         }
 1940              		.loc 1 448 13 is_stmt 1 view .LVU417
ARM GAS  C:\Users\Jim_YW\AppData\Local\Temp\ccykl1oO.s 			page 54


 448:../../../easylogger/src/elog.c ****         }
 1941              		.loc 1 448 42 is_stmt 0 view .LVU418
 1942 00bc 04EB4414 		add	r4, r4, r4, lsl #5
 1943              	.LVL171:
 448:../../../easylogger/src/elog.c ****         }
 1944              		.loc 1 448 42 view .LVU419
 1945 00c0 1E4B     		ldr	r3, .L172+12
 1946 00c2 1C44     		add	r4, r4, r3
 1947 00c4 84F83160 		strb	r6, [r4, #49]
 1948              	.LVL172:
 1949              	.L160:
 463:../../../easylogger/src/elog.c **** }
 1950              		.loc 1 463 5 is_stmt 1 view .LVU420
 1951 00c8 FFF7FEFF 		bl	elog_output_unlock
 1952              	.LVL173:
 1953 00cc ACE7     		b	.L146
 1954              	.LVL174:
 1955              	.L170:
 444:../../../easylogger/src/elog.c ****              memset(elog.filter.tag_lvl[i].tag, '\0', ELOG_FILTER_TAG_MAX_LEN + 1);
 1956              		.loc 1 444 14 view .LVU421
 444:../../../easylogger/src/elog.c ****              memset(elog.filter.tag_lvl[i].tag, '\0', ELOG_FILTER_TAG_MAX_LEN + 1);
 1957              		.loc 1 444 50 is_stmt 0 view .LVU422
 1958 00ce 1B4B     		ldr	r3, .L172+12
 1959 00d0 04EB4414 		add	r4, r4, r4, lsl #5
 1960              	.LVL175:
 444:../../../easylogger/src/elog.c ****              memset(elog.filter.tag_lvl[i].tag, '\0', ELOG_FILTER_TAG_MAX_LEN + 1);
 1961              		.loc 1 444 50 view .LVU423
 1962 00d4 1E19     		adds	r6, r3, r4
 1963 00d6 0025     		movs	r5, #0
 1964              	.LVL176:
 444:../../../easylogger/src/elog.c ****              memset(elog.filter.tag_lvl[i].tag, '\0', ELOG_FILTER_TAG_MAX_LEN + 1);
 1965              		.loc 1 444 50 view .LVU424
 1966 00d8 86F85150 		strb	r5, [r6, #81]
 445:../../../easylogger/src/elog.c ****              elog.filter.tag_lvl[i].level = ELOG_FILTER_LVL_SILENT;
 1967              		.loc 1 445 14 is_stmt 1 view .LVU425
 445:../../../easylogger/src/elog.c ****              elog.filter.tag_lvl[i].level = ELOG_FILTER_LVL_SILENT;
 1968              		.loc 1 445 43 is_stmt 0 view .LVU426
 1969 00dc 3034     		adds	r4, r4, #48
 1970 00de 2344     		add	r3, r3, r4
 445:../../../easylogger/src/elog.c ****              elog.filter.tag_lvl[i].level = ELOG_FILTER_LVL_SILENT;
 1971              		.loc 1 445 14 view .LVU427
 1972 00e0 1F22     		movs	r2, #31
 1973 00e2 2946     		mov	r1, r5
 1974 00e4 981C     		adds	r0, r3, #2
 1975 00e6 FFF7FEFF 		bl	memset
 1976              	.LVL177:
 446:../../../easylogger/src/elog.c ****         } else{
 1977              		.loc 1 446 14 is_stmt 1 view .LVU428
 446:../../../easylogger/src/elog.c ****         } else{
 1978              		.loc 1 446 43 is_stmt 0 view .LVU429
 1979 00ea 86F83150 		strb	r5, [r6, #49]
 1980 00ee EBE7     		b	.L160
 1981              	.LVL178:
 1982              	.L158:
 452:../../../easylogger/src/elog.c ****             for (i =0; i< ELOG_FILTER_TAG_LVL_MAX_NUM; i++){
 1983              		.loc 1 452 9 is_stmt 1 view .LVU430
 452:../../../easylogger/src/elog.c ****             for (i =0; i< ELOG_FILTER_TAG_LVL_MAX_NUM; i++){
ARM GAS  C:\Users\Jim_YW\AppData\Local\Temp\ccykl1oO.s 			page 55


 1984              		.loc 1 452 12 is_stmt 0 view .LVU431
 1985 00f0 052E     		cmp	r6, #5
 1986 00f2 E9D0     		beq	.L160
 453:../../../easylogger/src/elog.c ****                 if (elog.filter.tag_lvl[i].tag_use_flag == false){
 1987              		.loc 1 453 20 view .LVU432
 1988 00f4 0023     		movs	r3, #0
 1989              	.LVL179:
 1990              	.L161:
 453:../../../easylogger/src/elog.c ****                 if (elog.filter.tag_lvl[i].tag_use_flag == false){
 1991              		.loc 1 453 24 is_stmt 1 discriminator 1 view .LVU433
 453:../../../easylogger/src/elog.c ****                 if (elog.filter.tag_lvl[i].tag_use_flag == false){
 1992              		.loc 1 453 13 is_stmt 0 discriminator 1 view .LVU434
 1993 00f6 042B     		cmp	r3, #4
 1994 00f8 E6D8     		bhi	.L160
 454:../../../easylogger/src/elog.c ****                     strncpy(elog.filter.tag_lvl[i].tag, tag, ELOG_FILTER_TAG_MAX_LEN);
 1995              		.loc 1 454 17 is_stmt 1 view .LVU435
 454:../../../easylogger/src/elog.c ****                     strncpy(elog.filter.tag_lvl[i].tag, tag, ELOG_FILTER_TAG_MAX_LEN);
 1996              		.loc 1 454 43 is_stmt 0 view .LVU436
 1997 00fa 03EB4311 		add	r1, r3, r3, lsl #5
 1998 00fe 0F4A     		ldr	r2, .L172+12
 1999 0100 0A44     		add	r2, r2, r1
 2000 0102 92F85120 		ldrb	r2, [r2, #81]	@ zero_extendqisi2
 454:../../../easylogger/src/elog.c ****                     strncpy(elog.filter.tag_lvl[i].tag, tag, ELOG_FILTER_TAG_MAX_LEN);
 2001              		.loc 1 454 20 view .LVU437
 2002 0106 12B1     		cbz	r2, .L171
 453:../../../easylogger/src/elog.c ****                 if (elog.filter.tag_lvl[i].tag_use_flag == false){
 2003              		.loc 1 453 56 is_stmt 1 discriminator 2 view .LVU438
 453:../../../easylogger/src/elog.c ****                 if (elog.filter.tag_lvl[i].tag_use_flag == false){
 2004              		.loc 1 453 57 is_stmt 0 discriminator 2 view .LVU439
 2005 0108 0133     		adds	r3, r3, #1
 2006              	.LVL180:
 453:../../../easylogger/src/elog.c ****                 if (elog.filter.tag_lvl[i].tag_use_flag == false){
 2007              		.loc 1 453 57 discriminator 2 view .LVU440
 2008 010a DBB2     		uxtb	r3, r3
 2009              	.LVL181:
 453:../../../easylogger/src/elog.c ****                 if (elog.filter.tag_lvl[i].tag_use_flag == false){
 2010              		.loc 1 453 57 discriminator 2 view .LVU441
 2011 010c F3E7     		b	.L161
 2012              	.L171:
 455:../../../easylogger/src/elog.c ****                     elog.filter.tag_lvl[i].level = level;
 2013              		.loc 1 455 21 is_stmt 1 view .LVU442
 455:../../../easylogger/src/elog.c ****                     elog.filter.tag_lvl[i].level = level;
 2014              		.loc 1 455 51 is_stmt 0 view .LVU443
 2015 010e 0B4F     		ldr	r7, .L172+12
 2016 0110 0C46     		mov	r4, r1
 2017 0112 01F13000 		add	r0, r1, #48
 2018 0116 3844     		add	r0, r0, r7
 455:../../../easylogger/src/elog.c ****                     elog.filter.tag_lvl[i].level = level;
 2019              		.loc 1 455 21 view .LVU444
 2020 0118 1E22     		movs	r2, #30
 2021 011a 2946     		mov	r1, r5
 2022 011c 0230     		adds	r0, r0, #2
 2023 011e FFF7FEFF 		bl	strncpy
 2024              	.LVL182:
 456:../../../easylogger/src/elog.c ****                     elog.filter.tag_lvl[i].tag_use_flag = true;
 2025              		.loc 1 456 21 is_stmt 1 view .LVU445
 456:../../../easylogger/src/elog.c ****                     elog.filter.tag_lvl[i].tag_use_flag = true;
ARM GAS  C:\Users\Jim_YW\AppData\Local\Temp\ccykl1oO.s 			page 56


 2026              		.loc 1 456 50 is_stmt 0 view .LVU446
 2027 0122 3819     		adds	r0, r7, r4
 2028 0124 80F83160 		strb	r6, [r0, #49]
 457:../../../easylogger/src/elog.c ****                     break;
 2029              		.loc 1 457 21 is_stmt 1 view .LVU447
 457:../../../easylogger/src/elog.c ****                     break;
 2030              		.loc 1 457 57 is_stmt 0 view .LVU448
 2031 0128 0123     		movs	r3, #1
 2032 012a 80F85130 		strb	r3, [r0, #81]
 458:../../../easylogger/src/elog.c ****                 }
 2033              		.loc 1 458 21 is_stmt 1 view .LVU449
 2034 012e CBE7     		b	.L160
 2035              	.L173:
 2036              		.align	2
 2037              	.L172:
 2038 0130 00000000 		.word	.LANCHOR2
 2039 0134 00000000 		.word	.LANCHOR11
 2040 0138 28000000 		.word	.LC2
 2041 013c 00000000 		.word	.LANCHOR0
 2042 0140 44000000 		.word	.LC3
 2043 0144 00000000 		.word	.LC0
 2044 0148 20000000 		.word	.LC1
 2045 014c 00000000 		.word	.LC17
 2046              		.cfi_endproc
 2047              	.LFE19:
 2049              		.section	.text.elog_get_filter_tag_lvl,"ax",%progbits
 2050              		.align	1
 2051              		.global	elog_get_filter_tag_lvl
 2052              		.syntax unified
 2053              		.thumb
 2054              		.thumb_func
 2056              	elog_get_filter_tag_lvl:
 2057              	.LVL183:
 2058              	.LFB20:
 475:../../../easylogger/src/elog.c ****     ELOG_ASSERT(tag != ((void *)0));
 2059              		.loc 1 475 1 view -0
 2060              		.cfi_startproc
 2061              		@ args = 0, pretend = 0, frame = 0
 2062              		@ frame_needed = 0, uses_anonymous_args = 0
 475:../../../easylogger/src/elog.c ****     ELOG_ASSERT(tag != ((void *)0));
 2063              		.loc 1 475 1 is_stmt 0 view .LVU451
 2064 0000 70B5     		push	{r4, r5, r6, lr}
 2065              	.LCFI39:
 2066              		.cfi_def_cfa_offset 16
 2067              		.cfi_offset 4, -16
 2068              		.cfi_offset 5, -12
 2069              		.cfi_offset 6, -8
 2070              		.cfi_offset 14, -4
 2071 0002 86B0     		sub	sp, sp, #24
 2072              	.LCFI40:
 2073              		.cfi_def_cfa_offset 40
 476:../../../easylogger/src/elog.c ****     uint8_t i = 0;
 2074              		.loc 1 476 5 is_stmt 1 view .LVU452
 2075 0004 0646     		mov	r6, r0
 2076 0006 40B1     		cbz	r0, .L185
 2077              	.LVL184:
 2078              	.L175:
ARM GAS  C:\Users\Jim_YW\AppData\Local\Temp\ccykl1oO.s 			page 57


 476:../../../easylogger/src/elog.c ****     uint8_t i = 0;
 2079              		.loc 1 476 36 discriminator 6 view .LVU453
 477:../../../easylogger/src/elog.c ****     uint8_t level = ELOG_FILTER_LVL_ALL;
 2080              		.loc 1 477 5 discriminator 6 view .LVU454
 478:../../../easylogger/src/elog.c **** 
 2081              		.loc 1 478 5 discriminator 6 view .LVU455
 480:../../../easylogger/src/elog.c ****         return level;
 2082              		.loc 1 480 5 discriminator 6 view .LVU456
 480:../../../easylogger/src/elog.c ****         return level;
 2083              		.loc 1 480 14 is_stmt 0 discriminator 6 view .LVU457
 2084 0008 234B     		ldr	r3, .L188
 2085 000a 93F8F030 		ldrb	r3, [r3, #240]	@ zero_extendqisi2
 480:../../../easylogger/src/elog.c ****         return level;
 2086              		.loc 1 480 8 discriminator 6 view .LVU458
 2087 000e 002B     		cmp	r3, #0
 2088 0010 3FD0     		beq	.L183
 484:../../../easylogger/src/elog.c ****     /* find the tag in arr */
 2089              		.loc 1 484 5 is_stmt 1 view .LVU459
 2090 0012 FFF7FEFF 		bl	elog_output_lock
 2091              	.LVL185:
 486:../../../easylogger/src/elog.c ****         if (elog.filter.tag_lvl[i].tag_use_flag == true &&
 2092              		.loc 1 486 5 view .LVU460
 486:../../../easylogger/src/elog.c ****         if (elog.filter.tag_lvl[i].tag_use_flag == true &&
 2093              		.loc 1 486 12 is_stmt 0 view .LVU461
 2094 0016 0024     		movs	r4, #0
 486:../../../easylogger/src/elog.c ****         if (elog.filter.tag_lvl[i].tag_use_flag == true &&
 2095              		.loc 1 486 5 view .LVU462
 2096 0018 19E0     		b	.L179
 2097              	.LVL186:
 2098              	.L185:
 476:../../../easylogger/src/elog.c ****     uint8_t i = 0;
 2099              		.loc 1 476 5 is_stmt 1 discriminator 1 view .LVU463
 2100 001a 204B     		ldr	r3, .L188+4
 2101 001c 1B68     		ldr	r3, [r3]
 2102 001e 2BB1     		cbz	r3, .L186
 476:../../../easylogger/src/elog.c ****     uint8_t i = 0;
 2103              		.loc 1 476 5 discriminator 4 view .LVU464
 2104 0020 4FF4EE72 		mov	r2, #476
 2105 0024 1E49     		ldr	r1, .L188+8
 2106 0026 1F48     		ldr	r0, .L188+12
 2107              	.LVL187:
 476:../../../easylogger/src/elog.c ****     uint8_t i = 0;
 2108              		.loc 1 476 5 is_stmt 0 discriminator 4 view .LVU465
 2109 0028 9847     		blx	r3
 2110              	.LVL188:
 2111 002a EDE7     		b	.L175
 2112              	.LVL189:
 2113              	.L186:
 476:../../../easylogger/src/elog.c ****     uint8_t i = 0;
 2114              		.loc 1 476 5 is_stmt 1 discriminator 3 view .LVU466
 2115 002c 1C4B     		ldr	r3, .L188+8
 2116 002e 4FF4EE72 		mov	r2, #476
 2117 0032 0492     		str	r2, [sp, #16]
 2118 0034 0393     		str	r3, [sp, #12]
 2119 0036 1B49     		ldr	r1, .L188+12
 2120 0038 0291     		str	r1, [sp, #8]
 2121 003a 1B49     		ldr	r1, .L188+16
ARM GAS  C:\Users\Jim_YW\AppData\Local\Temp\ccykl1oO.s 			page 58


 2122 003c 0191     		str	r1, [sp, #4]
 2123 003e 0092     		str	r2, [sp]
 2124 0040 1A4A     		ldr	r2, .L188+20
 2125 0042 1B49     		ldr	r1, .L188+24
 2126 0044 FFF7FEFF 		bl	elog_output
 2127              	.LVL190:
 2128              	.L177:
 476:../../../easylogger/src/elog.c ****     uint8_t i = 0;
 2129              		.loc 1 476 5 discriminator 1 view .LVU467
 476:../../../easylogger/src/elog.c ****     uint8_t i = 0;
 2130              		.loc 1 476 5 discriminator 1 view .LVU468
 476:../../../easylogger/src/elog.c ****     uint8_t i = 0;
 2131              		.loc 1 476 5 discriminator 1 view .LVU469
 2132 0048 FEE7     		b	.L177
 2133              	.LVL191:
 2134              	.L180:
 486:../../../easylogger/src/elog.c ****         if (elog.filter.tag_lvl[i].tag_use_flag == true &&
 2135              		.loc 1 486 48 discriminator 2 view .LVU470
 486:../../../easylogger/src/elog.c ****         if (elog.filter.tag_lvl[i].tag_use_flag == true &&
 2136              		.loc 1 486 49 is_stmt 0 discriminator 2 view .LVU471
 2137 004a 0134     		adds	r4, r4, #1
 2138              	.LVL192:
 486:../../../easylogger/src/elog.c ****         if (elog.filter.tag_lvl[i].tag_use_flag == true &&
 2139              		.loc 1 486 49 discriminator 2 view .LVU472
 2140 004c E4B2     		uxtb	r4, r4
 2141              	.LVL193:
 2142              	.L179:
 486:../../../easylogger/src/elog.c ****         if (elog.filter.tag_lvl[i].tag_use_flag == true &&
 2143              		.loc 1 486 16 is_stmt 1 discriminator 1 view .LVU473
 486:../../../easylogger/src/elog.c ****         if (elog.filter.tag_lvl[i].tag_use_flag == true &&
 2144              		.loc 1 486 5 is_stmt 0 discriminator 1 view .LVU474
 2145 004e 042C     		cmp	r4, #4
 2146 0050 19D8     		bhi	.L187
 487:../../../easylogger/src/elog.c ****             !strncmp(tag, elog.filter.tag_lvl[i].tag,ELOG_FILTER_TAG_MAX_LEN)){
 2147              		.loc 1 487 9 is_stmt 1 view .LVU475
 487:../../../easylogger/src/elog.c ****             !strncmp(tag, elog.filter.tag_lvl[i].tag,ELOG_FILTER_TAG_MAX_LEN)){
 2148              		.loc 1 487 35 is_stmt 0 view .LVU476
 2149 0052 04EB4412 		add	r2, r4, r4, lsl #5
 2150 0056 104B     		ldr	r3, .L188
 2151 0058 1344     		add	r3, r3, r2
 2152 005a 93F85130 		ldrb	r3, [r3, #81]	@ zero_extendqisi2
 487:../../../easylogger/src/elog.c ****             !strncmp(tag, elog.filter.tag_lvl[i].tag,ELOG_FILTER_TAG_MAX_LEN)){
 2153              		.loc 1 487 12 view .LVU477
 2154 005e 002B     		cmp	r3, #0
 2155 0060 F3D0     		beq	.L180
 488:../../../easylogger/src/elog.c ****             level = elog.filter.tag_lvl[i].level;
 2156              		.loc 1 488 49 discriminator 1 view .LVU478
 2157 0062 02F13003 		add	r3, r2, #48
 2158 0066 0C49     		ldr	r1, .L188
 2159 0068 1944     		add	r1, r1, r3
 488:../../../easylogger/src/elog.c ****             level = elog.filter.tag_lvl[i].level;
 2160              		.loc 1 488 14 discriminator 1 view .LVU479
 2161 006a 1E22     		movs	r2, #30
 2162 006c 0231     		adds	r1, r1, #2
 2163 006e 3046     		mov	r0, r6
 2164 0070 FFF7FEFF 		bl	strncmp
 2165              	.LVL194:
ARM GAS  C:\Users\Jim_YW\AppData\Local\Temp\ccykl1oO.s 			page 59


 487:../../../easylogger/src/elog.c ****             !strncmp(tag, elog.filter.tag_lvl[i].tag,ELOG_FILTER_TAG_MAX_LEN)){
 2166              		.loc 1 487 57 discriminator 1 view .LVU480
 2167 0074 0028     		cmp	r0, #0
 2168 0076 E8D1     		bne	.L180
 489:../../../easylogger/src/elog.c ****             break;
 2169              		.loc 1 489 13 is_stmt 1 view .LVU481
 489:../../../easylogger/src/elog.c ****             break;
 2170              		.loc 1 489 19 is_stmt 0 view .LVU482
 2171 0078 04EB4415 		add	r5, r4, r4, lsl #5
 2172 007c 064B     		ldr	r3, .L188
 2173 007e 1D44     		add	r5, r5, r3
 2174 0080 95F83140 		ldrb	r4, [r5, #49]	@ zero_extendqisi2
 2175              	.LVL195:
 490:../../../easylogger/src/elog.c ****         }
 2176              		.loc 1 490 13 is_stmt 1 view .LVU483
 2177 0084 00E0     		b	.L181
 2178              	.LVL196:
 2179              	.L187:
 478:../../../easylogger/src/elog.c **** 
 2180              		.loc 1 478 13 is_stmt 0 view .LVU484
 2181 0086 0524     		movs	r4, #5
 2182              	.LVL197:
 2183              	.L181:
 493:../../../easylogger/src/elog.c **** 
 2184              		.loc 1 493 5 is_stmt 1 view .LVU485
 2185 0088 FFF7FEFF 		bl	elog_output_unlock
 2186              	.LVL198:
 495:../../../easylogger/src/elog.c **** }
 2187              		.loc 1 495 5 view .LVU486
 2188              	.L178:
 496:../../../easylogger/src/elog.c **** 
 2189              		.loc 1 496 1 is_stmt 0 view .LVU487
 2190 008c 2046     		mov	r0, r4
 2191 008e 06B0     		add	sp, sp, #24
 2192              	.LCFI41:
 2193              		.cfi_remember_state
 2194              		.cfi_def_cfa_offset 16
 2195              		@ sp needed
 2196 0090 70BD     		pop	{r4, r5, r6, pc}
 2197              	.LVL199:
 2198              	.L183:
 2199              	.LCFI42:
 2200              		.cfi_restore_state
 481:../../../easylogger/src/elog.c ****     }
 2201              		.loc 1 481 16 view .LVU488
 2202 0092 0524     		movs	r4, #5
 2203 0094 FAE7     		b	.L178
 2204              	.L189:
 2205 0096 00BF     		.align	2
 2206              	.L188:
 2207 0098 00000000 		.word	.LANCHOR0
 2208 009c 00000000 		.word	.LANCHOR2
 2209 00a0 00000000 		.word	.LANCHOR12
 2210 00a4 00000000 		.word	.LC17
 2211 00a8 44000000 		.word	.LC3
 2212 00ac 00000000 		.word	.LC0
 2213 00b0 20000000 		.word	.LC1
ARM GAS  C:\Users\Jim_YW\AppData\Local\Temp\ccykl1oO.s 			page 60


 2214              		.cfi_endproc
 2215              	.LFE20:
 2217              		.section	.text.get_fmt_enabled,"ax",%progbits
 2218              		.align	1
 2219              		.syntax unified
 2220              		.thumb
 2221              		.thumb_func
 2223              	get_fmt_enabled:
 2224              	.LVL200:
 2225              	.LFB23:
 722:../../../easylogger/src/elog.c **** 
 723:../../../easylogger/src/elog.c **** /**
 724:../../../easylogger/src/elog.c ****  * get format enabled
 725:../../../easylogger/src/elog.c ****  *
 726:../../../easylogger/src/elog.c ****  * @param level level
 727:../../../easylogger/src/elog.c ****  * @param set format set
 728:../../../easylogger/src/elog.c ****  *
 729:../../../easylogger/src/elog.c ****  * @return enable or disable
 730:../../../easylogger/src/elog.c ****  */
 731:../../../easylogger/src/elog.c **** static bool get_fmt_enabled(uint8_t level, size_t set) {
 2226              		.loc 1 731 56 is_stmt 1 view -0
 2227              		.cfi_startproc
 2228              		@ args = 0, pretend = 0, frame = 0
 2229              		@ frame_needed = 0, uses_anonymous_args = 0
 2230              		.loc 1 731 56 is_stmt 0 view .LVU490
 2231 0000 30B5     		push	{r4, r5, lr}
 2232              	.LCFI43:
 2233              		.cfi_def_cfa_offset 12
 2234              		.cfi_offset 4, -12
 2235              		.cfi_offset 5, -8
 2236              		.cfi_offset 14, -4
 2237 0002 87B0     		sub	sp, sp, #28
 2238              	.LCFI44:
 2239              		.cfi_def_cfa_offset 40
 2240 0004 0446     		mov	r4, r0
 2241 0006 0D46     		mov	r5, r1
 732:../../../easylogger/src/elog.c ****     ELOG_ASSERT(level <= ELOG_LVL_VERBOSE);
 2242              		.loc 1 732 5 is_stmt 1 view .LVU491
 2243 0008 0528     		cmp	r0, #5
 2244 000a 07D9     		bls	.L191
 2245              		.loc 1 732 5 discriminator 1 view .LVU492
 2246 000c 114B     		ldr	r3, .L198
 2247 000e 1B68     		ldr	r3, [r3]
 2248 0010 6BB1     		cbz	r3, .L197
 2249              		.loc 1 732 5 discriminator 4 view .LVU493
 2250 0012 4FF43772 		mov	r2, #732
 2251 0016 1049     		ldr	r1, .L198+4
 2252              	.LVL201:
 2253              		.loc 1 732 5 is_stmt 0 discriminator 4 view .LVU494
 2254 0018 1048     		ldr	r0, .L198+8
 2255              	.LVL202:
 2256              		.loc 1 732 5 discriminator 4 view .LVU495
 2257 001a 9847     		blx	r3
 2258              	.LVL203:
 2259              	.L191:
 2260              		.loc 1 732 43 is_stmt 1 discriminator 6 view .LVU496
 733:../../../easylogger/src/elog.c **** 
ARM GAS  C:\Users\Jim_YW\AppData\Local\Temp\ccykl1oO.s 			page 61


 734:../../../easylogger/src/elog.c ****     if (elog.enabled_fmt_set[level] & set) {
 2261              		.loc 1 734 5 discriminator 6 view .LVU497
 2262              		.loc 1 734 29 is_stmt 0 discriminator 6 view .LVU498
 2263 001c 3634     		adds	r4, r4, #54
 2264 001e 104B     		ldr	r3, .L198+12
 2265 0020 53F82430 		ldr	r3, [r3, r4, lsl #2]
 2266              		.loc 1 734 8 discriminator 6 view .LVU499
 2267 0024 2B42     		tst	r3, r5
 2268 0026 12D0     		beq	.L195
 735:../../../easylogger/src/elog.c ****         return true;
 2269              		.loc 1 735 16 view .LVU500
 2270 0028 0120     		movs	r0, #1
 2271              	.L194:
 736:../../../easylogger/src/elog.c ****     } else {
 737:../../../easylogger/src/elog.c ****         return false;
 738:../../../easylogger/src/elog.c ****     }
 739:../../../easylogger/src/elog.c **** }
 2272              		.loc 1 739 1 view .LVU501
 2273 002a 07B0     		add	sp, sp, #28
 2274              	.LCFI45:
 2275              		.cfi_remember_state
 2276              		.cfi_def_cfa_offset 12
 2277              		@ sp needed
 2278 002c 30BD     		pop	{r4, r5, pc}
 2279              	.LVL204:
 2280              	.L197:
 2281              	.LCFI46:
 2282              		.cfi_restore_state
 732:../../../easylogger/src/elog.c **** 
 2283              		.loc 1 732 5 is_stmt 1 discriminator 3 view .LVU502
 2284 002e 0A4B     		ldr	r3, .L198+4
 2285 0030 4FF43772 		mov	r2, #732
 2286 0034 0492     		str	r2, [sp, #16]
 2287 0036 0393     		str	r3, [sp, #12]
 2288 0038 0849     		ldr	r1, .L198+8
 2289              	.LVL205:
 732:../../../easylogger/src/elog.c **** 
 2290              		.loc 1 732 5 is_stmt 0 discriminator 3 view .LVU503
 2291 003a 0291     		str	r1, [sp, #8]
 2292 003c 0949     		ldr	r1, .L198+16
 2293 003e 0191     		str	r1, [sp, #4]
 2294 0040 0092     		str	r2, [sp]
 2295 0042 094A     		ldr	r2, .L198+20
 2296 0044 0949     		ldr	r1, .L198+24
 2297 0046 0020     		movs	r0, #0
 2298              	.LVL206:
 732:../../../easylogger/src/elog.c **** 
 2299              		.loc 1 732 5 discriminator 3 view .LVU504
 2300 0048 FFF7FEFF 		bl	elog_output
 2301              	.LVL207:
 2302              	.L193:
 732:../../../easylogger/src/elog.c **** 
 2303              		.loc 1 732 5 is_stmt 1 discriminator 1 view .LVU505
 732:../../../easylogger/src/elog.c **** 
 2304              		.loc 1 732 5 discriminator 1 view .LVU506
 732:../../../easylogger/src/elog.c **** 
 2305              		.loc 1 732 5 discriminator 1 view .LVU507
ARM GAS  C:\Users\Jim_YW\AppData\Local\Temp\ccykl1oO.s 			page 62


 2306 004c FEE7     		b	.L193
 2307              	.L195:
 737:../../../easylogger/src/elog.c ****     }
 2308              		.loc 1 737 16 is_stmt 0 view .LVU508
 2309 004e 0020     		movs	r0, #0
 2310 0050 EBE7     		b	.L194
 2311              	.L199:
 2312 0052 00BF     		.align	2
 2313              	.L198:
 2314 0054 00000000 		.word	.LANCHOR2
 2315 0058 00000000 		.word	.LANCHOR13
 2316 005c 28000000 		.word	.LC2
 2317 0060 00000000 		.word	.LANCHOR0
 2318 0064 44000000 		.word	.LC3
 2319 0068 00000000 		.word	.LC0
 2320 006c 20000000 		.word	.LC1
 2321              		.cfi_endproc
 2322              	.LFE23:
 2324              		.section	.text.elog_output_lock_enabled,"ax",%progbits
 2325              		.align	1
 2326              		.global	elog_output_lock_enabled
 2327              		.syntax unified
 2328              		.thumb
 2329              		.thumb_func
 2331              	elog_output_lock_enabled:
 2332              	.LVL208:
 2333              	.LFB24:
 740:../../../easylogger/src/elog.c **** 
 741:../../../easylogger/src/elog.c **** /**
 742:../../../easylogger/src/elog.c ****  * enable or disable logger output lock
 743:../../../easylogger/src/elog.c ****  * @note disable this lock is not recommended except you want output system exception log
 744:../../../easylogger/src/elog.c ****  *
 745:../../../easylogger/src/elog.c ****  * @param enabled true: enable  false: disable
 746:../../../easylogger/src/elog.c ****  */
 747:../../../easylogger/src/elog.c **** void elog_output_lock_enabled(bool enabled) {
 2334              		.loc 1 747 45 is_stmt 1 view -0
 2335              		.cfi_startproc
 2336              		@ args = 0, pretend = 0, frame = 0
 2337              		@ frame_needed = 0, uses_anonymous_args = 0
 2338              		.loc 1 747 45 is_stmt 0 view .LVU510
 2339 0000 08B5     		push	{r3, lr}
 2340              	.LCFI47:
 2341              		.cfi_def_cfa_offset 8
 2342              		.cfi_offset 3, -8
 2343              		.cfi_offset 14, -4
 748:../../../easylogger/src/elog.c ****     elog.output_lock_enabled = enabled;
 2344              		.loc 1 748 5 is_stmt 1 view .LVU511
 2345              		.loc 1 748 30 is_stmt 0 view .LVU512
 2346 0002 0B4B     		ldr	r3, .L206
 2347 0004 83F8F200 		strb	r0, [r3, #242]
 749:../../../easylogger/src/elog.c ****     /* it will re-lock or re-unlock before output lock enable */
 750:../../../easylogger/src/elog.c ****     if (elog.output_lock_enabled) {
 2348              		.loc 1 750 5 is_stmt 1 view .LVU513
 2349              		.loc 1 750 8 is_stmt 0 view .LVU514
 2350 0008 58B1     		cbz	r0, .L200
 751:../../../easylogger/src/elog.c ****         if (!elog.output_is_locked_before_disable && elog.output_is_locked_before_enable) {
 2351              		.loc 1 751 9 is_stmt 1 view .LVU515
ARM GAS  C:\Users\Jim_YW\AppData\Local\Temp\ccykl1oO.s 			page 63


 2352              		.loc 1 751 18 is_stmt 0 view .LVU516
 2353 000a 93F8F430 		ldrb	r3, [r3, #244]	@ zero_extendqisi2
 2354              		.loc 1 751 12 view .LVU517
 2355 000e 1BB9     		cbnz	r3, .L202
 2356              		.loc 1 751 58 discriminator 1 view .LVU518
 2357 0010 074A     		ldr	r2, .L206
 2358 0012 92F8F320 		ldrb	r2, [r2, #243]	@ zero_extendqisi2
 2359              		.loc 1 751 51 discriminator 1 view .LVU519
 2360 0016 2AB9     		cbnz	r2, .L204
 2361              	.L202:
 752:../../../easylogger/src/elog.c ****             /* the output lock is unlocked before disable, and the lock will unlocking after enable
 753:../../../easylogger/src/elog.c ****             elog_port_output_lock();
 754:../../../easylogger/src/elog.c ****         } else if (elog.output_is_locked_before_disable && !elog.output_is_locked_before_enable) {
 2362              		.loc 1 754 16 is_stmt 1 view .LVU520
 2363              		.loc 1 754 19 is_stmt 0 view .LVU521
 2364 0018 1BB1     		cbz	r3, .L200
 2365              		.loc 1 754 65 discriminator 1 view .LVU522
 2366 001a 054B     		ldr	r3, .L206
 2367 001c 93F8F330 		ldrb	r3, [r3, #243]	@ zero_extendqisi2
 2368              		.loc 1 754 57 discriminator 1 view .LVU523
 2369 0020 1BB1     		cbz	r3, .L205
 2370              	.LVL209:
 2371              	.L200:
 755:../../../easylogger/src/elog.c ****             /* the output lock is locked before disable, and the lock will locking after enable */
 756:../../../easylogger/src/elog.c ****             elog_port_output_unlock();
 757:../../../easylogger/src/elog.c ****         }
 758:../../../easylogger/src/elog.c ****     }
 759:../../../easylogger/src/elog.c **** }
 2372              		.loc 1 759 1 view .LVU524
 2373 0022 08BD     		pop	{r3, pc}
 2374              	.LVL210:
 2375              	.L204:
 753:../../../easylogger/src/elog.c ****         } else if (elog.output_is_locked_before_disable && !elog.output_is_locked_before_enable) {
 2376              		.loc 1 753 13 is_stmt 1 view .LVU525
 2377 0024 FFF7FEFF 		bl	elog_port_output_lock
 2378              	.LVL211:
 753:../../../easylogger/src/elog.c ****         } else if (elog.output_is_locked_before_disable && !elog.output_is_locked_before_enable) {
 2379              		.loc 1 753 13 is_stmt 0 view .LVU526
 2380 0028 FBE7     		b	.L200
 2381              	.LVL212:
 2382              	.L205:
 756:../../../easylogger/src/elog.c ****         }
 2383              		.loc 1 756 13 is_stmt 1 view .LVU527
 2384 002a FFF7FEFF 		bl	elog_port_output_unlock
 2385              	.LVL213:
 2386              		.loc 1 759 1 is_stmt 0 view .LVU528
 2387 002e F8E7     		b	.L200
 2388              	.L207:
 2389              		.align	2
 2390              	.L206:
 2391 0030 00000000 		.word	.LANCHOR0
 2392              		.cfi_endproc
 2393              	.LFE24:
 2395              		.section	.text.elog_init,"ax",%progbits
 2396              		.align	1
 2397              		.global	elog_init
 2398              		.syntax unified
ARM GAS  C:\Users\Jim_YW\AppData\Local\Temp\ccykl1oO.s 			page 64


 2399              		.thumb
 2400              		.thumb_func
 2402              	elog_init:
 2403              	.LFB3:
 158:../../../easylogger/src/elog.c ****     extern ElogErrCode elog_port_init(void);
 2404              		.loc 1 158 29 is_stmt 1 view -0
 2405              		.cfi_startproc
 2406              		@ args = 0, pretend = 0, frame = 0
 2407              		@ frame_needed = 0, uses_anonymous_args = 0
 2408 0000 38B5     		push	{r3, r4, r5, lr}
 2409              	.LCFI48:
 2410              		.cfi_def_cfa_offset 16
 2411              		.cfi_offset 3, -16
 2412              		.cfi_offset 4, -12
 2413              		.cfi_offset 5, -8
 2414              		.cfi_offset 14, -4
 159:../../../easylogger/src/elog.c ****     extern ElogErrCode elog_async_init(void);
 2415              		.loc 1 159 5 view .LVU530
 160:../../../easylogger/src/elog.c **** 
 2416              		.loc 1 160 5 view .LVU531
 162:../../../easylogger/src/elog.c **** 
 2417              		.loc 1 162 5 view .LVU532
 2418              	.LVL214:
 164:../../../easylogger/src/elog.c ****         return result;
 2419              		.loc 1 164 5 view .LVU533
 164:../../../easylogger/src/elog.c ****         return result;
 2420              		.loc 1 164 13 is_stmt 0 view .LVU534
 2421 0002 134B     		ldr	r3, .L213
 2422 0004 93F8F030 		ldrb	r3, [r3, #240]	@ zero_extendqisi2
 164:../../../easylogger/src/elog.c ****         return result;
 2423              		.loc 1 164 8 view .LVU535
 2424 0008 13B1     		cbz	r3, .L212
 165:../../../easylogger/src/elog.c ****     }
 2425              		.loc 1 165 16 view .LVU536
 2426 000a 0024     		movs	r4, #0
 2427              	.LVL215:
 2428              	.L209:
 201:../../../easylogger/src/elog.c **** 
 2429              		.loc 1 201 1 view .LVU537
 2430 000c 2046     		mov	r0, r4
 2431 000e 38BD     		pop	{r3, r4, r5, pc}
 2432              	.LVL216:
 2433              	.L212:
 169:../../../easylogger/src/elog.c ****     if (result != ELOG_NO_ERR) {
 2434              		.loc 1 169 5 is_stmt 1 view .LVU538
 169:../../../easylogger/src/elog.c ****     if (result != ELOG_NO_ERR) {
 2435              		.loc 1 169 14 is_stmt 0 view .LVU539
 2436 0010 FFF7FEFF 		bl	elog_port_init
 2437              	.LVL217:
 170:../../../easylogger/src/elog.c ****         return result;
 2438              		.loc 1 170 5 is_stmt 1 view .LVU540
 170:../../../easylogger/src/elog.c ****         return result;
 2439              		.loc 1 170 8 is_stmt 0 view .LVU541
 2440 0014 0446     		mov	r4, r0
 2441 0016 0028     		cmp	r0, #0
 2442 0018 F8D1     		bne	.L209
 175:../../../easylogger/src/elog.c ****     if (result != ELOG_NO_ERR) {
ARM GAS  C:\Users\Jim_YW\AppData\Local\Temp\ccykl1oO.s 			page 65


 2443              		.loc 1 175 5 is_stmt 1 view .LVU542
 175:../../../easylogger/src/elog.c ****     if (result != ELOG_NO_ERR) {
 2444              		.loc 1 175 14 is_stmt 0 view .LVU543
 2445 001a FFF7FEFF 		bl	elog_async_init
 2446              	.LVL218:
 176:../../../easylogger/src/elog.c ****         return result;
 2447              		.loc 1 176 5 is_stmt 1 view .LVU544
 176:../../../easylogger/src/elog.c ****         return result;
 2448              		.loc 1 176 8 is_stmt 0 view .LVU545
 2449 001e 0446     		mov	r4, r0
 2450 0020 0028     		cmp	r0, #0
 2451 0022 F3D1     		bne	.L209
 182:../../../easylogger/src/elog.c ****     /* output locked status initialize */
 2452              		.loc 1 182 5 is_stmt 1 view .LVU546
 2453 0024 0120     		movs	r0, #1
 2454              	.LVL219:
 182:../../../easylogger/src/elog.c ****     /* output locked status initialize */
 2455              		.loc 1 182 5 is_stmt 0 view .LVU547
 2456 0026 FFF7FEFF 		bl	elog_output_lock_enabled
 2457              	.LVL220:
 184:../../../easylogger/src/elog.c ****     elog.output_is_locked_before_disable = false;
 2458              		.loc 1 184 5 is_stmt 1 view .LVU548
 184:../../../easylogger/src/elog.c ****     elog.output_is_locked_before_disable = false;
 2459              		.loc 1 184 41 is_stmt 0 view .LVU549
 2460 002a 094D     		ldr	r5, .L213
 2461 002c 0023     		movs	r3, #0
 2462 002e 85F8F330 		strb	r3, [r5, #243]
 185:../../../easylogger/src/elog.c **** 
 2463              		.loc 1 185 5 is_stmt 1 view .LVU550
 185:../../../easylogger/src/elog.c **** 
 2464              		.loc 1 185 42 is_stmt 0 view .LVU551
 2465 0032 85F8F430 		strb	r3, [r5, #244]
 189:../../../easylogger/src/elog.c **** #endif
 2466              		.loc 1 189 5 is_stmt 1 view .LVU552
 2467 0036 0120     		movs	r0, #1
 2468 0038 FFF7FEFF 		bl	elog_set_text_color_enabled
 2469              	.LVL221:
 193:../../../easylogger/src/elog.c **** 
 2470              		.loc 1 193 5 view .LVU553
 2471 003c 0520     		movs	r0, #5
 2472 003e FFF7FEFF 		bl	elog_set_filter_lvl
 2473              	.LVL222:
 196:../../../easylogger/src/elog.c **** 
 2474              		.loc 1 196 5 view .LVU554
 2475 0042 FFF7FEFF 		bl	elog_set_filter_tag_lvl_default
 2476              	.LVL223:
 198:../../../easylogger/src/elog.c **** 
 2477              		.loc 1 198 5 view .LVU555
 198:../../../easylogger/src/elog.c **** 
 2478              		.loc 1 198 18 is_stmt 0 view .LVU556
 2479 0046 0123     		movs	r3, #1
 2480 0048 85F8F030 		strb	r3, [r5, #240]
 200:../../../easylogger/src/elog.c **** }
 2481              		.loc 1 200 5 is_stmt 1 view .LVU557
 200:../../../easylogger/src/elog.c **** }
 2482              		.loc 1 200 12 is_stmt 0 view .LVU558
 2483 004c DEE7     		b	.L209
ARM GAS  C:\Users\Jim_YW\AppData\Local\Temp\ccykl1oO.s 			page 66


 2484              	.L214:
 2485 004e 00BF     		.align	2
 2486              	.L213:
 2487 0050 00000000 		.word	.LANCHOR0
 2488              		.cfi_endproc
 2489              	.LFE3:
 2491              		.section	.text.elog_assert_set_hook,"ax",%progbits
 2492              		.align	1
 2493              		.global	elog_assert_set_hook
 2494              		.syntax unified
 2495              		.thumb
 2496              		.thumb_func
 2498              	elog_assert_set_hook:
 2499              	.LVL224:
 2500              	.LFB25:
 760:../../../easylogger/src/elog.c **** 
 761:../../../easylogger/src/elog.c **** /**
 762:../../../easylogger/src/elog.c ****  * Set a hook function to EasyLogger assert. It will run when the expression is false.
 763:../../../easylogger/src/elog.c ****  *
 764:../../../easylogger/src/elog.c ****  * @param hook the hook function
 765:../../../easylogger/src/elog.c ****  */
 766:../../../easylogger/src/elog.c **** void elog_assert_set_hook(void (*hook)(const char* expr, const char* func, size_t line)) {
 2501              		.loc 1 766 90 is_stmt 1 view -0
 2502              		.cfi_startproc
 2503              		@ args = 0, pretend = 0, frame = 0
 2504              		@ frame_needed = 0, uses_anonymous_args = 0
 2505              		@ link register save eliminated.
 767:../../../easylogger/src/elog.c ****     elog_assert_hook = hook;
 2506              		.loc 1 767 5 view .LVU560
 2507              		.loc 1 767 22 is_stmt 0 view .LVU561
 2508 0000 014B     		ldr	r3, .L216
 2509 0002 1860     		str	r0, [r3]
 768:../../../easylogger/src/elog.c **** }
 2510              		.loc 1 768 1 view .LVU562
 2511 0004 7047     		bx	lr
 2512              	.L217:
 2513 0006 00BF     		.align	2
 2514              	.L216:
 2515 0008 00000000 		.word	.LANCHOR2
 2516              		.cfi_endproc
 2517              	.LFE25:
 2519              		.section	.rodata.elog_find_lvl.str1.4,"aMS",%progbits,1
 2520              		.align	2
 2521              	.LC18:
 2522 0000 6C6F6700 		.ascii	"log\000"
 2523              		.align	2
 2524              	.LC19:
 2525 0004 656C6F67 		.ascii	"elog.enabled_fmt_set[ELOG_LVL_ASSERT] & ELOG_FMT_LV"
 2525      2E656E61 
 2525      626C6564 
 2525      5F666D74 
 2525      5F736574 
 2526 0037 4C00     		.ascii	"L\000"
 2527 0039 000000   		.align	2
 2528              	.LC20:
 2529 003c 656C6F67 		.ascii	"elog.enabled_fmt_set[ELOG_LVL_ERROR] & ELOG_FMT_LVL"
 2529      2E656E61 
ARM GAS  C:\Users\Jim_YW\AppData\Local\Temp\ccykl1oO.s 			page 67


 2529      626C6564 
 2529      5F666D74 
 2529      5F736574 
 2530 006f 00       		.ascii	"\000"
 2531              		.align	2
 2532              	.LC21:
 2533 0070 656C6F67 		.ascii	"elog.enabled_fmt_set[ELOG_LVL_WARN] & ELOG_FMT_LVL\000"
 2533      2E656E61 
 2533      626C6564 
 2533      5F666D74 
 2533      5F736574 
 2534 00a3 00       		.align	2
 2535              	.LC22:
 2536 00a4 656C6F67 		.ascii	"elog.enabled_fmt_set[ELOG_LVL_INFO] & ELOG_FMT_LVL\000"
 2536      2E656E61 
 2536      626C6564 
 2536      5F666D74 
 2536      5F736574 
 2537 00d7 00       		.align	2
 2538              	.LC23:
 2539 00d8 656C6F67 		.ascii	"elog.enabled_fmt_set[ELOG_LVL_DEBUG] & ELOG_FMT_LVL"
 2539      2E656E61 
 2539      626C6564 
 2539      5F666D74 
 2539      5F736574 
 2540 010b 00       		.ascii	"\000"
 2541              		.align	2
 2542              	.LC24:
 2543 010c 656C6F67 		.ascii	"elog.enabled_fmt_set[ELOG_LVL_VERBOSE] & ELOG_FMT_L"
 2543      2E656E61 
 2543      626C6564 
 2543      5F666D74 
 2543      5F736574 
 2544 013f 564C00   		.ascii	"VL\000"
 2545              		.section	.text.elog_find_lvl,"ax",%progbits
 2546              		.align	1
 2547              		.global	elog_find_lvl
 2548              		.syntax unified
 2549              		.thumb
 2550              		.thumb_func
 2552              	elog_find_lvl:
 2553              	.LVL225:
 2554              	.LFB26:
 769:../../../easylogger/src/elog.c **** 
 770:../../../easylogger/src/elog.c **** /**
 771:../../../easylogger/src/elog.c ****  * find the log level
 772:../../../easylogger/src/elog.c ****  * @note make sure the log level is output on each format
 773:../../../easylogger/src/elog.c ****  *
 774:../../../easylogger/src/elog.c ****  * @param log log buffer
 775:../../../easylogger/src/elog.c ****  *
 776:../../../easylogger/src/elog.c ****  * @return log level, found failed will return -1
 777:../../../easylogger/src/elog.c ****  */
 778:../../../easylogger/src/elog.c **** int8_t elog_find_lvl(const char *log) {
 2555              		.loc 1 778 39 is_stmt 1 view -0
 2556              		.cfi_startproc
 2557              		@ args = 0, pretend = 0, frame = 0
 2558              		@ frame_needed = 0, uses_anonymous_args = 0
ARM GAS  C:\Users\Jim_YW\AppData\Local\Temp\ccykl1oO.s 			page 68


 2559              		.loc 1 778 39 is_stmt 0 view .LVU564
 2560 0000 70B5     		push	{r4, r5, r6, lr}
 2561              	.LCFI49:
 2562              		.cfi_def_cfa_offset 16
 2563              		.cfi_offset 4, -16
 2564              		.cfi_offset 5, -12
 2565              		.cfi_offset 6, -8
 2566              		.cfi_offset 14, -4
 2567 0002 86B0     		sub	sp, sp, #24
 2568              	.LCFI50:
 2569              		.cfi_def_cfa_offset 40
 779:../../../easylogger/src/elog.c ****     ELOG_ASSERT(log);
 2570              		.loc 1 779 5 is_stmt 1 view .LVU565
 2571 0004 0646     		mov	r6, r0
 2572 0006 0028     		cmp	r0, #0
 2573 0008 73D0     		beq	.L245
 2574              	.LVL226:
 2575              	.L219:
 2576              		.loc 1 779 21 discriminator 6 view .LVU566
 780:../../../easylogger/src/elog.c ****     /* make sure the log level is output on each format */
 781:../../../easylogger/src/elog.c ****     ELOG_ASSERT(elog.enabled_fmt_set[ELOG_LVL_ASSERT] & ELOG_FMT_LVL);
 2577              		.loc 1 781 5 discriminator 6 view .LVU567
 2578 000a 794B     		ldr	r3, .L255
 2579 000c D3F8D830 		ldr	r3, [r3, #216]
 2580 0010 13F0010F 		tst	r3, #1
 2581 0014 09D1     		bne	.L222
 2582              		.loc 1 781 5 discriminator 1 view .LVU568
 2583 0016 774B     		ldr	r3, .L255+4
 2584 0018 1B68     		ldr	r3, [r3]
 2585 001a 002B     		cmp	r3, #0
 2586 001c 00F08180 		beq	.L246
 2587              		.loc 1 781 5 discriminator 4 view .LVU569
 2588 0020 40F20D32 		movw	r2, #781
 2589 0024 7449     		ldr	r1, .L255+8
 2590 0026 7548     		ldr	r0, .L255+12
 2591 0028 9847     		blx	r3
 2592              	.LVL227:
 2593              	.L222:
 2594              		.loc 1 781 70 discriminator 6 view .LVU570
 782:../../../easylogger/src/elog.c ****     ELOG_ASSERT(elog.enabled_fmt_set[ELOG_LVL_ERROR] & ELOG_FMT_LVL);
 2595              		.loc 1 782 5 discriminator 6 view .LVU571
 2596 002a 714B     		ldr	r3, .L255
 2597 002c D3F8DC30 		ldr	r3, [r3, #220]
 2598 0030 13F0010F 		tst	r3, #1
 2599 0034 09D1     		bne	.L225
 2600              		.loc 1 782 5 discriminator 1 view .LVU572
 2601 0036 6F4B     		ldr	r3, .L255+4
 2602 0038 1B68     		ldr	r3, [r3]
 2603 003a 002B     		cmp	r3, #0
 2604 003c 00F08180 		beq	.L247
 2605              		.loc 1 782 5 discriminator 4 view .LVU573
 2606 0040 40F20E32 		movw	r2, #782
 2607 0044 6C49     		ldr	r1, .L255+8
 2608 0046 6E48     		ldr	r0, .L255+16
 2609 0048 9847     		blx	r3
 2610              	.LVL228:
 2611              	.L225:
ARM GAS  C:\Users\Jim_YW\AppData\Local\Temp\ccykl1oO.s 			page 69


 2612              		.loc 1 782 69 discriminator 6 view .LVU574
 783:../../../easylogger/src/elog.c ****     ELOG_ASSERT(elog.enabled_fmt_set[ELOG_LVL_WARN] & ELOG_FMT_LVL);
 2613              		.loc 1 783 5 discriminator 6 view .LVU575
 2614 004a 694B     		ldr	r3, .L255
 2615 004c D3F8E030 		ldr	r3, [r3, #224]
 2616 0050 13F0010F 		tst	r3, #1
 2617 0054 09D1     		bne	.L228
 2618              		.loc 1 783 5 discriminator 1 view .LVU576
 2619 0056 674B     		ldr	r3, .L255+4
 2620 0058 1B68     		ldr	r3, [r3]
 2621 005a 002B     		cmp	r3, #0
 2622 005c 00F08180 		beq	.L248
 2623              		.loc 1 783 5 discriminator 4 view .LVU577
 2624 0060 40F20F32 		movw	r2, #783
 2625 0064 6449     		ldr	r1, .L255+8
 2626 0066 6748     		ldr	r0, .L255+20
 2627 0068 9847     		blx	r3
 2628              	.LVL229:
